:1000000000800020BD0100008DDA010051DA0100FE
:1000100051DA010051DA010051DA010051DA010030
:1000200051DA010051DA010051DA01008DDA0100E4
:100030008DDA010051DA01008DDA010041DA0100A8
:100040008DDA01008DDA01008DDA01008DDA010010
:100050008DDA01008DDA01008DDA01008DDA010000
:100060008DDA01008DDA01008DDA01008DDA0100F0
:100070008DDA01008DDA01008DDA01008DDA0100E0
:100080008DDA01008DDA01008DDA01008DDA0100D0
:100090008DDA01008DDA01008DDA01008DDA0100C0
:1000A0008DDA01008DDA01008DDA01008DDA0100B0
:1000B0008DDA01008DDA01008DDA01008DDA0100A0
:1000C0008DDA01008DDA01008DDA01008DDA010090
:1000D0008DDA01008DDA01008DDA01008DDA010080
:1000E0008DDA01008DDA01008DDA01008DDA010070
:1000F0008DDA010041FB01008DDA01003D010200B3
:100100008DDA01005D0602008DDA01008DDA010052
:100110008DDA01008DDA01008DDA01008DDA01003F
:100120008DDA01008DDA01008DDA01008DDA01002F
:100130008DDA01008DDA01008DDA01008DDA01001F
:100140008DDA01008DDA01008DDA01008DDA01000F
:100150008DDA01008DDA01008DDA01008DDA0100FF
:100160008DDA010005E101008DDA01008DDA010070
:100170008DDA01008DDA01008DDA01008DDA0100DF
:100180008DDA01008DDA01008DDA01008DDA0100CF
:100190008DDA01008DDA01008DDA01008DDA0100BF
:1001A0008DDA01008DDA01008DDA01008DDA0100AF
:1001B0008DDA01008DDA01008DDA0100574B4CF227
:1001C000205210B51A804DF628121A8000BF00BFC9
:1001D0001DF060FC524B4FF010621A60514A9A6059
:1001E000514ADA60A3F53043203B1A6812F480725A
:1001F00004D14E490A604FF4A8521A604C4B1A7849
:10020000110703D51A7842F008021A70494B4A4C7C
:100210004A482A221A704A4A00239918A14203D256
:10022000195899500433F8E7464B474900228B424E
:1002300002D243F8042BFAE74448454900235A58B0
:100240001A500433B3F5DE7FF9D1424B424A802184
:1002500003F8011B9342FBD1404B3C4A1A60404BD0
:100260000A221A70A3F5805324225A70A0221A7011
:100270009A799207FCD59A79D406FCD4394A9379B5
:1002800003F00C03082B374BF9D103221A714022DB
:100290005A719A799006FCD5324A9179314B4906C8
:1002A000FBD5314A314911600221516020221A7078
:1002B0009A7902F00C020C2AFAD12D4B2D4A1A60C1
:1002C0002D4B4BF67F321A6000225A60072243F80A
:1002D000042C2A4AC3F80C2D62B61DF093FD134B73
:1002E0001B68DA0705D526481DF006FC254B264A73
:1002F0001A60264B1B785B0609D5224C224A2368DC
:10030000934204D11E481DF0F7FB0023236021F027
:1003100013FD1DF0C5FB1FF051F8FEE70E20054050
:1003200030800440823F04000100002B14D00340C1
:1003300002D0074000E007409C96FF1FC09B0200D0
:10034000708CFF1F9C96FF1FB8B7FF1F0082FF1F16
:100350000000000000E400E05FE400E008ED00E0E1
:100360000050064000400640448004400000031155
:1003700004800440C010050014E000E000002020CC
:1003800045C0BE581CE00340A5C3945A00F0074086
:10039000FFFFFFFFFFFFFFFFFFFFFFFFFFFFFFFF6D
:1003A000FFFFFFFFFFFFFFFFFFFFFFFFFFFFFFFF5D
:1003B000FFFFFFFFFFFFFFFFFFFFFFFFFFFFFFFF4D
:1003C000FFFFFFFFFFFFFFFFFFFFFFFFFFFFFFFF3D
:1003D000FFFFFFFFFFFFFFFFFFFFFFFFFFFFFFFF2D
:1003E000FFFFFFFFFFFFFFFFFFFFFFFFFFFFFFFF1D
:1003F000FFFFFFFFFFFFFFFFFFFFFFFFFFFFFFFF0D
:10040000FFFFFFFFFFFFFFFFFFFFFFFFFEFFFFFFFD
:1004100010B5054C237833B9044B13B10448AFF33E
:1004200000800123237010BD9C96FF1F0000000078
:10043000B89B020008B5064B1BB106480649AFF34E
:1004400000800648036813B1054B03B1984708BD07
:1004500000000000B89B0200A096FF1F9C96FF1FA3
:100460000000000038B5074D284605F095F8064C09
:1004700023685B68204629460B22984720461EF0D9
:10048000BDFF38BD3C5B02009CB5FF1F70B5444BFF
:100490001C68217891B9204622F0BCFA02464148F6
:1004A00001684D682146A8473F4C20463F4901F06E
:1004B000B7FC20463E4901F0E3FC70BD01290FD195
:1004C00044F22B001EF052FC0A201DF085FC44F281
:1004D0002B001EF0EBFB324B1A6801321A6070BD24
:1004E00002290FD144F228001EF040FC0A201DF022
:1004F00073FC44F228001EF0D9FB294B1A68013224
:100500001A6070BD092944D12A4A1278002A37D1CD
:10051000244C23685B68204627490F2298472046D1
:100520001EF06CFF0122254B1A60254812F078F866
:10053000244B1E6806F57A66204C1D4601E00AF041
:1005400003FF236813B12B689E42F8D800221B4B8F
:100550001A60154C2046154901F062FC20461449EA
:1005600001F08EFC70BDA1F10A034FF47A7000FB1C
:1005700003F01DF031FC0A4B1A6801321A6070BD9D
:100580001148026812689047054B1A6801321A60D8
:1005900070BDA1F10A02D2B2152AF1D8E3E700BF7B
:1005A000FC97FF1F9CB5FF1F3498FF1FE096FF1FAD
:1005B000C496FF1FA89AFF1F485B020030B1FF1FBF
:1005C0002156000070B4FF1F94B5FF1F38B50546D3
:1005D0000C46084622F01EFA02462B685B68284645
:1005E0002146984738BD00BF38B504460D46084639
:1005F00022F010FA024623685B6820462946984795
:10060000054620461EF0FAFE284438BD38B505469A
:100610001EF054FF044628461EF0F0FE204438BD6C
:1006200038B50022914B1A700620914B18700121A9
:10063000904B19701622904B1A7017228F4B1A701C
:1006400011228F4B1A700F228E4B1A7010228E4B74
:100650001A700E228D4B1A7015228D4B1A701DF0D8
:100660007FFA8C48202105F0AFFA8B4B1B78DE2BEC
:100670002CD105F009F844200DF0AAFC0446874867
:100680000268556886491422A8472CB1834803683C
:100690005B68844904229847804C23685B68204645
:1006A00081491422984720461EF0A8FE01227F4B64
:1006B0001A7000227E4B1A7023685B6820467D49C1
:1006C0001822984720461EF099FE68E0442B56D128
:1006D000002854DD7848202105F016FB774805F006
:1006E000EDFC774805F096FE764D284602F048F975
:1006F0006A4C23685B68204673490C229847204661
:100700001EF07CFE204629780A2200231EF09AFE65
:1007100020461EF073FE2B780BB904222A706B481A
:1007200002F00EF96A4D284602F03AF95B4C236854
:100730005B68204667491122984720461EF05EFEFE
:10074000204629780A2200231EF07CFE20461EF057
:1007500055FE15F06BFB0022544B1A700122544BCE
:100760001A7023685B6820465B490B229847204635
:100770001EF044FE59485A4901F082FB0FE0012265
:100780004A4B1A7000224A4B1A70444C23685B682B
:10079000204654491E22984720461EF02FFE524CF8
:1007A0002046524940F2FD720FF070FE01F00AFB44
:1007B00020464F49242200230FF012FE20463549DF
:1007C000202200230FF00CFE304B187815F002FAAF
:1007D00001462046042208230FF002FE2C4B187815
:1007E00015F0F8F901462046042208230FF0F8FD21
:1007F0002A4C23685B6820463E490C2298472046D5
:1008000040F29A611EF05AFE20461EF0F7FD204687
:10081000214B1978102200231EF014FE20461EF0F2
:10082000EDFD23685B68204633490922984720463E
:100830000E4B19781EF042FE20461EF0DFFD04F03C
:1008400013FE04F0EDFD04F0FDFD04F0E9FD04F0FD
:10085000F9FD0123154A1370284A1370144A1370C6
:100860001E48274901F00CFB38BD00BFA89AFF1FA6
:100870002D9EFF1F74A2FF1F75A2FF1F76A2FF1FF0
:10088000309EFF1F78AAFF1F79AAFF1F2E9EFF1F11
:100890002F9EFF1F3898FF1F020002409CB5FF1FCC
:1008A000585B0200705B0200785B0200E89AFF1F51
:1008B000A99AFF1F905B02007898FF1F9898FF1F6E
:1008C0005898FF1FA88CFF1FAC5B0200A48CFF1F71
:1008D000A4B7FF1FBC5B02003C5B02003498FF1F03
:1008E000F496FF1FD05B0200D0B1FF1FF05B020047
:1008F0001098FF1FFC5B02000C5C020058A2FF1F57
:10090000C496FF1F2DE9F04F9DB081460025A44BF2
:100910001D70A44C23685B682046A3490C229847AD
:10092000A24B1968204630391EF0C8FD20461EF043
:1009300065FD0CA82946402221F066FD9C48294609
:10094000EE2221F061FD0CA8494605F045FFB0F10B
:10095000000A5FDD23685B682046964919229847A4
:1009600020461EF04BFD23685B68204692490D220D
:100970009847204651461EF0A1FD20461EF03EFD40
:100980008E4B1B78002B40F0128423685B68204656
:100990008B490922984720461EF030FD0DF12F04A7
:1009A00004EB0A087F4F1026384614F8011F324620
:1009B0002B461EF047FD4445F6D17A481EF01EFD39
:1009C000804B93F8221072310CA849447E4A53465A
:1009D00008F012FDEBE3384614F8011F32462B46AF
:1009E0001EF030FD4445F6D16E4C20461EF006FD4B
:1009F0006B4D85F800A023685B6820467349182278
:100A0000984720461EF0FAFC2B780221684AD15400
:100A100001332B700CA80021402221F0F5FC0CA81A
:100A2000494603F0D5FC9DF83030002B2CD05D4CAE
:100A300023685B68204666491D22984720461EF0C1
:100A4000DDFC23685B682046624906229847204601
:100A50009DF830100A2200231EF0F4FC23685B6826
:100A600020465D492122984720461EF0C7FC9DF88C
:100A700030301E2B0BD80093494A11780A334C486A
:100A800043540131117004E00023009301E000237E
:100A900000930CA8494606F073FAB0F1000A53DD42
:100AA000404C23685B6820464C491E2298472046EC
:100AB0001EF0A4FC23685B6820464949122298472F
:100AC000204651461EF0FAFC20461EF097FC3B4B98
:100AD0001B78002B40F0858323685B6820463849EB
:100AE0000922984720461EF089FC0DF12F0404EBE3
:100AF0000A082C4F10260025384614F8011F3246EC
:100B00002B461EF09FFC4445F6D126481EF076FC8D
:100B10002C4B93F8221075310CA849442A4A5346AD
:100B200008F06AFC5DE3384614F8011F32462B4694
:100B30001EF088FC4445F6D11A481EF05FFC184BA5
:100B40001A78924483F800A00CA80021402221F0DA
:100B50005BFC0CA8494603F075F89DF83030002B7B
:100B600061D0312B42D10F4C23685B6820461D4970
:100B70001F22984720461EF041FC094D2B78012189
:100B80000B4AD15423685B682046174903229847D3
:100B900020461EF033FC2B7801332B7043E000BF5E
:100BA000DC96FF1F9CB5FF1F185C0200BC96FF1F60
:100BB0000C97FF1F285C0200445C0200A89AFF1FEC
:100BC000545C02001098FF1F7898FF1F605C0200C1
:100BD0007C5C02009C5C0200A45C0200C85C020019
:100BE000E85C0200FC5C02001C5D0200322B1AD1A2
:100BF0009B4C23685B6820469A491F2298472046F1
:100C00001EF0FCFB984D2B780221984AD1542368A2
:100C10005B68204696490622984720461EF0EEFB68
:100C20002B7801332B700CA80021402221F0ECFB23
:100C30000CA8494603F0FEFC9DF83030002B2CD068
:100C4000874C23685B6820468A491D2298472046C6
:100C50001EF0D4FB23685B6820468749062298472C
:100C600020469DF830100A2200231EF0EBFB23687B
:100C70005B68204681492122984720461EF0BEFB32
:100C80009DF830301E2B0BD89B46774A11780A33DB
:100C9000764843540131117004E04FF0000B01E03D
:100CA0004FF0000B0CA8494602F0A2FCB0F1000A7C
:100CB00053DD6B4C23685B68204671491F229847BF
:100CC00020461EF09BFB23685B6820466D4912227C
:100CD0009847204651461EF0F1FB20461EF08EFB41
:100CE000694B1B78002B40F0958223685B68204697
:100CF00066490922984720461EF080FB0DF12F041B
:100D000004EB0A08564F10260025384614F8011F38
:100D100032462B461EF096FB4445F6D150481EF055
:100D20006DFB5B4B93F8221070310CA84944594A73
:100D3000534608F061FB6DE2384614F8011F324655
:100D40002B461EF07FFB4445F6D145481EF056FB6E
:100D5000454B1A78924483F800A00CA80021402249
:100D600021F052FB0CA8494603F09EF89DF8303064
:100D7000002B38D0312B1AD1394C23685B682046C0
:100D800045491F22984720461EF038FB23685B68C0
:100D9000204642490322984720461EF02FFB324B43
:100DA0001A7801203149885402441A701BE0322B12
:100DB00019D12B4C23685B68204637491F2298477E
:100DC00020461EF01BFB23685B6820463449062240
:100DD000984720461EF012FB234B1A780220234925
:100DE000885401321A700CA80021402221F00CFB1B
:100DF0000CA8494603F050FD9DF83030002B2CD054
:100E0000174C23685B68204626491D2298472046D8
:100E10001EF0F4FA23685B682046174906229847BB
:100E200020469DF830100A2200231EF00BFB236899
:100E30005B6820461C491C22984720461EF0DEFABB
:100E40009DF830301E2B31D89846074A11780A3366
:100E500006484354013111702AE04FF0000827E0A2
:100E60009CB5FF1FFC5C0200DC96FF1F0C97FF1F68
:100E7000205D0200285D02009C5C0200485D0200CB
:100E80006C5D02008C5D0200A89AFF1F545C02009A
:100E90001098FF1F7898FF1FA05D02001C5D0200E4
:100EA000C05D0200C85D0200E85D02004FF000086E
:100EB0000CA80021402221F0A7FA0CA8494603F013
:100EC0004DFE9DF83030002B00F05681672B40F02E
:100ED000E0808B4C23685B6820468A491E22984735
:100EE00020461EF08BFA0CA8494606F03DFD019005
:100EF00023685B68204684490922984720461EF0F3
:100F00007DFA019B002B0FDD0DF12F049A46A244C0
:100F10007B4F10260025384614F8011F32462B4619
:100F20001EF090FA5445F6D1754C20461EF066FA34
:100F300023685B682046754912229847204601992C
:100F40001EF0BCFA20461EF059FA714B1B784BB9C3
:100F5000704B93F8221074310CA849446E4A019BDF
:100F600008F04AFA0CA86D49019A6D4B1B7804F001
:100F700007FB634C23685B6820466A490B2298474D
:100F800020461EF03BFA019B002B0FDD0DF12F04D4
:100F90009A46A2445A4F10260025384614F8011FDD
:100FA00032462B461EF04EFA5445F6D1544C20469C
:100FB0001EF024FA02A80CA9019A01F0BDFA01F072
:100FC0000BFC009B18448344D844204641461EF045
:100FD00075FA20461EF012FA02A8414601F0B0FA56
:100FE000044601F079FC78B94D4B1B784B4A4E21F1
:100FF000D15413444F225A7054229A705321D970FD
:10100000452119715A710FE0454B1B782178434AED
:10101000D154617813445970A2789A70E278DA70EA
:1010200022791A7162795A713D4B1A7806321A7018
:101030000CA80021402221F0E7F90CA8494603F052
:1010400065F89DF8303023B3312B10D12C4C20465D
:101050003549FFF7C9FA20463449FFF7C5FA304B46
:101060001A7801202D49885402441A7011E0322B5D
:101070000FD1234C20462C49FFF7B6FA20462C49C5
:10108000FFF7B2FA264B1A7802202449885401321D
:101090001A709DF83030792B60D11D4B1B78002BD6
:1010A0006AD1174C23685B6820462249182298476A
:1010B00020461EF0A3F91A4C23781848184408F06B
:1010C00031F823782C3323700CA8494603F01EF81E
:1010D0009DF83030002B4FD0312B2DD1084C2046BD
:1010E0001149FFF781FA20461049FFF77DFA0C4BB2
:1010F0001A7801200949885402441A702EE000BF72
:101100009CB5FF1F085E0200545C0200285E0200CE
:10111000A89AFF1F1098FF1F7898FF1F0C97FF1FBA
:10112000DC96FF1F3C5E0200485E02001C5D020070
:10113000C05D0200685E0200322B0FD1434C204696
:101140004349FFF751FA20464249FFF74DFA424B17
:101150001A7802204149885401321A709DF83030C3
:10116000752B09D13E4B1B7833B93B4B1A780920BC
:101170003A49885401321A70384D374B1B78002297
:10118000EA54324C23685B68204636491922984756
:1011900020461EF033F92978002954D023681B68B3
:1011A0002046984715F8011F0029F7D14BE00CA8FD
:1011B0002A495246284B1B7804F0E2F9234C236855
:1011C0005B68204628490B22984720461EF016F9F6
:1011D0000DF12F040AEB04081C4F10260025FFF721
:1011E000FABB0CA81D4952461B4B1B7804F0C8F9EA
:1011F000164C23685B6820461B490B229847204603
:101200001EF0FCF80DF12F0404EB0A080F4F102616
:10121000002588E40CA8114952460F4B1B7804F0B6
:10122000AFF90A4C23685B6820460F490B229847A8
:1012300020461EF0E3F80DF12F0404EB0A08034FDB
:101240001026002578E51DB0BDE8F08F9CB5FF1F86
:10125000485E0200C05D0200DC96FF1F0C97FF1F76
:10126000A89AFF1F845E02003C5E020038B5154B51
:101270001B7873B9144C2368144D5B6820462946CB
:101280002D22984720461EF0B9F8284604F084F92C
:1012900038BD0F4B187800211CF084FC0D4B1A68E8
:1012A0000D4B1A600D4B1B781BB10D4B1C68243C79
:1012B00004E00B4B1C68303C07F048FF2046FFF76A
:1012C00021FB38BDA99AFF1F9CB5FF1FA05E02003D
:1012D0002D9EFF1F70B4FF1F5CA2FF1FA89AFF1F67
:1012E000BC96FF1F38B5154B1B7873B9144C236897
:1012F000144D5B68204629462D22984720461EF053
:101300007DF8284604F048F938BD0F4B18780021C5
:101310001CF048FC0D4B1A680D4B1A600D4B1B78E6
:101320001BB10D4B1C68243C04E00B4B1C68303C8B
:1013300007F00CFFA01DFFF7E5FA38BDA99AFF1FC3
:101340009CB5FF1FA05E02002D9EFF1F70B4FF1F03
:101350005CA2FF1FA89AFF1FBC96FF1F30B583B089
:101360000546964B1B782BB9954B1878FF211CF03E
:1013700019FC04E0924B187800211CF013FC914BEF
:101380001B68022B0EDD904803685B688F49592269
:1013900098478F4D0524284604F0FEF8204604F0B7
:1013A00021F8F8E78B4B1B78002B57D0684601F0EB
:1013B00017FB9DF80030002B00F0168201A801F009
:1013C000FFFA814C20468449FFF70EF920469DF82C
:1013D00004100A2200231EF035F820461EF00EF8F5
:1013E0009DF80430132B0ED97C4B03F12101FF2211
:1013F00003F8012F8B42FBD1794804F0BFFC002099
:1014000001F0E6FA05E05A1C02A800F8042D01F0EC
:10141000DFFA9DF800300133DBB28DF800300A2B83
:1014200016D9694C23685B6820466E491B22984791
:1014300020461DF0E3FF20469DF800100A220023FD
:101440001EF000F820461DF0D9FF04F055FAD4E153
:10145000684601F0CDFA00225E4B1A706248634B79
:10146000197800F069FD554B1B784BB95E4800F0C8
:1014700091FD28B95C4800F06FFE002800F06681FD
:101480004E4B1B78002B2DD1002001F0B1FA5648AD
:1014900000F060FD00224B4B1A60554C204604F0D2
:1014A0007BF85448544900F0BBFC47482146FFF7FD
:1014B0009BF8524B1B7833B907F0F2FF0BF020FB7F
:1014C000002001F085FA4E4B1A684E4B1A6001223B
:1014D0003A4B1A704C4B1B78002B00F08E8107F0B2
:1014E0004BFE8AE1494B1B6823B9494B1B78002B03
:1014F0002DD182E1032B0BDC334C20464549FFF70D
:1015000065F83A4B196820463039FFF77FF874E1E7
:10151000062B0BDC2C4C20463F49FFF757F8334B8A
:10152000196820463039FFF771F866E1334B1B78B4
:10153000002B40F06281244C20463849FFF746F8E2
:101540002A4B196820463039FFF760F855E1002230
:10155000334B1A70334B1B78012B16D1324A11785A
:10156000224A1268914240F09980174C20462F4938
:10157000FFF72CF81D4B196820463039FFF746F865
:10158000284B1A7801321A7037E1022B54D1284BBC
:101590001A78164B1B689A4240F081800A4C20460C
:1015A0002449FFF713F8114B196820463039FFF72B
:1015B0002DF81C4B1A7801321A701EE1E89AFF1FB1
:1015C0002D9EFF1F0897FF1F9CB5FF1FD05E0200D6
:1015D0002C5F0200888CFF1F8C5F02007798FF1F32
:1015E0007898FF1FC85F0200B099FF1FBC96FF1FCD
:1015F000E45F02003498FF1FF496FF1FA89AFF1FB4
:1016000070B4FF1F5CA2FF1F58A2FF1F349EFF1F74
:10161000A99AFF1FF05F0200086002002460020028
:101620000C97FF1F48ADFF1FF8ADFF1F4060020081
:10163000F9ADFF1F54600200032B2FD1704B1A78B5
:10164000704B1B689A422AD16F4C20466F49FEF7B7
:10165000BDFF6C4B196820463039FEF7D7FF6C4B45
:101660001A7801321A7044F228001DF07FFB0A201C
:101670001CF0B2FB44F228001DF018FB654B1B79EF
:10168000ED2B02D163480AF06DFE624B1B79F02B03
:1016900040F0B3805F480BF07BF8AEE0D3B100249C
:1016A0005B4B1C7007F052FD44F228001DF05EFBFE
:1016B0000A201CF091FB44F228001DF0F7FA56486E
:1016C00003F06AFF554B1C60554B1878FF211CF046
:1016D00069FA92E0312D20DD4A4B1B68312B0CD189
:1016E000504D514C2846214600F09AFB08F0B6FBBD
:1016F0002846214600F0C4FB7FE0362B0DD10124A3
:101700004A4B1C7000224A4B1A704A4B1C704A48C4
:1017100000F020FC494B1C606FE00A2D68DC434B55
:101720001B7823B9FFF7A2FD01E0FFF7DBFD444A78
:10173000444B1A603B4C20463B4900F071FB20466D
:101740004149424B1A7800F07DFB56E03A4800F0E0
:10175000BFFC30B12C483E49FEF746FF04F0CCF800
:101760004BE0364B1B68092B17DC274C20463949C8
:10177000FEF72CFF234B196820463039FEF746FF51
:1017800020463549FEF722FF2C4D20462968FEF7FA
:101790003DFF2B6801332B602FE00125254B1D7089
:1017A0002E4B1A682A441A60032003F01BFE164CC5
:1017B00020462B49FEF70AFF684601F011F99DF813
:1017C00000102046C1F10A011DF078FE204625498F
:1017D000FEF70AFF20462449FEF706FF164800F0F0
:1017E000B9FB164B1D6008E001238DF800302FE691
:1017F0000E4B1B78002B9AD197E703B030BD00BF8A
:10180000FAADFF1FBC96FF1F9CB5FF1F686002006A
:1018100048ADFF1F649AFF1F7C6002004C9AFF1FB7
:101820002D9EFF1F3498FF1FC496FF1F58A2FF1F55
:10183000E89AFF1F888CFF1FB099FF1F848CFF1F41
:101840000C97FF1FFC97FF1FE096FF1FA88CFF1F40
:10185000A4600200F05F0200C06002000897FF1F52
:10186000EC600200086102004061020010B56E4B9E
:101870001B7813B36D4B1B78FBB909F065FD6C4BFE
:101880001B78D3B107F05AFC6A4B1B78ABB16A4A9C
:1018900011684EF6602202FB03F3684A12688A1A46
:1018A00093420AD80022604B1A700124644B1C70CA
:1018B000644800F04FFB644B1C60644B1B783BB1E9
:1018C000594B1B7823B1624B1B780BB907F054FCC2
:1018D00003F0CAFD5F4B1A6840F2DC539A420CD900
:1018E00000235D4A13605D4A13605D4B1A68013244
:1018F0001A6035225B4B1A6082E05B4B1A6840F23B
:10190000DC539A420CD90023534A1360534A1360A4
:10191000534B1A6801321A603222524B1A606FE040
:10192000524B1A6840F2DC539A420CD900234A4ABF
:1019300013604A4A13604A4B1A6801321A60312216
:10194000484B1A605CE04A4B1A6840F2DC539A42FA
:101950000CD90023404A1360404A1360404B1A6878
:1019600001321A6033223F4B1A6049E0414B1A683A
:1019700040F2DC539A420CD90023374A1360374AAD
:101980001360374B1A6801321A603422354B1A60E3
:1019900036E0394B1A6840F2DC539A420CD90023E6
:1019A0002D4A13602D4A13602D4B1A6801321A60BC
:1019B00036222C4B1A6023E0294B1C6820461FF06E
:1019C000D3FD4FF07C511FF08FFE08B1234B1C60FC
:1019D0000022234B1A60204B1A6801321A60124B06
:1019E0001B782BB9254B187800211CF0DBF807E099
:1019F000174B1B7823B9214B1878FF211CF0D2F824
:101A0000164B1C68002C0EDD134B18681FF0ACFD44
:101A10004FF07C511FF068FE28B12046FFF79EFC76
:101A200000220E4B1A6010BDE89AFF1F48ADFF1F41
:101A3000A99AFF1FA48CFF1F70B4FF1F5CA2FF1F99
:101A4000888CFF1FB099FF1F848CFF1F58A2FF1FB7
:101A50002C9EFF1FE09AFF1FB896FF1FD896FF1F0E
:101A6000C096FF1FBC96FF1FE49AFF1FAC9AFF1F92
:101A7000B09AFF1FB49AFF1FB89AFF1F2D9EFF1F39
:101A800008B514F06DF908486421084A00F03EFAE0
:101A900007486421074A00F039FA07484FF47A7181
:101AA000064A00F033FA08BDC496FF1F6D18000007
:101AB000E096FF1F8D040000F496FF1F65040000F0
:101AC0002DE9F00FCAB001900A460023D078CC5C13
:101AD00040EA0460547840EA0440947840EA0420E4
:101AE00003F128056C46285104330432402BEDD114
:101AF0000AAB0022986B59685D6A02F128076E46AE
:101B0000BC592C444FEA704585EAF04585EA90209F
:101B100020444FEAF11484EAB14484EAD10101443B
:101B2000196404320433C02AE4D10199096D029189
:101B3000019A526D0392019B9B6D0493019CE46D8D
:101B40000594019D2D6E0695019E766E0796019F68
:101B5000BF6E08970199C96E099189463D46B44602
:101B6000069BA04604981446029A0021DFF8A8A01C
:101B700001F1280B6F465BF8076051F80A70374493
:101B80004FEAB31686EAF32686EA7366374425EAF7
:101B900003060CEA030B86EA0B063E444E4480EA39
:101BA0000407174000EA040987EA09074FEAB20967
:101BB00089EA723989EAB2594F44B0443E4404314B
:101BC000B1F5807F08D0A94665469C4643468046CD
:101BD000204614463246CBE702990E44019F3E65EB
:101BE00003990A447A65049A1444BC65059C204410
:101BF000F865069A42443A66079E33447B66089B22
:101C00006344BB66099F3D44DDF804B0CBF86C50DB
:101C10004AB0BDE8F00F7047806102000023036402
:101C200000220023C0E912230A4B03650A4B4365D7
:101C30000A4B83650A4BC3650A4B03660A4B43662E
:101C40000A4B836603F17453A3F52303A3F692436F
:101C5000C366704767E6096A85AE67BB72F36E3C80
:101C60003AF54FA57F520E518C68059BABD9831F67
:101C70002DE9F84306469046DAB10F4688444FF006
:101C80000009336C17F8012BF25401333364402BF5
:101C90000DD130463146FFF713FFD6E9124514F552
:101CA000007445F10005C6E91245C6F84090474565
:101CB000E7D1BDE8F88300BF2DE9F84F804689469B
:101CC000026C372A0CD8531C80218154372B1CD826
:101CD00002440021013302F8011F382BFAD114E02D
:101CE000531C802181543F2B06D80244002101332C
:101CF00002F8011F402BFAD140464146FFF7E0FEB3
:101D000040460021382220F07FFBD8F84030D9002F
:101D1000D8E91223521843F10003C8E9122388F8C6
:101D20003F20100A40EA0360190A88F83E00160CAA
:101D300046EA03461F0C88F83D60140E44EA03246B
:101D40001D0E88F83C4088F83B3088F83A1088F837
:101D5000397088F8385040464146FFF7B1FE0322FB
:101D6000D300D8F85010D94089F80010D8F8541092
:101D7000D94089F80410D8F85810D94089F80810CB
:101D8000D8F85C10D94089F80C10D8F86010D94008
:101D900089F81010D8F86410D94089F81410D8F8D0
:101DA0006810D94089F81810D8F86C1021FA03F39C
:101DB00089F81C30013A09F10109B2F1FF3FCFD196
:101DC000BDE8F88F00B583B006490A684B6888689B
:101DD0000090C96801910448044920F07BFD03B0DC
:101DE0005DF804FB0098FF1F1098FF1F806202003F
:101DF000064B1A68064B1A60064A12685A60064A71
:101E000012689A60054A1268DA607047548004408C
:101E10000098FF1F588004405C80044060800440AC
:101E2000026872B18A4209D113690360704799420E
:101E300001D01A4602E00B69136170471369002B49
:101E4000F5D17047F8B507460D461646FFF7E8FF8F
:101E50003C680CB93D6004E023690BB11C46FBE70C
:101E600025611BF097FF2B68C01A686006FB06F619
:101E700042F2107303FB06F62E6000232B61F8BDBF
:101E800038B505460C46FFF7CBFF2A680AB92C6027
:101E900004E013690BB11A46FBE714611BF07AFFEB
:101EA0002368C01A60600023236138BD38B50C4632
:101EB0001BF070FF0546626823681344984205D3FF
:101EC0006268934208D26268904205D36268954284
:101ED00007D26268934204D3A560E368204698471E
:101EE000656038BD38B505462C68002CFCD0284606
:101EF0002146FFF7DBFF2469002CF8D1F4E700BF8F
:101F000008B50148FFF7EEFF3498FF1F10B44FF4F7
:101F10007A7404FB01F10160C26000224260026138
:101F20005DF8044B704700BF01610022027302702C
:101F3000704700BF01617047037B0B2B07D05A1C11
:101F4000D2B20273C1540023835401207047002091
:101F5000704700BF002303730370704710B401691A
:101F60000A78047800237AB9D4F1010038BF002040
:101F70000DE011F8012F10F8014F01330B2BF2D1B6
:101F8000002004E0002002E0A242F2D0FAE75DF86F
:101F9000044B70472DE9F0479CB006460024DFF85B
:101FA00014810546335D04F808300134284620F0DA
:101FB00031FDA042F6D26846FFF730FE284620F0F9
:101FC00029FD024668463B49FFF752FE3A4803683E
:101FD0005B683A490B229847394B5C1E03F11F0896
:101FE000354F10260025384614F8011F32462B467F
:101FF0001DF028FA4445F6D12F4C20461DF0FEF97D
:1020000068462F492022FFF733FEDFF8A890684684
:102010004946FFF751FE23685B68204629490D2297
:10202000984709F1FF3409F11F08234F10260025B6
:10203000384614F8011F32462B461DF003FA44457A
:10204000F6D11D4C20461DF0D9F923685B68204667
:102050001D4909229847DFF874A00AF1FF340AF1FC
:102060001F08154F10260025384614F8011F324668
:102070002B461DF0E7F94445F6D10F481DF0BEF997
:10208000124B19780B4B1A780AF11E00534604E0E4
:10209000914214BF0020012009E0914206D113F8BB
:1020A000011F19F8012F8342F7D1F1E700201CB07E
:1020B000BDE8F087B898FF1F9CB5FF1F986202002B
:1020C0003898FF1FA4620200B46202007898FF1FD4
:1020D0002DE9F8431C4C20461DF090F923685B68FD
:1020E00020461A490C229847DFF8649009F1FF3422
:1020F00009F11F08144F10260025384614F8011F57
:1021000032462B461DF09EF94445F6D10E481DF08F
:1021100075F90F4B1A780F48017809F11E044B46E8
:1021200005E08A4214BF00200120BDE8F8838A42FE
:1021300006D113F8012F10F8011FA342F7D1F0E7E1
:102140000020BDE8F88300BF9CB5FF1FC0620200FD
:102150009898FF1FB898FF1F2DE9F8431E4C2046A2
:102160001DF04CF923685B6820461C490C229847F7
:10217000DFF86C9009F1FF3409F11F08164F1026A3
:102180000025384614F8011F32462B461DF05AF937
:102190004445F6D110481DF031F9114B1A78114819
:1021A000017809F11E044B4606E08A420DD1012058
:1021B0000D4B1870BDE8F8838A4209D113F8012F3E
:1021C00010F8011FA342F7D1EFE70020BDE8F88324
:1021D0000020BDE8F88300BF9CB5FF1FD06202005D
:1021E0005898FF1FB898FF1FA89AFF1F08B513F053
:1021F000B7FD08BD70B40546064C0FCCE8642965F0
:102200006A65AB652068E86500232B6685F8483071
:1022100070BC70478C8CFF1F2DE9F00F86B0C36C2B
:102220000193076D0297436D0393876D0497C36D08
:1022300005931E463C460399DDF808C0019D0E2219
:102240000023DFF808A1DFF808912CE00F2B24D938
:1022500003F00F0600EB860602F00F0808F10208F3
:1022600050F82880B76887EA0808A2F1050B0BF040
:102270000F0B0BF1020B50F82BB088EA0B08A2F100
:102280000B0B0BF00F0B0BF1020B50F82BB088EA85
:102290000B084FEAF878C6F80880013226460C464B
:1022A0006146AC46009D132B0CD884EA010808EA6D
:1022B0000C0888EA040808F1B54808F51E3808F249
:1022C00099181FE0272B05D884EA010888EA0C0832
:1022D000C84417E03B2B09D84CEA010808EA040877
:1022E0000CEA010748EA0708D0440BE084EA010839
:1022F00088EA0C0808F14A4808F5C50808F583483B
:1023000008F1560803F00F07023750F8277007EB63
:10231000F5674744BE1900964FEABC0C0133DBB2A7
:10232000502B93D1019B3344C364029B1D4405652C
:10233000039B63444365049F39448165059B1C44AA
:10234000C46506B0BDE8F00F704700BFDCBC1B8F52
:10235000A1EBD96E10B5044690F8483083F0030223
:10236000024411720133DBB280F84830402B04D1B3
:10237000FFF752FF002384F8483010BD08B5026E05
:1023800001320266FFF7E6FF012008BD38B50446BA
:102390008021FFF7DFFF94F84830382B08D0002564
:1023A00020462946FFF7D6FF94F84830382BF7D15E
:1023B00020460021FFF7CEFF20460021FFF7CAFF8D
:1023C00020460021FFF7C6FF216E2046490FFFF788
:1023D000C1FF216E2046C1F34751FFF7BBFF216EBD
:1023E0002046C1F34731FFF7B5FF216E2046C1F308
:1023F0004711FFF7AFFF236ED900204601F0F80127
:10240000FFF7A8FF38BD00BF38B50546FFF7BEFF90
:102410002A460021D36C1C0E44EA0364180200F41F
:102420007F0004431B0A03F47F432343D364013139
:1024300004320529EED105F14C0038BDF8B505464A
:102440000C46164600F164073846002140221FF072
:10245000DBFF402E1ADD2846FFF7CCFE46B12644AE
:102460002B681B68284614F8011B9847B442F7D123
:102470002846FFF7C9FF036844688168C2686B6635
:102480007C60B960FA6003693B6104E0384621462C
:10249000324613F0F7F92846FFF7ACFE05F1630466
:1024A00005F1A3062B6814F8011F1B68284681F06C
:1024B00036019847B442F5D1F8BD00BF70B5054666
:1024C000FFF7A2FF026846688468C168C5F8A420C7
:1024D000C5F8A860C5F8AC40C5F8B0100269C5F8E9
:1024E000B4202846FFF786FE05F1630405F1A30634
:1024F0002B6814F8011F1B68284681F05C0198477F
:10250000B442F5D105F114062C462B681B68284609
:1025100094F8A41098470134B442F6D12846FFF746
:1025200073FF70BD024B00221A71024A1A60704795
:10253000D898FF1FE862020001604260704700BF48
:1025400070B50446224B83FB01230B44C917C1EB32
:10255000231181600025057345738573C5730B0EC8
:1025600003740B1443740B128374C174194E3046F8
:1025700021686268FFF762FF33685B68304604F1E8
:102580000C01082298473046FFF798FF6061C27C33
:1025900002F00F02A261E5612B461044E2691202CB
:1025A000E261C15C0A43E2610133042BF6D122F0FF
:1025B0000043094A82FB03129214084901FB1232BC
:1025C000E26120342046064920F084F9204670BD9F
:1025D00089888888D898FF1F83DE1B4340420F00FC
:1025E000F06202002DE9F00F5B4BA3FB00425209A1
:1025F000C2EB0214A0EB84000870A3FB02A35B09EA
:10260000C3EB0310A2EB80024A70544CA4FB0308F6
:102610004FEA181808EB4802A3EBC2038B70474639
:1026200008F104004E4AA0FB0223C21A03EB520336
:102630009B08C3EBC303C01A0130C87000200246D8
:1026400040F26D1C474C4FF064094FF4B77BC5B2A4
:1026500005F2B273ABB113F0030F14D184FB03A6E0
:10266000761109FB163686B984FB03A6F6114FF4E2
:10267000C87A06FB1A36002E0CBF4FF4B7766646B2
:1026800004E0664602E0664600E05E463244013001
:102690009742DCD28D71CBB113F0030F19D13148C1
:1026A00080FB03404011642404FB1030A0B92D4886
:1026B00080FB03A0C0114FF4C87400FB1430002845
:1026C00040F26D1408BF4FF4B77407E040F26D1488
:1026D00004E040F26D1401E04FF4B774121BC2EB3A
:1026E0000804204F87FB03074FEA671C642202FBA4
:1026F0001C3CFF114FF4C87202FB173700221A4E20
:102700004FF01C0803F0030A4FF01D09D0B2012856
:102710000BD163B1BAF1000F0BD1BCF1000F0AD19C
:10272000002F0CBF1D251C2506E0955D04E04546E5
:1027300002E0454600E04D46A54205D8641B013045
:10274000C0B201320C2AE1D10130487101340C7160
:10275000BDE8F00F704700BF89888888ABAAAAAA95
:10276000254992241F85EB51F862020010B50446FA
:10277000044B1B68984204D00349FFF733FF014B19
:102780001C6010BD9099FF1F9499FF1F08B5FFF7BB
:10279000EDFF024B987900F2B27008BD9499FF1FCB
:1027A000074B1860074B1B681844074B1860022240
:1027B000064B1A70064B1A68064B1A60704700BF2A
:1027C0009C99FF1FA08CFF1FAC99FF1FA099FF1FB2
:1027D00070B4FF1FA899FF1F10B51C4B1A681C4B43
:1027E0001B68D21AB2F57A7F11D31A4A12680132E5
:1027F000164C03F57A732168501CC91AB1F57A7F1B
:1028000001D30246F5E713490A60114A1360124BDF
:102810001A68104B1B689A4214D8104B1B688BB176
:10282000984710B1FFF7BCFF0CE00D4B1A68094B3D
:102830001B681A44084B1A600A4B1A78003218BFFA
:1028400001221A70034B186810BD00BF70B4FF1F3F
:10285000A899FF1F9C99FF1FAC99FF1FA499FF1F08
:10286000A08CFF1FA099FF1F08B5FFF7B5FFFFF76A
:102870007DFF014B987808BD9499FF1F08B5FFF7BD
:10288000ABFFFFF773FF014B587808BD9499FF1F0A
:1028900008B5FFF7A1FFFFF769FF014B187808BDE6
:1028A0009499FF1F08B5FFF797FFFFF75FFF014BF4
:1028B000187908BD9499FF1F08B5FFF78DFFFFF742
:1028C00055FF014B587908BD9499FF1F08B5FFF7D4
:1028D00083FFFFF75BFF08BD08B5FFF77DFF014BE6
:1028E000187808BDA099FF1F70B516464AB10E446E
:1028F0000C46451A204613F06DFA28550134B442AF
:10290000F8D170BD70B5154642B10C46461A204646
:10291000315D13F073FA0134013DF8D170BD00BF91
:1029200008B540F294610122FFF7DEFF012008BDE7
:1029300008B540F294610122FFF7E4FF08BD00BF33
:1029400008B540F295610122FFF7CEFF012008BDD6
:1029500008B540F295610122FFF7D4FF08BD00BF22
:1029600008B540F296610122FFF7BEFF012008BDC5
:1029700008B540F296610122FFF7C4FF08BD00BF11
:1029800008B540F297610122FFF7AEFF012008BDB4
:1029900008B540F297610122FFF7B4FF08BD00BF00
:1029A00008B54FF4D3610122FFF79EFF012008BD57
:1029B00008B54FF4D3610122FFF7A4FF08BD00BFA3
:1029C00008B540F299610122FFF78EFF012008BD92
:1029D00008B540F299610122FFF794FF08BD00BFDE
:1029E00008B540F29A610122FFF77EFF012008BD81
:1029F00008B540F29A610122FFF784FF08BD00BFCD
:102A000008B540F291610222FFF76EFF022008BD77
:102A100008B540F291610222FFF774FF08BD00BFC4
:102A200008B540F293610122FFF75EFF012008BD67
:102A300008B540F293610122FFF764FF08BD00BFB3
:102A400008B54FF4BE610122FFF74EFF012008BD1B
:102A500008B54FF4BE610122FFF754FF08BD00BF67
:102A600008B540F2F1510122FFF73EFF012008BDF9
:102A700008B540F2F1510122FFF744FF08BD00BF45
:102A800008B540F2F2510122FFF72EFF012008BDE8
:102A900008B540F2F2510122FFF734FF08BD00BF34
:102AA00008B540F2F3510122FFF71EFF012008BDD7
:102AB00008B540F2F3510122FFF724FF08BD00BF23
:102AC00008B540F2F4510122FFF70EFF012008BDC6
:102AD00008B540F2F4510122FFF714FF08BD00BF12
:102AE00008B540F2F5510122FFF7FEFE012008BDB6
:102AF00008B540F2F5510122FFF704FF08BD00BF01
:102B000008B540F2F6510122FFF7EEFE012008BDA4
:102B100008B540F2F6510122FFF7F4FE08BD00BFF0
:102B200008B540F2F7510122FFF7DEFE012008BD93
:102B300008B540F2F7510122FFF7E4FE08BD00BFDF
:102B400008B54FF4BF610122FFF7CEFE012008BD9A
:102B500008B54FF4BF610122FFF7D4FE08BD00BFE6
:102B600008B540F2F9510122FFF7BEFE012008BD71
:102B700008B540F2F9510122FFF7C4FE08BD00BFBD
:102B800008B540F2FA510122FFF7AEFE012008BD60
:102B900008B540F2FA510122FFF7B4FE08BD00BFAC
:102BA00008B540F2FB510122FFF79EFE012008BD4F
:102BB00008B540F2FB510122FFF7A4FE08BD00BF9B
:102BC00008B540F2FC510122FFF78EFE012008BD3E
:102BD00008B540F2FC510122FFF794FE08BD00BF8A
:102BE00008B540F2FD510122FFF77EFE012008BD2D
:102BF00008B540F2FD510122FFF784FE08BD00BF79
:102C000008B540F2FE510122FFF76EFE012008BD1B
:102C100008B540F2FE510122FFF774FE08BD00BF67
:102C200008B540F2FF510122FFF75EFE012008BD0A
:102C300008B540F2FF510122FFF764FE08BD00BF56
:102C400008B54FF4C0610122FFF74EFE012008BD18
:102C500008B54FF4C0610122FFF754FE08BD00BF64
:102C600008B540F201610122FFF73EFE012008BDD8
:102C700008B540F201610122FFF744FE08BD00BF24
:102C800008B540F202610122FFF72EFE012008BDC7
:102C900008B540F202610122FFF734FE08BD00BF13
:102CA00008B540F203610122FFF71EFE012008BDB6
:102CB00008B540F203610122FFF724FE08BD00BF02
:102CC00008B540F204610122FFF70EFE012008BDA5
:102CD00008B540F204610122FFF714FE08BD00BFF1
:102CE00008B540F205610122FFF7FEFD012008BD95
:102CF00008B540F205610122FFF704FE08BD00BFE0
:102D000008B540F206610122FFF7EEFD012008BD83
:102D100008B540F206610122FFF7F4FD08BD00BFCF
:102D200008B540F207610122FFF7DEFD012008BD72
:102D300008B540F207610122FFF7E4FD08BD00BFBE
:102D400008B568210122FFF7CFFD012008BD00BFB3
:102D500008B568210122FFF7D5FD08BD08B5692136
:102D60000122FFF7C1FD012008BD00BF08B56921A0
:102D70000122FFF7C7FD08BD08B56A210122FFF750
:102D8000B3FD012008BD00BF08B56A210122FFF78D
:102D9000B9FD08BD08B56B210122FFF7A5FD012093
:102DA00008BD00BF08B56B210122FFF7ABFD08BDD0
:102DB00008B56C210122FFF797FD012008BD00BF77
:102DC00008B56C210122FFF79DFD08BD08B56D21F6
:102DD0000122FFF789FD012008BD00BF08B56D2164
:102DE0000122FFF78FFD08BD08B56E210122FFF714
:102DF0007BFD012008BD00BF08B56E210122FFF751
:102E000081FD08BD08B56F210122FFF76DFD01208E
:102E100008BD00BF08B56F210122FFF773FD08BD93
:102E200008B570210122FFF75FFD012008BD00BF3A
:102E300008B570210122FFF765FD08BD08B57121B5
:102E40000122FFF751FD012008BD00BF08B5712127
:102E50000122FFF757FD08BD08B572210122FFF7D7
:102E600043FD012008BD00BF08B572210122FFF714
:102E700049FD08BD08B573210122FFF735FD01208A
:102E800008BD00BF08B573210122FFF73BFD08BD57
:102E900008B574210122FFF727FD012008BD00BFFE
:102EA00008B574210122FFF72DFD08BD08B5752175
:102EB0000122FFF719FD012008BD00BF08B57521EB
:102EC0000122FFF71FFD08BD08B576210122FFF79B
:102ED0000BFD012008BD00BF08B576210122FFF7D8
:102EE00011FD08BD08B577210122FFF7FDFC012087
:102EF00008BD00BF08B577210122FFF703FD08BD1B
:102F000008B578210122FFF7EFFC012008BD00BFC2
:102F100008B578210122FFF7F5FC08BD08B5792135
:102F20000122FFF7E1FC012008BD00BF08B57921AF
:102F30000122FFF7E7FC08BD08B57A210122FFF75F
:102F4000D3FC012008BD00BF08B57A210122FFF79C
:102F5000D9FC08BD08B57B210122FFF7C5FC012083
:102F600008BD00BF08B57B210122FFF7CBFC08BDDF
:102F700008B57C210122FFF7B7FC012008BD00BF86
:102F800008B57C210122FFF7BDFC08BD08B57D21F5
:102F90000122FFF7A9FC012008BD00BF08B57D2173
:102FA0000122FFF7AFFC08BD08B57E210122FFF723
:102FB0009BFC012008BD00BF08B57E210122FFF760
:102FC000A1FC08BD08B57F210122FFF78DFC01207F
:102FD00008BD00BF08B57F210122FFF793FC08BDA3
:102FE00008B520210122FFF77FFC012008BD00BFAA
:102FF00008B520210122FFF785FC08BD08B5212175
:103000000122FFF771FC012008BD00BF08B5212196
:103010000122FFF777FC08BD08B522210122FFF746
:1030200063FC012008BD00BF08B522210122FFF783
:1030300069FC08BD08B523210122FFF755FC0120DA
:1030400008BD00BF08B523210122FFF75BFC08BDC6
:1030500008B524210122FFF747FC012008BD00BF6D
:1030600008B524210122FFF74DFC08BD08B5252134
:103070000122FFF739FC012008BD00BF08B525215A
:103080000122FFF73FFC08BD08B526210122FFF70A
:103090002BFC012008BD00BF08B526210122FFF747
:1030A00031FC08BD08B527210122FFF71DFC0120D6
:1030B00008BD00BF08B527210122FFF723FC08BD8A
:1030C00008B528210122FFF70FFC012008BD00BF31
:1030D00008B528210122FFF715FC08BD08B52921F4
:1030E0000122FFF701FC012008BD00BF08B529211E
:1030F0000122FFF707FC08BD08B52A210122FFF7CE
:10310000F3FB012008BD00BF08B52A210122FFF70B
:10311000F9FB08BD08B52B210122FFF7E5FB0120D3
:1031200008BD00BF08B52B210122FFF7EBFB08BD4E
:1031300008B52C210122FFF7D7FB012008BD00BFF5
:1031400008B52C210122FFF7DDFB08BD08B52D21B4
:103150000122FFF7C9FB012008BD00BF08B52D21E2
:103160000122FFF7CFFB08BD08B52E210122FFF792
:10317000BBFB012008BD00BF08B52E210122FFF7CF
:10318000C1FB08BD08B52F210122FFF7ADFB0120CF
:1031900008BD00BF08B52F210122FFF7B3FB08BD12
:1031A00008B530210122FFF79FFB012008BD00BFB9
:1031B00008B530210122FFF7A5FB08BD08B5312174
:1031C0000122FFF791FB012008BD00BF08B53121A6
:1031D0000122FFF797FB08BD08B532210122FFF756
:1031E00083FB012008BD00BF08B532210122FFF793
:1031F00089FB08BD08B533210122FFF775FB0120CB
:1032000008BD00BF08B533210122FFF77BFB08BDD5
:1032100008B534210122FFF767FB012008BD00BF7C
:1032200008B534210122FFF76DFB08BD08B5352133
:103230000122FFF759FB012008BD00BF08B5352169
:103240000122FFF75FFB08BD08B536210122FFF719
:103250004BFB012008BD00BF08B536210122FFF756
:1032600051FB08BD08B537210122FFF73DFB0120C6
:1032700008BD00BF08B537210122FFF743FB08BD99
:1032800008B54FF4CA610122FFF72EFB012008BDEB
:1032900008B54FF4CA610122FFF734FB08BD00BF37
:1032A00008B540F251610122FFF71EFB012008BD65
:1032B00008B540F251610122FFF724FB08BD00BFB1
:1032C00008B540F252610122FFF70EFB012008BD54
:1032D00008B540F252610122FFF714FB08BD00BFA0
:1032E00008B540F253610122FFF7FEFA012008BD44
:1032F00008B540F253610122FFF704FB08BD00BF8F
:1033000008B540F254610122FFF7EEFA012008BD32
:1033100008B540F254610122FFF7F4FA08BD00BF7E
:1033200008B540F255610122FFF7DEFA012008BD21
:1033300008B540F255610122FFF7E4FA08BD00BF6D
:1033400008B540F256610122FFF7CEFA012008BD10
:1033500008B540F256610122FFF7D4FA08BD00BF5C
:1033600008B540F257610122FFF7BEFA012008BDFF
:1033700008B540F257610122FFF7C4FA08BD00BF4B
:1033800008B54FF4CB610122FFF7AEFA012008BD6A
:1033900008B54FF4CB610122FFF7B4FA08BD00BFB6
:1033A00008B540F259610122FFF79EFA012008BDDD
:1033B00008B540F259610122FFF7A4FA08BD00BF29
:1033C00008B540F25A610122FFF78EFA012008BDCC
:1033D00008B540F25A610122FFF794FA08BD00BF18
:1033E00008B540F25B610122FFF77EFA012008BDBB
:1033F00008B540F25B610122FFF784FA08BD00BF07
:1034000008B540F25C610122FFF76EFA012008BDA9
:1034100008B540F25C610122FFF774FA08BD00BFF5
:1034200008B540F25D610122FFF75EFA012008BD98
:1034300008B540F25D610122FFF764FA08BD00BFE4
:1034400008B540F25E610122FFF74EFA012008BD87
:1034500008B540F25E610122FFF754FA08BD00BFD3
:1034600008B540F25F610122FFF73EFA012008BD76
:1034700008B540F25F610122FFF744FA08BD00BFC2
:1034800008B54FF4CC610122FFF72EFA012008BDE8
:1034900008B54FF4CC610122FFF734FA08BD00BF34
:1034A00008B540F261610122FFF71EFA012008BD54
:1034B00008B540F261610122FFF724FA08BD00BFA0
:1034C00008B540F262610122FFF70EFA012008BD43
:1034D00008B540F262610122FFF714FA08BD00BF8F
:1034E00008B540F263610122FFF7FEF9012008BD33
:1034F00008B540F263610122FFF704FA08BD00BF7E
:1035000008B540F264610122FFF7EEF9012008BD21
:1035100008B540F264610122FFF7F4F908BD00BF6D
:1035200008B540F265610122FFF7DEF9012008BD10
:1035300008B540F265610122FFF7E4F908BD00BF5C
:1035400008B540F266610122FFF7CEF9012008BDFF
:1035500008B540F266610122FFF7D4F908BD00BF4B
:1035600008B540F267610122FFF7BEF9012008BDEE
:1035700008B540F267610122FFF7C4F908BD00BF3A
:1035800008B502211022FFF7AFF9102008BD00BFD7
:1035900008B502211022FFF7B5F908BD08B51E21B4
:1035A0000222FFF7A1F9022008BD00BF08B51E21C5
:1035B0000222FFF7A7F908BD08B518210622FFF778
:1035C00093F9062008BD00BF08B518210622FFF7B1
:1035D00099F908BD08B512210622FFF785F90620E2
:1035E00008BD00BF08B512210622FFF78BF908BD00
:1035F00030B583B004460139172900F2B081DFE805
:1036000011F018002800380049005A006B007C00B7
:103610008D009E00AF00C000D100E200F300040165
:10362000150126013701480159016A017B018C010E
:103630009D010DF10700FFF703FA9DF80750382DA3
:10364000A8BF38252046B0213822FFF74DF928467B
:1036500086E10DF10700FFF703FA9DF80750382DBA
:10366000A8BF38252046E8213822FFF73DF9284633
:1036700076E10DF10700FFF703FA9DF80750382DAA
:10368000A8BF382520464FF490713822FFF72CF957
:10369000284665E10DF10700FFF702FA9DF8075093
:1036A000382DA8BF382520464FF4AC713822FFF7DB
:1036B0001BF9284654E10DF10700FFF701FA9DF8C8
:1036C0000750382DA8BF382520464FF4C87138223E
:1036D000FFF70AF9284643E10DF10700FFF700FA6A
:1036E0009DF80750382DA8BF382520464FF4E471C7
:1036F0003822FFF7F9F8284632E10DF10700FFF70D
:10370000FFF99DF80750382DA8BF382520464FF403
:1037100000713822FFF7E8F8284621E10DF1070093
:10372000FFF7FEF99DF80750382DA8BF3825204631
:103730004FF40E713822FFF7D7F8284610E10DF14B
:103740000700FFF7FDF99DF80750382DA8BF382571
:1037500020464FF41C713822FFF7C6F82846FFE0D8
:103760000DF10700FFF7FCF99DF80750382DA8BFB1
:10377000382520464FF42A713822FFF7B5F828463D
:10378000EEE00DF10700FFF7FBF99DF80750382D2B
:10379000A8BF382520464FF438713822FFF7A4F827
:1037A0002846DDE00DF10700FFF7FAF99DF8075014
:1037B000382DA8BF382520464FF446713822FFF730
:1037C00093F82846CCE00DF10700FFF7F9F99DF8D2
:1037D0000750382DA8BF382520464FF454713822A1
:1037E000FFF782F82846BBE00DF10700FFF7F8F974
:1037F0009DF80750382DA8BF382520464FF4627138
:103800003822FFF771F82846AAE00DF10700FFF70C
:10381000F7F99DF80750382DA8BF382520464FF4FA
:1038200070713822FFF760F8284699E00DF1070023
:10383000FFF7F6F99DF80750382DA8BF3825204628
:103840004FF47E713822FFF74FF8284688E00DF1DB
:103850000700FFF7F5F99DF80750382DA8BF382568
:1038600020464FF486613822FFF73EF8284677E07D
:103870000DF10700FFF7F4F99DF80750382DA8BFA8
:10388000382520464FF48D613822FFF72DF8284661
:1038900066E00DF10700FFF7F3F99DF80750382DAA
:1038A000A8BF382520464FF494613822FFF71CF852
:1038B000284655E00DF10700FFF7F2F99DF8075093
:1038C000382DA8BF382520464FF49B613822FFF7DA
:1038D0000BF8284644E00DF10700FFF7F1F99DF8D9
:1038E0000750382DA8BF382520464FF4A261382252
:1038F000FEF7FAFF284633E00DF10700FFF7F0F975
:103900009DF80750382DA8BF382520464FF4A961EF
:103910003822FEF7E9FF284622E00DF10700FFF705
:10392000EFF99DF80750382DA8BF382520464FF4F1
:10393000B0613822FEF7D8FF284611E00DF10700EC
:10394000FFF7EEF99DF80750382DA8BF382520461F
:103950004FF4B7613822FEF7C7FF284600E0002089
:1039600003B030BD10B582B00C46013A172A00F200
:103970006781DFE812F018002500320040004E0099
:103980005C006A00780086009400A200B000BE00CF
:10399000CC00DA00E800F6000401120120012E013B
:1039A0003C014A015801B0213822FEF7ABFF382C08
:1039B000A8BF382402A800F8014DFFF749F83FE1FD
:1039C000E8213822FEF79EFF382CA8BF382402A831
:1039D00000F8014DFFF74CF832E14FF490713822B6
:1039E000FEF790FF382CA8BF382402A800F8014D3C
:1039F000FFF74EF824E14FF4AC713822FEF782FF56
:103A0000382CA8BF382402A800F8014DFFF750F861
:103A100016E14FF4C8713822FEF774FF382CA8BFA6
:103A2000382402A800F8014DFFF752F808E14FF4DE
:103A3000E4713822FEF766FF382CA8BF382402A8AC
:103A400000F8014DFFF754F8FAE04FF40071382206
:103A5000FEF758FF382CA8BF382402A800F8014D03
:103A6000FFF756F8ECE04FF40E713822FEF74AFFEC
:103A7000382CA8BF382402A800F8014DFFF758F8E9
:103A8000DEE04FF41C713822FEF73CFF382CA8BF53
:103A9000382402A800F8014DFFF75AF8D0E04FF49F
:103AA0002A713822FEF72EFF382CA8BF382402A82E
:103AB00000F8014DFFF75CF8C2E04FF4387138228E
:103AC000FEF720FF382CA8BF382402A800F8014DCB
:103AD000FFF75EF8B4E04FF446713822FEF712FFAC
:103AE000382CA8BF382402A800F8014DFFF760F871
:103AF000A6E04FF454713822FEF704FF382CA8BF1B
:103B0000382402A800F8014DFFF762F898E04FF45E
:103B100062713822FEF7F6FE382CA8BF382402A8BE
:103B200000F8014DFFF764F88AE04FF47071382215
:103B3000FEF7E8FE382CA8BF382402A800F8014D93
:103B4000FFF766F87CE04FF47E713822FEF7DAFE6C
:103B5000382CA8BF382402A800F8014DFFF768F8F8
:103B60006EE04FF486613822FEF7CCFE382CA8BFF9
:103B7000382402A800F8014DFFF76AF860E04FF41E
:103B80008D613822FEF7BEFE382CA8BF382402A86B
:103B900000F8014DFFF76CF852E04FF494613822C1
:103BA000FEF7B0FE382CA8BF382402A800F8014D5B
:103BB000FFF76EF844E04FF49B613822FEF7A2FE57
:103BC000382CA8BF382402A800F8014DFFF770F880
:103BD00036E04FF4A2613822FEF794FE382CA8BFDD
:103BE000382402A800F8014DFFF772F828E04FF4DE
:103BF000A9613822FEF786FE382CA8BF382402A817
:103C000000F8014DFFF774F81AE04FF4B061382264
:103C1000FEF778FE382CA8BF382402A800F8014D22
:103C2000FFF776F80CE04FF4B7613822FEF76AFE32
:103C3000382CA8BF382402A800F8014DFFF778F807
:103C400002B010BD08B50139172900F29E80DFE8E7
:103C500001F00C12181E242A30363C42484E545AA9
:103C600060666C72787E848A909638210122FEF715
:103C70003BFE012008BD39210122FEF735FE01205F
:103C800008BD3A210122FEF72FFE012008BD3B218D
:103C90000122FEF729FE012008BD3C210122FEF78A
:103CA00023FE012008BD3D210122FEF71DFE01205B
:103CB00008BD3E210122FEF717FE012008BD3F216D
:103CC0000122FEF711FE012008BD40210122FEF76E
:103CD0000BFE012008BD41210122FEF705FE012057
:103CE00008BD42210122FEF7FFFD012008BD43214E
:103CF0000122FEF7F9FD012008BD44210122FEF753
:103D0000F3FD012008BD45210122FEF7EDFD012054
:103D100008BD46210122FEF7E7FD012008BD47212D
:103D20000122FEF7E1FD012008BD48210122FEF736
:103D3000DBFD012008BD49210122FEF7D5FD012050
:103D400008BD4A210122FEF7CFFD012008BD4B210D
:103D50000122FEF7C9FD012008BD4C210122FEF71A
:103D6000C3FD012008BD4D210122FEF7BDFD01204C
:103D700008BD4E210122FEF7B7FD012008BD4F21ED
:103D80000122FEF7B1FD012008BD002008BD00BFE3
:103D900008B50139172900F28580DFE801F00C1120
:103DA000161B20252A2F34393E43484D52575C615B
:103DB000666B70757A7F38210122FEF7A3FD08BD7E
:103DC00039210122FEF79EFD08BD3A210122FEF7AE
:103DD00099FD08BD3B210122FEF794FD08BD3C2161
:103DE0000122FEF78FFD08BD3D210122FEF78AFD6D
:103DF00008BD3E210122FEF785FD08BD3F210122BD
:103E0000FEF780FD08BD40210122FEF77BFD08BDC5
:103E100041210122FEF776FD08BD42210122FEF775
:103E200071FD08BD43210122FEF76CFD08BD442150
:103E30000122FEF767FD08BD45210122FEF762FD64
:103E400008BD46210122FEF75DFD08BD4721012284
:103E5000FEF758FD08BD48210122FEF753FD08BDBD
:103E600049210122FEF74EFD08BD4A210122FEF73D
:103E700049FD08BD4B210122FEF744FD08BD4C2140
:103E80000122FEF73FFD08BD4D210122FEF73AFD5C
:103E900008BD4E210122FEF735FD08BD4F2101224C
:103EA000FEF730FD08BD00BF08B50139172900F243
:103EB0009E80DFE801F00C12181E242A30363C42A6
:103EC000484E545A60666C72787E848A909680213F
:103ED0000122FEF709FD012008BD81210122FEF724
:103EE00003FD012008BD82210122FEF7FDFC012017
:103EF00008BD83210122FEF7F7FC012008BD8421C3
:103F00000122FEF7F1FC012008BD85210122FEF708
:103F1000EBFC012008BD86210122FEF7E5FC012013
:103F200008BD87210122FEF7DFFC012008BD8821A2
:103F30000122FEF7D9FC012008BD89210122FEF7EC
:103F4000D3FC012008BD8A210122FEF7CDFC01200F
:103F500008BD8B210122FEF7C7FC012008BD8C2182
:103F60000122FEF7C1FC012008BD8D210122FEF7D0
:103F7000BBFC012008BD8E210122FEF7B5FC01200B
:103F800008BD8F210122FEF7AFFC012008BD902162
:103F90000122FEF7A9FC012008BD91210122FEF7B4
:103FA000A3FC012008BD92210122FEF79DFC012007
:103FB00008BD93210122FEF797FC012008BD942142
:103FC0000122FEF791FC012008BD95210122FEF798
:103FD0008BFC012008BD96210122FEF785FC012003
:103FE00008BD97210122FEF77FFC012008BD0020BB
:103FF00008BD00BF08B50139172900F28580DFE848
:1040000001F00C11161B20252A2F34393E43484D50
:1040100052575C61666B70757A7F80210122FEF7D2
:1040200071FC08BD81210122FEF76CFC08BD8221D4
:104030000122FEF767FC08BD83210122FEF762FC26
:1040400008BD84210122FEF75DFC08BD8521012207
:10405000FEF758FC08BD86210122FEF753FC08BD7F
:1040600087210122FEF74EFC08BD88210122FEF7C0
:1040700049FC08BD89210122FEF744FC08BD8A21C4
:104080000122FEF73FFC08BD8B210122FEF73AFC1E
:1040900008BD8C210122FEF735FC08BD8D210122CF
:1040A000FEF730FC08BD8E210122FEF72BFC08BD77
:1040B0008F210122FEF726FC08BD90210122FEF788
:1040C00021FC08BD91210122FEF71CFC08BD9221B4
:1040D0000122FEF717FC08BD93210122FEF712FC16
:1040E00008BD94210122FEF70DFC08BD9521012297
:1040F000FEF708FC08BD96210122FEF703FC08BD6F
:1041000097210122FEF7FEFB08BD00BF08B501396B
:10411000172900F2B680DFE801F00C131A21282FCE
:10412000363D444B525960676E757C838A91989FE7
:10413000A6AD4FF4C1610122FEF7D6FB012008BDF8
:1041400040F209610122FEF7CFFB012008BD40F2D9
:104150000A610122FEF7C8FB012008BD40F20B6195
:104160000122FEF7C1FB012008BD40F20C610122D3
:10417000FEF7BAFB012008BD40F20D610122FEF7F7
:10418000B3FB012008BD40F20E610122FEF7ACFB3B
:10419000012008BD40F20F610122FEF7A5FB0120BE
:1041A00008BD4FF4C2610122FEF79EFB012008BD4D
:1041B00040F211610122FEF797FB012008BD40F299
:1041C00012610122FEF790FB012008BD40F213614D
:1041D0000122FEF789FB012008BD40F21461012293
:1041E000FEF782FB012008BD40F215610122FEF7B7
:1041F0007BFB012008BD40F216610122FEF774FB33
:10420000012008BD40F217610122FEF76DFB01207D
:1042100008BD4FF4C3610122FEF766FB012008BD13
:1042200040F219610122FEF75FFB012008BD40F258
:104230001A610122FEF758FB012008BD40F21B6104
:104240000122FEF751FB012008BD40F21C61012252
:10425000FEF74AFB012008BD40F21D610122FEF776
:1042600043FB012008BD40F21E610122FEF73CFB2A
:10427000012008BD40F21F610122FEF735FB01203D
:1042800008BD002008BD00BF08B50139172900F29C
:104290009D80DFE801F00C12181E242A30363C42C3
:1042A000484E545A60666C72787E848A90964FF4B9
:1042B000C1610122FEF726FB08BD40F2096101221F
:1042C000FEF720FB08BD40F20A610122FEF71AFB4F
:1042D00008BD40F20B610122FEF714FB08BD40F25D
:1042E0000C610122FEF70EFB08BD40F20D610122B8
:1042F000FEF708FB08BD40F20E610122FEF702FB4B
:1043000008BD40F20F610122FEF7FCFA08BD4FF430
:10431000C2610122FEF7F6FA08BD40F211610122E6
:10432000FEF7F0FA08BD40F212610122FEF7EAFA48
:1043300008BD40F213610122FEF7E4FA08BD40F225
:1043400014610122FEF7DEFA08BD40F21561012278
:10435000FEF7D8FA08BD40F216610122FEF7D2FA44
:1043600008BD40F217610122FEF7CCFA08BD4FF4F8
:10437000C3610122FEF7C6FA08BD40F219610122AD
:10438000FEF7C0FA08BD40F21A610122FEF7BAFA40
:1043900008BD40F21B610122FEF7B4FA08BD40F2ED
:1043A0001C610122FEF7AEFA08BD40F21D61012238
:1043B000FEF7A8FA08BD40F21E610122FEF7A2FA3C
:1043C00008BD40F21F610122FEF79CFA08BD00BF44
:1043D00008B50139172900F29E80DFE801F00C12C0
:1043E000181E242A30363C42484E545A60666C727D
:1043F000787E848A909650210122FEF775FA01207A
:1044000008BD51210122FEF76FFA012008BD52219B
:104410000122FEF769FA012008BD53210122FEF7AF
:1044200063FA012008BD54210122FEF75DFA012044
:1044300008BD55210122FEF757FA012008BD56217B
:104440000122FEF751FA012008BD57210122FEF793
:104450004BFA012008BD58210122FEF745FA012040
:1044600008BD59210122FEF73FFA012008BD5A215B
:104470000122FEF739FA012008BD5B210122FEF777
:1044800033FA012008BD5C210122FEF72DFA01203C
:1044900008BD5D210122FEF727FA012008BD5E213B
:1044A0000122FEF721FA012008BD5F210122FEF75B
:1044B0001BFA012008BD60210122FEF715FA012038
:1044C00008BD61210122FEF70FFA012008BD62211B
:1044D0000122FEF709FA012008BD63210122FEF73F
:1044E00003FA012008BD64210122FEF7FDF9012035
:1044F00008BD65210122FEF7F7F9012008BD6621FC
:104500000122FEF7F1F9012008BD67210122FEF723
:10451000EBF9012008BD002008BD00BF08B5013936
:10452000172900F28580DFE801F00C11161B202509
:104530002A2F34393E43484D52575C61666B707583
:104540007A7F50210122FEF7DDF908BD51210122B9
:10455000FEF7D8F908BD52210122FEF7D3F908BDB4
:1045600053210122FEF7CEF908BD54210122FEF7A6
:10457000C9F908BD55210122FEF7C4F908BD56212D
:104580000122FEF7BFF908BD57210122FEF7BAF953
:1045900008BD58210122FEF7B5F908BD59210122B5
:1045A000FEF7B0F908BD5A210122FEF7ABF908BDAC
:1045B0005B210122FEF7A6F908BD5C210122FEF76E
:1045C000A1F908BD5D210122FEF79CF908BD5E211D
:1045D0000122FEF797F908BD5F210122FEF792F94B
:1045E00008BD60210122FEF78DF908BD612101227D
:1045F000FEF788F908BD62210122FEF783F908BDA4
:1046000063210122FEF77EF908BD64210122FEF735
:1046100079F908BD65210122FEF774F908BD66210C
:104620000122FEF76FF908BD67210122FEF76AF942
:1046300008BD00BF08B50139172900F29E80DFE8E8
:1046400001F00C12181E242A30363C42484E545AAF
:1046500060666C72787E848A909698210122FEF7BB
:1046600043F9012008BD99210122FEF73DF90120FF
:1046700008BD9A210122FEF737F9012008BD9B21D0
:104680000122FEF731F9012008BD9C210122FEF72D
:104690002BF9012008BD9D210122FEF725F90120FB
:1046A00008BD9E210122FEF71FF9012008BD9F21B0
:1046B0000122FEF719F9012008BDA0210122FEF711
:1046C00013F9012008BDA1210122FEF70DF90120F7
:1046D00008BDA2210122FEF707F9012008BDA32190
:1046E0000122FEF701F9012008BDA4210122FEF7F5
:1046F000FBF8012008BDA5210122FEF7F5F80120F5
:1047000008BDA6210122FEF7EFF8012008BDA72170
:104710000122FEF7E9F8012008BDA8210122FEF7D9
:10472000E3F8012008BDA9210122FEF7DDF80120F0
:1047300008BDAA210122FEF7D7F8012008BDAB2150
:104740000122FEF7D1F8012008BDAC210122FEF7BD
:10475000CBF8012008BDAD210122FEF7C5F80120EC
:1047600008BDAE210122FEF7BFF8012008BDAF2130
:104770000122FEF7B9F8012008BD002008BD00BFE6
:1047800008B50139172900F28580DFE801F00C1126
:10479000161B20252A2F34393E43484D52575C6161
:1047A000666B70757A7F98210122FEF7ABF808BD21
:1047B00099210122FEF7A6F808BD9A210122FEF7F1
:1047C000A1F808BD9B210122FEF79CF808BD9C21A1
:1047D0000122FEF797F808BD9D210122FEF792F80D
:1047E00008BD9E210122FEF78DF808BD9F21012200
:1047F000FEF788F808BDA0210122FEF783F808BD66
:10480000A1210122FEF77EF808BDA2210122FEF7B8
:1048100079F808BDA3210122FEF774F808BDA42190
:104820000122FEF76FF808BDA5210122FEF76AF804
:1048300008BDA6210122FEF765F808BDA7210122C7
:10484000FEF760F808BDA8210122FEF75BF808BD5D
:10485000A9210122FEF756F808BDAA210122FEF780
:1048600051F808BDAB210122FEF74CF808BDAC2180
:104870000122FEF747F808BDAD210122FEF742F8FC
:1048800008BDAE210122FEF73DF808BDAF2101228F
:10489000FEF738F808BD00BF08B50139172900F246
:1048A000B680DFE801F00C131A21282F363D444B67
:1048B000525960676E757C838A91989FA6AD4FF4BC
:1048C000C4610122FEF710F8012008BD40F2216109
:1048D0000122FEF709F8012008BD40F22261012201
:1048E000FEF702F8012008BD40F223610122FDF726
:1048F000FBFF012008BD40F224610122FDF7F4FF17
:10490000012008BD40F225610122FDF7EDFF0120E5
:1049100008BD40F226610122FDF7E6FF012008BD37
:1049200040F227610122FDF7DFFF012008BD4FF4AF
:10493000C5610122FDF7D8FF012008BD40F22961C1
:104940000122FDF7D1FF012008BD40F22A610122BA
:10495000FDF7CAFF012008BD40F22B610122FDF7DF
:10496000C3FF012008BD40F22C610122FDF7BCFF0E
:10497000012008BD40F22D610122FDF7B5FF0120A5
:1049800008BD40F22E610122FDF7AEFF012008BDF7
:1049900040F22F610122FDF7A7FF012008BD4FF46F
:1049A000C6610122FDF7A0FF012008BD40F2316180
:1049B0000122FDF799FF012008BD40F2326101227A
:1049C000FDF792FF012008BD40F233610122FDF79F
:1049D0008BFF012008BD40F234610122FDF784FF06
:1049E000012008BD40F235610122FDF77DFF012065
:1049F00008BD40F236610122FDF776FF012008BDB7
:104A000040F237610122FDF76FFF012008BD002051
:104A100008BD00BF08B50139172900F29D80DFE805
:104A200001F00C12181E242A30363C42484E545ACB
:104A300060666C72787E848A90964FF4C46101221D
:104A4000FDF760FF08BD40F221610122FDF75AFF2A
:104A500008BD40F222610122FDF754FF08BD40F27B
:104A600023610122FDF74EFF08BD40F224610122BF
:104A7000FDF748FF08BD40F225610122FDF742FF26
:104A800008BD40F226610122FDF73CFF08BD40F25F
:104A900027610122FDF736FF08BD4FF4C5610122F1
:104AA000FDF730FF08BD40F229610122FDF72AFF22
:104AB00008BD40F22A610122FDF724FF08BD40F243
:104AC0002B610122FDF71EFF08BD40F22C6101227F
:104AD000FDF718FF08BD40F22D610122FDF712FF1E
:104AE00008BD40F22E610122FDF70CFF08BD40F227
:104AF0002F610122FDF706FF08BD4FF4C6610122B8
:104B0000FDF700FF08BD40F231610122FDF7FAFE1A
:104B100008BD40F232610122FDF7F4FE08BD40F20B
:104B200033610122FDF7EEFE08BD40F2346101223F
:104B3000FDF7E8FE08BD40F235610122FDF7E2FE17
:104B400008BD40F236610122FDF7DCFE08BD40F2EF
:104B500037610122FDF7D6FE08BD00BF08B5013957
:104B6000172900F2B680DFE801F00C131A21282F74
:104B7000363D444B525960676E757C838A91989F8D
:104B8000A6AD4FF4C7610122FDF7AEFE012008BDBE
:104B900040F239610122FDF7A7FE012008BD40F275
:104BA0003A610122FDF7A0FE012008BD40F23B6101
:104BB0000122FDF799FE012008BD40F23C6101226F
:104BC000FDF792FE012008BD40F23D610122FDF794
:104BD0008BFE012008BD40F23E610122FDF784FEFC
:104BE000012008BD40F23F610122FDF77DFE01205A
:104BF00008BD4FF4C8610122FDF776FE012008BD13
:104C000040F241610122FDF76FFE012008BD40F234
:104C100042610122FDF768FE012008BD40F24361B8
:104C20000122FDF761FE012008BD40F2446101222E
:104C3000FDF75AFE012008BD40F245610122FDF753
:104C400053FE012008BD40F246610122FDF74CFEF3
:104C5000012008BD40F247610122FDF745FE012019
:104C600008BD4FF4C9610122FDF73EFE012008BDD9
:104C700040F249610122FDF737FE012008BD40F2F4
:104C80004A610122FDF730FE012008BD40F24B6170
:104C90000122FDF729FE012008BD40F24C610122EE
:104CA000FDF722FE012008BD40F24D610122FDF713
:104CB0001BFE012008BD40F24E610122FDF714FEEB
:104CC000012008BD40F24F610122FDF70DFE0120D9
:104CD00008BD002008BD00BF08B50139172900F242
:104CE0009D80DFE801F00C12181E242A30363C4269
:104CF000484E545A60666C72787E848A90964FF45F
:104D0000C7610122FDF7FEFD08BD40F239610122B5
:104D1000FDF7F8FD08BD40F23A610122FDF7F2FD12
:104D200008BD40F23B610122FDF7ECFD08BD40F2F9
:104D30003C610122FDF7E6FD08BD40F23D61012224
:104D4000FDF7E0FD08BD40F23E610122FDF7DAFD0E
:104D500008BD40F23F610122FDF7D4FD08BD4FF4CC
:104D6000C8610122FDF7CEFD08BD40F2416101227C
:104D7000FDF7C8FD08BD40F242610122FDF7C2FD0A
:104D800008BD40F243610122FDF7BCFD08BD40F2C1
:104D900044610122FDF7B6FD08BD40F245610122E4
:104DA000FDF7B0FD08BD40F246610122FDF7AAFD06
:104DB00008BD40F247610122FDF7A4FD08BD4FF494
:104DC000C9610122FDF79EFD08BD40F24961012243
:104DD000FDF798FD08BD40F24A610122FDF792FD02
:104DE00008BD40F24B610122FDF78CFD08BD40F289
:104DF0004C610122FDF786FD08BD40F24D610122A4
:104E0000FDF780FD08BD40F24E610122FDF77AFDFD
:104E100008BD40F24F610122FDF774FD08BD00BFDF
:104E200008B565391F2900F20281DFE811F0200082
:104E300027002E0035003C0043004A005100580076
:104E40005F0066006D0074007B00820089009000A6
:104E500097009E00A500AC00B300BA00C100C800D6
:104E6000CF00D600DD00E400EB00F200F9004FF4C3
:104E7000CD610122FDF738FD012008BD40F26961D6
:104E80000122FDF731FD012008BD40F26A610122D7
:104E9000FDF72AFD012008BD40F26B610122FDF7FC
:104EA00023FD012008BD40F26C610122FDF71CFDCD
:104EB000012008BD40F26D610122FDF715FD0120C2
:104EC00008BD40F26E610122FDF70EFD012008BD14
:104ED00040F26F610122FDF707FD012008BD4FF48C
:104EE000CE610122FDF700FD012008BD40F2716195
:104EF0000122FDF7F9FC012008BD40F27261012298
:104F0000FDF7F2FC012008BD40F273610122FDF7BC
:104F1000EBFC012008BD40F274610122FDF7E4FCC6
:104F2000012008BD40F275610122FDF7DDFC012082
:104F300008BD40F276610122FDF7D6FC012008BDD4
:104F400040F277610122FDF7CFFC012008BD4FF44C
:104F5000CF610122FDF7C8FC012008BD40F2796154
:104F60000122FDF7C1FC012008BD40F27A61012257
:104F7000FDF7BAFC012008BD40F27B610122FDF77C
:104F8000B3FC012008BD40F27C610122FDF7ACFCBE
:104F9000012008BD40F27D610122FDF7A5FC012042
:104FA00008BD40F27E610122FDF79EFC012008BD94
:104FB00040F27F610122FDF797FC012008BD4FF40C
:104FC000D0610122FDF790FC012008BD40F2816113
:104FD0000122FDF789FC012008BD40F28261012217
:104FE000FDF782FC012008BD40F283610122FDF73C
:104FF0007BFC012008BD40F284610122FDF774FCB6
:10500000012008BD40F285610122FDF76DFC012001
:1050100008BD40F286610122FDF766FC012008BD53
:1050200040F287610122FDF75FFC012008BD0020EE
:1050300008BD00BF08B565391F2900F2D180DFE83F
:1050400001F010161C22282E343A40464C52585E6D
:10505000646A70767C82888E949AA0A6ACB2B8BE40
:10506000C4CA4FF4CD610122FDF74CFC08BD40F2EB
:1050700069610122FDF746FC08BD40F26A61012228
:10508000FDF740FC08BD40F26B610122FDF73AFCE0
:1050900008BD40F26C610122FDF734FC08BD40F20E
:1050A0006D610122FDF72EFC08BD40F26E61012208
:1050B000FDF728FC08BD40F26F610122FDF722FCDC
:1050C00008BD4FF4CE610122FDF71CFC08BD40F283
:1050D00071610122FDF716FC08BD40F272610122E8
:1050E000FDF710FC08BD40F273610122FDF70AFCD8
:1050F00008BD40F274610122FDF704FC08BD40F2D6
:1051000075610122FDF7FEFB08BD40F276610122C8
:10511000FDF7F8FB08BD40F277610122FDF7F2FBD5
:1051200008BD4FF4CF610122FDF7ECFB08BD40F252
:1051300079610122FDF7E6FB08BD40F27A610122A8
:10514000FDF7E0FB08BD40F27B610122FDF7DAFBD1
:1051500008BD40F27C610122FDF7D4FB08BD40F29E
:105160007D610122FDF7CEFB08BD40F27E61012288
:10517000FDF7C8FB08BD40F27F610122FDF7C2FBCD
:1051800008BD4FF4D0610122FDF7BCFB08BD40F221
:1051900081610122FDF7B6FB08BD40F28261012268
:1051A000FDF7B0FB08BD40F283610122FDF7AAFBC9
:1051B00008BD40F284610122FDF7A4FB08BD40F266
:1051C00085610122FDF79EFB08BD40F28661012248
:1051D000FDF798FB08BD40F287610122FDF792FBC5
:1051E00008BD00BF08B5013903291FD8DFE801F069
:1051F000020910174FF4D1610122FDF775FB012060
:1052000008BD40F289610122FDF76EFB012008BD57
:1052100040F28A610122FDF767FB012008BD40F2E0
:105220008B610122FDF760FB012008BD002008BD55
:1052300008B5013903291AD8DFE801F002080E1475
:105240004FF4D1610122FDF75DFB08BD40F2896199
:105250000122FDF757FB08BD40F28A610122FDF7EC
:1052600051FB08BD40F28B610122FDF74BFB08BDED
:1052700010B50A4C0A4B1878217818F093FC237863
:105280000833DBB2237043B9064C20460649FCF7CD
:10529000C7FD20460549FCF7F3FD10BD2C9EFF1FFE
:1052A0002D9EFF1F3498FF1F44A2FF1F60A2FF1F07
:1052B00010B50A4C21780839C9B22170084B18780A
:1052C00018F070FC237843B9064C20460649FCF7D9
:1052D000A7FD20460549FCF7D3FD10BD2C9EFF1FFE
:1052E0002D9EFF1F3498FF1F60A2FF1F44A2FF1FC7
:1052F00010B582B00024204610F06CFD01AB1855AB
:105300000134042CF7D1019802B010BD70B582B001
:1053100001900DF10306002416F8015F204610F0FD
:1053200059FD854203D02046294610F067FD01341F
:10533000042CF1D102B070BD10B5044608480368D2
:105340005B68084901229847092C04DC044803687B
:105350001B6830219847024821461AF0AFF810BD6B
:105360009CB5FF1FB081020038B5FDF77DFA0146FC
:105370001A4C20461AF0A2F8FDF780FAFFF7DCFF7E
:10538000FDF786FAFFF7D8FF2368154D5B682046C6
:10539000294601229847FDF785FA014620461AF072
:1053A0008DF823685B682046294601229847FDF75F
:1053B00083FA014620461AF081F823685B6820468C
:1053C000294601229847FDF781FA014620461AF046
:1053D00075F820461AF012F838BD00BF9CB5FF1FC3
:1053E0004C7002002DE9F041071E15DD00240B4E24
:1053F0004FF0FF0864253078414618F0D3FB28466B
:1054000018F0EAFC3078002118F0CCFB284618F0A0
:10541000E3FC0134BC42EED1BDE8F0812D9EFF1FBC
:1054200070B50024064E09253078214618F0BAFBE5
:10543000284618F0D1FC0534B4F5827FF4D170BD54
:105440002D9EFF1F70B5FF24064E0925307821469A
:1054500018F0A8FB284618F0BFFC053C14F1050F16
:10546000F4D170BD2D9EFF1F10B5304B187818F089
:1054700023FD01462E4B18602E4C20460422134675
:105480000AF0AEFF2C4B187818F016FD01462B4B96
:1054900018602046042213460AF0A2FF284B187811
:1054A00018F00AFD0146274B1860204604221346D7
:1054B0000AF096FF244B187818F0FEFC0146234BA7
:1054C00018602046042213460AF08AFF204B187801
:1054D00018F0F2FC01461F4B1860204604221346C8
:1054E0000AF07EFF1C4B187818F0E6FC01461B4BB7
:1054F00018602046042213460AF072FF184B1878F1
:1055000010F068FB01462046042210230AF068FFD1
:10551000144B187810F05EFB01462046042210233D
:105520000AF05EFF20460AF039FF10BD74A2FF1F8B
:10553000E09AFF1FD0B1FF1F75A2FF1FE49AFF1F63
:1055400076A2FF1FAC9AFF1F309EFF1FB09AFF1F6D
:1055500078AAFF1FB49AFF1F79AAFF1FB89AFF1FEE
:105560002E9EFF1F2F9EFF1F30B415462AB1002329
:10557000C45CCC540133AB42FAD130BC704700BF9D
:1055800070B4164632B100240B44055D1D5501343C
:10559000B442FAD170BC704710B503785BB10022F9
:1055A0000A491446FF2B0CBF54545354013210F8CF
:1055B000013F002BF6D1054C2046002119F040FD9B
:1055C0002046002140221CF01FFF10BDEC9AFF1F57
:1055D0002DE9F84307460E460F4819F00FFF002447
:1055E000B44213DA0C4D4FF01009DFF83080284632
:1055F000395D4A46002319F025FF2B685B68284671
:105600004146012298470134A642F0DC024819F0D5
:10561000F5FEBDE8F88300BF9CB5FF1F4C7002008B
:10562000F8B507460E46144D144C01E0FFF71CFF79
:10563000284621680AF00CFE0028F7D00E483946AB
:1056400032460AF03FFE20220C4B1A600C4C2046DA
:1056500019F0D4FE23685B6820460A492322984744
:10566000204631460A22002319F0ECFE3846314626
:10567000FFF7AEFF0120F8BDD0B1FF1FAC8CFF1FBC
:105680009CB5FF1F486302002DE9F041334C2368AD
:105690005B682046324915229847204619F0AEFE35
:1056A0000025DFF8C8800127284610F093FB064646
:1056B0002046294619F002FF23685B6820464146D0
:1056C0003A469847204631460A22002319F0BAFE8E
:1056D000204619F093FE0135B5F5006FE4D10024A2
:1056E00025462046294610F089FB0134B4F5006FA9
:1056F000F7D11A4C23685B6820461A491022984754
:10570000204619F07BFE0025DFF86080012728463F
:1057100010F060FB06462046294619F0CFFE2368AC
:105720005B68204641463A469847204631460A2261
:10573000002319F087FE204619F060FE0135B5F50B
:10574000006FE4D1054C23685B68204606490D22B2
:105750009847204619F052FEBDE8F0819CB5FF1F26
:105760006C630200886302009C6302008463020091
:1057700070B582B001A8FDF753F99DF80440E4022A
:1057800058485949224619F04FFE2046002108F09A
:10579000F9FB18B15348554919F046FE514E3046B1
:1057A000534919F041FE04F5006530464E492A463A
:1057B00019F03AFE2846002108F0E4FB18B1304603
:1057C0004A4919F031FE474E3046494919F02CFE3E
:1057D00004F58055304644492A4619F025FE2846EE
:1057E000002108F0CFFB18B13046404919F01CFEEB
:1057F0003C4E30463E4919F017FE04F5C055304680
:1058000039492A4619F010FE2846002108F0BAFB53
:1058100018B13046354919F007FE324E304634494A
:1058200019F002FE04F5005530462F492A4619F0BA
:10583000FBFD2846002108F0A5FB18B130462B4996
:1058400019F0F2FD274E3046294919F0EDFD04F517
:105850002055304624492A4619F0E6FD2846002105
:1058600008F090FB18B13046204919F0DDFD1D4EBF
:1058700030461F4919F0D8FD04F5405530461A4905
:105880002A4619F0D1FD2846002108F07BFB18B10B
:105890003046164919F0C8FD124D2846144919F032
:1058A000C3FD04F5605428460F49224619F0BCFD9B
:1058B0002046002108F066FB18B128460B4919F074
:1058C000B3FD084C20460A4919F0AEFD23685B6819
:1058D0002046084914229847204619F08FFD02B04F
:1058E00070BD00BF9CB5FF1FAC630200C063020027
:1058F000C8630200D8630200F0B583B00DF1070061
:10590000FDF72EF89DF80730012B04D8FFF730FF84
:10591000FFF7BAFE17E008F08BFB0024134D144F7D
:10592000144E28463946224619F07EFD2846314657
:1059300054F8042B19F078FD284619F05FFD46F65F
:1059400060539C42EDD100220B4B1A7001220B4B8D
:105950001A700B4C05482146FAF746FE2046FFF721
:105960001BFE03242046FFF73DFDFBE79CB5FF1F10
:10597000F0630200F8630200A99AFF1FE89AFF1F74
:10598000006402002DE9F0410546594C204619F00B
:1059900035FD23685B68204656491A229847204601
:1059A00019F02CFD544B1B7883B9544B1B78002BFA
:1059B00000F0858020462368514C5B6821460D220B
:1059C00098472046FFF7E8FDBDE8F0814B4B1B7878
:1059D000002B74D04B4B1B78002B7BD044480368C2
:1059E0005B6849490B2298474848FFF7D5FD6CE0B2
:1059F00008350024464F3E4E4FF010082978A1404C
:105A00003B680B433B60304615F8011942460023C2
:105A100019F018FD304619F0F1FC0834202CEDD1B6
:105A20003C4B1A683C4B1B68D21A40F6B7339A427B
:105A300019D82F4C23685B682046384912229847B2
:105A4000344D296820460A22002319F0FBFC204629
:105A500019F0D4FC29682E4B314AA2FB01011A68C7
:105A600002EB91121A602A4D2E68214C23685B6864
:105A700020462C491A2298472046296810220023E4
:105A800019F0E0FC204619F0B9FC3046FCF788FE1E
:105A900023685B682046244915229847204619F060
:105AA000ADFCFFF761FC10E0114C23685B682046F9
:105AB0001E4910229847204619F0A0FC05E00C482A
:105AC0001B49FAF783FDFFF717FF0320FFF78AFC56
:105AD000BDE8F081064803685B68164908229847CC
