:1000000000800020BD010000C9BC01008DBC0100C2
:100010008DBC01008DBC01008DBC01008DBC0100B8
:100020008DBC01008DBC01008DBC0100C9BC01006C
:10003000C9BC01008DBC0100C9BC01007DBC010030
:10004000C9BC0100C9BC0100C9BC0100C9BC010098
:10005000C9BC0100C9BC0100C9BC0100C9BC010088
:10006000C9BC0100C9BC0100C9BC0100C9BC010078
:10007000C9BC0100C9BC0100C9BC0100C9BC010068
:10008000C9BC0100C9BC0100C9BC0100C9BC010058
:10009000C9BC0100C9BC0100C9BC0100C9BC010048
:1000A000C9BC0100C9BC0100C9BC0100C9BC010038
:1000B000C9BC0100C9BC0100C9BC0100C9BC010028
:1000C000C9BC0100C9BC0100C9BC0100C9BC010018
:1000D000C9BC0100C9BC0100C9BC0100C9BC010008
:1000E000C9BC0100C9BC0100C9BC0100C9BC0100F8
:1000F000C9BC010001DB0100C9BC0100FDE0010039
:10010000C9BC01001DE60100C9BC0100C9BC010059
:10011000C9BC0100C9BC0100C9BC0100C9BC0100C7
:10012000C9BC0100C9BC0100C9BC0100C9BC0100B7
:10013000C9BC0100C9BC0100C9BC0100C9BC0100A7
:10014000C9BC0100C9BC0100C9BC0100C9BC010097
:10015000C9BC0100C9BC0100C9BC0100C9BC010087
:10016000C9BC010055C10100C9BC0100C9BC0100E6
:10017000C9BC0100C9BC0100C9BC0100C9BC010067
:10018000C9BC0100C9BC0100C9BC0100C9BC010057
:10019000C9BC0100C9BC0100C9BC0100C9BC010047
:1001A000C9BC0100C9BC0100C9BC0100C9BC010037
:1001B000C9BC0100C9BC0100C9BC0100574B4CF2CD
:1001C000205210B51A804DF628121A8000BF00BFC9
:1001D0001BF07EFD524B4FF010621A60514A9A603C
:1001E000514ADA60A3F53043203B1A6812F480725A
:1001F00004D14E490A604FF4A8521A604C4B1A7849
:10020000110703D51A7842F008021A70494B4A4C7C
:100210004A482A221A704A4A00239918A14203D256
:10022000195899500433F8E7464B474900228B424E
:1002300002D243F8042BFAE74448454900235A58B0
:100240001A500433B3F5DE7FF9D1424B424A802184
:1002500003F8011B9342FBD1404B3C4A1A60404BD0
:100260000A221A70A3F5805324225A70A0221A7011
:100270009A799207FCD59A79D406FCD4394A9379B5
:1002800003F00C03082B374BF9D105221A714322D6
:100290005A719A799006FCD5324A9179314B4906C8
:1002A000FBD5314A4FF08171116005215160202248
:1002B0001A709A7902F00C020C2AFAD12B4B2C4AB4
:1002C0001A602C4B2C4A1A6000225A60072243F80D
:1002D000042C2A4AC3F80C2D62B61BF0BBFD134B4D
:1002E0001B68DA0705D526481BF024FD254B264A56
:1002F0001A60264B1B785B0609D5224C224A2368DC
:10030000934204D11E481BF015FD002323601FF00B
:10031000F3FC1BF0E3FC1DF06DF8FEE70E2005403A
:1003200030800440823F04000100002B14D00340C1
:1003300002D0074000E007408C96FF1F587D020066
:10034000708CFF1F8C96FF1FA8B6FF1F0082FF1F37
:100350000000000000E400E05FE400E008ED00E0E1
:1003600000500640004006404480044004800440A1
:10037000C010050014E000E03F190100000020203B
:100380002D13D0591CE00340A5C3945A00F0074038
:10039000FFFFFFFFFFFFFFFFFFFFFFFFFFFFFFFF6D
:1003A000FFFFFFFFFFFFFFFFFFFFFFFFFFFFFFFF5D
:1003B000FFFFFFFFFFFFFFFFFFFFFFFFFFFFFFFF4D
:1003C000FFFFFFFFFFFFFFFFFFFFFFFFFFFFFFFF3D
:1003D000FFFFFFFFFFFFFFFFFFFFFFFFFFFFFFFF2D
:1003E000FFFFFFFFFFFFFFFFFFFFFFFFFFFFFFFF1D
:1003F000FFFFFFFFFFFFFFFFFFFFFFFFFFFFFFFF0D
:10040000FFFFFFFFFFFFFFFFFFFFFFFFFEFFFFFFFD
:1004100010B5054C237833B9044B13B10448AFF33E
:1004200000800123237010BD8C96FF1F0000000088
:10043000507D020008B5064B1BB106480649AFF3D4
:1004400000800648036813B1054B03B1984708BD07
:1004500000000000507D02009096FF1F8C96FF1F49
:100460000000000038B5074D284603F0F9F8064CA7
:1004700023685B68204629460B22984720461CF0DB
:10048000D9FF38BDBC3A02008CB4FF1F70B5674B72
:100490001A78B2B1664B1B78AA2B12D1654B1B6838
:1004A0001A78002A00F0BE80092A5FD00133614922
:1004B0000B6013F8012B002A00F0B480092AF7D151
:1004C00054E05C4B1C68207890B9204620F062FA1A
:1004D0000246594801684D682146A847574C2046B6
:1004E000574900F047FF2046564900F055FF70BDC0
:1004F00001281BD1AAB944F22B001CF035FC524C48
:10050000237803FB03F3514A82FB0310C0001BF066
:100510008BFC1CF07BFC237803FB03F040001BF0FA
:1005200083FC444B1A6801321A6070BD02281BD14B
:10053000AAB944F228001CF017FC434C237803FBB3
:1005400003F3424A82FB0310C0001BF06DFC1CF059
:100550005DFC237803FB03F040001BF065FC354B8A
:100560001A6801321A6070BD09282ED1384B1B78E9
:10057000002B5AD1304C23685B68204635490F2246
:10058000984720461CF056FF0122334B1A6033482F
:100590000FF036FA324B1E6806F57A662E4C1D4671
:1005A00001E007F0C5FD236813B12B689E42F8D81F
:1005B0000022294B1A60214C2046214900F0DAFE26
:1005C0002046204900F0E8FE70BDA0F10A01C9B242
:1005D00015290DD83AB9A0F10A034FF47A7000FB3F
:1005E00003F01BF021FC134B1A6801321A6070BD36
:1005F0009AB91CF0B9FB144C237803FB03F3134A9C
:1006000082FB0310C0001BF00FFC1CF0FFFB2378E3
:1006100003FB03F040001BF007FC064B1A68013295
:100620001A6070BD034B1C684FE770BDB09CFF1F84
:100630006C9DFF1FE897FF1F8CB4FF1F2098FF1FC2
:10064000C896FF1FB096FF1F948CFF1F5655555537
:1006500055A2FF1FC83A020044B0FF1FE536000054
:1006600060B3FF1F38B505460C46084620F092F9E6
:1006700002462B685B6828462146984738BD00BF74
:1006800038B504460D46084620F084F90246236832
:100690005B68204629469847054620461CF0CAFE5E
:1006A000284438BD38B505461CF024FF04462846CA
:1006B0001CF0C0FE204438BD38B500228B4B1A70A8
:1006C00006228B4B1A7001228A4B1A7016228A4B13
:1006D0001A701722894B1A701122894B1A700F2237
:1006E000884B1A701022884B1A700E22874B1A7092
:1006F0001522874B1A7004F08BFB8648202103F0EB
:10070000A5F9854B1B78DE2B2CD103F01FF8442074
:100710000AF0A8FD04468148026855688049142201
:10072000A8472CB17D4803685B687E49042298473E
:100730007A4C23685B6820467B4914229847204600
:100740001CF078FE0122794B1A700022784B1A7047
:1007500023685B68204677491822984720461CF09A
:1007600069FE68E0442B56D1002854DD72482021F0
:1007700003F00CFA714803F09BFA714803F02AFB6E
:10078000704D284601F05AFA644C23685B68204695
:100790006D490C22984720461CF04CFE20462978D3
:1007A0000A2200231CF06AFE20461CF043FE2B7830
:1007B0000BB904222A70654801F020FA644D2846DE
:1007C00001F04CFA554C23685B68204661491122C0
:1007D000984720461CF02EFE204629780A22002346
:1007E0001CF04CFE20461CF025FE13F03DFC0022C0
:1007F0004E4B1A7001224E4B1A7023685B682046DC
:1008000055490B22984720461CF014FE5348544982
:1008100000F0C2FD0FE00122444B1A700022444B4D
:100820001A703E4C23685B6820464E491E2298474A
:1008300020461CF0FFFD4C4C20464C4940F2FD7216
:100840000CF078FF00F02CFD2046494924220023BB
:100850000CF01AFF20462F49202200230CF014FF31
:100860002A4B187813F0F0FA014620460422082398
:100870000CF00AFF264B187813F0E6FA01462046E2
:10088000042208230CF000FF244C23685B682046F8
:1008900038490C229847204640F29A611CF02AFE03
:1008A00020461CF0C7FD20461B4B19781022002360
:1008B0001CF0E4FD20461CF0BDFD23685B6820466B
:1008C0002D49092298472046084B19781CF012FE42
:1008D00020461CF0AFFD02F037FE0420022104F098
:1008E00061FA1E48254900F057FD38BD55A2FF1F8B
:1008F000ADA5FF1FF4A9FF1FF5A9FF1FF6A9FF1F54
:10090000F7A9FF1FF8A9FF1FF9A9FF1FAEA5FF1F39
:10091000AFA5FF1F2498FF1F020002408CB4FF1FE9
:10092000D83A0200F03A0200F83A0200509EFF1F47
:10093000149EFF1F103B02006498FF1F8498FF1F46
:100940004498FF1F948CFF1F2C3B0200908CFF1FCC
:1009500094B6FF1F3C3B0200BC3A02002098FF1FE8
:10096000DC96FF1F503B0200C0B0FF1F544C02003A
:10097000FC97FF1F703B0200803B0200B096FF1FF8
:1009800070B582B0A14B1B781BB92D2004F04CFA36
:1009900002E0002004F048FA9D4B1B68022B10DD9A
:1009A0009C4803685B689C49592298479B4E9C4D24
:1009B0000124304602F054FE2C70052004F056FA53
:1009C000F7E7984B1B78002B57D0684601F066F983
:1009D0009DF80030002B00F09E8101A801F04EF937
:1009E0008C4C20469049FFF74BFE20469DF80410A2
:1009F0000A2200231CF042FD20461CF01BFD9DF83E
:100A00000430132B0ED9894B03F12101FF2203F887
:100A1000012F8B42FBD1864803F0F2F8002001F051
:100A200035F905E0013302A800F8043D01F02EF984
:100A30009DF800300133DBB28DF800300A2B16D957
:100A4000744C23685B6820467A491B2298472046ED
:100A50001CF0F0FC20469DF800100A2200231CF038
:100A60000DFD20461CF0E6FC05F000F857E1684655
:100A700001F01CF900226B4B1A706F486F4B19780C
:100A800000F0ECFC614B1B784BB96B4800F014FD97
:100A900028B9694800F0F2FD002800F0AB805B4BFC
:100AA0001B78002B2FD1002001F000F9624800F0E4
:100AB000E3FC0022564B1A60614C204602F0D0FD48
:100AC0006048614900F056FC52482146FFF7D8FDC6
:100AD0005E4B1B7833B906F039FA08F0A1FF00200D
:100AE00001F0D4F85A4B1A685A4B1A600122474B4E
:100AF0001A70594B1B78002B00F01181484B1A706B
:100B000004F004F90BE1554B1B6823B9544B1B78D7
:100B1000002B2DD103E1032B0BDC3E4C2046514929
:100B2000FFF7A0FD454B196820463039FFF7BAFDA5
:100B3000F5E0062B0BDC374C20464B49FFF792FDC6
:100B40003E4B196820463039FFF7ACFDE7E03F4BDC
:100B50001B78002B40F0E3802E4C20464349FFF7E2
:100B600081FD364B196820463039FFF79BFDD6E0F2
:100B700000223F4B1A7003223E4B1A70334B1B78F6
:100B8000002B40F0CC80234C20463B49FFF76AFD08
:100B90002A4B196820463039FFF784FD354B1A7807
:100BA00001321A7044F228001CF0DEF8334D2B7825
:100BB00003FB03F3324C84FB0320C0001BF034F929
:100BC0001CF024F92B7803FB03F384FB0320C00003
:100BD0001BF02AF92B4B1B79ED2B02D1294808F089
:100BE000AFFD284B1B79F02B40F09980254808F089
:100BF000BDFE94E0104800F0FDFC002846D00548FA
:100C00002149FFF73DFD04F031FF88E0509EFF1FB2
:100C1000F096FF1F8CB4FF1F8C3B0200E83B0200E4
:100C20006C9DFF1F848CFF1F483C02006398FF1FD0
:100C30006498FF1F843C02009C9CFF1FAC96FF1F22
:100C4000A03C02002098FF1FDC96FF1F55A2FF1F4B
:100C500060B3FF1FD8A9FF1FD6A9FF1FB0A5FF1FB4
:100C6000149EFF1FAC3C0200C43C0200E03C0200AA
:100C7000F496FF1F949DFF1FFC3C0200948CFF1F05
:100C800056555555A89DFF1F103D0200254B1B686A
:100C9000092B17DC244C20462449FFF7E3FC244BA6
:100CA000196820463039FFF7FDFC20462149FFF73F
:100CB000D9FC1C4D20462968FFF7F4FC2B68013352
:100CC0002B602CE001251C4B1D701C4B1A682A441C
:100CD0001A601B4B1D70032004F0C8F8124C20460C
:100CE0001849FFF7BFFC684600F0D8FF9DF80010D8
:100CF0002046C1F10A011CF0FDFB20461249FFF716
:100D0000BFFC20461149FFF7BBFC114800F0B4FBC3
:100D1000044B1D6003E001238DF80030A7E602B00C
:100D200070BD00BF888CFF1F8CB4FF1FAC3C02005D
:100D3000AC96FF1F2C3D0200848CFF1FF096FF1F16
:100D40006C9DFF1F583D0200743D0200AC3D020047
:100D50009C9CFF1F10B56C4B1B78FBB107F0E8F9AA
:100D60006A4B1B78D3B103F0C5FF694B1B78ABB15D
:100D7000684A11684EF6602202FB03F3664A126865
:100D80008A1A93420AD800225F4B1A700124634BDF
:100D90001C70634800F070FB624B1C60624B1B7858
:100DA00053B1594B1B783BB1604B1B7823B90122DF
:100DB0005F4B1A7003F0AAFF02F0C6FB5D4B1A6886
:100DC00040F2DC539A420CD900235B4A13605B4A21
:100DD00013605B4B1A6801321A603522594B1A6056
:100DE0007EE0594B1A6840F2DC539A420CD900233A
:100DF000514A1360514A1360514B1A6801321A600C
:100E00003222504B1A606BE0504B1A6840F2DC53B0
:100E10009A420CD90023484A1360484A1360484B51
:100E20001A6801321A603122464B1A6058E0484B6A
:100E30001A6840F2DC539A420CD900233E4A1360F0
:100E40003E4A13603E4B1A6801321A6033223D4B12
:100E50001A6045E03F4B1A6840F2DC539A420CD9C5
:100E60000023354A1360354A1360354B1A68013246
:100E70001A603422334B1A6032E0374B1A6840F262
:100E8000DC539A420CD900232B4A13602B4A13607F
:100E90002B4B1A6801321A6036222A4B1A601FE067
:100EA000274B1C6820461EF03FFB4FF07C511EF084
:100EB000FBFB08B1214B1C600022214B1A601E4B2A
:100EC0001A6801321A60104B1B781BB9002003F01E
:100ED000ABFF05E0154B1B7813B9552003F0A4FFB9
:100EE000164B1C68002C0EDD134B18681EF01CFB03
:100EF0004FF07C511EF0D8FB28B12046FFF740FD93
:100F000000220E4B1A6010BD509EFF1F149EFF1F43
:100F1000908CFF1F60B3FF1FD8A9FF1F848CFF1F99
:100F20009C9CFF1F888CFF1FD6A9FF1FB09CFF1F32
:100F30006C9DFF1F109EFF1FA896FF1FE497FF1FC9
:100F4000C496FF1FAC96FF1F4C9EFF1F189EFF1FED
:100F50001C9EFF1F209EFF1F249EFF1F08B513F03D
:100F60001DF808486421084A00F05CFA074832215D
:100F7000074A00F057FA07484FF47A71064A00F022
:100F800051FA08BDB096FF1F550D0000C896FF1F0F
:100F90008D040000DC96FF1F650400002DE9F00FB2
:100FA000CAB001900A460023D078CC5C40EA0460C5
:100FB000547840EA0440947840EA042003F128057C
:100FC0006C46285104330432402BEDD10AAB002289
:100FD000986B59685D6A02F128076E46BC592C442B
:100FE0004FEA704585EAF04585EA902020444FEAB3
:100FF000F11484EAB14484EAD10101441964043251
:101000000433C02AE4D10199096D0291019A526D0D
:101010000392019B9B6D0493019CE46D0594019DDB
:101020002D6E0695019E766E0796019FBF6E0897FE
:101030000199C96E099189463D46B446069BA04672
:1010400004981446029A0021DFF8A8A001F1280BA9
:101050006F465BF8076051F80A7037444FEAB316E1
:1010600086EAF32686EA7366374425EA03060CEA25
:10107000030B86EA0B063E444E4480EA0407174001
:1010800000EA040987EA09074FEAB20989EA7239D6
:1010900089EAB2594F44B0443E440431B1F5807FEF
:1010A00008D0A94665469C464346804620461446DD
:1010B0003246CBE702990E44019F3E6503990A44EC
:1010C0007A65049A1444BC65059C2044F865069A28
:1010D00042443A66079E33447B66089B6344BB6682
:1010E000099F3D44DDF804B0CBF86C504AB0BDE830
:1010F000F00F7047A4400200002303640022002385
:10110000C0E912230A4B03650A4B43650A4B83650A
:101110000A4BC3650A4B03660A4B43660A4B836658
:1011200003F17453A3F52303A3F69243C3667047F8
:1011300067E6096A85AE67BB72F36E3C3AF54FA568
:101140007F520E518C68059BABD9831F2DE9F84364
:1011500006469046DAB10F4688444FF00009336CDA
:1011600017F8012BF25401333364402B0DD1304674
:101170003146FFF713FFD6E9124514F5007445F127
:101180000005C6E91245C6F840904745E7D1BDE8DD
:10119000F88300BF2DE9F84F80468946026C372A54
:1011A0000CD8531C80218154372B1CD802440021B9
:1011B000013302F8011F382BFAD114E0531C8021AF
:1011C00081543F2B06D802440021013302F8011F4D
:1011D000402BFAD140464146FFF7E0FE4046002151
:1011E00038221FF0F1F8D8F84030D900D8E912239E
:1011F000521843F10003C8E9122388F83F20100A6F
:1012000040EA0360190A88F83E00160C46EA0346D5
:101210001F0C88F83D60140E44EA03241D0E88F864
:101220003C4088F83B3088F83A1088F8397088F8E4
:10123000385040464146FFF7B1FE0322D300D8F8AC
:101240005010D94089F80010D8F85410D94089F8C6
:101250000410D8F85810D94089F80810D8F85C1054
:10126000D94089F80C10D8F86010D94089F81010CE
:10127000D8F86410D94089F81410D8F86810D9400B
:1012800089F81810D8F86C1021FA03F389F81C308B
:10129000013A09F10109B2F1FF3FCFD1BDE8F88F62
:1012A00000B583B006490A684B6888680090C96831
:1012B0000191044804491FF0CDFA03B05DF804FB26
:1012C000EC97FF1FFC97FF1FA4410200064B1A6812
:1012D000064B1A60064A12685A60064A12689A60FB
:1012E000054A1268DA60704754800440EC97FF1F8B
:1012F000588004405C80044060800440F8B5044697
:101300000F4616461D46044A00F08CF86761E661F8
:10131000A5612046F8BD00BF3913000010B5044692
:10132000002180F8201000F08BF80248214600F0E0
:1013300033F810BD2098FF1F10B5044690F82030F8
:1013400033B9012380F82030616900F079F810BDCD
:10135000012B0CD10648214600F00CF8E36913B1CB
:101360002046984718B1A06908B1FFF7D7FF10BD14
:101370002098FF1F026872B18A4209D11369036085
:101380007047994201D01A4602E00B691361704719
:101390001369002BF5D1704738B505460C46FFF7A9
:1013A000E9FF2A680AB92C6004E013690BB11A46F8
:1013B000FBE714611AF014FD2368C01A6060002373
:1013C000236138BD38B50C461AF00AFD054662683F
:1013D00023681344984205D36268934208D2626836
:1013E000904205D36268954207D26268934204D363
:1013F000A560E36820469847656038BD38B5054666
:101400002C68002CFCD028462146FFF7DBFF24691E
:10141000002CF8D1F4E700BF08B50148FFF7EEFF54
:101420002098FF1F10B44FF47A7404FB01F101609F
:10143000C2600022426002615DF8044B704700BF49
:101440004FF47A7303FB01F10160704701610022E0
:1014500002730270704700BF01617047037B0B2B62
:1014600007D05A1CD2B20273C15400238354012006
:1014700070470020704700BF00230373037070475C
:1014800010B401690A78047800237AB9D4F1010014
:1014900038BF00200DE011F8012F10F8014F013383
:1014A0000B2BF2D1002004E0002002E0A242F2D097
:1014B000FAE75DF8044B70472DE9F0479CB006460B
:1014C0000024DFF814810546335D04F80830013448
:1014D00028461FF05FFAA042F6D26846FFF70CFEDE
:1014E00028461FF057FA024668463B49FFF72EFE92
:1014F0003A4803685B683A490B229847394B5C1EAF
:1015000003F11F08354F10260025384614F8011F37
:1015100032462B461BF0B2FF4445F6D12F4C2046F5
:101520001BF088FF68462F492022FFF70FFEDFF8E7
:10153000A89068464946FFF72DFE23685B68204661
:1015400029490D22984709F1FF3409F11F08234F5B
:1015500010260025384614F8011F32462B461BF092
:101560008DFF4445F6D11D4C20461BF063FF2368D8
:101570005B6820461D4909229847DFF874A00AF1EC
:10158000FF340AF11F08154F10260025384614F8BD
:10159000011F32462B461BF071FF4445F6D10F4820
:1015A0001BF048FF124B19780B4B1A780AF11E00FA
:1015B000534604E0914214BF0020012009E091420B
:1015C00006D113F8011F19F8012F8342F7D1F1E773
:1015D00000201CB0BDE8F087A498FF1F8CB4FF1F4B
:1015E000BC4102002498FF1FC8410200D8410200FC
:1015F0006498FF1F2DE9F8431C4C20461BF01AFF8E
:1016000023685B6820461A490C229847DFF86490EB
:1016100009F1FF3409F11F08144F10260025384640
:1016200014F8011F32462B461BF028FF4445F6D123
:101630000E481BF0FFFE0F4B1A780F48017809F196
:101640001E044B4605E08A4214BF00200120BDE87D
:10165000F8838A4206D113F8012F10F8011FA34224
:10166000F7D1F0E70020BDE8F88300BF8CB4FF1F7E
:10167000E44102008498FF1FA498FF1F2DE9F8435E
:101680001E4C20461BF0D6FE23685B6820461C4992
:101690000C229847DFF86C9009F1FF3409F11F081C
:1016A000164F10260025384614F8011F32462B46E7
:1016B0001BF0E4FE4445F6D110481BF0BBFE114B75
:1016C0001A781148017809F11E044B4606E08A4257
:1016D0000DD101200D4B1870BDE8F8838A4209D165
:1016E00013F8012F10F8011FA342F7D1EFE70020F4
:1016F000BDE8F8830020BDE8F88300BF8CB4FF1F6D
:10170000F44102004498FF1FA498FF1F55A2FF1F39
:1017100008B512F043FC08BD2DE9F00F86B0C36C8C
:101720000193076D0297436D0393876D0497C36D13
:1017300005931E463C460399DDF808C0019D0E2224
:101740000023DFF808A1DFF808912CE00F2B24D943
:1017500003F00F0600EB860602F00F0808F10208FE
:1017600050F82880B76887EA0808A2F1050B0BF04B
:101770000F0B0BF1020B50F82BB088EA0B08A2F10B
:101780000B0B0BF00F0B0BF1020B50F82BB088EA90
:101790000B084FEAF878C6F80880013226460C4656
:1017A0006146AC46009D132B0CD884EA010808EA78
:1017B0000C0888EA040808F1B54808F51E3808F254
:1017C00099181FE0272B05D884EA010888EA0C083D
:1017D000C84417E03B2B09D84CEA010808EA040882
:1017E0000CEA010748EA0708D0440BE084EA010844
:1017F00088EA0C0808F14A4808F5C50808F5834846
:1018000008F1560803F00F07023750F8277007EB6E
:10181000F5674744BE1900964FEABC0C0133DBB2B2
:10182000502B93D1019B3344C364029B1D44056537
:10183000039B63444365049F39448165059B1C44B5
:10184000C46506B0BDE8F00F704700BFDCBC1B8F5D
:10185000A1EBD96E10B5044690F8483083F003022E
:10186000024411720133DBB280F84830402B04D1BE
:10187000FFF752FF002384F8483010BD08B5026E10
:1018800001320266FFF7E6FF012008BD024B00228D
:101890001A71024A1A607047C498FF1F1042020072
:1018A0002DE9F00F5B4BA3FB00425209C2EB02147F
:1018B000A0EB84000870A3FB02A35B09C3EB031039
:1018C000A2EB80024A70544CA4FB03084FEA18189C
:1018D00008EB4802A3EBC2038B70474608F10400F3
:1018E0004E4AA0FB0223C21A03EB52039B08C3EB30
:1018F000C303C01A0130C8700020024640F26D1CBC
:10190000474C4FF064094FF4B77BC5B205F2B27390
:10191000ABB113F0030F14D184FB03A6761109FBBE
:10192000163686B984FB03A6F6114FF4C87A06FB77
:101930001A36002E0CBF4FF4B776664604E06646B2
:1019400002E0664600E05E46324401309742DCD257
:101950008D71CBB113F0030F19D1314880FB0340D7
:101960004011642404FB1030A0B92D4880FB03A073
:10197000C0114FF4C87400FB1430002840F26D14FD
:1019800008BF4FF4B77407E040F26D1404E040F272
:101990006D1401E04FF4B774121BC2EB0804204F22
:1019A00087FB03074FEA671C642202FB1C3CFF1104
:1019B0004FF4C87202FB173700221A4E4FF01C0872
:1019C00003F0030A4FF01D09D0B201280BD163B117
:1019D000BAF1000F0BD1BCF1000F0AD1002F0CBFE0
:1019E0001D251C2506E0955D04E0454602E04546C0
:1019F00000E04D46A54205D8641B0130C0B201325B
:101A00000C2AE1D10130487101340C71BDE8F00FAE
:101A1000704700BF89888888ABAAAAAA2549922462
:101A20001F85EB511842020010B50446044B1B6899
:101A3000984204D00349FFF733FF014B1C6010BDEF
:101A40007C99FF1F8099FF1F08B5FFF7EDFF024B40
:101A5000987900F2B27008BD8099FF1F074B18609B
:101A6000074B1B681844074B18600222064B1A707C
:101A7000064B1A68064B1A60704700BF8899FF1F13
:101A80008C8CFF1F9899FF1F8C99FF1F60B3FF1F5D
:101A90009499FF1F10B51C4B1A681C4B1B68D21A77
:101AA000B2F57A7F11D31A4A12680132164C03F547
:101AB0007A732168501CC91AB1F57A7F01D30246A6
:101AC000F5E713490A60114A1360124B1A68104B6C
:101AD0001B689A4214D8104B1B688BB1984710B101
:101AE000FFF7BCFF0CE00D4B1A68094B1B681A444A
:101AF000084B1A600A4B1A78003218BF01221A707C
:101B0000034B186810BD00BF60B3FF1F9499FF1FFF
:101B10008899FF1F9899FF1F9099FF1F8C8CFF1FBA
:101B20008C99FF1F08B5FFF7B5FFFFF77DFF014B4D
:101B3000987808BD8099FF1F08B5FFF7ABFFFFF746
:101B400073FF014B587808BD8099FF1F08B5FFF758
:101B5000A1FFFFF769FF014B187808BD8099FF1FAF
:101B600008B5FFF797FFFFF75FFF014B187908BD36
:101B70008099FF1F08B5FFF78DFFFFF755FF014B59
:101B8000587908BD8099FF1F08B5FFF783FFFFF75D
:101B90005BFF08BD08B5FFF77DFF014B187808BD56
:101BA0008C99FF1F70B516464AB10E440C46451A73
:101BB000204612F02DFA28550134B442F8D170BDF8
:101BC00070B5154642B10C46461A2046315D12F0FA
:101BD00033FA0134013DF8D170BD00BF08B540F2C1
:101BE00094610122FFF7DEFF012008BD08B540F235
:101BF00094610122FFF7E4FF08BD00BF08B540F281
:101C000095610122FFF7CEFF012008BD08B540F223
:101C100095610122FFF7D4FF08BD00BF08B540F26F
:101C200096610122FFF7BEFF012008BD08B540F212
:101C300096610122FFF7C4FF08BD00BF08B540F25E
:101C400097610122FFF7AEFF012008BD08B540F201
:101C500097610122FFF7B4FF08BD00BF08B54FF43C
:101C6000D3610122FFF79EFF012008BD08B54FF4A4
:101C7000D3610122FFF7A4FF08BD00BF08B540F201
:101C800099610122FFF78EFF012008BD08B540F2DF
:101C900099610122FFF794FF08BD00BF08B540F22B
:101CA0009A610122FFF77EFF012008BD08B540F2CE
:101CB0009A610122FFF784FF08BD00BF08B540F21A
:101CC00091610222FFF76EFF022008BD08B540F2C5
:101CD00091610222FFF774FF08BD00BF08B540F212
:101CE00093610122FFF75EFF012008BD08B540F2B5
:101CF00093610122FFF764FF08BD00BF08B54FF4F0
:101D0000BE610122FFF75CFF08BD00BF08B540F2CD
:101D1000F1510122FFF754FF08BD00BF08B540F2A2
:101D2000F2510122FFF74CFF08BD00BF08B540F299
:101D3000F3510122FFF744FF08BD00BF08B540F290
:101D4000F4510122FFF73CFF08BD00BF08B540F287
:101D5000F5510122FFF734FF08BD00BF08B540F27E
:101D6000F6510122FFF72CFF08BD00BF08B540F275
:101D7000F7510122FFF724FF08BD00BF08B54FF45B
:101D8000BF610122FFF71CFF08BD00BF08B540F28C
:101D9000F9510122FFF714FF08BD00BF08B540F25A
:101DA000FA510122FFF70CFF08BD00BF08B540F251
:101DB000FB510122FFF704FF08BD00BF08B540F248
:101DC000FC510122FFF7FCFE08BD00BF08B540F240
:101DD000FD510122FFF7F4FE08BD00BF08B540F237
:101DE000FE510122FFF7ECFE08BD00BF08B540F22E
:101DF000FF510122FFF7E4FE08BD00BF08B54FF414
:101E0000C0610122FFF7DCFE08BD00BF08B540F24B
:101E100001610122FFF7D4FE08BD00BF08B540F202
:101E200002610122FFF7CCFE08BD00BF08B540F2F9
:101E300003610122FFF7C4FE08BD00BF08B540F2F0
:101E400004610122FFF7BCFE08BD00BF08B540F2E7
:101E500005610122FFF7B4FE08BD00BF08B540F2DE
:101E600006610122FFF7ACFE08BD00BF08B540F2D5
:101E700007610122FFF7A4FE08BD00BF08B5682175
:101E80000122FFF79DFE08BD08B569210122FFF779
:101E900097FE08BD08B56A210122FFF791FE08BD33
:101EA00008B56B210122FFF78BFE08BD08B56C2138
:101EB0000122FFF785FE08BD08B56D210122FFF75D
:101EC0007FFE08BD08B56E210122FFF779FE08BD2F
:101ED00008B56F210122FFF773FE08BD08B5702118
:101EE0000122FFF76DFE08BD08B571210122FFF741
:101EF00067FE08BD08B572210122FFF761FE08BD2B
:101F000008B573210122FFF75BFE08BD08B57421F7
:101F10000122FFF755FE08BD08B575210122FFF724
:101F20004FFE08BD08B576210122FFF749FE08BD26
:101F300008B577210122FFF743FE08BD08B57821D7
:101F40000122FFF73DFE08BD08B579210122FFF708
:101F500037FE08BD08B57A210122FFF731FE08BD22
:101F600008B57B210122FFF72BFE08BD08B57C21B7
:101F70000122FFF725FE08BD08B57D210122FFF7EC
:101F80001FFE08BD08B57E210122FFF719FE08BD1E
:101F900008B57F210122FFF713FE08BD08B52021F7
:101FA0000122FFF70DFE08BD08B521210122FFF730
:101FB00007FE08BD08B522210122FFF701FE08BD7A
:101FC00008B523210122FFF7FBFD08BD08B5242138
:101FD0000122FFF7F5FD08BD08B525210122FFF715
:101FE000EFFD08BD08B526210122FFF7E9FD08BD78
:101FF00008B527210122FFF7E3FD08BD08B5282118
:102000000122FFF7DDFD08BD08B529210122FFF7F8
:10201000D7FD08BD08B52A210122FFF7D1FD08BD73
:1020200008B52B210122FFF7CBFD08BD08B52C21F7
:102030000122FFF7C5FD08BD08B52D210122FFF7DC
:10204000BFFD08BD08B52E210122FFF7B9FD08BD6F
:1020500008B52F210122FFF7B3FD08BD08B53021D7
:102060000122FFF7ADFD08BD08B531210122FFF7C0
:10207000A7FD08BD08B532210122FFF7A1FD08BD6B
:1020800008B533210122FFF79BFD08BD08B53421B7
:102090000122FFF795FD08BD08B535210122FFF7A4
:1020A0008FFD08BD08B536210122FFF789FD08BD67
:1020B00008B537210122FFF783FD08BD08B54FF4AD
:1020C000CA610122FFF77CFD08BD00BF08B540F2E0
:1020D00051610122FFF774FD08BD00BF08B540F251
:1020E00052610122FFF76CFD08BD00BF08B540F248
:1020F00053610122FFF764FD08BD00BF08B540F23F
:1021000054610122FFF75CFD08BD00BF08B540F235
:1021100055610122FFF754FD08BD00BF08B540F22C
:1021200056610122FFF74CFD08BD00BF08B540F223
:1021300057610122FFF744FD08BD00BF08B54FF409
:10214000CB610122FFF73CFD08BD00BF08B540F29E
:1021500059610122FFF734FD08BD00BF08B540F208
:102160005A610122FFF72CFD08BD00BF08B540F2FF
:102170005B610122FFF724FD08BD00BF08B540F2F6
:102180005C610122FFF71CFD08BD00BF08B540F2ED
:102190005D610122FFF714FD08BD00BF08B540F2E4
:1021A0005E610122FFF70CFD08BD00BF08B540F2DB
:1021B0005F610122FFF704FD08BD00BF08B54FF4C1
:1021C000CC610122FFF7FCFC08BD00BF08B540F25E
:1021D00061610122FFF7F4FC08BD00BF08B540F2C1
:1021E00062610122FFF7ECFC08BD00BF08B540F2B8
:1021F00063610122FFF7E4FC08BD00BF08B540F2AF
:1022000064610122FFF7DCFC08BD00BF08B540F2A5
:1022100065610122FFF7D4FC08BD00BF08B540F29C
:1022200066610122FFF7CCFC08BD00BF08B540F293
:1022300067610122FFF7C4FC08BD00BF08B5022199
:102240001022FFF7AFFC102008BD00BF08B5022127
:102250001022FFF7B5FC08BD08B51E210222FFF7CA
:10226000A1FC022008BD00BF08B51E210222FFF715
:10227000A7FC08BD08B518210622FFF793FC06202D
:1022800008BD00BF08B518210622FFF799FC08BD5C
:1022900008B512210622FFF785FC062008BD00BF05
:1022A00008B512210622FFF78BFC08BD10B582B0DD
:1022B0000C46013A172A00F26781DFE812F0180095
:1022C0002500320040004E005C006A007800860065
:1022D0009400A200B000BE00CC00DA00E800F600D6
:1022E0000401120120012E013C014A015801B021D4
:1022F0003822FFF765FC382CA8BF382402A800F864
:10230000014DFFF7FBFC3FE1E8213822FFF758FCC5
:10231000382CA8BF382402A800F8014DFFF7F6FCBE
:1023200032E14FF490713822FFF74AFC382CA8BFF5
:10233000382402A800F8014DFFF7F0FC24E14FF427
:10234000AC713822FFF73CFC382CA8BF382402A817
:1023500000F8014DFFF7EAFC16E14FF4C87138228E
:10236000FFF72EFC382CA8BF382402A800F8014D36
:10237000FFF7E4FC08E14FF4E4713822FFF720FC9A
:10238000382CA8BF382402A800F8014DFFF7DEFC66
:10239000FAE04FF400713822FFF712FC382CA8BF86
:1023A000382402A800F8014DFFF7D8FCECE04FF408
:1023B0000E713822FFF704FC382CA8BF382402A87D
:1023C00000F8014DFFF7D2FCDEE04FF41C7138221B
:1023D000FFF7F6FB382CA8BF382402A800F8014DFF
:1023E000FFF7CCFCD0E04FF42A713822FFF7E8FB6E
:1023F000382CA8BF382402A800F8014DFFF7C6FC0E
:10240000C2E04FF438713822FFF7DAFB382CA8BF4E
:10241000382402A800F8014DFFF7C0FCB4E04FF4E7
:1024200046713822FFF7CCFB382CA8BF382402A80D
:1024300000F8014DFFF7BAFCA6E04FF454713822C2
:10244000FFF7BEFB382CA8BF382402A800F8014DC6
:10245000FFF7B4FC98E04FF462713822FFF7B0FB4D
:10246000382CA8BF382402A800F8014DFFF7AEFCB5
:102470008AE04FF470713822FFF7A2FB382CA8BF16
:10248000382402A800F8014DFFF7A8FC7CE04FF4C7
:102490007E713822FFF794FB382CA8BF382402A89D
:1024A00000F8014DFFF7A2FC6EE04FF48661382280
:1024B000FFF786FB382CA8BF382402A800F8014D8E
:1024C000FFF79CFC60E04FF48D613822FFF778FB4A
:1024D000382CA8BF382402A800F8014DFFF796FC5D
:1024E00052E04FF494613822FFF76AFB382CA8BF02
:1024F000382402A800F8014DFFF790FC44E04FF4A7
:102500009B613822FFF75CFB382CA8BF382402A857
:1025100000F8014DFFF78AFC36E04FF4A261382243
:10252000FFF74EFB382CA8BF382402A800F8014D55
:10253000FFF784FC28E04FF4A9613822FFF740FB45
:10254000382CA8BF382402A800F8014DFFF77EFC04
:102550001AE04FF4B0613822FFF732FB382CA8BFE5
:10256000382402A800F8014DFFF778FC0CE04FF486
:10257000B7613822FFF724FB382CA8BF382402A803
:1025800000F8014DFFF772FC02B010BD08B501392B
:10259000172900F28580DFE801F00C11161B2025B9
:1025A0002A2F34393E43484D52575C61666B707533
:1025B0007A7F38210122FFF703FB08BD3921012270
:1025C000FFF7FEFA08BD3A210122FFF7F9FA08BD2C
:1025D0003B210122FFF7F4FA08BD3C210122FFF75D
:1025E000EFFA08BD3D210122FFF7EAFA08BD3E21BE
:1025F0000122FFF7E5FA08BD3F210122FFF7E0FACB
:1026000008BD40210122FFF7DBFA08BD412101226C
:10261000FFF7D6FA08BD42210122FFF7D1FA08BD23
:1026200043210122FFF7CCFA08BD44210122FFF724
:10263000C7FA08BD45210122FFF7C2FA08BD4621AD
:102640000122FFF7BDFA08BD47210122FFF7B8FAC2
:1026500008BD48210122FFF7B3FA08BD4921012234
:10266000FFF7AEFA08BD4A210122FFF7A9FA08BD1B
:102670004B210122FFF7A4FA08BD4C210122FFF7EC
:102680009FFA08BD4D210122FFF79AFA08BD4E219D
:102690000122FFF795FA08BD4F210122FFF790FABA
:1026A00008BD00BF08B50139172900F28580DFE8B1
:1026B00001F00C11161B20252A2F34393E43484DBA
:1026C00052575C61666B70757A7F80210122FFF73B
:1026D00077FA08BD81210122FFF772FA08BD822135
:1026E0000122FFF76DFA08BD83210122FFF768FA86
:1026F00008BD84210122FFF763FA08BD852101226C
:10270000FFF75EFA08BD86210122FFF759FA08BDDE
:1027100087210122FFF754FA08BD88210122FFF723
:102720004FFA08BD89210122FFF74AFA08BD8A2124
:102730000122FFF745FA08BD8B210122FFF740FA7D
:1027400008BD8C210122FFF73BFA08BD8D21012233
:10275000FFF736FA08BD8E210122FFF731FA08BDD6
:102760008F210122FFF72CFA08BD90210122FFF7EB
:1027700027FA08BD91210122FFF722FA08BD922114
:102780000122FFF71DFA08BD93210122FFF718FA75
:1027900008BD94210122FFF713FA08BD95210122FB
:1027A000FFF70EFA08BD96210122FFF709FA08BDCE
:1027B00097210122FFF704FA08BD00BF08B50139CF
:1027C000172900F29D80DFE801F00C12181E242A60
:1027D00030363C42484E545A60666C72787E848A29
:1027E00090964FF4C1610122FFF7EAF908BD40F26B
:1027F00009610122FFF7E4F908BD40F20A610122F4
:10280000FFF7DEF908BD40F20B610122FFF7D8F9AE
:1028100008BD40F20C610122FFF7D2F908BD40F279
:102820000D610122FFF7CCF908BD40F20E610122D3
:10283000FFF7C6F908BD40F20F610122FFF7C0F9AA
:1028400008BD4FF4C2610122FFF7BAF908BD40F29A
:1028500011610122FFF7B4F908BD40F212610122B3
:10286000FFF7AEF908BD40F213610122FFF7A8F9A6
:1028700008BD40F214610122FFF7A2F908BD40F241
:1028800015610122FFF79CF908BD40F21661012293
:10289000FFF796F908BD40F217610122FFF790F9A2
:1028A00008BD4FF4C3610122FFF78AF908BD40F269
:1028B00019610122FFF784F908BD40F21A61012273
:1028C000FFF77EF908BD40F21B610122FFF778F99E
:1028D00008BD40F21C610122FFF772F908BD40F209
:1028E0001D610122FFF76CF908BD40F21E61012253
:1028F000FFF766F908BD40F21F610122FFF760F99A
:1029000008BD00BF08B50139172900F28580DFE84E
:1029100001F00C11161B20252A2F34393E43484D57
:1029200052575C61666B70757A7F50210122FFF708
:1029300047F908BD51210122FFF742F908BD522194
:102940000122FFF73DF908BD53210122FFF738F9B5
:1029500008BD54210122FFF733F908BD552101229A
:10296000FFF72EF908BD56210122FFF729F908BD0E
:1029700057210122FFF724F908BD58210122FFF752
:102980001FF908BD59210122FFF71AF908BD5A2184
:102990000122FFF715F908BD5B210122FFF710F9AD
:1029A00008BD5C210122FFF70BF908BD5D21012262
:1029B000FFF706F908BD5E210122FFF701F908BD06
:1029C0005F210122FFF7FCF808BD60210122FFF71B
:1029D000F7F808BD61210122FFF7F2F808BD622176
:1029E0000122FFF7EDF808BD63210122FFF7E8F8A7
:1029F00008BD64210122FFF7E3F808BD652101222B
:102A0000FFF7DEF808BD66210122FFF7D9F808BDFF
:102A100067210122FFF7D4F808BD00BF08B50139CE
:102A2000172900F28580DFE801F00C11161B202524
:102A30002A2F34393E43484D52575C61666B70759E
:102A40007A7F98210122FFF7BBF808BD9921012266
:102A5000FFF7B6F808BD9A210122FFF7B1F808BDCB
:102A60009B210122FFF7ACF808BD9C210122FFF752
:102A7000A7F808BD9D210122FFF7A2F808BD9E21FD
:102A80000122FFF79DF808BD9F210122FFF798F86A
:102A900008BDA0210122FFF793F808BDA121012262
:102AA000FFF78EF808BDA2210122FFF789F808BDC3
:102AB000A3210122FFF784F808BDA4210122FFF71A
:102AC0007FF808BDA5210122FFF77AF808BDA621ED
:102AD0000122FFF775F808BDA7210122FFF770F862
:102AE00008BDA8210122FFF76BF808BDA92101222A
:102AF000FFF766F808BDAA210122FFF761F808BDBB
:102B0000AB210122FFF75CF808BDAC210122FFF7E1
:102B100057F808BDAD210122FFF752F808BDAE21DC
:102B20000122FFF74DF808BDAF210122FFF748F859
:102B300008BD00BF08B50139172900F29D80DFE804
:102B400001F00C12181E242A30363C42484E545ACA
:102B500060666C72787E848A90964FF4C46101221C
:102B6000FFF72EF808BD40F221610122FFF728F897
:102B700008BD40F222610122FFF722F808BD40F2B1
:102B800023610122FFF71CF808BD40F224610122F5
:102B9000FFF716F808BD40F225610122FFF710F893
:102BA00008BD40F226610122FFF70AF808BD40F295
:102BB00027610122FFF704F808BD4FF4C561012227
:102BC000FEF7FEFF08BD40F229610122FEF7F8FF83
:102BD00008BD40F22A610122FEF7F2FF08BD40F273
:102BE0002B610122FEF7ECFF08BD40F22C610122AF
:102BF000FEF7E6FF08BD40F22D610122FEF7E0FF7F
:102C000008BD40F22E610122FEF7DAFF08BD40F256
:102C10002F610122FEF7D4FF08BD4FF4C6610122E7
:102C2000FEF7CEFF08BD40F231610122FEF7C8FF7A
:102C300008BD40F232610122FEF7C2FF08BD40F23A
:102C400033610122FEF7BCFF08BD40F2346101226E
:102C5000FEF7B6FF08BD40F235610122FEF7B0FF76
:102C600008BD40F236610122FEF7AAFF08BD40F21E
:102C700037610122FEF7A4FF08BD00BF08B5013986
:102C8000172900F29D80DFE801F00C12181E242A9B
:102C900030363C42484E545A60666C72787E848A64
:102CA00090964FF4C7610122FEF78AFF08BD40F2FB
:102CB00039610122FEF784FF08BD40F23A6101222A
:102CC000FEF77EFF08BD40F23B610122FEF778FF70
:102CD00008BD40F23C610122FEF772FF08BD40F2E0
:102CE0003D610122FEF76CFF08BD40F23E6101220A
:102CF000FEF766FF08BD40F23F610122FEF760FF6C
:102D000008BD4FF4C8610122FEF75AFF08BD40F22A
:102D100041610122FEF754FF08BD40F242610122E9
:102D2000FEF74EFF08BD40F243610122FEF748FF67
:102D300008BD40F244610122FEF742FF08BD40F2A7
:102D400045610122FEF73CFF08BD40F246610122C9
:102D5000FEF736FF08BD40F247610122FEF730FF63
:102D600008BD4FF4C9610122FEF72AFF08BD40F2F9
:102D700049610122FEF724FF08BD40F24A610122A9
:102D8000FEF71EFF08BD40F24B610122FEF718FF5F
:102D900008BD40F24C610122FEF712FF08BD40F26F
:102DA0004D610122FEF70CFF08BD40F24E61012289
:102DB000FEF706FF08BD40F24F610122FEF700FF5B
:102DC00008BD00BF08B565391F2900F20281DFE8A0
:102DD00011F0200027002E0035003C0043004A007F
:102DE000510058005F0066006D0074007B00820097
:102DF0008900900097009E00A500AC00B300BA00C7
:102E0000C100C800CF00D600DD00E400EB00F200F6
:102E1000F9004FF4CD610122FEF7C4FE012008BD88
:102E200040F269610122FEF7BDFE012008BD40F2BB
:102E30006A610122FEF7B6FE012008BD40F26B6117
:102E40000122FEF7AFFE012008BD40F26C610122B5
:102E5000FEF7A8FE012008BD40F26D610122FEF7D9
:102E6000A1FE012008BD40F26E610122FEF79AFE2C
:102E7000012008BD40F26F610122FEF793FE0120A0
:102E800008BD4FF4CE610122FEF78CFE012008BD83
:102E900040F271610122FEF785FE012008BD40F27B
:102EA00072610122FEF77EFE012008BD40F27361CF
:102EB0000122FEF777FE012008BD40F27461012275
:102EC000FEF770FE012008BD40F275610122FEF799
:102ED00069FE012008BD40F276610122FEF762FE24
:102EE000012008BD40F277610122FEF75BFE012060
:102EF00008BD4FF4CF610122FEF754FE012008BD4A
:102F000040F279610122FEF74DFE012008BD40F23A
:102F10007A610122FEF746FE012008BD40F27B6186
:102F20000122FEF73FFE012008BD40F27C61012234
:102F3000FEF738FE012008BD40F27D610122FEF758
:102F400031FE012008BD40F27E610122FEF72AFE1B
:102F5000012008BD40F27F610122FEF723FE01201F
:102F600008BD4FF4D0610122FEF71CFE012008BD10
:102F700040F281610122FEF715FE012008BD40F2FA
:102F800082610122FEF70EFE012008BD40F283613E
:102F90000122FEF707FE012008BD40F284610122F4
:102FA000FEF700FE012008BD40F285610122FEF718
:102FB000F9FD012008BD40F286610122FEF7F2FD15
:102FC000012008BD40F287610122FEF7EBFD0120E0
:102FD00008BD002008BD00BF08B565391F2900F2F3
:102FE000D180DFE801F010161C22282E343A40462A
:102FF0004C52585E646A70767C82888E949AA0A641
:10300000ACB2B8BEC4CA4FF4CD610122FEF7D8FD00
:1030100008BD40F269610122FEF7D2FD08BD40F211
:103020006A610122FEF7CCFD08BD40F26B6101220E
:10303000FEF7C6FD08BD40F26C610122FEF7C0FD3F
:1030400008BD40F26D610122FEF7BAFD08BD40F2F5
:103050006E610122FEF7B4FD08BD40F26F610122EE
:10306000FEF7AEFD08BD4FF4CE610122FEF7A8FDCC
:1030700008BD40F271610122FEF7A2FD08BD40F2D9
:1030800072610122FEF79CFD08BD40F273610122CE
:10309000FEF796FD08BD40F274610122FEF790FD37
:1030A00008BD40F275610122FEF78AFD08BD40F2BD
:1030B00076610122FEF784FD08BD40F277610122AE
:1030C000FEF77EFD08BD4FF4CF610122FEF778FDCB
:1030D00008BD40F279610122FEF772FD08BD40F2A1
:1030E0007A610122FEF76CFD08BD40F27B6101228E
:1030F000FEF766FD08BD40F27C610122FEF760FD2F
:1031000008BD40F27D610122FEF75AFD08BD40F284
:103110007E610122FEF754FD08BD40F27F6101226D
:10312000FEF74EFD08BD4FF4D0610122FEF748FDC9
:1031300008BD40F281610122FEF742FD08BD40F268
:1031400082610122FEF73CFD08BD40F2836101224D
:10315000FEF736FD08BD40F284610122FEF730FD26
:1031600008BD40F285610122FEF72AFD08BD40F24C
:1031700086610122FEF724FD08BD40F2876101222D
:10318000FEF71EFD08BD00BF08B5013903291FD891
:10319000DFE801F0020910174FF4D1610122FEF7B8
:1031A00001FD012008BD40F289610122FEF7FAFC11
:1031B000012008BD40F28A610122FEF7F3FC0120E4
:1031C00008BD40F28B610122FEF7ECFC012008BD36
:1031D000002008BD08B5013903291AD8DFE801F03D
:1031E00002080E144FF4D1610122FEF7E9FC08BD7C
:1031F00040F289610122FEF7E3FC08BD40F28A61DA
:103200000122FEF7DDFC08BD40F28B610122FEF7D2
:10321000D7FC08BD10B5064C20460649FEF7AAF8B3
:1032200020460549FEF7A6F80020044B187010BD93
:103230002098FF1FC0A9FF1FDCA9FF1FB09CFF1F24
:1032400010B5354B1B78012B0BD1344B187800216E
:103250000A460BF0ABF80246314800210BF06AF841
:1032600047E02B2B0CD82D4B197849080846002233
:103270000BF09CF802462A4800210BF05BF838E07E
:10328000552B0BD80020254B197802460BF08EF8F1
:103290000246234800210BF04DF82AE0802B0CD881
:1032A0001E4B1A785208002011460BF07FF8024698
:1032B0001B4800210BF03EF81BE0AA2B0BD8002086
:1032C0000146164B1A780BF071F80246144800219B
:1032D0000BF030F80DE0D52B0BD8104B1A785208B4
:1032E000104600210BF062F802460D4800210BF059
:1032F00021F80B480AF060FF084A13780833DBB264
:10330000137043B9074C20460749FEF733F82046AF
:103310000649FEF741F810BD6C9DFF1FACA5FF1FCD
:1033200098A5FF1F2098FF1FC0A9FF1FDCA9FF1F42
:1033300010B5314B1A78083AD2B21A702F4B1B785D
:10334000012B0AD1104600210A460BF02FF8024645
:103350002B4800210AF0EEFF3EE02B2B0AD8510843
:10336000084600220BF022F80246254800210AF008
:10337000E1FF31E0552B0AD80020114602460BF040
:1033800015F802461E4800210AF0D4FF24E0802BE5
:103390000AD85208002011460BF008F802461848D7
:1033A00000210AF0C7FF17E0AA2B09D80020014628
:1033B0000AF0FCFF0246124800210AF0BBFF0BE0B6
:1033C000D52B09D85208104600210AF0EFFF02461B
:1033D0000B4800210AF0AEFF09480AF0EDFE064B4B
:1033E0001B7843B9074C20460749FDF7C3FF204629
:1033F0000649FDF7D1FF10BDACA5FF1F6C9DFF1F57
:1034000098A5FF1F2098FF1FDCA9FF1FC0A9FF1F61
:1034100010B50B4B1B788BB90A4C23685B682046B0
:1034200009490C22984720461AF004F80021074B5E
:10343000196007484FF440721CF0C6FF002010BD11
:10344000949DFF1F8CB4FF1F68420200E89DFF1F80
:103450009C99FF1F10B582B00024204610F0D8FDC3
:1034600001AB18550134042CF7D1019802B010BDFE
:1034700070B582B001900DF10306002416F8015FCB
:10348000204610F0C5FD854203D02046294610F0A5
:10349000D3FD0134042CF1D102B070BD10B5044647
:1034A000084803685B68084901229847092C04DC36
:1034B000044803681B6830219847024821461AF0E7
:1034C00019F810BD8CB4FF1F5462020038B5FEF726
:1034D00029FB01461A4C20461AF00CF8FEF72CFB8B
:1034E000FFF7DCFFFEF732FBFFF7D8FF2368154D2F
:1034F0005B682046294601229847FEF731FB0146CA
:10350000204619F0F7FF23685B6820462946012210
:103510009847FEF72FFB0146204619F0EBFF236882
:103520005B682046294601229847FEF72DFB01469D
:10353000204619F0DFFF204619F07CFF38BD00BFA0
:103540008CB4FF1FA850020010B5304B187818F04B
:10355000DBFC01462E4B18602E4C204604221346FD
:103560000AF092F82C4B187818F0CEFC01462B4B41
:1035700018602046042213460AF086F8284B187873
:1035800018F0C2FC0146274B18602046042213465F
:103590000AF07AF8244B187818F0B6FC0146234B51
:1035A00018602046042213460AF06EF8204B187863
:1035B00018F0AAFC01461F4B18602046042213464F
:1035C0000AF062F81C4B187818F09EFC01461B4B61
:1035D00018602046042213460AF056F8184B187853
:1035E00010F032FC01462046042210230AF04CF869
:1035F000144B187810F028FC0146204604221023B2
:103600000AF042F820460AF01DF810BDF4A9FF1F89
:10361000109EFF1FC0B0FF1FF5A9FF1F4C9EFF1F8C
:10362000F6A9FF1F189EFF1FF7A9FF1F1C9EFF1F73
:10363000F8A9FF1F209EFF1FF9A9FF1F249EFF1F4F
:10364000AEA5FF1FAFA5FF1F30B415462AB100235A
:10365000C45CCC540133AB42FAD130BC704700BFDC
:1036600010B503785BB100220A491446FF2B0CBF4A
:1036700054545354013210F8013F002BF6D1054C3D
:103680002046002119F0F8FC2046002140221CF0C1
:103690009BFE10BD58A2FF1F2DE9F04180460C464D
:1036A0000E4819F0C7FE002C13DD4546A0440B4C14
:1036B00010270B4E204615F8011B3A46002319F03F
:1036C000DDFE23685B682046314601229847454568
:1036D000F0D1024819F0AEFEBDE8F0818CB4FF1FB6
:1036E000A8500200F8B507460E46144D144C01E0F0
:1036F000FFF72AFF2846216809F0FEFE0028F7D0D0
:103700000E483946324609F031FF20220C4B1A6030
:103710000C4C204619F08EFE23685B6820460A494F
:1037200023229847204631460A22002319F0A6FE9C
:1037300038463146FFF7B0FF0120F8BDC0B0FF1F8B
:10374000988CFF1F8CB4FF1F784202002DE9F041D6
:10375000334C23685B68204632491522984720463F
:1037600019F068FE0025DFF8C8800127284610F010
:103770004FFC06462046294619F0BCFE23685B68CC
:10378000204641463A469847204631460A220023C1
:1037900019F074FE204619F04DFE0135B5F5006FA5
:1037A000E4D1002425462046294610F045FC01348A
:1037B000B4F5006FF7D11A4C23685B6820461A49AC
:1037C00010229847204619F035FE0025DFF860806A
:1037D0000127284610F01CFC06462046294619F011
:1037E00089FE23685B68204641463A469847204652
:1037F00031460A22002319F041FE204619F01AFE34
:103800000135B5F5006FE4D1054C23685B682046AF
:1038100006490D229847204619F00CFEBDE8F081BC
:103820008CB4FF1F9C420200B8420200CC4202004E
:10383000B442020070B582B001A8FEF74FFA9DF8BD
:103840000440E40258485949224619F009FE20462E
:10385000002107F0E1FC18B15348554919F000FE6A
:10386000514E3046534919F0FBFD04F500653046D2
:103870004E492A4619F0F4FD2846002107F0CCFCF9
:1038800018B130464A4919F0EBFD474E30464949D8
:1038900019F0E6FD04F58055304644492A4619F0F2
:1038A000DFFD2846002107F0B7FC18B1304640493B
:1038B00019F0D6FD3C4E30463E4919F0D1FD04F5D5
:1038C000C055304639492A4619F0CAFD284600211C
:1038D00007F0A2FC18B13046354919F0C1FD324E4F
:1038E0003046344919F0BCFD04F5005530462F49E7
:1038F0002A4619F0B5FD2846002107F08DFC18B1C5
:1039000030462B4919F0ACFD274E3046294919F0B5
:10391000A7FD04F52055304624492A4619F0A0FD9C
:103920002846002107F078FC18B13046204919F0EC
:1039300097FD1D4E30461F4919F092FD04F5405584
:1039400030461A492A4619F08BFD2846002107F017
:1039500063FC18B13046164919F082FD124D284615
:10396000144919F07DFD04F5605428460F4922469C
:1039700019F076FD2046002107F04EFC18B12846CC
:103980000B4919F06DFD084C20460A4919F068FDF5
:1039900023685B682046084914229847204619F09E
:1039A00049FD02B070BD00BF8CB4FF1FDC420200B5
:1039B000F0420200F84202000843020030B4043A28
:1039C00012D403460024CD78055551F8045B2D0C24
:1039D0005D7051F8045C2D0A9D7051F8045CDD7037
:1039E000043304349442EEDD30BC70472DE9F047D7
:1039F00082B006468846171F20D405460024DFF80B
:103A000044A0DFF84490AA786B781B0443EA0223B1
:103A1000EA781343325D43EA0263019308EB040042
:103A200001A90022134607F0B9FB18B150464946D8
:103A300019F016FD04340435BC42E4DD02B0BDE8E3
:103A4000F08700BF8CB4FF1FF042020070B582B057
:103A500006460D4601A8FEF741F99DF804305C1EAC
:103A6000E4B2FD2C05D90A480A4919F0F9FC0020F6
:103A70000BE0DC0206480849224619F0F1FC30460A
:103A800021462A46FFF79AFF012002B070BD00BF11
:103A90008CB4FF1F204302003C4302002DE9F0419B
:103AA000C2B0054601A8FEF719F99DF804709FB948
:103AB0002D4C20462D4919F0D3FC07F09FFB0746FB
:103AC000C20A8DF8042020462949D2B219F0C8FC58
:103AD00001A8FEF70BF900E0FF02234825493A460A
:103AE00019F0BEFCB84602A83946FE22FFF766FF71
:103AF000002302AEEC5C9C550133202BFAD11A480E
:103B00001D493A4619F0ACFC4046002107F084FB01
:103B100018B11548194919F0A3FC134C204618494F
:103B200019F09EFC02A84146FE22FFF75FFF2368C2
:103B30005B682046134914229847204639461022D4
:103B4000002319F09BFC204619F074FC23685B6885
:103B500020460D4912229847284641462022FFF769
:103B60002DFF42B0BDE8F0818CB4FF1F204302005E
:103B70005C43020080430200DC420200F04202008B
:103B8000F8420200A0430200B843020030B583B0FF
:103B9000044601A8FEF7A2F89DF80450ED02203576
:103BA000204629462022FFF709FF2378FF2B11D159
:103BB0006378FF2B0ED1A378FF2B0BD10C4C204642
:103BC0000C492A4619F04CFC20460B4919F048FCD8
:103BD00000200AE0064C204606492A4619F040FC1F
:103BE0002046064919F03CFC012003B030BD00BF5F
:103BF0008CB4FF1FCC430200EC43020008440200D7
:103C0000F0B5C3B0064601A8FEF768F89DF8047049
:103C1000FF0202A83946FE22FFF7D0FE002302ACC5
:103C20001C44F55C84F820500133202BF7D11A484E
:103C30001A493A4619F014FC3846002107F0ECFA0C
:103C400018B11548164919F00BFC134C20461549BC
:103C500019F006FC02A83946FE22FFF7C7FE2368CA
:103C60005B682046104912229847204639461022A8
:103C7000002319F003FC204619F0DCFB23685B6885
:103C800020460A4910229847304639462022FFF73D
:103C900095FE43B0F0BD00BF8CB4FF1FDC420200B4
:103CA000F0420200F84202002044020034440200C4
:103CB00030B583B0044601A8FEF710F89DF8045013
:103CC000ED024035204629462022FFF777FE237873
:103CD000FF2B11D16378FF2B0ED1A378FF2B0BD1D3
:103CE0000C4C20460C492A4619F0BAFB20460B49D9
:103CF00019F0B6FB00200AE0064C204606492A4689
:103D000019F0AEFB2046064919F0AAFB012003B0CA
:103D100030BD00BF8CB4FF1F48440200784402004D
:103D2000A0440200F0B5C3B0064601A8FDF7D6FFD7
:103D30009DF80470FF0202A83946FE22FFF73EFEFE
:103D4000002302AC1C44F55C84F840500133202B66
:103D5000F7D11A481A493A4619F082FB3846002131
:103D600007F05AFA18B11548164919F079FB134CA7
:103D70002046154919F074FB02A83946FE22FFF7C8
:103D800035FE23685B68204610492022984720466C
:103D900039461022002319F071FB204619F04AFB26
:103DA00023685B6820460A491E22984730463946F8
:103DB0002022FFF703FE43B0F0BD00BF8CB4FF1F0D
:103DC000DC420200F0420200F8420200C444020059
:103DD000E844020030B583B0044601A8FDF77EFF39
:103DE0009DF80450ED026035204629462022FFF759
:103DF000E5FD2378FF2B11D16378FF2B0ED1A3783B
:103E0000FF2B0BD10C4C20460C492A4619F028FBFD
:103E100020460B4919F024FB00200AE0064C2046FE
:103E200006492A4619F01CFB2046064919F018FBE2
:103E3000012003B030BD00BF8CB4FF1F0845020055
:103E40002845020044450200F0B5C3B0064601A86B
:103E5000FDF744FF9DF80470FF0202A83946FE22D8
:103E6000FFF7ACFD002302AC1C44F55C84F8605005
:103E70000133202BF7D11A481A493A4619F0F0FAC3
:103E80003846002107F0C8F918B11548164919F04D
:103E9000E7FA134C2046154919F0E2FA02A8394610
:103EA000FE22FFF7A3FD23685B682046104912221B
:103EB0009847204639461022002319F0DFFA2046A1
:103EC00019F0B8FA23685B6820460A49102298471F
:103ED000304639462022FFF771FD43B0F0BD00BFE8
:103EE0008CB4FF1FDC420200F0420200F8420200E4
:103EF0005C450200704502002DE9F043ADF60C0D63
:103F000005468946904601A8FDF7E8FE9DF8047035
:103F1000FF0207F5006702A839464FF40062FFF779
:103F20004DFD08F1FF36C6EBC606002302AA02EBE0
:103F3000C606EC5CF4540133382BFAD1CC48CD4999
:103F40003A4619F08DFA3846002107F065F918B1A4
:103F5000C748C94919F084FAC548C84919F080FA18
:103F600008F1FF38B8F1170F00F2D181DFE818F03F
:103F700018002A003C004E00600072008400960089
:103F8000A800BA00CC00DE00F000020114012601F6
:103F900038014A015C016E0188019A01AC01BE0141
:103FA00002A839464FF40062FFF720FDB9F1380F3F
:103FB000A8BF4FF038098DF807900DF10700FDF705
:103FC000EDFFA4E102A839464FF40062FFF70EFDB1
:103FD000B9F1380FA8BF4FF038098DF807900DF1EF
:103FE0000700FDF7E1FF92E102A839464FF40062B5
:103FF000FFF7FCFCB9F1380FA8BF4FF038098DF876
:1040000007900DF10700FDF7D5FF80E102A83946C2
:104010004FF40062FFF7EAFCB9F1380FA8BF4FF088
:1040200038098DF807900DF10700FDF7C9FF6EE123
:1040300002A839464FF40062FFF7D8FCB9F1380FF7
:10404000A8BF4FF038098DF807900DF10700FDF774
:10405000BDFF5CE102A839464FF40062FFF7C6FCE1
:10406000B9F1380FA8BF4FF038098DF807900DF15E
:104070000700FDF7B1FF4AE102A839464FF400629C
:10408000FFF7B4FCB9F1380FA8BF4FF038098DF82D
:1040900007900DF10700FDF7A5FF38E102A83946AA
:1040A0004FF40062FFF7A2FCB9F1380FA8BF4FF040
:1040B00038098DF807900DF10700FDF799FF26E10B
:1040C00002A839464FF40062FFF790FCB9F1380FAF
:1040D000A8BF4FF038098DF807900DF10700FDF7E4
:1040E0008DFF14E102A839464FF40062FFF77EFC11
:1040F000B9F1380FA8BF4FF038098DF807900DF1CE
:104100000700FDF781FF02E102A839464FF4006283
:10411000FFF76CFCB9F1380FA8BF4FF038098DF8E4
:1041200007900DF10700FDF775FFF0E002A8394692
:104130004FF40062FFF75AFCB9F1380FA8BF4FF0F7
:1041400038098DF807900DF10700FDF769FFDEE0F3
:1041500002A839464FF40062FFF748FCB9F1380F66
:10416000A8BF4FF038098DF807900DF10700FDF753
:104170005DFFCCE002A839464FF40062FFF736FC41
:10418000B9F1380FA8BF4FF038098DF807900DF13D
:104190000700FDF751FFBAE002A839464FF400626C
:1041A000FFF724FCB9F1380FA8BF4FF038098DF89C
:1041B00007900DF10700FDF745FFA8E002A839467A
:1041C0004FF40062FFF712FCB9F1380FA8BF4FF0AF
:1041D00038098DF807900DF10700FDF739FF96E0DB
:1041E00002A839464FF40062FFF700FCB9F1380F1E
:1041F000A8BF4FF038098DF807900DF10700FDF7C3
:104200002DFF84E002A839464FF40062FFF7EEFB71
:10421000B9F1380FA8BF4FF038098DF807900DF1AC
:104220000700FDF721FF72E002A839464FF4006253
:10423000FFF7DCFBB9F1380FA8BF4FF038098DF854
:1042400007900DF10700FDF715FF60E002A8394661
:104250004FF40062FFF7CAFBB9F1380FA8BF4FF067
:1042600038098DF807900DF10700FDF709FF4EE0C2
:104270008CB4FF1FDC420200F0420200F842020050
:1042800002A839464FF40062FFF7B0FBB9F1380FCE
:10429000A8BF4FF038098DF807900DF10700FDF722
:1042A000F5FE34E002A839464FF40062FFF79EFBAA
:1042B000B9F1380FA8BF4FF038098DF807900DF10C
:1042C0000700FDF7E9FE22E002A839464FF400623C
:1042D000FFF78CFBB9F1380FA8BF4FF038098DF804
:1042E00007900DF10700FDF7DDFE10E002A839464A
:1042F0004FF40062FFF77AFBB9F1380FA8BF4FF017
:1043000038098DF807900DF10700FDF7D1FE0DF685
:104310000C0DBDE8F08300BF2DE9F043ADF60C0DA8
:1043200005468946904601A8FDF7D8FC9DF8047023
:10433000FF0207F5805702A839464FF40062FFF7E5
:104340003DFB08F1FF36C6EBC606002302AA02EBCE
:10435000C606EC5CF4540133382BFAD1CC48CD4975
:104360003A4619F07DF83846002106F055FF18B19D
:10437000C748C94919F074F8C548C84919F070F818
:1043800008F1FF38B8F1170F00F2D181DFE818F01B
:1043900018002A003C004E00600072008400960065
:1043A000A800BA00CC00DE00F000020114012601D2
:1043B00038014A015C016E0188019A01AC01BE011D
:1043C00002A839464FF40062FFF710FBB9F1380F2D
:1043D000A8BF4FF038098DF807900DF10700FDF7E1
:1043E0004DFDA4E102A839464FF40062FFF7FEFA42
:1043F000B9F1380FA8BF4FF038098DF807900DF1CB
:104400000700FDF741FD92E102A839464FF4006232
:10441000FFF7ECFAB9F1380FA8BF4FF038098DF863
:1044200007900DF10700FDF735FD80E102A8394640
:104430004FF40062FFF7DAFAB9F1380FA8BF4FF076
:1044400038098DF807900DF10700FDF729FD6EE1A1
:1044500002A839464FF40062FFF7C8FAB9F1380FE5
:10446000A8BF4FF038098DF807900DF10700FDF750
:104470001DFD5CE102A839464FF40062FFF7B6FA71
:10448000B9F1380FA8BF4FF038098DF807900DF13A
:104490000700FDF711FD4AE102A839464FF400621A
:1044A000FFF7A4FAB9F1380FA8BF4FF038098DF81B
:1044B00007900DF10700FDF705FD38E102A8394628
:1044C0004FF40062FFF792FAB9F1380FA8BF4FF02E
:1044D00038098DF807900DF10700FDF7F9FC26E18A
:1044E00002A839464FF40062FFF780FAB9F1380F9D
:1044F000A8BF4FF038098DF807900DF10700FDF7C0
:10450000EDFC14E102A839464FF40062FFF76EFAA1
:10451000B9F1380FA8BF4FF038098DF807900DF1A9
:104520000700FDF7E1FC02E102A839464FF4006202
:10453000FFF75CFAB9F1380FA8BF4FF038098DF8D2
:1045400007900DF10700FDF7D5FCF0E002A8394611
:104550004FF40062FFF74AFAB9F1380FA8BF4FF0E5
:1045600038098DF807900DF10700FDF7C9FCDEE072
:1045700002A839464FF40062FFF738FAB9F1380F54
:10458000A8BF4FF038098DF807900DF10700FDF72F
:10459000BDFCCCE002A839464FF40062FFF726FAD2
:1045A000B9F1380FA8BF4FF038098DF807900DF119
:1045B0000700FDF7B1FCBAE002A839464FF40062EB
:1045C000FFF714FAB9F1380FA8BF4FF038098DF88A
:1045D00007900DF10700FDF7A5FCA8E002A83946F9
:1045E0004FF40062FFF702FAB9F1380FA8BF4FF09D
:1045F00038098DF807900DF10700FDF799FC96E05A
:1046000002A839464FF40062FFF7F0F9B9F1380F0C
:10461000A8BF4FF038098DF807900DF10700FDF79E
:104620008DFC84E002A839464FF40062FFF7DEF902
:10463000B9F1380FA8BF4FF038098DF807900DF188
:104640000700FDF781FC72E002A839464FF40062D2
:10465000FFF7CCF9B9F1380FA8BF4FF038098DF842
:1046600007900DF10700FDF775FC60E002A83946E0
:104670004FF40062FFF7BAF9B9F1380FA8BF4FF055
:1046800038098DF807900DF10700FDF769FC4EE041
:104690008CB4FF1FDC420200F0420200F84202002C
:1046A00002A839464FF40062FFF7A0F9B9F1380FBC
:1046B000A8BF4FF038098DF807900DF10700FDF7FE
:1046C00055FC34E002A839464FF40062FFF78EF93A
:1046D000B9F1380FA8BF4FF038098DF807900DF1E8
:1046E0000700FDF749FC22E002A839464FF40062BA
:1046F000FFF77CF9B9F1380FA8BF4FF038098DF8F2
:1047000007900DF10700FDF73DFC10E002A83946C7
:104710004FF40062FFF76AF9B9F1380FA8BF4FF004
:1047200038098DF807900DF10700FDF731FC0DF603
:104730000C0DBDE8F08300BF30B583B004460D46D4
:1047400001A8FDF7CBFA9DF80430DB0203EB05115D
:10475000204601F5BF5110311022FFF72FF903B0A9
:1047600030BD00BFF0B5ADF60C0D05460E4601A8F4
:10477000FDF7B4FA9DF80470FF0207F5C05702A8D0
:1047800039464FF40062FFF719F900230DF60802CD
:1047900002EB0616A6F50166EC5CF4540133102B0F
:1047A000FAD12B788BB10D480D493A4618F058FED6
:1047B0003846002106F030FD18B10848094918F0C4
:1047C0004FFE0648084918F04BFE02A839464FF440
:1047D0000062FFF70BF90DF60C0DF0BD8CB4FF1F56
:1047E000DC420200F0420200F84202002DE9F043F0
:1047F000ADF60C0D05468946904601A8FDF76EFA08
:104800009DF80470FF0207F5005702A839464FF4DF
:104810000062FFF7D3F800230DF6080202EB8816BA
:10482000A6F50466EC5CF4540133402BFAD1CD4874
:10483000CD493A4618F014FE3846002106F0ECFC4B
:1048400018B1C848C94918F00BFEC648C84918F045
:1048500007FE08F1FF38B8F1170F00F2D281DFE848
:1048600018F018002A003C004E006000720084001E
:104870009600A800BA00CC00DE00F000020114018E
:10488000260138014A015C016E0189019B01AD01DD
:10489000BF0102A839464FF40062FFF7A7F8B9F14B
:1048A000400FA8BF4FF040098DF807900DF10700A9
:1048B000FDF704FCA5E102A839464FF40062FFF7BA
:1048C00095F8B9F1400FA8BF4FF040098DF8079057
:1048D0000DF10700FDF7FAFB93E102A839464FF40A
:1048E0000062FFF783F8B9F1400FA8BF4FF040090D
:1048F0008DF807900DF10700FDF7F0FB81E102A8AC
:1049000039464FF40062FFF771F8B9F1400FA8BFC4
:104910004FF040098DF807900DF10700FDF7E6FB19
:104920006FE102A839464FF40062FFF75FF8B9F172
:10493000400FA8BF4FF040098DF807900DF1070018
:10494000FDF7DCFB5DE102A839464FF40062FFF79A
:104950004DF8B9F1400FA8BF4FF040098DF807900E
:104960000DF10700FDF7D2FB4BE102A839464FF4E9
:104970000062FFF73BF8B9F1400FA8BF4FF04009C4
:104980008DF807900DF10700FDF7C8FB39E102A88B
:1049900039464FF40062FFF729F8B9F1400FA8BF7C
:1049A0004FF040098DF807900DF10700FDF7BEFBB1
:1049B00027E102A839464FF40062FFF717F8B9F172
:1049C000400FA8BF4FF040098DF807900DF1070088
:1049D000FDF7B4FB15E102A839464FF40062FFF77A
:1049E00005F8B9F1400FA8BF4FF040098DF80790C6
:1049F0000DF10700FDF7AAFB03E102A839464FF4C9
:104A00000062FEF7F3FFB9F1400FA8BF4FF0400975
:104A10008DF807900DF10700FDF7A0FBF1E002A86B
:104A200039464FF40062FEF7E1FFB9F1400FA8BF2D
:104A30004FF040098DF807900DF10700FDF796FB48
:104A4000DFE002A839464FF40062FEF7CFFFB9F16C
:104A5000400FA8BF4FF040098DF807900DF10700F7
:104A6000FDF78CFBCDE002A839464FF40062FEF75B
:104A7000BDFFB9F1400FA8BF4FF040098DF8079076
:104A80000DF10700FDF782FBBBE002A839464FF4A9
:104A90000062FEF7ABFFB9F1400FA8BF4FF040092D
:104AA0008DF807900DF10700FDF778FBA9E002A84B
:104AB00039464FF40062FEF799FFB9F1400FA8BFE5
:104AC0004FF040098DF807900DF10700FDF76EFBE0
:104AD00097E002A839464FF40062FEF787FFB9F16C
:104AE000400FA8BF4FF040098DF807900DF1070067
:104AF000FDF764FB85E002A839464FF40062FEF73B
:104B000075FFB9F1400FA8BF4FF040098DF807902D
:104B10000DF10700FDF75AFB73E002A839464FF488
:104B20000062FEF763FFB9F1400FA8BF4FF04009E4
:104B30008DF807900DF10700FDF750FB61E002A82A
:104B400039464FF40062FEF751FFB9F1400FA8BF9C
:104B50004FF040098DF807900DF10700FDF746FB77
:104B60004FE000BF8CB4FF1FDC420200F0420200A5
:104B7000F842020002A839464FF40062FEF736FF01
:104B8000B9F1400FA8BF4FF040098DF807900DF123
:104B90000700FDF733FB34E002A839464FF400620A
:104BA000FEF724FFB9F1400FA8BF4FF040098DF880
:104BB00007900DF10700FDF729FB22E002A8394616
:104BC0004FF40062FEF712FFB9F1400FA8BF4FF09B
:104BD00040098DF807900DF10700FDF71FFB10E06D
:104BE00002A839464FF40062FEF700FFB9F1400F0A
:104BF000A8BF4FF040098DF807900DF10700FDF7B1
:104C000015FB0DF60C0DBDE8F08300BF2DE9F04358
:104C100083B0304B1B78002B59D12F4C23685B6835
:104C200020462E490C229847204618F003FC68467F
:104C3000FDF754F89DF800904FEAC929284D284601
:104C400009F520512022FEF7B9FE23685B68204653
:104C50002449122298476C1E05F120081E4D10278A
:104C60000026284614F8011F3A46334618F006FC81
:104C7000284618F0DFFB4445F3D101A8FDF71EF8E4
:104C80009DF804609DF8053043EA0626124C23681F
:104C90005B6820461449172298472046314618F091
:104CA00029FC204618F0C6FB104D284609F5205176
:104CB00020313246FEF782FE23685B6820460C49AD
:104CC0001122984728464FF44071FEF7E5FC03B0E7
:104CD000BDE8F08355A2FF1F8CB4FF1F844502007E
:104CE000289EFF1F94450200A845020098A2FF1FBE
:104CF000C045020008B5034B1B7813B9024809F000
:104D00008FFB08BD55A2FF1FB49CFF1F08B50448C8
:104D10000449FCF741FB0122034B1A7008BD00BF98
:104D20002098FF1FC0A9FF1FB09CFF1F08B50248B5
:104D3000FCF7F4FA08BD00BF409DFF1F08B502480C
:104D4000FCF7ECFA08BD00BFEC9DFF1F08B5C0439F
:104D5000C2B2542A0AD8A2EB8200013802EB420206
:104D6000C0B20021D2B209F021FB08BDA92A0CD89B
:104D7000553AD2B202EB4201A2EB8202013A002084
:104D8000C9B2D2B209F012FB08BD5632D2B202EB60
:104D90004200A2EB8202511EC0B2C9B2002209F049
:104DA00005FB08BD2DE9F84F83464FEA012A51B3B0
:104DB0004FF00008C146154D23E0284609F0FCFAE3
:104DC000A4B2240294FBF0F04044C0B2FFF7BEFF4F
:104DD00002462846314609F0ADFA3C46A6B22846BE
:104DE00009F0EAFA671C8642E7D3284609F0E4F99D
:104DF000584617F019F808F101081FFA88F8D0454D
:104E000001DA4C46EAE7BDE8F88F00BF98A5FF1F1E
:104E100010B5044C204609F079F9204609F0CCF988
:104E200010BD00BF98A5FF1F10B5044648B9014644
:104E3000024609F0BBFA02460A48002109F07AFA54
:104E400008E0FFF783FF02460648002109F072FAE6
:104E5000054B1C70034809F0AFF9012016F0E4FF80
:104E600010BD00BF98A5FF1F6C9DFF1F2DE9F041ED
:104E7000061E14DD0024DFF82C806425274698F8F0
:104E80000000FFF7D1FF284616F0CEFF3846FFF7A7
:104E9000CBFF284616F0C8FF0134B442EFD1BDE87D
:104EA000F08100BF6C9DFF1F70B5A4B08E4C2368CD
:104EB0005B6820468D4919229847204618F0BAFAB7
:104EC0008B4B1B68032B00F20C81DFE803F002160A
:104ED00055668848FCF7D0FA834C23685B68204607
:104EE000854909229847204618F0A4FA8348FEF71E
:104EF000B7FB01227E4B1A60F3E002227C4B1A6062
:104F00007C481BF047FD0738032820D8764C2368DF
:104F10005B6820467A490B229847204618F08AFAA7
:104F20007848FEF79DFB0024774E724D635DA355D4
:104F3000013428461BF02EFDA042F7D26D4C2046CE
:104F40007149FCF789FA2046FCF796FAC9E0664CED
:104F500023686E4D5B68204629462A2298472046E2
:104F600018F068FA2846FEF77BFB6248FCF784FAE3
:104F700000225F4B1A60B4E05B4C23685B682046FC
:104F800063490B229847204618F054FA6148FEF70F
:104F900067FB0322564B1A60A3E00022544B1A60B1
:104FA00054481BF0F7FC0738032800F2838051486F
:104FB000FCF766FA00286BD04B4C23685B682046F0
:104FC00055490F229847204618F034FA0024494DDD
:104FD000635D0DF80430013428461BF0DBFCA04271
:104FE000F6D208A8FCF788F842481BF0D3FC02462A
:104FF00008A86946FCF7AAF8484B1B788BB96846A5
:105000002021FEF76FFB384C23685B68204644493B
:1050100010229847204618F00DFA6846FEF73EFD2C
:105020000DE0314C23685B6820463E490D229847CD
:10503000204618F0FFF968462021FEF707FD08A872
:1050400069462022FCF782F808A86946FCF7A2F816
:10505000254C23685B682046334920229847204628
:1050600018F0E8F96846FEF7CBFD01222B4B1A70C9
:10507000204618F0DFF923685B6820462B4931226F
:105080009847204618F0D6F92948FEF7E9FA22E0B9
:10509000154C2368274D5B68204629461622984701
:1050A000204618F0C7F92846FEF7DAFA0022104B1E
:1050B0001A6010E00C4C2368144D5B6820462946AA
:1050C0002A229847204618F0B5F92846FEF7C8FA74
:1050D0000022074B1A600748FCF7CEF90320FFF7C0
:1050E000C5FE24B070BD00BF8CB4FF1FD4450200C4
:1050F000B0A5FF1F9C9CFF1FF0450200FC4502006D
:10510000204602002C460200B4A5FF1F44460200C0
:10511000704602007C460200AC460200149EFF1F4F
:10512000BC460200D0460200E046020004470200EE
:10513000384702005047020070B5A4B07A4C23688B
:105140005B68204679491B229847204618F072F97F
:10515000774B1B68062B00F2E580DFE813F00700B1
:10516000E300E300E3001B005A006B007148FCF70A
:1051700083F96D4C23685B6820466F490922984784
:10518000204618F057F96D48FEF76AFA0422684B7A
:105190001A60C7E00522664B1A6066481BF0FAFBEE
:1051A0000738032820D8604C23685B682046644990
:1051B0000B229847204618F03DF96248FEF750FA56
:1051C0000024614E5B4D635DA355013428461BF0FE
:1051D000E1FBA042F7D2574C20465B49FCF73CF973
:1051E0002046FCF749F99DE04F4C2368574D5B681A
:1051F000204629462A229847204618F01BF92846BF
:10520000FEF72EFA4B48FCF737F90022484B1A609C
:1052100088E0454C23685B6820464D490B2298473F
:10522000204618F007F94B48FEF71AFA0622404BC1
:105230001A6077E000223E4B1A603E481BF0AAFB42
:10524000073803285AD83B48FCF71AF9002846D0FB
:10525000354C23685B6820463F490F22984720461B
:1052600018F0E8F80024334D635D0DF80430013484
:1052700028461BF08FFBA042F6D208A8FBF73CFFA4
:105280002C481BF087FB024608A86946FBF75EFF27
:10529000254C23685B68204630490D2298472046FC
:1052A00018F0C8F868462021FEF7D0FB08A8694628
:1052B0002022FBF74BFF08A86946FBF76BFF23682A
:1052C0005B682046264922229847204618F0B2F80B
:1052D0006846FEF727FD2348FEF7C2F91CE0124C92
:1052E0002368214D5B6820462946162298472046B0
:1052F00018F0A0F82846FEF7B3F90DE00A4C236831
:10530000124D5B68204629462A229847204618F00D
:1053100091F82846FEF7A4F90648FCF7ADF80320FB
:10532000FFF7A4FD24B070BD8CB4FF1F68470200D6
:10533000B0A5FF1F9C9CFF1FF045020084470200A0
:10534000204602002C460200349DFF1F4446020006
:10535000704602007C460200AC460200D0460200C5
:10536000B4470200384702005047020070B5A4B0AD
:10537000924C23685B68204691491B22984720463F
:1053800018F058F88F4B1B68092B00F21481DFE8E6
:1053900013F00A001201120112011201120112018E
:1053A0001E005D006E008848FCF766F8834C236899
:1053B0005B682046854909229847204618F03AF84C
:1053C0008348FEF74DF907227E4B1A60F3E008226E
:1053D0007C4B1A607C481BF0DDFA0738032820D884
:1053E000764C23685B6820467A490B229847204612
:1053F00018F020F87848FEF733F90024774E724D04
:10540000635DA355013428461BF0C4FAA042F7D2CD
:105410006D4C20467149FCF71FF82046FCF72CF82C
:10542000C9E0664C23686E4D5B68204629462A22F7
:105430009847204617F0FEFF2846FEF711F962480C
:10544000FCF71AF800225F4B1A60B4E05B4C23684B
:105450005B68204663490B229847204617F0EAFF15
:105460006148FEF7FDF80922564B1A60A3E00022BE
:10547000544B1A6054481BF08DFA0738032800F289
:1054800083805148FBF7FCFF00286BD04B4C23680E
:105490005B68204655490F229847204617F0CAFFFF
:1054A0000024494D635D0DF80430013428461BF09B
:1054B00071FAA042F6D208A8FBF71EFE42481BF084
:1054C00069FA024608A86946FBF740FE484B1B787C
:1054D0008BB968462021FEF705F9384C23685B68D4
:1054E0002046444910229847204617F0A3FF6846FB
:1054F000FEF7D4FA0DE0314C23685B6820463E4944
:105500000D229847204617F095FF68462021FEF7A8
:105510009DFA08A869462022FBF718FE08A86946EC
:10552000FBF738FE254C23685B6820463349202270
:105530009847204617F07EFF6846FEF785FC01225B
:105540002B4B1A70204617F075FF23685B682046C6
:105550002B4931229847204617F06CFF2948FEF767
:105560007FF822E0154C2368274D5B6820462946CA
:1055700016229847204617F05DFF2846FEF770F880
:105580000022104B1A6010E00C4C2368144D5B682D
:10559000204629462A229847204617F04BFF2846E6
:1055A000FEF75EF80022074B1A600748FBF764FF1E
:1055B0000320FFF75BFC24B070BD00BF8CB4FF1F5D
:1055C000D8470200B0A5FF1F9C9CFF1FF0450200BA
:1055D000FC450200204602002C460200989DFF1F59
:1055E00044460200704602007C460200AC460200BF
:1055F000149EFF1FBC460200D0460200E046020097
:1056000004470200384702005047020030B58BB013
:10561000304B1B78002B5AD12F4C204617F00AFF35
:1056200023685B6820462D491F229847204617F0C3
:1056300001FF1924284D0DF102002146FFF77CF8E7
:105640008DF800407C238DF80130684605A91322AF
:10565000FDF7FAFF05A81BF09DF902462B685B6871
:10566000284605A99847284617F0E4FE05A8FDF747
:10567000F7FF142016F0D8FB01341D2CDBD1164D9A
:105680000DF102002146FFF757F88DF800407C230A
:105690008DF80130684605A91322FDF7D5FF05A84E
:1056A0001BF078F902462B685B68284605A99847E5
:1056B000284617F0BFFE05A8FDF7D2FF142016F00C
:1056C000B3FB01343D2CDBD10320FFF7CFFB0BB044
:1056D00030BD00BF55A2FF1F8CB4FF1FF44702006E
:1056E000F0B58BB0214C204617F0A4FE23685B6810
:1056F00020461F4920229847204617F09BFE1D4B4D
:105700001B78002B14BF0C27002701247C26174D83
:105710000DF10200E119FFF70FF8092CD2BF8DF847
:105720000040A31D8DF800308DF80160684605A982
:105730001322FDF789FF05A81BF02CF902462B6800
:105740005B68284605A99847284617F073FE05A808
:10575000FDF786FF142016F067FB01340D2CD7D11E
:105760000320FFF783FB0BB0F0BD00BF8CB4FF1F1D
:105770001448020055A2FF1F2DE9F8430646477959
:105780003D4690F8068090F80490984C23685B683A
:10579000204697491C2298472046A9F180011022F3
:1057A000002317F06BFE204617F044FE23685B6869
:1057B000204690490D2298472046394617F09AFE18
:1057C000204617F037FE23685B6820468A49072287
:1057D00098472046414617F08DFE204617F02AFED6
:1057E0004FF04009304600214A461AF0EDFD3046A0
:1057F0004946FDF751FF23685B6820467F49182220
:105800009847B8F10A0F1CD1204617F013FE236801
:105810005B6820467A4934229847F41D2046FCF7FD
:1058200015FD06F11700FCF72DFD06F11D00FCF734
:1058300037FD2046FCF718FD7248FDF711FFBDE863
:10584000F8837B1E0B2B00F2CE806F4B1B780BB1C5
:1058500007F10C05654C204617F0ECFD23685B68EA
:1058600020466A4915229847073630462946FEF7F2
:1058700079FF6748FDF7F4FE204617F0DBFD23684B
:105880005B682046634913229847304600212A4628
:10589000FEF732FB6048FDF7E3FE204617F0CAFD35
:1058A00023685B6820465D49252298473046294693
:1058B000FCF76CFE5A48FDF7D3FE204617F0BAFD00
:1058C00023685B68204657491B2298473046294683
:1058D000FDF718F85448FDF7C3FE204617F0AAFD5F
:1058E00023685B68204651491822984730460021BA
:1058F0002A46FEF711FD4E48FDF7B2FE204617F08E
:1059000099FD23685B6820464A492522984730461E
:105910002946FCF7C7FE4848FDF7A2FE204617F0CF
:1059200089FD23685B68204644491B22984730461E
:105930002946FDF773F84248FDF792FE204617F01E
:1059400079FD23685B6820463E4918229847304617
:1059500000212A46FCF7AAFC3B48FDF781FE2046C1
:1059600017F068FD23685B68204638492522984770
:1059700030462946FCF722FF3548FDF771FE2046E8
:1059800017F058FD23685B68204632491622984775
:1059900030462946FDF7CEF82F48FDF761FE204638
:1059A00017F048FD23685B6820462C491822984769
:1059B00030462946FDF762F92948FDF751FE204699
:1059C00017F038FD23685B68204626491D2298475A
:1059D000304600212A46FEF709FF2348FDF740FE26
:1059E0000320FFF743FABDE8F88300BF8CB4FF1F24
:1059F0003848020058480200684802007048020017
:105A00008C480200C448020055A2FF1FFC48020057
:105A10001449020030490200444902005C49020076
:105A200084490200B0490200CC490200E849020062
:105A3000044A0200204A0200484A0200744A020056
:105A4000904A0200AC4A0200C84A0200E44A02003E
:105A50000C4B0200384B0200504B02006C4B020012
:105A6000884B0200A44B0200C44B0200F0B583B087
:105A70000DF10700FCF7D2F89DF80730012B04D890
:105A8000FDF7D8FEFDF762FE17E005F01BFC0024D1
:105A9000134D144F144E28463946224617F0E0FCA9
:105AA0002846314654F8042B17F0DAFC284617F044
:105AB000C1FC46F660539C42EDD100220B4B1A709C
:105AC00001220B4B1A700B4C05482146FAF7D8FD02
:105AD0002046FDF7C5FD03242046FFF7C7F9FBE785
