:1000000000800020BD0100007500020039000200E0
:1000100039000200390002003900020039000200F4
:1000200039000200390002003900020075000200A8
:10003000750002003900020075000200290002006C
:1000400075000200750002007500020075000200D4
:1000500075000200750002007500020075000200C4
:1000600075000200750002007500020075000200B4
:1000700075000200750002007500020075000200A4
:100080007500020075000200750002007500020094
:100090007500020075000200750002007500020084
:1000A0007500020075000200750002007500020074
:1000B0007500020075000200750002007500020064
:1000C0007500020075000200750002007500020054
:1000D0007500020075000200750002007500020044
:1000E0007500020075000200750002007500020034
:1000F00075000200152102007500020011270200A0
:1001000075000200312C020075000200750002002B
:100110007500020075000200750002007500020003
:1001200075000200750002007500020075000200F3
:1001300075000200750002007500020075000200E3
:1001400075000200750002007500020075000200D3
:1001500075000200750002007500020075000200C3
:1001600075000200F1060200750002007500020031
:1001700075000200750002007500020075000200A3
:100180007500020075000200750002007500020093
:100190007500020075000200750002007500020083
:1001A0007500020075000200750002007500020073
:1001B000750002007500020075000200574B4CF2FA
:1001C000205210B51A804DF628121A8000BF00BFC9
:1001D0001FF054FF524B4FF010621A60514A9A6060
:1001E000514ADA60A3F53043203B1A6812F480725A
:1001F00004D14E490A604FF4A8521A604C4B1A7849
:10020000110703D51A7842F008021A70494B4A4C7C
:100210004A482A221A704A4A00239918A14203D256
:10022000195899500433F8E7464B474900228B424E
:1002300002D243F8042BFAE74448454900235A58B0
:100240001A500433B3F5DE7FF9D1424B424A802184
:1002500003F8011B9342FBD1404B3C4A1A60404BD0
:100260000A221A70A3F5805324225A70A0221A7011
:100270009A799207FCD59A79D406FCD4394A9379B5
:1002800003F00C03082B374BF9D105221A714322D6
:100290005A719A799006FCD5324A9179314B4906C8
:1002A000FBD5314A4FF08171116005215160202248
:1002B0001A709A7902F00C020C2AFAD12B4B2C4AB4
:1002C0001A602C4B2C4A1A6000225A60072243F80D
:1002D000042C2A4AC3F80C2D62B620F089F8134B7F
:1002E0001B68DA0705D526481FF0FAFE254B264A7B
:1002F0001A60264B1B785B0609D5224C224A2368DC
:10030000934204D11E481FF0EBFE0023236023F02C
:10031000FDFF1FF0B9FE21F03BFBFEE70E2005407C
:1003200030800440823F04000100002B14D00340C1
:1003300002D0074000E00740A496FF1F28C5020036
:10034000708CFF1FA496FF1F74B7FF1F0082FF1F52
:100350000000000000E400E05FE400E008ED00E0E1
:1003600000500640004006404480044004800440A1
:10037000C010050014E000E03F190100000020203B
:10038000530BDE591CE00340A5C3945A00F007400C
:10039000FFFFFFFFFFFFFFFFFFFFFFFFFFFFFFFF6D
:1003A000FFFFFFFFFFFFFFFFFFFFFFFFFFFFFFFF5D
:1003B000FFFFFFFFFFFFFFFFFFFFFFFFFFFFFFFF4D
:1003C000FFFFFFFFFFFFFFFFFFFFFFFFFFFFFFFF3D
:1003D000FFFFFFFFFFFFFFFFFFFFFFFFFFFFFFFF2D
:1003E000FFFFFFFFFFFFFFFFFFFFFFFFFFFFFFFF1D
:1003F000FFFFFFFFFFFFFFFFFFFFFFFFFFFFFFFF0D
:10040000FFFFFFFFFFFFFFFFFFFFFFFFFEFFFFFFFD
:1004100010B5054C237833B9044B13B10448AFF33E
:1004200000800123237010BDA496FF1F0000000070
:1004300020C5020008B5064B1BB106480649AFF3BC
:1004400000800648036813B1054B03B1984708BD07
:100450000000000020C50200A896FF1FA496FF1F01
:100460000000000038B5074D284605F0FBF9064CA2
:1004700023685B68204629460B229847204621F0D6
:10048000A7FA38BDD480020058B5FF1F70B5674B7E
:100490001A78B2B1664B1B78AA2B12D1654B1B6838
:1004A0001A78002A00F0BE80092A5FD00133614922
:1004B0000B6013F8012B002A00F0B480092AF7D151
:1004C00054E05C4B1C68207890B9204624F06CFD09
:1004D0000246594801684D682146A847574C2046B6
:1004E000574901F07BFD2046564901F0ADFD70BD36
:1004F00001281BD1AAB944F22B0020F003FF524C73
:10050000237803FB03F3514A82FB0310C0001FF062
:1005100059FF20F049FF237803FB03F040001FF050
:1005200051FF444B1A6801321A6070BD02281BD17A
:10053000AAB944F2280020F0E5FE434C237803FBDF
:1005400003F3424A82FB0310C0001FF03BFF20F080
:100550002BFF237803FB03F040001FF033FF354BE4
:100560001A6801321A6070BD09282ED1384B1B78E9
:10057000002B5AD1304C23685B68204635490F2246
:100580009847204621F024FA0122334B1A60334861
:1005900013F046FA324B1E6806F57A662E4C1D465D
:1005A00001E00BF07BFB236813B12B689E42F8D867
:1005B0000022294B1A60214C2046214901F00EFDF2
:1005C0002046204901F040FD70BDA0F10A01C9B2EA
:1005D00015290DD83AB9A0F10A034FF47A7000FB3F
:1005E00003F01FF0EFFE134B1A6801321A6070BD62
:1005F0009AB920F087FE144C237803FB03F3134AC7
:1006000082FB0310C0001FF0DDFE20F0CDFE23783A
:1006100003FB03F040001FF0D5FE064B1A680132C1
:100620001A6070BD034B1C684FE770BD449EFF1FEE
:10063000C09DFF1F0498FF1F58B5FF1F3C98FF1F68
:10064000E896FF1FCC96FF1FA88CFF1F56555555E7
:100650008DA2FF1FE080020010B1FF1FE9580000CB
:100660002CB4FF1F38B505460C46084624F09CFC08
:1006700002462B685B6828462146984738BD00BF74
:1006800038B504460D46084624F08EFC0246236821
:100690005B682046294698470546204621F098F990
:1006A000284438BD38B5054621F0F2F904462846FD
:1006B00021F08EF9204438BD38B500228B4B1A70DA
:1006C00006228B4B1A7001228A4B1A7016228A4B13
:1006D0001A701722894B1A701122894B1A700F2237
:1006E000884B1A701022884B1A700E22874B1A7092
:1006F0001522874B1A7007F0FBF98648202105F078
:10070000A7FA854B1B78DE2B2CD105F021F944206C
:100710000EF0A8FC044681480268556880491422FE
:10072000A8472CB17D4803685B687E49042298473E
:100730007A4C23685B6820467B4914229847204600
:1007400021F046F90122794B1A700022784B1A7079
:1007500023685B682046774918229847204621F095
:1007600037F968E0442B56D1002854DD7248202127
:1007700005F00EFB714805F09DFB714805F02CFC5F
:10078000704D284602F0E6F9644C23685B68204609
:100790006D490C229847204621F01AF92046297805
:1007A0000A22002321F038F9204621F011F92B7894
:1007B0000BB904222A70654802F0ACF9644D284652
:1007C00002F0D8F9554C23685B6820466149112234
:1007D0009847204621F0FCF8204629780A22002379
:1007E00021F01AF9204621F0F3F817F013FE002249
:1007F0004E4B1A7001224E4B1A7023685B682046DC
:1008000055490B229847204621F0E2F853485449B5
:1008100001F01AFC0FE00122444B1A700022444BF5
:100820001A703E4C23685B6820464E491E2298474A
:10083000204621F0CDF84C4C20464C4940F2FD7248
:1008400010F078FE01F060FB204649492422002385
:1008500010F01AFE20462F492022002310F014FE2B
:100860002A4B187817F0AAFC0146204604220823D8
:1008700010F00AFE264B187817F0A0FC014620461F
:100880000422082310F000FE244C23685B682046F5
:1008900038490C229847204640F29A6121F0F8F836
:1008A000204621F095F820461B4B19781022002392
:1008B00021F0B2F8204621F08BF823685B682046CF
:1008C0002D49092298472046084B197821F0E0F875
:1008D000204621F07DF804F02DFF0420022107F0CE
:1008E000D1F81E48254901F0AFFB38BD8DA2FF1F8E
:1008F000CDA5FF1F14AAFF1F15AAFF1F16AAFF1FD1
:1009000017AAFF1F18AAFF1F19AAFF1FCEA5FF1FB6
:10091000CFA5FF1F4098FF1F0200024058B5FF1FE0
:10092000F08002000881020010810200889EFF1FF3
:100930004C9EFF1F288102008098FF1FA098FF1F78
:100940006098FF1FA88CFF1F44810200A48CFF1F2A
:1009500060B7FF1F54810200D48002003C98FF1F43
:10096000FC96FF1F688102008CB1FF1FB492020049
:100970001898FF1F8881020098810200CC96FF1F03
:100980002DE9F04F9DB0814600228A4B1A708A4BA8
:100990001B7823B1894B1B78AA2B40F09C84884C90
:1009A00023685B68204687490C229847864B196864
:1009B0002046303921F06CF8204621F009F80CA8C7
:1009C0000021402224F00AF880480021EE2224F081
:1009D00005F80CA8494605F091FBB0F1000A60DD6E
:1009E00023685B6820467A4919229847204620F000
:1009F000EFFF23685B68204676490D229847204622
:100A0000514621F045F8204620F0E2FF724B1B785A
:100A1000002B40F0148423685B6820466F4909224C
:100A20009847204620F0D4FF0DF12F0404EB0A086C
:100A3000634F10260025384614F8011F32462B4616
:100A400020F0EAFF4445F6D15D4820F0C1FF644B39
:100A500093F8221072310CA84944624A534609F0B7
:100A6000C9F8ECE3384614F8011F32462B4620F053
:100A7000D3FF4445F6D1524C204620F0A9FF4D4DFE
:100A800085F800A023685B682046574918229847DC
:100A9000204620F09DFF2B7802214C4AD15401338F
:100AA0002B700CA80021402223F098FF0CA8494687
:100AB00003F078FD9DF83030002B2CD0404C23689B
:100AC0005B68204649491D229847204620F080FF58
:100AD00023685B68204646490622984720469DF8D1
:100AE00030100A22002320F097FF23685B6820461D
:100AF000404921229847204620F06AFF9DF8303077
:100B00001E2B0BD800932B4A11780A332F484354DD
:100B10000131117004E00023009301E000230093F1
:100B20000CA8494605F0BEFEB0F1000A79DD244C60
:100B300023685B68204630491E229847204620F0F3
:100B400047FF23685B6820462C49122298472046BD
:100B5000514620F09DFF204620F03AFF1E4B1B78A7
:100B6000002B40F0868323685B6820461B490922DE
:100B70009847204620F02CFF0DF12F0404EB0A08C3
:100B80000F4F10260025384614F8011F32462B4619
:100B900020F042FF4445F6D1094820F019FF104BE0
:100BA00093F8221075310CA849440E4A534609F0B7
:100BB00021F85EE3E496FF1F449EFF1FC09DFF1FC8
:100BC00058B5FF1FA4810200C496FF1F1497FF1F92
:100BD000B4810200D08102008DA2FF1FE0810200DB
:100BE0001898FF1F8098FF1FEC8102000882020006
:100BF00028820200308202005482020074820200C5
:100C0000384614F8011F32462B4620F005FF4445B4
:100C1000F6D18A4820F0DCFE894B1A78924483F89A
:100C200000A00CA80021402223F0D8FE0CA84946C1
:100C300003F0F2F89DF83030002B3AD0312B1BD165
:100C40007E4C23685B6820467E491F2298472046D9
:100C500020F0BEFE7A4D2B7801217B4AD1542368C7
:100C60005B682046794903229847204620F0B0FE71
:100C70002B7801332B701CE0322B1AD16F4C236878
:100C80005B6820466F491F229847204620F0A0FE4F
:100C90006B4D2B7802216C4AD15423685B68204647
:100CA0006B4906229847204620F092FE2B780133AC
:100CB0002B700CA80021402223F090FE0CA849467E
:100CC00003F0A2FD9DF83030002B2CD05B4C236844
:100CD0005B6820465F491D229847204620F078FE39
:100CE00023685B6820465C490622984720469DF8A9
:100CF00030100A22002320F08FFE23685B68204614
:100D0000564921229847204620F062FE9DF8303057
:100D10001E2B0BD89B464A4A11780A334A48435443
:100D20000131117004E04FF0000B01E04FF0000BB7
:100D30000CA8494602F046FDB0F1000A53DD3F4CD5
:100D400023685B68204646491F229847204620F0CA
:100D50003FFE23685B68204642491222984720469E
:100D6000514620F095FE204620F032FE3E4B1B7887
:100D7000002B40F0978223685B6820463B4909229C
:100D80009847204620F024FE0DF12F0404EB0A08BA
:100D90002A4F10260025384614F8011F32462B46EC
:100DA00020F03AFE4445F6D1244820F011FE304BA5
:100DB00093F8221070310CA849442E4A534608F08B
:100DC00019FF6FE2384614F8011F32462B4620F017
:100DD00023FE4445F6D1194820F0FAFD184B1A7845
:100DE000924483F800A00CA80021402223F0F6FDD5
:100DF0000CA8494603F042F99DF83030002B59D039
:100E0000312B3BD10D4C23685B6820461A491F22C9
:100E10009847204620F0DCFD23685B6820460B499C
:100E200003229847204620F0D3FD054B1A78012075
:100E30000549885402441A703CE000BF58B5FF1FB2
:100E4000E496FF1F888202001497FF1FA882020009
:100E5000AC820200B482020028820200D482020026
:100E6000F8820200188302008DA2FF1FE0810200B9
:100E70001898FF1F8098FF1F2C830200322B19D176
:100E80009C4C23685B6820469B491F22984720465C
:100E900020F09EFD23685B6820469849062298470B
:100EA000204620F095FD964B1A78022095498854EB
:100EB00001321A700CA80021402223F08FFD0CA8EB
:100EC000494603F0D3FD9DF83030002B2CD0894CDF
:100ED00023685B6820468C491D229847204620F0F5
:100EE00077FD23685B68204688490622984720469C
:100EF0009DF830100A22002320F08EFD23685B68E5
:100F0000204683491C229847204620F061FD9DF829
:100F100030301E2B0BD89846794A11780A3379481D
:100F200043540131117004E04FF0000801E04FF02C
:100F300000080CA80021402223F050FD0CA84946CF
:100F400003F0F6FE9DF83030002B00F05D81672B3A
:100F500040F00481674C23685B6820466D491E227F
:100F60009847204620F034FD0CA8494606F0DAF8F0
:100F7000019023685B68204667490922984720460C
:100F800020F026FD019B002B0FDD0DF12F049A466A
:100F9000A244584F10260025384614F8011F324647
:100FA0002B4620F039FD5445F6D1524C204620F016
:100FB0000FFD23685B682046584912229847204657
:100FC000019920F065FD204620F002FD544B1B786E
:100FD0004BB9544B93F8221074310CA84944524A2F
:100FE000019B08F007FE0CA84649019A444B1B7868
:100FF00004F02CFC3F4C23685B6820464B490B22D5
:101000009847204620F0E4FC019B002B0FDD0DF1FA
:101010002F049A46A244374F10260025384614F86C
:10102000011F32462B4620F0F7FC5445F6D1314CD7
:10103000204620F0CDFC02A80CA9019A01F066FB25
:1010400001F0B4FC009B18448344D8442046414638
:1010500020F01EFD204620F0BBFC02A8414601F016
:1010600059FB044601F022FD78B9254B1B78254A2F
:101070004E21D15413444F225A7054229A70532156
:10108000D970452119715A710FE01D4B1B782178D9
:101090001C4AD154617813445970A2789A70E2784E
:1010A000DA7022791A7162795A71154B1A78063200
:1010B0001A700CA80021402223F090FC0CA849468D
:1010C00003F00EF99DF83030002B47D0312B33D18F
:1010D000084C20461649FFF7D3FA20461549FFF77A
:1010E000CFFA074B1A7801200649885402441A7037
:1010F00034E000BF58B5FF1F2C8302004C83020070
:10110000E496FF1F1497FF1F5483020028820200F9
:101110007483020094830200E0810200B483020021
:101120008DA2FF1F1898FF1F8098FF1FC883020021
:10113000D4830200A8820200322B0FD1674C2046D4
:101140006749FFF79DFA20466649FFF799FA664B13
:101150001A7802206549885401321A709DF830309F
:10116000792B43D1624B1B78002B4DD15B4C23680C
:101170005B6820465F4918229847204620F028FCEB
:10118000594C23785948184406F014FC23782C3322
:1011900023700CA8494603F0A3F89DF83030002BCB
:1011A00032D0312B10D14D4C20464D49FFF768FA13
:1011B00020465149FFF764FA4B4B1A7801204B49FE
:1011C000885402441A7011E0322B0FD1434C204650
:1011D0004349FFF755FA20464249FFF751FA424B7F
:1011E0001A7802204149885401321A709DF8303033
:1011F000752B09D13E4B1B7833B93B4B1A7809202C
:101200003A49885401321A70384D374B1B78002206
:10121000EA54324C23685B682046384919229847C3
:10122000204620F0D5FB2978002954D023681B687C
:101230002046984715F8011F0029F7D14BE00CA86C
:101240002A495246284B1B7804F000FB234C2368A4
:101250005B6820462A490B229847204620F0B8FBBD
:101260000DF12F040AEB04081C4F10260025FFF790
:10127000F9BB0CA81D4952461B4B1B7804F0E6FA3B
:10128000164C23685B6820461D490B229847204670
:1012900020F09EFB0DF12F0404EB0A080F4F1026DF
:1012A0000025ADE40CA8114952460F4B1B7804F001
:1012B000CDFA0A4C23685B68204611490B229847F7
:1012C000204620F085FB0DF12F0404EB0A08034FA4
:1012D0001026002576E51DB0BDE8F08F58B5FF1F3C
:1012E000D48302004C830200E496FF1F1497FF1F73
:1012F0008DA2FF1FF4830200A88202001084020066
:10130000C883020038B5114B1B7873B9104C2368A1
:10131000104D5B68204629462D229847204620F034
:1013200057FB284604F09EFA38BD0B4B1A680B4B4E
:101330001A600B4B1B781BB10A4B1868243802E06B
:10134000084B18683038FFF71BFB38BD4C9EFF1F59
:1013500058B5FF1F2C8402002CB4FF1FF8A9FF1FF3
:101360008DA2FF1FC496FF1F38B5124B1B7873B9AF
:10137000114C2368114D5B68204629462D22984761
:10138000204620F025FB284604F06CFA38BD0C4BB3
:101390001A680C4B1A600C4B1B781BB10B4B18686E
:1013A000243802E0094B186830380630FFF7E8FAB5
:1013B00038BD00BF4C9EFF1F58B5FF1F2C84020094
:1013C0002CB4FF1FF8A9FF1F8DA2FF1FC496FF1F9B
:1013D00070B582B005469E4B1B781BB92D2006F0D8
:1013E00093FB02E0002006F08FFB9A4B1B68022B58
:1013F00010DD994803685B68984959229847984ED0
:10140000984D0124304604F02DFA2C70052006F08A
:101410009DFBF7E7944B1B78002B57D0684601F0F3
:10142000C9FB9DF80030002B00F0798201A801F083
:10143000B1FB894C20468D49FFF722F920469DF8E3
:1014400004100A22002320F0E7FA204620F0C0FA18
:101450009DF80430132B0ED9854B03F12101FF2297
:1014600003F8012F8B42FBD1824804F0CBFC002013
:1014700001F098FB05E05A1C02A800F8042D01F0C9
:1014800091FB9DF800300133DBB28DF800300A2B60
:1014900016D9714C23685B68204677491B22984710
:1014A000204620F095FA20469DF800100A220023DD
:1014B00020F0B2FA204620F08BFA07F06FF937E2FD
:1014C000684601F07FFB0022674B1A706B486C4B3B
:1014D000197800F01BFE5E4B1B784BB9674800F093
:1014E00043FE28B9654800F021FF002800F0C781BD
:1014F000574B1B78002B2FD1002001F063FB5F4876
:1015000000F012FE0022534B1A605E4C204604F09D
:10151000A9F95D485D4900F061FD4F482146FFF79C
:10152000AFF85B4B1B7833B908F0B8FB0CF068F9E7
:10153000002001F037FB574B1A68574B1A60012205
:10154000434B1A70554B1B78002B00F0F181454B33
:101550001A7006F04BFAEBE1514B1B6823B9514B63
:101560001B78002B2DD1E3E1032B0BDC3A4C2046FA
:101570004D49FFF777F8424B196820463039FFF79D
:1015800091F8D5E1062B0BDC334C20464749FFF799
:1015900069F83B4B196820463039FFF783F8C7E1FB
:1015A0003B4B1B78002B40F0C3812B4C204640491D
:1015B000FFF758F8324B196820463039FFF772F8B8
:1015C000B6E100223B4B1A703B4B1B78012B20D11C
:1015D0003A4A11782A4A1268914240F0C980384A42
:1015E0001278002A00F0C480294B1B78002B40F0B1
:1015F0009F81194C20463349FFF734F8204B196876
:1016000020463039FFF74EF82B4B1A7801321A700A
:101610008EE1022B5CD12C4B1A78194B1B689A4235
:1016200040F0A880264B1B78002B00F0A3800A4CCA
:1016300020462649FFF716F8114B19682046303925
:10164000FFF730F81C4B1A7801321A7070E100BFB6
:10165000889EFF1F1097FF1F58B5FF1F5C84020074
:10166000B8840200C09DFF1F888CFF1F18850200F0
:101670007F98FF1F8098FF1F54850200B89CFF1FB2
:10168000C496FF1F708502003C98FF1FFC96FF1F49
:101690008DA2FF1F2CB4FF1FF8A9FF1FF6A9FF1F83
:1016A000D0A5FF1F4C9EFF1F7C8502009485020081
:1016B000B08502001497FF1FE89DFF1FF4A9FF1FCC
:1016C000449EFF1FCC850200F5A9FF1FE0850200A4
:1016D000032B4DD1974B1A78974B1B689A4249D1EF
:1016E000964B1B78002B45D0954B1B78002B40F078
:1016F0001F81944C20469449FEF7B4FF8E4B196825
:1017000020463039FEF7CEFF904B1A7801321A701E
:1017100044F228001FF0F6FD8D4D2B7803FB03F3F8
:101720008C4C84FB0320C0001EF04CFE1FF03CFEDE
:101730002B7803FB03F384FB0320C0001EF042FE62
:10174000854B1B78ED2B06D184480371824B5B7867
:1017500043710BF0E5FE804B1B78F02B40F0E880E6
:101760007E4803717C4B5B7843710BF0EFFFDFE049
:10177000002B35D0724B1B78002B40F0D980734A78
:101780001370774A1370774A13706A4A13700120F6
:1017900007F0F2FD744B1B78002B40F0C9807348B2
:1017A00004F060F8724B1878FF211EF0EFFC44F251
:1017B00028001FF0A7FD664D2B7803FB03F3654C53
:1017C00084FB0320C0001EF0FDFD1FF0EDFD2B7813
:1017D00003FB03F384FB0320C0001EF0F3FDA7E02E
:1017E000312D30DD544B1B68312B14D1534B1B78FA
:1017F0004BBB534B1B78002B40F09A805D4D5E4CE9
:101800002846214600F0EAFB08F046FF284621461C
:1018100000F01AFC8CE0362B15D1484B1B7893B99D
:10182000474B1B78002B40F083800124534B1C70E6
:101830000022534B1A70534B1C70534800F074FC39
:10184000524B1C6074E0002006F05EF90A2D6ADC41
:101850004A4B1B7823B9FFF755FD01E0FFF784FDE4
:101860004B4A4C4B1A60434C2046434900F0B6FBB0
:1018700020464949364B1A7800F0C2FB58E04248EE
:1018800000F010FD30B12F484449FEF7F9FE06F094
:1018900085FF4DE03D4B1B68092B17DC294C20468A
:1018A0003F49FEF7DFFE244B196820463039FEF72A
:1018B000F9FE20463B49FEF7D5FE344D2046296807
:1018C000FEF7F0FE2B6801332B6031E001252D4B34
:1018D0001D70354B1A682A441A60344B1D70032062
:1018E00006F034F9174C20463149FEF7BBFE684636
:1018F00001F060F99DF800102046C1F10A0120F0C6
:10190000C7F820462B49FEF7BBFE20462A49FEF7C2
:10191000B7FE1D4800F008FC1C4B1D6008E00123C9
:101920008DF80030CCE5154B1B78002B98D195E74E
:1019300002B070BD8CA2FF1FC496FF1F449EFF1F04
:101940008DA2FF1F58B5FF1FF4850200E89DFF1F01
:10195000A88CFF1F56555555FC9CFF1FFC9DFF1F73
:10196000F4A9FF1FF5A9FF1F90A2FF1F0886020020
:10197000CDA5FF1F3C98FF1FCC96FF1FF6A9FF1FA8
:10198000889EFF1F888CFF1FB89CFF1F848CFF1F41
:101990001497FF1F0498FF1FE896FF1F3086020070
:1019A0007C8502004C8602001097FF1FC09DFF1F20
:1019B0007886020094860200CC86020010B56C4B3B
:1019C0001B78FBB10AF06AF96A4B1B78D3B106F0B9
:1019D00001F8694B1B78ABB1684A11684EF660227A
:1019E00002FB03F3664A12688A1A93420AD800225D
:1019F0005F4B1A700124634B1C70634800F094FB2A
:101A0000624B1C60624B1B7853B1594B1B783BB146
:101A1000604B1B7823B901225F4B1A7005F0E6FF7B
:101A200003F088FE5D4B1A6840F2DC539A420CD9F1
:101A300000235B4A13605B4A13605B4B1A680132F8
:101A40001A603522594B1A607EE0594B1A6840F2F1
:101A5000DC539A420CD90023514A1360514A136057
:101A6000514B1A6801321A603222504B1A606BE0F7
:101A7000504B1A6840F2DC539A420CD90023484A72
:101A80001360484A1360484B1A6801321A603122C9
:101A9000464B1A6058E0484B1A6840F2DC539A42B1
:101AA0000CD900233E4A13603E4A13603E4B1A682D
:101AB00001321A6033223D4B1A6045E03F4B1A68F1
:101AC00040F2DC539A420CD90023354A1360354A60
:101AD0001360354B1A6801321A603422334B1A6096
:101AE00032E0374B1A6840F2DC539A420CD900239B
:101AF0002B4A13602B4A13602B4B1A6801321A6071
:101B000036222A4B1A601FE0274B1C68204622F021
:101B100015F84FF07C5122F0D1F808B1214B1C6030
:101B20000022214B1A601E4B1A6801321A60104BBA
:101B30001B781BB9002005F0E7FF05E0154B1B786B
:101B400013B9552005F0E0FF164B1C68002C0EDD84
:101B5000134B186821F0F2FF4FF07C5122F0AEF8E1
:101B600028B12046FFF734FC00220E4B1A6010BD4E
:101B7000889EFF1F4C9EFF1FA48CFF1F2CB4FF1FCD
:101B8000F8A9FF1F888CFF1FB89CFF1F848CFF1FC4
:101B9000F6A9FF1F449EFF1FC09DFF1F489EFF1F09
:101BA000C096FF1FE096FF1FC896FF1FC496FF1F39
:101BB000849EFF1F509EFF1F549EFF1F589EFF1FB5
:101BC0005C9EFF1F08B516F0BFFB08486421084A59
:101BD00000F080FA07483221074A00F07BFA0748F4
:101BE0004FF47A71064A00F075FA08BDCC96FF1FD3
:101BF000BD190000E896FF1F8D040000FC96FF1F32
:101C0000650400002DE9F00FCAB001900A460023D8
:101C1000D078CC5C40EA0460547840EA0440947880
:101C200040EA042003F128056C46285104330432AD
:101C3000402BEDD10AAB0022986B59685D6A02F126
:101C400028076E46BC592C444FEA704585EAF0459A
:101C500085EA902020444FEAF11484EAB14484EAF2
:101C6000D1010144196404320433C02AE4D101993A
:101C7000096D0291019A526D0392019B9B6D049331
:101C8000019CE46D0594019D2D6E0695019E766E76
:101C90000796019FBF6E08970199C96E0991894601
:101CA0003D46B446069BA04604981446029A00217D
:101CB000DFF8A8A001F1280B6F465BF8076051F828
:101CC0000A7037444FEAB31686EAF32686EA73664B
:101CD000374425EA03060CEA030B86EA0B063E446A
:101CE0004E4480EA0407174000EA040987EA09071E
:101CF0004FEAB20989EA723989EAB2594F44B044CD
:101D00003E440431B1F5807F08D0A94665469C4623
:101D100043468046204614463246CBE702990E449D
:101D2000019F3E6503990A447A65049A1444BC6590
:101D3000059C2044F865069A42443A66079E33445F
:101D40007B66089B6344BB66099F3D44DDF804B095
:101D5000CBF86C504AB0BDE8F00F70470C8702001A
:101D60000023036400220023C0E912230A4B036509
:101D70000A4B43650A4B83650A4BC3650A4B0366EE
:101D80000A4B43660A4B836603F17453A3F523039E
:101D9000A3F69243C366704767E6096A85AE67BBE0
:101DA00072F36E3C3AF54FA57F520E518C68059B3D
:101DB000ABD9831F2DE9F84306469046DAB10F46AA
:101DC00088444FF00009336C17F8012BF2540133AB
:101DD0003364402B0DD130463146FFF713FFD6E96F
:101DE000124514F5007445F10005C6E91245C6F820
:101DF00040904745E7D1BDE8F88300BF2DE9F84F93
:101E000080468946026C372A0CD8531C80218154A5
:101E1000372B1CD802440021013302F8011F382B54
:101E2000FAD114E0531C802181543F2B06D8024480
:101E30000021013302F8011F402BFAD140464146F0
:101E4000FFF7E0FE40460021382222F0C7FDD8F817
:101E50004030D900D8E91223521843F10003C8E9F1
:101E6000122388F83F20100A40EA0360190A88F814
:101E70003E00160C46EA03461F0C88F83D60140E1F
:101E800044EA03241D0E88F83C4088F83B3088F86B
:101E90003A1088F8397088F8385040464146FFF7C4
:101EA000B1FE0322D300D8F85010D94089F80010B1
:101EB000D8F85410D94089F80410D8F85810D940EF
:101EC00089F80810D8F85C10D94089F80C10D8F8B7
:101ED0006010D94089F81010D8F86410D94089F8FA
:101EE0001410D8F86810D94089F81810D8F86C1078
:101EF00021FA03F389F81C30013A09F10109B2F122
:101F0000FF3FCFD1BDE8F88F00B583B006490A681E
:101F10004B6888680090C96801910448044922F020
:101F2000A3FF03B05DF804FB0898FF1F1898FF1F7C
:101F30000C880200064B1A68064B1A60064A1268A3
:101F40005A60064A12689A60054A1268DA60704759
:101F5000548004400898FF1F588004405C8004406F
:101F600060800440F8B504460F4616461D46044AF4
:101F700000F0B0F86761E661A5612046F8BD00BFDA
:101F8000A11F000010B50446002180F8201000F0C9
:101F9000AFF80248214600F057F810BD3C98FF1FEB
:101FA00010B5044690F8203033B9012380F8203072
:101FB000616900F09DF810BD012B0CD10648214647
:101FC00000F00CF8E36913B12046984718B1A069F6
:101FD00008B1FFF7D7FF10BD3C98FF1F026872B130
:101FE0008A4209D1136903607047994201D01A46A9
:101FF00002E00B69136170471369002BF5D170473C
:10200000F8B507460D461646FFF7E8FF3C680CB9E1
:102010003D6004E023690BB11C46FBE725611EF01F
:10202000ADF92B68C01A68604FF4FA5303FB06F34E
:10203000044AA2FB0616760806FB03F62E60002370
:102040002B61F8BDABAAAAAA38B505460C46FFF726
:10205000C5FF2A680AB92C6004E013690BB11A465F
:10206000FBE714611EF08AF92368C01A6060002340
:10207000236138BD38B50C461EF080F9054662680C
:1020800023681344984205D36268934208D2626879
:10209000904205D36268954207D26268934204D3A6
:1020A000A560E36820469847656038BD38B50546A9
:1020B0002C68002CFCD028462146FFF7DBFF246962
:1020C000002CF8D1F4E700BF08B50148FFF7EEFF98
:1020D0003C98FF1F10B44FF47A7404FB01F10160C7
:1020E000C2600022426002615DF8044B704700BF8D
:1020F0004FF47A7303FB01F1016070470161002224
:1021000002730270704700BF01617047037B0B2BA5
:1021100007D05A1CD2B20273C15400238354012049
:1021200070470020704700BF00230373037070479F
:1021300010B401690A78047800237AB9D4F1010057
:1021400038BF00200DE011F8012F10F8014F0133C6
:102150000B2BF2D1002004E0002002E0A242F2D0DA
:10216000FAE75DF8044B70472DE9F0479CB006464E
:102170000024DFF814810546335D04F8083001348B
:10218000284622F011FFA042F6D26846FFF7E8FD8C
:10219000284622F009FF024668463B49FFF70AFE3F
:1021A0003A4803685B683A490B229847394B5C1EF2
:1021B00003F11F08354F10260025384614F8011F7B
:1021C00032462B461FF028FC4445F6D12F4C2046C2
:1021D0001FF0FEFB68462F492022FFF7EBFDDFF8DA
:1021E000A89068464946FFF709FE23685B682046C9
:1021F00029490D22984709F1FF3409F11F08234F9F
:1022000010260025384614F8011F32462B461FF0D1
:1022100003FC4445F6D11D4C20461FF0D9FB236832
:102220005B6820461D4909229847DFF874A00AF12F
:10223000FF340AF11F08154F10260025384614F800
:10224000011F32462B461FF0E7FB4445F6D10F48ED
:102250001FF0BEFB124B19780B4B1A780AF11E00C7
:10226000534604E0914214BF0020012009E091424E
:1022700006D113F8011F19F8012F8342F7D1F1E7B6
:1022800000201CB0BDE8F087C098FF1F58B5FF1FA5
:10229000248802004098FF1F308802004088020016
:1022A0008098FF1F2DE9F8431C4C20461FF090FB3F
:1022B00023685B6820461A490C229847DFF864902F
:1022C00009F1FF3409F11F08144F10260025384684
:1022D00014F8011F32462B461FF09EFB4445F6D1F1
:1022E0000E481FF075FB0F4B1A780F48017809F163
:1022F0001E044B4605E08A4214BF00200120BDE8C1
:10230000F8838A4206D113F8012F10F8011FA34267
:10231000F7D1F0E70020BDE8F88300BF58B5FF1FF4
:102320004C880200A098FF1FC098FF1F2DE9F843BA
:102330001E4C20461FF04CFB23685B6820461C495E
:102340000C229847DFF86C9009F1FF3409F11F085F
:10235000164F10260025384614F8011F32462B462A
:102360001FF05AFB4445F6D110481FF031FB114BCA
:102370001A781148017809F11E044B4606E08A429A
:102380000DD101200D4B1870BDE8F8838A4209D1A8
:1023900013F8012F10F8011FA342F7D1EFE7002037
:1023A000BDE8F8830020BDE8F88300BF58B5FF1FE3
:1023B0005C8802006098FF1FC098FF1F8DA2FF1F5E
:1023C00008B515F0C1FF08BD70B40546064C0FCC2A
:1023D000E86429656A65AB652068E86500232B66BB
:1023E00085F8483070BC70478C8CFF1F2DE9F00FCA
:1023F00086B0C36C0193076D0297436D0393876D9D
:102400000497C36D05931E463C460399DDF808C04A
:10241000019D0E220023DFF808A1DFF808912CE0CF
:102420000F2B24D903F00F0600EB860602F00F08ED
:1024300008F1020850F82880B76887EA0808A2F176
:10244000050B0BF00F0B0BF1020B50F82BB088EAC9
:102450000B08A2F10B0B0BF00F0B0BF1020B50F85A
:102460002BB088EA0B084FEAF878C6F808800132EA
:1024700026460C466146AC46009D132B0CD884EAD8
:10248000010808EA0C0888EA040808F1B54808F5CC
:102490001E3808F299181FE0272B05D884EA010896
:1024A00088EA0C08C84417E03B2B09D84CEA01081D
:1024B00008EA04080CEA010748EA0708D0440BE0E0
:1024C00084EA010888EA0C0808F14A4808F5C508BA
:1024D00008F5834808F1560803F00F07023750F853
:1024E000277007EBF5674744BE1900964FEABC0C0E
:1024F0000133DBB2502B93D1019B3344C364029B65
:102500001D440565039B63444365049F394481650D
:10251000059B1C44C46506B0BDE8F00F704700BFC2
:10252000DCBC1B8FA1EBD96E10B5044690F8483087
:1025300083F00302024411720133DBB280F84830A9
:10254000402B04D1FFF752FF002384F8483010BD20
:1025500008B5026E01320266FFF7E6FF012008BDF2
:1025600038B504468021FFF7DFFF94F84830382B58
:1025700008D0002520462946FFF7D6FF94F84830BA
:10258000382BF7D120460021FFF7CEFF204600214F
:10259000FFF7CAFF20460021FFF7C6FF216E204645
:1025A000490FFFF7C1FF216E2046C1F34751FFF7E6
:1025B000BBFF216E2046C1F34731FFF7B5FF216E07
:1025C0002046C1F34711FFF7AFFF236ED900204625
:1025D00001F0F801FFF7A8FF38BD00BF38B5054688
:1025E000FFF7BEFF2A460021D36C1C0E44EA0364A9
:1025F000180200F47F0004431B0A03F47F432343C3
:10260000D364013104320529EED105F14C0038BD07
:10261000F8B505460C46164600F164073846002119
:10262000402222F0DBF9402E1ADD2846FFF7CCFECF
:1026300046B126442B681B68284614F8011B9847AE
:10264000B442F7D12846FFF7C9FF036844688168A0
:10265000C2686B667C60B960FA6003693B6104E044
:1026600038462146324615F001FC2846FFF7ACFEFD
:1026700005F1630405F1A3062B6814F8011F1B681C
:10268000284681F036019847B442F5D1F8BD00BF25
:1026900070B50546FFF7A2FF026846688468C16806
:1026A000C5F8A420C5F8A860C5F8AC40C5F8B010BE
:1026B0000269C5F8B4202846FFF786FE05F16304D9
:1026C00005F1A3062B6814F8011F1B68284681F04A
:1026D0005C019847B442F5D105F114062C462B68ED
:1026E0001B68284694F8A41098470134B442F6D1E8
:1026F0002846FFF773FF70BD024B00221A71024A91
:102700001A607047E098FF1F7888020001604260FD
:10271000704700BF70B50446224B83FB01230B4476
:10272000C917C1EB231181600025057345738573BB
:10273000C5730B0E03740B1443740B128374C174B2
:10274000194E304621686268FFF762FF33685B68A4
:10275000304604F10C01082298473046FFF798FFF5
:102760006061C27C02F00F02A261E5612B46104459
:10277000E2691202E261C15C0A43E2610133042BA7
:10278000F6D122F00043094A82FB03129214084951
:1027900001FB1232E26120342046064922F064FB3C
:1027A000204670BD89888888E098FF1F83DE1B4320
:1027B00040420F00808802002DE9F00F5B4BA3FB25
:1027C00000425209C2EB0214A0EB84000870A3FB84
:1027D00002A35B09C3EB0310A2EB80024A70544CC6
:1027E000A4FB03084FEA181808EB4802A3EBC20346
:1027F0008B70474608F104004E4AA0FB0223C21A20
:1028000003EB52039B08C3EBC303C01A0130C8702B
:102810000020024640F26D1C474C4FF064094FF413
:10282000B77BC5B205F2B273ABB113F0030F14D18D
:1028300084FB03A6761109FB163686B984FB03A632
:10284000F6114FF4C87A06FB1A36002E0CBF4FF46F
:10285000B776664604E0664602E0664600E05E46FD
:10286000324401309742DCD28D71CBB113F0030FAB
:1028700019D1314880FB03404011642404FB10301F
:10288000A0B92D4880FB03A0C0114FF4C87400FB11
:102890001430002840F26D1408BF4FF4B77407E0FD
:1028A00040F26D1404E040F26D1401E04FF4B7748F
:1028B000121BC2EB0804204F87FB03074FEA671C7B
:1028C000642202FB1C3CFF114FF4C87202FB173755
:1028D00000221A4E4FF01C0803F0030A4FF01D09A6
:1028E000D0B201280BD163B1BAF1000F0BD1BCF10A
:1028F000000F0AD1002F0CBF1D251C2506E0955D99
:1029000004E0454602E0454600E04D46A54205D8B4
:10291000641B0130C0B201320C2AE1D10130487190
:1029200001340C71BDE8F00F704700BF89888888BA
:10293000ABAAAAAA254992241F85EB5188880200D8
:1029400010B50446044B1B68984204D00349FFF7B6
:1029500033FF014B1C6010BD9899FF1F9C99FF1F0E
:1029600008B5FFF7EDFF024B987900F2B27008BD91
:102970009C99FF1F074B1860074B1B681844074BB7
:1029800018600222064B1A70064B1A68064B1A6032
:10299000704700BFA499FF1FA08CFF1FB499FF1FB1
:1029A000A899FF1F2CB4FF1FB099FF1F10B51C4B37
:1029B0001A681C4B1B68D21AB2F57A7F11D31A4AD7
:1029C00012680132164C03F57A732168501CC91A3B
:1029D000B1F57A7F01D30246F5E713490A60114A3F
:1029E0001360124B1A68104B1B689A4214D8104B94
:1029F0001B688BB1984710B1FFF7BCFF0CE00D4B83
:102A00001A68094B1B681A44084B1A600A4B1A785B
:102A1000003218BF01221A70034B186810BD00BFA6
:102A20002CB4FF1FB099FF1FA499FF1FB499FF1F7B
:102A3000AC99FF1FA08CFF1FA899FF1F08B5FFF7D7
:102A4000B5FFFFF77DFF014B987808BD9C99FF1FEC
:102A500008B5FFF7ABFFFFF773FF014B587808BDD0
:102A60009C99FF1F08B5FFF7A1FFFFF769FF014B16
:102A7000187808BD9C99FF1F08B5FFF797FFFFF76F
:102A80005FFF014B187908BD9C99FF1F08B5FFF740
:102A90008DFFFFF755FF014B587908BD9C99FF1F2B
:102AA00008B5FFF783FFFFF75BFF08BD08B5FFF729
:102AB0007DFF014B187808BDA899FF1F70B5164619
:102AC0004AB10E440C46451A204615F077FC2855AD
:102AD0000134B442F8D170BD70B5154642B10C4610
:102AE000461A2046315D15F07DFC0134013DF8D1D8
:102AF00070BD00BF08B540F294610122FFF7DEFF10
:102B0000012008BD08B540F294610122FFF7E4FFFF
:102B100008BD00BF08B540F295610122FFF7CEFF66
:102B2000012008BD08B540F295610122FFF7D4FFEE
:102B300008BD00BF08B540F296610122FFF7BEFF55
:102B4000012008BD08B540F296610122FFF7C4FFDD
:102B500008BD00BF08B540F297610122FFF7AEFF44
:102B6000012008BD08B540F297610122FFF7B4FFCC
:102B700008BD00BF08B54FF4D3610122FFF79EFFE7
:102B8000012008BD08B54FF4D3610122FFF7A4FF6F
:102B900008BD00BF08B540F299610122FFF78EFF22
:102BA000012008BD08B540F299610122FFF794FFAA
:102BB00008BD00BF08B540F29A610122FFF77EFF11
:102BC000012008BD08B540F29A610122FFF784FF99
:102BD00008BD00BF08B540F291610222FFF76EFF09
:102BE000022008BD08B540F291610222FFF774FF90
:102BF00008BD00BF08B540F293610122FFF75EFFF8
:102C0000012008BD08B540F293610122FFF764FF7F
:102C100008BD00BF08B54FF4BE610122FFF74EFFAB
:102C2000012008BD08B54FF4BE610122FFF754FF33
:102C300008BD00BF08B540F2F1510122FFF73EFF89
:102C4000012008BD08B540F2F1510122FFF744FF11
:102C500008BD00BF08B540F2F2510122FFF72EFF78
:102C6000012008BD08B540F2F2510122FFF734FF00
:102C700008BD00BF08B540F2F3510122FFF71EFF67
:102C8000012008BD08B540F2F3510122FFF724FFEF
:102C900008BD00BF08B540F2F4510122FFF70EFF56
:102CA000012008BD08B540F2F4510122FFF714FFDE
:102CB00008BD00BF08B540F2F5510122FFF7FEFE46
:102CC000012008BD08B540F2F5510122FFF704FFCD
:102CD00008BD00BF08B540F2F6510122FFF7EEFE35
:102CE000012008BD08B540F2F6510122FFF7F4FEBD
:102CF00008BD00BF08B540F2F7510122FFF7DEFE24
:102D0000012008BD08B540F2F7510122FFF7E4FEAB
:102D100008BD00BF08B54FF4BF610122FFF7CEFE2A
:102D2000012008BD08B54FF4BF610122FFF7D4FEB2
:102D300008BD00BF08B540F2F9510122FFF7BEFE01
:102D4000012008BD08B540F2F9510122FFF7C4FE89
:102D500008BD00BF08B540F2FA510122FFF7AEFEF0
:102D6000012008BD08B540F2FA510122FFF7B4FE78
:102D700008BD00BF08B540F2FB510122FFF79EFEDF
:102D8000012008BD08B540F2FB510122FFF7A4FE67
:102D900008BD00BF08B540F2FC510122FFF78EFECE
:102DA000012008BD08B540F2FC510122FFF794FE56
:102DB00008BD00BF08B540F2FD510122FFF77EFEBD
:102DC000012008BD08B540F2FD510122FFF784FE45
:102DD00008BD00BF08B540F2FE510122FFF76EFEAC
:102DE000012008BD08B540F2FE510122FFF774FE34
:102DF00008BD00BF08B540F2FF510122FFF75EFE9B
:102E0000012008BD08B540F2FF510122FFF764FE22
:102E100008BD00BF08B54FF4C0610122FFF74EFEA8
:102E2000012008BD08B54FF4C0610122FFF754FE30
:102E300008BD00BF08B540F201610122FFF73EFE68
:102E4000012008BD08B540F201610122FFF744FEF0
:102E500008BD00BF08B540F202610122FFF72EFE57
:102E6000012008BD08B540F202610122FFF734FEDF
:102E700008BD00BF08B540F203610122FFF71EFE46
:102E8000012008BD08B540F203610122FFF724FECE
:102E900008BD00BF08B540F204610122FFF70EFE35
:102EA000012008BD08B540F204610122FFF714FEBD
:102EB00008BD00BF08B540F205610122FFF7FEFD25
:102EC000012008BD08B540F205610122FFF704FEAC
:102ED00008BD00BF08B540F206610122FFF7EEFD14
:102EE000012008BD08B540F206610122FFF7F4FD9C
:102EF00008BD00BF08B540F207610122FFF7DEFD03
:102F0000012008BD08B540F207610122FFF7E4FD8A
:102F100008BD00BF08B568210122FFF7CFFD0120E1
:102F200008BD00BF08B568210122FFF7D5FD08BD27
:102F300008B569210122FFF7C1FD012008BD00BFCE
:102F400008B569210122FFF7C7FD08BD08B56A2150
:102F50000122FFF7B3FD012008BD00BF08B56A21BB
:102F60000122FFF7B9FD08BD08B56B210122FFF76B
:102F7000A5FD012008BD00BF08B56B210122FFF7A8
:102F8000ABFD08BD08B56C210122FFF797FD0120BC
:102F900008BD00BF08B56C210122FFF79DFD08BDEB
:102FA00008B56D210122FFF789FD012008BD00BF92
:102FB00008B56D210122FFF78FFD08BD08B56E2110
:102FC0000122FFF77BFD012008BD00BF08B56E217F
:102FD0000122FFF781FD08BD08B56F210122FFF72F
:102FE0006DFD012008BD00BF08B56F210122FFF76C
:102FF00073FD08BD08B570210122FFF75FFD0120B8
:1030000008BD00BF08B570210122FFF765FD08BDAE
:1030100008B571210122FFF751FD012008BD00BF55
:1030200008B571210122FFF757FD08BD08B57221CF
:103030000122FFF743FD012008BD00BF08B5722142
:103040000122FFF749FD08BD08B573210122FFF7F2
:1030500035FD012008BD00BF08B573210122FFF72F
:103060003BFD08BD08B574210122FFF727FD0120B3
:1030700008BD00BF08B574210122FFF72DFD08BD72
:1030800008B575210122FFF719FD012008BD00BF19
:1030900008B575210122FFF71FFD08BD08B576218F
:1030A0000122FFF70BFD012008BD00BF08B5762106
:1030B0000122FFF711FD08BD08B577210122FFF7B6
:1030C000FDFC012008BD00BF08B577210122FFF7F4
:1030D00003FD08BD08B578210122FFF7EFFC0120B0
:1030E00008BD00BF08B578210122FFF7F5FC08BD37
:1030F00008B579210122FFF7E1FC012008BD00BFDE
:1031000008B579210122FFF7E7FC08BD08B57A214F
:103110000122FFF7D3FC012008BD00BF08B57A21CA
:103120000122FFF7D9FC08BD08B57B210122FFF77A
:10313000C5FC012008BD00BF08B57B210122FFF7B7
:10314000CBFC08BD08B57C210122FFF7B7FC0120AC
:1031500008BD00BF08B57C210122FFF7BDFC08BDFA
:1031600008B57D210122FFF7A9FC012008BD00BFA1
:1031700008B57D210122FFF7AFFC08BD08B57E210F
:103180000122FFF79BFC012008BD00BF08B57E218E
:103190000122FFF7A1FC08BD08B57F210122FFF73E
:1031A0008DFC012008BD00BF08B57F210122FFF77B
:1031B00093FC08BD08B520210122FFF77FFC012008
:1031C00008BD00BF08B520210122FFF785FC08BD1E
:1031D00008B521210122FFF771FC012008BD00BFC5
:1031E00008B521210122FFF777FC08BD08B522218F
:1031F0000122FFF763FC012008BD00BF08B52221B2
:103200000122FFF769FC08BD08B523210122FFF761
:1032100055FC012008BD00BF08B523210122FFF79E
:103220005BFC08BD08B524210122FFF747FC012003
:1032300008BD00BF08B524210122FFF74DFC08BDE1
:1032400008B525210122FFF739FC012008BD00BF88
:1032500008B525210122FFF73FFC08BD08B526214E
:103260000122FFF72BFC012008BD00BF08B5262175
:103270000122FFF731FC08BD08B527210122FFF725
:103280001DFC012008BD00BF08B527210122FFF762
:1032900023FC08BD08B528210122FFF70FFC0120FF
:1032A00008BD00BF08B528210122FFF715FC08BDA5
:1032B00008B529210122FFF701FC012008BD00BF4C
:1032C00008B529210122FFF707FC08BD08B52A210E
:1032D0000122FFF7F3FB012008BD00BF08B52A213A
:1032E0000122FFF7F9FB08BD08B52B210122FFF7EA
:1032F000E5FB012008BD00BF08B52B210122FFF727
:10330000EBFB08BD08B52C210122FFF7D7FB0120FC
:1033100008BD00BF08B52C210122FFF7DDFB08BD69
:1033200008B52D210122FFF7C9FB012008BD00BF10
:1033300008B52D210122FFF7CFFB08BD08B52E21CE
:103340000122FFF7BBFB012008BD00BF08B52E21FD
:103350000122FFF7C1FB08BD08B52F210122FFF7AD
:10336000ADFB012008BD00BF08B52F210122FFF7EA
:10337000B3FB08BD08B530210122FFF79FFB0120F8
:1033800008BD00BF08B530210122FFF7A5FB08BD2D
:1033900008B531210122FFF791FB012008BD00BFD4
:1033A00008B531210122FFF797FB08BD08B532218E
:1033B0000122FFF783FB012008BD00BF08B53221C1
:1033C0000122FFF789FB08BD08B533210122FFF771
:1033D00075FB012008BD00BF08B533210122FFF7AE
:1033E0007BFB08BD08B534210122FFF767FB0120F4
:1033F00008BD00BF08B534210122FFF76DFB08BDF1
:1034000008B535210122FFF759FB012008BD00BF97
:1034100008B535210122FFF75FFB08BD08B536214D
:103420000122FFF74BFB012008BD00BF08B5362184
:103430000122FFF751FB08BD08B537210122FFF734
:103440003DFB012008BD00BF08B537210122FFF771
:1034500043FB08BD08B54FF4CA610122FFF72EFBFC
:10346000012008BD08B54FF4CA610122FFF734FB03
:1034700008BD00BF08B540F251610122FFF71EFBF5
:10348000012008BD08B540F251610122FFF724FB7D
:1034900008BD00BF08B540F252610122FFF70EFBE4
:1034A000012008BD08B540F252610122FFF714FB6C
:1034B00008BD00BF08B540F253610122FFF7FEFAD4
:1034C000012008BD08B540F253610122FFF704FB5B
:1034D00008BD00BF08B540F254610122FFF7EEFAC3
:1034E000012008BD08B540F254610122FFF7F4FA4B
:1034F00008BD00BF08B540F255610122FFF7DEFAB2
:10350000012008BD08B540F255610122FFF7E4FA39
:1035100008BD00BF08B540F256610122FFF7CEFAA0
:10352000012008BD08B540F256610122FFF7D4FA28
:1035300008BD00BF08B540F257610122FFF7BEFA8F
:10354000012008BD08B540F257610122FFF7C4FA17
:1035500008BD00BF08B54FF4CB610122FFF7AEFAFA
:10356000012008BD08B54FF4CB610122FFF7B4FA82
:1035700008BD00BF08B540F259610122FFF79EFA6D
:10358000012008BD08B540F259610122FFF7A4FAF5
:1035900008BD00BF08B540F25A610122FFF78EFA5C
:1035A000012008BD08B540F25A610122FFF794FAE4
:1035B00008BD00BF08B540F25B610122FFF77EFA4B
:1035C000012008BD08B540F25B610122FFF784FAD3
:1035D00008BD00BF08B540F25C610122FFF76EFA3A
:1035E000012008BD08B540F25C610122FFF774FAC2
:1035F00008BD00BF08B540F25D610122FFF75EFA29
:10360000012008BD08B540F25D610122FFF764FAB0
:1036100008BD00BF08B540F25E610122FFF74EFA17
:10362000012008BD08B540F25E610122FFF754FA9F
:1036300008BD00BF08B540F25F610122FFF73EFA06
:10364000012008BD08B540F25F610122FFF744FA8E
:1036500008BD00BF08B54FF4CC610122FFF72EFA78
:10366000012008BD08B54FF4CC610122FFF734FA00
:1036700008BD00BF08B540F261610122FFF71EFAE4
:10368000012008BD08B540F261610122FFF724FA6C
:1036900008BD00BF08B540F262610122FFF70EFAD3
:1036A000012008BD08B540F262610122FFF714FA5B
:1036B00008BD00BF08B540F263610122FFF7FEF9C3
:1036C000012008BD08B540F263610122FFF704FA4A
:1036D00008BD00BF08B540F264610122FFF7EEF9B2
:1036E000012008BD08B540F264610122FFF7F4F93A
:1036F00008BD00BF08B540F265610122FFF7DEF9A1
:10370000012008BD08B540F265610122FFF7E4F928
:1037100008BD00BF08B540F266610122FFF7CEF98F
:10372000012008BD08B540F266610122FFF7D4F917
:1037300008BD00BF08B540F267610122FFF7BEF97E
:10374000012008BD08B540F267610122FFF7C4F906
:1037500008BD00BF08B502211022FFF7AFF9102005
:1037600008BD00BF08B502211022FFF7B5F908BD5A
:1037700008B51E210222FFF7A1F9022008BD00BFF3
:1037800008B51E210222FFF7A7F908BD08B51821C8
:103790000622FFF793F9062008BD00BF08B51821DF
:1037A0000622FFF799F908BD08B512210622FFF796
:1037B00085F9062008BD00BF08B512210622FFF7D3
:1037C0008BF908BD30B583B004460139172900F2E2
:1037D000B081DFE811F018002800380049005A00D5
:1037E0006B007C008D009E00AF00C000D100E200A5
:1037F000F3000401150126013701480159016A014E
:103800007B018C019D010DF10700FFF703FA9DF884
:103810000750382DA8BF38252046B0213822FFF7A1
:103820004DF9284686E10DF10700FFF703FA9DF8F0
:103830000750382DA8BF38252046E8213822FFF749
:103840003DF9284676E10DF10700FFF703FA9DF8F0
:103850000750382DA8BF382520464FF490713822E4
:10386000FFF72CF9284665E10DF10700FFF702FA92
:103870009DF80750382DA8BF382520464FF4AC716D
:103880003822FFF71BF9284654E10DF10700FFF736
:1038900001FA9DF80750382DA8BF382520464FF46F
:1038A000C8713822FFF70AF9284643E10DF10700F5
:1038B000FFF700FA9DF80750382DA8BF382520469D
:1038C0004FF4E4713822FFF7F9F8284632E10DF1A0
:1038D0000700FFF7FFF99DF80750382DA8BF3825DE
:1038E00020464FF400713822FFF7E8F8284621E11E
:1038F0000DF10700FFF7FEF99DF80750382DA8BF1E
:10390000382520464FF40E713822FFF7D7F82846A5
:1039100010E10DF10700FFF7FDF99DF80750382D74
:10392000A8BF382520464FF41C713822FFF7C6F88F
:103930002846FFE00DF10700FFF7FCF99DF807505E
:10394000382DA8BF382520464FF42A713822FFF7BA
:10395000B5F82846EEE00DF10700FFF7FBF99DF8FA
:103960000750382DA8BF382520464FF4387138222B
:10397000FFF7A4F82846DDE00DF10700FFF7FAF99C
:103980009DF80750382DA8BF382520464FF44671C2
:103990003822FFF793F82846CCE00DF10700FFF737
:1039A000F9F99DF80750382DA8BF382520464FF467
:1039B00054713822FFF782F82846BBE00DF107006A
:1039C000FFF7F8F99DF80750382DA8BF3825204695
:1039D0004FF462713822FFF771F82846AAE00DF122
:1039E0000700FFF7F7F99DF80750382DA8BF3825D5
:1039F00020464FF470713822FFF760F8284699E0AE
:103A00000DF10700FFF7F6F99DF80750382DA8BF14
:103A1000382520464FF47E713822FFF74FF82846AC
:103A200088E00DF10700FFF7F5F99DF80750382DF4
:103A3000A8BF382520464FF486613822FFF73EF8AC
:103A4000284677E00DF10700FFF7F4F99DF80750DD
:103A5000382DA8BF382520464FF48D613822FFF756
:103A60002DF8284666E00DF10700FFF7F3F99DF801
:103A70000750382DA8BF382520464FF494613822CE
:103A8000FFF71CF8284655E00DF10700FFF7F2F9A3
:103A90009DF80750382DA8BF382520464FF49B616C
:103AA0003822FFF70BF8284644E00DF10700FFF736
:103AB000F1F99DF80750382DA8BF382520464FF45E
:103AC000A2613822FEF7FAFF284633E00DF1070025
:103AD000FFF7F0F99DF80750382DA8BF382520468C
:103AE0004FF4A9613822FEF7E9FF284622E00DF1E4
:103AF0000700FFF7EFF99DF80750382DA8BF3825CC
:103B000020464FF4B0613822FEF7D8FF284611E076
:103B10000DF10700FFF7EEF99DF80750382DA8BF0B
:103B2000382520464FF4B7613822FEF7C7FF2846F4
:103B300000E0002003B030BD10B582B00C46013A61
:103B4000172A00F26781DFE812F018002500320022
:103B500040004E005C006A00780086009400A200DD
:103B6000B000BE00CC00DA00E800F600040112014B
:103B700020012E013C014A015801B0213822FEF7F4
:103B8000ABFF382CA8BF382402A800F8014DFFF77E
:103B900049F83FE1E8213822FEF79EFF382CA8BF04
:103BA000382402A800F8014DFFF74CF832E14FF439
:103BB00090713822FEF790FF382CA8BF382402A855
:103BC00000F8014DFFF74EF824E14FF4AC713822B4
:103BD000FEF782FF382CA8BF382402A800F8014D58
:103BE000FFF750F816E14FF4C8713822FEF774FF62
:103BF000382CA8BF382402A800F8014DFFF752F86E
:103C000008E14FF4E4713822FEF766FF382CA8BFB4
:103C1000382402A800F8014DFFF754F8FAE04FF4F9
:103C200000713822FEF758FF382CA8BF382402A8AC
:103C300000F8014DFFF756F8ECE04FF40E71382212
:103C4000FEF74AFF382CA8BF382402A800F8014D1F
:103C5000FFF758F8DEE04FF41C713822FEF73CFF06
:103C6000382CA8BF382402A800F8014DFFF75AF8F5
:103C7000D0E04FF42A713822FEF72EFF382CA8BF6F
:103C8000382402A800F8014DFFF75CF8C2E04FF4B9
:103C900038713822FEF720FF382CA8BF382402A83C
:103CA00000F8014DFFF75EF8B4E04FF4467138229A
:103CB000FEF712FF382CA8BF382402A800F8014DE7
:103CC000FFF760F8A6E04FF454713822FEF704FFC6
:103CD000382CA8BF382402A800F8014DFFF762F87D
:103CE00098E04FF462713822FEF7F6FE382CA8BF38
:103CF000382402A800F8014DFFF764F88AE04FF479
:103D000070713822FEF7E8FE382CA8BF382402A8CC
:103D100000F8014DFFF766F87CE04FF47E71382221
:103D2000FEF7DAFE382CA8BF382402A800F8014DAF
:103D3000FFF768F86EE04FF486613822FEF7CCFE9C
:103D4000382CA8BF382402A800F8014DFFF76AF804
:103D500060E04FF48D613822FEF7BEFE382CA8BF1C
:103D6000382402A800F8014DFFF76CF852E04FF438
:103D700094613822FEF7B0FE382CA8BF382402A880
:103D800000F8014DFFF76EF844E04FF49B613822D4
:103D9000FEF7A2FE382CA8BF382402A800F8014D77
:103DA000FFF770F836E04FF4A2613822FEF794FE78
:103DB000382CA8BF382402A800F8014DFFF772F88C
:103DC00028E04FF4A9613822FEF786FE382CA8BF00
:103DD000382402A800F8014DFFF774F81AE04FF4F8
:103DE000B0613822FEF778FE382CA8BF382402A82C
:103DF00000F8014DFFF776F80CE04FF4B761382278
:103E0000FEF76AFE382CA8BF382402A800F8014D3E
:103E1000FFF778F802B010BD08B50139172900F294
:103E20009E80DFE801F00C12181E242A30363C4236
:103E3000484E545A60666C72787E848A9096382117
:103E40000122FEF73BFE012008BD39210122FEF7C9
:103E500035FE012008BD3A210122FEF72FFE012088
:103E600008BD3B210122FEF729FE012008BD3C21AF
:103E70000122FEF723FE012008BD3D210122FEF7AD
:103E80001DFE012008BD3E210122FEF717FE012084
:103E900008BD3F210122FEF711FE012008BD40218F
:103EA0000122FEF70BFE012008BD41210122FEF791
:103EB00005FE012008BD42210122FEF7FFFD012081
:103EC00008BD43210122FEF7F9FD012008BD442170
:103ED0000122FEF7F3FD012008BD45210122FEF776
:103EE000EDFD012008BD46210122FEF7E7FD01207E
:103EF00008BD47210122FEF7E1FD012008BD482150
:103F00000122FEF7DBFD012008BD49210122FEF759
:103F1000D5FD012008BD4A210122FEF7CFFD012079
:103F200008BD4B210122FEF7C9FD012008BD4C212F
:103F30000122FEF7C3FD012008BD4D210122FEF73D
:103F4000BDFD012008BD4E210122FEF7B7FD012075
:103F500008BD4F210122FEF7B1FD012008BD002060
:103F600008BD00BF08B50139172900F28580DFE8D8
:103F700001F00C11161B20252A2F34393E43484DE1
:103F800052575C61666B70757A7F38210122FEF7AB
:103F9000A3FD08BD39210122FEF79EFD08BD3A218F
:103FA0000122FEF799FD08BD3B210122FEF794FD99
:103FB00008BD3C210122FEF78FFD08BD3D210122F5
:103FC000FEF78AFD08BD3E210122FEF785FD08BDF2
:103FD0003F210122FEF780FD08BD40210122FEF7AE
:103FE0007BFD08BD41210122FEF776FD08BD42217F
:103FF0000122FEF771FD08BD43210122FEF76CFD91
:1040000008BD44210122FEF767FD08BD45210122BC
:10401000FEF762FD08BD46210122FEF75DFD08BDE9
:1040200047210122FEF758FD08BD48210122FEF775
:1040300053FD08BD49210122FEF74EFD08BD4A216E
:104040000122FEF749FD08BD4B210122FEF744FD88
:1040500008BD4C210122FEF73FFD08BD4D21012284
:10406000FEF73AFD08BD4E210122FEF735FD08BDE1
:104070004F210122FEF730FD08BD00BF08B5013910
:10408000172900F29E80DFE801F00C12181E242A86
:1040900030363C42484E545A60666C72787E848A50
:1040A000909680210122FEF709FD012008BD8121A3
:1040B0000122FEF703FD012008BD82210122FEF747
:1040C000FDFC012008BD83210122FEF7F7FC012041
:1040D00008BD84210122FEF7F1FC012008BD8521E5
:1040E0000122FEF7EBFC012008BD86210122FEF72C
:1040F000E5FC012008BD87210122FEF7DFFC01203D
:1041000008BD88210122FEF7D9FC012008BD8921C4
:104110000122FEF7D3FC012008BD8A210122FEF70F
:10412000CDFC012008BD8B210122FEF7C7FC012038
:1041300008BD8C210122FEF7C1FC012008BD8D21A4
:104140000122FEF7BBFC012008BD8E210122FEF7F3
:10415000B5FC012008BD8F210122FEF7AFFC012034
:1041600008BD90210122FEF7A9FC012008BD912184
:104170000122FEF7A3FC012008BD92210122FEF7D7
:104180009DFC012008BD93210122FEF797FC012030
:1041900008BD94210122FEF791FC012008BD952164
:1041A0000122FEF78BFC012008BD96210122FEF7BB
:1041B00085FC012008BD97210122FEF77FFC01202C
:1041C00008BD002008BD00BF08B50139172900F25D
:1041D0008580DFE801F00C11161B20252A2F3439C9
:1041E0003E43484D52575C61666B70757A7F802103
:1041F0000122FEF771FC08BD81210122FEF76CFC53
:1042000008BD82210122FEF767FC08BD832101223F
:10421000FEF762FC08BD84210122FEF75DFC08BDAB
:1042200085210122FEF758FC08BD86210122FEF7F8
:1042300053FC08BD87210122FEF74EFC08BD8821F2
:104240000122FEF749FC08BD89210122FEF744FC4A
:1042500008BD8A210122FEF73FFC08BD8B21012207
:10426000FEF73AFC08BD8C210122FEF735FC08BDA3
:104270008D210122FEF730FC08BD8E210122FEF7C0
:104280002BFC08BD8F210122FEF726FC08BD9021E2
:104290000122FEF721FC08BD91210122FEF71CFC42
:1042A00008BD92210122FEF717FC08BD93210122CF
:1042B000FEF712FC08BD94210122FEF70DFC08BD9B
:1042C00095210122FEF708FC08BD96210122FEF788
:1042D00003FC08BD97210122FEF7FEFB08BD00BFCD
:1042E00008B50139172900F2B680DFE801F00C1398
:1042F0001A21282F363D444B525960676E757C83D6
:104300008A91989FA6AD4FF4C1610122FEF7D6FBBA
:10431000012008BD40F209610122FEF7CFFB012018
:1043200008BD40F20A610122FEF7C8FB012008BD6A
:1043300040F20B610122FEF7C1FB012008BD40F2F3
:104340000C610122FEF7BAFB012008BD40F20D61AD
:104350000122FEF7B3FB012008BD40F20E610122ED
:10436000FEF7ACFB012008BD40F20F610122FEF711
:10437000A5FB012008BD4FF4C2610122FEF79EFBA0
:10438000012008BD40F211610122FEF797FB0120D8
:1043900008BD40F212610122FEF790FB012008BD2A
:1043A00040F213610122FEF789FB012008BD40F2B3
:1043B00014610122FEF782FB012008BD40F2156165
:1043C0000122FEF77BFB012008BD40F216610122AD
:1043D000FEF774FB012008BD40F217610122FEF7D1
:1043E0006DFB012008BD4FF4C3610122FEF766FB9F
:1043F000012008BD40F219610122FEF75FFB012098
:1044000008BD40F21A610122FEF758FB012008BDE9
:1044100040F21B610122FEF751FB012008BD40F272
:104420001C610122FEF74AFB012008BD40F21D611C
:104430000122FEF743FB012008BD40F21E6101226C
:10444000FEF73CFB012008BD40F21F610122FEF790
:1044500035FB012008BD002008BD00BF08B50139AB
:10446000172900F29D80DFE801F00C12181E242AA3
:1044700030363C42484E545A60666C72787E848A6C
:1044800090964FF4C1610122FEF726FB08BD40F271
:1044900009610122FEF720FB08BD40F20A610122FA
:1044A000FEF71AFB08BD40F20B610122FEF714FB78
:1044B00008BD40F20C610122FEF70EFB08BD40F280
:1044C0000D610122FEF708FB08BD40F20E610122DA
:1044D000FEF702FB08BD40F20F610122FEF7FCFA75
:1044E00008BD4FF4C2610122FEF7F6FA08BD40F2A2
:1044F00011610122FEF7F0FA08BD40F212610122BB
:10450000FEF7EAFA08BD40F213610122FEF7E4FA71
:1045100008BD40F214610122FEF7DEFA08BD40F248
:1045200015610122FEF7D8FA08BD40F2166101229A
:10453000FEF7D2FA08BD40F217610122FEF7CCFA6D
:1045400008BD4FF4C3610122FEF7C6FA08BD40F270
:1045500019610122FEF7C0FA08BD40F21A6101227A
:10456000FEF7BAFA08BD40F21B610122FEF7B4FA69
:1045700008BD40F21C610122FEF7AEFA08BD40F210
:104580001D610122FEF7A8FA08BD40F21E6101225A
:10459000FEF7A2FA08BD40F21F610122FEF79CFA65
:1045A00008BD00BF08B50139172900F29E80DFE879
:1045B00001F00C12181E242A30363C42484E545A40
:1045C00060666C72787E848A909650210122FEF794
:1045D00075FA012008BD51210122FEF76FFA012072
:1045E00008BD52210122FEF769FA012008BD5321BE
:1045F0000122FEF763FA012008BD54210122FEF7D3
:104600005DFA012008BD55210122FEF757FA01206D
:1046100008BD56210122FEF751FA012008BD57219D
:104620000122FEF74BFA012008BD58210122FEF7B6
:1046300045FA012008BD59210122FEF73FFA012069
:1046400008BD5A210122FEF739FA012008BD5B217D
:104650000122FEF733FA012008BD5C210122FEF79A
:104660002DFA012008BD5D210122FEF727FA012065
:1046700008BD5E210122FEF721FA012008BD5F215D
:104680000122FEF71BFA012008BD60210122FEF77E
:1046900015FA012008BD61210122FEF70FFA012061
:1046A00008BD62210122FEF709FA012008BD63213D
:1046B0000122FEF703FA012008BD64210122FEF762
:1046C000FDF9012008BD65210122FEF7F7F901205F
:1046D00008BD66210122FEF7F1F9012008BD67211E
:1046E0000122FEF7EBF9012008BD002008BD00BF44
:1046F00008B50139172900F28580DFE801F00C11B7
:10470000161B20252A2F34393E43484D52575C61F1
:10471000666B70757A7F50210122FEF7DDF908BDC6
:1047200051210122FEF7D8F908BD52210122FEF7DE
:10473000D3F908BD53210122FEF7CEF908BD54215B
:104740000122FEF7C9F908BD55210122FEF7C4F97F
:1047500008BD56210122FEF7BFF908BD57210122ED
:10476000FEF7BAF908BD58210122FEF7B5F908BDD8
:1047700059210122FEF7B0F908BD5A210122FEF7A6
:10478000ABF908BD5B210122FEF7A6F908BD5C214B
:104790000122FEF7A1F908BD5D210122FEF79CF977
:1047A00008BD5E210122FEF797F908BD5F210122B5
:1047B000FEF792F908BD60210122FEF78DF908BDD0
:1047C00061210122FEF788F908BD62210122FEF76E
:1047D00083F908BD63210122FEF77EF908BD64213B
:1047E0000122FEF779F908BD65210122FEF774F96F
:1047F00008BD66210122FEF76FF908BD672101227D
:10480000FEF76AF908BD00BF08B50139172900F2A3
:104810009E80DFE801F00C12181E242A30363C423C
:10482000484E545A60666C72787E848A90969821BD
:104830000122FEF743F9012008BD99210122FEF76C
:104840003DF9012008BD9A210122FEF737F9012028
:1048500008BD9B210122FEF731F9012008BD9C21F2
:104860000122FEF72BF9012008BD9D210122FEF750
:1048700025F9012008BD9E210122FEF71FF9012024
:1048800008BD9F210122FEF719F9012008BDA021D2
:104890000122FEF713F9012008BDA1210122FEF734
:1048A0000DF9012008BDA2210122FEF707F9012020
:1048B00008BDA3210122FEF701F9012008BDA421B2
:1048C0000122FEF7FBF8012008BDA5210122FEF719
:1048D000F5F8012008BDA6210122FEF7EFF801201E
:1048E00008BDA7210122FEF7E9F8012008BDA82193
:1048F0000122FEF7E3F8012008BDA9210122FEF7FD
:10490000DDF8012008BDAA210122FEF7D7F8012019
:1049100008BDAB210122FEF7D1F8012008BDAC2172
:104920000122FEF7CBF8012008BDAD210122FEF7E0
:10493000C5F8012008BDAE210122FEF7BFF8012015
:1049400008BDAF210122FEF7B9F8012008BD002003
:1049500008BD00BF08B50139172900F28580DFE8DE
:1049600001F00C11161B20252A2F34393E43484DE7
:1049700052575C61666B70757A7F98210122FEF751
:10498000ABF808BD99210122FEF7A6F808BD9A21CF
:104990000122FEF7A1F808BD9B210122FEF79CF839
:1049A00008BD9C210122FEF797F808BD9D21012238
:1049B000FEF792F808BD9E210122FEF78DF808BD92
:1049C0009F210122FEF788F808BDA0210122FEF7F1
:1049D00083F808BDA1210122FEF77EF808BDA221BF
:1049E0000122FEF779F808BDA3210122FEF774F831
:1049F00008BDA4210122FEF76FF808BDA521012200
:104A0000FEF76AF808BDA6210122FEF765F808BD89
:104A1000A7210122FEF760F808BDA8210122FEF7B8
:104A20005BF808BDA9210122FEF756F808BDAA21AE
:104A30000122FEF751F808BDAB210122FEF74CF828
:104A400008BDAC210122FEF747F808BDAD210122C7
:104A5000FEF742F808BDAE210122FEF73DF808BD81
:104A6000AF210122FEF738F808BD00BF08B50139B3
:104A7000172900F2B680DFE801F00C131A21282F65
:104A8000363D444B525960676E757C838A91989F7E
:104A9000A6AD4FF4C4610122FEF710F8012008BD55
:104AA00040F221610122FEF709F8012008BD40F221
:104AB00022610122FEF702F8012008BD40F22361C5
:104AC0000122FDF7FBFF012008BD40F22461012215
:104AD000FDF7F4FF012008BD40F225610122FDF73A
:104AE000EDFF012008BD40F226610122FDF7E6FF3F
:104AF000012008BD40F227610122FDF7DFFF012000
:104B000008BD4FF4C5610122FDF7D8FF012008BDA3
:104B100040F229610122FDF7D1FF012008BD40F2DA
:104B20002A610122FDF7CAFF012008BD40F22B6176
:104B30000122FDF7C3FF012008BD40F22C610122D4
:104B4000FDF7BCFF012008BD40F22D610122FDF7F9
:104B5000B5FF012008BD40F22E610122FDF7AEFF36
:104B6000012008BD40F22F610122FDF7A7FF0120BF
:104B700008BD4FF4C6610122FDF7A0FF012008BD6A
:104B800040F231610122FDF799FF012008BD40F29A
:104B900032610122FDF792FF012008BD40F233612E
:104BA0000122FDF78BFF012008BD40F23461012294
:104BB000FDF784FF012008BD40F235610122FDF7B9
:104BC0007DFF012008BD40F236610122FDF776FF2E
:104BD000012008BD40F237610122FDF76FFF01207F
:104BE00008BD002008BD00BF08B50139172900F233
:104BF0009D80DFE801F00C12181E242A30363C425A
:104C0000484E545A60666C72787E848A90964FF44F
:104C1000C4610122FDF760FF08BD40F2216101225D
:104C2000FDF75AFF08BD40F222610122FDF754FF53
:104C300008BD40F223610122FDF74EFF08BD40F29E
:104C400024610122FDF748FF08BD40F225610122E1
:104C5000FDF742FF08BD40F226610122FDF73CFF4F
:104C600008BD40F227610122FDF736FF08BD4FF471
:104C7000C5610122FDF730FF08BD40F22961012224
:104C8000FDF72AFF08BD40F22A610122FDF724FF4B
:104C900008BD40F22B610122FDF71EFF08BD40F266
:104CA0002C610122FDF718FF08BD40F22D610122A1
:104CB000FDF712FF08BD40F22E610122FDF70CFF47
:104CC00008BD40F22F610122FDF706FF08BD4FF439
:104CD000C6610122FDF700FF08BD40F231610122EB
:104CE000FDF7FAFE08BD40F232610122FDF7F4FE45
:104CF00008BD40F233610122FDF7EEFE08BD40F22F
:104D000034610122FDF7E8FE08BD40F23561012261
:104D1000FDF7E2FE08BD40F236610122FDF7DCFE40
:104D200008BD40F237610122FDF7D6FE08BD00BF85
:104D300008B50139172900F2B680DFE801F00C133D
:104D40001A21282F363D444B525960676E757C837B
:104D50008A91989FA6AD4FF4C7610122FDF7AEFE80
:104D6000012008BD40F239610122FDF7A7FE0120B4
:104D700008BD40F23A610122FDF7A0FE012008BD06
:104D800040F23B610122FDF799FE012008BD40F28F
:104D90003C610122FDF792FE012008BD40F23D6119
:104DA0000122FDF78BFE012008BD40F23E61012289
:104DB000FDF784FE012008BD40F23F610122FDF7AE
:104DC0007DFE012008BD4FF4C8610122FDF776FE8B
:104DD000012008BD40F241610122FDF76FFE012074
:104DE00008BD40F242610122FDF768FE012008BDC6
:104DF00040F243610122FDF761FE012008BD40F24F
:104E000044610122FDF75AFE012008BD40F24561D0
:104E10000122FDF753FE012008BD40F24661012248
:104E2000FDF74CFE012008BD40F247610122FDF76D
:104E300045FE012008BD4FF4C9610122FDF73EFE89
:104E4000012008BD40F249610122FDF737FE012033
:104E500008BD40F24A610122FDF730FE012008BD85
:104E600040F24B610122FDF729FE012008BD40F20E
:104E70004C610122FDF722FE012008BD40F24D6188
:104E80000122FDF71BFE012008BD40F24E61012208
:104E9000FDF714FE012008BD40F24F610122FDF72D
:104EA0000DFE012008BD002008BD00BF08B5013976
:104EB000172900F29D80DFE801F00C12181E242A49
:104EC00030363C42484E545A60666C72787E848A12
:104ED00090964FF4C7610122FDF7FEFD08BD40F238
:104EE00039610122FDF7F8FD08BD40F23A61012267
:104EF000FDF7F2FD08BD40F23B610122FDF7ECFD3C
:104F000008BD40F23C610122FDF7E6FD08BD40F21C
:104F10003D610122FDF7E0FD08BD40F23E61012246
:104F2000FDF7DAFD08BD40F23F610122FDF7D4FD37
:104F300008BD4FF4C8610122FDF7CEFD08BD40F267
:104F400041610122FDF7C8FD08BD40F24261012226
:104F5000FDF7C2FD08BD40F243610122FDF7BCFD33
:104F600008BD40F244610122FDF7B6FD08BD40F2E4
:104F700045610122FDF7B0FD08BD40F24661012206
:104F8000FDF7AAFD08BD40F247610122FDF7A4FD2F
:104F900008BD4FF4C9610122FDF79EFD08BD40F236
:104FA00049610122FDF798FD08BD40F24A610122E6
:104FB000FDF792FD08BD40F24B610122FDF78CFD2B
:104FC00008BD40F24C610122FDF786FD08BD40F2AC
:104FD0004D610122FDF780FD08BD40F24E610122C6
:104FE000FDF77AFD08BD40F24F610122FDF774FD27
:104FF00008BD00BF08B565391F2900F20281DFE84E
:1050000011F0200027002E0035003C0043004A002C
:10501000510058005F0066006D0074007B00820044
:105020008900900097009E00A500AC00B300BA0074
:10503000C100C800CF00D600DD00E400EB00F200A4
:10504000F9004FF4CD610122FDF738FD012008BDC4
:1050500040F269610122FDF731FD012008BD40F2F7
:105060006A610122FDF72AFD012008BD40F26B6153
:105070000122FDF723FD012008BD40F26C610122F1
:10508000FDF71CFD012008BD40F26D610122FDF716
:1050900015FD012008BD40F26E610122FDF70EFDF5
:1050A000012008BD40F26F610122FDF707FD0120DC
:1050B00008BD4FF4CE610122FDF700FD012008BDBF
:1050C00040F271610122FDF7F9FC012008BD40F2B8
:1050D00072610122FDF7F2FC012008BD40F273610C
:1050E0000122FDF7EBFC012008BD40F274610122B2
:1050F000FDF7E4FC012008BD40F275610122FDF7D7
:10510000DDFC012008BD40F276610122FDF7D6FCEE
:10511000012008BD40F277610122FDF7CFFC01209C
:1051200008BD4FF4CF610122FDF7C8FC012008BD86
:1051300040F279610122FDF7C1FC012008BD40F277
:105140007A610122FDF7BAFC012008BD40F27B61C3
:105150000122FDF7B3FC012008BD40F27C61012271
:10516000FDF7ACFC012008BD40F27D610122FDF796
:10517000A5FC012008BD40F27E610122FDF79EFCE6
:10518000012008BD40F27F610122FDF797FC01205C
:1051900008BD4FF4D0610122FDF790FC012008BD4D
:1051A00040F281610122FDF789FC012008BD40F237
:1051B00082610122FDF782FC012008BD40F283617B
:1051C0000122FDF77BFC012008BD40F28461012231
:1051D000FDF774FC012008BD40F285610122FDF756
:1051E0006DFC012008BD40F286610122FDF766FCDE
:1051F000012008BD40F287610122FDF75FFC01201C
:1052000008BD002008BD00BF08B565391F2900F2A0
:10521000D180DFE801F010161C22282E343A4046D7
:105220004C52585E646A70767C82888E949AA0A6EE
:10523000ACB2B8BEC4CA4FF4CD610122FDF74CFC3C
:1052400008BD40F269610122FDF746FC08BD40F24D
:105250006A610122FDF740FC08BD40F26B6101224A
:10526000FDF73AFC08BD40F26C610122FDF734FC09
:1052700008BD40F26D610122FDF72EFC08BD40F231
:105280006E610122FDF728FC08BD40F26F6101222A
:10529000FDF722FC08BD4FF4CE610122FDF71CFC96
:1052A00008BD40F271610122FDF716FC08BD40F215
:1052B00072610122FDF710FC08BD40F2736101220A
:1052C000FDF70AFC08BD40F274610122FDF704FC01
:1052D00008BD40F275610122FDF7FEFB08BD40F2FA
:1052E00076610122FDF7F8FB08BD40F277610122EB
:1052F000FDF7F2FB08BD4FF4CF610122FDF7ECFB97
:1053000008BD40F279610122FDF7E6FB08BD40F2DD
:105310007A610122FDF7E0FB08BD40F27B610122CA
:10532000FDF7DAFB08BD40F27C610122FDF7D4FBFA
:1053300008BD40F27D610122FDF7CEFB08BD40F2C1
:105340007E610122FDF7C8FB08BD40F27F610122AA
:10535000FDF7C2FB08BD4FF4D0610122FDF7BCFB95
:1053600008BD40F281610122FDF7B6FB08BD40F2A5
:1053700082610122FDF7B0FB08BD40F2836101228A
:10538000FDF7AAFB08BD40F284610122FDF7A4FBF2
:1053900008BD40F285610122FDF79EFB08BD40F289
:1053A00086610122FDF798FB08BD40F2876101226A
:1053B000FDF792FB08BD00BF08B5013903291FD8CE
:1053C000DFE801F0020910174FF4D1610122FDF767
:1053D00075FB012008BD40F289610122FDF76EFBDB
:1053E000012008BD40F28A610122FDF767FB012020
:1053F00008BD40F28B610122FDF760FB012008BD72
:10540000002008BD08B5013903291AD8DFE801F0EA
:1054100002080E144FF4D1610122FDF75DFB08BDB7
:1054200040F289610122FDF757FB08BD40F28A6115
:105430000122FDF751FB08BD40F28B610122FDF70F
:105440004BFB08BD10B5064C20460649FCF7C6FDCF
:1054500020460549FCF7C2FD0020044B187010BD22
:105460003C98FF1FE0A9FF1FFCA9FF1F449EFF1FE0
:1054700010B5354B1B78012B0BD1344B187800211C
:105480000A460CF047FF0246314800210CF006FFA7
:1054900047E02B2B0CD82D4B1978490808460022E1
:1054A0000CF038FF02462A4800210CF0F7FE38E0E5
:1054B000552B0BD80020254B197802460CF02AFFFB
:1054C0000246234800210CF0E9FE2AE0802B0CD88C
:1054D0001E4B1A785208002011460CF01BFF0246A2
:1054E0001B4800210CF0DAFE1BE0AA2B0BD8002091
:1054F0000146164B1A780CF00DFF024614480021A5
:105500000CF0CCFE0DE0D52B0BD8104B1A785208BE
:10551000104600210CF0FEFE02460D4800210CF062
:10552000BDFE0B480CF0FCFD084A13780833DBB2D3
:10553000137043B9074C20460749FCF74FFD20463E
:105540000649FCF781FD10BDC09DFF1FCCA5FF1FC4
:10555000B8A5FF1F3C98FF1FE0A9FF1FFCA9FF1F74
:1055600010B5314B1A78083AD2B21A702F4B1B780B
:10557000012B0AD1104600210A460CF0CBFE024650
:105580002B4800210CF08AFE3EE02B2B0AD8510854
:10559000084600220CF0BEFE0246254800210CF011
:1055A0007DFE31E0552B0AD80020114602460CF052
:1055B000B1FE02461E4800210CF070FE24E0802B54
:1055C0000AD85208002011460CF0A4FE02461848E2
:1055D00000210CF063FE17E0AA2B09D80020014639
:1055E0000CF098FE0246124800210CF057FE0BE02A
:1055F000D52B09D85208104600210CF08BFE02462C
:105600000B4800210CF04AFE09480CF089FD064BBE
:105610001B7843B9074C20460749FCF7DFFC2046BE
:105620000649FCF711FD10BDCCA5FF1FC09DFF1F53
:10563000B8A5FF1F3C98FF1FFCA9FF1FE0A9FF1F93
:1056400010B582B00024204612F0B8FE01AB185508
:105650000134042CF7D1019802B010BD70B582B0AE
:1056600001900DF10306002416F8015F204612F0A8
:10567000A5FE854203D02046294612F0B3FE013430
:10568000042CF1D102B070BD10B50446084803687F
:105690005B68084901229847092C04DC0448036828
:1056A0001B6830219847024821461CF0F1F910BDD3
:1056B00058B5FF1FC4A8020038B5FDF7BFF9014671
:1056C0001A4C20461CF0E4F9FDF7C2F9FFF7DCFFA5
:1056D000FDF7C8F9FFF7D8FF2368154D5B68204632
:1056E000294601229847FDF7C7F9014620461CF0DC
:1056F000CFF923685B682046294601229847FDF7C9
:10570000C5F9014620461CF0C3F923685B682046B2
:10571000294601229847FDF7C3F9014620461CF0AF
:10572000B7F920461CF054F938BD00BF58B5FF1F2B
:105730000897020010B5304B18781AF0B3FE0146F6
:105740002E4B18602E4C2046042213460BF09CFE74
:105750002C4B18781AF0A6FE01462B4B18602046F9
:10576000042213460BF090FE284B18781AF09AFE8C
:105770000146274B18602046042213460BF084FE96
:10578000244B18781AF08EFE0146234B18602046F1
:10579000042213460BF078FE204B18781AF082FE94
:1057A00001461F4B18602046042213460BF06CFE86
:1057B0001C4B18781AF076FE01461B4B18602046E9
:1057C000042213460BF060FE184B187812F0F6FC1A
:1057D00001462046042210230BF056FE144B187885
:1057E00012F0ECFC01462046042210230BF04CFE84
:1057F00020460BF027FE10BD14AAFF1F489EFF1F76
:105800008CB1FF1F15AAFF1F849EFF1F16AAFF1F42
:10581000509EFF1F17AAFF1F549EFF1F18AAFF1FAD
:10582000589EFF1F19AAFF1F5C9EFF1FCEA5FF1FDA
:10583000CFA5FF1F30B415462AB10023C45CCC5459
:105840000133AB42FAD130BC704700BF70B416468A
:1058500032B100240B44055D1D550134B442FAD128
:1058600070BC704710B503785BB100220A4914463A
:10587000FF2B0CBF54545354013210F8013F002B3E
:10588000F6D1054C204600211BF0C4FE2046002125
:1058900040221FF0A3F810BD009DFF1F2DE9F0412D
:1058A00080460C460E481CF093F8002C13DD45464C
:1058B000A0440B4C10270B4E204615F8011B3A460E
:1058C00000231CF0A9F823685B68204631460122BA
:1058D00098474545F0D102481CF07AF8BDE8F081C0
:1058E00058B5FF1F08970200F8B507460E46144D3D
:1058F000144C01E0FFF71EFF284621680BF0FCFC6A
:105900000028F7D00E48394632460BF02FFD2022F2
:105910000C4B1A600C4C20461CF05AF823685B684C
:1059200020460A4923229847204631460A2200236E
:105930001CF072F838463146FFF7B0FF0120F8BD81
:105940008CB1FF1FAC8CFF1F58B5FF1FD888020019
:105950002DE9F041334C23685B682046324915221B
:10596000984720461CF034F80025DFF8C88001274E
:10597000284612F023FD0646204629461CF088F8EA
:1059800023685B68204641463A46984720463146A0
:105990000A2200231CF040F820461CF019F80135BB
:1059A000B5F5006FE4D1002425462046294612F0C3
:1059B00019FD0134B4F5006FF7D11A4C23685B6808
:1059C00020461A491022984720461CF001F800256D
:1059D000DFF860800127284612F0F0FC06462046DA
:1059E00029461CF055F823685B68204641463A4634
:1059F0009847204631460A2200231CF00DF8204625
:105A00001BF0E6FF0135B5F5006FE4D1054C2368C6
:105A10005B68204606490D22984720461BF0D8FFB8
:105A2000BDE8F08158B5FF1FFC880200188902000C
:105A30002C8902001489020070B582B001A8FDF71C
:105A4000D9F89DF80440E4025848594922461BF011
:105A5000D5FF2046002109F0DFFA18B15348554917
:105A60001BF0CCFF514E304653491BF0C7FF04F5E5
:105A7000006530464E492A461BF0C0FF28460021EB
:105A800009F0CAFA18B130464A491BF0B7FF474E31
:105A9000304649491BF0B2FF04F580553046444971
:105AA0002A461BF0ABFF2846002109F0B5FA18B1D1
:105AB000304640491BF0A2FF3C4E30463E491BF0A9
:105AC0009DFF04F5C055304639492A461BF096FF24
:105AD0002846002109F0A0FA18B1304635491BF0DC
