:1000000000800020BD01000025DF0100E9DE0100C5
:10001000E9DE0100E9DE0100E9DE0100E9DE0100C0
:10002000E9DE0100E9DE0100E9DE010025DF010073
:1000300025DF0100E9DE010025DF0100D9DE010036
:1000400025DF010025DF010025DF010025DF01009C
:1000500025DF010025DF010025DF010025DF01008C
:1000600025DF010025DF010025DF010025DF01007C
:1000700025DF010025DF010025DF010025DF01006C
:1000800025DF010025DF010025DF010025DF01005C
:1000900025DF010025DF010025DF010025DF01004C
:1000A00025DF010025DF010025DF010025DF01003C
:1000B00025DF010025DF010025DF010025DF01002C
:1000C00025DF010025DF010025DF010025DF01001C
:1000D00025DF010025DF010025DF010025DF01000C
:1000E00025DF010025DF010025DF010025DF0100FC
:1000F00025DF0100E9FD010025DF0100E503020025
:1001000025DF01000509020025DF010025DF0100D0
:1001100025DF010025DF010025DF010025DF0100CB
:1001200025DF010025DF010025DF010025DF0100BB
:1001300025DF010025DF010025DF010025DF0100AB
:1001400025DF010025DF010025DF010025DF01009B
:1001500025DF010025DF010025DF010025DF01008B
:1001600025DF0100ADE3010025DF010025DF0100EF
:1001700025DF010025DF010025DF010025DF01006B
:1001800025DF010025DF010025DF010025DF01005B
:1001900025DF010025DF010025DF010025DF01004B
:1001A00025DF010025DF010025DF010025DF01003B
:1001B00025DF010025DF010025DF0100574B4CF250
:1001C000205210B51A804DF628121A8000BF00BFC9
:1001D0001DF0ACFE524B4FF010621A60514A9A600B
:1001E000514ADA60A3F53043203B1A6812F480725A
:1001F00004D14E490A604FF4A8521A604C4B1A7849
:10020000110703D51A7842F008021A70494B4A4C7C
:100210004A482A221A704A4A00239918A14203D256
:10022000195899500433F8E7464B474900228B424E
:1002300002D243F8042BFAE74448454900235A58B0
:100240001A500433B3F5DE7FF9D1424B424A802184
:1002500003F8011B9342FBD1404B3C4A1A60404BD0
:100260000A221A70A3F5805324225A70A0221A7011
:100270009A799207FCD59A79D406FCD4394A9379B5
:1002800003F00C03082B374BF9D103221A714022DB
:100290005A719A799006FCD5324A9179314B4906C8
:1002A000FBD5314A314911600221516020221A7078
:1002B0009A7902F00C020C2AFAD12D4B2D4A1A60C1
:1002C0002D4B4BF67F321A6000225A60072243F80A
:1002D000042C2A4AC3F80C2D62B61DF0E7FE134B1E
:1002E0001B68DA0705D526481DF052FE254B264A25
:1002F0001A60264B1B785B0609D5224C224A2368DC
:10030000934204D11E481DF043FE0023236021F0D8
:1003100067FE1DF011FE1FF0A5F9FEE70E20054057
:1003200030800440823F04000100002B14D00340C1
:1003300002D0074000E007409C96FF1F689E020025
:10034000708CFF1F9C96FF1FD0B7FF1F0082FF1FFE
:100350000000000000E400E05FE400E008ED00E0E1
:100360000050064000400640448004400000031155
:1003700004800440C010050014E000E000002020CC
:1003800039BFBE581CE00340A5C3945A00F0074093
:10039000FFFFFFFFFFFFFFFFFFFFFFFFFFFFFFFF6D
:1003A000FFFFFFFFFFFFFFFFFFFFFFFFFFFFFFFF5D
:1003B000FFFFFFFFFFFFFFFFFFFFFFFFFFFFFFFF4D
:1003C000FFFFFFFFFFFFFFFFFFFFFFFFFFFFFFFF3D
:1003D000FFFFFFFFFFFFFFFFFFFFFFFFFFFFFFFF2D
:1003E000FFFFFFFFFFFFFFFFFFFFFFFFFFFFFFFF1D
:1003F000FFFFFFFFFFFFFFFFFFFFFFFFFFFFFFFF0D
:10040000FFFFFFFFFFFFFFFFFFFFFFFFFEFFFFFFFD
:1004100010B5054C237833B9044B13B10448AFF33E
:1004200000800123237010BD9C96FF1F0000000078
:10043000609E020008B5064B1BB106480649AFF3A3
:1004400000800648036813B1054B03B1984708BD07
:1004500000000000609E0200A096FF1F9C96FF1FF8
:100460000000000038B5074D284605F0C9F8064CD5
:1004700023685B68204629460B22984720461FF0D8
:1004800011F938BDE45D0200B4B5FF1F70B5444BEF
:100490001C68217891B9204622F010FC02464148A0
:1004A00001684D682146A8473F4C20463F4901F06E
:1004B000ABFC20463E4901F0D7FC70BD01290FD1AD
:1004C00044F22B001EF0A6FD0A201DF0D9FD44F2D7
:1004D0002B001EF03FFD324B1A6801321A6070BDCE
:1004E00002290FD144F228001EF094FD0A201DF0CD
:1004F000C7FD44F228001EF02DFD294B1A68013279
:100500001A6070BD092944D12A4A1278002A37D1CD
:10051000244C23685B68204627490F2298472046D1
:100520001FF0C0F80122254B1A60254812F0E0FAAE
:10053000244B1E6806F57A66204C1D4601E00AF041
:10054000FBFF236813B12B689E42F8D800221B4B97
:100550001A60154C2046154901F056FC20461449F6
:1005600001F082FC70BDA1F10A034FF47A7000FB28
:1005700003F01DF085FD0A4B1A6801321A6070BD48
:100580001148026812689047054B1A6801321A60D8
:1005900070BDA1F10A02D2B2152AF1D8E3E700BF7B
:1005A000FC97FF1FB4B5FF1F3498FF1FE096FF1F95
:1005B000C496FF1FA89AFF1FF05D020048B1FF1FFD
:1005C0008956000088B4FF1FACB5FF1F38B505463B
:1005D0000C46084622F072FB02462B685B682846F0
:1005E0002146984738BD00BF38B504460D46084639
:1005F00022F064FB024623685B6820462946984740
:10060000054620461FF04EF8284438BD38B505464B
:100610001FF0A8F8044628461FF044F8204438BDCF
:1006200038B500228F4B1A7006228F4B1A700122A8
:100630008E4B1A7016228E4B1A7017228D4B1A7021
:1006400011228D4B1A700F228C4B1A7010228C4B7A
:100650001A700E228B4B1A7015228B4B1A7007F0F2
:10066000ADFA8A48202105F0C3F9894B1B78DE2BAF
:100670002CD105F03DF844200DF0B0FD044685482E
:100680000268556884491422A8472CB18148036840
:100690005B688249042298477E4C23685B68204649
:1006A0007F491422984720461EF0FCFF01227D4B13
:1006B0001A7000227C4B1A7023685B6820467B49C5
:1006C0001822984720461EF0EDFF68E0442B56D1D3
:1006D000002854DD7648202105F02AFA754805F0F7
:1006E000B9FA754805F048FB744D284602F03CF90C
:1006F000684C23685B68204671490C229847204665
:100700001EF0D0FF204629780A2200231EF0EEFFBB
:1007100020461EF0C7FF2B780BB904222A706948C7
:1007200002F002F9684D284602F02EF9594C236870
:100730005B68204665491122984720461EF0B2FFAB
:10074000204629780A2200231EF0D0FF20461EF002
:10075000A9FF15F0B7FD0022524B1A700122524B2F
:100760001A7023685B68204659490B229847204637
:100770001EF098FF5748584901F076FB0FE0012220
:10078000484B1A700022484B1A70424C23685B6831
:10079000204652491E22984720461EF083FF504CA7
:1007A0002046504940F2FD720FF076FF01F0FEFA4C
:1007B00020464D49242200230FF018FF20463349DC
:1007C000202200230FF012FF2E4B187815F06AFC40
:1007D00001462046042208230FF008FF2A4B187810
:1007E00015F060FC01462046042208230FF0FEFEAF
:1007F000284C23685B6820463C490C2298472046D9
:1008000040F29A611EF0AEFF20461EF04BFF2046DC
:100810001F4B1978102200231EF068FF20461EF09F
:1008200041FF23685B6820463149092298472046EA
:100830000C4B19781EF096FF20461EF033FF04F093
:1008400047FE0420022107F083F90123154A1370A3
:10085000284A1370144A13701E48274901F004FBFC
:1008600038BD00BFA89AFF1F419EFF1F8CA2FF1F2B
:100870008DA2FF1F8EA2FF1F449EFF1F90AAFF1F85
:1008800091AAFF1F429EFF1F439EFF1F3898FF1F24
:1008900002000240B4B5FF1F005E0200185E0200B5
:1008A000205E0200E89AFF1FA99AFF1F385E02002F
:1008B0007898FF1F9898FF1F5898FF1FA88CFF1F5C
:1008C000545E0200A48CFF1FBCB7FF1F645E0200D1
:1008D000E45D02003498FF1FF496FF1F785E02006B
:1008E000E8B1FF1F985E02001098FF1FA45E02008F
:1008F000B45E020070A2FF1FC496FF1F2DE9F04FE7
:100900009DB081460025A44B1D70A44C23685B68F4
:100910002046A3490C229847A24B1968204630393B
:100920001EF020FF20461EF0BDFE0CA829464022E6
:1009300021F0BEFE9C482946EE2221F0B9FE0CA80B
:10094000494605F0ABFAB0F1000A5FDD23685B6849
:10095000204696491922984720461EF0A3FE236898
:100960005B68204692490D229847204651461EF06A
:10097000F9FE20461EF096FE8E4B1B78002B40F0B1
:10098000128423685B6820468B49092298472046D9
:100990001EF088FE0DF12F0404EB0A087F4F10268D
:1009A000384614F8011F32462B461EF09FFE444580
:1009B000F6D17A481EF076FE804B93F82210723101
:1009C0000CA849447E4A534608F00AFEEBE3384639
:1009D00014F8011F32462B461EF088FE4445F6D11E
:1009E0006E4C20461EF05EFE6B4D85F800A023681D
:1009F0005B68204673491822984720461EF052FE35
:100A00002B780221684AD15401332B700CA80021A5
:100A1000402221F04DFE0CA8494603F0CDFC9DF884
:100A20003030002B2CD05D4C23685B682046664933
:100A30001D22984720461EF035FE23685B6820463D
:100A400062490622984720469DF830100A2200236A
:100A50001EF04CFE23685B6820465D4921229847C2
:100A600020461EF01FFE9DF830301E2B0BD8009341
:100A7000494A11780A334C4843540131117004E05B
:100A80000023009301E0002300930CA8494605F0E1
:100A9000D9FDB0F1000A53DD404C23685B68204665
:100AA0004C491E22984720461EF0FCFD23685B68D7
:100AB0002046494912229847204651461EF052FED0
:100AC00020461EF0EFFD3B4B1B78002B40F085834A
:100AD00023685B68204638490922984720461EF063
:100AE000E1FD0DF12F0404EB0A082C4F1026002520
:100AF000384614F8011F32462B461EF0F7FD4445D8
:100B0000F6D126481EF0CEFD2C4B93F822107531FD
:100B10000CA849442A4A534608F062FD5DE3384672
:100B200014F8011F32462B461EF0E0FD4445F6D175
:100B30001A481EF0B7FD184B1A78924483F800A0AB
:100B40000CA80021402221F0B3FD0CA8494603F077
:100B50006DF89DF83030002B61D0312B42D10F4C15
:100B600023685B6820461D491F22984720461EF0D7
:100B700099FD094D2B7801210B4AD15423685B68FC
:100B8000204617490322984720461EF08BFD2B78FC
:100B900001332B7043E000BFDC96FF1FB4B5FF1F8D
:100BA000C05E0200BC96FF1F0C97FF1FD05E0200C4
:100BB000EC5E0200A89AFF1FFC5E02001098FF1F67
:100BC0007898FF1F085F0200245F0200445F020064
:100BD0004C5F0200705F0200905F0200A45F0200A1
:100BE000C45F0200322B1AD19B4C23685B682046FD
:100BF0009A491F22984720461EF054FD984D2B78A5
:100C00000221984AD15423685B68204696490622FF
:100C1000984720461EF046FD2B7801332B700CA818
:100C20000021402221F044FD0CA8494603F0F6FCC7
:100C30009DF83030002B2CD0874C23685B68204611
:100C40008A491D22984720461EF02CFD23685B68C8
:100C5000204687490622984720469DF830100A22F0
:100C600000231EF043FD23685B6820468149212252
:100C7000984720461EF016FD9DF830301E2B0BD8ED
:100C80009B46774A11780A337648435401311170F4
:100C900004E04FF0000B01E04FF0000B0CA84946B8
:100CA00002F09AFCB0F1000A53DD6B4C23685B68DC
:100CB000204671491F22984720461EF0F3FC236806
:100CC0005B6820466D4912229847204651461EF027
:100CD00049FD20461EF0E6FC694B1B78002B40F0D6
:100CE000958223685B68204666490922984720461A
:100CF0001EF0D8FC0DF12F0404EB0A08564F102605
:100D00000025384614F8011F32462B461EF0EEFC33
:100D10004445F6D150481EF0C5FC5B4B93F82210B9
:100D200070310CA84944594A534608F059FC6DE209
:100D3000384614F8011F32462B461EF0D7FC4445B6
:100D4000F6D145481EF0AEFC454B1A78924483F824
:100D500000A00CA80021402221F0AAFC0CA84946C2
:100D600003F096F89DF83030002B38D0312B1AD193
:100D7000394C23685B68204645491F229847204626
:100D80001EF090FC23685B68204642490322984786
:100D900020461EF087FC324B1A78012031498854D6
:100DA00002441A701BE0322B19D12B4C23685B686C
:100DB000204637491F22984720461EF073FC2368BF
:100DC0005B68204634490622984720461EF06AFC9C
:100DD000234B1A7802202349885401321A700CA838
:100DE0000021402221F064FC0CA8494603F048FD94
:100DF0009DF83030002B2CD0174C23685B682046C0
:100E000026491D22984720461EF04CFC23685B684B
:100E1000204617490622984720469DF830100A229E
:100E200000231EF063FC23685B6820461C491C22DB
:100E3000984720461EF036FC9DF830301E2B31D8E6
:100E40009846074A11780A33064843540131117015
:100E50002AE04FF0000827E0B4B5FF1FA45F0200AE
:100E6000DC96FF1F0C97FF1FC85F0200D05F0200D7
:100E7000445F0200F05F0200146002003460020070
:100E8000A89AFF1FFC5E02001098FF1F7898FF1FB2
:100E900048600200C45F02006860020070600200E7
:100EA000906002004FF000080CA80021402221F0C1
:100EB000FFFB0CA8494603F045FE9DF83030002B9F
:100EC00000F05681672B40F0E0808B4C23685B6814
:100ED00020468A491E22984720461EF0E3FB0CA8B4
:100EE000494605F0EFFF019023685B68204684497E
:100EF0000922984720461EF0D5FB019B002B0FDDF1
:100F00000DF12F049A46A2447B4F10260025384647
:100F100014F8011F32462B461EF0E8FB5445F6D16B
:100F2000754C20461EF0BEFB23685B682046754961
:100F300012229847204601991EF014FC20461EF00C
:100F4000B1FB714B1B784BB9704B93F82210743185
:100F50000CA849446E4A019B08F042FB0CA86D495D
:100F6000019A6D4B1B7804F03FFB634C23685B6870
:100F700020466A490B22984720461EF093FB019BAE
:100F8000002B0FDD0DF12F049A46A2445A4F102674
:100F90000025384614F8011F32462B461EF0A6FBEA
:100FA0005445F6D1544C20461EF07CFB02A80CA9F7
:100FB000019A01F0B5FA01F003FC009B1844834448
:100FC000D844204641461EF0CDFB20461EF06AFB69
:100FD00002A8414601F0A8FA044601F071FC78B974
:100FE0004D4B1B784B4A4E21D15413444F225A701B
:100FF00054229A705321D970452119715A710FE00A
:10100000454B1B782178434AD15461781344597079
:10101000A2789A70E278DA7022791A7162795A713C
:101020003D4B1A7806321A700CA80021402221F09C
:101030003FFB0CA8494603F05DF89DF8303023B320
:10104000312B10D12C4C20463549FFF7CDFA2046E4
:101050003449FFF7C9FA304B1A7801202D498854DA
:1010600002441A7011E0322B0FD1234C20462C4938
:10107000FFF7BAFA20462C49FFF7B6FA264B1A7842
:1010800002202449885401321A709DF83030792B9F
:1010900060D11D4B1B78002B6AD1174C23685B680D
:1010A000204622491822984720461EF0FBFA1A4C87
:1010B00023781848184406F0E5FC23782C33237075
:1010C0000CA8494603F016F89DF83030002B4FD09D
:1010D000312B2DD1084C20461149FFF785FA2046C7
:1010E0001049FFF781FA0C4B1A78012009498854FE
:1010F00002441A702EE000BFB4B5FF1FB0600200BA
:10110000FC5E0200D0600200A89AFF1F1098FF1F2B
:101110007898FF1F0C97FF1FDC96FF1FE46002000A
:10112000F0600200C45F020068600200106102000B
:10113000322B0FD1434C20464349FFF755FA204646
:101140004249FFF751FA424B1A780220414988542C
:1011500001321A709DF83030752B09D13E4B1B7847
:1011600033B93B4B1A7809203A49885401321A7036
:10117000384D374B1B780022EA54324C23685B68A9
:10118000204636491922984720461EF08BFA2978C6
:10119000002954D023681B682046984715F8011F82
:1011A0000029F7D14BE00CA82A495246284B1B785E
:1011B00004F01AFA234C23685B68204628490B2266
:1011C000984720461EF06EFA0DF12F040AEB040832
:1011D0001C4F10260025FFF7FABB0CA81D495246EC
:1011E0001B4B1B7804F000FA164C23685B68204602
:1011F0001B490B22984720461EF054FA0DF12F048C
:1012000004EB0A080F4F1026002588E40CA81149AA
:1012100052460F4B1B7804F0E7F90A4C23685B68D1
:1012200020460F490B22984720461EF03BFA0DF14D
:101230002F0404EB0A08034F1026002578E51DB0A3
:10124000BDE8F08FB4B5FF1FF060020068600200D7
:10125000DC96FF1F0C97FF1FA89AFF1F2C6102004E
:10126000E460020038B5144B1B7873B9134C236843
:10127000134D5B68204629462D22984720461EF0D4
:1012800011FA284604F0BCF938BD002006F0A2FC93
:101290000C4B1A680C4B1A600C4B1B781BB10C4B97
:1012A0001C68243C04E00A4B1C68303C06F0FEFB42
:1012B0002046FFF723FB38BDA99AFF1FB4B5FF1FD7
:1012C0004861020088B4FF1F74A2FF1FA89AFF1F85
:1012D000BC96FF1F38B5144B1B7873B9134C2368A9
:1012E000134D5B68204629462D22984720461EF064
:1012F000D9F9284604F084F938BD552006F06AFC77
:101300000C4B1A680C4B1A600C4B1B781BB10C4B26
:101310001C68243C04E00A4B1C68303C06F0C6FB09
:10132000A01DFFF7EBFA38BDA99AFF1FB4B5FF1F48
:101330004861020088B4FF1F74A2FF1FA89AFF1F14
:10134000BC96FF1F70B582B00546964B1B781BB943
:101350002D2006F03FFC02E0002006F03BFC924B03
:101360001B68022B10DD914803685B689049592285
:101370009847904E904D0124304604F041F92C706E
:10138000052006F049FCF7E78C4B1B78002B57D063
:10139000684601F019FB9DF80030002B00F0188220
:1013A00001A801F001FB814C20468549FFF71CF99B
:1013B00020469DF804100A2200231EF097F92046CB
:1013C0001EF070F99DF80430132B0ED97D4B03F1FC
:1013D0002101FF2203F8012F8B42FBD17A4804F050
:1013E000E1FB002001F0E8FA05E05A1C02A800F831
:1013F000042D01F0E1FA9DF800300133DBB28DF8E5
:1014000000300A2B16D9694C23685B6820466F4967
:101410001B22984720461EF045F920469DF80010F3
:101420000A2200231EF062F920461EF03BF907F065
:10143000F1F9D6E1684601F0CFFA00225F4B1A704D
:101440006348644B197800F06BFD564B1B784BB921
:101450005F4800F093FD28B95D4800F071FE002858
:1014600000F066814F4B1B78002B2FD1002001F03C
:10147000B3FA574800F062FD00224B4B1A60564CFD
:10148000204604F0BDF85548554900F0BDFC4748DA
:101490002146FFF7A9F8534B1B7833B908F0F4F84D
:1014A0000BF034FC002001F087FA4F4B1A684F4BC9
:1014B0001A6001223B4B1A704D4B1B78002B00F039
:1014C00090813D4B1A7006F007FB8AE1494B1B687F
:1014D00023B9494B1B78002B2DD182E1032B0BDC68
:1014E000324C20464549FFF771F83A4B19682046BF
:1014F0003039FFF78BF874E1062B0BDC2B4C2046C0
:101500003F49FFF763F8334B196820463039FFF73E
:101510007DF866E1334B1B78002B40F06281234C51
:1015200020463849FFF752F82A4B196820463039CF
:10153000FFF76CF855E10022334B1A70334B1B78E0
:10154000012B16D1324A1178224A1268914240F09A
:101550009980164C20462F49FFF738F81D4B196823
:1015600020463039FFF752F8284B1A7801321A70AA
:1015700037E1022B54D1284B1A78164B1B689A423C
:1015800040F08180094C20462449FFF71FF8114B99
:10159000196820463039FFF739F81C4B1A780132A8
:1015A0001A701EE1E89AFF1F0897FF1FB4B5FF1FCE
:1015B00078610200D4610200509AFF1F888CFF1FDF
:1015C000346202007798FF1F7898FF1F7062020054
:1015D000B099FF1FBC96FF1F8C6202003498FF1F5A
:1015E000F496FF1FA89AFF1F88B4FF1F74A2FF1F65
:1015F00070A2FF1F489EFF1FA99AFF1F986202005A
:10160000B0620200CC6202000C97FF1F60ADFF1FAA
:1016100010AEFF1FE862020011AEFF1FFC62020065
:10162000032B2FD1704B1A78704B1B689A422AD12A
:101630006F4C20466F49FEF7C9FF6C4B1968204676
:101640003039FEF7E3FF6C4B1A7801321A7044F21E
:1016500028001DF0DFFC0A201CF012FD44F22800D7
:101660001DF078FC654B1B79ED2B02D163480AF025
:101670007FFF624B1B79F02B40F0B3805F480BF08B
:101680008DF9AEE0C3B100245B4B1C7006F00EFA7E
:1016900044F228001DF0BEFC0A201CF0F1FC44F2CC
:1016A00028001DF057FC564803F0AAFF554B1C605C
:1016B000552006F08FFA94E0312D20DD4B4B1B684E
:1016C000312B0CD1504D514C2846214600F09CFB4B
:1016D00008F0B8FC2846214600F0C6FB81E0362B16
:1016E0000DD101244A4B1C7000224A4B1A704A4B00
:1016F0001C704A4800F022FC494B1C6071E00A2D26
:101700006ADC434B1B7823B9FFF7ACFD01E0FFF720
:10171000E1FD444A444B1A603B4C20463B4900F0F3
:1017200073FB20464149424B1A7800F07FFB58E09A
:101730003A4800F0C1FC30B12D483E49FEF754FF55
:1017400007F068F84DE0364B1B68092B17DC284C76
:1017500020463949FEF73AFF244B196820463039B4
:10176000FEF754FF20463549FEF730FF2C4D20464A
:101770002968FEF74BFF2B6801332B6031E0012510
:10178000254B1D702E4B1A682A441A602D4B1D7074
:10179000032006F041FA164C20462B49FEF716FFAF
:1017A000684601F011F99DF800102046C1F10A01C8
:1017B0001DF0D8FF20462549FEF716FF2046244994
:1017C000FEF712FF154800F0B9FB154B1D6008E04D
:1017D00001238DF800302DE60D4B1B78002B98D19E
:1017E00095E702B070BD00BF12AEFF1FBC96FF1F91
:1017F000B4B5FF1F1063020060ADFF1F649AFF1FA6
:10180000246302004C9AFF1F3498FF1FC496FF1FE9
:1018100070A2FF1FE89AFF1F888CFF1FB099FF1F5F
:10182000848CFF1F0C97FF1FFC97FF1FE096FF1F84
:10183000A88CFF1F4C6302009862020068630200DC
:101840000897FF1F509AFF1F94630200B0630200C5
:10185000E863020010B56E4B1B7813B36D4B1B7819
:10186000FBB909F069FE6C4B1B78D3B106F016F991
:101870006A4B1B78ABB16A4A11684EF6602202FBD4
:1018800003F3684A12688A1A93420AD80022604B0E
:101890001A700124644B1C70644800F04FFB644BC9
:1018A0001C60644B1B7853B1594B1B783BB1624BA6
:1018B0001B7823B90122614B1A7006F00DF903F071
:1018C00007FE5F4B1A6840F2DC539A420CD90023A2
:1018D0005C4A13605C4A13605C4B1A6801321A6000
:1018E00035225B4B1A607EE05A4B1A6840F2DC539B
:1018F0009A420CD90023534A1360534A1360534B46
:101900001A6801321A603222514B1A606BE0524B56
:101910001A6840F2DC539A420CD90023494A1360FA
:10192000494A1360494B1A6801321A603122484B08
:101930001A6058E0494B1A6840F2DC539A420CD9BD
:101940000023404A1360404A1360404B1A6801323A
:101950001A6033223E4B1A6045E0414B1A6840F250
:10196000DC539A420CD90023364A1360364A13607E
:10197000364B1A6801321A603422354B1A6032E055
:10198000384B1A6840F2DC539A420CD900232D4A96
:1019900013602D4A13602D4B1A6801321A603622EB
:1019A0002B4B1A601FE0294B1C6820461FF030FFAC
:1019B0004FF07C511FF0ECFF08B1234B1C6000225C
:1019C000224B1A601F4B1A6801321A60104B1B78A9
:1019D0001BB9002006F0FEF805E0174B1B7813B981
:1019E000552006F0F7F8184B1C68002C0EDD154B3F
:1019F00018681FF00DFF4FF07C511FF0C9FF28B190
:101A00002046FFF79FFC00220F4B1A6010BD00BF5D
:101A1000E89AFF1F60ADFF1FA99AFF1FA48CFF1F4C
:101A200088B4FF1F74A2FF1F888CFF1FB099FF1F8F
:101A3000848CFF1F70A2FF1F409EFF1F509AFF1F44
:101A4000E09AFF1FB896FF1FD896FF1FC096FF1F92
:101A5000BC96FF1FE49AFF1FAC9AFF1FB09AFF1FAE
:101A6000B49AFF1FB89AFF1F08B514F0C5FB0848C9
:101A70006421084A00F03EFA07486421074A00F052
:101A800039FA07484FF47A71064A00F033FA08BD74
:101A9000C496FF1F55180000E096FF1F8D0400003C
:101AA000F496FF1F650400002DE9F00FCAB0019005
:101AB0000A460023D078CC5C40EA0460547840EABF
:101AC0000440947840EA042003F128056C4628512C
:101AD00004330432402BEDD10AAB0022986B5968D5
:101AE0005D6A02F128076E46BC592C444FEA7045E6
:101AF00085EAF04585EA902020444FEAF11484EA13
:101B0000B14484EAD1010144196404320433C02A87
:101B1000E4D10199096D0291019A526D0392019BE2
:101B20009B6D0493019CE46D0594019D2D6E0695BB
:101B3000019E766E0796019FBF6E08970199C96E48
:101B4000099189463D46B446069BA0460498144632
:101B5000029A0021DFF8A8A001F1280B6F465BF87C
:101B6000076051F80A7037444FEAB31686EAF32645
:101B700086EA7366374425EA03060CEA030B86EA15
:101B80000B063E444E4480EA0407174000EA04096D
:101B900087EA09074FEAB20989EA723989EAB25934
:101BA0004F44B0443E440431B1F5807F08D0A9468B
:101BB00065469C4643468046204614463246CBE75F
:101BC00002990E44019F3E6503990A447A65049A7E
:101BD0001444BC65059C2044F865069A42443A6664
:101BE000079E33447B66089B6344BB66099F3D4464
:101BF000DDF804B0CBF86C504AB0BDE8F00F704788
:101C0000286402000023036400220023C0E9122399
:101C10000A4B03650A4B43650A4B83650A4BC36550
:101C20000A4B03660A4B43660A4B836603F17453FF
:101C3000A3F52303A3F69243C366704767E6096AD8
:101C400085AE67BB72F36E3C3AF54FA57F520E51DD
:101C50008C68059BABD9831F2DE9F8430646904657
:101C6000DAB10F4688444FF00009336C17F8012BA6
:101C7000F25401333364402B0DD130463146FFF727
:101C800013FFD6E9124514F5007445F10005C6E9C5
:101C90001245C6F840904745E7D1BDE8F88300BF3C
:101CA0002DE9F84F80468946026C372A0CD8531C20
:101CB00080218154372B1CD802440021013302F8C3
:101CC000011F382BFAD114E0531C802181543F2B83
:101CD00006D802440021013302F8011F402BFAD13B
:101CE00040464146FFF7E0FE40460021382220F002
:101CF000DFFCD8F84030D900D8E91223521843F15C
:101D00000003C8E9122388F83F20100A40EA036064
:101D1000190A88F83E00160C46EA03461F0C88F89C
:101D20003D60140E44EA03241D0E88F83C4088F8F8
:101D30003B3088F83A1088F8397088F838504046B7
:101D40004146FFF7B1FE0322D300D8F85010D94026
:101D500089F80010D8F85410D94089F80410D8F840
:101D60005810D94089F80810D8F85C10D94089F883
:101D70000C10D8F86010D94089F81010D8F8641009
:101D8000D94089F81410D8F86810D94089F818108B
:101D9000D8F86C1021FA03F389F81C30013A09F1E4
:101DA0000109B2F1FF3FCFD1BDE8F88F00B583B094
:101DB00006490A684B6888680090C9680191044820
:101DC000044920F0DBFE03B05DF804FB0098FF1F20
:101DD0001098FF1F28650200064B1A68064B1A6010
:101DE000064A12685A60064A12689A60054A1268E2
:101DF000DA607047548004400098FF1F5880044008
:101E00005C80044060800440026872B18A4209D15B
:101E1000136903607047994201D01A4602E00B69CA
:101E2000136170471369002BF5D17047F8B5074669
:101E30000D461646FFF7E8FF3C680CB93D6004E02C
:101E400023690BB11C46FBE725611CF0F7F82B68F2
:101E5000C01A686006FB06F642F2107303FB06F632
:101E60002E6000232B61F8BD38B505460C46FFF700
:101E7000CBFF2A680AB92C6004E013690BB11A463B
:101E8000FBE714611CF0DAF82368C01A60600023D5
:101E9000236138BD38B50C461CF0D0F805466268A1
:101EA00023681344984205D36268934208D262685B
:101EB000904205D36268954207D26268934204D388
:101EC000A560E36820469847656038BD38B505468B
:101ED0002C68002CFCD028462146FFF7DBFF246944
:101EE000002CF8D1F4E700BF08B50148FFF7EEFF7A
:101EF0003498FF1F10B44FF47A7404FB01F10160B1
:101F0000C2600022426002615DF8044B704700BF6E
:101F10000161002202730270704700BF01617047C7
:101F2000037B0B2B07D05A1CD2B20273C15400237F
:101F30008354012070470020704700BF00230373C3
:101F40000370704710B401690A78047800237AB9E5
:101F5000D4F1010038BF00200DE011F8012F10F876
:101F6000014F01330B2BF2D1002004E0002002E0EE
:101F7000A242F2D0FAE75DF8044B70472DE9F04732
:101F80009CB006460024DFF814810546335D04F852
:101F900008300134284620F091FEA042F6D268466F
:101FA000FFF730FE284620F089FE024668463B498E
:101FB000FFF752FE3A4803685B683A490B2298479C
:101FC000394B5C1E03F11F08354F1026002538469B
:101FD00014F8011F32462B461DF088FB4445F6D10C
:101FE0002F4C20461DF05EFB68462F492022FFF74C
:101FF00033FEDFF8A89068464946FFF751FE236894
:102000005B68204629490D22984709F1FF3409F100
:102010001F08234F10260025384614F8011F3246AA
:102020002B461DF063FB4445F6D11D4C20461DF0A8
:1020300039FB23685B6820461D4909229847DFF871
:1020400074A00AF1FF340AF11F08154F102600256D
:10205000384614F8011F32462B461DF047FB444515
:10206000F6D10F481DF01EFB124B19780B4B1A7856
:102070000AF11E00534604E0914214BF00200120E3
:1020800009E0914206D113F8011F19F8012F83428C
:10209000F7D1F1E700201CB0BDE8F087B898FF1F2A
:1020A000B4B5FF1F406502003898FF1F4C65020061
:1020B0005C6502007898FF1F2DE9F8431C4C204610
:1020C0001DF0F0FA23685B6820461A490C229847F5
:1020D000DFF8649009F1FF3409F11F08144F10264E
:1020E0000025384614F8011F32462B461DF0FEFA33
:1020F0004445F6D10E481DF0D5FA0F4B1A780F481B
:10210000017809F11E044B4605E08A4214BF002005
:102110000120BDE8F8838A4206D113F8012F10F898
:10212000011FA342F7D1F0E70020BDE8F88300BF0C
:10213000B4B5FF1F686502009898FF1FB898FF1F8D
:102140002DE9F8431E4C20461DF0ACFA23685B686D
:1021500020461C490C229847DFF86C9009F1FF34A7
:1021600009F11F08164F10260025384614F8011FE4
:1021700032462B461DF0BAFA4445F6D110481DF000
:1021800091FA114B1A781148017809F11E044B4657
:1021900006E08A420DD101200D4B1870BDE8F8838E
:1021A0008A4209D113F8012F10F8011FA342F7D179
:1021B000EFE70020BDE8F8830020BDE8F88300BF0A
:1021C000B4B5FF1F786502005898FF1FB898FF1F2D
:1021D000A89AFF1F08B514F00FF808BD70B40546A3
:1021E000064C0FCCE86429656A65AB652068E86534
:1021F00000232B6685F8483070BC70478C8CFF1F1D
:102200002DE9F00F86B0C36C0193076D0297436D03
:102210000393876D0497C36D05931E463C4603994F
:10222000DDF808C0019D0E220023DFF808A1DFF8C9
:1022300008912CE00F2B24D903F00F0600EB860643
:1022400002F00F0808F1020850F82880B76887EA02
:102250000808A2F1050B0BF00F0B0BF1020B50F865
:102260002BB088EA0B08A2F10B0B0BF00F0B0BF154
:10227000020B50F82BB088EA0B084FEAF878C6F842
:102280000880013226460C466146AC46009D132B61
:102290000CD884EA010808EA0C0888EA040808F166
:1022A000B54808F51E3808F299181FE0272B05D805
:1022B00084EA010888EA0C08C84417E03B2B09D8D7
:1022C0004CEA010808EA04080CEA010748EA070892
:1022D000D0440BE084EA010888EA0C0808F14A4877
:1022E00008F5C50808F5834808F1560803F00F07FC
:1022F000023750F8277007EBF5674744BE19009680
:102300004FEABC0C0133DBB2502B93D1019B334419
:10231000C364029B1D440565039B63444365049F9E
:1023200039448165059B1C44C46506B0BDE8F00FC7
:10233000704700BFDCBC1B8FA1EBD96E10B5044603
:1023400090F8483083F00302024411720133DBB28B
:1023500080F84830402B04D1FFF752FF002384F867
:10236000483010BD08B5026E01320266FFF7E6FF85
:10237000012008BD38B504468021FFF7DFFF94F83F
:102380004830382B08D0002520462946FFF7D6FFD5
:1023900094F84830382BF7D120460021FFF7CEFFC4
:1023A00020460021FFF7CAFF20460021FFF7C6FFA5
:1023B000216E2046490FFFF7C1FF216E2046C1F371
:1023C0004751FFF7BBFF216E2046C1F34731FFF7AE
:1023D000B5FF216E2046C1F34711FFF7AFFF236E13
:1023E000D900204601F0F801FFF7A8FF38BD00BF73
:1023F00038B50546FFF7BEFF2A460021D36C1C0EF8
:1024000044EA0364180200F47F0004431B0A03F447
:102410007F432343D364013104320529EED105F112
:102420004C0038BDF8B505460C46164600F1640769
:1024300038460021402220F03BF9402E1ADD284684
:10244000FFF7CCFE46B126442B681B68284614F8DB
:10245000011B9847B442F7D12846FFF7C9FF03682C
:1024600044688168C2686B667C60B960FA60036921
:102470003B6104E038462146324613F06BFC2846A7
:10248000FFF7ACFE05F1630405F1A3062B6814F811
:10249000011F1B68284681F036019847B442F5D1E8
:1024A000F8BD00BF70B50546FFF7A2FF0268466899
:1024B0008468C168C5F8A420C5F8A860C5F8AC4018
:1024C000C5F8B0100269C5F8B4202846FFF786FEAB
:1024D00005F1630405F1A3062B6814F8011F1B68BE
:1024E000284681F05C019847B442F5D105F1140605
:1024F0002C462B681B68284694F8A4109847013492
:10250000B442F6D12846FFF773FF70BD024B00229C
:102510001A71024A1A607047D898FF1F906502002E
:1025200001604260704700BF70B50446224B83FBD8
:1025300001230B44C917C1EB2311816000250573EA
:1025400045738573C5730B0E03740B1443740B1220
:102550008374C174194E304621686268FFF762FFC8
:1025600033685B68304604F10C0108229847304616
:10257000FFF798FF6061C27C02F00F02A261E56183
:102580002B461044E2691202E261C15C0A43E26137
:102590000133042BF6D122F00043094A82FB0312D7
:1025A0009214084901FB1232E261203420460649A8
:1025B00020F0E4FA204670BD89888888D898FF1FEB
:1025C00083DE1B4340420F00986502002DE9F00FA7
:1025D0005B4BA3FB00425209C2EB0214A0EB840048
:1025E0000870A3FB02A35B09C3EB0310A2EB8002FC
:1025F0004A70544CA4FB03084FEA181808EB480231
:10260000A3EBC2038B70474608F104004E4AA0FBBF
:102610000223C21A03EB52039B08C3EBC303C01A85
:102620000130C8700020024640F26D1C474C4FF04C
:1026300064094FF4B77BC5B205F2B273ABB113F0C6
:10264000030F14D184FB03A6761109FB163686B955
:1026500084FB03A6F6114FF4C87A06FB1A36002E47
:102660000CBF4FF4B776664604E0664602E0664665
:1026700000E05E46324401309742DCD28D71CBB12E
:1026800013F0030F19D1314880FB0340401164243B
:1026900004FB1030A0B92D4880FB03A0C0114FF4FB
:1026A000C87400FB1430002840F26D1408BF4FF4CA
:1026B000B77407E040F26D1404E040F26D1401E0DD
:1026C0004FF4B774121BC2EB0804204F87FB0307BB
:1026D0004FEA671C642202FB1C3CFF114FF4C872D6
:1026E00002FB173700221A4E4FF01C0803F0030AB2
:1026F0004FF01D09D0B201280BD163B1BAF1000F20
:102700000BD1BCF1000F0AD1002F0CBF1D251C25D9
:1027100006E0955D04E0454602E0454600E04D4692
:10272000A54205D8641B0130C0B201320C2AE1D1A8
:102730000130487101340C71BDE8F00F704700BFE3
:1027400089888888ABAAAAAA254992241F85EB51BB
:10275000A065020010B50446044B1B68984204D0E3
:102760000349FFF733FF014B1C6010BD9099FF1F19
:102770009499FF1F08B5FFF7EDFF024B987900F21F
:10278000B27008BD9499FF1F074B1860074B1B6878
:102790001844074B18600222064B1A70064B1A6841
:1027A000064B1A60704700BF9C99FF1FA08CFF1F4B
:1027B000AC99FF1FA099FF1F88B4FF1FA899FF1FA6
:1027C00010B51C4B1A681C4B1B68D21AB2F57A7FE5
:1027D00011D31A4A12680132164C03F57A73216834
:1027E000501CC91AB1F57A7F01D30246F5E71349A7
:1027F0000A60114A1360124B1A68104B1B689A4208
:1028000014D8104B1B688BB1984710B1FFF7BCFF71
:102810000CE00D4B1A68094B1B681A44084B1A60F0
:102820000A4B1A78003218BF01221A70034B18683D
:1028300010BD00BF88B4FF1FA899FF1F9C99FF1F00
:10284000AC99FF1FA499FF1FA08CFF1FA099FF1F29
:1028500008B5FFF7B5FFFFF77DFF014B987808BD7E
:102860009499FF1F08B5FFF7ABFFFFF773FF014B0C
:10287000587808BD9499FF1F08B5FFF7A1FFFFF72F
:1028800069FF014B187808BD9499FF1F08B5FFF741
:1028900097FFFFF75FFF014B187908BD9499FF1F61
:1028A00008B5FFF78DFFFFF755FF014B587908BDBD
:1028B0009499FF1F08B5FFF783FFFFF75BFF08BD83
:1028C00008B5FFF77DFF014B187808BDA099FF1FE1
:1028D00070B516464AB10E440C46451A204613F010
:1028E000C5FC28550134B442F8D170BD70B5154609
:1028F00042B10C46461A2046315D13F0CBFC013440
:10290000013DF8D170BD00BF08B540F294610122CD
:10291000FFF7DEFF012008BD08B540F294610122F7
:10292000FFF7E4FF08BD00BF08B540F29561012242
:10293000FFF7CEFF012008BD08B540F295610122E6
:10294000FFF7D4FF08BD00BF08B540F29661012231
:10295000FFF7BEFF012008BD08B540F296610122D5
:10296000FFF7C4FF08BD00BF08B540F29761012220
:10297000FFF7AEFF012008BD08B540F297610122C4
:10298000FFF7B4FF08BD00BF08B54FF4D3610122C3
:10299000FFF79EFF012008BD08B54FF4D361012267
:1029A000FFF7A4FF08BD00BF08B540F299610122FE
:1029B000FFF78EFF012008BD08B540F299610122A2
:1029C000FFF794FF08BD00BF08B540F29A610122ED
:1029D000FFF77EFF012008BD08B540F29A61012291
:1029E000FFF784FF08BD00BF08B540F291610222E5
:1029F000FFF76EFF022008BD08B540F29161022288
:102A0000FFF774FF08BD00BF08B540F293610122D3
:102A1000FFF75EFF012008BD08B540F29361012277
:102A2000FFF764FF08BD00BF08B54FF4BE61012287
:102A3000FFF74EFF012008BD08B54FF4BE6101222B
:102A4000FFF754FF08BD00BF08B540F2F151012265
:102A5000FFF73EFF012008BD08B540F2F151012209
:102A6000FFF744FF08BD00BF08B540F2F251012254
:102A7000FFF72EFF012008BD08B540F2F2510122F8
:102A8000FFF734FF08BD00BF08B540F2F351012243
:102A9000FFF71EFF012008BD08B540F2F3510122E7
:102AA000FFF724FF08BD00BF08B540F2F451012232
:102AB000FFF70EFF012008BD08B540F2F4510122D6
:102AC000FFF714FF08BD00BF08B540F2F551012221
:102AD000FFF7FEFE012008BD08B540F2F5510122C6
:102AE000FFF704FF08BD00BF08B540F2F651012210
:102AF000FFF7EEFE012008BD08B540F2F6510122B5
:102B0000FFF7F4FE08BD00BF08B540F2F7510122FF
:102B1000FFF7DEFE012008BD08B540F2F7510122A3
:102B2000FFF7E4FE08BD00BF08B54FF4BF61012206
:102B3000FFF7CEFE012008BD08B54FF4BF610122AA
:102B4000FFF7D4FE08BD00BF08B540F2F9510122DD
:102B5000FFF7BEFE012008BD08B540F2F951012281
:102B6000FFF7C4FE08BD00BF08B540F2FA510122CC
:102B7000FFF7AEFE012008BD08B540F2FA51012270
:102B8000FFF7B4FE08BD00BF08B540F2FB510122BB
:102B9000FFF79EFE012008BD08B540F2FB5101225F
:102BA000FFF7A4FE08BD00BF08B540F2FC510122AA
:102BB000FFF78EFE012008BD08B540F2FC5101224E
:102BC000FFF794FE08BD00BF08B540F2FD51012299
:102BD000FFF77EFE012008BD08B540F2FD5101223D
:102BE000FFF784FE08BD00BF08B540F2FE51012288
:102BF000FFF76EFE012008BD08B540F2FE5101222C
:102C0000FFF774FE08BD00BF08B540F2FF51012276
:102C1000FFF75EFE012008BD08B540F2FF5101221A
:102C2000FFF764FE08BD00BF08B54FF4C061012284
:102C3000FFF74EFE012008BD08B54FF4C061012228
:102C4000FFF754FE08BD00BF08B540F20161012244
:102C5000FFF73EFE012008BD08B540F201610122E8
:102C6000FFF744FE08BD00BF08B540F20261012233
:102C7000FFF72EFE012008BD08B540F202610122D7
:102C8000FFF734FE08BD00BF08B540F20361012222
:102C9000FFF71EFE012008BD08B540F203610122C6
:102CA000FFF724FE08BD00BF08B540F20461012211
:102CB000FFF70EFE012008BD08B540F204610122B5
:102CC000FFF714FE08BD00BF08B540F20561012200
:102CD000FFF7FEFD012008BD08B540F205610122A5
:102CE000FFF704FE08BD00BF08B540F206610122EF
:102CF000FFF7EEFD012008BD08B540F20661012294
:102D0000FFF7F4FD08BD00BF08B540F207610122DE
:102D1000FFF7DEFD012008BD08B540F20761012282
:102D2000FFF7E4FD08BD00BF08B568210122FFF7E9
:102D3000CFFD012008BD00BF08B568210122FFF7C3
:102D4000D5FD08BD08B569210122FFF7C1FD0120AD
:102D500008BD00BF08B569210122FFF7C7FD08BD06
:102D600008B56A210122FFF7B3FD012008BD00BFAD
:102D700008B56A210122FFF7B9FD08BD08B56B212E
:102D80000122FFF7A5FD012008BD00BF08B56B219A
:102D90000122FFF7ABFD08BD08B56C210122FFF74A
:102DA00097FD012008BD00BF08B56C210122FFF787
:102DB0009DFD08BD08B56D210122FFF789FD0120A9
:102DC00008BD00BF08B56D210122FFF78FFD08BDCA
:102DD00008B56E210122FFF77BFD012008BD00BF71
:102DE00008B56E210122FFF781FD08BD08B56F21EE
:102DF0000122FFF76DFD012008BD00BF08B56F215E
:102E00000122FFF773FD08BD08B570210122FFF70D
:102E10005FFD012008BD00BF08B570210122FFF74A
:102E200065FD08BD08B571210122FFF751FD0120A4
:102E300008BD00BF08B571210122FFF757FD08BD8D
:102E400008B572210122FFF743FD012008BD00BF34
:102E500008B572210122FFF749FD08BD08B57321AD
:102E60000122FFF735FD012008BD00BF08B5732121
:102E70000122FFF73BFD08BD08B574210122FFF7D1
:102E800027FD012008BD00BF08B574210122FFF70E
:102E90002DFD08BD08B575210122FFF719FD0120A0
:102EA00008BD00BF08B575210122FFF71FFD08BD51
:102EB00008B576210122FFF70BFD012008BD00BFF8
:102EC00008B576210122FFF711FD08BD08B577216D
:102ED0000122FFF7FDFC012008BD00BF08B57721E6
:102EE0000122FFF703FD08BD08B578210122FFF795
:102EF000EFFC012008BD00BF08B578210122FFF7D3
:102F0000F5FC08BD08B579210122FFF7E1FC01209D
:102F100008BD00BF08B579210122FFF7E7FC08BD15
:102F200008B57A210122FFF7D3FC012008BD00BFBC
:102F300008B57A210122FFF7D9FC08BD08B57B212D
:102F40000122FFF7C5FC012008BD00BF08B57B21A9
:102F50000122FFF7CBFC08BD08B57C210122FFF759
:102F6000B7FC012008BD00BF08B57C210122FFF796
:102F7000BDFC08BD08B57D210122FFF7A9FC012099
:102F800008BD00BF08B57D210122FFF7AFFC08BDD9
:102F900008B57E210122FFF79BFC012008BD00BF80
:102FA00008B57E210122FFF7A1FC08BD08B57F21ED
:102FB0000122FFF78DFC012008BD00BF08B57F216D
:102FC0000122FFF793FC08BD08B520210122FFF77D
:102FD0007FFC012008BD00BF08B520210122FFF7BA
:102FE00085FC08BD08B521210122FFF771FC0120F5
:102FF00008BD00BF08B521210122FFF777FC08BDFD
:1030000008B522210122FFF763FC012008BD00BFA3
:1030100008B522210122FFF769FC08BD08B523216C
:103020000122FFF755FC012008BD00BF08B5232190
:103030000122FFF75BFC08BD08B524210122FFF740
:1030400047FC012008BD00BF08B524210122FFF77D
:103050004DFC08BD08B525210122FFF739FC0120F0
:1030600008BD00BF08B525210122FFF73FFC08BDC0
:1030700008B526210122FFF72BFC012008BD00BF67
:1030800008B526210122FFF731FC08BD08B527212C
:103090000122FFF71DFC012008BD00BF08B5272154
:1030A0000122FFF723FC08BD08B528210122FFF704
:1030B0000FFC012008BD00BF08B528210122FFF741
:1030C00015FC08BD08B529210122FFF701FC0120EC
:1030D00008BD00BF08B529210122FFF707FC08BD84
:1030E00008B52A210122FFF7F3FB012008BD00BF2C
:1030F00008B52A210122FFF7F9FB08BD08B52B21ED
:103100000122FFF7E5FB012008BD00BF08B52B2118
:103110000122FFF7EBFB08BD08B52C210122FFF7C8
:10312000D7FB012008BD00BF08B52C210122FFF705
:10313000DDFB08BD08B52D210122FFF7C9FB0120E9
:1031400008BD00BF08B52D210122FFF7CFFB08BD48
:1031500008B52E210122FFF7BBFB012008BD00BFEF
:1031600008B52E210122FFF7C1FB08BD08B52F21AC
:103170000122FFF7ADFB012008BD00BF08B52F21DC
:103180000122FFF7B3FB08BD08B530210122FFF78C
:103190009FFB012008BD00BF08B530210122FFF7C9
:1031A000A5FB08BD08B531210122FFF791FB0120E5
:1031B00008BD00BF08B531210122FFF797FB08BD0C
:1031C00008B532210122FFF783FB012008BD00BFB3
:1031D00008B532210122FFF789FB08BD08B533216C
:1031E0000122FFF775FB012008BD00BF08B53321A0
:1031F0000122FFF77BFB08BD08B534210122FFF750
:1032000067FB012008BD00BF08B534210122FFF78C
:103210006DFB08BD08B535210122FFF759FB0120E0
:1032200008BD00BF08B535210122FFF75FFB08BDCF
:1032300008B536210122FFF74BFB012008BD00BF76
:1032400008B536210122FFF751FB08BD08B537212B
:103250000122FFF73DFB012008BD00BF08B5372163
:103260000122FFF743FB08BD08B54FF4CA610122F4
:10327000FFF72EFB012008BD08B54FF4CA610122FB
:10328000FFF734FB08BD00BF08B540F251610122D1
:10329000FFF71EFB012008BD08B540F25161012275
:1032A000FFF724FB08BD00BF08B540F252610122C0
:1032B000FFF70EFB012008BD08B540F25261012264
:1032C000FFF714FB08BD00BF08B540F253610122AF
:1032D000FFF7FEFA012008BD08B540F25361012254
:1032E000FFF704FB08BD00BF08B540F2546101229E
:1032F000FFF7EEFA012008BD08B540F25461012243
:10330000FFF7F4FA08BD00BF08B540F2556101228D
:10331000FFF7DEFA012008BD08B540F25561012231
:10332000FFF7E4FA08BD00BF08B540F2566101227C
:10333000FFF7CEFA012008BD08B540F25661012220
:10334000FFF7D4FA08BD00BF08B540F2576101226B
:10335000FFF7BEFA012008BD08B540F2576101220F
:10336000FFF7C4FA08BD00BF08B54FF4CB610122D6
:10337000FFF7AEFA012008BD08B54FF4CB6101227A
:10338000FFF7B4FA08BD00BF08B540F25961012249
:10339000FFF79EFA012008BD08B540F259610122ED
:1033A000FFF7A4FA08BD00BF08B540F25A61012238
:1033B000FFF78EFA012008BD08B540F25A610122DC
:1033C000FFF794FA08BD00BF08B540F25B61012227
:1033D000FFF77EFA012008BD08B540F25B610122CB
:1033E000FFF784FA08BD00BF08B540F25C61012216
:1033F000FFF76EFA012008BD08B540F25C610122BA
:10340000FFF774FA08BD00BF08B540F25D61012204
:10341000FFF75EFA012008BD08B540F25D610122A8
:10342000FFF764FA08BD00BF08B540F25E610122F3
:10343000FFF74EFA012008BD08B540F25E61012297
:10344000FFF754FA08BD00BF08B540F25F610122E2
:10345000FFF73EFA012008BD08B540F25F61012286
:10346000FFF744FA08BD00BF08B54FF4CC61012254
:10347000FFF72EFA012008BD08B54FF4CC610122F8
:10348000FFF734FA08BD00BF08B540F261610122C0
:10349000FFF71EFA012008BD08B540F26161012264
:1034A000FFF724FA08BD00BF08B540F262610122AF
:1034B000FFF70EFA012008BD08B540F26261012253
:1034C000FFF714FA08BD00BF08B540F2636101229E
:1034D000FFF7FEF9012008BD08B540F26361012243
:1034E000FFF704FA08BD00BF08B540F2646101228D
:1034F000FFF7EEF9012008BD08B540F26461012232
:10350000FFF7F4F908BD00BF08B540F2656101227C
:10351000FFF7DEF9012008BD08B540F26561012220
:10352000FFF7E4F908BD00BF08B540F2666101226B
:10353000FFF7CEF9012008BD08B540F2666101220F
:10354000FFF7D4F908BD00BF08B540F2676101225A
:10355000FFF7BEF9012008BD08B540F267610122FE
:10356000FFF7C4F908BD00BF08B502211022FFF71C
:10357000AFF9102008BD00BF08B502211022FFF7E7
:10358000B5F908BD08B51E210222FFF7A1F90220F6
:1035900008BD00BF08B51E210222FFF7A7F908BD2C
:1035A00008B518210622FFF793F9062008BD00BFD1
:1035B00008B518210622FFF799F908BD08B51221B0
:1035C0000622FFF785F9062008BD00BF08B51221C5
:1035D0000622FFF78BF908BD30B583B004460139E8
:1035E000172900F2B081DFE811F018002800380038
:1035F00049005A006B007C008D009E00AF00C000A7
:10360000D100E200F3000401150126013701480151
:1036100059016A017B018C019D010DF10700FFF743
:1036200003FA9DF80750382DA8BF38252046B02151
:103630003822FFF74DF9284686E10DF10700FFF724
:1036400003FA9DF80750382DA8BF38252046E821F9
:103650003822FFF73DF9284676E10DF10700FFF724
:1036600003FA9DF80750382DA8BF382520464FF49F
:1036700090713822FFF72CF9284665E10DF107001B
:10368000FFF702FA9DF80750382DA8BF38252046CD
:103690004FF4AC713822FFF71BF9284654E10DF1C5
:1036A0000700FFF701FA9DF80750382DA8BF38250D
:1036B00020464FF4C8713822FFF70AF9284643E143
:1036C0000DF10700FFF700FA9DF80750382DA8BF4D
:1036D000382520464FF4E4713822FFF7F9F82846E0
:1036E00032E10DF10700FFF7FFF99DF80750382D83
:1036F000A8BF382520464FF400713822FFF7E8F8BC
:10370000284621E10DF10700FFF7FEF99DF807506B
:10371000382DA8BF382520464FF40E713822FFF708
:10372000D7F8284610E10DF10700FFF7FDF99DF8E5
:103730000750382DA8BF382520464FF41C71382279
:10374000FFF7C6F82846FFE00DF10700FFF7FCF988
:103750009DF80750382DA8BF382520464FF42A7110
:103760003822FFF7B5F82846EEE00DF10700FFF725
:10377000FBF99DF80750382DA8BF382520464FF497
:1037800038713822FFF7A4F82846DDE00DF1070074
:10379000FFF7FAF99DF80750382DA8BF38252046C5
:1037A0004FF446713822FFF793F82846CCE00DF12C
:1037B0000700FFF7F9F99DF80750382DA8BF382505
:1037C00020464FF454713822FFF782F82846BBE0B8
:1037D0000DF10700FFF7F8F99DF80750382DA8BF45
:1037E000382520464FF462713822FFF771F82846D9
:1037F000AAE00DF10700FFF7F7F99DF80750382D03
:10380000A8BF382520464FF470713822FFF760F8C2
:10381000284699E00DF10700FFF7F6F99DF80750EB
:10382000382DA8BF382520464FF47E713822FFF787
:103830004FF8284688E00DF10700FFF7F5F99DF8ED
:103840000750382DA8BF382520464FF4866138220E
:10385000FFF73EF8284677E00DF10700FFF7F4F98F
:103860009DF80750382DA8BF382520464FF48D61AC
:103870003822FFF72DF8284666E00DF10700FFF724
:10388000F3F99DF80750382DA8BF382520464FF48E
:1038900094613822FFF71CF8284655E00DF1070027
:1038A000FFF7F2F99DF80750382DA8BF38252046BC
:1038B0004FF49B613822FFF70BF8284644E00DF1E6
:1038C0000700FFF7F1F99DF80750382DA8BF3825FC
:1038D00020464FF4A2613822FEF7FAFF284633E073
:1038E0000DF10700FFF7F0F99DF80750382DA8BF3C
:1038F000382520464FF4A9613822FEF7E9FF284613
:1039000022E00DF10700FFF7EFF99DF80750382D81
:10391000A8BF382520464FF4B0613822FEF7D8FF03
:10392000284611E00DF10700FFF7EEF99DF807506A
:10393000382DA8BF382520464FF4B7613822FEF74E
:10394000C7FF284600E0002003B030BD10B582B0AC
:103950000C46013A172A00F26781DFE812F01800DE
:103960002500320040004E005C006A0078008600AE
:103970009400A200B000BE00CC00DA00E800F6001F
:103980000401120120012E013C014A015801B0211D
:103990003822FEF7ABFF382CA8BF382402A800F865
:1039A000014DFFF749F83FE1E8213822FEF79EFF7D
:1039B000382CA8BF382402A800F8014DFFF74CF8B6
:1039C00032E14FF490713822FEF790FF382CA8BFF7
:1039D000382402A800F8014DFFF74EF824E14FF417
:1039E000AC713822FEF782FF382CA8BF382402A819
:1039F00000F8014DFFF750F816E14FF4C871382276
:103A0000FEF774FF382CA8BF382402A800F8014D37
:103A1000FFF752F808E14FF4E4713822FEF766FF31
:103A2000382CA8BF382402A800F8014DFFF754F83D
:103A3000FAE04FF400713822FEF758FF382CA8BF87
:103A4000382402A800F8014DFFF756F8ECE04FF4D7
:103A50000E713822FEF74AFF382CA8BF382402A87E
:103A600000F8014DFFF758F8DEE04FF41C713822E2
:103A7000FEF73CFF382CA8BF382402A800F8014DFF
:103A8000FFF75AF8D0E04FF42A713822FEF72EFFE4
:103A9000382CA8BF382402A800F8014DFFF75CF8C5
:103AA000C2E04FF438713822FEF720FF382CA8BF4F
:103AB000382402A800F8014DFFF75EF8B4E04FF497
:103AC00046713822FEF712FF382CA8BF382402A80E
:103AD00000F8014DFFF760F8A6E04FF4547138226A
:103AE000FEF704FF382CA8BF382402A800F8014DC7
:103AF000FFF762F898E04FF462713822FEF7F6FEA5
:103B0000382CA8BF382402A800F8014DFFF764F84C
:103B10008AE04FF470713822FEF7E8FE382CA8BF17
:103B2000382402A800F8014DFFF766F87CE04FF456
:103B30007E713822FEF7DAFE382CA8BF382402A89E
:103B400000F8014DFFF768F86EE04FF48661382207
:103B5000FEF7CCFE382CA8BF382402A800F8014D8F
:103B6000FFF76AF860E04FF48D613822FEF7BEFE81
:103B7000382CA8BF382402A800F8014DFFF76CF8D4
:103B800052E04FF494613822FEF7B0FE382CA8BF03
:103B9000382402A800F8014DFFF76EF844E04FF416
:103BA0009B613822FEF7A2FE382CA8BF382402A859
:103BB00000F8014DFFF770F836E04FF4A2613822AB
:103BC000FEF794FE382CA8BF382402A800F8014D57
:103BD000FFF772F828E04FF4A9613822FEF786FE5D
:103BE000382CA8BF382402A800F8014DFFF774F85C
:103BF0001AE04FF4B0613822FEF778FE382CA8BFE7
:103C0000382402A800F8014DFFF776F80CE04FF4D5
:103C1000B7613822FEF76AFE382CA8BF382402A804
:103C200000F8014DFFF778F802B010BD08B5013972
:103C3000172900F29E80DFE801F00C12181E242ADA
:103C400030363C42484E545A60666C72787E848AA4
:103C5000909638210122FEF73BFE012008BD392154
:103C60000122FEF735FE012008BD3A210122FEF7B0
:103C70002FFE012008BD3B210122FEF729FE012075
:103C800008BD3C210122FEF723FE012008BD3D2195
:103C90000122FEF71DFE012008BD3E210122FEF794
:103CA00017FE012008BD3F210122FEF711FE012071
:103CB00008BD40210122FEF70BFE012008BD412175
:103CC0000122FEF705FE012008BD42210122FEF778
:103CD000FFFD012008BD43210122FEF7F9FD01206F
:103CE00008BD44210122FEF7F3FD012008BD452156
:103CF0000122FEF7EDFD012008BD46210122FEF75D
:103D0000E7FD012008BD47210122FEF7E1FD01206A
:103D100008BD48210122FEF7DBFD012008BD492135
:103D20000122FEF7D5FD012008BD4A210122FEF740
:103D3000CFFD012008BD4B210122FEF7C9FD012066
:103D400008BD4C210122FEF7C3FD012008BD4D2115
:103D50000122FEF7BDFD012008BD4E210122FEF724
:103D6000B7FD012008BD4F210122FEF7B1FD012062
:103D700008BD002008BD00BF08B50139172900F2B1
:103D80008580DFE801F00C11161B20252A2F34391D
:103D90003E43484D52575C61666B70757A7F38219F
:103DA0000122FEF7A3FD08BD39210122FEF79EFD89
:103DB00008BD3A210122FEF799FD08BD3B210122F1
:103DC000FEF794FD08BD3C210122FEF78FFD08BDE2
:103DD0003D210122FEF78AFD08BD3E210122FEF7AA
:103DE00085FD08BD3F210122FEF780FD08BD402171
:103DF0000122FEF77BFD08BD41210122FEF776FD81
:103E000008BD42210122FEF771FD08BD43210122B8
:103E1000FEF76CFD08BD44210122FEF767FD08BDD9
:103E200045210122FEF762FD08BD46210122FEF771
:103E30005DFD08BD47210122FEF758FD08BD482160
:103E40000122FEF753FD08BD49210122FEF74EFD78
:103E500008BD4A210122FEF749FD08BD4B21012280
:103E6000FEF744FD08BD4C210122FEF73FFD08BDD1
:103E70004D210122FEF73AFD08BD4E210122FEF739
:103E800035FD08BD4F210122FEF730FD08BD00BF02
:103E900008B50139172900F29E80DFE801F00C1205
:103EA000181E242A30363C42484E545A60666C72C2
:103EB000787E848A909680210122FEF709FD0120F8
:103EC00008BD81210122FEF703FD012008BD8221EA
:103ED0000122FEF7FDFC012008BD83210122FEF72F
:103EE000F7FC012008BD84210122FEF7F1FC01202E
:103EF00008BD85210122FEF7EBFC012008BD8621CB
:103F00000122FEF7E5FC012008BD87210122FEF712
:103F1000DFFC012008BD88210122FEF7D9FC012029
:103F200008BD89210122FEF7D3FC012008BD8A21AA
:103F30000122FEF7CDFC012008BD8B210122FEF7F6
:103F4000C7FC012008BD8C210122FEF7C1FC012025
:103F500008BD8D210122FEF7BBFC012008BD8E218A
:103F60000122FEF7B5FC012008BD8F210122FEF7DA
:103F7000AFFC012008BD90210122FEF7A9FC012021
:103F800008BD91210122FEF7A3FC012008BD92216A
:103F90000122FEF79DFC012008BD93210122FEF7BE
:103FA00097FC012008BD94210122FEF791FC01201D
:103FB00008BD95210122FEF78BFC012008BD96214A
:103FC0000122FEF785FC012008BD97210122FEF7A2
:103FD0007FFC012008BD002008BD00BF08B50139E5
:103FE000172900F28580DFE801F00C11161B20254F
:103FF0002A2F34393E43484D52575C61666B7075C9
:104000007A7F80210122FEF771FC08BD8121012207
:10401000FEF76CFC08BD82210122FEF767FC08BD9B
:1040200083210122FEF762FC08BD84210122FEF7F4
:104030005DFC08BD85210122FEF758FC08BD8621E4
:104040000122FEF753FC08BD87210122FEF74EFC3A
:1040500008BD88210122FEF749FC08BD8921012203
:10406000FEF744FC08BD8A210122FEF73FFC08BD93
:104070008B210122FEF73AFC08BD8C210122FEF7BC
:1040800035FC08BD8D210122FEF730FC08BD8E21D4
:104090000122FEF72BFC08BD8F210122FEF726FC32
:1040A00008BD90210122FEF721FC08BD91210122CB
:1040B000FEF71CFC08BD92210122FEF717FC08BD8B
:1040C00093210122FEF712FC08BD94210122FEF784
:1040D0000DFC08BD95210122FEF708FC08BD9621C4
:1040E0000122FEF703FC08BD97210122FEF7FEFB2B
:1040F00008BD00BF08B50139172900F2B680DFE816
:1041000001F00C131A21282F363D444B5259606799
:104110006E757C838A91989FA6AD4FF4C161012290
:10412000FEF7D6FB012008BD40F209610122FEF72F
:10413000CFFB012008BD40F20A610122FEF7C8FB57
:10414000012008BD40F20B610122FEF7C1FB0120F6
:1041500008BD40F20C610122FEF7BAFB012008BD48
:1041600040F20D610122FEF7B3FB012008BD40F2D1
:104170000E610122FEF7ACFB012008BD40F20F6189
:104180000122FEF7A5FB012008BD4FF4C261012208
:10419000FEF79EFB012008BD40F211610122FEF7EF
:1041A00097FB012008BD40F212610122FEF790FB4F
:1041B000012008BD40F213610122FEF789FB0120B6
:1041C00008BD40F214610122FEF782FB012008BD08
:1041D00040F215610122FEF77BFB012008BD40F291
:1041E00016610122FEF774FB012008BD40F2176141
:1041F0000122FEF76DFB012008BD4FF4C3610122CF
:10420000FEF766FB012008BD40F219610122FEF7AE
:104210005FFB012008BD40F21A610122FEF758FB46
:10422000012008BD40F21B610122FEF751FB012075
:1042300008BD40F21C610122FEF74AFB012008BDC7
:1042400040F21D610122FEF743FB012008BD40F250
:104250001E610122FEF73CFB012008BD40F21F61F8
:104260000122FEF735FB012008BD002008BD00BF7C
:1042700008B50139172900F29D80DFE801F00C1222
:10428000181E242A30363C42484E545A60666C72DE
:10429000787E848A90964FF4C1610122FEF726FB56
:1042A00008BD40F209610122FEF720FB08BD40F283
:1042B0000A610122FEF71AFB08BD40F20B610122E0
:1042C000FEF714FB08BD40F20C610122FEF70EFB65
:1042D00008BD40F20D610122FEF708FB08BD40F267
:1042E0000E610122FEF702FB08BD40F20F610122C0
:1042F000FEF7FCFA08BD4FF4C2610122FEF7F6FAA0
:1043000008BD40F211610122FEF7F0FA08BD40F24B
:1043100012610122FEF7EAFA08BD40F213610122A0
:10432000FEF7E4FA08BD40F214610122FEF7DEFA5E
:1043300008BD40F215610122FEF7D8FA08BD40F22F
:1043400016610122FEF7D2FA08BD40F21761012280
:10435000FEF7CCFA08BD4FF4C3610122FEF7C6FA9E
:1043600008BD40F219610122FEF7C0FA08BD40F213
:104370001A610122FEF7BAFA08BD40F21B61012260
:10438000FEF7B4FA08BD40F21C610122FEF7AEFA56
:1043900008BD40F21D610122FEF7A8FA08BD40F2F7
:1043A0001E610122FEF7A2FA08BD40F21F61012240
:1043B000FEF79CFA08BD00BF08B50139172900F2C5
:1043C0009E80DFE801F00C12181E242A30363C4291
:1043D000484E545A60666C72787E848A909650215A
:1043E0000122FEF775FA012008BD51210122FEF7D6
:1043F0006FFA012008BD52210122FEF769FA01205F
:1044000008BD53210122FEF763FA012008BD5421A3
:104410000122FEF75DFA012008BD55210122FEF7B9
:1044200057FA012008BD56210122FEF751FA01205A
:1044300008BD57210122FEF74BFA012008BD582183
:104440000122FEF745FA012008BD59210122FEF79D
:104450003FFA012008BD5A210122FEF739FA012056
:1044600008BD5B210122FEF733FA012008BD5C2163
:104470000122FEF72DFA012008BD5D210122FEF781
:1044800027FA012008BD5E210122FEF721FA012052
:1044900008BD5F210122FEF71BFA012008BD602143
:1044A0000122FEF715FA012008BD61210122FEF765
:1044B0000FFA012008BD62210122FEF709FA01204E
:1044C00008BD63210122FEF703FA012008BD642123
:1044D0000122FEF7FDF9012008BD65210122FEF74A
:1044E000F7F9012008BD66210122FEF7F1F901204C
:1044F00008BD67210122FEF7EBF9012008BD00206D
:1045000008BD00BF08B50139172900F28580DFE832
:1045100001F00C11161B20252A2F34393E43484D3B
:1045200052575C61666B70757A7F50210122FEF7ED
:10453000DDF908BD51210122FEF7D8F908BD52214D
:104540000122FEF7D3F908BD53210122FEF7CEF96F
:1045500008BD54210122FEF7C9F908BD55210122E9
:10456000FEF7C4F908BD56210122FEF7BFF908BDC8
:1045700057210122FEF7BAF908BD58210122FEF7A2
:10458000B5F908BD59210122FEF7B0F908BD5A213D
:104590000122FEF7ABF908BD5B210122FEF7A6F967
:1045A00008BD5C210122FEF7A1F908BD5D210122B1
:1045B000FEF79CF908BD5E210122FEF797F908BDC0
:1045C0005F210122FEF792F908BD60210122FEF76A
:1045D0008DF908BD61210122FEF788F908BD62212D
:1045E0000122FEF783F908BD63210122FEF77EF95F
:1045F00008BD64210122FEF779F908BD6521012279
:10460000FEF774F908BD66210122FEF76FF908BDB7
:1046100067210122FEF76AF908BD00BF08B501391C
:10462000172900F29E80DFE801F00C12181E242AE0
:1046300030363C42484E545A60666C72787E848AAA
:10464000909698210122FEF743F9012008BD992197
:104650000122FEF73DF9012008BD9A210122FEF753
:1046600037F9012008BD9B210122FEF731F9012015
:1046700008BD9C210122FEF72BF9012008BD9D21D8
:104680000122FEF725F9012008BD9E210122FEF737
:104690001FF9012008BD9F210122FEF719F9012011
:1046A00008BDA0210122FEF713F9012008BDA121B8
:1046B0000122FEF70DF9012008BDA2210122FEF71B
:1046C00007F9012008BDA3210122FEF701F901200D
:1046D00008BDA4210122FEF7FBF8012008BDA52199
:1046E0000122FEF7F5F8012008BDA6210122FEF700
:1046F000EFF8012008BDA7210122FEF7E9F801200B
:1047000008BDA8210122FEF7E3F8012008BDA92178
:104710000122FEF7DDF8012008BDAA210122FEF7E3
:10472000D7F8012008BDAB210122FEF7D1F8012006
:1047300008BDAC210122FEF7CBF8012008BDAD2158
:104740000122FEF7C5F8012008BDAE210122FEF7C7
:10475000BFF8012008BDAF210122FEF7B9F8012002
:1047600008BD002008BD00BF08B50139172900F2B7
:104770008580DFE801F00C11161B20252A2F343923
:104780003E43484D52575C61666B70757A7F982145
:104790000122FEF7ABF808BD99210122FEF7A6F829
:1047A00008BD9A210122FEF7A1F808BD9B21012234
:1047B000FEF79CF808BD9C210122FEF797F808BD82
:1047C0009D210122FEF792F808BD9E210122FEF7ED
:1047D0008DF808BD9F210122FEF788F808BDA021B1
:1047E0000122FEF783F808BDA1210122FEF77EF821
:1047F00008BDA2210122FEF779F808BDA3210122FC
:10480000FEF774F808BDA4210122FEF76FF808BD79
:10481000A5210122FEF76AF808BDA6210122FEF7B4
:1048200065F808BDA7210122FEF760F808BDA821A0
:104830000122FEF75BF808BDA9210122FEF756F818
:1048400008BDAA210122FEF751F808BDAB210122C3
:10485000FEF74CF808BDAC210122FEF747F808BD71
:10486000AD210122FEF742F808BDAE210122FEF77C
:104870003DF808BDAF210122FEF738F808BD00BFA2
:1048800008B50139172900F2B680DFE801F00C13F2
:104890001A21282F363D444B525960676E757C8330
:1048A0008A91989FA6AD4FF4C4610122FEF710F8DB
:1048B000012008BD40F221610122FEF709F8012024
:1048C00008BD40F222610122FEF702F8012008BD76
:1048D00040F223610122FDF7FBFF012008BD40F2F9
:1048E00024610122FDF7F4FF012008BD40F225619B
:1048F0000122FDF7EDFF012008BD40F226610122F3
:10490000FDF7E6FF012008BD40F227610122FDF717
:10491000DFFF012008BD4FF4C5610122FDF7D8FF7C
:10492000012008BD40F229610122FDF7D1FF0120DD
:1049300008BD40F22A610122FDF7CAFF012008BD2F
:1049400040F22B610122FDF7C3FF012008BD40F2B8
:104950002C610122FDF7BCFF012008BD40F22D6152
:104960000122FDF7B5FF012008BD40F22E610122B2
:10497000FDF7AEFF012008BD40F22F610122FDF7D7
:10498000A7FF012008BD4FF4C6610122FDF7A0FF7B
:10499000012008BD40F231610122FDF799FF01209D
:1049A00008BD40F232610122FDF792FF012008BDEF
:1049B00040F233610122FDF78BFF012008BD40F278
:1049C00034610122FDF784FF012008BD40F235610A
:1049D0000122FDF77DFF012008BD40F23661012272
:1049E000FDF776FF012008BD40F237610122FDF797
:1049F0006FFF012008BD002008BD00BF08B50139C8
:104A0000172900F29D80DFE801F00C12181E242AFD
:104A100030363C42484E545A60666C72787E848AC6
:104A200090964FF4C4610122FDF760FF08BD40F28B
:104A300021610122FDF75AFF08BD40F222610122E7
:104A4000FDF754FF08BD40F223610122FDF74EFF40
:104A500008BD40F224610122FDF748FF08BD40F285
:104A600025610122FDF742FF08BD40F226610122C7
:104A7000FDF73CFF08BD40F227610122FDF736FF3C
:104A800008BD4FF4C5610122FDF730FF08BD40F2BB
:104A900029610122FDF72AFF08BD40F22A610122A7
:104AA000FDF724FF08BD40F22B610122FDF71EFF38
:104AB00008BD40F22C610122FDF718FF08BD40F24D
:104AC0002D610122FDF712FF08BD40F22E61012287
:104AD000FDF70CFF08BD40F22F610122FDF706FF34
:104AE00008BD4FF4C6610122FDF700FF08BD40F28A
:104AF00031610122FDF7FAFE08BD40F23261012268
:104B0000FDF7F4FE08BD40F233610122FDF7EEFE31
:104B100008BD40F234610122FDF7E8FE08BD40F215
:104B200035610122FDF7E2FE08BD40F23661012247
:104B3000FDF7DCFE08BD40F237610122FDF7D6FE2D
:104B400008BD00BF08B50139172900F2B680DFE8BB
:104B500001F00C131A21282F363D444B525960673F
:104B60006E757C838A91989FA6AD4FF4C761012230
:104B7000FDF7AEFE012008BD40F239610122FDF7CC
:104B8000A7FE012008BD40F23A610122FDF7A0FE18
:104B9000012008BD40F23B610122FDF799FE012092
:104BA00008BD40F23C610122FDF792FE012008BDE4
:104BB00040F23D610122FDF78BFE012008BD40F26D
:104BC0003E610122FDF784FE012008BD40F23F61F5
:104BD0000122FDF77DFE012008BD4FF4C8610122CE
:104BE000FDF776FE012008BD40F241610122FDF78C
:104BF0006FFE012008BD40F242610122FDF768FE10
:104C0000012008BD40F243610122FDF761FE012051
:104C100008BD40F244610122FDF75AFE012008BDA3
:104C200040F245610122FDF753FE012008BD40F22C
:104C300046610122FDF74CFE012008BD40F24761AC
:104C40000122FDF745FE012008BD4FF4C961012294
:104C5000FDF73EFE012008BD40F249610122FDF74B
:104C600037FE012008BD40F24A610122FDF730FE07
:104C7000012008BD40F24B610122FDF729FE012011
:104C800008BD40F24C610122FDF722FE012008BD63
:104C900040F24D610122FDF71BFE012008BD40F2EC
:104CA0004E610122FDF714FE012008BD40F24F6164
:104CB0000122FDF70DFE012008BD002008BD00BF48
:104CC00008B50139172900F29D80DFE801F00C12C8
:104CD000181E242A30363C42484E545A60666C7284
:104CE000787E848A90964FF4C7610122FDF7FEFD1D
:104CF00008BD40F239610122FDF7F8FD08BD40F220
:104D00003A610122FDF7F2FD08BD40F23B6101224C
:104D1000FDF7ECFD08BD40F23C610122FDF7E6FD28
:104D200008BD40F23D610122FDF7E0FD08BD40F203
:104D30003E610122FDF7DAFD08BD40F23F6101222C
:104D4000FDF7D4FD08BD4FF4C8610122FDF7CEFD8B
:104D500008BD40F241610122FDF7C8FD08BD40F2E7
:104D600042610122FDF7C2FD08BD40F2436101220C
:104D7000FDF7BCFD08BD40F244610122FDF7B6FD20
:104D800008BD40F245610122FDF7B0FD08BD40F2CB
:104D900046610122FDF7AAFD08BD40F247610122EC
:104DA000FDF7A4FD08BD4FF4C9610122FDF79EFD8A
:104DB00008BD40F249610122FDF798FD08BD40F2AF
:104DC0004A610122FDF792FD08BD40F24B610122CC
:104DD000FDF78CFD08BD40F24C610122FDF786FD18
:104DE00008BD40F24D610122FDF780FD08BD40F293
:104DF0004E610122FDF77AFD08BD40F24F610122AC
:104E0000FDF774FD08BD00BF08B565391F2900F224
:104E10000281DFE811F0200027002E0035003C0061
:104E200043004A00510058005F0066006D007400A6
:104E30007B0082008900900097009E00A500AC00D6
:104E4000B300BA00C100C800CF00D600DD00E40006
:104E5000EB00F200F9004FF4CD610122FDF738FDBF
:104E6000012008BD40F269610122FDF731FD0120FA
:104E700008BD40F26A610122FDF72AFD012008BD4C
:104E800040F26B610122FDF723FD012008BD40F2D5
:104E90006C610122FDF71CFD012008BD40F26D612F
:104EA0000122FDF715FD012008BD40F26E610122CF
:104EB000FDF70EFD012008BD40F26F610122FDF7F4
:104EC00007FD012008BD4FF4CE610122FDF700FD72
:104ED000012008BD40F271610122FDF7F9FC0120BB
:104EE00008BD40F272610122FDF7F2FC012008BD0D
:104EF00040F273610122FDF7EBFC012008BD40F296
:104F000074610122FDF7E4FC012008BD40F27561E7
:104F10000122FDF7DDFC012008BD40F2766101228F
:104F2000FDF7D6FC012008BD40F277610122FDF7B4
:104F3000CFFC012008BD4FF4CF610122FDF7C8FC72
:104F4000012008BD40F279610122FDF7C1FC01207A
:104F500008BD40F27A610122FDF7BAFC012008BDCC
:104F600040F27B610122FDF7B3FC012008BD40F255
:104F70007C610122FDF7ACFC012008BD40F27D619F
:104F80000122FDF7A5FC012008BD40F27E6101224F
:104F9000FDF79EFC012008BD40F27F610122FDF774
:104FA00097FC012008BD4FF4D0610122FDF790FC71
:104FB000012008BD40F281610122FDF789FC01203A
:104FC00008BD40F282610122FDF782FC012008BD8C
:104FD00040F283610122FDF77BFC012008BD40F215
:104FE00084610122FDF774FC012008BD40F2856157
:104FF0000122FDF76DFC012008BD40F2866101220F
:10500000FDF766FC012008BD40F287610122FDF733
:105010005FFC012008BD002008BD00BF08B5653950
:105020001F2900F2D180DFE801F010161C22282E83
:10503000343A40464C52585E646A70767C82888E60
:10504000949AA0A6ACB2B8BEC4CA4FF4CD610122F6
:10505000FDF74CFC08BD40F269610122FDF746FCFA
:1050600008BD40F26A610122FDF740FC08BD40F234
:105070006B610122FDF73AFC08BD40F26C61012230
:10508000FDF734FC08BD40F26D610122FDF72EFCF6
:1050900008BD40F26E610122FDF728FC08BD40F218
:1050A0006F610122FDF722FC08BD4FF4CE610122A1
:1050B000FDF71CFC08BD40F271610122FDF716FCF2
:1050C00008BD40F272610122FDF710FC08BD40F2FC
:1050D00073610122FDF70AFC08BD40F274610122F0
:1050E000FDF704FC08BD40F275610122FDF7FEFBEF
:1050F00008BD40F276610122FDF7F8FB08BD40F2E1
:1051000077610122FDF7F2FB08BD4FF4CF61012268
:10511000FDF7ECFB08BD40F279610122FDF7E6FBEB
:1051200008BD40F27A610122FDF7E0FB08BD40F2C4
:105130007B610122FDF7DAFB08BD40F27C610122B0
:10514000FDF7D4FB08BD40F27D610122FDF7CEFBE7
:1051500008BD40F27E610122FDF7C8FB08BD40F2A8
:105160007F610122FDF7C2FB08BD4FF4D06101222F
:10517000FDF7BCFB08BD40F281610122FDF7B6FBE3
:1051800008BD40F282610122FDF7B0FB08BD40F28C
:1051900083610122FDF7AAFB08BD40F28461012270
:1051A000FDF7A4FB08BD40F285610122FDF79EFBDF
:1051B00008BD40F286610122FDF798FB08BD40F270
:1051C00087610122FDF792FB08BD00BF08B50139D8
:1051D00003291FD8DFE801F0020910174FF4D1614D
:1051E0000122FDF775FB012008BD40F28961012213
:1051F000FDF76EFB012008BD40F28A610122FDF738
:1052000067FB012008BD40F28B610122FDF760FBC6
:10521000012008BD002008BD08B5013903291AD8AE
:10522000DFE801F002080E144FF4D1610122FDF70E
:105230005DFB08BD40F289610122FDF757FB08BD07
:1052400040F28A610122FDF751FB08BD40F28B61FB
:105250000122FDF74BFB08BD10B5354B1B78012B28
:105260000BD1344B187800210A460CF005F90246A0
:10527000314800210CF0C4F847E02B2B0CD82D4B03
:1052800019784908084600220CF0F6F802462A4828
:1052900000210CF0B5F838E0552B0BD80020254B39
:1052A000197802460CF0E8F80246234800210CF079
:1052B000A7F82AE0802B0CD81E4B1A785208002041
:1052C00011460CF0D9F802461B4800210CF098F862
:1052D0001BE0AA2B0BD800200146164B1A780CF0C5
:1052E000CBF80246144800210CF08AF80DE0D52BCB
:1052F0000BD8104B1A785208104600210CF0BCF85D
:1053000002460D4800210CF07BF80B480BF0BAFF69
:10531000084A13780833DBB2137043B9074C2046B0
:105320000749FCF771FD20460649FCF79DFD10BDBD
:10533000509AFF1F409EFF1F2C9EFF1F3498FF1F97
:1053400058A2FF1F78A2FF1F10B51E4B187808380F
:10535000C0B218701C4B1B78542B08D800210A4689
:105360000CF08AF80246194800210CF049F8164B57
:105370001B78A92B0BD80020124B197802460CF091
:105380007BF80246114800210CF03AF80AE00020B0
:1053900001460C4B1A780CF06FF802460B480021BE
:1053A0000CF02EF809480BF06DFF064B1B7843B943
:1053B000074C20460749FCF727FD20460649FCF725
:1053C00053FD10BD409EFF1F509AFF1F2C9EFF1FD4
:1053D0003498FF1F78A2FF1F58A2FF1F10B582B09C
:1053E0000024204610F042FF01AB18550134042C74
:1053F000F7D1019802B010BD70B582B001900DF1E7
:105400000306002416F8015F204610F02FFF8542A6
:1054100003D02046294610F03DFF0134042CF1D181
:1054200002B070BD10B50446084803685B680849BF
:1054300001229847092C04DC044803681B683021CA
:105440009847024821461AF08DF910BDB4B5FF1FE8
:105450005884020038B5FDF7FBF901461A4C204686
:105460001AF080F9FDF7FEF9FFF7DCFFFDF704FA0B
:10547000FFF7D8FF2368154D5B68204629460122B7
:105480009847FDF703FA014620461AF06BF92368A6
:105490005B682046294601229847FDF701FA01463C
:1054A00020461AF05FF923685B68204629460122EE
:1054B0009847FDF7FFF9014620461AF053F92046B8
:1054C0001AF0F0F838BD00BFB4B5FF1F0C6A020037
:1054D00010B5304B187818F043FE01462E4B18607B
:1054E0002E4C2046042213460BF080F82C4B1878E3
:1054F00018F036FE01462B4B186020460422134656
:105500000BF074F8284B187818F02AFE0146274B48
:1055100018602046042213460BF068F8244B1878D4
:1055200018F01EFE0146234B186020460422134645
:105530000BF05CF8204B187818F012FE01461F4B58
:1055400018602046042213460BF050F81C4B1878C4
:1055500018F006FE01461B4B186020460422134635
:105560000BF044F8184B187810F09CFD01462046CB
:10557000042210230BF03AF8144B187810F092FD27
:1055800001462046042210230BF030F820460BF091
:105590000BF810BD8CA2FF1FE09AFF1FE8B1FF1FA0
:1055A0008DA2FF1FE49AFF1F8EA2FF1FAC9AFF1F60
:1055B000449EFF1FB09AFF1F90AAFF1FB49AFF1FBF
:1055C00091AAFF1FB89AFF1F429EFF1F439EFF1F15
:1055D00030B415462AB10023C45CCC540133AB422D
:1055E000FAD130BC704700BF70B4164632B1002407
:1055F0000B44055D1D550134B442FAD170BC7047AF
:1056000010B503785BB100220A491446FF2B0CBF8A
:1056100054545354013210F8013F002BF6D1054C7D
:105620002046002119F060FE2046002140221DF096
:105630003FF810BDEC9AFF1F2DE9F84307460E46D0
:105640000F481AF02FF80024B44213DA0C4D4FF033
:105650001009DFF830802846395D4A4600231AF0E9
:1056600045F82B685B68284641460122984701347B
:10567000A642F0DC02481AF015F8BDE8F88300BF36
:10568000B4B5FF1F0C6A0200F8B507460E46144D6C
:10569000144C01E0FFF71CFF284621680AF0DEFEEB
:1056A0000028F7D00E48394632460AF011FF202272
:1056B0000C4B1A600C4C204619F0F4FF23685B6811
:1056C00020460A4923229847204631460A220023D1
:1056D0001AF00CF838463146FFF7AEFF0120F8BD4E
:1056E000E8B1FF1FAC8CFF1FB4B5FF1FF0650200CF
:1056F0002DE9F041334C23685B682046324915227E
:105700009847204619F0CEFF0025DFF8C880012712
:10571000284610F0ABFD0646204629461AF022F82E
:1057200023685B68204641463A4698472046314602
:105730000A22002319F0DAFF204619F0B3FF0135E1
:10574000B5F5006FE4D1002425462046294610F027
:10575000A1FD0134B4F5006FF7D11A4C23685B68E2
:1057600020461A4910229847204619F09BFF002531
:10577000DFF860800127284610F078FD06462046B5
:10578000294619F0EFFF23685B68204641463A46F8
:105790009847204631460A22002319F0A7FF2046E9
:1057A00019F080FF0135B5F5006FE4D1054C236891
:1057B0005B68204606490D229847204619F072FF83
:1057C000BDE8F081B4B5FF1F146602003066020028
:1057D000446602002C66020070B582B001A8FDF795
:1057E00013F99DF80440E40258485949224619F03B
:1057F0006FFF2046002108F0CBFC18B153485549F3
:1058000019F066FF514E3046534919F061FF04F517
:10581000006530464E492A4619F05AFF28460021B5
:1058200008F0B6FC18B130464A4919F051FF474E0E
:105830003046494919F04CFF04F58055304644493B
:105840002A4619F045FF2846002108F0A1FC18B1AE
:105850003046404919F03CFF3C4E30463E4919F075
:1058600037FF04F5C055304639492A4619F030FF54
:105870002846002108F08CFC18B13046354919F053
:1058800027FF324E3046344919F022FF04F5005507
:1058900030462F492A4619F01BFF2846002108F000
:1058A00077FC18B130462B4919F012FF274E3046CD
:1058B000294919F00DFF04F52055304624492A46A0
:1058C00019F006FF2846002108F062FC18B13046A6
:1058D000204919F0FDFE1D4E30461F4919F0F8FE13
:1058E00004F5405530461A492A4619F0F1FE28467B
:1058F000002108F04DFC18B13046164919F0E8FEB9
:10590000124D2846144919F0E3FE04F56054284668
:105910000F49224619F0DCFE2046002108F038FC31
:1059200018B128460B4919F0D3FE084C20460A4905
:1059300019F0CEFE23685B68204608491422984778
:10594000204619F0AFFE02B070BD00BFB4B5FF1F16
:1059500054660200686602007066020080660200FB
:1059600030B4043A12D403460024CD78055551F8DA
:10597000045B2D0C5D7051F8045C2D0A9D7051F88C
:10598000045CDD70043304349442EEDD30BC7047B7
:105990002DE9F04782B006468846171F20D40546F9
:1059A0000024DFF844A0DFF84490AA786B781B0449
:1059B00043EA0223EA781343325D43EA0263019328
:1059C00008EB040001A90022134608F0A3FB18B15C
:1059D0005046494619F07CFE04340435BC42E4DDEF
:1059E00002B0BDE8F08700BFB4B5FF1F68660200D3
:1059F00070B582B006460D4601A8FDF705F89DF882
:105A000004305C1EE4B2FD2C05D90A480A4919F09D
:105A10005FFE00200BE0DC0206480849224619F030
:105A200057FE304621462A46FFF79AFF012002B072
:105A300070BD00BFB4B5FF1F98660200B4660200D7
:105A40002DE9F041C2B0054601A8FCF7DDFF9DF845
:105A500004709FB92D4C20462D4919F039FE08F0ED
:105A600089FB0746C20A8DF8042020462949D2B294
:105A700019F02EFE01A8FCF7CFFF00E0FF0223483B
:105A800025493A4619F024FEB84602A83946FE22B6
:105A9000FFF766FF002302AEEC5C9C550133202B20
:105AA000FAD11A481D493A4619F012FE4046002123
:105AB00008F06EFB18B11548194919F009FE134C8E
:105AC0002046184919F004FE02A84146FE22FFF7BD
:105AD0005FFF23685B6820461349142298472046DD
