:1000000000800020BD01000065D8010029D8010052
:1000100029D8010029D8010029D8010029D80100D8
:1000200029D8010029D8010029D8010065D801008C
:1000300065D8010029D8010065D8010019D8010050
:1000400065D8010065D8010065D8010065D80100B8
:1000500065D8010065D8010065D8010065D80100A8
:1000600065D8010065D8010065D8010065D8010098
:1000700065D8010065D8010065D8010065D8010088
:1000800065D8010065D8010065D8010065D8010078
:1000900065D8010065D8010065D8010065D8010068
:1000A00065D8010065D8010065D8010065D8010058
:1000B00065D8010065D8010065D8010065D8010048
:1000C00065D8010065D8010065D8010065D8010038
:1000D00065D8010065D8010065D8010065D8010028
:1000E00065D8010065D8010065D8010065D8010018
:1000F00065D8010029F7010065D8010025FD010040
:1001000065D801004502020065D8010065D80100EC
:1001100065D8010065D8010065D8010065D80100E7
:1001200065D8010065D8010065D8010065D80100D7
:1001300065D8010065D8010065D8010065D80100C7
:1001400065D8010065D8010065D8010065D80100B7
:1001500065D8010065D8010065D8010065D80100A7
:1001600065D80100EDDC010065D8010065D801000B
:1001700065D8010065D8010065D8010065D8010087
:1001800065D8010065D8010065D8010065D8010077
:1001900065D8010065D8010065D8010065D8010067
:1001A00065D8010065D8010065D8010065D8010057
:1001B00065D8010065D8010065D80100574B4CF2A5
:1001C000205210B51A804DF628121A8000BF00BFC9
:1001D0001DF04CFB524B4FF010621A60514A9A606E
:1001E000514ADA60A3F53043203B1A6812F480725A
:1001F00004D14E490A604FF4A8521A604C4B1A7849
:10020000110703D51A7842F008021A70494B4A4C7C
:100210004A482A221A704A4A00239918A14203D256
:10022000195899500433F8E7464B474900228B424E
:1002300002D243F8042BFAE74448454900235A58B0
:100240001A500433B3F5DE7FF9D1424B424A802184
:1002500003F8011B9342FBD1404B3C4A1A60404BD0
:100260000A221A70A3F5805324225A70A0221A7011
:100270009A799207FCD59A79D406FCD4394A9379B5
:1002800003F00C03082B374BF9D103221A714022DB
:100290005A719A799006FCD5324A9179314B4906C8
:1002A000FBD5314A314911600221516020221A7078
:1002B0009A7902F00C020C2AFAD12D4B2D4A1A60C1
:1002C0002D4B4BF67F321A6000225A60072243F80A
:1002D000042C2A4AC3F80C2D62B61DF087FB134B81
:1002E0001B68DA0705D526481DF0F2FA254B264A89
:1002F0001A60264B1B785B0609D5224C224A2368DC
:10030000934204D11E481DF0E3FA0023236021F03C
:1003100007FB1DF0B1FA1EF045FEFEE70E2005407A
:1003200030800440823F04000100002B14D00340C1
:1003300002D0074000E007409C96FF1FD0960200C5
:10034000708CFF1F9C96FF1F24B7FF1F0082FF1FAA
:100350000000000000E400E05FE400E008ED00E0E1
:100360000050064000400640448004400000031155
:1003700004800440C010050014E000E000002020CC
:1003800052E2B9581CE00340A5C3945A00F007405C
:10039000FFFFFFFFFFFFFFFFFFFFFFFFFFFFFFFF6D
:1003A000FFFFFFFFFFFFFFFFFFFFFFFFFFFFFFFF5D
:1003B000FFFFFFFFFFFFFFFFFFFFFFFFFFFFFFFF4D
:1003C000FFFFFFFFFFFFFFFFFFFFFFFFFFFFFFFF3D
:1003D000FFFFFFFFFFFFFFFFFFFFFFFFFFFFFFFF2D
:1003E000FFFFFFFFFFFFFFFFFFFFFFFFFFFFFFFF1D
:1003F000FFFFFFFFFFFFFFFFFFFFFFFFFFFFFFFF0D
:10040000FFFFFFFFFFFFFFFFFFFFFFFFFEFFFFFFFD
:1004100010B5054C237833B9044B13B10448AFF33E
:1004200000800123237010BD9C96FF1F0000000078
:10043000C896020008B5064B1BB106480649AFF343
:1004400000800648036813B1054B03B1984708BD07
:1004500000000000C8960200A096FF1F9C96FF1F98
:100460000000000038B5074D284605F0C3F8064CDB
:1004700023685B68204629460B22984720461EF0D9
:10048000B1FD38BD2457020008B5FF1F70B5444BBD
:100490001C68217891B9204622F0B0F80246414804
:1004A00001684D682146A8473F4C20463F4901F06E
:1004B000ADFC20463E4901F0D9FC70BD01290FD1A9
:1004C00044F22B001EF046FA0A201DF079FA44F29D
:1004D0002B001EF0DFF9324B1A6801321A6070BD32
:1004E00002290FD144F228001EF034FA0A201DF030
:1004F00067FA44F228001EF0CDF9294B1A68013240
:100500001A6070BD092944D12A4A1278002A37D1CD
:10051000244C23685B68204627490F2298472046D1
:100520001EF060FD0122254B1A60254811F080FF66
:10053000244B1E6806F57A66204C1D4601E00AF041
:1005400039F9236813B12B689E42F8D800221B4B5F
:100550001A60154C2046154901F058FC20461449F4
:1005600001F084FC70BDA1F10A034FF47A7000FB26
:1005700003F01DF025FA0A4B1A6801321A6070BDAB
:100580001148026812689047054B1A6801321A60D8
:1005900070BDA1F10A02D2B2152AF1D8E3E700BF7B
:1005A000FC97FF1F08B5FF1F3498FF1FE096FF1F41
:1005B000C496FF1FA89AFF1F305702009CB0FF1F70
:1005C0007D560000DCB3FF1F00B5FF1F38B50546A0
:1005D0000C46084622F012F802462B685B68284653
:1005E0002146984738BD00BF38B504460D46084639
:1005F00022F004F8024623685B68204629469847A3
:10060000054620461EF0EEFC284438BD38B50546A8
:100610001EF048FD044628461EF0E4FC204438BD88
:1006200038B500228F4B1A7006228F4B1A700122A8
:100630008E4B1A7016228E4B1A7017228D4B1A7021
:1006400011228D4B1A700F228C4B1A7010228C4B7A
:100650001A700E228B4B1A7015228B4B1A7007F0F2
:1006600061FA8A48202105F0BDF9894B1B78DE2B01
:100670002CD105F037F844200DF050FA0446854897
:100680000268556884491422A8472CB18148036840
:100690005B688249042298477E4C23685B68204649
:1006A0007F491422984720461EF09CFC01227D4B76
:1006B0001A7000227C4B1A7023685B6820467B49C5
:1006C0001822984720461EF08DFC68E0442B56D136
:1006D000002854DD7648202105F024FA754805F0FD
:1006E000B3FA754805F042FB744D284602F036F91E
:1006F000684C23685B68204671490C229847204665
:100700001EF070FC204629780A2200231EF08EFC81
:1007100020461EF067FC2B780BB904222A7069482A
:1007200002F0FCF8684D284602F028F9594C23687D
:100730005B68204665491122984720461EF052FC0E
:10074000204629780A2200231EF070FC20461EF065
:1007500049FC15F057FA0022524B1A700122524BF5
:100760001A7023685B68204659490B229847204637
:100770001EF038FC5748584901F078FB0FE0012281
:10078000484B1A700022484B1A70424C23685B6831
:10079000204652491E22984720461EF023FC504C0A
:1007A0002046504940F2FD720FF016FC01F000FBAC
:1007B00020464D49242200230FF0B8FB2046334940
:1007C000202200230FF0B2FB2E4B187815F00AF907
:1007D00001462046042208230FF0A8FB2A4B187874
:1007E00015F000F901462046042208230FF09EFB75
:1007F000284C23685B6820463C490C2298472046D9
:1008000040F29A611EF04EFC20461EF0EBFB2046A3
:100810001F4B1978102200231EF008FC20461EF002
:10082000E1FB23685B68204631490922984720464E
:100830000C4B19781EF036FC20461EF0D3FB04F05A
:1008400041FE0420022107F037F90123154A1370F5
:10085000284A1370144A13701E48274901F006FBFA
:1008600038BD00BFA89AFF1F419EFF1F8CA2FF1F2B
:100870008DA2FF1F8EA2FF1F449EFF1F90AAFF1F85
:1008800091AAFF1F429EFF1F439EFF1F3898FF1F24
:100890000200024008B5FF1F4057020058570200EF
:1008A00060570200E89AFF1FA99AFF1F78570200BD
:1008B0007898FF1F9898FF1F5898FF1FA88CFF1F5C
:1008C00094570200A48CFF1F10B7FF1FA45702000B
:1008D000245702003498FF1FF496FF1FB8570200F8
:1008E0003CB1FF1FD85702001098FF1FE4570200C9
:1008F000F457020070A2FF1FC496FF1F2DE9F04FAE
:100900009DB081460025A44B1D70A44C23685B68F4
:100910002046A3490C229847A24B1968204630393B
:100920001EF0C0FB20461EF05DFB0CA829464022AD
:1009300021F05EFB9C482946EE2221F059FB0CA8D1
:10094000494605F0A5FAB0F1000A5FDD23685B684F
:10095000204696491922984720461EF043FB2368FB
:100960005B68204692490D229847204651461EF06A
:1009700099FB20461EF036FB8E4B1B78002B40F077
:10098000128423685B6820468B49092298472046D9
:100990001EF028FB0DF12F0404EB0A087F4F1026F0
:1009A000384614F8011F32462B461EF03FFB4445E3
:1009B000F6D17A481EF016FB804B93F82210723164
:1009C0000CA849447E4A534608F074FFEBE33846CE
:1009D00014F8011F32462B461EF028FB4445F6D181
:1009E0006E4C20461EF0FEFA6B4D85F800A0236881
:1009F0005B68204673491822984720461EF0F2FA99
:100A00002B780221684AD15401332B700CA80021A5
:100A1000402221F0EDFA0CA8494603F0C7FC9DF8EE
:100A20003030002B2CD05D4C23685B682046664933
:100A30001D22984720461EF0D5FA23685B682046A1
:100A400062490622984720469DF830100A2200236A
:100A50001EF0ECFA23685B6820465D492122984726
:100A600020461EF0BFFA9DF830301E2B0BD80093A5
:100A7000494A11780A334C4843540131117004E05B
:100A80000023009301E0002300930CA8494605F0E1
:100A9000D3FDB0F1000A53DD404C23685B6820466B
:100AA0004C491E22984720461EF09CFA23685B683A
:100AB0002046494912229847204651461EF0F2FA34
:100AC00020461EF08FFA3B4B1B78002B40F08583AD
:100AD00023685B68204638490922984720461EF063
:100AE00081FA0DF12F0404EB0A082C4F1026002583
:100AF000384614F8011F32462B461EF097FA44453B
:100B0000F6D126481EF06EFA2C4B93F82210753160
:100B10000CA849442A4A534608F0CCFE5DE3384607
:100B200014F8011F32462B461EF080FA4445F6D1D8
:100B30001A481EF057FA184B1A78924483F800A00E
:100B40000CA80021402221F053FA0CA8494603F0DA
:100B500067F89DF83030002B61D0312B42D10F4C1B
:100B600023685B6820461D491F22984720461EF0D7
:100B700039FA094D2B7801210B4AD15423685B685F
:100B8000204617490322984720461EF02BFA2B785F
:100B900001332B7043E000BFDC96FF1F08B5FF1F39
:100BA00000580200BC96FF1F0C97FF1F1058020050
:100BB0002C580200A89AFF1F3C5802001098FF1FF3
:100BC0007898FF1F485802006458020084580200B9
:100BD0008C580200B0580200D0580200E4580200BD
:100BE00004590200322B1AD19B4C23685B682046C3
:100BF0009A491F22984720461EF0F4F9984D2B7809
:100C00000221984AD15423685B68204696490622FF
:100C1000984720461EF0E6F92B7801332B700CA87C
:100C20000021402221F0E4F90CA8494603F0F0FC31
:100C30009DF83030002B2CD0874C23685B68204611
:100C40008A491D22984720461EF0CCF923685B682C
:100C5000204687490622984720469DF830100A22F0
:100C600000231EF0E3F923685B68204681492122B6
:100C7000984720461EF0B6F99DF830301E2B0BD851
:100C80009B46774A11780A337648435401311170F4
:100C900004E04FF0000B01E04FF0000B0CA84946B8
:100CA00002F094FCB0F1000A53DD6B4C23685B68E2
:100CB000204671491F22984720461EF093F9236869
:100CC0005B6820466D4912229847204651461EF027
:100CD000E9F920461EF086F9694B1B78002B40F09D
:100CE000958223685B68204666490922984720461A
:100CF0001EF078F90DF12F0404EB0A08564F102668
:100D00000025384614F8011F32462B461EF08EF996
:100D10004445F6D150481EF065F95B4B93F822101C
:100D200070310CA84944594A534608F0C3FD6DE29E
:100D3000384614F8011F32462B461EF077F9444519
:100D4000F6D145481EF04EF9454B1A78924483F887
:100D500000A00CA80021402221F04AF90CA8494625
:100D600003F090F89DF83030002B38D0312B1AD199
:100D7000394C23685B68204645491F229847204626
:100D80001EF030F923685B682046424903229847E9
:100D900020461EF027F9324B1A7801203149885439
:100DA00002441A701BE0322B19D12B4C23685B686C
:100DB000204637491F22984720461EF013F9236822
:100DC0005B68204634490622984720461EF00AF9FF
:100DD000234B1A7802202349885401321A700CA838
:100DE0000021402221F004F90CA8494603F042FDFD
:100DF0009DF83030002B2CD0174C23685B682046C0
:100E000026491D22984720461EF0ECF823685B68AF
:100E1000204617490622984720469DF830100A229E
:100E200000231EF003F923685B6820461C491C223E
:100E3000984720461EF0D6F89DF830301E2B31D84A
:100E40009846074A11780A33064843540131117015
:100E50002AE04FF0000827E008B5FF1FE458020021
:100E6000DC96FF1F0C97FF1F085902001059020063
:100E7000845802003059020054590200745902008B
:100E8000A89AFF1F3C5802001098FF1F7898FF1F78
:100E90008859020004590200A8590200B059020002
:100EA000D05902004FF000080CA80021402221F088
:100EB0009FF80CA8494603F03FFE9DF83030002B08
:100EC00000F05681672B40F0E0808B4C23685B6814
:100ED00020468A491E22984720461EF083F80CA817
:100EE000494605F0E9FF019023685B682046844984
:100EF0000922984720461EF075F8019B002B0FDD54
:100F00000DF12F049A46A2447B4F10260025384647
:100F100014F8011F32462B461EF088F85445F6D1CE
:100F2000754C20461EF05EF823685B6820467549C4
:100F300012229847204601991EF0B4F820461EF070
:100F400051F8714B1B784BB9704B93F822107431E8
:100F50000CA849446E4A019B08F0ACFC0CA86D49F2
:100F6000019A6D4B1B7804F039FB634C23685B6876
:100F700020466A490B22984720461EF033F8019B11
:100F8000002B0FDD0DF12F049A46A2445A4F102674
:100F90000025384614F8011F32462B461EF046F84D
:100FA0005445F6D1544C20461EF01CF802A80CA95A
:100FB000019A01F0B7FA01F005FC009B1844834444
:100FC000D844204641461EF06DF820461EF00AF82F
:100FD00002A8414601F0AAFA044601F073FC78B970
:100FE0004D4B1B784B4A4E21D15413444F225A701B
:100FF00054229A705321D970452119715A710FE00A
:10100000454B1B782178434AD15461781344597079
:10101000A2789A70E278DA7022791A7162795A713C
:101020003D4B1A7806321A700CA80021402220F09D
:10103000DFFF0CA8494603F057F89DF8303023B382
:10104000312B10D12C4C20463549FFF7CDFA2046E4
:101050003449FFF7C9FA304B1A7801202D498854DA
:1010600002441A7011E0322B0FD1234C20462C4938
:10107000FFF7BAFA20462C49FFF7B6FA264B1A7842
:1010800002202449885401321A709DF83030792B9F
:1010900060D11D4B1B78002B6AD1174C23685B680D
:1010A000204622491822984720461DF09BFF1A4CE3
:1010B00023781848184406F099FC23782C332370C1
:1010C0000CA8494603F010F89DF83030002B4FD0A3
:1010D000312B2DD1084C20461149FFF785FA2046C7
:1010E0001049FFF781FA0C4B1A78012009498854FE
:1010F00002441A702EE000BF08B5FF1FF05902002D
:101100003C580200105A0200A89AFF1F1098FF1FB7
:101110007898FF1F0C97FF1FDC96FF1F245A0200D0
:10112000305A020004590200A8590200505A020025
:10113000322B0FD1434C20464349FFF755FA204646
:101140004249FFF751FA424B1A780220414988542C
:1011500001321A709DF83030752B09D13E4B1B7847
:1011600033B93B4B1A7809203A49885401321A7036
:10117000384D374B1B780022EA54324C23685B68A9
:10118000204636491922984720461DF02BFF297822
:10119000002954D023681B682046984715F8011F82
:1011A0000029F7D14BE00CA82A495246284B1B785E
:1011B00004F014FA234C23685B68204628490B226C
:1011C000984720461DF00EFF0DF12F040AEB04088E
:1011D0001C4F10260025FFF7FABB0CA81D495246EC
:1011E0001B4B1B7804F0FAF9164C23685B68204609
:1011F0001B490B22984720461DF0F4FE0DF12F04E9
:1012000004EB0A080F4F1026002588E40CA81149AA
:1012100052460F4B1B7804F0E1F90A4C23685B68D7
:1012200020460F490B22984720461DF0DBFE0DF1AA
:101230002F0404EB0A08034F1026002578E51DB0A3
:10124000BDE8F08F08B5FF1F305A0200A859020010
:10125000DC96FF1F0C97FF1FA89AFF1F6C5A020015
:10126000245A020038B5144B1B7873B9134C236809
:10127000134D5B68204629462D22984720461DF0D5
:10128000B1FE284604F0B6F938BD002006F056FC41
:101290000C4B1A680C4B1A600C4B1B781BB10C4B97
:1012A0001C68243C04E00A4B1C68303C06F0B2FB8E
:1012B0002046FFF723FB38BDA99AFF1F08B5FF1F83
:1012C000885A0200DCB3FF1F74A2FF1FA89AFF1FF9
:1012D000BC96FF1F38B5144B1B7873B9134C2368A9
:1012E000134D5B68204629462D22984720461DF065
:1012F00079FE284604F07EF938BD552006F01EFC24
:101300000C4B1A680C4B1A600C4B1B781BB10C4B26
:101310001C68243C04E00A4B1C68303C06F07AFB55
:10132000A01DFFF7EBFA38BDA99AFF1F08B5FF1FF4
:10133000885A0200DCB3FF1F74A2FF1FA89AFF1F88
:10134000BC96FF1F70B582B00546964B1B781BB943
:101350002D2006F0F3FB02E0002006F0EFFB924B9D
:101360001B68022B10DD914803685B689049592285
:101370009847904E904D0124304604F03BF92C7074
:10138000052006F0FDFBF7E78C4B1B78002B57D0B0
:10139000684601F013FB9DF80030002B00F01A8224
:1013A00001A801F0FBFA814C20468549FFF71CF9A2
:1013B00020469DF804100A2200231DF037FE204627
:1013C0001DF010FE9DF80430132B0ED97D4B03F158
:1013D0002101FF2203F8012F8B42FBD17A4804F050
:1013E000DBFB002001F0E2FA05E05A1C02A800F83D
:1013F000042D01F0DBFA9DF800300133DBB28DF8EB
:1014000000300A2B16D9694C23685B6820466F4967
:101410001B22984720461DF0E5FD20469DF8001050
:101420000A2200231DF002FE20461DF0DBFD07F01E
:101430009DF9D8E1684601F0C9FA00225F4B1A70A5
:101440006348644B197800F06DFD564B1B784BB91F
:101450005F4800F095FD28B95D4800F073FE002854
:1014600000F068814F4B1B78002B2FD1002001F03A
:10147000ADFA574800F064FD00224B4B1A60564C01
:10148000204604F0B7F85548554900F0BFFC4748DE
:101490002146FFF7A9F8534B1B7833B908F05EFAE1
:1014A0000BF0D4F8002001F081FA4F4B1A684F4B33
:1014B0001A6001223B4B1A704D4B1B78002B00F039
:1014C00092813D4B1A7006F0BBFA8CE1494B1B68C8
:1014D00023B9494B1B78002B2DD184E1032B0BDC66
:1014E000324C20464549FFF771F83A4B19682046BF
:1014F0003039FFF78BF876E1062B0BDC2B4C2046BE
:101500003F49FFF763F8334B196820463039FFF73E
:101510007DF868E1334B1B78002B40F06481234C4D
:1015200020463849FFF752F82A4B196820463039CF
:10153000FFF76CF857E10022334B1A70334B1B78DE
:10154000012B16D1324A1178224A1268914240F09A
:101550009980164C20462F49FFF738F81D4B196823
:1015600020463039FFF752F8284B1A7801321A70AA
:1015700039E1022B54D1284B1A78164B1B689A423A
:1015800040F08180094C20462449FFF71FF8114B99
:10159000196820463039FFF739F81C4B1A780132A8
:1015A0001A7020E1E89AFF1F0897FF1F08B5FF1F78
:1015B000B85A0200145B0200509AFF1F888CFF1F6C
:1015C000745B02007798FF1F7898FF1FB05B0200E2
:1015D000B099FF1FBC96FF1FCC5B02003498FF1F21
:1015E000F496FF1FA89AFF1FDCB3FF1F74A2FF1F12
:1015F00070A2FF1F489EFF1FA99AFF1FD85B020021
:10160000F05B02000C5C02000C97FF1F60ADFF1F37
:1016100010AEFF1F285C020011AEFF1F3C5C0200F1
:10162000032B2FD1714B1A78714B1B689A422AD128
:10163000704C20467049FEF7C9FF6D4B1968204673
:101640003039FEF7E3FF6D4B1A7801321A7044F21D
:1016500028001DF07FF90A201CF0B2F944F228009E
:101660001DF018F9664B1B79ED2B02D164480AF086
:1016700025FD634B1B79F02B40F0B58060480AF0E4
:101680002FFFB0E0C3B100245C4B1C7006F0C2F920
:1016900044F228001DF05EF90A201CF091F944F292
:1016A00028001DF0F7F8574803F0A4FF564B1C60C4
:1016B000552006F043FA96E0312D22DD4C4B1B6895
:1016C000312B0ED1514D524C2846214600F09EFB45
:1016D00009F074FA07F0C4FD2846214600F0C6FB65
:1016E00081E0362B0DD101244A4B1C7000224A4B5D
:1016F0001A704A4B1C704A4800F022FC494B1C608F
:1017000071E00A2D6ADC434B1B7823B9FFF7AAFD71
:1017100001E0FFF7DFFD444A444B1A603B4C204692
:101720003B4900F073FB20464149424B1A7800F0D8
:101730007FFB58E03A4800F0C1FC30B12D483E49EB
:10174000FEF752FF07F012F84DE0364B1B68092BED
:1017500017DC284C20463949FEF738FF244B19681E
:1017600020463039FEF752FF20463549FEF72EFF5E
:101770002C4D20462968FEF749FF2B6801332B606A
:1017800031E00125254B1D702E4B1A682A441A6042
:101790002D4B1D70032006F0F3F9164C20462B4903
:1017A000FEF714FF684601F009F99DF80010204685
:1017B000C1F10A011DF076FC20462549FEF714FF11
:1017C00020462449FEF710FF154800F0B9FB154BE1
:1017D0001D6008E001238DF800302BE60D4B1B78CF
:1017E000002B98D195E702B070BD00BF12AEFF1F6D
:1017F000BC96FF1F08B5FF1F505C020060ADFF1FC5
:10180000649AFF1F645C02004C9AFF1F3498FF1F0C
:10181000C496FF1F70A2FF1FE89AFF1F888CFF1F4E
:10182000B099FF1F848CFF1F0C97FF1FFC97FF1FB1
:10183000E096FF1FA88CFF1F8C5C0200D85B0200A3
:10184000A85C02000897FF1F509AFF1FD45C02009B
:10185000F05C0200285D020010B56E4B1B7813B3DC
:101860006D4B1B78FBB908F0A5FF6C4B1B78D3B10F
:1018700006F0C8F86A4B1B78ABB16A4A11684EF69D
:10188000602202FB03F3684A12688A1A93420AD85C
:101890000022604B1A700124644B1C70644800F0F5
:1018A0004FFB644B1C60644B1B7853B1594B1B7846
:1018B0003BB1624B1B7823B90122614B1A7006F0D1
:1018C000BFF803F0FFFD5F4B1A6840F2DC539A4209
:1018D0000CD900235C4A13605C4A13605C4B1A68A5
:1018E00001321A6035225B4B1A607EE05A4B1A684F
:1018F00040F2DC539A420CD90023534A1360534AF6
:101900001360534B1A6801321A603222514B1A602D
:101910006BE0524B1A6840F2DC539A420CD9002318
:10192000494A1360494A1360494B1A6801321A60E8
:101930003122484B1A6058E0494B1A6840F2DC5398
:101940009A420CD90023404A1360404A1360404B2E
:101950001A6801321A6033223E4B1A6045E0414B4F
:101960001A6840F2DC539A420CD90023364A1360BD
:10197000364A1360364B1A6801321A603422354BEE
:101980001A6032E0384B1A6840F2DC539A420CD9A4
:1019900000232D4A13602D4A13602D4B1A68013223
:1019A0001A6036222B4B1A601FE0294B1C68204618
:1019B0001FF0CEFB4FF07C511FF08AFC08B1234B87
:1019C0001C600022224B1A601F4B1A6801321A60F9
:1019D000104B1B781BB9002006F0B0F805E0174B40
:1019E0001B7813B9552006F0A9F8184B1C68002C79
:1019F0000EDD154B18681FF0ABFB4FF07C511FF04C
:101A000067FC28B12046FFF79DFC00220F4B1A60AF
:101A100010BD00BFE89AFF1F60ADFF1FA99AFF1F0E
:101A2000A48CFF1FDCB3FF1F74A2FF1F888CFF1F55
:101A3000B099FF1F848CFF1F70A2FF1F409EFF1FE5
:101A4000509AFF1FE09AFF1FB896FF1FD896FF1FFE
:101A5000C096FF1FBC96FF1FE49AFF1FAC9AFF1FA2
:101A6000B09AFF1FB49AFF1FB89AFF1F08B514F071
:101A700063F808486421084A00F03EFA07486421E8
:101A8000074A00F039FA07484FF47A71064A00F025
:101A900033FA08BDC496FF1F59180000E096FF1FD7
:101AA0008D040000F496FF1F650400002DE9F00F7F
:101AB000CAB001900A460023D078CC5C40EA0460AA
:101AC000547840EA0440947840EA042003F1280561
:101AD0006C46285104330432402BEDD10AAB00226E
:101AE000986B59685D6A02F128076E46BC592C4410
:101AF0004FEA704585EAF04585EA902020444FEA98
:101B0000F11484EAB14484EAD10101441964043235
:101B10000433C02AE4D10199096D0291019A526DF2
:101B20000392019B9B6D0493019CE46D0594019DC0
:101B30002D6E0695019E766E0796019FBF6E0897E3
:101B40000199C96E099189463D46B446069BA04657
:101B500004981446029A0021DFF8A8A001F1280B8E
:101B60006F465BF8076051F80A7037444FEAB316C6
:101B700086EAF32686EA7366374425EA03060CEA0A
:101B8000030B86EA0B063E444E4480EA04071740E6
:101B900000EA040987EA09074FEAB20989EA7239BB
:101BA00089EAB2594F44B0443E440431B1F5807FD4
:101BB00008D0A94665469C464346804620461446C2
:101BC0003246CBE702990E44019F3E6503990A44D1
:101BD0007A65049A1444BC65059C2044F865069A0D
:101BE00042443A66079E33447B66089B6344BB6667
:101BF000099F3D44DDF804B0CBF86C504AB0BDE815
:101C0000F00F7047685D0200002303640022002388
:101C1000C0E912230A4B03650A4B43650A4B8365EF
:101C20000A4BC3650A4B03660A4B43660A4B83663D
:101C300003F17453A3F52303A3F69243C3667047DD
:101C400067E6096A85AE67BB72F36E3C3AF54FA54D
:101C50007F520E518C68059BABD9831F2DE9F84349
:101C600006469046DAB10F4688444FF00009336CBF
:101C700017F8012BF25401333364402B0DD1304659
:101C80003146FFF713FFD6E9124514F5007445F10C
:101C90000005C6E91245C6F840904745E7D1BDE8C2
:101CA000F88300BF2DE9F84F80468946026C372A39
:101CB0000CD8531C80218154372B1CD8024400219E
:101CC000013302F8011F382BFAD114E0531C802194
:101CD00081543F2B06D802440021013302F8011F32
:101CE000402BFAD140464146FFF7E0FE4046002136
:101CF000382220F07DF9D8F84030D900D8E91223F5
:101D0000521843F10003C8E9122388F83F20100A53
:101D100040EA0360190A88F83E00160C46EA0346BA
:101D20001F0C88F83D60140E44EA03241D0E88F849
:101D30003C4088F83B3088F83A1088F8397088F8C9
:101D4000385040464146FFF7B1FE0322D300D8F891
:101D50005010D94089F80010D8F85410D94089F8AB
:101D60000410D8F85810D94089F80810D8F85C1039
:101D7000D94089F80C10D8F86010D94089F81010B3
:101D8000D8F86410D94089F81410D8F86810D940F0
:101D900089F81810D8F86C1021FA03F389F81C3070
:101DA000013A09F10109B2F1FF3FCFD1BDE8F88F47
:101DB00000B583B006490A684B6888680090C96816
:101DC00001910448044920F079FB03B05DF804FB5D
:101DD0000098FF1F1098FF1F685E0200064B1A68EC
:101DE000064B1A60064A12685A60064A12689A60E0
:101DF000054A1268DA607047548004400098FF1F5B
:101E0000588004405C80044060800440026872B1E5
:101E10008A4209D1136903607047994201D01A467A
:101E200002E00B69136170471369002BF5D170470D
:101E3000F8B507460D461646FFF7E8FF3C680CB9B3
:101E40003D6004E023690BB11C46FBE725611BF0F4
:101E500095FD2B68C01A686006FB06F642F2107307
:101E600003FB06F62E6000232B61F8BD38B505464E
:101E70000C46FFF7CBFF2A680AB92C6004E013690F
:101E80000BB11A46FBE714611BF078FD2368C01AFA
:101E900060600023236138BD38B50C461BF06EFD31
:101EA0000546626823681344984205D362689342EA
:101EB00008D26268904205D36268954207D2626890
:101EC000934204D3A560E36820469847656038BD17
:101ED00038B505462C68002CFCD028462146FFF773
:101EE000DBFF2469002CF8D1F4E700BF08B50148F6
:101EF000FFF7EEFF3498FF1F10B44FF47A7404FB21
:101F000001F10160C2600022426002615DF8044B91
:101F1000704700BF0161002202730270704700BF6A
:101F200001617047037B0B2B07D05A1CD2B202739E
:101F3000C15400238354012070470020704700BF24
:101F4000002303730370704710B401690A780478A2
:101F500000237AB9D4F1010038BF00200DE011F858
:101F6000012F10F8014F01330B2BF2D1002004E0B8
:101F7000002002E0A242F2D0FAE75DF8044B70477D
:101F80002DE9F0479CB006460024DFF81481054691
:101F9000335D04F808300134284620F02FFBA042BE
:101FA000F6D26846FFF730FE284620F027FB0246AF
:101FB00068463B49FFF752FE3A4803685B683A4976
:101FC0000B229847394B5C1E03F11F08354F102632
:101FD0000025384614F8011F32462B461DF026F81E
:101FE0004445F6D12F4C20461CF0FCFF68462F4993
:101FF0002022FFF733FEDFF8A89068464946FFF736
:1020000051FE23685B68204629490D22984709F153
:10201000FF3409F11F08234F10260025384614F815
:10202000011F32462B461DF001F84445F6D11D4CE8
:1020300020461CF0D7FF23685B6820461D49092213
:102040009847DFF874A00AF1FF340AF11F08154F12
:1020500010260025384614F8011F32462B461CF086
:10206000E5FF4445F6D10F481CF0BCFF124B197830
:102070000B4B1A780AF11E00534604E0914214BF3C
:102080000020012009E0914206D113F8011F19F840
:10209000012F8342F7D1F1E700201CB0BDE8F087A3
:1020A000B898FF1F08B5FF1F805E02003898FF1F19
:1020B0008C5E02009C5E02007898FF1F2DE9F843B9
:1020C0001C4C20461CF08EFF23685B6820461A4992
:1020D0000C229847DFF8649009F1FF3409F11F08DA
:1020E000144F10260025384614F8011F32462B469F
:1020F0001CF09CFF4445F6D10E481CF073FF0F4BBB
:102100001A780F48017809F11E044B4605E08A420F
:1021100014BF00200120BDE8F8838A4206D113F8DD
:10212000012F10F8011FA342F7D1F0E70020BDE80E
:10213000F88300BF08B5FF1FA85E02009898FF1F34
:10214000B898FF1F2DE9F8431E4C20461CF04AFFAB
:1021500023685B6820461C490C229847DFF86C9086
:1021600009F1FF3409F11F08164F102600253846E3
:1021700014F8011F32462B461CF058FF4445F6D197
:1021800010481CF02FFF114B1A781148017809F103
:102190001E044B4606E08A420DD101200D4B1870FB
:1021A000BDE8F8838A4209D113F8012F10F8011F06
:1021B000A342F7D1EFE70020BDE8F8830020BDE897
:1021C000F88300BF08B5FF1FB85E02005898FF1FD4
:1021D000B898FF1FA89AFF1F08B513F0ADFC08BD03
:1021E00070B40546064C0FCCE86429656A65AB659A
:1021F0002068E86500232B6685F8483070BC70477E
:102200008C8CFF1F2DE9F00F86B0C36C0193076D16
:102210000297436D0393876D0497C36D05931E4624
:102220003C460399DDF808C0019D0E220023DFF82B
:1022300008A1DFF808912CE00F2B24D903F00F063A
:1022400000EB860602F00F0808F1020850F828801B
:10225000B76887EA0808A2F1050B0BF00F0B0BF12A
:10226000020B50F82BB088EA0B08A2F10B0B0BF015
:102270000F0B0BF1020B50F82BB088EA0B084FEA5A
:10228000F878C6F80880013226460C466146AC460E
:10229000009D132B0CD884EA010808EA0C0888EA90
:1022A000040808F1B54808F51E3808F299181FE02F
:1022B000272B05D884EA010888EA0C08C84417E0EF
:1022C0003B2B09D84CEA010808EA04080CEA01078C
:1022D00048EA0708D0440BE084EA010888EA0C08C1
:1022E00008F14A4808F5C50808F5834808F156087A
:1022F00003F00F07023750F8277007EBF5674744E4
:10230000BE1900964FEABC0C0133DBB2502B93D1BF
:10231000019B3344C364029B1D440565039B6344D6
:102320004365049F39448165059B1C44C46506B020
:10233000BDE8F00F704700BFDCBC1B8FA1EBD96E6E
:1023400010B5044690F8483083F00302024411723D
:102350000133DBB280F84830402B04D1FFF752FF45
:10236000002384F8483010BD08B5026E01320266C1
:10237000FFF7E6FF012008BD38B504468021FFF7CE
:10238000DFFF94F84830382B08D000252046294636
:10239000FFF7D6FF94F84830382BF7D120460021BC
:1023A000FFF7CEFF20460021FFF7CAFF204600219D
:1023B000FFF7C6FF216E2046490FFFF7C1FF216ED0
:1023C0002046C1F34751FFF7BBFF216E2046C1F302
:1023D0004731FFF7B5FF216E2046C1F34711FFF7E4
:1023E000AFFF236ED900204601F0F801FFF7A8FFE8
:1023F00038BD00BF38B50546FFF7BEFF2A460021AD
:10240000D36C1C0E44EA0364180200F47F000443FA
:102410001B0A03F47F432343D364013104320529AB
:10242000EED105F14C0038BDF8B505460C46164610
:1024300000F164073846002140221FF0D9FD402EEC
:102440001ADD2846FFF7CCFE46B126442B681B68F0
:10245000284614F8011B9847B442F7D12846FFF7E5
:10246000C9FF036844688168C2686B667C60B960B4
:10247000FA6003693B6104E038462146324613F0B6
:1024800009F92846FFF7ACFE05F1630405F1A30640
:102490002B6814F8011F1B68284681F03601984705
:1024A000B442F5D1F8BD00BF70B50546FFF7A2FFF5
:1024B000026846688468C168C5F8A420C5F8A860A9
:1024C000C5F8AC40C5F8B0100269C5F8B42028467C
:1024D000FFF786FE05F1630405F1A3062B6814F8E7
:1024E000011F1B68284681F05C019847B442F5D172
:1024F00005F114062C462B681B68284694F8A41096
:1025000098470134B442F6D12846FFF773FF70BDF7
:10251000024B00221A71024A1A607047D898FF1FB6
:10252000D05E020001604260704700BF70B5044693
:10253000224B83FB01230B44C917C1EB231181609C
:102540000025057345738573C5730B0E03740B1457
:1025500043740B128374C174194E3046216862684B
:10256000FFF762FF33685B68304604F10C01082214
:1025700098473046FFF798FF6061C27C02F00F0277
:10258000A261E5612B461044E2691202E261C15C7E
:102590000A43E2610133042BF6D122F00043094AD9
:1025A00082FB03129214084901FB1232E2612034CB
:1025B000204606491FF082FF204670BD8988888822
:1025C000D898FF1F83DE1B4340420F00D85E0200F5
:1025D0002DE9F00F5B4BA3FB00425209C2EB021442
:1025E000A0EB84000870A3FB02A35B09C3EB0310FC
:1025F000A2EB80024A70544CA4FB03084FEA18185F
:1026000008EB4802A3EBC2038B70474608F10400B5
:102610004E4AA0FB0223C21A03EB52039B08C3EBF2
:10262000C303C01A0130C8700020024640F26D1C7E
:10263000474C4FF064094FF4B77BC5B205F2B27353
:10264000ABB113F0030F14D184FB03A6761109FB81
:10265000163686B984FB03A6F6114FF4C87A06FB3A
:102660001A36002E0CBF4FF4B776664604E0664675
:1026700002E0664600E05E46324401309742DCD21A
:102680008D71CBB113F0030F19D1314880FB03409A
:102690004011642404FB1030A0B92D4880FB03A036
:1026A000C0114FF4C87400FB1430002840F26D14C0
:1026B00008BF4FF4B77407E040F26D1404E040F235
:1026C0006D1401E04FF4B774121BC2EB0804204FE5
:1026D00087FB03074FEA671C642202FB1C3CFF11C7
:1026E0004FF4C87202FB173700221A4E4FF01C0835
:1026F00003F0030A4FF01D09D0B201280BD163B1DA
:10270000BAF1000F0BD1BCF1000F0AD1002F0CBFA2
:102710001D251C2506E0955D04E0454602E0454682
:1027200000E04D46A54205D8641B0130C0B201321D
:102730000C2AE1D10130487101340C71BDE8F00F71
:10274000704700BF89888888ABAAAAAA2549922425
:102750001F85EB51E05E020010B50446044B1B6878
:10276000984204D00349FFF733FF014B1C6010BDB2
:102770009099FF1F9499FF1F08B5FFF7EDFF024BDB
:10278000987900F2B27008BD9499FF1F074B18604A
:10279000074B1B681844074B18600222064B1A703F
:1027A000064B1A68064B1A60704700BF9C99FF1FC2
:1027B000A08CFF1FAC99FF1FA099FF1FDCB3FF1F68
:1027C000A899FF1F10B51C4B1A681C4B1B68D21A26
:1027D000B2F57A7F11D31A4A12680132164C03F50A
:1027E0007A732168501CC91AB1F57A7F01D3024669
:1027F000F5E713490A60114A1360124B1A68104B2F
:102800001B689A4214D8104B1B688BB1984710B1C3
:10281000FFF7BCFF0CE00D4B1A68094B1B681A440C
:10282000084B1A600A4B1A78003218BF01221A703E
:10283000034B186810BD00BFDCB3FF1FA899FF1F32
:102840009C99FF1FAC99FF1FA499FF1FA08CFF1F2D
:10285000A099FF1F08B5FFF7B5FFFFF77DFF014BFC
:10286000987808BD9499FF1F08B5FFF7ABFFFFF7F5
:1028700073FF014B587808BD9499FF1F08B5FFF707
:10288000A1FFFFF769FF014B187808BD9499FF1F5E
:1028900008B5FFF797FFFFF75FFF014B187908BDF9
:1028A0009499FF1F08B5FFF78DFFFFF755FF014B08
:1028B000587908BD9499FF1F08B5FFF783FFFFF70C
:1028C0005BFF08BD08B5FFF77DFF014B187808BD19
:1028D000A099FF1F70B516464AB10E440C46451A22
:1028E000204613F063F928550134B442F8D170BD85
:1028F00070B5154642B10C46461A2046315D13F0BC
:1029000069F90134013DF8D170BD00BF08B540F24E
:1029100094610122FFF7ECFF08BD00BF08B540F24B
:1029200095610122FFF7D6FF012008BD08B540F2EE
:1029300095610122FFF7DCFF08BD00BF08B540F23A
:1029400096610122FFF7C6FF012008BD08B540F2DD
:1029500096610122FFF7CCFF08BD00BF08B540F229
:1029600097610122FFF7B6FF012008BD08B540F2CC
:1029700097610122FFF7BCFF08BD00BF08B54FF407
:10298000D3610122FFF7A6FF012008BD08B54FF46F
:10299000D3610122FFF7ACFF08BD00BF08B540F2CC
:1029A00099610122FFF796FF012008BD08B540F2AA
:1029B00099610122FFF79CFF08BD00BF08B540F2F6
:1029C0009A610122FFF786FF012008BD08B540F299
:1029D0009A610122FFF78CFF08BD00BF08B540F2E5
:1029E00091610222FFF776FF022008BD08B540F290
:1029F00091610222FFF77CFF08BD00BF08B540F2DD
:102A000093610122FFF766FF012008BD08B540F27F
:102A100093610122FFF76CFF08BD00BF08B54FF4BA
:102A2000BE610122FFF756FF012008BD08B54FF433
:102A3000BE610122FFF75CFF08BD00BF08B540F290
:102A4000F1510122FFF746FF012008BD08B540F211
:102A5000F1510122FFF74CFF08BD00BF08B540F25D
:102A6000F2510122FFF736FF012008BD08B540F200
:102A7000F2510122FFF73CFF08BD00BF08B540F24C
:102A8000F3510122FFF726FF012008BD08B540F2EF
:102A9000F3510122FFF72CFF08BD00BF08B540F23B
:102AA000F4510122FFF716FF012008BD08B540F2DE
:102AB000F4510122FFF71CFF08BD00BF08B540F22A
:102AC000F5510122FFF706FF012008BD08B540F2CD
:102AD000F5510122FFF70CFF08BD00BF08B540F219
:102AE000F6510122FFF7F6FE012008BD08B540F2BD
:102AF000F6510122FFF7FCFE08BD00BF08B540F209
:102B0000F7510122FFF7E6FE012008BD08B540F2AB
:102B1000F7510122FFF7ECFE08BD00BF08B54FF4E6
:102B2000BF610122FFF7D6FE012008BD08B54FF4B2
:102B3000BF610122FFF7DCFE08BD00BF08B540F20F
:102B4000F9510122FFF7C6FE012008BD08B540F289
:102B5000F9510122FFF7CCFE08BD00BF08B540F2D5
:102B6000FA510122FFF7B6FE012008BD08B540F278
:102B7000FA510122FFF7BCFE08BD00BF08B540F2C4
:102B8000FB510122FFF7A6FE012008BD08B540F267
:102B9000FB510122FFF7ACFE08BD00BF08B540F2B3
:102BA000FC510122FFF796FE012008BD08B540F256
:102BB000FC510122FFF79CFE08BD00BF08B540F2A2
:102BC000FD510122FFF786FE012008BD08B540F245
:102BD000FD510122FFF78CFE08BD00BF08B540F291
:102BE000FE510122FFF776FE012008BD08B540F234
:102BF000FE510122FFF77CFE08BD00BF08B540F280
:102C0000FF510122FFF766FE012008BD08B540F222
:102C1000FF510122FFF76CFE08BD00BF08B54FF45D
:102C2000C0610122FFF756FE012008BD08B54FF430
:102C3000C0610122FFF75CFE08BD00BF08B540F28D
:102C400001610122FFF746FE012008BD08B540F2F0
:102C500001610122FFF74CFE08BD00BF08B540F23C
:102C600002610122FFF736FE012008BD08B540F2DF
:102C700002610122FFF73CFE08BD00BF08B540F22B
:102C800003610122FFF726FE012008BD08B540F2CE
:102C900003610122FFF72CFE08BD00BF08B540F21A
:102CA00004610122FFF716FE012008BD08B540F2BD
:102CB00004610122FFF71CFE08BD00BF08B540F209
:102CC00005610122FFF706FE012008BD08B540F2AC
:102CD00005610122FFF70CFE08BD00BF08B540F2F8
:102CE00006610122FFF7F6FD012008BD08B540F29C
:102CF00006610122FFF7FCFD08BD00BF08B540F2E8
:102D000007610122FFF7E6FD012008BD08B540F28A
:102D100007610122FFF7ECFD08BD00BF08B568217F
:102D20000122FFF7D7FD012008BD00BF08B56821CB
:102D30000122FFF7DDFD08BD08B569210122FFF77B
:102D4000C9FD012008BD00BF08B569210122FFF7B8
:102D5000CFFD08BD08B56A210122FFF7BBFD0120A8
:102D600008BD00BF08B56A210122FFF7C1FD08BDFB
:102D700008B56B210122FFF7ADFD012008BD00BFA2
:102D800008B56B210122FFF7B3FD08BD08B56C2122
:102D90000122FFF79FFD012008BD00BF08B56C218F
:102DA0000122FFF7A5FD08BD08B56D210122FFF73F
:102DB00091FD012008BD00BF08B56D210122FFF77C
:102DC00097FD08BD08B56E210122FFF783FD0120A4
:102DD00008BD00BF08B56E210122FFF789FD08BDBF
:102DE00008B56F210122FFF775FD012008BD00BF66
:102DF00008B56F210122FFF77BFD08BD08B57021E2
:102E00000122FFF767FD012008BD00BF08B5702152
:102E10000122FFF76DFD08BD08B571210122FFF702
:102E200059FD012008BD00BF08B571210122FFF73F
:102E30005FFD08BD08B572210122FFF74BFD01209F
:102E400008BD00BF08B572210122FFF751FD08BD82
:102E500008B573210122FFF73DFD012008BD00BF29
:102E600008B573210122FFF743FD08BD08B57421A1
:102E70000122FFF72FFD012008BD00BF08B5742116
:102E80000122FFF735FD08BD08B575210122FFF7C6
:102E900021FD012008BD00BF08B575210122FFF703
:102EA00027FD08BD08B576210122FFF713FD01209B
:102EB00008BD00BF08B576210122FFF719FD08BD46
:102EC00008B577210122FFF705FD012008BD00BFED
:102ED00008B577210122FFF70BFD08BD08B5782161
:102EE0000122FFF7F7FC012008BD00BF08B57821DB
:102EF0000122FFF7FDFC08BD08B579210122FFF78B
:102F0000E9FC012008BD00BF08B579210122FFF7C7
:102F1000EFFC08BD08B57A210122FFF7DBFC012098
:102F200008BD00BF08B57A210122FFF7E1FC08BD0A
:102F300008B57B210122FFF7CDFC012008BD00BFB1
:102F400008B57B210122FFF7D3FC08BD08B57C2121
:102F50000122FFF7BFFC012008BD00BF08B57C219E
:102F60000122FFF7C5FC08BD08B57D210122FFF74E
:102F7000B1FC012008BD00BF08B57D210122FFF78B
:102F8000B7FC08BD08B57E210122FFF7A3FC012094
:102F900008BD00BF08B57E210122FFF7A9FC08BDCE
:102FA00008B57F210122FFF795FC012008BD00BF75
:102FB00008B57F210122FFF79BFC08BD08B5202141
:102FC0000122FFF787FC012008BD00BF08B52021C2
:102FD0000122FFF78DFC08BD08B521210122FFF772
:102FE00079FC012008BD00BF08B521210122FFF7AF
:102FF0007FFC08BD08B522210122FFF76BFC0120F0
:1030000008BD00BF08B522210122FFF771FC08BDF1
:1030100008B523210122FFF75DFC012008BD00BF98
:1030200008B523210122FFF763FC08BD08B5242160
:103030000122FFF74FFC012008BD00BF08B5242185
:103040000122FFF755FC08BD08B525210122FFF735
:1030500041FC012008BD00BF08B525210122FFF772
:1030600047FC08BD08B526210122FFF733FC0120EB
:1030700008BD00BF08B526210122FFF739FC08BDB5
:1030800008B527210122FFF725FC012008BD00BF5C
:1030900008B527210122FFF72BFC08BD08B5282120
:1030A0000122FFF717FC012008BD00BF08B5282149
:1030B0000122FFF71DFC08BD08B529210122FFF7F9
:1030C00009FC012008BD00BF08B529210122FFF736
:1030D0000FFC08BD08B52A210122FFF7FBFB0120E8
:1030E00008BD00BF08B52A210122FFF701FC08BD79
:1030F00008B52B210122FFF7EDFB012008BD00BF21
:1031000008B52B210122FFF7F3FB08BD08B52C21E0
:103110000122FFF7DFFB012008BD00BF08B52C210D
:103120000122FFF7E5FB08BD08B52D210122FFF7BD
:10313000D1FB012008BD00BF08B52D210122FFF7FA
:10314000D7FB08BD08B52E210122FFF7C3FB0120E4
:1031500008BD00BF08B52E210122FFF7C9FB08BD3D
:1031600008B52F210122FFF7B5FB012008BD00BFE4
:1031700008B52F210122FFF7BBFB08BD08B53021A0
:103180000122FFF7A7FB012008BD00BF08B53021D1
:103190000122FFF7ADFB08BD08B531210122FFF781
:1031A00099FB012008BD00BF08B531210122FFF7BE
:1031B0009FFB08BD08B532210122FFF78BFB0120E0
:1031C00008BD00BF08B532210122FFF791FB08BD01
:1031D00008B533210122FFF77DFB012008BD00BFA8
:1031E00008B533210122FFF783FB08BD08B5342160
:1031F0000122FFF76FFB012008BD00BF08B5342195
:103200000122FFF775FB08BD08B535210122FFF744
:1032100061FB012008BD00BF08B535210122FFF781
:1032200067FB08BD08B536210122FFF753FB0120DB
:1032300008BD00BF08B536210122FFF759FB08BDC4
:1032400008B537210122FFF745FB012008BD00BF6B
:1032500008B537210122FFF74BFB08BD08B54FF435
:10326000CA610122FFF736FB012008BD08B54FF403
:10327000CA610122FFF73CFB08BD00BF08B540F260
:1032800051610122FFF726FB012008BD08B540F27D
:1032900051610122FFF72CFB08BD00BF08B540F2C9
:1032A00052610122FFF716FB012008BD08B540F26C
:1032B00052610122FFF71CFB08BD00BF08B540F2B8
:1032C00053610122FFF706FB012008BD08B540F25B
:1032D00053610122FFF70CFB08BD00BF08B540F2A7
:1032E00054610122FFF7F6FA012008BD08B540F24B
:1032F00054610122FFF7FCFA08BD00BF08B540F297
:1033000055610122FFF7E6FA012008BD08B540F239
:1033100055610122FFF7ECFA08BD00BF08B540F285
:1033200056610122FFF7D6FA012008BD08B540F228
:1033300056610122FFF7DCFA08BD00BF08B540F274
:1033400057610122FFF7C6FA012008BD08B540F217
:1033500057610122FFF7CCFA08BD00BF08B54FF452
:10336000CB610122FFF7B6FA012008BD08B54FF482
:10337000CB610122FFF7BCFA08BD00BF08B540F2DF
:1033800059610122FFF7A6FA012008BD08B540F2F5
:1033900059610122FFF7ACFA08BD00BF08B540F241
:1033A0005A610122FFF796FA012008BD08B540F2E4
:1033B0005A610122FFF79CFA08BD00BF08B540F230
:1033C0005B610122FFF786FA012008BD08B540F2D3
:1033D0005B610122FFF78CFA08BD00BF08B540F21F
:1033E0005C610122FFF776FA012008BD08B540F2C2
:1033F0005C610122FFF77CFA08BD00BF08B540F20E
:103400005D610122FFF766FA012008BD08B540F2B0
:103410005D610122FFF76CFA08BD00BF08B540F2FC
:103420005E610122FFF756FA012008BD08B540F29F
:103430005E610122FFF75CFA08BD00BF08B540F2EB
:103440005F610122FFF746FA012008BD08B540F28E
:103450005F610122FFF74CFA08BD00BF08B54FF4C9
:10346000CC610122FFF736FA012008BD08B54FF400
:10347000CC610122FFF73CFA08BD00BF08B540F25D
:1034800061610122FFF726FA012008BD08B540F26C
:1034900061610122FFF72CFA08BD00BF08B540F2B8
:1034A00062610122FFF716FA012008BD08B540F25B
:1034B00062610122FFF71CFA08BD00BF08B540F2A7
:1034C00063610122FFF706FA012008BD08B540F24A
:1034D00063610122FFF70CFA08BD00BF08B540F296
:1034E00064610122FFF7F6F9012008BD08B540F23A
:1034F00064610122FFF7FCF908BD00BF08B540F286
:1035000065610122FFF7E6F9012008BD08B540F228
:1035100065610122FFF7ECF908BD00BF08B540F274
:1035200066610122FFF7D6F9012008BD08B540F217
:1035300066610122FFF7DCF908BD00BF08B540F263
:1035400067610122FFF7C6F9012008BD08B540F206
:1035500067610122FFF7CCF908BD00BF08B5022161
:103560001022FFF7B7F9102008BD00BF08B50221EF
:103570001022FFF7BDF908BD08B51E210222FFF792
:10358000A9F9022008BD00BF08B51E210222FFF7DD
:10359000AFF908BD08B518210622FFF79BF90620F0
:1035A00008BD00BF08B518210622FFF7A1F908BD24
:1035B00008B512210622FFF78DF9062008BD00BFCD
:1035C00008B512210622FFF793F908BD30B583B084
:1035D00004460139172900F2B081DFE811F0180024
:1035E0002800380049005A006B007C008D009E00C6
:1035F000AF00C000D100E200F30004011501260174
:103600003701480159016A017B018C019D010DF1CF
:103610000700FFF703FA9DF80750382DA8BF38259B
:103620002046B0213822FFF755F9284686E10DF1F2
:103630000700FFF703FA9DF80750382DA8BF38257B
:103640002046E8213822FFF745F9284676E10DF1BA
:103650000700FFF703FA9DF80750382DA8BF38255B
:1036600020464FF490713822FFF734F9284665E17F
:103670000DF10700FFF702FA9DF80750382DA8BF9B
:10368000382520464FF4AC713822FFF723F928463D
:1036900054E10DF10700FFF701FA9DF80750382DAE
:1036A000A8BF382520464FF4C8713822FFF712F919
:1036B000284643E10DF10700FFF700FA9DF8075097
:1036C000382DA8BF382520464FF4E4713822FFF783
:1036D00001F9284632E10DF10700FFF7FFF99DF8E7
:1036E0000750382DA8BF382520464FF400713822E6
:1036F000FFF7F0F8284621E10DF10700FFF7FEF98A
:103700009DF80750382DA8BF382520464FF40E717C
:103710003822FFF7DFF8284610E10DF10700FFF728
:10372000FDF99DF80750382DA8BF382520464FF4E5
:103730001C713822FFF7CEF82846FFE00DF1070094
:10374000FFF7FCF99DF80750382DA8BF3825204613
:103750004FF42A713822FFF7BDF82846EEE00DF14C
:103760000700FFF7FBF99DF80750382DA8BF382553
:1037700020464FF438713822FFF7ACF82846DDE0D8
:103780000DF10700FFF7FAF99DF80750382DA8BF93
:10379000382520464FF446713822FFF79BF828461B
:1037A000CCE00DF10700FFF7F9F99DF80750382D2F
:1037B000A8BF382520464FF454713822FFF78AF805
:1037C0002846BBE00DF10700FFF7F8F99DF8075018
:1037D000382DA8BF382520464FF462713822FFF7F4
:1037E00079F82846AAE00DF10700FFF7F7F99DF8F0
:1037F0000750382DA8BF382520464FF47071382265
:10380000FFF768F8284699E00DF10700FFF7F6F991
:103810009DF80750382DA8BF382520464FF47E71FB
:103820003822FFF757F8284688E00DF10700FFF728
:10383000F5F99DF80750382DA8BF382520464FF4DC
:1038400086613822FFF746F8284677E00DF1070039
:10385000FFF7F4F99DF80750382DA8BF382520460A
:103860004FF48D613822FFF735F8284666E00DF1F8
:103870000700FFF7F3F99DF80750382DA8BF38254A
:1038800020464FF494613822FFF724F8284655E08B
:103890000DF10700FFF7F2F99DF80750382DA8BF8A
:1038A000382520464FF49B613822FFF713F828464D
:1038B00044E00DF10700FFF7F1F99DF80750382DAE
:1038C000A8BF382520464FF4A2613822FFF702F83E
:1038D000284633E00DF10700FFF7F0F99DF8075097
:1038E000382DA8BF382520464FF4A9613822FEF7AD
:1038F000F1FF284622E00DF10700FFF7EFF99DF8F0
:103900000750382DA8BF382520464FF4B061382223
:10391000FEF7E0FF284611E00DF10700FFF7EEF992
:103920009DF80750382DA8BF382520464FF4B761C1
:103930003822FEF7CFFF284600E0002003B030BD5C
:1039400010B582B00C46013A172A00F26781DFE811
:1039500012F018002500320040004E005C006A00A2
:10396000780086009400A200B000BE00CC00DA000F
:10397000E800F6000401120120012E013C014A0179
:103980005801B0213822FEF7B3FF382CA8BF3824E5
:1039900002A800F8014DFFF749F83FE1E82138227D
:1039A000FEF7A6FF382CA8BF382402A800F8014D66
:1039B000FFF74CF832E14FF490713822FEF798FF90
:1039C000382CA8BF382402A800F8014DFFF74EF8A4
:1039D00024E14FF4AC713822FEF78AFF382CA8BFDF
:1039E000382402A800F8014DFFF750F816E14FF413
:1039F000C8713822FEF77CFF382CA8BF382402A8F3
:103A000000F8014DFFF752F808E14FF4E471382255
:103A1000FEF76EFF382CA8BF382402A800F8014D2D
:103A2000FFF754F8FAE04FF400713822FEF760FF18
:103A3000382CA8BF382402A800F8014DFFF756F82B
:103A4000ECE04FF40E713822FEF752FF382CA8BF7D
:103A5000382402A800F8014DFFF758F8DEE04FF4D3
:103A60001C713822FEF744FF382CA8BF382402A866
:103A700000F8014DFFF75AF8D0E04FF42A713822D0
:103A8000FEF736FF382CA8BF382402A800F8014DF5
:103A9000FFF75CF8C2E04FF438713822FEF728FFD8
:103AA000382CA8BF382402A800F8014DFFF75EF8B3
:103AB000B4E04FF446713822FEF71AFF382CA8BF45
:103AC000382402A800F8014DFFF760F8A6E04FF493
:103AD00054713822FEF70CFF382CA8BF382402A8F6
:103AE00000F8014DFFF762F898E04FF46271382258
:103AF000FEF7FEFE382CA8BF382402A800F8014DBE
:103B0000FFF764F88AE04FF470713822FEF7F0FE98
:103B1000382CA8BF382402A800F8014DFFF766F83A
:103B20007CE04FF47E713822FEF7E2FE382CA8BF0D
:103B3000382402A800F8014DFFF768F86EE04FF452
:103B400086613822FEF7D4FE382CA8BF382402A89C
:103B500000F8014DFFF76AF860E04FF48D613822FC
:103B6000FEF7C6FE382CA8BF382402A800F8014D85
:103B7000FFF76CF852E04FF494613822FEF7B8FE7C
:103B8000382CA8BF382402A800F8014DFFF76EF8C2
:103B900044E04FF49B613822FEF7AAFE382CA8BF00
:103BA000382402A800F8014DFFF770F836E04FF412
:103BB000A2613822FEF79CFE382CA8BF382402A848
:103BC00000F8014DFFF772F828E04FF4A9613822A0
:103BD000FEF78EFE382CA8BF382402A800F8014D4D
:103BE000FFF774F81AE04FF4B0613822FEF780FE58
:103BF000382CA8BF382402A800F8014DFFF776F84A
:103C00000CE04FF4B7613822FEF772FE382CA8BFE3
:103C1000382402A800F8014DFFF778F802B010BD73
:103C200008B50139172900F29E80DFE801F00C1277
:103C3000181E242A30363C42484E545A60666C7234
:103C4000787E848A909638210122FEF743FE012077
:103C500008BD39210122FEF73DFE012008BD3A21B1
:103C60000122FEF737FE012008BD3B210122FEF7AD
:103C700031FE012008BD3C210122FEF72BFE012070
:103C800008BD3D210122FEF725FE012008BD3E2191
:103C90000122FEF71FFE012008BD3F210122FEF791
:103CA00019FE012008BD40210122FEF713FE01206C
:103CB00008BD41210122FEF70DFE012008BD422171
:103CC0000122FEF707FE012008BD43210122FEF775
:103CD00001FE012008BD44210122FEF7FBFD012069
:103CE00008BD45210122FEF7F5FD012008BD462152
:103CF0000122FEF7EFFD012008BD47210122FEF75A
:103D0000E9FD012008BD48210122FEF7E3FD012065
:103D100008BD49210122FEF7DDFD012008BD4A2131
:103D20000122FEF7D7FD012008BD4B210122FEF73D
:103D3000D1FD012008BD4C210122FEF7CBFD012061
:103D400008BD4D210122FEF7C5FD012008BD4E2111
:103D50000122FEF7BFFD012008BD4F210122FEF721
:103D6000B9FD012008BD002008BD00BF08B501391C
:103D7000172900F28580DFE801F00C11161B2025C1
:103D80002A2F34393E43484D52575C61666B70753B
:103D90007A7F38210122FEF7ABFD08BD39210122CF
:103DA000FEF7A6FD08BD3A210122FEF7A1FD08BDE0
:103DB0003B210122FEF79CFD08BD3C210122FEF7BC
:103DC00097FD08BD3D210122FEF792FD08BD3E2171
:103DD0000122FEF78DFD08BD3F210122FEF788FD7F
:103DE00008BD40210122FEF783FD08BD41210122CB
:103DF000FEF77EFD08BD42210122FEF779FD08BDD8
:103E000043210122FEF774FD08BD44210122FEF783
:103E10006FFD08BD45210122FEF76AFD08BD462160
:103E20000122FEF765FD08BD47210122FEF760FD76
:103E300008BD48210122FEF75BFD08BD4921012292
:103E4000FEF756FD08BD4A210122FEF751FD08BDCF
:103E50004B210122FEF74CFD08BD4C210122FEF74B
:103E600047FD08BD4D210122FEF742FD08BD4E2150
:103E70000122FEF73DFD08BD4F210122FEF738FD6E
:103E800008BD00BF08B50139172900F29E80DFE8A0
:103E900001F00C12181E242A30363C42484E545A67
:103EA00060666C72787E848A909680210122FEF78B
:103EB00011FD012008BD81210122FEF70BFD01202B
:103EC00008BD82210122FEF705FD012008BD8321E6
:103ED0000122FEF7FFFC012008BD84210122FEF72C
:103EE000F9FC012008BD85210122FEF7F3FC012029
:103EF00008BD86210122FEF7EDFC012008BD8721C7
:103F00000122FEF7E7FC012008BD88210122FEF70F
:103F1000E1FC012008BD89210122FEF7DBFC012024
:103F200008BD8A210122FEF7D5FC012008BD8B21A6
:103F30000122FEF7CFFC012008BD8C210122FEF7F3
:103F4000C9FC012008BD8D210122FEF7C3FC012020
:103F500008BD8E210122FEF7BDFC012008BD8F2186
:103F60000122FEF7B7FC012008BD90210122FEF7D7
:103F7000B1FC012008BD91210122FEF7ABFC01201C
:103F800008BD92210122FEF7A5FC012008BD932166
:103F90000122FEF79FFC012008BD94210122FEF7BB
:103FA00099FC012008BD95210122FEF793FC012018
:103FB00008BD96210122FEF78DFC012008BD972146
:103FC0000122FEF787FC012008BD002008BD00BFCC
:103FD00008B50139172900F28580DFE801F00C11DE
:103FE000161B20252A2F34393E43484D52575C6119
:103FF000666B70757A7F80210122FEF779FC08BD1F
:1040000081210122FEF774FC08BD82210122FEF706
:104010006FFC08BD83210122FEF76AFC08BD8421E4
:104020000122FEF765FC08BD85210122FEF760FC38
:1040300008BD86210122FEF75BFC08BD8721012215
:10404000FEF756FC08BD88210122FEF751FC08BD91
:1040500089210122FEF74CFC08BD8A210122FEF7CE
:1040600047FC08BD8B210122FEF742FC08BD8C21D4
:104070000122FEF73DFC08BD8D210122FEF738FC30
:1040800008BD8E210122FEF733FC08BD8F210122DD
:10409000FEF72EFC08BD90210122FEF729FC08BD89
:1040A00091210122FEF724FC08BD92210122FEF796
:1040B0001FFC08BD93210122FEF71AFC08BD9421C4
:1040C0000122FEF715FC08BD95210122FEF710FC28
:1040D00008BD96210122FEF70BFC08BD97210122A5
:1040E000FEF706FC08BD00BF08B50139172900F22C
:1040F000B680DFE801F00C131A21282F363D444B1F
:10410000525960676E757C838A91989FA6AD4FF473
:10411000C1610122FEF7DEFB012008BD40F209610A
:104120000122FEF7D7FB012008BD40F20A610122FF
:10413000FEF7D0FB012008BD40F20B610122FEF723
:10414000C9FB012008BD40F20C610122FEF7C2FB51
:10415000012008BD40F20D610122FEF7BBFB0120EA
:1041600008BD40F20E610122FEF7B4FB012008BD3C
:1041700040F20F610122FEF7ADFB012008BD4FF4B4
:10418000C2610122FEF7A6FB012008BD40F21161C9
:104190000122FEF79FFB012008BD40F212610122BF
:1041A000FEF798FB012008BD40F213610122FEF7E3
:1041B00091FB012008BD40F214610122FEF78AFB49
:1041C000012008BD40F215610122FEF783FB0120AA
:1041D00008BD40F216610122FEF77CFB012008BDFC
:1041E00040F217610122FEF775FB012008BD4FF474
:1041F000C3610122FEF76EFB012008BD40F2196188
:104200000122FEF767FB012008BD40F21A6101227E
:10421000FEF760FB012008BD40F21B610122FEF7A2
:1042200059FB012008BD40F21C610122FEF752FB40
:10423000012008BD40F21D610122FEF74BFB012069
:1042400008BD40F21E610122FEF744FB012008BDBB
:1042500040F21F610122FEF73DFB012008BD002056
:1042600008BD00BF08B50139172900F29D80DFE8BD
:1042700001F00C12181E242A30363C42484E545A83
:1042800060666C72787E848A90964FF4C1610122D8
:10429000FEF72EFB08BD40F209610122FEF728FB64
:1042A00008BD40F20A610122FEF722FB08BD40F280
:1042B0000B610122FEF71CFB08BD40F20C610122DC
:1042C000FEF716FB08BD40F20D610122FEF710FB60
:1042D00008BD40F20E610122FEF70AFB08BD40F264
:1042E0000F610122FEF704FB08BD4FF4C2610122F9
:1042F000FEF7FEFA08BD40F211610122FEF7F8FA5E
:1043000008BD40F212610122FEF7F2FA08BD40F248
:1043100013610122FEF7ECFA08BD40F2146101229C
:10432000FEF7E6FA08BD40F215610122FEF7E0FA59
:1043300008BD40F216610122FEF7DAFA08BD40F22C
:1043400017610122FEF7D4FA08BD4FF4C3610122C0
:10435000FEF7CEFA08BD40F219610122FEF7C8FA55
:1043600008BD40F21A610122FEF7C2FA08BD40F210
:104370001B610122FEF7BCFA08BD40F21C6101225C
:10438000FEF7B6FA08BD40F21D610122FEF7B0FA51
:1043900008BD40F21E610122FEF7AAFA08BD40F2F4
:1043A0001F610122FEF7A4FA08BD00BF08B501395C
:1043B000172900F29E80DFE801F00C12181E242A53
:1043C00030363C42484E545A60666C72787E848A1D
:1043D000909650210122FEF77DFA012008BD51215F
:1043E0000122FEF777FA012008BD52210122FEF7D3
:1043F00071FA012008BD53210122FEF76BFA01205A
:1044000008BD54210122FEF765FA012008BD55219F
:104410000122FEF75FFA012008BD56210122FEF7B6
:1044200059FA012008BD57210122FEF753FA012055
:1044300008BD58210122FEF74DFA012008BD59217F
:104440000122FEF747FA012008BD5A210122FEF79A
:1044500041FA012008BD5B210122FEF73BFA012051
:1044600008BD5C210122FEF735FA012008BD5D215F
:104470000122FEF72FFA012008BD5E210122FEF77E
:1044800029FA012008BD5F210122FEF723FA01204D
:1044900008BD60210122FEF71DFA012008BD61213F
:1044A0000122FEF717FA012008BD62210122FEF762
:1044B00011FA012008BD63210122FEF70BFA012049
:1044C00008BD64210122FEF705FA012008BD65211F
:1044D0000122FEF7FFF9012008BD66210122FEF747
:1044E000F9F9012008BD67210122FEF7F3F9012047
:1044F00008BD002008BD00BF08B50139172900F22A
:104500008580DFE801F00C11161B20252A2F343995
:104510003E43484D52575C61666B70757A7F5021FF
:104520000122FEF7E5F908BD51210122FEF7E0F96D
:1045300008BD52210122FEF7DBF908BD53210122FB
:10454000FEF7D6F908BD54210122FEF7D1F908BDC6
:1045500055210122FEF7CCF908BD56210122FEF7B4
:10456000C7F908BD57210122FEF7C2F908BD58213D
:104570000122FEF7BDF908BD59210122FEF7B8F965
:1045800008BD5A210122FEF7B3F908BD5B210122C3
:10459000FEF7AEF908BD5C210122FEF7A9F908BDBE
:1045A0005D210122FEF7A4F908BD5E210122FEF77C
:1045B0009FF908BD5F210122FEF79AF908BD60212D
:1045C0000122FEF795F908BD61210122FEF790F95D
:1045D00008BD62210122FEF78BF908BD632101228B
:1045E000FEF786F908BD64210122FEF781F908BDB6
:1045F00065210122FEF77CF908BD66210122FEF744
:1046000077F908BD67210122FEF772F908BD00BFE6
:1046100008B50139172900F29E80DFE801F00C127D
:10462000181E242A30363C42484E545A60666C723A
:10463000787E848A909698210122FEF74BF901201A
:1046400008BD99210122FEF745F9012008BD9A21F4
:104650000122FEF73FF9012008BD9B210122FEF750
:1046600039F9012008BD9C210122FEF733F9012010
:1046700008BD9D210122FEF72DF9012008BD9E21D4
:104680000122FEF727F9012008BD9F210122FEF734
:1046900021F9012008BDA0210122FEF71BF901200C
:1046A00008BDA1210122FEF715F9012008BDA221B4
:1046B0000122FEF70FF9012008BDA3210122FEF718
:1046C00009F9012008BDA4210122FEF703F9012008
:1046D00008BDA5210122FEF7FDF8012008BDA62195
:1046E0000122FEF7F7F8012008BDA7210122FEF7FD
:1046F000F1F8012008BDA8210122FEF7EBF8012006
:1047000008BDA9210122FEF7E5F8012008BDAA2174
:104710000122FEF7DFF8012008BDAB210122FEF7E0
:10472000D9F8012008BDAC210122FEF7D3F8012001
:1047300008BDAD210122FEF7CDF8012008BDAE2154
:104740000122FEF7C7F8012008BDAF210122FEF7C4
:10475000C1F8012008BD002008BD00BF08B501391F
:10476000172900F28580DFE801F00C11161B2025C7
:104770002A2F34393E43484D52575C61666B707541
:104780007A7F98210122FEF7B3F808BD9921012212
:10479000FEF7AEF808BD9A210122FEF7A9F808BD80
:1047A0009B210122FEF7A4F808BD9C210122FEF7FF
:1047B0009FF808BD9D210122FEF79AF808BD9E21B1
:1047C0000122FEF795F808BD9F210122FEF790F81F
:1047D00008BDA0210122FEF78BF808BDA12101220E
:1047E000FEF786F808BDA2210122FEF781F808BD78
:1047F000A3210122FEF77CF808BDA4210122FEF7C7
:1048000077F808BDA5210122FEF772F808BDA621A0
:104810000122FEF76DF808BDA7210122FEF768F816
:1048200008BDA8210122FEF763F808BDA9210122D5
:10483000FEF75EF808BDAA210122FEF759F808BD6F
:10484000AB210122FEF754F808BDAC210122FEF78E
:104850004FF808BDAD210122FEF74AF808BDAE2190
:104860000122FEF745F808BDAF210122FEF740F80E
:1048700008BD00BF08B50139172900F2B680DFE88E
:1048800001F00C131A21282F363D444B5259606712
:104890006E757C838A91989FA6AD4FF4C461012206
:1048A000FEF718F8012008BD40F221610122FEF751
:1048B00011F8012008BD40F222610122FEF70AF83A
:1048C000012008BD40F223610122FEF703F8012018
:1048D00008BD40F224610122FDF7FCFF012008BD64
:1048E00040F225610122FDF7F5FF012008BD40F2ED
:1048F00026610122FDF7EEFF012008BD40F227618D
:104900000122FDF7E7FF012008BD4FF4C561012238
:10491000FDF7E0FF012008BD40F229610122FDF70B
:10492000D9FF012008BD40F22A610122FDF7D2FF24
:10493000012008BD40F22B610122FDF7CBFF0120D1
:1049400008BD40F22C610122FDF7C4FF012008BD23
:1049500040F22D610122FDF7BDFF012008BD40F2AC
:104960002E610122FDF7B6FF012008BD40F22F6144
:104970000122FDF7AFFF012008BD4FF4C6610122FF
:10498000FDF7A8FF012008BD40F231610122FDF7CB
:10499000A1FF012008BD40F232610122FDF79AFF1C
:1049A000012008BD40F233610122FDF793FF012091
:1049B00008BD40F234610122FDF78CFF012008BDE3
:1049C00040F235610122FDF785FF012008BD40F26C
:1049D00036610122FDF77EFF012008BD40F23761FC
:1049E0000122FDF777FF012008BD002008BD00BFB0
:1049F00008B50139172900F29D80DFE801F00C129B
:104A0000181E242A30363C42484E545A60666C7256
:104A1000787E848A90964FF4C4610122FDF768FF86
:104A200008BD40F221610122FDF762FF08BD40F29E
:104A300022610122FDF75CFF08BD40F223610122E3
:104A4000FDF756FF08BD40F224610122FDF750FF3B
:104A500008BD40F225610122FDF74AFF08BD40F282
:104A600026610122FDF744FF08BD40F227610122C3
:104A7000FDF73EFF08BD4FF4C5610122FDF738FF89
:104A800008BD40F229610122FDF732FF08BD40F266
:104A90002A610122FDF72CFF08BD40F22B610122A3
:104AA000FDF726FF08BD40F22C610122FDF720FF33
:104AB00008BD40F22D610122FDF71AFF08BD40F24A
:104AC0002E610122FDF714FF08BD40F22F61012283
:104AD000FDF70EFF08BD4FF4C6610122FDF708FF88
:104AE00008BD40F231610122FDF702FF08BD40F22E
:104AF00032610122FDF7FCFE08BD40F23361012264
:104B0000FDF7F6FE08BD40F234610122FDF7F0FE2C
:104B100008BD40F235610122FDF7EAFE08BD40F212
:104B200036610122FDF7E4FE08BD40F23761012243
:104B3000FDF7DEFE08BD00BF08B50139172900F2F8
:104B4000B680DFE801F00C131A21282F363D444BC4
:104B5000525960676E757C838A91989FA6AD4FF419
:104B6000C7610122FDF7B6FE012008BD40F23961A0
:104B70000122FDF7AFFE012008BD40F23A6101229B
:104B8000FDF7A8FE012008BD40F23B610122FDF7C0
:104B9000A1FE012008BD40F23C610122FDF79AFE12
:104BA000012008BD40F23D610122FDF793FE012086
:104BB00008BD40F23E610122FDF78CFE012008BDD8
:104BC00040F23F610122FDF785FE012008BD4FF450
:104BD000C8610122FDF77EFE012008BD40F241615F
:104BE0000122FDF777FE012008BD40F2426101225B
:104BF000FDF770FE012008BD40F243610122FDF780
:104C000069FE012008BD40F244610122FDF762FE09
:104C1000012008BD40F245610122FDF75BFE012045
:104C200008BD40F246610122FDF754FE012008BD97
:104C300040F247610122FDF74DFE012008BD4FF40F
:104C4000C9610122FDF746FE012008BD40F249611D
:104C50000122FDF73FFE012008BD40F24A6101221A
:104C6000FDF738FE012008BD40F24B610122FDF73F
:104C700031FE012008BD40F24C610122FDF72AFE01
:104C8000012008BD40F24D610122FDF723FE012005
:104C900008BD40F24E610122FDF71CFE012008BD57
:104CA00040F24F610122FDF715FE012008BD0020F2
:104CB00008BD00BF08B50139172900F29D80DFE863
:104CC00001F00C12181E242A30363C42484E545A29
:104CD00060666C72787E848A90964FF4C761012278
:104CE000FDF706FE08BD40F239610122FDF700FE26
:104CF00008BD40F23A610122FDF7FAFD08BD40F21D
:104D00003B610122FDF7F4FD08BD40F23C61012248
:104D1000FDF7EEFD08BD40F23D610122FDF7E8FD23
:104D200008BD40F23E610122FDF7E2FD08BD40F200
:104D30003F610122FDF7DCFD08BD4FF4C86101228F
:104D4000FDF7D6FD08BD40F241610122FDF7D0FD1F
:104D500008BD40F242610122FDF7CAFD08BD40F2E4
:104D600043610122FDF7C4FD08BD40F24461012208
:104D7000FDF7BEFD08BD40F245610122FDF7B8FD1B
:104D800008BD40F246610122FDF7B2FD08BD40F2C8
:104D900047610122FDF7ACFD08BD4FF4C961012256
:104DA000FDF7A6FD08BD40F249610122FDF7A0FD17
:104DB00008BD40F24A610122FDF79AFD08BD40F2AC
:104DC0004B610122FDF794FD08BD40F24C610122C8
:104DD000FDF78EFD08BD40F24D610122FDF788FD13
:104DE00008BD40F24E610122FDF782FD08BD40F290
:104DF0004F610122FDF77CFD08BD00BF08B5653994
:104E00001F2900F20281DFE811F0200027002E00A8
:104E100035003C0043004A00510058005F00660026
:104E20006D0074007B0082008900900097009E0056
:104E3000A500AC00B300BA00C100C800CF00D60086
:104E4000DD00E400EB00F200F9004FF4CD61012237
:104E5000FDF740FD012008BD40F269610122FDF728
:104E600039FD012008BD40F26A610122FDF732FDE3
:104E7000012008BD40F26B610122FDF72BFD0120EE
:104E800008BD40F26C610122FDF724FD012008BD40
:104E900040F26D610122FDF71DFD012008BD40F2C9
:104EA0006E610122FDF716FD012008BD40F26F6121
:104EB0000122FDF70FFD012008BD4FF4CE61012254
:104EC000FDF708FD012008BD40F271610122FDF7E8
:104ED00001FD012008BD40F272610122FDF7FAFCDC
:104EE000012008BD40F273610122FDF7F3FC0120AF
:104EF00008BD40F274610122FDF7ECFC012008BD01
:104F000040F275610122FDF7E5FC012008BD40F289
:104F100076610122FDF7DEFC012008BD40F27761D9
:104F20000122FDF7D7FC012008BD4FF4CF6101221B
:104F3000FDF7D0FC012008BD40F279610122FDF7A8
:104F4000C9FC012008BD40F27A610122FDF7C2FCD4
:104F5000012008BD40F27B610122FDF7BBFC01206E
:104F600008BD40F27C610122FDF7B4FC012008BDC0
:104F700040F27D610122FDF7ADFC012008BD40F249
:104F80007E610122FDF7A6FC012008BD40F27F6191
:104F90000122FDF79FFC012008BD4FF4D0610122E2
:104FA000FDF798FC012008BD40F281610122FDF768
:104FB00091FC012008BD40F282610122FDF78AFCCC
:104FC000012008BD40F283610122FDF783FC01202E
:104FD00008BD40F284610122FDF77CFC012008BD80
:104FE00040F285610122FDF775FC012008BD40F209
:104FF00086610122FDF76EFC012008BD40F2876149
:105000000122FDF767FC012008BD002008BD00BF9C
:1050100008B565391F2900F2D180DFE801F01016CC
:105020001C22282E343A40464C52585E646A7076F0
:105030007C82888E949AA0A6ACB2B8BEC4CA4FF443
:10504000CD610122FDF754FC08BD40F269610122E7
:10505000FDF74EFC08BD40F26A610122FDF748FCF5
:1050600008BD40F26B610122FDF742FC08BD40F231
:105070006C610122FDF73CFC08BD40F26D6101222C
:10508000FDF736FC08BD40F26E610122FDF730FCF1
:1050900008BD40F26F610122FDF72AFC08BD4FF404
:1050A000CE610122FDF724FC08BD40F271610122AE
:1050B000FDF71EFC08BD40F272610122FDF718FCED
:1050C00008BD40F273610122FDF712FC08BD40F2F9
:1050D00074610122FDF70CFC08BD40F275610122EC
:1050E000FDF706FC08BD40F276610122FDF700FCE9
:1050F00008BD40F277610122FDF7FAFB08BD4FF4CD
:10510000CF610122FDF7F4FB08BD40F27961012275
:10511000FDF7EEFB08BD40F27A610122FDF7E8FBE6
:1051200008BD40F27B610122FDF7E2FB08BD40F2C1
:105130007C610122FDF7DCFB08BD40F27D610122AC
:10514000FDF7D6FB08BD40F27E610122FDF7D0FBE2
:1051500008BD40F27F610122FDF7CAFB08BD4FF494
:10516000D0610122FDF7C4FB08BD40F2816101223C
:10517000FDF7BEFB08BD40F282610122FDF7B8FBDE
:1051800008BD40F283610122FDF7B2FB08BD40F289
:1051900084610122FDF7ACFB08BD40F2856101226C
:1051A000FDF7A6FB08BD40F286610122FDF7A0FBDA
:1051B00008BD40F287610122FDF79AFB08BD00BFE0
:1051C00008B5013903291FD8DFE801F002091017DB
:1051D0004FF4D1610122FDF77DFB012008BD40F2B3
:1051E00089610122FDF776FB012008BD40F28A614A
:1051F0000122FDF76FFB012008BD40F28B61012207
:10520000FDF768FB012008BD002008BD08B5013985
:1052100003291AD8DFE801F002080E144FF4D16117
:105220000122FDF765FB08BD40F289610122FDF70F
:105230005FFB08BD40F28A610122FDF759FB08BD02
:1052400040F28B610122FDF753FB08BD10B5354BD1
:105250001B78012B0BD1344B187800210A460BF038
:10526000ABFD0246314800210BF06AFD47E02B2BD5
:105270000CD82D4B19784908084600220BF09CFDEC
:1052800002462A4800210BF05BFD38E0552B0BD875
:105290000020254B197802460BF08EFD024623486C
:1052A00000210BF04DFD2AE0802B0CD81E4B1A7804
:1052B0005208002011460BF07FFD02461B480021DA
:1052C0000BF03EFD1BE0AA2B0BD800200146164B2D
:1052D0001A780BF071FD0246144800210BF030FDE6
:1052E0000DE0D52B0BD8104B1A7852081046002130
:1052F0000BF062FD02460D4800210BF021FD0B482A
:105300000BF060FC084A13780833DBB2137043B922
:10531000074C20460749FCF779FD20460649FCF773
:10532000A5FD10BD509AFF1F409EFF1F2C9EFF1F22
:105330003498FF1F58A2FF1F78A2FF1F10B51E4B05
:1053400018780838C0B218701C4B1B78542B08D83A
:1053500000210A460BF030FD0246194800210BF0EF
:10536000EFFC164B1B78A92B0BD80020124B197899
:1053700002460BF021FD0246114800210BF0E0FC33
:105380000AE0002001460C4B1A780BF015FD02468E
:105390000B4800210BF0D4FC09480BF013FC064B22
:1053A0001B7843B9074C20460749FCF72FFD2046E0
:1053B0000649FCF75BFD10BD409EFF1F509AFF1F82
:1053C0002C9EFF1F3498FF1F78A2FF1F58A2FF1FBB
:1053D00010B582B00024204610F0E8FB01AB185550
:1053E0000134042CF7D1019802B010BD70B582B021
:1053F00001900DF10306002416F8015F204610F01D
:10540000D5FB854203D02046294610F0E3FB01344A
:10541000042CF1D102B070BD10B5044608480368F1
:105420005B68084901229847092C04DC044803689A
:105430001B68302198470248214619F033FE10BD01
:1054400008B5FF1FBC7C020038B5FDF703FA014622
:105450001A4C204619F026FEFDF706FAFFF7DCFF8E
:10546000FDF70CFAFFF7D8FF2368154D5B6820465F
:10547000294601229847FDF70BFA0146204619F00C
:1054800011FE23685B682046294601229847FDF7F4
:1054900009FA0146204619F005FE23685B6820469C
:1054A000294601229847FDF707FA0146204619F0E0
:1054B000F9FD204619F096FD38BD00BF08B5FF1F65
:1054C0004C63020010B5304B187818F0E9FA014629
:1054D0002E4B18602E4C2046042213460AF026FD5F
:1054E0002C4B187818F0DCFA01462B4B186020463C
:1054F000042213460AF01AFD284B187818F0D0FA47
:105500000146274B18602046042213460AF00EFD80
:10551000244B187818F0C4FA0146234B1860204633
:10552000042213460AF002FD204B187818F0B8FA4E
:1055300001461F4B18602046042213460AF0F6FC71
:105540001C4B187818F0ACFA01461B4B186020462B
:10555000042213460AF0EAFC184B187810F042FABD
:1055600001462046042210230AF0E0FC144B187870
:1055700010F038FA01462046042210230AF0D6FC27
:1055800020460AF0B1FC10BD8CA2FF1FE09AFF1F5D
:105590003CB1FF1F8DA2FF1FE49AFF1F8EA2FF1FC9
:1055A000AC9AFF1F449EFF1FB09AFF1F90AAFF1FD7
:1055B000B49AFF1F91AAFF1FB89AFF1F429EFF1FB8
:1055C000439EFF1F30B415462AB10023C45CCC545F
:1055D0000133AB42FAD130BC704700BF70B41646FD
:1055E00032B100240B44055D1D550134B442FAD19B
:1055F00070BC704710B503785BB100220A491446AD
:10560000FF2B0CBF54545354013210F8013F002BB0
:10561000F6D1054C2046002119F006FB204600215A
:1056200040221CF0E5FC10BDEC9AFF1F2DE9F84369
:1056300007460E460F4819F0D5FC0024B44213DA91
:105640000C4D4FF01009DFF830802846395D4A468E
:10565000002319F0EBFC2B685B68284641460122C9
:1056600098470134A642F0DC024819F0BBFCBDE8C3
:10567000F88300BF08B5FF1F4C630200F8B507466A
:105680000E46144D144C01E0FFF71CFF284621681C
:105690000AF084FB0028F7D00E48394632460AF05B
:1056A000B7FB20220C4B1A600C4C204619F09AFCD8
:1056B00023685B6820460A492322984720463146E2
:1056C0000A22002319F0B2FC38463146FFF7AEFF3C
:1056D0000120F8BD3CB1FF1FAC8CFF1F08B5FF1FB8
:1056E000305F02002DE9F041334C23685B682046AF
:1056F000324915229847204619F074FC0025DFF83E
:10570000C8800127284610F051FA0646204629464F
:1057100019F0C8FC23685B68204641463A46984722
:10572000204631460A22002319F080FC204619F059
:1057300059FC0135B5F5006FE4D10024254620461B
:10574000294610F047FA0134B4F5006FF7D11A4C2E
:1057500023685B6820461A4910229847204619F0B2
:1057600041FC0025DFF860800127284610F01EFA72
:1057700006462046294619F095FC23685B682046BA
:1057800041463A469847204631460A22002319F0FE
:105790004DFC204619F026FC0135B5F5006FE4D12B
:1057A000054C23685B68204606490D229847204631
:1057B00019F018FCBDE8F08108B5FF1F545F020026
:1057C000705F0200845F02006C5F020070B582B0FF
:1057D00001A8FDF713F99DF80440E402584859491F
:1057E000224619F015FC2046002108F071F918B185
:1057F0005348554919F00CFC514E3046534919F0A5
:1058000007FC04F5006530464E492A4619F000FCB5
:105810002846002108F05CF918B130464A4919F0D1
:10582000F7FB474E3046494919F0F2FB04F5805525
:10583000304644492A4619F0EBFB2846002108F07F
:1058400047F918B13046404919F0E2FB3C4E30466A
:105850003E4919F0DDFB04F5C055304639492A466A
:1058600019F0D6FB2846002108F032F918B130466D
:10587000354919F0CDFB324E3046344919F0C8FB9A
:1058800004F5005530462F492A4619F0C1FB284639
:10589000002108F01DF918B130462B4919F0B8FB6A
:1058A000274E3046294919F0B3FB04F52055304600
:1058B00024492A4619F0ACFB2846002108F008F9D3
:1058C00018B13046204919F0A3FB1D4E30461F4940
:1058D00019F09EFB04F5405530461A492A4619F046
:1058E00097FB2846002108F0F3F818B13046164916
:1058F00019F08EFB124D2846144919F089FB04F566
:10590000605428460F49224619F082FB20460021A8
:1059100008F0DEF818B128460B4919F079FB084C5D
:1059200020460A4919F074FB23685B682046084941
:1059300014229847204619F055FB02B070BD00BFF5
:1059400008B5FF1F945F0200A85F0200B05F02006D
:10595000C05F020030B4043A12D403460024CD786C
:10596000055551F8045B2D0C5D7051F8045C2D0A4F
:105970009D7051F8045CDD70043304349442EEDD14
:1059800030BC70472DE9F04782B006468846171FA5
:1059900020D405460024DFF844A0DFF84490AA781C
:1059A0006B781B0443EA0223EA781343325D43EA2F
:1059B0000263019308EB040001A90022134608F0DA
:1059C00049F818B15046494619F022FB0434043511
:1059D000BC42E4DD02B0BDE8F08700BF08B5FF1FA0
:1059E000A85F020070B582B006460D4601A8FDF71B
:1059F00005F89DF804305C1EE4B2FD2C05D90A4878
:105A00000A4919F005FB00200BE0DC0206480849B2
:105A1000224619F0FDFA304621462A46FFF79AFF42
:105A2000012002B070BD00BF08B5FF1FD85F0200A3
:105A3000F45F02002DE9F041C2B0054601A8FCF771
:105A4000DDFF9DF804709FB92D4C20462D4919F0BB
:105A5000DFFA08F02FF80746C20A8DF80420204626
:105A60002949D2B219F0D4FA01A8FCF7CFFF00E01F
:105A7000FF02234825493A4619F0CAFAB84602A857
:105A80003946FE22FFF766FF002302AEEC5C9C5510
:105A90000133202BFAD11A481D493A4619F0B8FAB9
:105AA0004046002108F014F818B11548194919F0BA
:105AB000AFFA134C2046184919F0AAFA02A8414639
:105AC000FE22FFF75FFF23685B682046134914221C
:105AD0009847204639461022002319F0A7FA20469D
