:1000000000800020BD010000E16A0000A56A000038
:10001000A56A0000A56A0000A56A0000A56A0000A4
:10002000A56A0000A56A0000A56A0000E16A000058
:10003000E16A0000A56A0000E16A0000956A00001C
:10004000E16A0000E16A0000E16A0000E16A000084
:10005000E16A0000E16A0000E16A0000E16A000074
:10006000E16A0000E16A0000E16A0000E16A000064
:10007000E16A0000E16A0000E16A0000E16A000054
:10008000E16A0000E16A0000E16A0000E16A000044
:10009000E16A0000E16A0000E16A0000E16A000034
:1000A000E16A0000E16A0000E16A0000E16A000024
:1000B000E16A0000E16A0000E16A0000E16A000014
:1000C000E16A0000E16A0000E16A0000E16A000004
:1000D000E16A0000E16A0000E16A0000E16A0000F4
:1000E000E16A0000E16A0000E16A0000E16A0000E4
:1000F000E16A00002D930000E16A00005D870000C6
:10010000E16A0000558D0000E16A0000E16A00002C
:10011000E16A0000E16A0000E16A0000E16A0000B3
:10012000E16A0000E16A0000E16A0000E16A0000A3
:10013000E16A0000E16A0000E16A0000E16A000093
:10014000E16A0000E16A0000E16A0000E16A000083
:10015000E16A0000E16A0000E16A0000E16A000073
:10016000E16A0000A9720000E16A0000E16A000093
:10017000E16A0000E16A0000E16A0000E16A000053
:10018000E16A0000E16A0000E16A0000E16A000043
:10019000E16A0000E16A0000E16A0000E16A000033
:1001A000E16A0000E16A0000E16A0000E16A000023
:1001B000E16A0000E16A0000E16A0000574B4CF27E
:1001C000205210B51A804DF628121A8000BF00BFC9
:1001D00006F08AFC524B4FF010621A60514A9A6046
:1001E000514ADA60A3F53043203B1A6812F480725A
:1001F00004D14E490A604FF4A8521A604C4B1A7849
:10020000110703D51A7842F008021A70494B4A4C7C
:100210004A482A221A704A4A00239918A14203D256
:10022000195899500433F8E7464B474900228B424E
:1002300002D243F8042BFAE74448454900235A58B0
:100240001A500433B3F5DE7FF9D1424B424A802184
:1002500003F8011B9342FBD1404B3C4A1A60404BD0
:100260000A221A70A3F5805324225A70A0221A7011
:100270009A799207FCD59A79D406FCD4394A9379B5
:1002800003F00C03082B374BF9D103221A714022DB
:100290005A719A799006FCD5324A9179314B4906C8
:1002A000FBD5314A314911600221516020221A7078
:1002B0009A7902F00C020C2AFAD12D4B2D4A1A60C1
:1002C0002D4B2E4A1A6000225A60072243F8042C54
:1002D0002B4AC3F80C2D62B607F004FE134B1B68C3
:1002E000DA0705D5274807F06FFD274B274A1A6024
:1002F000274B1B785B0609D5234C244A236893427D
:1003000004D1204807F060FD0023236009F01AFFA4
:1003100006F0F0FB07F08CFFFEE700BF0E20054063
:1003200030800440823F04000100002B14D00340C1
:1003300002D0074000E007405496FF1F94F10000F0
:10034000708CFF1F5496FF1F0CAAFF1F0082FF1F17
:100350000000000000E400E05FE400E008ED00E0E1
:100360000050064000400640448004400000030165
:1003700004800440C010050014E000E0FF76010096
:100380000000202090758D571CE00340A5C3945AAF
:1003900000F00740FFFFFFFFFFFFFFFFFFFFFFFF32
:1003A000FFFFFFFFFFFFFFFFFFFFFFFFFFFFFFFF5D
:1003B000FFFFFFFFFFFFFFFFFFFFFFFFFFFFFFFF4D
:1003C000FFFFFFFFFFFFFFFFFFFFFFFFFFFFFFFF3D
:1003D000FFFFFFFFFFFFFFFFFFFFFFFFFFFFFFFF2D
:1003E000FFFFFFFFFFFFFFFFFFFFFFFFFFFFFFFF1D
:1003F000FFFFFFFFFFFFFFFFFFFFFFFFFFFFFFFF0D
:10040000FFFFFFFFFFFFFFFFFFFFFFFFFEFFFFFFFD
:1004100010B5054C237833B9044B13B10448AFF33E
:1004200000800123237010BD5496FF1F00000000C0
:100430008CF1000008B5064B1BB106480649AFF326
:1004400000800648036813B1054B03B1984708BD07
:10045000000000008CF100005896FF1F5496FF1F0B
:1004600000000000F8B53F4B1B68197880290CD1BB
:1004700044F22B0006F040FC44F22B0006F08EFC08
:10048000384B1A6801321A60F8BD81290CD144F248
:10049000280006F031FC44F2280006F07FFC314BC6
:1004A0001A6801321A60F8BD822931D12E4B1B78AF
:1004B000002B3CD12D4A14682D4B1B681268E41A9E
:1004C00004F5FA54D31AA34210D22A4F2A4E274DCC
:1004D0003878002107F088FC0123336005F04CFCDC
:1004E0002A68234B1B68D31AA342F1D3214B1878F7
:1004F000012107F079FC00221F4B1A601F4C204697
:100500001F4900F0C3FD20461E4900F0D1FDF8BD93
:1005100082290BD983394FF47A7000FB01F007F080
:10052000CBFC104B1A6801321A60F8BD41B1164875
:1005300003681B6898470B4B1A6801321A60F8BDB4
:1005400044F2280006F0D8FB44F2280006F026FC0E
:100550000A4C20460A4900F099FD2046094900F05E
:10056000A7FDF8BD9496FF1F2C9AFF1F00A8FF1F40
:100570003497FF1FB09DFF1FB098FF1F3897FF1FD4
:100580009C96FF1F7C96FF1F18A8FF1F10B5012126
:10059000444B19700620444B1870444B19701622B6
:1005A000434B1A701722434B1A701122424B1A7098
:1005B0000F22424B1A701022414B1A700E22414BEF
:1005C0001A701522404B1A7007F032FC3F48202168
:1005D00004F064FA3E4B1B78DE2B0FD104F03AF99D
:1005E000442005F087FE3948202104F057FA012203
:1005F000384B1A700022384B1A7023E0442B1BD161
:10060000002819DD3548202104F0ECF9344804F0C5
:1006100043FB344804F02AFC334C204601F0DEF85A
:100620002378012B01D8152222700022294B1A7041
:100630000122294B1A7005E00122264B1A70002274
:10064000254B1A70294C2046294940F2FD7205F0CD
:10065000D5FF06F057F9204626492422002305F04D
:1006600077FF20461D492022002305F071FF154B1E
:10067000187807F007FB014620460422082305F0FE
:1006800067FF114B187807F0FDFA01462046042257
:10069000082305F05DFF03F0FDFE1748174900F041
:1006A00007FD10BD2C9AFF1FB09DFF1F30A2FF1F3A
:1006B00031A2FF1F32A2FF1FED9DFF1F34A6FF1FB7
:1006C00035A6FF1FAC98FF1FEC9DFF1F7C97FF1FF7
:1006D000020002409099FF1F5499FF1F3C97FF1F93
:1006E0009C97FF1F5C97FF1F888CFF1F38A6FF1F7A
:1006F00028E30000ECA6FF1F3897FF1F7C96FF1F22
:10070000F0B59BB0044600257B4B1D700AA8294616
:1007100040220AF077F87948294684220AF072F8D4
:100720000AA8214603F042F8051E07DD724E0AA80A
:1007300072492A46337803F055FF35700AA8002124
:1007400040220AF05FF80AA8214602F0BDF99DF8A0
:10075000283093B1312B07D1674B1A788020674935
:10076000885401321A7008E0322B06D1624B1A7895
:1007700081206249885401321A700AA8002140225F
:100780000AF040F80AA8214602F032FC9DF8283011
:1007900043B11F46584A11787D3B584843540131B4
:1007A000117000E000270AA8214601F043FD061E53
:1007B00009DD514D0AA8514932462B7803F012FF4A
:1007C0002B781E442E700AA8002140220AF01AF845
:1007D0000AA8214602F0C2FA9DF8283093B1312BC5
:1007E00007D1454B1A7880204449885401321A7049
:1007F00008E0322B06D1404B1A7881203F498854BB
:1008000001321A700AA80021402209F0FBFF0AA851
:10081000214602F037FD9DF8283043B11D46364A87
:1008200010787D3B35490B540130107000E00025F5
:100830000AA80021402209F0E5FF0AA8214602F09B
:100840006BFE9DF82830002B53D0672B43D10AA8AC
:10085000214604F00DFC04460AA828492246264BEE
:100860001B7803F0BFFE68460AA9224600F0D8FEB6
:1008700000F048FFC1196846294400F0D5FE04463F
:1008800000F088FF88B91C4B1B781C4A4E21D154BC
:1008900013444F225A7054229A705321D970452123
:1008A00019715A7100229A7111E0134B1B7821784B
:1008B000124AD154617813445970A2789A70E27840
:1008C000DA7022791A7162795A7100229A710A4B90
:1008D0001A7806321A709DF82830752B09D1084B0A
:1008E0001B7833B9044B1A788220044988540132AA
:1008F0001A701BB0F0BD00BF9896FF1FB096FF1F87
:100900002C9AFF1F08B50E4B1B781BB90D4803F03E
:1009100075FE08BD0C4B1878002107F065FA0B4BEB
:100920001A680B4B1A600B4B1B781BB10A4B1868EB
:10093000243802E0084B18683038FFF7E1FE08BDA4
:100940005499FF1F34E30000B09DFF1F00A8FF1F54
:100950008C96FF1F2C9AFF1F7496FF1F08B50F4B34
:100960001B781BB90E4803F049FE08BD0D4B1878E3
:10097000002107F039FA0C4B1A680C4B1A600C4B2B
:100980001B781BB10B4B1868243802E0094B186820
:1009900030380630FFF7B4FE08BD00BF5499FF1F82
:1009A00034E30000B09DFF1F00A8FF1F8C96FF1FBF
:1009B0002C9AFF1F7496FF1F30B583B004464E4B30
:1009C0001B782BB94D4B1878012107F00DFA04E084
:1009D0004A4B1878002107F007FA494B1B68022B95
:1009E00008DD484D0524284603F008FE204603F0A4
:1009F00033FDF8E7444B1B789BB101A800F00EFFD4
:100A00009DF804300133DBB28DF804300A2B02D993
:100A100003F056FF6EE001A800F008FF00223A4BF9
:100A20001A703A483A4B197800F09EFB324B1B780B
:100A300043B9364800F0C6FB20B9344800F026FC24
:100A4000002832D02C4B1B78BBB9002000F0EEFE02
:100A50002E4800F097FB2F4803F0D0FD2E4B1B785B
:100A60001BB905F0ABFB05F02FF82C4B1A682C4B8B
:100A70001A600122204B1A703CE02A4B1B68002BA5
:100A800038D10022284B1A700A2C30DCFFF73AFFCD
:100A9000254A264B1A60264C2046264900F0F6FAD5
:100AA0002046254900F004FB24E0184800F0D0FB64
:100AB00010B103F005FF1DE0204B1B68092B03DC80
:100AC00001331E4A136015E001240F4B1C700C4BC0
:100AD0001A6822441A60032003F0BEFC01A800F04B
:100AE0009DFE0A4800F04EFB144B1C6002E0FFF72D
:100AF00035FFCDE703B030BD9099FF1FB09DFF1FBC
:100B0000AC96FF1F64E300008C8CFF1FB49DFF1F99
:100B10007496FF1FC4E300002C9AFF1F00A8FF1F5C
:100B20008C96FF1FF09DFF1FB096FF1F9496FF1F2E
:100B30003897FF1F7C96FF1F9C96FF1F848CFF1F1A
:100B400010B56C4B1B78A3B105F016F96A4B1B78F6
:100B5000E3B16A4B19686A4B1B786A4A02FB03F2DD
:100B6000694B1B68CB1A9A4210D80022614B1A704D
:100B70000CE0624B1A68654B1B68D31AB3F57A7F99
:100B800004D35D4B1B78002B40F0A98003F082FC5E
:100B90005F4B1A6840F2DC539A420CD900235D4A3D
:100BA00013605D4A13605D4B1A6801321A6035228A
:100BB0005B4B1A607FE05B4B1A6840F2DC539A4251
:100BC0000CD90023534A1360534A1360534B1A68DD
:100BD00001321A603222524B1A606CE0524B1A6892
:100BE00040F2DC539A420CD900234A4A13604A4A25
:100BF00013604A4B1A6801321A603122484B1A605E
:100C000059E04A4B1A6840F2DC539A420CD900234F
:100C1000404A1360404A1360404B1A6801321A6020
:100C200033223F4B1A6046E0414B1A6840F2DC53D6
:100C30009A420CD90023374A1360374A1360374B66
:100C40001A6801321A603422354B1A6033E0394B8E
:100C50001A6840F2DC539A420CD900232D4A1360E3
:100C60002D4A13602D4B1A6801321A6036222C4B24
:100C70001A6020E0294B1C68204609F089F94FF0E2
:100C80007C5109F045FA08B1234B1C600022234B2C
:100C90001A60204B1A6801321A60164B1B782BB968
:100CA000254B1878002107F09FF804E0224B1878B4
:100CB000012107F099F8184B1C68002C18DD154B22
:100CC000186809F065F94FF07C5109F021FA78B104
:100CD0002046FFF771FE00220F4B1A6010BD174827
:100CE00003F08CFC094B1A6802F57A721A604DE722
:100CF00010BD00BF9099FF1F5499FF1F00A8FF1F50
:100D0000888CFF1FA0BB0D008C96FF1F3497FF1F20
:100D10005099FF1F7096FF1F9096FF1F7896FF1F38
:100D20007496FF1F8C99FF1F5899FF1F5C99FF1F36
:100D30006099FF1F6499FF1FB09DFF1FD0E3000063
:100D400008B506F067F909486421094A00F0F6F988
:100D500008483221084A00F0F1F9084B1968084A9E
:100D600011601A68074B1A6008BD00BF7C96FF1F10
:100D7000410B00009C96FF1F6504000000A8FF1FA8
:100D80003497FF1F8C96FF1F2DE9F00FCAB001901A
:100D90000A460023D078CC5C40EA0460547840EAEC
:100DA0000440947840EA042003F128056C46285159
:100DB00004330432402BEDD10AAB0022986B596802
:100DC0005D6A02F128076E46BC592C444FEA704513
:100DD00085EAF04585EA902020444FEAF11484EA40
:100DE000B14484EAD1010144196404320433C02AB5
:100DF000E4D10199096D0291019A526D0392019B10
:100E00009B6D0493019CE46D0594019D2D6E0695E8
:100E1000019E766E0796019FBF6E08970199C96E75
:100E2000099189463D46B446069BA046049814465F
:100E3000029A0021DFF8A8A001F1280B6F465BF8A9
:100E4000076051F80A7037444FEAB31686EAF32672
:100E500086EA7366374425EA03060CEA030B86EA42
:100E60000B063E444E4480EA0407174000EA04099A
:100E700087EA09074FEAB20989EA723989EAB25961
:100E80004F44B0443E440431B1F5807F08D0A946B8
:100E900065469C4643468046204614463246CBE78C
:100EA00002990E44019F3E6503990A447A65049AAB
:100EB0001444BC65059C2044F865069A42443A6691
:100EC000079E33447B66089B6344BB66099F3D4491
:100ED000DDF804B0CBF86C504AB0BDE8F00F7047B5
:100EE000DCE300000023036400220023C0E9122396
:100EF0000A4B03650A4B43650A4B83650A4BC3657E
:100F00000A4B03660A4B43660A4B836603F174532C
:100F1000A3F52303A3F69243C366704767E6096A05
:100F200085AE67BB72F36E3C3AF54FA57F520E510A
:100F30008C68059BABD9831F2DE9F8430646904684
:100F4000DAB10F4688444FF00009336C17F8012BD3
:100F5000F25401333364402B0DD130463146FFF754
:100F600013FFD6E9124514F5007445F10005C6E9F2
:100F70001245C6F840904745E7D1BDE8F88300BF69
:100F80002DE9F84F80468946026C372A0CD8531C4D
:100F900080218154372B1CD802440021013302F8F0
:100FA000011F382BFAD114E0531C802181543F2BB0
:100FB00006D802440021013302F8011F402BFAD168
:100FC00040464146FFF7E0FE40460021382209F046
:100FD00019FCD8F84030D900D8E91223521843F14F
:100FE0000003C8E9122388F83F20100A40EA036092
:100FF000190A88F83E00160C46EA03461F0C88F8CA
:101000003D60140E44EA03241D0E88F83C4088F825
:101010003B3088F83A1088F8397088F838504046E4
:101020004146FFF7B1FE0322D300D8F85010D94053
:1010300089F80010D8F85410D94089F80410D8F86D
:101040005810D94089F80810D8F85C10D94089F8B0
:101050000C10D8F86010D94089F81010D8F8641036
:10106000D94089F81410D8F86810D94089F81810B8
:10107000D8F86C1021FA03F389F81C30013A09F111
:101080000109B2F1FF3FCFD1BDE8F88F026872B11C
:101090008A4209D1D36803607047994201D01A4649
:1010A00002E0CB68D3607047D368002BF5D170475E
:1010B00038B505460C46FFF7E9FF2A680AB92C60E7
:1010C00004E0D3680BB11A46FBE7D46006F0D2FE09
:1010D0002368C01A60600023E36038BD38B50C4651
:1010E00006F0C8FE0546626823681344984205D39B
:1010F0006268934208D26268904205D36268954262
:1011000006D26268934203D3A3682046984765607D
:1011100038BD00BF38B50546046834B128462146BD
:10112000FFF7DCFFE468002CF8D138BD08B50248B1
:10113000FFF7F0FF08BD00BF3897FF1F10B44FF452
:101140007A7404FB01F10160826000224260C26097
:101150005DF8044B704700BF01610022027302700A
:10116000704700BF01617047037B0B2B07D05A1CEF
:10117000D2B20273C154002383540120704700206F
:10118000704700BF002303730370704710B40169F8
:101190000A78047800237AB9D4F1010038BF00201E
:1011A0000DE011F8012F10F8014F01330B2BF2D194
:1011B000002004E0002002E0A242F2D0FAE75DF84D
:1011C000044B70472DE9F0419CB006460024DFF83F
:1011D00074800546335D04F808300134284609F070
:1011E0007DFD8442F6D96846FFF77CFE284609F06B
:1011F00075FD0246134D68462946FFF79DFE684679
:1012000011492022FFF798FE68462946FFF7B8FEED
:101210000E4C22782878234629461E3404E0824268
:1012200014BF0020012009E0824206D113F8012FEB
:1012300011F8010FA342F7D1F1E700201CB0BDE87F
:10124000F08100BFBC97FF1F3C97FF1F7C97FF1FDB
:1012500010B40C4C22780C48017823461E3404E06C
:101260008A4214BF0020012009E08A4206D113F807
:10127000012F10F8011FA342F7D1F1E700205DF81C
:10128000044B70479C97FF1FBC97FF1F10B40E4C78
:1012900022780E48017823461E3407E08A4218BFA0
:1012A00000200DD101200A4B187009E08A4206D1B6
:1012B00013F8012F10F8011FA342F7D1EEE7002029
:1012C0005DF8044B704700BF5C97FF1FBC97FF1F82
:1012D0002C9AFF1F08B505F09DFE08BD70B40546A9
:1012E000064C0FCCE86429656A65AB652068E86543
:1012F00000232B6685F8483070BC7047908CFF1F28
:101300002DE9F00F86B0C36C0193076D0297436D12
:101310000393876D0497C36D05931E463C4603995E
:10132000DDF808C0019D0E220023DFF808A1DFF8D8
:1013300008912CE00F2B24D903F00F0600EB860652
:1013400002F00F0808F1020850F82880B76887EA11
:101350000808A2F1050B0BF00F0B0BF1020B50F874
:101360002BB088EA0B08A2F10B0B0BF00F0B0BF163
:10137000020B50F82BB088EA0B084FEAF878C6F851
:101380000880013226460C466146AC46009D132B70
:101390000CD884EA010808EA0C0888EA040808F175
:1013A000B54808F51E3808F299181FE0272B05D814
:1013B00084EA010888EA0C08C84417E03B2B09D8E6
:1013C0004CEA010808EA04080CEA010748EA0708A1
:1013D000D0440BE084EA010888EA0C0808F14A4886
:1013E00008F5C50808F5834808F1560803F00F070B
:1013F000023750F8277007EBF5674744BE1900968F
:101400004FEABC0C0133DBB2502B93D1019B334428
:10141000C364029B1D440565039B63444365049FAD
:1014200039448165059B1C44C46506B0BDE8F00FD6
:10143000704700BFDCBC1B8FA1EBD96E10B5044612
:1014400090F8483083F00302024411720133DBB29A
:1014500080F84830402B04D1FFF752FF002384F876
:10146000483010BD08B5026E01320266FFF7E6FF94
:10147000012008BD38B504468021FFF7DFFF94F84E
:101480004830382B08D0002520462946FFF7D6FFE4
:1014900094F84830382BF7D120460021FFF7CEFFD3
:1014A00020460021FFF7CAFF20460021FFF7C6FFB4
:1014B000216E2046490FFFF7C1FF216E2046C1F380
:1014C0004751FFF7BBFF216E2046C1F34731FFF7BD
:1014D000B5FF216E2046C1F34711FFF7AFFF236E22
:1014E000D900204601F0F801FFF7A8FF38BD00BF82
:1014F00038B50546FFF7BEFF2A460021D36C1C0E07
:1015000044EA0364180200F47F0004431B0A03F456
:101510007F432343D364013104320529EED105F121
:101520004C0038BDF8B505460C46164600F1640778
:1015300038460021402209F065F9402E1ADD284680
:10154000FFF7CCFE46B126442B681B68284614F8EA
:10155000011B9847B442F7D12846FFF7C9FF03683B
:1015600044688168C2686B667C60B960FA60036930
:101570003B6104E038462146324605F0F1F9284641
:10158000FFF7ACFE05F1630405F1A3062B6814F820
:10159000011F1B68284681F036019847B442F5D1F7
:1015A000F8BD00BF70B50546FFF7A2FF02684668A8
:1015B0008468C168C5F8A420C5F8A860C5F8AC4027
:1015C000C5F8B0100269C5F8B4202846FFF786FEBA
:1015D00005F1630405F1A3062B6814F8011F1B68CD
:1015E000284681F05C019847B442F5D105F1140614
:1015F0002C462B681B68284694F8A41098470134A1
:10160000B442F6D12846FFF773FF70BD024B0022AB
:101610001A71024A1A607047DC97FF1FE8E4000065
:1016200001604260704700BF70B50446224B83FBE7
:1016300001230B44C917C1EB2311816000250573F9
:1016400045738573C5730B0E03740B1443740B122F
:101650008374C174194E304621686268FFF762FFD7
:1016600033685B68304604F10C0108229847304625
:10167000FFF798FF6061C27C02F00F02A261E56192
:101680002B461044E2691202E261C15C0A43E26146
:101690000133042BF6D122F00043094A82FB0312E6
:1016A0009214084901FB1232E261203420460649B7
:1016B00009F0EEFA204670BD89888888DC97FF1F04
:1016C00083DE1B4340420F00F0E40000074B18602C
:1016D000074B1B681844074B18600222064B1A7010
:1016E000064B1A68064B1A60704700BF9498FF1F9C
:1016F000A48CFF1FA498FF1F9898FF1F00A8FF1F2E
:10170000A098FF1F10B51C4B1A681C4B1B68D21AFF
:10171000B2F57A7F11D31A4A12680132164C03F5DA
:101720007A732168501CC91AB1F57A7F01D3024639
:10173000F5E713490A60114A1360124B1A68104BFF
:101740001B689A4214D8104B1B688BB1984710B194
:10175000FFF7BCFF0CE00D4B1A68094B1B681A44DD
:10176000084B1A600A4B1A78003218BF01221A700F
:10177000034B186810BD00BF00A8FF1FA098FF1FF3
:101780009498FF1FA498FF1F9C98FF1FA48CFF1F15
:101790009898FF1F08B5FFF7B5FF014B187808BDF3
:1017A0009898FF1F70B516464AB10E440C46451A6C
:1017B000204605F069FC28550134B442F8D170BDCB
:1017C00070B5154642B10C46461A2046315D05F00B
:1017D0006FFC0134013DF8D170BD00BF08B540F287
:1017E000D9710122FFF7DEFF012008BD08B540F2E4
:1017F000D9710122FFF7E4FF08BD00BF08B540F230
:10180000DA710122FFF7CEFF012008BD08B540F2D2
:10181000DA710122FFF7D4FF08BD00BF08B540F21E
:10182000DB710122FFF7BEFF012008BD08B540F2C1
:10183000DB710122FFF7C4FF08BD00BF08B540F20D
:10184000D5710222FFF7AEFF022008BD08B540F2B5
:10185000D5710222FFF7B4FF08BD00BF08B540F202
:10186000D7710222FFF79EFF022008BD08B540F2A3
:10187000D7710222FFF7A4FF08BD00BF08B54FF4DF
:10188000FA610122FFF79CFF08BD00BF08B540F2D6
:10189000D1710122FFF794FF08BD00BF08B540F2E7
:1018A000D2710122FFF78CFF08BD00BF08B540F2DE
:1018B000D3710122FFF784FF08BD00BF08B54FF4C4
:1018C000EB610122FFF76EFF012008BD08B54FF460
:1018D000EB610122FFF774FF08BD00BF08B540F2BD
:1018E00059710122FFF75EFF012008BD08B540F2E3
:1018F00059710122FFF764FF08BD00BF08B540F22F
:101900005A710122FFF74EFF012008BD08B540F2D1
:101910005A710122FFF754FF08BD00BF08B540F21D
:101920005B710122FFF73EFF012008BD08B540F2C0
:101930005B710122FFF744FF08BD00BF08B540F20C
:101940005C710122FFF72EFF012008BD08B540F2AF
:101950005C710122FFF734FF08BD00BF08B540F2FB
:101960005D710122FFF71EFF012008BD08B540F29E
:101970005D710122FFF724FF08BD00BF08B540F2EA
:101980005E710122FFF70EFF012008BD08B540F28D
:101990005E710122FFF714FF08BD00BF08B540F2D9
:1019A0005F710122FFF7FEFE012008BD08B540F27D
:1019B0005F710122FFF704FF08BD00BF08B54FF4B7
:1019C000EC610122FFF7EEFE012008BD08B54FF4DF
:1019D000EC610122FFF7F4FE08BD00BF08B540F23C
:1019E00061710122FFF7DEFE012008BD08B540F25B
:1019F00061710122FFF7E4FE08BD00BF08B540F2A7
:101A000062710122FFF7CEFE012008BD08B540F249
:101A100062710122FFF7D4FE08BD00BF08B540F295
:101A200063710122FFF7BEFE012008BD08B540F238
:101A300064710122FFF7B6FE012008BD08B540F22F
:101A400064710122FFF7BCFE08BD00BF08B540F27B
:101A500065710122FFF7A6FE012008BD08B540F21E
:101A600065710122FFF7ACFE08BD00BF08B540F26A
:101A700066710122FFF796FE012008BD08B540F20D
:101A800066710122FFF79CFE08BD00BF08B540F259
:101A900067710122FFF786FE012008BD08B540F2FC
:101AA00067710122FFF78CFE08BD00BF08B54FF437
:101AB000ED610122FFF776FE012008BD08B54FF465
:101AC000ED610122FFF77CFE08BD00BF08B540F2C2
:101AD00069710122FFF766FE012008BD08B540F2DA
:101AE00069710122FFF76CFE08BD00BF08B540F226
:101AF0006A710122FFF756FE012008BD08B540F2C9
:101B00006A710122FFF75CFE08BD00BF08B540F214
:101B10006B710122FFF746FE012008BD08B540F2B7
:101B20006B710122FFF74CFE08BD00BF08B540F203
:101B30006C710122FFF736FE012008BD08B540F2A6
:101B40006C710122FFF73CFE08BD00BF08B540F2F2
:101B50006D710122FFF726FE012008BD08B540F295
:101B60006D710122FFF72CFE08BD00BF08B540F2E1
:101B70006E710122FFF716FE012008BD08B540F284
:101B80006E710122FFF71CFE08BD00BF08B540F2D0
:101B90006F710122FFF706FE012008BD08B540F273
:101BA0006F710122FFF70CFE08BD00BF08B54FF4AE
:101BB00082610122FFF7F6FD012008BD08B54FF450
:101BC00082610122FFF7FCFD08BD00BF08B540F2AD
:101BD00011410122FFF7E6FD012008BD08B540F2E2
:101BE00011410122FFF7ECFD08BD00BF08B540F22E
:101BF00012410122FFF7D6FD012008BD08B540F2D1
:101C000012410122FFF7DCFD08BD00BF08B540F21C
:101C100013410122FFF7C6FD012008BD08B540F2BF
:101C200013410122FFF7CCFD08BD00BF08B540F20B
:101C300014410122FFF7B6FD012008BD08B540F2AE
:101C400014410122FFF7BCFD08BD00BF08B540F2FA
:101C500015410122FFF7A6FD012008BD08B540F29D
:101C600015410122FFF7ACFD08BD00BF08B540F2E9
:101C700016410122FFF796FD012008BD08B540F28C
:101C800016410122FFF79CFD08BD00BF08B540F2D8
:101C900017410122FFF786FD012008BD08B540F27B
:101CA00017410122FFF78CFD08BD00BF08B54FF4B6
:101CB00083610122FFF776FD012008BD08B54FF4CE
:101CC00083610122FFF77CFD08BD00BF08B540F22B
:101CD00019410122FFF766FD012008BD08B540F259
:101CE00019410122FFF76CFD08BD00BF08B540F2A5
:101CF0001A410122FFF756FD012008BD08B540F248
:101D00001A410122FFF75CFD08BD00BF08B540F293
:101D10001B410122FFF746FD012008BD08B540F236
:101D20001B410122FFF74CFD08BD00BF08B540F282
:101D30001C410122FFF736FD012008BD08B540F225
:101D40001C410122FFF73CFD08BD00BF08B540F271
:101D50001D410122FFF726FD012008BD08B540F214
:101D60001D410122FFF72CFD08BD00BF08B540F260
:101D70001E410122FFF716FD012008BD08B540F203
:101D80001E410122FFF71CFD08BD00BF08B540F24F
:101D90001F410122FFF706FD012008BD08B540F2F2
:101DA0001F410122FFF70CFD08BD00BF08B54FF42D
:101DB00084610122FFF7F6FC012008BD08B54FF44D
:101DC00084610122FFF7FCFC08BD00BF08B540F2AA
:101DD00021410122FFF7E6FC012008BD08B540F2D1
:101DE00021410122FFF7ECFC08BD00BF08B540F21D
:101DF00022410122FFF7D6FC012008BD08B540F2C0
:101E000022410122FFF7DCFC08BD00BF08B540F20B
:101E100023410122FFF7C6FC012008BD08B540F2AE
:101E200023410122FFF7CCFC08BD00BF08B540F2FA
:101E300024410122FFF7B6FC012008BD08B540F29D
:101E400024410122FFF7BCFC08BD00BF08B540F2E9
:101E500025410122FFF7A6FC012008BD08B540F28C
:101E600025410122FFF7ACFC08BD00BF08B540F2D8
:101E700026410122FFF796FC012008BD08B540F27B
:101E800026410122FFF79CFC08BD00BF08B540F2C7
:101E900027410122FFF786FC012008BD08B540F26A
:101EA00027410122FFF78CFC08BD00BF08B54FF4A5
:101EB000F7610122FFF776FC012008BD08B54FF459
:101EC000F7610122FFF77CFC08BD00BF08B540F2B6
:101ED000B9710122FFF766FC012008BD08B540F288
:101EE000B9710122FFF76CFC08BD00BF08B540F2D4
:101EF000BA710122FFF756FC012008BD08B540F277
:101F0000BA710122FFF75CFC08BD00BF08B540F2C2
:101F1000BB710122FFF746FC012008BD08B540F265
:101F2000BB710122FFF74CFC08BD00BF08B540F2B1
:101F3000BC710122FFF736FC012008BD08B540F254
:101F4000BC710122FFF73CFC08BD00BF08B540F2A0
:101F5000BD710122FFF726FC012008BD08B540F243
:101F6000BD710122FFF72CFC08BD00BF08B540F28F
:101F7000BE710122FFF716FC012008BD08B540F232
:101F8000BE710122FFF71CFC08BD00BF08B540F27E
:101F9000BF710122FFF706FC012008BD08B540F221
:101FA000BF710122FFF70CFC08BD00BF08B54FF45C
:101FB000F8610122FFF7F6FB012008BD08B54FF4D8
:101FC000F8610122FFF7FCFB08BD00BF08B540F235
:101FD000C1710122FFF7E6FB012008BD08B540F200
:101FE000C1710122FFF7ECFB08BD00BF08B540F24C
:101FF000C2710122FFF7D6FB012008BD08B540F2EF
:10200000C2710122FFF7DCFB08BD00BF08B540F23A
:10201000C3710122FFF7C6FB012008BD08B540F2DD
:10202000C3710122FFF7CCFB08BD00BF08B540F229
:10203000C4710122FFF7B6FB012008BD08B540F2CC
:10204000C4710122FFF7BCFB08BD00BF08B540F218
:10205000C5710122FFF7A6FB012008BD08B540F2BB
:10206000C5710122FFF7ACFB08BD00BF08B540F207
:10207000C6710122FFF796FB012008BD08B540F2AA
:10208000C6710122FFF79CFB08BD00BF08B540F2F6
:10209000C7710122FFF786FB012008BD08B540F299
:1020A000C7710122FFF78CFB08BD00BF08B54FF4D4
:1020B000F9610122FFF776FB012008BD08B54FF456
:1020C000F9610122FFF77CFB08BD00BF08B540F2B3
:1020D000C9710122FFF766FB012008BD08B540F277
:1020E000C9710122FFF76CFB08BD00BF08B540F2C3
:1020F000CA710122FFF756FB012008BD08B540F266
:10210000CA710122FFF75CFB08BD00BF08B540F2B1
:10211000CB710122FFF746FB012008BD08B540F254
:10212000CB710122FFF74CFB08BD00BF08B540F2A0
:10213000CC710122FFF736FB012008BD08B540F243
:10214000CC710122FFF73CFB08BD00BF08B540F28F
:10215000CD710122FFF726FB012008BD08B540F232
:10216000CD710122FFF72CFB08BD00BF08B540F27E
:10217000CE710122FFF716FB012008BD08B540F221
:10218000CE710122FFF71CFB08BD00BF08B540F26D
:10219000CF710122FFF706FB012008BD08B540F210
:1021A000CF710122FFF70CFB08BD00BF10B582B054
:1021B0000C4602211022FFF703FB102CA8BF1024AD
:1021C00002A800F8014DFFF759FB02B010BD00BF97
:1021D00000B583B01E210222FFF7F2FA02A8022303
:1021E00000F8013DFFF752FB03B05DF804FB00BFB0
:1021F00000B583B018210622FFF7E2FA02A80623F1
:1022000000F8013DFFF74AFB03B05DF804FB00BF97
:1022100010B582B00C4612210622FFF7D1FA062C27
:10222000A8BF062402A800F8014DFFF73FFB02B04B
:1022300010BD00BF30B583B004460139172900F244
:10224000B281DFE811F0180029003A004B005C0071
:102250006D007E008F00A000B100C200D300E4003A
:10226000F50006011701280139014A015B016C01E3
:102270007D018E019F010DF10700FFF71FFB9DF807
:102280000750202DA8BF202520464FF48B61202227
:10229000FFF788FA284686E10DF10700FFF71EFBDD
:1022A0009DF80750202DA8BF202520464FF48F61B0
:1022B0002022FFF777FA284675E10DF10700FFF7B6
:1022C0001DFB9DF80750202DA8BF202520464FF468
:1022D00093612022FFF766FA284664E10DF10700BA
:1022E000FFF71CFB9DF80750202DA8BF2025204696
:1022F0004FF497612022FFF755FA284653E10DF17C
:102300000700FFF71BFB9DF80750202DA8BF2025D5
:1023100020464FF49B612022FFF744FA284642E111
:102320000DF10700FFF71AFB9DF80750202DA8BFFD
:10233000202520464FF49F612022FFF733FA2846DC
:1023400031E10DF10700FFF719FB9DF80750202D33
:10235000A8BF202520464FF4A3612022FFF722FAD0
:10236000284620E10DF10700FFF718FB9DF8075004
:10237000202DA8BF202520464FF4A7612022FFF77B
:1023800011FA28460FE10DF10700FFF717FB9DF842
:102390000750202DA8BF202520464FF4AB612022F6
:1023A000FFF700FA2846FEE00DF10700FFF716FBE5
:1023B0009DF80750202DA8BF202520464FF4AF617F
:1023C0002022FFF7EFF92846EDE00DF10700FFF7B7
:1023D00015FB9DF80750202DA8BF202520464FF45F
:1023E000B3612022FFF7DEF92846DCE00DF107009B
:1023F000FFF714FB9DF80750202DA8BF202520468D
:102400004FF4B7612022FFF7CDF92846CBE00DF15C
:102410000700FFF70BFB9DF80750202DA8BF2025D4
:1024200020464FF4BB612022FFF7BCF92846BAE0F2
:102430000DF10700FFF70AFB9DF80750202DA8BFFC
:10244000202520464FF4BF612022FFF7ABF9284634
:10245000A9E00DF10700FFF709FB9DF80750202DBB
:10246000A8BF202520464FF4C3612022FFF79AF928
:10247000284698E00DF10700FFF708FB9DF807508C
:10248000202DA8BF202520464FF4C7612022FFF74A
:1024900089F9284687E00DF10700FFF707FB9DF853
:1024A0000750202DA8BF202520464FF4CB612022C5
:1024B000FFF778F9284676E00DF10700FFF706FBF5
:1024C0009DF80750202DA8BF202520464FF4CF614E
:1024D0002022FFF767F9284665E00DF10700FFF7B6
:1024E00005FB9DF80750202DA8BF202520464FF45E
:1024F000D3612022FFF756F9284654E00DF107007A
:10250000FFF704FB9DF80750202DA8BF202520468B
:102510004FF4D7612022FFF745F9284643E00DF13B
:102520000700FFF703FB9DF80750202DA8BF2025CB
:1025300020464FF4DB612022FFF734F9284632E0D1
:102540000DF10700FFF702FB9DF80750202DA8BFF3
:10255000202520464FF4DF612022FFF723F928468B
:1025600021E00DF10700FFF701FB9DF80750202D3A
:10257000A8BF202520464FF4E3612022FFF712F97F
:10258000284610E00DF10700FFF700FB9DF807500B
:10259000202DA8BF202520464FF4E7612022FFF719
:1025A00001F92846FFE703B030BD00BF10B582B087
:1025B0000C46013A172A00F26981DFE812F0180090
:1025C00026003400420050005E006C007A00880053
:1025D0009600A400B200C000CE00DC00EA00F800C3
:1025E00006011401220130013E014C015A014FF451
:1025F0008B612022FFF7E4F8202CA8BF202402A83A
:1026000000F8014DFFF762F940E14FF48F6120229D
:10261000FFF7D6F8202CA8BF202402A800F8014D0F
:10262000FFF764F932E14FF493612022FFF7C8F815
:10263000202CA8BF202402A800F8014DFFF766F95E
:1026400024E14FF497612022FFF7BAF8202CA8BFAD
:10265000202402A800F8014DFFF768F916E14FF4B5
:102660009B612022FFF7ACF8202CA8BF202402A8F1
:1026700000F8014DFFF76AF908E14FF49F6120224D
:10268000FFF79EF8202CA8BF202402A800F8014DD7
:10269000FFF76CF9FAE04FF4A3612022FFF790F8FE
:1026A000202CA8BF202402A800F8014DFFF76EF9E6
:1026B000ECE04FF4A7612022FFF782F8202CA8BF9E
:1026C000202402A800F8014DFFF770F9DEE04FF476
:1026D000AB612022FFF774F8202CA8BF202402A8A9
:1026E00000F8014DFFF772F9D0E04FF4AF612022FE
:1026F000FFF766F8202CA8BF202402A800F8014D9F
:10270000FFF774F9C2E04FF4B3612022FFF758F8E5
:10271000202CA8BF202402A800F8014DFFF776F96D
:10272000B4E04FF4B7612022FFF74AF8202CA8BF8D
:10273000202402A800F8014DFFF768F9A6E04FF445
:10274000BB612022FFF73CF8202CA8BF202402A860
:1027500000F8014DFFF772F998E04FF4BF612022B5
:10276000FFF72EF8202CA8BF202402A800F8014D66
:10277000FFF774F98AE04FF4C3612022FFF720F8D5
:10278000202CA8BF202402A800F8014DFFF776F9FD
:102790007CE04FF4C7612022FFF712F8202CA8BF7D
:1027A000202402A800F8014DFFF778F96EE04FF4FD
:1027B000CB612022FFF704F8202CA8BF202402A818
:1027C00000F8014DFFF77AF960E04FF4CF61202265
:1027D000FEF7F6FF202CA8BF202402A800F8014D28
:1027E000FFF77CF952E04FF4D3612022FEF7E8FFB7
:1027F000202CA8BF202402A800F8014DFFF77EF985
:1028000044E04FF4D7612022FEF7DAFF202CA8BF66
:10281000202402A800F8014DFFF780F936E04FF4BC
:10282000DB612022FEF7CCFF202CA8BF202402A8C9
:1028300000F8014DFFF782F928E04FF4DF61202214
:10284000FEF7BEFF202CA8BF202402A800F8014DEF
:10285000FFF784F91AE04FF4E3612022FEF7B0FF9E
:10286000202CA8BF202402A800F8014DFFF786F90C
:102870000CE04FF4E7612022FEF7A2FF202CA8BF56
:10288000202402A800F8014DFFF788F902B010BD1E
:1028900008B50139172900F28780DFE801F00C1133
:1028A000161B20252A2F34393E43484D52575C6170
:1028B000666B70757A7F20210A22FEF773FF74E041
:1028C0002A210A22FEF76EFF6FE034210A22FEF76A
:1028D00069FF6AE03E210A22FEF764FF65E04821B5
:1028E0000A22FEF75FFF60E052210A22FEF75AFF3C
:1028F0005BE05C210A22FEF755FF56E066210A22C2
:10290000FEF750FF51E070210A22FEF74BFF4CE02A
:102910007A210A22FEF746FF47E084210A22FEF7C9
:1029200041FF42E08E210A22FEF73CFF3DE0982164
:102930000A22FEF737FF38E0A2210A22FEF732FF13
:1029400033E0AC210A22FEF72DFF2EE0B6210A2249
:10295000FEF728FF29E0C0210A22FEF723FF24E02A
:10296000CA210A22FEF71EFF1FE0D4210A22FEF729
:1029700019FF1AE0DE210A22FEF714FF15E0E82114
:102980000A22FEF70FFF10E0F2210A22FEF70AFFEB
:102990000BE0FC210A22FEF705FF06E04FF48371ED
:1029A0000A22FEF7FFFE00E008BD0A2008BD00BFB6
:1029B00008B5013A172A00F28680DFE802F00C1110
:1029C000161B20252A2F34393E43484D52575C614F
:1029D000666B70757A7F20210A22FEF7F1FE08BD32
:1029E0002A210A22FEF7ECFE08BD34210A22FEF756
:1029F000E7FE08BD3E210A22FEF7E2FE08BD48219F
:102A00000A22FEF7DDFE08BD52210A22FEF7D8FE9B
:102A100008BD5C210A22FEF7D3FE08BD66210A220A
:102A2000FEF7CEFE08BD70210A22FEF7C9FE08BDE2
:102A30007A210A22FEF7C4FE08BD84210A22FEF78D
:102A4000BFFE08BD8E210A22FEF7BAFE08BD9821FE
:102A50000A22FEF7B5FE08BDA2210A22FEF7B0FE4B
:102A600008BDAC210A22FEF7ABFE08BDB6210A2242
:102A7000FEF7A6FE08BDC0210A22FEF7A1FE08BD92
:102A8000CA210A22FEF79CFE08BDD4210A22FEF7C5
:102A900097FE08BDDE210A22FEF792FE08BDE8215E
:102AA0000A22FEF78DFE08BDF2210A22FEF788FEFB
:102AB00008BDFC210A22FEF783FE08BD4FF4837196
:102AC0000A22FEF77DFE08BD08B50139172900F27C
:102AD0009E80DFE801F00C12181E242A30363C429A
:102AE000484E545A60666C72787E848A90964FF491
:102AF00085610122FEF756FE8AE040F2294101225B
:102B0000FEF750FE84E040F22A410122FEF74AFE21
:102B10007EE040F22B410122FEF744FE78E040F2D5
:102B20002C410122FEF73EFE72E040F22D410122CF
:102B3000FEF738FE6CE040F22E410122FEF732FE35
:102B400066E040F22F410122FEF72CFE60E04FF4D8
:102B500086610122FEF726FE5AE040F23141012251
:102B6000FEF720FE54E040F232410122FEF71AFE49
:102B70004EE040F233410122FEF714FE48E040F2FD
:102B800034410122FEF70EFE42E040F235410122BF
:102B9000FEF708FE3CE040F236410122FEF702FE5D
:102BA00036E040F237410122FEF7FCFD30E04FF401
:102BB00087610122FEF7F6FD2AE040F23941012249
:102BC000FEF7F0FD24E040F23A410122FEF7EAFD73
:102BD0001EE040F23B410122FEF7E4FD18E040F226
:102BE0003C410122FEF7DEFD12E040F23D410122B0
:102BF000FEF7D8FD0CE040F23E410122FEF7D2FD87
:102C000006E040F23F410122FEF7CCFD00E008BDA6
:102C1000012008BD08B50139172900F29D80DFE8C1
:102C200001F00C12181E242A30363C42484E545AE9
:102C300060666C72787E848A90964FF4856101227A
:102C4000FEF7BEFD08BD40F229410122FEF7B8FDA6
:102C500008BD40F22A410122FEF7B2FD08BD40F254
:102C60002B410122FEF7ACFD08BD40F22C410122B0
:102C7000FEF7A6FD08BD40F22D410122FEF7A0FDA2
:102C800008BD40F22E410122FEF79AFD08BD40F238
:102C90002F410122FEF794FD08BD4FF48661012209
:102CA000FEF78EFD08BD40F231410122FEF788FD9E
:102CB00008BD40F232410122FEF782FD08BD40F21C
:102CC00033410122FEF77CFD08BD40F23441012270
:102CD000FEF776FD08BD40F235410122FEF770FD9A
:102CE00008BD40F236410122FEF76AFD08BD40F200
:102CF00037410122FEF764FD08BD4FF487610122D0
:102D0000FEF75EFD08BD40F239410122FEF758FD95
:102D100008BD40F23A410122FEF752FD08BD40F2E3
:102D20003B410122FEF74CFD08BD40F23C4101222F
:102D3000FEF746FD08BD40F23D410122FEF740FD91
:102D400008BD40F23E410122FEF73AFD08BD40F2C7
:102D50003F410122FEF734FD08BD00BF08B501392F
:102D6000172900F29E80DFE801F00C12181E242AB9
:102D700030363C42484E545A60666C72787E848A83
:102D800090964FF4EE610122FEF70CFD8AE040F2CE
:102D900071710122FEF706FD84E040F2727101229A
:102DA000FEF700FD7EE040F273710122FEF7FAFCAF
:102DB00078E040F274710122FEF7F4FC72E040F218
:102DC00075710122FEF7EEFC6CE040F27671012293
:102DD000FEF7E8FC66E040F277710122FEF7E2FCC4
:102DE00060E04FF4EF610122FEF7DCFC5AE040F2B4
:102DF00079710122FEF7D6FC54E040F27A7101228B
:102E0000FEF7D0FC4EE040F27B710122FEF7CAFCD7
:102E100048E040F27C710122FEF7C4FC42E040F23F
:102E20007D710122FEF7BEFC3CE040F27E71012282
:102E3000FEF7B8FC36E040F27F710122FEF7B2FCEB
:102E400030E04FF4F0610122FEF7ACFC2AE040F2E2
:102E500081710122FEF7A6FC24E040F2827101227A
:102E6000FEF7A0FC1EE040F283710122FEF79AFCFF
:102E700018E040F284710122FEF794FC12E040F267
:102E800085710122FEF78EFC0CE040F28671012272
:102E9000FEF788FC06E040F287710122FEF782FC13
:102EA00000E008BD012008BD08B50139172900F26E
:102EB0009D80DFE801F00C12181E242A30363C42B7
:102EC000484E545A60666C72787E848A90964FF4AD
:102ED000EE610122FEF774FC08BD40F2717101221F
:102EE000FEF76EFC08BD40F272710122FEF768FC2D
:102EF00008BD40F273710122FEF762FC08BD40F28A
:102F000074710122FEF75CFC08BD40F2757101226C
:102F1000FEF756FC08BD40F276710122FEF750FC28
:102F200008BD40F277710122FEF74AFC08BD4FF45C
:102F3000EF610122FEF744FC08BD40F279710122E5
:102F4000FEF73EFC08BD40F27A710122FEF738FC24
:102F500008BD40F27B710122FEF732FC08BD40F251
:102F60007C710122FEF72CFC08BD40F27D7101222C
:102F7000FEF726FC08BD40F27E710122FEF720FC20
:102F800008BD40F27F710122FEF71AFC08BD4FF424
:102F9000F0610122FEF714FC08BD40F281710122AC
:102FA000FEF70EFC08BD40F282710122FEF708FC1C
:102FB00008BD40F283710122FEF702FC08BD40F219
:102FC00084710122FEF7FCFB08BD40F285710122ED
:102FD000FEF7F6FB08BD40F286710122FEF7F0FB1A
:102FE00008BD40F287710122FEF7EAFB08BD00BF71
:102FF00008B50139172900F29E80DFE801F00C12B4
:10300000181E242A30363C42484E545A60666C7270
:10301000787E848A90964FF488610122FEF7C2FB85
:103020008AE040F241410122FEF7BCFB84E040F21D
:1030300042410122FEF7B6FB7EE040F2434101220D
:10304000FEF7B0FB78E040F244410122FEF7AAFB14
:1030500072E040F245410122FEF7A4FB6CE040F231
:1030600046410122FEF79EFB66E040F24741012205
:10307000FEF798FB60E04FF489610122FEF792FBB6
:103080005AE040F249410122FEF78CFB54E040F245
:103090004A410122FEF786FB4EE040F24B410122FD
:1030A000FEF780FB48E040F24C410122FEF77AFB3C
:1030B00042E040F24D410122FEF774FB3CE040F259
:1030C0004E410122FEF76EFB36E040F24F410122F5
:1030D000FEF768FB30E04FF48A610122FEF762FBE5
:1030E0002AE040F251410122FEF75CFB24E040F26D
:1030F00052410122FEF756FB1EE040F253410122ED
:10310000FEF750FB18E040F254410122FEF74AFB63
:1031100012E040F255410122FEF744FB0CE040F280
:1031200056410122FEF73EFB06E040F257410122E4
:10313000FEF738FB00E008BD012008BD08B50139E5
:10314000172900F29D80DFE801F00C12181E242AD6
:1031500030363C42484E545A60666C72787E848A9F
:1031600090964FF488610122FEF72AFB08BD40F2D9
:1031700041410122FEF724FB08BD40F242410122F9
:10318000FEF71EFB08BD40F243410122FEF718FB8B
:1031900008BD40F244410122FEF712FB08BD40F297
:1031A00045410122FEF70CFB08BD40F246410122D9
:1031B000FEF706FB08BD40F247410122FEF700FB87
:1031C00008BD4FF489610122FEF7FAFA08BD40F20A
:1031D00049410122FEF7F4FA08BD40F24A410122BA
:1031E000FEF7EEFA08BD40F24B410122FEF7E8FA85
:1031F00008BD40F24C410122FEF7E2FA08BD40F260
:103200004D410122FEF7DCFA08BD40F24E41012299
:10321000FEF7D6FA08BD40F24F410122FEF7D0FA80
:1032200008BD4FF48A610122FEF7CAFA08BD40F2D8
:1032300051410122FEF7C4FA08BD40F25241012279
:10324000FEF7BEFA08BD40F253410122FEF7B8FA7C
:1032500008BD40F254410122FEF7B2FA08BD40F227
:1032600055410122FEF7ACFA08BD40F25641012259
:10327000FEF7A6FA08BD40F257410122FEF7A0FA78
:1032800008BD00BF08B50139172900F29E80DFE8AC
:1032900001F00C12181E242A30363C42484E545A73
:1032A00060666C72787E848A90964FF4F161012298
:1032B000FEF778FA8AE040F289710122FEF772FA8D
:1032C00084E040F28A710122FEF76CFA7EE040F25F
:1032D0008B710122FEF766FA78E040F28C710122D0
:1032E000FEF760FA72E040F28D710122FEF75AFAA1
:1032F0006CE040F28E710122FEF754FA66E040F273
:103300008F710122FEF74EFA60E04FF4F261012264
:10331000FEF748FA5AE040F291710122FEF742FAB4
:1033200054E040F292710122FEF73CFA4EE040F286
:1033300093710122FEF736FA48E040F294710122BF
:10334000FEF730FA42E040F295710122FEF72AFAC8
:103350003CE040F296710122FEF724FA36E040F29A
:1033600097710122FEF71EFA30E04FF4F36101225B
:10337000FEF718FA2AE040F299710122FEF712FADC
:1033800024E040F29A710122FEF70CFA1EE040F2AE
:103390009B710122FEF706FA18E040F29C710122AF
:1033A000FEF700FA12E040F29D710122FEF7FAF9F1
:1033B0000CE040F29E710122FEF7F4F906E040F2C3
:1033C0009F710122FEF7EEF900E008BD012008BD63
:1033D00008B50139172900F29D80DFE801F00C12D1
:1033E000181E242A30363C42484E545A60666C728D
:1033F000787E848A90964FF4F1610122FEF7E0F91D
:1034000008BD40F289710122FEF7DAF908BD40F2E9
:103410008A710122FEF7D4F908BD40F28B710122B6
:10342000FEF7CEF908BD40F28C710122FEF7C8F913
:1034300008BD40F28D710122FEF7C2F908BD40F2CD
:103440008E710122FEF7BCF908BD40F28F71012296
:10345000FEF7B6F908BD4FF4F2610122FEF7B0F9AC
:1034600008BD40F291710122FEF7AAF908BD40F2B1
:1034700092710122FEF7A4F908BD40F29371012276
:10348000FEF79EF908BD40F294710122FEF798F90B
:1034900008BD40F295710122FEF792F908BD40F295
:1034A00096710122FEF78CF908BD40F29771012256
:1034B000FEF786F908BD4FF4F3610122FEF780F9AB
:1034C00008BD40F299710122FEF77AF908BD40F279
:1034D0009A710122FEF774F908BD40F29B71012236
:1034E000FEF76EF908BD40F29C710122FEF768F903
:1034F00008BD40F29D710122FEF762F908BD40F25D
:103500009E710122FEF75CF908BD40F29F71012215
:10351000FEF756F908BD00BF08B50139172900F2BA
:103520009E80DFE801F00C12181E242A30363C423F
:10353000484E545A60666C72787E848A90964FF436
:10354000F4610122FEF72EF98AE040F2A171012216
:10355000FEF728F984E040F2A2710122FEF722F979
:103560007EE040F2A3710122FEF71CF978E040F200
:10357000A4710122FEF716F972E040F2A571012252
:10358000FEF710F96CE040F2A6710122FEF70AF98D
:1035900066E040F2A7710122FEF704F960E04FF403
:1035A000F5610122FEF7FEF85AE040F2A97101220E
:1035B000FEF7F8F854E040F2AA710122FEF7F2F8A3
:1035C0004EE040F2AB710122FEF7ECF848E040F229
:1035D000AC710122FEF7E6F842E040F2AD71012243
:1035E000FEF7E0F83CE040F2AE710122FEF7DAF8B7
:1035F00036E040F2AF710122FEF7D4F830E04FF42C
:10360000F6610122FEF7CEF82AE040F2B171012204
:10361000FEF7C8F824E040F2B2710122FEF7C2F8CA
:103620001EE040F2B3710122FEF7BCF818E040F250
:10363000B4710122FEF7B6F812E040F2B571012232
:10364000FEF7B0F80CE040F2B6710122FEF7AAF8DE
:1036500006E040F2B7710122FEF7A4F800E008BDD1
:10366000012008BD08B50139172900F29D80DFE867
:1036700001F00C12181E242A30363C42484E545A8F
:1036800060666C72787E848A90964FF4F4610122B1
:10369000FEF796F808BD40F2A1710122FEF790F8FE
:1036A00008BD40F2A2710122FEF78AF808BD40F27F
:1036B000A3710122FEF784F808BD40F2A471012233
:1036C000FEF77EF808BD40F2A5710122FEF778F8FA
:1036D00008BD40F2A6710122FEF772F808BD40F263
:1036E000A7710122FEF76CF808BD4FF4F5610122C5
:1036F000FEF766F808BD40F2A9710122FEF760F8F6
:1037000008BD40F2AA710122FEF75AF808BD40F246
:10371000AB710122FEF754F808BD40F2AC710122F2
:10372000FEF74EF808BD40F2AD710122FEF748F8F1
:1037300008BD40F2AE710122FEF742F808BD40F22A
:10374000AF710122FEF73CF808BD4FF4F66101228B
:10375000FEF736F808BD40F2B1710122FEF730F8ED
:1037600008BD40F2B2710122FEF72AF808BD40F20E
:10377000B3710122FEF724F808BD40F2B4710122B2
:10378000FEF71EF808BD40F2B5710122FEF718F8E9
:1037900008BD40F2B6710122FEF712F808BD40F2F2
:1037A000B7710122FEF70CF808BD00BF30B583B039
:1037B00004460139172900F2B281DFE811F0180040
:1037C00029003A004B005C006D007E008F00A000D5
:1037D000B100C200D300E400F50006011701280182
:1037E00039014A015B016C017D018E019F010DF1E0
:1037F0000700FEF7DBF99DF80750202DA8BF202514
:1038000020464FF488712022FDF7CCFF284686E140
:103810000DF10700FEF7DAF99DF80750202DA8BF3B
:10382000202520464FF498712022FDF7BBFF284643
:1038300075E10DF10700FEF7D9F99DF80750202D2D
:10384000A8BF202520464FF4A8712022FDF7AAFF2B
:10385000284664E10DF10700FEF7D8F99DF80750FE
:10386000202DA8BF202520464FF4B8712022FDF757
:1038700099FF284653E10DF10700FEF7D7F99DF8AF
:103880000750202DA8BF202520464FF4C8712022C4
:10389000FDF788FF284642E10DF10700FEF7D6F953
:1038A0009DF80750202DA8BF202520464FF4D87141
:1038B0002022FDF777FF284631E10DF10700FEF7E2
:1038C000D5F99DF80750202DA8BF202520464FF49C
:1038D000E8712022FDF766FF284620E10DF1070080
:1038E000FEF7D4F99DF80750202DA8BF20252046CB
:1038F0004FF4F8712022FDF755FF28460FE10DF136
:103900000700FEF7D3F99DF80750202DA8BF20250A
:1039100020464FF404712022FDF744FF2846FEE0C4
:103920000DF10700FEF7D2F99DF80750202DA8BF32
:10393000202520464FF40C712022FDF733FF284646
:10394000EDE00DF10700FEF7D1F99DF80750202DAD
:10395000A8BF202520464FF414712022FDF722FF36
:103960002846DCE00DF10700FEF7D0F99DF807507E
:10397000202DA8BF202520464FF41C712022FDF7E2
:1039800011FF2846CBE00DF10700FEF7CFF99DF8B7
:103990000750202DA8BF202520464FF42471202257
:1039A000FDF700FF2846BAE00DF10700FEF7CEF95B
:1039B0009DF80750202DA8BF202520464FF42C71DC
:1039C0002022FDF7EFFE2846A9E00DF10700FEF7E3
:1039D000CDF99DF80750202DA8BF202520464FF493
:1039E00034712022FDF7DEFE284698E00DF1070035
:1039F000FEF7CCF99DF80750202DA8BF20252046C2
:103A00004FF43C712022FDF7CDFE284687E00DF1F2
:103A10000700FEF7CBF99DF80750202DA8BF202501
:103A200020464FF444712022FDF7BCFE284676E084
:103A30000DF10700FEF7CAF99DF80750202DA8BF29
:103A4000202520464FF44C712022FDF7ABFE28467E
:103A500065E00DF10700FEF7C9F99DF80750202D2C
:103A6000A8BF202520464FF454712022FDF79AFE6E
:103A7000284654E00DF10700FEF7C8F99DF80750FD
:103A8000202DA8BF202520464FF45C712022FDF791
:103A900089FE284643E00DF10700FEF7C7F99DF8BF
:103AA0000750202DA8BF202520464FF46471202206
:103AB000FDF778FE284632E00DF10700FEF7C6F963
:103AC0009DF80750202DA8BF202520464FF46C718B
:103AD0002022FDF767FE284621E00DF10700FEF7E2
:103AE000C5F99DF80750202DA8BF202520464FF48A
:103AF00074712022FDF756FE284610E00DF10700F4
:103B0000FEF7C4F99DF80750202DA8BF20252046B8
:103B10004FF47C712022FDF745FE2846FFE703B0F5
:103B200030BD00BF10B582B00C46013A172A00F232
:103B30006981DFE812F018002600340042005000CE
:103B40005E006C007A0088009600A400B200C000FD
:103B5000CE00DC00EA00F800060114012201300169
:103B60003E014C015A014FF488712022FDF728FED6
:103B7000202CA8BF202402A800F8014DFEF71EF853
:103B800040E14FF498712022FDF71AFE202CA8BFC7
:103B9000202402A800F8014DFEF720F832E14FF48E
:103BA000A8712022FDF70CFE202CA8BF202402A81B
:103BB00000F8014DFEF722F824E14FF4B8712022FD
:103BC000FDF7FEFD202CA8BF202402A800F8014D1F
:103BD000FEF724F816E14FF4C8712022FDF7F0FD3E
:103BE000202CA8BF202402A800F8014DFEF726F8DB
:103BF00008E14FF4D8712022FDF7E2FD202CA8BF88
:103C0000202402A800F8014DFEF728F8FAE04FF44E
:103C1000E8712022FDF7D4FD202CA8BF202402A8A3
:103C200000F8014DFEF72AF8ECE04FF4F87120227D
:103C3000FDF7C6FD202CA8BF202402A800F8014DE6
:103C4000FEF72CF8DEE04FF404712022FDF7B8FDFA
:103C5000202CA8BF202402A800F8014DFEF72EF862
:103C6000D0E04FF40C712022FDF7AAFD202CA8BF54
:103C7000202402A800F8014DFEF730F8C2E04FF40E
:103C800014712022FDF79CFD202CA8BF202402A83F
:103C900000F8014DFEF732F8B4E04FF41C71202219
:103CA000FDF78EFD202CA8BF202402A800F8014DAE
:103CB000FEF734F8A6E04FF424712022FDF780FDD2
:103CC000202CA8BF202402A800F8014DFEF736F8EA
:103CD00098E04FF42C712022FDF772FD202CA8BF34
:103CE000202402A800F8014DFEF738F88AE04FF4CE
:103CF00034712022FDF764FD202CA8BF202402A8E7
:103D000000F8014DFEF73AF87CE04FF43C712022B8
:103D1000FDF756FD202CA8BF202402A800F8014D75
:103D2000FEF73CF86EE04FF444712022FDF748FDA9
:103D3000202CA8BF202402A800F8014DFEF73EF871
:103D400060E04FF44C712022FDF73AFD202CA8BF13
:103D5000202402A800F8014DFEF740F852E04FF48D
:103D600054712022FDF72CFD202CA8BF202402A88E
:103D700000F8014DFEF742F844E04FF45C71202258
:103D8000FDF71EFD202CA8BF202402A800F8014D3D
:103D9000FEF744F836E04FF464712022FDF710FD81
:103DA000202CA8BF202402A800F8014DFEF746F8F9
:103DB00028E04FF46C712022FDF702FD202CA8BFF3
:103DC000202402A800F8014DFEF748F81AE04FF44D
:103DD00074712022FDF7F4FC202CA8BF202402A837
:103DE00000F8014DFEF74AF80CE04FF47C712022F8
:103DF000FDF7E6FC202CA8BF202402A800F8014D06
:103E0000FEF74CF802B010BD70B4094B03F130045A
:103E10000848002601681A792AB19A68891AB1F50A
:103E20007A7FC8BF1E710C33A342F3D170BC7047B8
:103E3000FC99FF1F00A8FF1F10B4012000240849AF
:103E40002346CA18127922B15A58824201D1013050
:103E5000F6E70C33302BF4D15DF8044B704700BF0C
:103E6000FC99FF1F10B5044610B9FFF7E5FF0446A3
:103E7000164B1B795BB1154B1B7C43B1134B1B7F5E
:103E80002BB1124B93F828300BB1FFF7BDFF0F4B4E
:103E90001B797BB10D4B1B7C43B10C4B1B7F3BB1A2
:103EA0000A4B93F8283073B9094B04E0094B02E040
:103EB000094B00E0054B1C6001221A71074A126889
:103EC0009A60204610BD002010BD00BFFC99FF1F66
:103ED000209AFF1F089AFF1F149AFF1F00A8FF1FB8
:103EE00070B582B00146056801954479837943EA4B
:103EF0000424164B006818600A791A7100225A715E
:103F000011229A71D81D0731224602F029FDE61DC3
:103F1000B5F1FF3F04D10020FFF7A4FF019002E0BC
:103F20002846FFF79FFF094B019898511A19022163
:103F3000D17201201073002151739073D173184610
:103F4000642103F013F8019802B070BD309AFF1F8E
:103F500008B5074B00681860BF221A7100225A7119
:103F600001229A71D9711846642102F0FFFF08BD41
:103F7000309AFF1F114B1B68834212D00F4BDB6836
:103F800083420AD00D4B9B69834208D00B4B5B6A7E
:103F9000834208BF032005D00DE0012002E002208B
:103FA00000E00020064B1A6800EB4001034B03EBD6
:103FB00081039A6070474FF0FF307047FC99FF1FF4
:103FC00000A8FF1F08B500224271022282710A1266
:103FD000C2710172642102F0C9FF08BD2DE9F047EA
:103FE0000D46284C00682060832323713929B4BF13
:103FF00089464FF039090B126371A171E01D224906
:104000004A4602F0ADFC2046642102F0AFFFC9EB46
:104010000509B9F1000F32DD1C4D0026274604F1D9
:104020000508DFF86CA03E712B46444605F13002CE
:10403000D3F800C0D3F804E09868D968C4F800C089
:10404000C4F804E0A060E160103310349342EFD173
:1040500019685A68216062601A899B7A2281A3726A
:104060003846642102F082FFA9F13B095346013B27
:104070007FF4FDAF01363B35B9F1000FD3DCBDE86D
:10408000F08700BF309AFF1F009EFF1F399EFF1F61
:104090008038010010B582B00024204602F0F4FF01
:1040A00001AB18550134042CF7D1019802B010BDB2
:1040B00070B582B001900DF10306002416F8015F7F
:1040C000204602F0E1FF854203D02046294602F057
:1040D000EFFF0134042CF1D102B070BD2DE9F043A3
:1040E000BBB00446C37923B14FF4DC41FFF76AFF4C
:1040F00021E1457AC37A027B120242EA0342437B02
:104100001A43037A022B36D0032B00F0F780012BE1
:1041100040F00D81402A04D04FF4CE41FFF752FF0A
:1041200009E1864B1B6823B946F68511FFF74AFF64
:1041300001E1834D28460021442206F063FB8149BA
:1041400000220B4643F8042B4A60043343F8042B47
:1041500043F8042B43F8042B43F8042B43F8042BB7
:1041600043F8042B1A6004232B70204646F6851171
:10417000FFF728FFDFE0812A04D04FF4CE41FFF79C
:1041800021FFD8E090F84E30402B04D04FF4D541B9
:10419000FFF718FFCFE0694B1B6823B946F685117E
:1041A000FFF710FFC7E000F12E0800F14F06DFF81F
:1041B0009CE100F18F0C774630687168B268F36853
:1041C0000FC71036BE466645F5D102A8FCF78AFE39
:1041D00002A841462022FCF7AFFE02A85A49FCF78C
:1041E000CFFE5A484146202206F078FA28B12046F0
:1041F0004FF4D541FFF7E6FE9DE0072D05D120469F
:1042000046F68511FFF7DEFE95E0032D40F0938022
:10421000FFF740FF81461EA8FCF764FE1EA841463A
:104220002022FCF789FE4A4D01232B704FEA2922F8
:1042300002F47F424FEA092303F47F031A4342EA60
:10424000196242EA09623AAB43F8E42D1868C5F8EE
:1042500001001EA829460522FCF76EFE1EA804F1E7
:104260000E012022FCF768FE1EA83749FCF788FEE5
:1042700030236B714423AB714FF0020C85F807C0FB
:104280004FF0200E85F808E0324E0FCEC5F8090039
:10429000C5F80D10C5F81120C5F815300FCEC5F8BA
:1042A0001900C5F81D10C5F82120C5F8253085F87E
:1042B00029C085F82AE00FCEC5F82B00C5F82F10CD
:1042C000C5F83320C5F837300FCEC5F83B00C5F828
:1042D0003F10C5F84320C5F84730902385F84B3090
:1042E000002385F84C30154A136020464D21FFF716
:1042F00075FE09F10100FFF7DBFE1CE022B14FF46F
:10430000CE41FFF75FFE16E0002343710822827161
:10431000114A1068C4F807009288A4F80B20902274
:104320006273A3732046642102F020FE03E04FF481
:10433000DA41FFF747FE3BB0BDE8F083B098FF1FBE
:10434000B899FF1FC89DFF1F00A2FF1F709DFF1F90
:10435000009EFF1F309AFF1FD8E600002DE9F84F9E
:104360000446037990F805908279862B01D8842B36
:1043700005D12D480121FFF7EBFDBDE8F88F812B1A
:104380004BD142EA0929B9F1390F04DC642102F06A
:10439000EDFDBDE8F88F642102F0E8FDA9F13909CF
:1043A000B9F1000F3DDD04F1400500271F4E06F175
:1043B0000508DFF87CA02068306037712B46424644
:1043C00005F13001D3F800B0D3F804C0D3F808E009
:1043D000D868C2F800B0C2F804C0C2F808E0D060E3
:1043E000103310328B42EDD118685968106051605B
:1043F00019899B7A118193723046642102F0B6FDCF
:10440000A9F13B095346013B7FF4FDAF01373B3532
:10441000B9F1000FCFDCBDE8F88F832B01D1FFF796
:104420005DFEBDE8F88F00BF1099FF1F309AFF1F97
:104430008038010010B4002306480324C218117903
:10444000022908BF14710C33302BF7D15DF8044BEF
:10445000704700BFFC99FF1F2DE9F041071E15DDD5
:1044600000240B4E4FF0010864253078414603F0DC
:10447000BBFC284603F020FD3078002103F0B4FC9B
:10448000284603F019FD0134BC42EED1BDE8F081AD
:10449000B09DFF1F10B5304B187802F055FB014658
:1044A0002E4B18602E4C20460422134602F050F882
:1044B0002C4B187802F048FB01462B4B1860204625
:1044C0000422134602F044F8284B187802F03CFB13
:1044D0000146274B186020460422134602F038F8A4
:1044E000244B187802F030FB0146234B186020461D
:1044F0000422134602F02CF8204B187802F024FB1B
:1045000001461F4B186020460422134602F020F893
:104510001C4B187802F018FB01461B4B1860204614
:104520000422134602F014F8184B187803F0AAFB83
:10453000014620460422102302F00AF8144B187892
:1045400003F0A0FB014620460422102302F000F8ED
:10455000204601F0DBFF10BD30A2FF1F5099FF1F66
:1045600038A6FF1F31A2FF1F8C99FF1F32A2FF1F29
:104570005899FF1FED9DFF1F5C99FF1F34A6FF1F79
:104580006099FF1F35A6FF1F6499FF1FAC98FF1F9E
:10459000EC9DFF1FF8B507460E460A4D0A4C01E098
:1045A000FFF778FF2846216801F00AFF0028F7D0BE
:1045B00004483946324601F03DFF2022024B1A6082
:1045C0000120F8BD38A6FF1FA88CFF1F30B4154688
:1045D0002AB10023C45CCC540133AB42FAD130BCC5
:1045E000704700BF70B4164632B100240B44055D1D
:1045F0001D550134B442FAD170BC704710B5037830
:1046000033B1094A02F8013F10F8013F002BF9D1FC
:10461000064C2046002102F0A9FC20460021402241
:1046200006F0F0F810BD00BF2F9AFF1F309AFF1F51
:1046300070B588B0864B1B78002B14BF0C25002565
:104640000DF10200691CFEF723F901238DF80030FB
:104650007C248DF80140684604A90C22FFF7B6FFC0
:1046600004A8FFF7CBFF142003F026FC0DF1020095
:10467000A91CFEF70DF902238DF800308DF80140DA
:10468000684604A90C22FFF7A1FF04A8FFF7B6FFB4
:10469000142003F011FC0DF10200E91CFEF7F8F8FC
:1046A00003268DF800608DF80140684604A90C22AD
:1046B000FFF78CFF04A8FFF7A1FF142003F0FCFB19
:1046C0000DF10200291DFEF7E3F804238DF80030F8
:1046D0008DF80140684604A90C22FFF777FF04A873
:1046E000FFF78CFF142003F0E7FB0DF10200691DBA
:1046F000FEF7CEF805238DF800308DF801406846AE
:1047000004A90C22FFF762FF04A8FFF777FF14202B
:1047100003F0D2FB0DF10200A91DFEF7B9F8062344
:104720008DF800308DF80140684604A90C22FFF78F
:104730004DFF04A8FFF762FF142003F0BDFB0DF14D
:104740000200E91DFEF7A4F807238DF800308DF86C
:104750000140684604A90C22FFF738FF04A8FFF7C0
:104760004DFF142003F0A8FB0DF1020005F1080134
:10477000FEF78EF808238DF800308DF8014068466A
:1047800004A90C22FFF722FF04A8FFF737FF14202B
:1047900003F092FB0DF1020005F10901FEF778F834
:1047A00009238DF800308DF80140684604A90C22D9
:1047B000FFF70CFF04A8FFF721FF142003F07CFB98
:1047C0000DF1020005F10A01FEF762F810238DF8E1
:1047D00000308DF8014068460DEB03010C22FFF715
:1047E000F5FE04A8FFF70AFF142003F065FB0DF1A6
:1047F000020005F10B01FEF74BF811238DF8003094
:104800008DF80140684604A90C22FFF7DFFE04A8DA
:10481000FFF7F4FE142003F04FFB0DF1020005F149
:104820000C01FEF735F812238DF800308DF80140A9
:10483000684604A90C22FFF7C9FE04A8FFF7DEFEB4
:10484000142003F039FB3046FFF706FE08B070BDB8
:104850002C9AFF1F38B54FF40063013BFDD10024B3
:1048600025462046294602F023FC0134B4F5006FAA
:10487000F7D14FF40063013BFDD138BD10B582B0D4
:1048800001A8FCF7EBFF9DF8054044F400349DF8C7
:10489000043044EA03242046012101F005FD04F51B
:1048A0000060012101F000FD04F5C050012101F07C
:1048B000FBFC04F54050012101F0F6FC02B010BDF4
:1048C00000B583B00DF10700FCF798FF9DF80730A5
:1048D00023B9FFF7D3FFFFF7BDFF01E001F03AFD79
:1048E0000022044B1A700122034B1A7003B05DF8CA
:1048F00004FB00BF5499FF1F9099FF1F10B5044699
:10490000144B1B7833B9144B1B78CBB11348FFF70A
:1049100075FE10BD104B1B7893B11148FFF76EFE6A
:1049200004F1090100230F4A11F8010D98401468A1
:10493000204310600833202BF6D1FCF7C7FE01E0BE
:10494000FFF7BEFF0848002102F010FB0320FFF72D
:1049500083FD10BD5499FF1F9099FF1FE0E60000F2
:10496000C4E300000C99FF1F309AFF1F30B4043AD3
:1049700012D403460024CD78055551F8045B2D0C64
:104980005D7051F8045C2D0A9D7051F8045CDD7077
:10499000043304349442EEDD30BC70472DE9F0431B
:1049A00083B006468846171F19D4054600244FF0E9
:1049B0000109AA786B781B0443EA0223EA781343BF
:1049C000325D43EA0263019308EB040001A94A4601
:1049D0004B4601F039FC04340435BC42E9DD03B038
:1049E000BDE8F083D0B582B007460E4601A8FCF7BB
:1049F00035FF9DF804309DF80540181908D044F49F
:104A00000031384641EA03213246FFF7AFFF01206B
:104A100002B0D0BD70B5C2B0044601A8FCF71EFFBD
:104A20009DF804309DF805609A19AAB900238DF805
:104A3000043004238DF805300DEB0300FCF716FF5E
:104A4000154D204629462022FFF7A8FF204629467B
:104A50002022FFF78BFF1DE046F4003646EA0326CE
:104A600002A83146FE22FFF781FF002302ADE25C7F
:104A70005A550133202BFAD13046012101F014FCA4
:104A800002A83146FE22FFF789FF20463146202248
:104A9000FFF76CFF42B070BD0400020010B582B099
:104AA000044601A8FCF7DAFE9DF804309DF80520C5
:104AB000981809D042F4003242EA032120462031FE
:104AC0002022FFF753FF012002B010BD70B5C2B025
:104AD000054601A8FCF7C2FE9DF804309DF80520AC
:104AE000991801B342F4003242EA032602A8314683
:104AF000FE22FFF73BFF002302AA1A44EC5C82F877
:104B000020400133202BF7D13046012101F0CCFBAE
:104B100002A83146FE22FFF741FF284606F1200198
:104B20002022FFF723FF42B070BD00BF70B5A4B0D4
:104B30004F4B1B68032B00F29880DFE803F0020C58
:104B4000363D4C48FCF71EFB4B48FFF757FD012252
:104B5000474B1A6089E00222454B1A60454806F02F
:104B6000BDF80738032816D84448FFF747FD00244E
:104B7000434E404D635DA3550134284606F0AEF820
:104B80008442F7D93B4C20463D49FCF7EBFA2046DE
:104B9000FCF7F8FA69E03B48FFF730FD3548FCF7D1
:104BA000F1FA0022324B1A605FE03748FFF726FD2A
:104BB00003222F4B1A6058E000222D4B1A602D481B
:104BC00006F08CF80738032843D82A48FCF7DEFAA9
:104BD000002837D00024274D635D0DF804300134E0
:104BE000284606F07BF88442F6D908A8FCF77AF943
:104BF000204806F073F8024608A86946FCF79CF9BD
:104C0000224B1B783BB968462021FFF7C3FC68465E
:104C1000FFF700FF03E068462021FFF7E3FE08A846
:104C200069462022FCF788F908A86946FCF7A8F92C
:104C30006846FFF74BFF0122144B1A701448FFF728
:104C4000DDFC0CE01348FFF7D9FC0022084B1A608A
:104C500005E00C48FFF7D2FC0022054B1A6005481E
:104C6000FCF790FA0320FFF7F7FB24B070BD00BFFC
:104C7000F09DFF1FB49DFF1FF0E6000014E7000049
:104C8000F49DFF1F2CE7000058E700005499FF1F18
:104C900088E70000A0E7000010B582B0044601A834
:104CA000FCF7DCFD9DF804309DF80520991809B942
:104CB000002008E042F4003242EA0321204640315D
:104CC0002022FFF753FE02B010BD00BF70B5C2B086
:104CD000054601A8FCF7C2FD9DF804309DF80520AB
:104CE000991801B342F4003242EA032602A8314681
:104CF000FE22FFF73BFE002302AA1A44EC5C82F876
:104D000040400133202BF7D13046012101F0CCFA8D
:104D100002A83146FE22FFF741FE284606F1400177
:104D20002022FFF723FE42B070BD00BF70B5A4B0D3
:104D3000454B1B68062B00F28580DFE803F00483F7
:104D400083830E383F004148FCF71CFA4048FFF7C8
:104D500055FC04223C4B1A6074E005223A4B1A6061
:104D60003A4805F0BBFF0738032816D83948FFF743
:104D700045FC0024384E354D635DA355013428466B
:104D800005F0ACFF8442F7D9304C20463249FCF79D
:104D9000E9F92046FCF7F6F954E03048FFF72EFC1D
:104DA0002A48FCF7EFF90022274B1A604AE02C480A
:104DB000FFF724FC0622244B1A6043E00022224B1A
:104DC0001A60224805F08AFF0738032831D81F48A7
:104DD000FCF7DCF948B300241C4D635D0DF804308A
:104DE0000134284605F07AFF8442F6D908A8FCF77A
:104DF00079F8164805F072FF024608A86946FCF7E4
:104E00009BF868462021FFF7EDFD08A8694620229F
:104E1000FCF792F808A86946FCF7B2F86846FFF775
:104E200055FF1048FFF7EAFB06E00F48FFF7E6FBE7
:104E300002E00A48FFF7E2FB0448FCF7A3F903206D
:104E4000FFF70AFB24B070BDF09DFF1FB49DFF1F4C
:104E5000B8E7000014E7000024A2FF1F2CE70000C1
:104E600058E7000088E70000A0E7000010B582B016
:104E7000044601A8FCF7F2FC9DF804309DF80520DB
:104E8000991809B9002008E042F4003242EA0321EF
:104E9000204660312022FFF769FD02B010BD00BF3F
:104EA00070B5C2B0054601A8FCF7D8FC9DF80430E7
:104EB0009DF80520991801B342F4003242EA032616
:104EC00002A83146FE22FFF751FD002302AA1A4430
:104ED000EC5C82F860400133202BF7D13046012191
:104EE00001F0E2F902A83146FE22FFF757FD2846FD
:104EF00006F160012022FFF739FD42B070BD00BF0E
:104F000070B5A4B0504B1B68092B00F29B80DFE802
:104F100003F0059999999999990F39404B48FCF7F5
:104F200031F94B48FFF76AFB0722474B1A6089E0CB
:104F30000822454B1A60454805F0D0FE0738032883
:104F400016D84448FFF75AFB0024434E3F4D635D9B
:104F5000A3550134284605F0C1FE8442F7D93B4CE5
:104F600020463D49FCF7FEF82046FCF70BF969E0C6
:104F70003A48FFF743FB3548FCF704F90022324B6F
:104F80001A605FE03648FFF739FB09222E4B1A60A2
:104F900058E000222C4B1A602C4805F09FFE073881
:104FA000032843D82948FCF7F1F8002837D000241B
:104FB000264D635D0DF804300134284605F08EFE61
:104FC0008442F6D908A8FBF78DFF204805F086FE3D
:104FD000024608A86946FBF7AFFF224B1B783BB996
:104FE00068462021FFF7D6FA6846FFF713FD03E075
:104FF00068462021FFF7F6FC08A869462022FBF747
:105000009BFF08A86946FBF7BBFF6846FFF748FF10
:105010000122144B1A701448FFF7F0FA0CE0134801
:10502000FFF7ECFA0022084B1A6005E00B48FFF787
:10503000E5FA0022044B1A600448FCF7A3F80320A9
:10504000FFF70AFA24B070BDF09DFF1FB49DFF1F4B
:10505000F0E6000014E700000099FF1F2CE70000B5
:1050600058E700005499FF1F88E70000A0E7000000
:10507000F0B583B006460D4601A8FCF7EFFB9DF89E
:1050800004309DF805209C1800F0A38142F4003202
:1050900042EA03276C1E172C00F29A81DFE814F015
:1050A0001800280038004800580068007800880080
:1050B0009800A800B800C800D800E800F80008016F
:1050C0001801280138014801580168017801880158
:1050D0000DF10300FCF7EAFE9DF80340402CA8BF49
:1050E0004024304607F500614022FFF73FFC70E1A5
:1050F0000DF10300FCF7EAFE9DF80340402CA8BF29
:105100004024304607F504614022FFF72FFC60E1A0
:105110000DF10300FCF7EAFE9DF80340402CA8BF08
:105120004024304607F508614022FFF71FFC50E19C
:105130000DF10300FCF7EAFE9DF80340402CA8BFE8
:105140004024304607F50C614022FFF70FFC40E198
:105150000DF10300FCF7EAFE9DF80340402CA8BFC8
:105160004024304607F510614022FFF7FFFB30E195
:105170000DF10300FCF7EAFE9DF80340402CA8BFA8
:105180004024304607F514614022FFF7EFFB20E191
:105190000DF10300FCF7EAFE9DF80340402CA8BF88
:1051A0004024304607F518614022FFF7DFFB10E18D
:1051B0000DF10300FCF7EAFE9DF80340402CA8BF68
:1051C0004024304607F51C614022FFF7CFFB00E189
:1051D0000DF10300FCF7EAFE9DF80340402CA8BF48
:1051E0004024304607F520614022FFF7BFFBF0E086
:1051F0000DF10300FCF7EAFE9DF80340402CA8BF28
:105200004024304607F524614022FFF7AFFBE0E081
:105210000DF10300FCF7EAFE9DF80340402CA8BF07
:105220004024304607F528614022FFF79FFBD0E07D
:105230000DF10300FCF7EAFE9DF80340402CA8BFE7
:105240004024304607F52C614022FFF78FFBC0E079
:105250000DF10300FCF7EAFE9DF80340402CA8BFC7
:105260004024304607F530614022FFF77FFBB0E075
:105270000DF10300FCF7EAFE9DF80340402CA8BFA7
:105280004024304607F534614022FFF76FFBA0E071
:105290000DF10300FCF7EAFE9DF80340402CA8BF87
:1052A0004024304607F538614022FFF75FFB90E06D
:1052B0000DF10300FCF7EAFE9DF80340402CA8BF67
:1052C0004024304607F53C614022FFF74FFB80E069
:1052D0000DF10300FCF7EAFE9DF80340402CA8BF47
:1052E0004024304607F540614022FFF73FFB70E065
:1052F0000DF10300FCF7EAFE9DF80340402CA8BF27
:105300004024304607F544614022FFF72FFB60E060
:105310000DF10300FCF7EAFE9DF80340402CA8BF06
:105320004024304607F548614022FFF71FFB50E05C
:105330000DF10300FCF7EAFE9DF80340402CA8BFE6
:105340004024304607F54C614022FFF70FFB40E058
:105350000DF10300FCF7EAFE9DF80340402CA8BFC6
:105360004024304607F550614022FFF7FFFA30E055
:105370000DF10300FCF7EAFE9DF80340402CA8BFA6
:105380004024304607F554614022FFF7EFFA20E051
:105390000DF10300FCF7EAFE9DF80340402CA8BF86
:1053A0004024304607F558614022FFF7DFFA10E04D
:1053B0000DF10300FCF7EAFE9DF80340402CA8BF66
:1053C0004024304607F55C614022FFF7CFFA00E049
:1053D00000E0204603B0F0BD2DE9F043ADF20C6DC6
:1053E00005468846174601A8FCF738FA9DF80430B0
:1053F0009DF805001A18002A00F0E98140F40030F9
:1054000040EA032303F5006902A849464FF4C0624D
:10541000FFF7ACFA00230DF5C16202EB8716A6F583
:10542000C866EC5CF4540133412BFAD148460121A3
:1054300000F03AFF013F172F00F2C981DFE817F0B3
:1054400018002A003C004E006000720084009600A4
:10545000A800BA00CC00DE00F00002011401260111
:1054600038014A015C016E0180019201A401B6017C
:1054700002A849464FF4C062FFF790FAB8F1400F16
:10548000A8BF4FF040088DF803800DF10300FCF732
:1054900015FD9CE102A849464FF4C062FFF77EFA71
:1054A000B8F1400FA8BF4FF040088DF803800DF110
:1054B0000300FCF713FD8AE102A849464FF4C062DD
:1054C000FFF76CFAB8F1400FA8BF4FF040088DF815
:1054D00003800DF10300FCF711FD78E102A84946B5
:1054E0004FF4C062FFF75AFAB8F1400FA8BF4FF06F
:1054F00040088DF803800DF10300FCF70FFD66E115
:1055000002A849464FF4C062FFF748FAB8F1400FCD
:10551000A8BF4FF040088DF803800DF10300FCF7A1
:105520000DFD54E102A849464FF4C062FFF736FA78
:10553000B8F1400FA8BF4FF040088DF803800DF17F
:105540000300FCF70BFD42E102A849464FF4C0629C
:10555000FFF724FAB8F1400FA8BF4FF040088DF8CC
:1055600003800DF10300FCF709FD30E102A8494674
:105570004FF4C062FFF712FAB8F1400FA8BF4FF026
:1055800040088DF803800DF10300FCF707FD1EE1D4
:1055900002A849464FF4C062FFF700FAB8F1400F85
:1055A000A8BF4FF040088DF803800DF10300FCF711
:1055B00005FD0CE102A849464FF4C062FFF7EEF981
:1055C000B8F1400FA8BF4FF040088DF803800DF1EF
:1055D0000300FCF703FDFAE002A849464FF4C0625D
:1055E000FFF7DCF9B8F1400FA8BF4FF040088DF885
:1055F00003800DF10300FCF701FDE8E002A8494635
:105600004FF4C062FFF7CAF9B8F1400FA8BF4FF0DE
:1056100040088DF803800DF10300FCF7FFFCD6E095
:1056200002A849464FF4C062FFF7B8F9B8F1400F3D
:10563000A8BF4FF040088DF803800DF10300FCF780
:10564000FDFCC4E002A849464FF4C062FFF7A6F98A
:10565000B8F1400FA8BF4FF040088DF803800DF15E
:105660000300FCF7FBFCB2E002A849464FF4C0621D
:10567000FFF794F9B8F1400FA8BF4FF040088DF83C
:1056800003800DF10300FCF7F9FCA0E002A84946F5
:105690004FF4C062FFF782F9B8F1400FA8BF4FF096
:1056A00040088DF803800DF10300FCF7F7FC8EE055
:1056B00002A849464FF4C062FFF770F9B8F1400FF5
:1056C000A8BF4FF040088DF803800DF10300FCF7F0
:1056D000F5FC7CE002A849464FF4C062FFF75EF992
:1056E000B8F1400FA8BF4FF040088DF803800DF1CE
:1056F0000300FCF7F3FC6AE002A849464FF4C062DD
:10570000FFF74CF9B8F1400FA8BF4FF040088DF8F3
:1057100003800DF10300FCF7F1FC58E002A84946B4
:105720004FF4C062FFF73AF9B8F1400FA8BF4FF04D
:1057300040088DF803800DF10300FCF7EFFC46E014
:1057400002A849464FF4C062FFF728F9B8F1400FAC
:10575000A8BF4FF040088DF803800DF10300FCF75F
:10576000EDFC34E002A849464FF4C062FFF716F999
:10577000B8F1400FA8BF4FF040088DF803800DF13D
:105780000300FCF7EBFC22E002A849464FF4C0629C
:10579000FFF704F9B8F1400FA8BF4FF040088DF8AB
:1057A00003800DF10300FCF7E9FC10E002A8494674
:1057B0004FF4C062FFF7F2F8B8F1400FA8BF4FF006
:1057C00040088DF803800DF10300FCF7E7FC0DF2B3
:1057D0000C6DBDE8F08300BF38B504464579827989
:1057E00007230020E0540133402BFBD10A2A10D1BB
:1057F000E01D0021FCF7DAFC04F11700FCF7F8FCCF
:1058000004F11D000021FCF703FD2848FEF7F6FE19
:1058100038BD274B1B7803B10C35073420460021D7
:105820002A46FDF7C5F82348FEF7E8FE204600218A
:105830002A46FEF777F92048FEF7E0FE2046294683
:10584000FDF7E8F91D48FEF7D9FE20462946FDF789
:1058500075FC1B48FEF7D2FE204600212A46FCF7C5
:10586000A5FE1848FEF7CAFE20462946FDF71CFB98
:105870001548FEF7C3FE20462946FDF7A9FD13484B
:10588000FEF7BCFE20462946FDF7ECFE1048FEF769
:10589000B5FE204600212A46FFF79EFD0D48FEF783
:1058A000ADFE0320FEF7D8FD38BD00BFE8E70000DD
:1058B0002C9AFF1F20E800003CE8000058E8000098
:1058C00084E80000A0E80000BCE80000E8E8000070
:1058D00004E9000020E900002DE9F04383B0804690
:1058E000427990F806C000F10709C179037A0B44A8
:1058F000407A034498F80A00C3420CD0444600257D
:1059000001352346267A0134587A06449F7A3E446C
:10591000DB7ADE42F4D1464B1B7803B10C320CF13A
:10592000FF3CBCF10B0F7FD8DFE80CF0060E161E13
:10593000293139444C546B7548462946FDF738F8EF
:105940003C48FEF75BFE6FE048462946FEF7EAF862
:105950003948FEF753FE67E048461146FDF75AF90D
:105960003648FEF74BFE5FE0303988F807104846AE
:105970001146FDF7E3FB3248FEF740FE54E048468F
:105980002946FCF713FE2F48FEF738FE4CE0484648
:105990001146FDF789FA2C48FEF730FE44E0303915
:1059A00088F8071048461146FDF712FD2748FEF714
:1059B00025FE39E048461146FDF754FE2448FEF71F
:1059C0001DFE31E048462946FFF706FD2148FEF757
:1059D00015FE29E043BB02A820F8023DFCF7F8FBC6
:1059E00048460621FCF714FC08F10D00FCF700FC0A
:1059F00008F113001021FCF7D9FB1748FEF7FEFD54
:105A000012E0303988F807104846FBF7EFFE1348DC
:105A1000FEF7F4FD08E0303988F807104846FBF738
:105A2000F5FE0F48FEF7EAFD03B0BDE8F08300BFC6
:105A30002C9AFF1F3CE9000054E9000070E90000C7
:105A40008CE90000A4E90000C0E90000DCE90000E6
:105A5000F4E9000010EA00002CEA000060EA00000F
:105A600080EA000010B582B0144B1B781BBB68465F
:105A7000FBF7F4FE9DF800309DF801209918D1B194
:105A800042F4003242EA03240D4804F580512022FA
:105A9000FEF76CFF2123013BFDD101A8FBF7CEFEF1
:105AA0009DF804209DF80530064804F5C05143EAEE
:105AB0000222FEF75BFF02B010BD00BF2C9AFF1F51
:105AC0006899FF1F709AFF1F70B59EB002A8FBF780
:105AD00009FA02A818492022FBF72EFA02A8174952
