:1000000000800020BD010000456B0000096B00006E
:10001000096B0000096B0000096B0000096B000010
:10002000096B0000096B0000096B0000456B0000C4
:10003000456B0000096B0000456B0000F96A000089
:10004000456B0000456B0000456B0000456B0000F0
:10005000456B0000456B0000456B0000456B0000E0
:10006000456B0000456B0000456B0000456B0000D0
:10007000456B0000456B0000456B0000456B0000C0
:10008000456B0000456B0000456B0000456B0000B0
:10009000456B0000456B0000456B0000456B0000A0
:1000A000456B0000456B0000456B0000456B000090
:1000B000456B0000456B0000456B0000456B000080
:1000C000456B0000456B0000456B0000456B000070
:1000D000456B0000456B0000456B0000456B000060
:1000E000456B0000456B0000456B0000456B000050
:1000F000456B0000B5950000456B0000E5890000E8
:10010000456B0000DD8F0000456B0000456B000073
:10011000456B0000456B0000456B0000456B00001F
:10012000456B0000456B0000456B0000456B00000F
:10013000456B0000456B0000456B0000456B0000FF
:10014000456B0000456B0000456B0000456B0000EF
:10015000456B0000456B0000456B0000456B0000DF
:10016000456B000009730000456B0000456B000003
:10017000456B0000456B0000456B0000456B0000BF
:10018000456B0000456B0000456B0000456B0000AF
:10019000456B0000456B0000456B0000456B00009F
:1001A000456B0000456B0000456B0000456B00008F
:1001B000456B0000456B0000456B0000574B4CF24F
:1001C000205210B51A804DF628121A8000BF00BFC9
:1001D00006F0BCFC524B4FF010621A60514A9A6014
:1001E000514ADA60A3F53043203B1A6812F480725A
:1001F00004D14E490A604FF4A8521A604C4B1A7849
:10020000110703D51A7842F008021A70494B4A4C7C
:100210004A482A221A704A4A00239918A14203D256
:10022000195899500433F8E7464B474900228B424E
:1002300002D243F8042BFAE74448454900235A58B0
:100240001A500433B3F5DE7FF9D1424B424A802184
:1002500003F8011B9342FBD1404B3C4A1A60404BD0
:100260000A221A70A3F5805324225A70A0221A7011
:100270009A799207FCD59A79D406FCD4394A9379B5
:1002800003F00C03082B374BF9D103221A714022DB
:100290005A719A799006FCD5324A9179314B4906C8
:1002A000FBD5314A314911600221516020221A7078
:1002B0009A7902F00C020C2AFAD12D4B2D4A1A60C1
:1002C0002D4B45F6BF521A6000225A60072243F8B0
:1002D000042C2A4AC3F80C2D62B607F047FF134BD3
:1002E0001B68DA0705D5264807F0BAFD254B264AD4
:1002F0001A60264B1B785B0609D5224C224A2368DC
:10030000934204D11E4807F0ABFD002323600AF09E
:100310005DF806F021FC08F0CFF8FEE70E2005405E
:1003200030800440823F04000100002B14D00340C1
:1003300002D0074000E007405496FF1F1CF4000065
:10034000708CFF1F5496FF1F0CAAFF1F0082FF1F17
:100350000000000000E400E05FE400E008ED00E0E1
:100360000050064000400640448004400000033333
:1003700004800440C010050014E000E000002020CC
:10038000FE3AB2571CE00340A5C3945A00F0074060
:10039000FFFFFFFFFFFFFFFFFFFFFFFFFFFFFFFF6D
:1003A000FFFFFFFFFFFFFFFFFFFFFFFFFFFFFFFF5D
:1003B000FFFFFFFFFFFFFFFFFFFFFFFFFFFFFFFF4D
:1003C000FFFFFFFFFFFFFFFFFFFFFFFFFFFFFFFF3D
:1003D000FFFFFFFFFFFFFFFFFFFFFFFFFFFFFFFF2D
:1003E000FFFFFFFFFFFFFFFFFFFFFFFFFFFFFFFF1D
:1003F000FFFFFFFFFFFFFFFFFFFFFFFFFFFFFFFF0D
:10040000FFFFFFFFFFFFFFFFFFFFFFFFFEFFFFFFFD
:1004100010B5054C237833B9044B13B10448AFF33E
:1004200000800123237010BD5496FF1F00000000C0
:1004300014F4000008B5064B1BB106480649AFF39B
:1004400000800648036813B1054B03B1984708BD07
:100450000000000014F400005896FF1F5496FF1F80
:1004600000000000F8B53F4B1B68197880290CD1BB
:1004700044F22B0006F070FC44F22B0006F0BEFCA8
:10048000384B1A6801321A60F8BD81290CD144F248
:10049000280006F061FC44F2280006F0AFFC314B66
:1004A0001A6801321A60F8BD822931D12E4B1B78AF
:1004B000002B3CD12D4A14682D4B1B681268E41A9E
:1004C00004F5FA54D31AA34210D22A4F2A4E274DCC
:1004D0003878002107F01AFD0123336005F07EFC17
:1004E0002A68234B1B68D31AA342F1D3214B1878F7
:1004F000FF2107F00BFD00221F4B1A601F4C204606
:100500001F4900F0CDFD20461E4900F0DBFDF8BD7F
:1005100082290BD983394FF47A7000FB01F007F080
:100520000FFE104B1A6801321A60F8BD41B116482F
:1005300003681B6898470B4B1A6801321A60F8BDB4
:1005400044F2280006F008FC44F2280006F056FCAD
:100550000A4C20460A4900F0A3FD2046094900F054
:10056000B1FDF8BD9496FF1F2C9AFF1F00A8FF1F36
:100570003497FF1FB09DFF1FB098FF1F3897FF1FD4
:100580009C96FF1F7C96FF1F18A8FF1F10B5012126
:10059000484B19700620484B1870484B19701622AA
:1005A000474B1A701722474B1A701122464B1A708C
:1005B0000F22464B1A701022454B1A700E22454BE3
:1005C0001A701522444B1A7007F07EFC4348202114
:1005D00004F096FA424B1B78DE2B0FD104F06CF935
:1005E000442005F0B9FE3D48202104F089FA01229B
:1005F0003C4B1A7000223C4B1A7023E0442B1BD159
:10060000002819DD3948202104F01EFA384804F08A
:1006100075FB384804F05CFC374C204601F0E8F8E4
:100620002378012B01D81E22227000222D4B1A7034
:1006300001222D4B1A7005E001222A4B1A7000226C
:10064000294B1A702D4C20462D4940F2FD7206F0C0
:1006500007F806F089F920462A492422002305F0EC
:10066000A9FF204621492022002305F0A3FF194BB2
:10067000187807F037FB014620460422082305F0CE
:1006800099FF154B187807F02DFB014620460422F0
:10069000082305F08FFF03F02FFF03F009FF03F09D
:1006A00019FF03F005FF03F015FF1748174900F085
:1006B00009FD10BD2C9AFF1FB09DFF1F30A2FF1F28
:1006C00031A2FF1F32A2FF1FED9DFF1F34A6FF1FA7
:1006D00035A6FF1FAC98FF1FEC9DFF1F7C97FF1FE7
:1006E000020002409099FF1F5499FF1F3C97FF1F83
:1006F0009C97FF1F5C97FF1F888CFF1F38A6FF1F6A
:10070000B0E50000ECA6FF1F3897FF1F7C96FF1F87
:10071000F0B59BB0044600257B4B1D700AA8294606
:1007200040220AF0B3F97948294684220AF0AEF94A
:100730000AA8214603F04CF8051E07DD724E0AA8F0
:1007400072492A46337803F07FFF35700AA80021EA
:1007500040220AF09BF90AA8214602F0C7F99DF849
:10076000283093B1312B07D1674B1A788020674925
:10077000885401321A7008E0322B06D1624B1A7885
:1007800081206249885401321A700AA8002140224F
:100790000AF07CF90AA8214602F03CFC9DF82830BA
:1007A00043B11F46584A11787D3B584843540131A4
:1007B000117000E000270AA8214601F04DFD061E39
:1007C00009DD514D0AA8514932462B7803F03CFF10
:1007D0002B781E442E700AA8002140220AF056F9F8
:1007E0000AA8214602F0CCFA9DF8283093B1312BAB
:1007F00007D1454B1A7880204449885401321A7039
:1008000008E0322B06D1404B1A7881203F498854AA
:1008100001321A700AA8002140220AF037F90AA80A
:10082000214602F041FD9DF8283043B11D46364A6D
:1008300010787D3B35490B540130107000E00025E5
:100840000AA8002140220AF021F90AA8214602F054
:1008500075FE9DF82830002B53D0672B43D10AA892
:10086000214604F037FC04460AA828492246264BB4
:100870001B7803F0E9FE68460AA9224600F0DAFE7A
:1008800000F04AFFC1196846294400F0D7FE04462B
:1008900000F08AFF88B91C4B1B781C4A4E21D154AA
:1008A00013444F225A7054229A705321D970452113
:1008B00019715A7100229A7111E0134B1B7821783B
:1008C000124AD154617813445970A2789A70E27830
:1008D000DA7022791A7162795A7100229A710A4B80
:1008E0001A7806321A709DF82830752B09D1084BFA
:1008F0001B7833B9044B1A7882200449885401329A
:100900001A701BB0F0BD00BF9896FF1FB096FF1F76
:100910002C9AFF1F08B50E4B1B781BB90D4803F02E
:100920009FFE08BD0C4B1878002107F0EFFA0B4B27
:100930001A680B4B1A600B4B1B781BB10A4B1868DB
:10094000243802E0084B18683038FFF7E1FE08BD94
:100950005499FF1FBCE50000B09DFF1F00A8FF1FBA
:100960008C96FF1F2C9AFF1F7496FF1F08B50F4B24
:100970001B781BB90E4803F073FE08BD0D4B1878A9
:10098000002107F0C3FA0C4B1A680C4B1A600C4B91
:100990001B781BB10B4B1868243802E0094B186810
:1009A00030380630FFF7B4FE08BD00BF5499FF1F72
:1009B000BCE50000B09DFF1F00A8FF1F8C96FF1F25
:1009C0002C9AFF1F7496FF1F30B583B004464E4B20
:1009D0001B782BB94D4B1878FF2107F097FA04E0EC
:1009E0004A4B1878002107F091FA494B1B68022BFB
:1009F00008DD484D0524284603F032FE204603F06A
:100A000039FDF8E7444B1B789BB101A800F010FFBB
:100A10009DF804300133DBB28DF804300A2B02D983
:100A200003F080FF6EE001A800F00AFF00223A4BBD
:100A30001A703A483A4B197800F0A0FB324B1B78F9
:100A400043B9364800F0C8FB20B9344800F028FC10
:100A5000002832D02C4B1B78BBB9002000F0F0FEF0
:100A60002E4800F099FB2F4803F0FAFD2E4B1B781F
:100A70001BB905F0D5FB05F059F82C4B1A682C4B27
:100A80001A600122204B1A703CE02A4B1B68002B95
:100A900038D10022284B1A700A2C30DCFFF73AFFBD
:100AA000254A264B1A60264C2046264900F0F8FAC3
:100AB0002046254900F006FB24E0184800F0D2FB50
:100AC00010B103F02FFF1DE0204B1B68092B03DC46
:100AD00001331E4A136015E001240F4B1C700C4BB0
:100AE0001A6822441A60032003F0C4FC01A800F035
:100AF0009FFE0A4800F050FB144B1C6002E0FFF719
:100B000035FFCDE703B030BD9099FF1FB09DFF1FAB
:100B1000AC96FF1FECE500008C8CFF1FB49DFF1FFF
:100B20007496FF1F4CE600002C9AFF1F00A8FF1FC1
:100B30008C96FF1FF09DFF1FB096FF1F9496FF1F1E
:100B40003897FF1F7C96FF1F9C96FF1F848CFF1F0A
:100B500010B56D4B1B78BBB105F040F96B4B1B78A2
:100B6000FBB16B4B19686B4B1B784EF6602202FB96
:100B700003F2694B1B68CB1A9A4212D80023624ACF
:100B80001370664A13600CE0614B1A68644B1B6873
:100B9000D31AB3F57A7F04D35C4B1B78002B40F05B
:100BA000A98003F0A9FC5F4B1A6840F2DC539A421B
:100BB0000CD900235C4A13605C4A13605C4B1A68D2
:100BC00001321A6035225B4B1A607FE05A4B1A687B
:100BD00040F2DC539A420CD90023534A1360534A23
:100BE0001360534B1A6801321A603222514B1A605B
:100BF0006CE0524B1A6840F2DC539A420CD9002345
:100C0000494A1360494A1360494B1A6801321A6015
:100C10003122484B1A6059E0494B1A6840F2DC53C4
:100C20009A420CD90023404A1360404A1360404B5B
:100C30001A6801321A6033223E4B1A6046E0414B7B
:100C40001A6840F2DC539A420CD90023364A1360EA
:100C5000364A1360364B1A6801321A603422354B1B
:100C60001A6033E0384B1A6840F2DC539A420CD9D0
:100C700000232D4A13602D4A13602D4B1A68013250
:100C80001A6036222B4B1A6020E0294B1C68204644
:100C900009F0C2FA4FF07C5109F07EFB08B1234BFA
:100CA0001C600022224B1A601F4B1A6801321A6026
:100CB000154B1B782BB9254B1878002107F026F926
:100CC00004E0224B1878FF2107F020F9174B1C682D
:100CD000002C18DD144B186809F09EFA4FF07C5177
:100CE00009F05AFB78B12046FFF76EFE00220F4B49
:100CF0001A6010BD164803F0B3FC094B1A6802F5E0
:100D00007A721A604DE710BD9099FF1F5499FF1F2A
:100D100000A8FF1F888CFF1F8C96FF1F848CFF1F6D
:100D20003497FF1F5099FF1F7096FF1F9096FF1F6B
:100D30007896FF1F7496FF1F8C99FF1F5899FF1F0D
:100D40005C99FF1F6099FF1F6499FF1FB09DFF1FF3
:100D500058E6000008B506F08DF909486421094AF3
:100D600000F0F6F908483221084A00F0F1F9084B82
:100D70001968084A11601A68074B1A6008BD00BF5D
:100D80007C96FF1F510B00009C96FF1F650400001E
:100D900000A8FF1F3497FF1F8C96FF1F2DE9F00F4F
:100DA000CAB001900A460023D078CC5C40EA0460C7
:100DB000547840EA0440947840EA042003F128057E
:100DC0006C46285104330432402BEDD10AAB00228B
:100DD000986B59685D6A02F128076E46BC592C442D
:100DE0004FEA704585EAF04585EA902020444FEAB5
:100DF000F11484EAB14484EAD10101441964043253
:100E00000433C02AE4D10199096D0291019A526D0F
:100E10000392019B9B6D0493019CE46D0594019DDD
:100E20002D6E0695019E766E0796019FBF6E089700
:100E30000199C96E099189463D46B446069BA04674
:100E400004981446029A0021DFF8A8A001F1280BAB
:100E50006F465BF8076051F80A7037444FEAB316E3
:100E600086EAF32686EA7366374425EA03060CEA27
:100E7000030B86EA0B063E444E4480EA0407174003
:100E800000EA040987EA09074FEAB20989EA7239D8
:100E900089EAB2594F44B0443E440431B1F5807FF1
:100EA00008D0A94665469C464346804620461446DF
:100EB0003246CBE702990E44019F3E6503990A44EE
:100EC0007A65049A1444BC65059C2044F865069A2A
:100ED00042443A66079E33447B66089B6344BB6684
:100EE000099F3D44DDF804B0CBF86C504AB0BDE832
:100EF000F00F704764E60000002303640022002323
:100F0000C0E912230A4B03650A4B43650A4B83650C
:100F10000A4BC3650A4B03660A4B43660A4B83665A
:100F200003F17453A3F52303A3F69243C3667047FA
:100F300067E6096A85AE67BB72F36E3C3AF54FA56A
:100F40007F520E518C68059BABD9831F2DE9F84366
:100F500006469046DAB10F4688444FF00009336CDC
:100F600017F8012BF25401333364402B0DD1304676
:100F70003146FFF713FFD6E9124514F5007445F129
:100F80000005C6E91245C6F840904745E7D1BDE8DF
:100F9000F88300BF2DE9F84F80468946026C372A56
:100FA0000CD8531C80218154372B1CD802440021BB
:100FB000013302F8011F382BFAD114E0531C8021B1
:100FC00081543F2B06D802440021013302F8011F4F
:100FD000402BFAD140464146FFF7E0FE4046002153
:100FE000382209F053FDD8F84030D900D8E912234F
:100FF000521843F10003C8E9122388F83F20100A71
:1010000040EA0360190A88F83E00160C46EA0346D7
:101010001F0C88F83D60140E44EA03241D0E88F866
:101020003C4088F83B3088F83A1088F8397088F8E6
:10103000385040464146FFF7B1FE0322D300D8F8AE
:101040005010D94089F80010D8F85410D94089F8C8
:101050000410D8F85810D94089F80810D8F85C1056
:10106000D94089F80C10D8F86010D94089F81010D0
:10107000D8F86410D94089F81410D8F86810D9400D
:1010800089F81810D8F86C1021FA03F389F81C308D
:10109000013A09F10109B2F1FF3FCFD1BDE8F88F64
:1010A000026872B18A4209D1D368036070479942DD
:1010B00001D01A4602E0CB68D3607047D368002B9A
:1010C000F5D1704738B505460C46FFF7E9FF2A68A9
:1010D0000AB92C6004E0D3680BB11A46FBE7D46070
:1010E00007F00CF82368C01A60600023E36038BD85
:1010F00038B50C4607F002F80546626823681344C9
:10110000984205D36268934208D26268904205D340
:101110006268954206D26268934203D3A368204670
:101120009847656038BD00BF38B50546046834B1DE
:1011300028462146FFF7DCFFE468002CF8D138BDD3
:1011400008B50248FFF7F0FF08BD00BF3897FF1F42
:1011500010B44FF47A7404FB01F101608260002244
:101160004260C2605DF8044B704700BF016100221D
:1011700002730270704700BF01617047037B0B2B45
:1011800007D05A1CD2B20273C154002383540120E9
:1011900070470020704700BF00230373037070473F
:1011A00010B401690A78047800237AB9D4F10100F7
:1011B00038BF00200DE011F8012F10F8014F013366
:1011C0000B2BF2D1002004E0002002E0A242F2D07A
:1011D000FAE75DF8044B70472DE9F0419CB00646F4
:1011E0000024DFF874800546335D04F808300134CC
:1011F000284609F0B7FE8442F6D96846FFF77CFE20
:10120000284609F0AFFE0246134D68462946FFF70F
:101210009DFE684611492022FFF798FE6846294640
:10122000FFF7B8FE0E4C22782878234629461E3454
:1012300004E0824214BF0020012009E0824206D16E
:1012400013F8012F11F8010FA342F7D1F1E70020A5
:101250001CB0BDE8F08100BFBC97FF1F3C97FF1F8B
:101260007C97FF1F10B40C4C22780C480178234661
:101270001E3404E08A4214BF0020012009E08A42A3
:1012800006D113F8012F10F8011FA342F7D1F1E79F
:1012900000205DF8044B70479C97FF1FBC97FF1F11
:1012A00010B40E4C22780E48017823461E3407E015
:1012B0008A4218BF00200DD101200A4B187009E0A6
:1012C0008A4206D113F8012F10F8011FA342F7D16B
:1012D000EEE700205DF8044B704700BF5C97FF1FEE
:1012E000BC97FF1F2C9AFF1F08B505F0C3FE08BD71
:1012F00070B40546064C0FCCE86429656A65AB6599
:101300002068E86500232B6685F8483070BC70477C
:10131000908CFF1F2DE9F00F86B0C36C0193076D11
:101320000297436D0393876D0497C36D05931E4623
:101330003C460399DDF808C0019D0E220023DFF82A
:1013400008A1DFF808912CE00F2B24D903F00F0639
:1013500000EB860602F00F0808F1020850F828801A
:10136000B76887EA0808A2F1050B0BF00F0B0BF129
:10137000020B50F82BB088EA0B08A2F10B0B0BF014
:101380000F0B0BF1020B50F82BB088EA0B084FEA59
:10139000F878C6F80880013226460C466146AC460D
:1013A000009D132B0CD884EA010808EA0C0888EA8F
:1013B000040808F1B54808F51E3808F299181FE02E
:1013C000272B05D884EA010888EA0C08C84417E0EE
:1013D0003B2B09D84CEA010808EA04080CEA01078B
:1013E00048EA0708D0440BE084EA010888EA0C08C0
:1013F00008F14A4808F5C50808F5834808F1560879
:1014000003F00F07023750F8277007EBF5674744E2
:10141000BE1900964FEABC0C0133DBB2502B93D1BE
:10142000019B3344C364029B1D440565039B6344D5
:101430004365049F39448165059B1C44C46506B01F
:10144000BDE8F00F704700BFDCBC1B8FA1EBD96E6D
:1014500010B5044690F8483083F00302024411723C
:101460000133DBB280F84830402B04D1FFF752FF44
:10147000002384F8483010BD08B5026E01320266C0
:10148000FFF7E6FF012008BD38B504468021FFF7CD
:10149000DFFF94F84830382B08D000252046294635
:1014A000FFF7D6FF94F84830382BF7D120460021BB
:1014B000FFF7CEFF20460021FFF7CAFF204600219C
:1014C000FFF7C6FF216E2046490FFFF7C1FF216ECF
:1014D0002046C1F34751FFF7BBFF216E2046C1F301
:1014E0004731FFF7B5FF216E2046C1F34711FFF7E3
:1014F000AFFF236ED900204601F0F801FFF7A8FFE7
:1015000038BD00BF38B50546FFF7BEFF2A460021AB
:10151000D36C1C0E44EA0364180200F47F000443F9
:101520001B0A03F47F432343D364013104320529AA
:10153000EED105F14C0038BDF8B505460C4616460F
:1015400000F1640738460021402209F09FFA402E3E
:101550001ADD2846FFF7CCFE46B126442B681B68EF
:10156000284614F8011B9847B442F7D12846FFF7E4
:10157000C9FF036844688168C2686B667C60B960B3
:10158000FA6003693B6104E038462146324605F0C3
:1015900019FA2846FFF7ACFE05F1630405F1A3062E
:1015A0002B6814F8011F1B68284681F03601984704
:1015B000B442F5D1F8BD00BF70B50546FFF7A2FFF4
:1015C000026846688468C168C5F8A420C5F8A860A8
:1015D000C5F8AC40C5F8B0100269C5F8B42028467B
:1015E000FFF786FE05F1630405F1A3062B6814F8E6
:1015F000011F1B68284681F05C019847B442F5D171
:1016000005F114062C462B681B68284694F8A41094
:1016100098470134B442F6D12846FFF773FF70BDF6
:10162000024B00221A71024A1A607047DC97FF1FB2
:1016300070E7000001604260704700BF70B504466B
:10164000224B83FB01230B44C917C1EB231181609B
:101650000025057345738573C5730B0E03740B1456
:1016600043740B128374C174194E3046216862684A
:10167000FFF762FF33685B68304604F10C01082213
:1016800098473046FFF798FF6061C27C02F00F0276
:10169000A261E5612B461044E2691202E261C15C7D
:1016A0000A43E2610133042BF6D122F00043094AD8
:1016B00082FB03129214084901FB1232E2612034CA
:1016C0002046064909F028FC204670BD8988888894
:1016D000DC97FF1F83DE1B4340420F0078E70000CA
:1016E000074B1860074B1B681844074B1860022211
:1016F000064B1A70064B1A68064B1A60704700BFFB
:101700009498FF1FA48CFF1FA498FF1F9898FF1F99
:1017100000A8FF1FA098FF1F10B51C4B1A681C4B98
:101720001B68D21AB2F57A7F11D31A4A12680132B5
:10173000164C03F57A732168501CC91AB1F57A7FEB
:1017400001D30246F5E713490A60114A1360124BB0
:101750001A68104B1B689A4214D8104B1B688BB147
:10176000984710B1FFF7BCFF0CE00D4B1A68094B0E
:101770001B681A44084B1A600A4B1A78003218BFCB
:1017800001221A70034B186810BD00BF00A8FF1F8C
:10179000A098FF1F9498FF1FA498FF1F9C98FF1FFD
:1017A000A48CFF1F9898FF1F08B5FFF7B5FF014BEA
:1017B000187808BD9898FF1F70B516464AB10E44B8
:1017C0000C46451A204605F08FFC28550134B442DA
:1017D000F8D170BD70B5154642B10C46461A204688
:1017E000315D05F095FC0134013DF8D170BD00BFBD
:1017F00008B540F2D9710122FFF7DEFF012008BDD4
:1018000008B540F2D9710122FFF7E4FF08BD00BF1F
:1018100008B540F2DA710122FFF7CEFF012008BDC2
:1018200008B540F2DA710122FFF7D4FF08BD00BF0E
:1018300008B540F2DB710122FFF7BEFF012008BDB1
:1018400008B540F2DB710122FFF7C4FF08BD00BFFD
:1018500008B540F2D5710222FFF7AEFF022008BDA5
:1018600008B540F2D5710222FFF7B4FF08BD00BFF2
:1018700008B540F2D7710222FFF79EFF022008BD93
:1018800008B540F2D7710222FFF7A4FF08BD00BFE0
:1018900008B54FF4FA610122FFF79CFF08BD00BFB5
:1018A00008B540F2D1710122FFF794FF08BD00BFD7
:1018B00008B540F2D2710122FFF78CFF08BD00BFCE
:1018C00008B540F2D3710122FFF784FF08BD00BFC5
:1018D00008B54FF4EB610122FFF76EFF012008BD50
:1018E00008B54FF4EB610122FFF774FF08BD00BF9C
:1018F00008B540F259710122FFF75EFF012008BDD3
:1019000008B540F259710122FFF764FF08BD00BF1E
:1019100008B540F25A710122FFF74EFF012008BDC1
:1019200008B540F25A710122FFF754FF08BD00BF0D
:1019300008B540F25B710122FFF73EFF012008BDB0
:1019400008B540F25B710122FFF744FF08BD00BFFC
:1019500008B540F25C710122FFF72EFF012008BD9F
:1019600008B540F25C710122FFF734FF08BD00BFEB
:1019700008B540F25D710122FFF71EFF012008BD8E
:1019800008B540F25D710122FFF724FF08BD00BFDA
:1019900008B540F25E710122FFF70EFF012008BD7D
:1019A00008B540F25E710122FFF714FF08BD00BFC9
:1019B00008B540F25F710122FFF7FEFE012008BD6D
:1019C00008B540F25F710122FFF704FF08BD00BFB8
:1019D00008B54FF4EC610122FFF7EEFE012008BDCF
:1019E00008B54FF4EC610122FFF7F4FE08BD00BF1B
:1019F00008B540F261710122FFF7DEFE012008BD4B
:101A000008B540F261710122FFF7E4FE08BD00BF96
:101A100008B540F262710122FFF7CEFE012008BD39
:101A200008B540F262710122FFF7D4FE08BD00BF85
:101A300008B540F263710122FFF7BEFE012008BD28
:101A400008B540F263710122FFF7C4FE08BD00BF74
:101A500008B540F264710122FFF7AEFE012008BD17
:101A600008B540F264710122FFF7B4FE08BD00BF63
:101A700008B540F265710122FFF79EFE012008BD06
:101A800008B540F265710122FFF7A4FE08BD00BF52
:101A900008B540F266710122FFF78EFE012008BDF5
:101AA00008B540F266710122FFF794FE08BD00BF41
:101AB00008B540F267710122FFF77EFE012008BDE4
:101AC00008B540F267710122FFF784FE08BD00BF30
:101AD00008B54FF4ED610122FFF76EFE012008BD4D
:101AE00008B54FF4ED610122FFF774FE08BD00BF99
:101AF00008B540F269710122FFF75EFE012008BDC2
:101B000008B540F269710122FFF764FE08BD00BF0D
:101B100008B540F26A710122FFF74EFE012008BDB0
:101B200008B540F26A710122FFF754FE08BD00BFFC
:101B300008B540F26B710122FFF73EFE012008BD9F
:101B400008B540F26B710122FFF744FE08BD00BFEB
:101B500008B540F26C710122FFF72EFE012008BD8E
:101B600008B540F26C710122FFF734FE08BD00BFDA
:101B700008B540F26D710122FFF71EFE012008BD7D
:101B800008B540F26D710122FFF724FE08BD00BFC9
:101B900008B540F26E710122FFF70EFE012008BD6C
:101BA00008B540F26E710122FFF714FE08BD00BFB8
:101BB00008B540F26F710122FFF7FEFD012008BD5C
:101BC00008B540F26F710122FFF704FE08BD00BFA7
:101BD00008B54FF482610122FFF7EEFD012008BD38
:101BE00008B54FF482610122FFF7F4FD08BD00BF84
:101BF00008B540F211410122FFF7DEFD012008BDCA
:101C000008B540F211410122FFF7E4FD08BD00BF15
:101C100008B540F212410122FFF7CEFD012008BDB8
:101C200008B540F212410122FFF7D4FD08BD00BF04
:101C300008B540F213410122FFF7BEFD012008BDA7
:101C400008B540F213410122FFF7C4FD08BD00BFF3
:101C500008B540F214410122FFF7AEFD012008BD96
:101C600008B540F214410122FFF7B4FD08BD00BFE2
:101C700008B540F215410122FFF79EFD012008BD85
:101C800008B540F215410122FFF7A4FD08BD00BFD1
:101C900008B540F216410122FFF78EFD012008BD74
:101CA00008B540F216410122FFF794FD08BD00BFC0
:101CB00008B540F217410122FFF77EFD012008BD63
:101CC00008B540F217410122FFF784FD08BD00BFAF
:101CD00008B54FF483610122FFF76EFD012008BDB6
:101CE00008B54FF483610122FFF774FD08BD00BF02
:101CF00008B540F219410122FFF75EFD012008BD41
:101D000008B540F219410122FFF764FD08BD00BF8C
:101D100008B540F21A410122FFF74EFD012008BD2F
:101D200008B540F21A410122FFF754FD08BD00BF7B
:101D300008B540F21B410122FFF73EFD012008BD1E
:101D400008B540F21B410122FFF744FD08BD00BF6A
:101D500008B540F21C410122FFF72EFD012008BD0D
:101D600008B540F21C410122FFF734FD08BD00BF59
:101D700008B540F21D410122FFF71EFD012008BDFC
:101D800008B540F21D410122FFF724FD08BD00BF48
:101D900008B540F21E410122FFF70EFD012008BDEB
:101DA00008B540F21E410122FFF714FD08BD00BF37
:101DB00008B540F21F410122FFF7FEFC012008BDDB
:101DC00008B540F21F410122FFF704FD08BD00BF26
:101DD00008B54FF484610122FFF7EEFC012008BD35
:101DE00008B54FF484610122FFF7F4FC08BD00BF81
:101DF00008B540F221410122FFF7DEFC012008BDB9
:101E000008B540F221410122FFF7E4FC08BD00BF04
:101E100008B540F222410122FFF7CEFC012008BDA7
:101E200008B540F222410122FFF7D4FC08BD00BFF3
:101E300008B540F223410122FFF7BEFC012008BD96
:101E400008B540F223410122FFF7C4FC08BD00BFE2
:101E500008B540F224410122FFF7AEFC012008BD85
:101E600008B540F224410122FFF7B4FC08BD00BFD1
:101E700008B540F225410122FFF79EFC012008BD74
:101E800008B540F225410122FFF7A4FC08BD00BFC0
:101E900008B540F226410122FFF78EFC012008BD63
:101EA00008B540F226410122FFF794FC08BD00BFAF
:101EB00008B540F227410122FFF77EFC012008BD52
:101EC00008B540F227410122FFF784FC08BD00BF9E
:101ED00008B54FF4F7610122FFF76EFC012008BD41
:101EE00008B54FF4F7610122FFF774FC08BD00BF8D
:101EF00008B540F2B9710122FFF75EFC012008BD70
:101F000008B540F2B9710122FFF764FC08BD00BFBB
:101F100008B540F2BA710122FFF74EFC012008BD5E
:101F200008B540F2BA710122FFF754FC08BD00BFAA
:101F300008B540F2BB710122FFF73EFC012008BD4D
:101F400008B540F2BB710122FFF744FC08BD00BF99
:101F500008B540F2BC710122FFF72EFC012008BD3C
:101F600008B540F2BC710122FFF734FC08BD00BF88
:101F700008B540F2BD710122FFF71EFC012008BD2B
:101F800008B540F2BD710122FFF724FC08BD00BF77
:101F900008B540F2BE710122FFF70EFC012008BD1A
:101FA00008B540F2BE710122FFF714FC08BD00BF66
:101FB00008B540F2BF710122FFF7FEFB012008BD0A
:101FC00008B540F2BF710122FFF704FC08BD00BF55
:101FD00008B54FF4F8610122FFF7EEFB012008BDC0
:101FE00008B54FF4F8610122FFF7F4FB08BD00BF0C
:101FF00008B540F2C1710122FFF7DEFB012008BDE8
:1020000008B540F2C1710122FFF7E4FB08BD00BF33
:1020100008B540F2C2710122FFF7CEFB012008BDD6
:1020200008B540F2C2710122FFF7D4FB08BD00BF22
:1020300008B540F2C3710122FFF7BEFB012008BDC5
:1020400008B540F2C3710122FFF7C4FB08BD00BF11
:1020500008B540F2C4710122FFF7AEFB012008BDB4
:1020600008B540F2C4710122FFF7B4FB08BD00BF00
:1020700008B540F2C5710122FFF79EFB012008BDA3
:1020800008B540F2C5710122FFF7A4FB08BD00BFEF
:1020900008B540F2C6710122FFF78EFB012008BD92
:1020A00008B540F2C6710122FFF794FB08BD00BFDE
:1020B00008B540F2C7710122FFF77EFB012008BD81
:1020C00008B540F2C7710122FFF784FB08BD00BFCD
:1020D00008B54FF4F9610122FFF76EFB012008BD3E
:1020E00008B54FF4F9610122FFF774FB08BD00BF8A
:1020F00008B540F2C9710122FFF75EFB012008BD5F
:1021000008B540F2C9710122FFF764FB08BD00BFAA
:1021100008B540F2CA710122FFF74EFB012008BD4D
:1021200008B540F2CA710122FFF754FB08BD00BF99
:1021300008B540F2CB710122FFF73EFB012008BD3C
:1021400008B540F2CB710122FFF744FB08BD00BF88
:1021500008B540F2CC710122FFF72EFB012008BD2B
:1021600008B540F2CC710122FFF734FB08BD00BF77
:1021700008B540F2CD710122FFF71EFB012008BD1A
:1021800008B540F2CD710122FFF724FB08BD00BF66
:1021900008B540F2CE710122FFF70EFB012008BD09
:1021A00008B540F2CE710122FFF714FB08BD00BF55
:1021B00008B540F2CF710122FFF7FEFA012008BDF9
:1021C00008B540F2CF710122FFF704FB08BD00BF44
:1021D00010B582B00C4602211022FFF7FBFA102C3A
:1021E000A8BF102402A800F8014DFFF751FB02B070
:1021F00010BD00BF00B583B01E210222FFF7EAFA2E
:1022000002A8022300F8013DFFF74AFB03B05DF886
:1022100004FB00BF00B583B018210622FFF7DAFAED
:1022200002A8062300F8013DFFF742FB03B05DF86A
:1022300004FB00BF10B582B00C4612210622FFF746
:10224000C9FA062CA8BF062402A800F8014DFFF722
:1022500037FB02B010BD00BF30B583B00446013972
:10226000172900F2B281DFE811F0180029003A00C6
:102270004B005C006D007E008F00A000B100C2002A
:10228000D300E400F50006011701280139014A01D5
:102290005B016C017D018E019F010DF10700FFF7CD
:1022A00017FB9DF80750202DA8BF202520464FF48E
:1022B0008B612022FFF780FA284686E10DF10700A6
:1022C000FFF716FB9DF80750202DA8BF20252046BC
:1022D0004FF48F612022FFF76FFA284675E10DF168
:1022E0000700FFF715FB9DF80750202DA8BF2025FC
:1022F00020464FF493612022FFF75EFA284664E1FE
:102300000DF10700FFF714FB9DF80750202DA8BF23
:10231000202520464FF497612022FFF74DFA2846EA
:1023200053E10DF10700FFF713FB9DF80750202D37
:10233000A8BF202520464FF49B612022FFF73CFADE
:10234000284642E10DF10700FFF712FB9DF8075008
:10235000202DA8BF202520464FF49F612022FFF7A3
:102360002BFA284631E10DF10700FFF711FB9DF82C
:102370000750202DA8BF202520464FF4A36120221E
:10238000FFF71AFA284620E10DF10700FFF710FBCE
:102390009DF80750202DA8BF202520464FF4A761A7
:1023A0002022FFF709FA28460FE10DF10700FFF799
:1023B0000FFB9DF80750202DA8BF202520464FF485
:1023C000AB612022FFF7F8F92846FEE00DF1070087
:1023D000FFF70EFB9DF80750202DA8BF20252046B3
:1023E0004FF4AF612022FFF7E7F92846EDE00DF149
:1023F0000700FFF70DFB9DF80750202DA8BF2025F3
:1024000020464FF4B3612022FFF7D6F92846DCE0DE
:102410000DF10700FFF70CFB9DF80750202DA8BF1A
:10242000202520464FF4B7612022FFF7C5F9284642
:10243000CBE00DF10700FFF70BFB9DF80750202DB7
:10244000A8BF202520464FF4BB612022FFF7B4F936
:102450002846BAE00DF10700FFF70AFB9DF8075088
:10246000202DA8BF202520464FF4BF612022FFF772
:10247000A3F92846A9E00DF10700FFF709FB9DF835
:102480000750202DA8BF202520464FF4C3612022ED
:10249000FFF792F9284698E00DF10700FFF708FBD7
:1024A0009DF80750202DA8BF202520464FF4C76176
:1024B0002022FFF781F9284687E00DF10700FFF79A
:1024C00007FB9DF80750202DA8BF202520464FF47C
:1024D000CB612022FFF770F9284676E00DF1070066
:1024E000FFF706FB9DF80750202DA8BF20252046AA
:1024F0004FF4CF612022FFF75FF9284665E00DF128
:102500000700FFF705FB9DF80750202DA8BF2025E9
:1025100020464FF4D3612022FFF74EF9284654E0BD
:102520000DF10700FFF704FB9DF80750202DA8BF11
:10253000202520464FF4D7612022FFF73DF9284699
:1025400043E00DF10700FFF703FB9DF80750202D36
:10255000A8BF202520464FF4DB612022FFF72CF98D
:10256000284632E00DF10700FFF702FB9DF8075007
:10257000202DA8BF202520464FF4DF612022FFF741
:102580001BF9284621E00DF10700FFF701FB9DF83C
:102590000750202DA8BF202520464FF4E3612022BC
:1025A000FFF70AF9284610E00DF10700FFF700FBDE
:1025B0009DF80750202DA8BF202520464FF4E76145
:1025C0002022FFF7F9F82846FFE703B030BD00BF2F
:1025D00010B582B00C46013A172A00F26981DFE893
:1025E00012F0180026003400420050005E006C001B
:1025F0007A0088009600A400B200C000CE00DC0083
:10260000EA00F80006011401220130013E014C01EC
:102610005A014FF48B612022FFF7DCF8202CA8BF71
:10262000202402A800F8014DFFF75AF940E14FF4C9
:102630008F612022FFF7CEF8202CA8BF202402A80B
:1026400000F8014DFFF75CF932E14FF4936120226D
:10265000FFF7C0F8202CA8BF202402A800F8014DE5
:10266000FFF75EF924E14FF497612022FFF7B2F8FB
:10267000202CA8BF202402A800F8014DFFF760F924
:1026800016E14FF49B612022FFF7A4F8202CA8BF8D
:10269000202402A800F8014DFFF762F908E14FF489
:1026A0009F612022FFF796F8202CA8BF202402A8C3
:1026B00000F8014DFFF764F9FAE04FF4A36120221E
:1026C000FFF788F8202CA8BF202402A800F8014DAD
:1026D000FFF766F9ECE04FF4A7612022FFF77AF8E4
:1026E000202CA8BF202402A800F8014DFFF768F9AC
:1026F000DEE04FF4AB612022FFF76CF8202CA8BF7E
:10270000202402A800F8014DFFF76AF9D0E04FF449
:10271000AF612022FFF75EF8202CA8BF202402A87A
:1027200000F8014DFFF76CF9C2E04FF4B3612022CD
:10273000FFF750F8202CA8BF202402A800F8014D74
:10274000FFF76EF9B4E04FF4B7612022FFF742F8CB
:10275000202CA8BF202402A800F8014DFFF770F933
:10276000A6E04FF4BB612022FFF734F8202CA8BF6D
:10277000202402A800F8014DFFF772F998E04FF409
:10278000BF612022FFF726F8202CA8BF202402A832
:1027900000F8014DFFF774F98AE04FF4C36120227D
:1027A000FFF718F8202CA8BF202402A800F8014D3C
:1027B000FFF776F97CE04FF4C7612022FFF70AF8B3
:1027C000202CA8BF202402A800F8014DFFF778F9BB
:1027D0006EE04FF4CB612022FEF7FCFF202CA8BF57
:1027E000202402A800F8014DFFF77AF960E04FF4C9
:1027F000CF612022FEF7EEFF202CA8BF202402A8E4
:1028000000F8014DFFF77CF952E04FF4D36120222C
:10281000FEF7E0FF202CA8BF202402A800F8014DFD
:10282000FFF77EF944E04FF4D7612022FEF7D2FF94
:10283000202CA8BF202402A800F8014DFFF780F942
:1028400036E04FF4DB612022FEF7C4FF202CA8BF46
:10285000202402A800F8014DFFF782F928E04FF488
:10286000DF612022FEF7B6FF202CA8BF202402A89B
:1028700000F8014DFFF784F91AE04FF4E3612022DC
:10288000FEF7A8FF202CA8BF202402A800F8014DC5
:10289000FFF786F90CE04FF4E7612022FEF79AFF7C
:1028A000202CA8BF202402A800F8014DFFF788F9CA
:1028B00002B010BD08B50139172900F28780DFE8A2
:1028C00001F00C11161B20252A2F34393E43484DA8
:1028D00052575C61666B70757A7F20210A22FEF781
:1028E0006BFF74E02A210A22FEF766FF6FE03421B5
:1028F0000A22FEF761FF6AE03E210A22FEF75CFF32
:1029000065E048210A22FEF757FF60E052210A22C3
:10291000FEF752FF5BE05C210A22FEF74DFF56E016
:1029200066210A22FEF748FF51E070210A22FEF7D5
:1029300043FF4CE07A210A22FEF73EFF47E0842164
:102940000A22FEF739FF42E08E210A22FEF734FF09
:102950003DE098210A22FEF72FFF38E0A2210A224B
:10296000FEF72AFF33E0AC210A22FEF725FF2EE016
:10297000B6210A22FEF720FF29E0C0210A22FEF735
:102980001BFF24E0CA210A22FEF716FF1FE0D42114
:102990000A22FEF711FF1AE0DE210A22FEF70CFFE1
:1029A00015E0E8210A22FEF707FF10E0F2210A22D3
:1029B000FEF702FF0BE0FC210A22FEF7FDFE06E017
:1029C0004FF483710A22FEF7F7FE00E008BD0A20EB
:1029D00008BD00BF08B5013A172A00F28680DFE87B
:1029E00002F00C11161B20252A2F34393E43484D86
:1029F00052575C61666B70757A7F20210A22FEF760
:102A0000E9FE08BD2A210A22FEF7E4FE08BD3421B2
:102A10000A22FEF7DFFE08BD3E210A22FEF7DAFE9B
:102A200008BD48210A22FEF7D5FE08BD52210A2220
:102A3000FEF7D0FE08BD5C210A22FEF7CBFE08BDE2
:102A400066210A22FEF7C6FE08BD70210A22FEF7A3
:102A5000C1FE08BD7A210A22FEF7BCFE08BD842112
:102A60000A22FEF7B7FE08BD8E210A22FEF7B2FE4B
:102A700008BD98210A22FEF7ADFE08BDA2210A2258
:102A8000FEF7A8FE08BDAC210A22FEF7A3FE08BD92
:102A9000B6210A22FEF79EFE08BDC0210A22FEF7DB
:102AA00099FE08BDCA210A22FEF794FE08BDD42172
:102AB0000A22FEF78FFE08BDDE210A22FEF78AFEFB
:102AC00008BDE8210A22FEF785FE08BDF2210A2290
:102AD000FEF780FE08BDFC210A22FEF77BFE08BD42
:102AE0004FF483710A22FEF775FE08BD08B501395F
:102AF000172900F29E80DFE801F00C12181E242A2C
:102B000030363C42484E545A60666C72787E848AF5
:102B100090964FF485610122FEF74EFE8AE040F266
:102B200029410122FEF748FE84E040F22A410122B9
:102B3000FEF742FE7EE040F22B410122FEF73CFE12
:102B400078E040F22C410122FEF736FE72E040F2BE
:102B50002D410122FEF730FE6CE040F22E410122B1
:102B6000FEF72AFE66E040F22F410122FEF724FE26
:102B700060E04FF486610122FEF71EFE5AE040F24B
:102B800031410122FEF718FE54E040F232410122A9
:102B9000FEF712FE4EE040F233410122FEF70CFE3A
:102BA00048E040F234410122FEF706FE42E040F2E6
:102BB00035410122FEF700FE3CE040F236410122A1
:102BC000FEF7FAFD36E040F237410122FEF7F4FD50
:102BD00030E04FF487610122FEF7EEFD2AE040F27B
:102BE00039410122FEF7E8FD24E040F23A4101229A
:102BF000FEF7E2FD1EE040F23B410122FEF7DCFD64
:102C000018E040F23C410122FEF7D6FD12E040F20E
:102C10003D410122FEF7D0FD0CE040F23E41012291
:102C2000FEF7CAFD06E040F23F410122FEF7C4FD77
:102C300000E008BD012008BD08B50139172900F2E0
:102C40009D80DFE801F00C12181E242A30363C4229
:102C5000484E545A60666C72787E848A90964FF41F
:102C600085610122FEF7B6FD08BD40F2294101222F
:102C7000FEF7B0FD08BD40F22A410122FEF7AAFD91
:102C800008BD40F22B410122FEF7A4FD08BD40F231
:102C90002C410122FEF79EFD08BD40F22D4101228C
:102CA000FEF798FD08BD40F22E410122FEF792FD8D
:102CB00008BD40F22F410122FEF78CFD08BD4FF404
:102CC00086610122FEF786FD08BD40F231410122F6
:102CD000FEF780FD08BD40F232410122FEF77AFD89
:102CE00008BD40F233410122FEF774FD08BD40F2F9
:102CF00034410122FEF76EFD08BD40F2354101224C
:102D0000FEF768FD08BD40F236410122FEF762FD84
:102D100008BD40F237410122FEF75CFD08BD4FF4CB
:102D200087610122FEF756FD08BD40F239410122BC
:102D3000FEF750FD08BD40F23A410122FEF74AFD80
:102D400008BD40F23B410122FEF744FD08BD40F2C0
:102D50003C410122FEF73EFD08BD40F23D4101220B
:102D6000FEF738FD08BD40F23E410122FEF732FD7C
:102D700008BD40F23F410122FEF72CFD08BD00BF17
:102D800008B50139172900F29E80DFE801F00C1226
:102D9000181E242A30363C42484E545A60666C72E3
:102DA000787E848A90964FF4EE610122FEF704FD4E
:102DB0008AE040F271710122FEF7FEFC84E040F2ED
:102DC00072710122FEF7F8FC7EE040F2737101227D
:102DD000FEF7F2FC78E040F274710122FEF7ECFCA1
:102DE00072E040F275710122FEF7E6FC6CE040F201
:102DF00076710122FEF7E0FC66E040F27771012275
:102E0000FEF7DAFC60E04FF4EF610122FEF7D4FC3C
:102E10005AE040F279710122FEF7CEFC54E040F214
:102E20007A710122FEF7C8FC4EE040F27B7101226C
:102E3000FEF7C2FC48E040F27C710122FEF7BCFCC8
:102E400042E040F27D710122FEF7B6FC3CE040F228
:102E50007E710122FEF7B0FC36E040F27F71012264
:102E6000FEF7AAFC30E04FF4F0610122FEF7A4FC6B
:102E70002AE040F281710122FEF79EFC24E040F23C
:102E800082710122FEF798FC1EE040F2837101225C
:102E9000FEF792FC18E040F284710122FEF78CFCF0
:102EA00012E040F285710122FEF786FC0CE040F250
:102EB00086710122FEF780FC06E040F28771012254
:102EC000FEF77AFC00E008BD012008BD08B5013915
:102ED000172900F29D80DFE801F00C12181E242A49
:102EE00030363C42484E545A60666C72787E848A12
:102EF00090964FF4EE610122FEF76CFC08BD40F2A3
:102F000071710122FEF766FC08BD40F27271012268
:102F1000FEF760FC08BD40F273710122FEF75AFC17
:102F200008BD40F274710122FEF754FC08BD40F266
:102F300075710122FEF74EFC08BD40F27671012248
:102F4000FEF748FC08BD40F277710122FEF742FC13
:102F500008BD4FF4EF610122FEF73CFC08BD40F2D2
:102F600079710122FEF736FC08BD40F27A71012228
:102F7000FEF730FC08BD40F27B710122FEF72AFC0F
:102F800008BD40F27C710122FEF724FC08BD40F22E
:102F90007D710122FEF71EFC08BD40F27E71012208
:102FA000FEF718FC08BD40F27F710122FEF712FC0B
:102FB00008BD4FF4F0610122FEF70CFC08BD40F2A1
:102FC00081710122FEF706FC08BD40F282710122E8
:102FD000FEF700FC08BD40F283710122FEF7FAFB08
:102FE00008BD40F284710122FEF7F4FB08BD40F2F7
:102FF00085710122FEF7EEFB08BD40F286710122C9
:10300000FEF7E8FB08BD40F287710122FEF7E2FB04
:1030100008BD00BF08B50139172900F29E80DFE81E
:1030200001F00C12181E242A30363C42484E545AE5
:1030300060666C72787E848A90964FF48861012273
:10304000FEF7BAFB8AE040F241410122FEF7B4FBF1
:1030500084E040F242410122FEF7AEFB7EE040F206
:1030600043410122FEF7A8FB78E040F244410122EF
:10307000FEF7A2FB72E040F245410122FEF79CFB05
:103080006CE040F246410122FEF796FB66E040F21A
:1030900047410122FEF790FB60E04FF48961012275
:1030A000FEF78AFB5AE040F249410122FEF784FB19
:1030B00054E040F24A410122FEF77EFB4EE040F22E
:1030C0004B410122FEF778FB48E040F24C410122DF
:1030D000FEF772FB42E040F24D410122FEF76CFB2D
:1030E0003CE040F24E410122FEF766FB36E040F242
:1030F0004F410122FEF760FB30E04FF48A6101226C
:10310000FEF75AFB2AE040F251410122FEF754FB40
:1031100024E040F252410122FEF74EFB1EE040F255
:1031200053410122FEF748FB18E040F254410122CE
:10313000FEF742FB12E040F255410122FEF73CFB54
:103140000CE040F256410122FEF736FB06E040F269
:1031500057410122FEF730FB00E008BD012008BD09
:1031600008B50139172900F29D80DFE801F00C1243
:10317000181E242A30363C42484E545A60666C72FF
:10318000787E848A90964FF488610122FEF722FBB4
:1031900008BD40F241410122FEF71CFB08BD40F290
:1031A00042410122FEF716FB08BD40F243410122D5
:1031B000FEF710FB08BD40F244410122FEF70AFB76
:1031C00008BD40F245410122FEF704FB08BD40F274
:1031D00046410122FEF7FEFA08BD40F247410122B6
:1031E000FEF7F8FA08BD4FF489610122FEF7F2FA02
:1031F00008BD40F249410122FEF7ECFA08BD40F259
:103200004A410122FEF7E6FA08BD40F24B41012295
:10321000FEF7E0FA08BD40F24C410122FEF7DAFA6F
:1032200008BD40F24D410122FEF7D4FA08BD40F23C
:103230004E410122FEF7CEFA08BD40F24F41012275
:10324000FEF7C8FA08BD4FF48A610122FEF7C2FA00
:1032500008BD40F251410122FEF7BCFA08BD40F220
:1032600052410122FEF7B6FA08BD40F25341012255
:10327000FEF7B0FA08BD40F254410122FEF7AAFA67
:1032800008BD40F255410122FEF7A4FA08BD40F204
:1032900056410122FEF79EFA08BD40F25741012235
:1032A000FEF798FA08BD00BF08B50139172900F2EA
:1032B0009E80DFE801F00C12181E242A30363C42B2
:1032C000484E545A60666C72787E848A90964FF4A9
:1032D000F1610122FEF770FA8AE040F28971012261
:1032E000FEF76AFA84E040F28A710122FEF764FA7E
:1032F0007EE040F28B710122FEF75EFA78E040F248
:103300008C710122FEF758FA72E040F28D710122B1
:10331000FEF752FA6CE040F28E710122FEF74CFA91
:1033200066E040F28F710122FEF746FA60E04FF44A
:10333000F2610122FEF740FA5AE040F29171012257
:10334000FEF73AFA54E040F292710122FEF734FAA5
:103350004EE040F293710122FEF72EFA48E040F26F
:1033600094710122FEF728FA42E040F295710122A1
:10337000FEF722FA3CE040F296710122FEF71CFAB9
:1033800036E040F297710122FEF716FA30E04FF472
:10339000F3610122FEF710FA2AE040F2997101224E
:1033A000FEF70AFA24E040F29A710122FEF704FACD
:1033B0001EE040F29B710122FEF7FEF918E040F298
:1033C0009C710122FEF7F8F912E040F29D71012292
:1033D000FEF7F2F90CE040F29E710122FEF7ECF9E3
:1033E00006E040F29F710122FEF7E6F900E008BD19
:1033F000012008BD08B50139172900F29D80DFE8DA
:1034000001F00C12181E242A30363C42484E545A01
:1034100060666C72787E848A90964FF4F161012226
:10342000FEF7D8F908BD40F289710122FEF7D2F902
:1034300008BD40F28A710122FEF7CCF908BD40F2C6
:103440008B710122FEF7C6F908BD40F28C71012292
:10345000FEF7C0F908BD40F28D710122FEF7BAF9FE
:1034600008BD40F28E710122FEF7B4F908BD40F2AA
:103470008F710122FEF7AEF908BD4FF4F26101220F
:10348000FEF7A8F908BD40F291710122FEF7A2F9FA
:1034900008BD40F292710122FEF79CF908BD40F28E
:1034A00093710122FEF796F908BD40F29471012252
:1034B000FEF790F908BD40F295710122FEF78AF9F6
:1034C00008BD40F296710122FEF784F908BD40F272
:1034D00097710122FEF77EF908BD4FF4F3610122D6
:1034E000FEF778F908BD40F299710122FEF772F9F2
:1034F00008BD40F29A710122FEF76CF908BD40F256
:103500009B710122FEF766F908BD40F29C71012211
:10351000FEF760F908BD40F29D710122FEF75AF9ED
:1035200008BD40F29E710122FEF754F908BD40F239
:103530009F710122FEF74EF908BD00BF08B50139A1
:10354000172900F29E80DFE801F00C12181E242AD1
:1035500030363C42484E545A60666C72787E848A9B
:1035600090964FF4F4610122FEF726F98AE040F2CA
:10357000A1710122FEF720F984E040F2A27101223C
:10358000FEF71AF97EE040F2A3710122FEF714F96A
:1035900078E040F2A4710122FEF70EF972E040F2E9
:1035A000A5710122FEF708F96CE040F2A671012234
:1035B000FEF702F966E040F2A7710122FEF7FCF87F
:1035C00060E04FF4F5610122FEF7F6F85AE040F2B0
:1035D000A9710122FEF7F0F854E040F2AA7101222D
:1035E000FEF7EAF84EE040F2AB710122FEF7E4F894
:1035F00048E040F2AC710122FEF7DEF842E040F212
:10360000AD710122FEF7D8F83CE040F2AE71012224
:10361000FEF7D2F836E040F2AF710122FEF7CCF8A7
:1036200030E04FF4F6610122FEF7C6F82AE040F2DE
:10363000B1710122FEF7C0F824E040F2B27101221C
:10364000FEF7BAF81EE040F2B3710122FEF7B4F8BB
:1036500018E040F2B4710122FEF7AEF812E040F239
:10366000B5710122FEF7A8F80CE040F2B671012214
:10367000FEF7A2F806E040F2B7710122FEF79CF8CF
:1036800000E008BD012008BD08B50139172900F286
:103690009D80DFE801F00C12181E242A30363C42CF
:1036A000484E545A60666C72787E848A90964FF4C5
:1036B000F4610122FEF78EF808BD40F2A1710122EB
:1036C000FEF788F808BD40F2A2710122FEF782F8E9
:1036D00008BD40F2A3710122FEF77CF808BD40F25C
:1036E000A4710122FEF776F808BD40F2A57101220F
:1036F000FEF770F808BD40F2A6710122FEF76AF8E5
:1037000008BD40F2A7710122FEF764F808BD4FF42E
:10371000F5610122FEF75EF808BD40F2A9710122B1
:10372000FEF758F808BD40F2AA710122FEF752F8E0
:1037300008BD40F2AB710122FEF74CF808BD40F223
:10374000AC710122FEF746F808BD40F2AD710122CE
:10375000FEF740F808BD40F2AE710122FEF73AF8DC
:1037600008BD40F2AF710122FEF734F808BD4FF4F6
:10377000F6610122FEF72EF808BD40F2B171012278
:10378000FEF728F808BD40F2B2710122FEF722F8D8
:1037900008BD40F2B3710122FEF71CF808BD40F2EB
:1037A000B4710122FEF716F808BD40F2B57101228E
:1037B000FEF710F808BD40F2B6710122FEF70AF8D4
:1037C00008BD40F2B7710122FEF704F808BD00BF42
:1037D00030B583B004460139172900F2B281DFE821
:1037E00011F0180029003A004B005C006D007E00CB
:1037F0008F00A000B100C200D300E400F500060174
:103800001701280139014A015B016C017D018E011C
:103810009F010DF10700FEF7DBF99DF80750202D01
:10382000A8BF202520464FF488712022FDF7C4FF51
:10383000284686E10DF10700FEF7DAF99DF80750FA
:10384000202DA8BF202520464FF498712022FDF797
:10385000B3FF284675E10DF10700FEF7D9F99DF891
:103860000750202DA8BF202520464FF4A871202204
:10387000FDF7A2FF284664E10DF10700FEF7D8F935
:103880009DF80750202DA8BF202520464FF4B87181
:103890002022FDF791FF284653E10DF10700FEF7C6
:1038A000D7F99DF80750202DA8BF202520464FF4BA
:1038B000C8712022FDF780FF284642E10DF1070084
:1038C000FEF7D6F99DF80750202DA8BF20252046E9
:1038D0004FF4D8712022FDF76FFF284631E10DF13A
:1038E0000700FEF7D5F99DF80750202DA8BF202529
:1038F00020464FF4E8712022FDF75EFF284620E1C4
:103900000DF10700FEF7D4F99DF80750202DA8BF50
:10391000202520464FF4F8712022FDF74DFF284660
:103920000FE10DF10700FEF7D3F99DF80750202DA8
:10393000A8BF202520464FF404712022FDF73CFF4C
:103940002846FEE00DF10700FEF7D2F99DF807507A
:10395000202DA8BF202520464FF40C712022FDF712
:103960002BFF2846EDE00DF10700FEF7D1F99DF899
:103970000750202DA8BF202520464FF41471202287
:10398000FDF71AFF2846DCE00DF10700FEF7D0F93D
:103990009DF80750202DA8BF202520464FF41C710C
:1039A0002022FDF709FF2846CBE00DF10700FEF7C6
:1039B000CFF99DF80750202DA8BF202520464FF4B1
:1039C00024712022FDF7F8FE2846BAE00DF1070029
:1039D000FEF7CEF99DF80750202DA8BF20252046E0
:1039E0004FF42C712022FDF7E7FE2846A9E00DF1E7
:1039F0000700FEF7CDF99DF80750202DA8BF202520
:103A000020464FF434712022FDF7D6FE284698E078
:103A10000DF10700FEF7CCF99DF80750202DA8BF47
:103A2000202520464FF43C712022FDF7C5FE284694
:103A300087E00DF10700FEF7CBF99DF80750202D28
:103A4000A8BF202520464FF444712022FDF7B4FE84
:103A5000284676E00DF10700FEF7CAF99DF80750F9
:103A6000202DA8BF202520464FF44C712022FDF7C1
:103A7000A3FE284665E00DF10700FEF7C9F99DF8A1
:103A80000750202DA8BF202520464FF45471202236
:103A9000FDF792FE284654E00DF10700FEF7C8F945
:103AA0009DF80750202DA8BF202520464FF45C71BB
:103AB0002022FDF781FE284643E00DF10700FEF7C6
:103AC000C7F99DF80750202DA8BF202520464FF4A8
:103AD00064712022FDF770FE284632E00DF10700E8
:103AE000FEF7C6F99DF80750202DA8BF20252046D7
:103AF0004FF46C712022FDF75FFE284621E00DF1A6
:103B00000700FEF7C5F99DF80750202DA8BF202516
:103B100020464FF474712022FDF74EFE284610E037
:103B20000DF10700FEF7C4F99DF80750202DA8BF3E
:103B3000202520464FF47C712022FDF73DFE2846CB
:103B4000FFE703B030BD00BF10B582B00C46013AAC
:103B5000172A00F26981DFE812F01800260034000D
:103B6000420050005E006C007A0088009600A400BD
:103B7000B200C000CE00DC00EA00F800060114012B
:103B8000220130013E014C015A014FF4887120227C
:103B9000FDF720FE202CA8BF202402A800F8014D2C
:103BA000FEF71EF840E14FF498712022FDF712FE57
:103BB000202CA8BF202402A800F8014DFEF720F811
:103BC00032E14FF4A8712022FDF704FE202CA8BF9B
:103BD000202402A800F8014DFEF722F824E14FF45A
:103BE000B8712022FDF7F6FD202CA8BF202402A8E2
:103BF00000F8014DFEF724F816E14FF4C8712022B9
:103C0000FDF7E8FD202CA8BF202402A800F8014DF4
:103C1000FEF726F808E14FF4D8712022FDF7DAFD0F
:103C2000202CA8BF202402A800F8014DFEF728F898
:103C3000FAE04FF4E8712022FDF7CCFD202CA8BF5C
:103C4000202402A800F8014DFEF72AF8ECE04FF41A
:103C5000F8712022FDF7BEFD202CA8BF202402A869
:103C600000F8014DFEF72CF8DEE04FF4047120223D
:103C7000FDF7B0FD202CA8BF202402A800F8014DBC
:103C8000FEF72EF8D0E04FF40C712022FDF7A2FDD4
:103C9000202CA8BF202402A800F8014DFEF730F820
:103CA000C2E04FF414712022FDF794FD202CA8BF30
:103CB000202402A800F8014DFEF732F8B4E04FF4DA
:103CC0001C712022FDF786FD202CA8BF202402A80D
:103CD00000F8014DFEF734F8A6E04FF424712022DD
:103CE000FDF778FD202CA8BF202402A800F8014D84
:103CF000FEF736F898E04FF42C712022FDF76AFDAC
:103D0000202CA8BF202402A800F8014DFEF738F8A7
:103D10008AE04FF434712022FDF75CFD202CA8BF0F
:103D2000202402A800F8014DFEF73AF87CE04FF499
:103D30003C712022FDF74EFD202CA8BF202402A8B4
:103D400000F8014DFEF73CF86EE04FF4447120227C
:103D5000FDF740FD202CA8BF202402A800F8014D4B
:103D6000FEF73EF860E04FF44C712022FDF732FD83
:103D7000202CA8BF202402A800F8014DFEF740F82F
:103D800052E04FF454712022FDF724FD202CA8BFEF
:103D9000202402A800F8014DFEF742F844E04FF459
:103DA0005C712022FDF716FD202CA8BF202402A85C
:103DB00000F8014DFEF744F836E04FF4647120221C
:103DC000FDF708FD202CA8BF202402A800F8014D13
:103DD000FEF746F828E04FF46C712022FDF7FAFC5C
:103DE000202CA8BF202402A800F8014DFEF748F8B7
:103DF0001AE04FF474712022FDF7ECFC202CA8BFD0
:103E0000202402A800F8014DFEF74AF80CE04FF418
:103E10007C712022FDF7DEFC202CA8BF202402A804
:103E200000F8014DFEF74CF802B010BD70B4094B1C
:103E300003F130040848002601681A792AB19A680B
:103E4000891AB1F57A7FC8BF1E710C33A342F3D132
:103E500070BC7047FC99FF1F00A8FF1F10B4012021
:103E6000002408492346CA18127922B15A588242BE
:103E700001D10130F6E70C33302BF4D15DF8044B5F
:103E8000704700BFFC99FF1F10B5044610B9FFF73B
:103E9000E5FF0446164B1B795BB1154B1B7C43B108
:103EA000134B1B7F2BB1124B93F828300BB1FFF74C
:103EB000BDFF0F4B1B797BB10D4B1B7C43B10C4BF2
:103EC0001B7F3BB10A4B93F8283073B9094B04E0D0
:103ED000094B02E0094B00E0054B1C6001221A71FE
:103EE000074A12689A60204610BD002010BD00BF2E
:103EF000FC99FF1F209AFF1F089AFF1F149AFF1FAB
:103F000000A8FF1F70B582B001460568019544798D
:103F1000837943EA0424164B006818600A791A7101
:103F200000225A7111229A71D81D0731224602F0DF
:103F300049FDE61DB5F1FF3F04D10020FFF7A4FFC6
:103F4000019002E02846FFF79FFF094B0198985126
:103F50001A190221D172012010730021517390733C
:103F6000D1731846642103F031F8019802B070BD96
:103F7000309AFF1F08B5074B00681860BF221A71FE
:103F800000225A7101229A71D9711846642103F0F6
:103F90001DF808BD309AFF1F114B1B68834212D0D9
:103FA0000F4BDB6883420AD00D4B9B69834208D0DC
:103FB0000B4B5B6A834208BF032005D00DE0012054
:103FC00002E0022000E00020064B1A6800EB4001EE
:103FD000034B03EB81039A6070474FF0FF3070474B
:103FE000FC99FF1F00A8FF1F08B5002242710222A2
:103FF00082710A12C2710172642102F0E7FF08BDEA
:104000002DE9F0470D46284C00682060832323717A
:104010003929B4BF89464FF039090B126371A17178
:10402000E01D22494A4602F0CDFC2046642102F000
:10403000CDFFC9EB0509B9F1000F33DD1C4D00269A
:10404000274604F105084FF0640A3E712B464446AA
:1040500005F13002D3F800C0D3F804E09868D968BD
:10406000C4F800C0C4F804E0A060E160103310346C
:104070009342EFD119685A68216062601A899B7A6D
:104080002281A3723846514602F0A0FFA9F13B09F4
:1040900044F62063013B7FF4FDAF01363B35B9F1B7
:1040A000000FD2DCBDE8F087309AFF1F009EFF1F93
:1040B000399EFF1F10B582B00024204603F014F88B
:1040C00001AB18550134042CF7D1019802B010BD92
:1040D00070B582B001900DF10306002416F8015F5F
:1040E000204603F001F8854203D02046294603F01C
:1040F0000FF80134042CF1D102B070BD2DE9F0436A
:10410000BBB00446C37923B14FF4DC41FFF76CFF29
:1041100021E1457AC37A027B120242EA0342437BE1
:104120001A43037A022B36D0032B00F0F780012BC1
:1041300040F00D81402A04D04FF4CE41FFF754FFE8
:1041400009E1864B1B6823B946F68511FFF74CFF42
:1041500001E1834D28460021442206F097FC814965
:1041600000220B4643F8042B4A60043343F8042B27
:1041700043F8042B43F8042B43F8042B43F8042B97
:1041800043F8042B1A6004232B70204646F6851151
:10419000FFF72AFFDFE0812A04D04FF4CE41FFF77A
:1041A00023FFD8E090F84E30402B04D04FF4D54197
:1041B000FFF71AFFCFE0694B1B6823B946F685115C
:1041C000FFF712FFC7E000F12E0800F14F06DFF8FD
:1041D0009CE100F18F0C774630687168B268F36833
:1041E0000FC71036BE466645F5D102A8FCF784FE1F
:1041F00002A841462022FCF7A9FE02A85A49FCF772
:10420000C9FE5A484146202206F0ACFB28B12046A0
:104210004FF4D541FFF7E8FE9DE0072D05D120467C
:1042200046F68511FFF7E0FE95E0032D40F0938000
:10423000FFF740FF81461EA8FCF75EFE1EA8414620
:104240002022FCF783FE4A4D01232B704FEA2922DE
:1042500002F47F424FEA092303F47F031A4342EA40
:10426000196242EA09623AAB43F8E42D1868C5F8CE
:1042700001001EA829460522FCF768FE1EA804F1CD
:104280000E012022FCF762FE1EA83749FCF782FED1
:1042900030236B714423AB714FF0020C85F807C0DB
:1042A0004FF0200E85F808E0324E0FCEC5F8090019
:1042B000C5F80D10C5F81120C5F815300FCEC5F89A
:1042C0001900C5F81D10C5F82120C5F8253085F85E
:1042D00029C085F82AE00FCEC5F82B00C5F82F10AD
:1042E000C5F83320C5F837300FCEC5F83B00C5F808
:1042F0003F10C5F84320C5F84730902385F84B3070
:10430000002385F84C30154A136020464D21FFF7F5
:1043100077FE09F10100FFF7DBFE1CE022B14FF44C
:10432000CE41FFF761FE16E000234371082282713F
:10433000114A1068C4F807009288A4F80B20902254
:104340006273A3732046642102F040FE03E04FF441
:10435000DA41FFF749FE3BB0BDE8F083B098FF1F9C
:10436000B899FF1FC89DFF1F00A2FF1F709DFF1F70
:10437000009EFF1F309AFF1F60E900002DE9F84FF3
:104380000446037990F805908279862B01D8842B16
:1043900005D12D480121FFF7EDFDBDE8F88F812BF8
:1043A0004CD142EA0929B9F1390F04DC642102F049
:1043B0000DFEBDE8F88F642102F008FEA9F139096D
:1043C000B9F1000F3EDD04F1400500271F4E06F154
:1043D00005084FF0640A2068306037712B4642466A
:1043E00005F13001D3F800B0D3F804C0D3F808E0E9
:1043F000D868C2F800B0C2F804C0C2F808E0D060C3
:10440000103310328B42EDD118685968106051603A
:1044100019899B7A118193723046514602F0D6FD7C
:10442000A9F13B0944F62063013B7FF4FDAF01375E
:104430003B35B9F1000FCEDCBDE8F88F832B01D1FD
:10444000FFF75CFEBDE8F88F1099FF1F309AFF1F41
:1044500010B4002306480324C2181179022908BFAA
:1044600014710C33302BF7D15DF8044B704700BF4B
:10447000FC99FF1F2DE9F041071E15DD00240B4EAE
:104480004FF0FF0864253078414603F03FFD284691
:1044900003F056FE3078002103F038FD284603F083
:1044A0004FFE0134BC42EED1BDE8F081B09DFF1F4C
:1044B00070B50024064E09253078214603F026FD0C
:1044C000284603F03DFE0534B4F5827FF4D170BD7B
:1044D000B09DFF1F70B5FF24064E09253078214698
:1044E00003F014FD284603F02BFE053C14F1050FE4
:1044F000F4D170BDB09DFF1F10B5304B187802F09D
:1045000055FB01462E4B18602E4C204604221346C4
:1045100002F050F82C4B187802F048FB01462B4B68
:10452000186020460422134602F044F8284B1878FD
:1045300002F03CFB0146274B18602046042213463C
:1045400002F038F8244B187802F030FB0146234B78
:10455000186020460422134602F02CF8204B1878ED
:1045600002F024FB01461F4B18602046042213462C
:1045700002F020F81C4B187802F018FB01461B4B88
:10458000186020460422134602F014F8184B1878DD
:1045900003F0A8FB014620460422102302F00AF88B
:1045A000144B187803F09EFB01462046042210238A
:1045B00002F000F8204601F0DBFF10BD30A2FF1F23
:1045C0005099FF1F38A6FF1F31A2FF1F8C99FF1FB4
:1045D00032A2FF1F5899FF1FED9DFF1F5C99FF1F1F
:1045E00034A6FF1F6099FF1F35A6FF1F6499FF1FA8
:1045F000AC98FF1FEC9DFF1FF8B507460E460A4D0D
:104600000A4C01E0FFF778FF2846216801F00AFF15
:104610000028F7D004483946324601F03DFF2022F9
:10462000024B1A600120F8BD38A6FF1FA88CFF1F9F
:1046300030B415462AB10023C45CCC540133AB42DC
:10464000FAD130BC704700BF70B4164632B10024B6
:104650000B44055D1D550134B442FAD170BC70475E
:1046600010B5037833B1094A02F8013F10F8013F51
:10467000002BF9D1064C2046002102F0A7FC204671
:104680000021402206F002FA10BD00BF2F9AFF1F42
:10469000309AFF1F70B588B0864B1B78002B14BF73
:1046A0000C2500250DF10200691CFEF703F901231A
:1046B0008DF800307C248DF80140684604A90D2255
:1046C000FFF7B6FF04A8FFF7CBFF142003F038FD77
:1046D0000DF10200A91CFEF7EDF802238DF8003061
:1046E0008DF80140684604A90D22FFF7A1FF04A838
:1046F000FFF7B6FF142003F023FD0DF10200E91CC3
:10470000FEF7D8F803268DF800608DF80140684662
:1047100004A90D22FFF78CFF04A8FFF7A1FF1420C6
:1047200003F00EFD0DF10200291DFEF7C3F804236E
:104730008DF800308DF80140684604A90D22FFF77E
:1047400077FF04A8FFF78CFF142003F0F9FC0DF1AC
:104750000200691DFEF7AEF805238DF800308DF8D4
:104760000140684604A90D22FFF762FF04A8FFF785
:1047700077FF142003F0E4FC0DF10200A91DFEF701
:1047800099F806238DF800308DF80140684604A999
:104790000D22FFF74DFF04A8FFF762FF142003F07E
:1047A000CFFC0DF10200E91DFEF784F807238DF818
:1047B00000308DF80140684604A90D22FFF738FF4C
:1047C00004A8FFF74DFF142003F0BAFC0DF102001E
:1047D00005F10801FEF76EF808238DF800308DF81A
:1047E0000140684604A90D22FFF722FF04A8FFF745
:1047F00037FF142003F0A4FC0DF1020005F10901BC
:10480000FEF758F809238DF800308DF8014068460E
:1048100004A90D22FFF70CFF04A8FFF721FF1420C5
:1048200003F08EFC0DF1020005F10A01FEF742F8DB
:1048300010238DF800308DF8014068460DEB030120
:104840000D22FFF7F5FE04A8FFF70AFF142003F07E
:1048500077FC0DF1020005F10B01FEF72BF8112397
:104860008DF800308DF80140684604A90D22FFF74D
:10487000DFFE04A8FFF7F4FE142003F061FC0DF145
:10488000020005F10C01FEF715F812238DF8003037
:104890008DF80140684604A90D22FFF7C9FE04A85F
:1048A000FFF7DEFE142003F04BFC3046FFF7E2FD7D
:1048B00008B070BD2C9AFF1F38B54FF40063013B60
:1048C000FDD1002425462046294602F021FC013472
:1048D000B4F5006FF7D14FF40063013BFDD138BD53
:1048E00010B582B001A8FCF7C3FF9DF8054044F461
:1048F00000349DF8043044EA03242046012101F0ED
:1049000005FD04F50060012101F000FD04F5C05033
:10491000012101F0FBFC04F54050012101F0F6FCFF
:1049200002B010BD00B583B00DF10700FCF770FFB9
:104930009DF8073023B9FFF7D3FFFFF7BDFF01E074
:1049400001F03AFD0022044B1A700122034B1A7049
:1049500003B05DF804FB00BF5499FF1F9099FF1F3F
:1049600010B50446144B1B7833B9144B1B78CBB1EC
:104970001348FFF775FE10BD104B1B7893B111481B
:10498000FFF76EFE04F1090100230F4A11F8010D33
:1049900098401468204310600833202BF6D1FCF7B0
:1049A0009FFE01E0FFF7BEFF0848002102F00EFB6A
:1049B0000320FFF75FFD10BD5499FF1F9099FF1F63
:1049C00068E900004CE600000C99FF1F309AFF1FB9
:1049D00030B4043A12D403460024CD78055551F87A
:1049E000045B2D0C5D7051F8045C2D0A9D7051F82C
:1049F000045CDD70043304349442EEDD30BC704757
:104A00002DE9F04383B006468846171F19D40546A2
:104A100000244FF00109AA786B781B0443EA0223B3
:104A2000EA781343325D43EA0263019308EB040022
:104A300001A94A464B4601F039FC04340435BC4216
:104A4000E9DD03B0BDE8F083D0B582B007460E467D
:104A500001A8FCF70DFF9DF804309DF805401819DA
:104A600008D044F40031384641EA03213246FFF7CA
:104A7000AFFF012002B0D0BD70B5C2B0044601A89E
:104A8000FCF7F6FE9DF804309DF805609A19AAB966
:104A900000238DF8043004238DF805300DEB03005E
:104AA000FCF7EEFE154D204629462022FFF7A8FF11
:104AB000204629462022FFF78BFF1DE046F40036F2
:104AC00046EA032602A83146FE22FFF781FF0023B3
:104AD00002ADE25C5A550133202BFAD13046012158
:104AE00001F014FC02A83146FE22FFF789FF2046A0
:104AF00031462022FFF76CFF42B070BD0400020077
:104B000010B582B0044601A8FCF7B2FE9DF804304F
:104B10009DF80520981809D042F4003242EA03219A
:104B2000204620312022FFF753FF012002B010BDA4
:104B300070B5C2B0054601A8FCF79AFE9DF8043096
:104B40009DF80520991801B342F4003242EA032689
:104B500002A83146FE22FFF73BFF002302AA1A44B7
:104B6000EC5C82F820400133202BF7D13046012144
:104B700001F0CCFB02A83146FE22FFF741FF284698
:104B800006F120012022FFF723FF42B070BD00BFD5
:104B900070B5A4B04F4B1B68032B00F29880DFE880
:104BA00003F0020C363D4C48FCF7F6FA4B48FFF791
:104BB00057FD0122474B1A6089E00222454B1A60DB
:104BC000454806F0CFF90738032816D84448FFF7C0
:104BD00047FD0024434E404D635DA35501342846F4
:104BE00006F0C0F98442F7D93B4C20463D49FCF71A
:104BF000C3FA2046FCF7D0FA69E03B48FFF730FDE6
:104C00003548FCF7C9FA0022324B1A605FE037489A
:104C1000FFF726FD03222F4B1A6058E000222D4B90
:104C20001A602D4806F09EF90738032843D82A4811
:104C3000FCF7B6FA002837D00024274D635D0DF845
:104C400004300134284606F08DF98442F6D908A8CC
:104C5000FCF752F9204806F085F9024608A8694693
:104C6000FCF774F9224B1B783BB968462021FFF70B
:104C7000C3FC6846FFF700FF03E068462021FFF70A
:104C8000E3FE08A869462022FCF760F908A86946F7
:104C9000FCF780F96846FFF74BFF0122144B1A70AE
:104CA0001448FFF7DDFC0CE01348FFF7D9FC0022A5
:104CB000084B1A6005E00C48FFF7D2FC0022054BB8
:104CC0001A600548FCF768FA0320FFF7D3FB24B00D
:104CD00070BD00BFF09DFF1FB49DFF1F78E900006D
:104CE0009CE90000F49DFF1FB4E90000E0E900002A
:104CF0005499FF1F10EA000028EA000010B582B0A6
:104D0000044601A8FCF7B4FD9DF804309DF8052089
:104D1000991809B9002008E042F4003242EA032160
:104D2000204640312022FFF753FE02B010BD00BFE5
:104D300070B5C2B0054601A8FCF79AFD9DF8043095
:104D40009DF80520991801B342F4003242EA032687
:104D500002A83146FE22FFF73BFE002302AA1A44B6
:104D6000EC5C82F840400133202BF7D13046012122
:104D700001F0CCFA02A83146FE22FFF741FE284698
:104D800006F140012022FFF723FE42B070BD00BFB4
:104D900070B5A4B0454B1B68062B00F28580DFE898
:104DA00003F0048383830E383F004148FCF7F4F995
:104DB0004048FFF755FC04223C4B1A6074E0052282
:104DC0003A4B1A603A4806F0CDF80738032816D84F
:104DD0003948FFF745FC0024384E354D635DA35537
:104DE0000134284606F0BEF88442F7D9304C2046FC
:104DF0003249FCF7C1F92046FCF7CEF954E03048BF
:104E0000FFF72EFC2A48FCF7C7F90022274B1A604F
:104E10004AE02C48FFF724FC0622244B1A6043E0AA
:104E20000022224B1A60224806F09CF8073803281B
:104E300031D81F48FCF7B4F948B300241C4D635D1A
:104E40000DF804300134284606F08CF88442F6D977
:104E500008A8FCF751F8164806F084F8024608A89E
:104E60006946FCF773F868462021FFF7EDFD08A8B6
:104E700069462022FCF76AF808A86946FCF78AF818
:104E80006846FFF755FF1048FFF7EAFB06E00F48BA
:104E9000FFF7E6FB02E00A48FFF7E2FB0448FCF7F5
:104EA0007BF90320FFF7E6FA24B070BDF09DFF1FE9
:104EB000B49DFF1F40EA00009CE9000024A2FF1FF0
:104EC000B4E90000E0E9000010EA000028EA000070
:104ED00010B582B0044601A8FCF7CAFC9DF8043066
:104EE0009DF80520991809B9002008E042F4003225
:104EF00042EA0321204660312022FFF769FD02B01B
:104F000010BD00BF70B5C2B0054601A8FCF7B0FCEB
:104F10009DF804309DF80520991801B342F4003241
:104F200042EA032602A83146FE22FFF751FD002384
:104F300002AA1A44EC5C82F860400133202BF7D1BE
:104F40003046012101F0E2F902A83146FE22FFF7C6
:104F500057FD284606F160012022FFF739FD42B0D7
:104F600070BD00BF70B5A4B0504B1B68092B00F298
:104F70009B80DFE803F0059999999999990F394039
:104F80004B48FCF709F94B48FFF76AFB0722474BF0
:104F90001A6089E00822454B1A60454805F0E2FF97
:104FA0000738032816D84448FFF75AFB0024434E1D
:104FB0003F4D635DA3550134284605F0D3FF84427D
:104FC000F7D93B4C20463D49FCF7D6F82046FCF784
:104FD000E3F869E03A48FFF743FB3548FCF7DCF8B3
:104FE0000022324B1A605FE03648FFF739FB092296
:104FF0002E4B1A6058E000222C4B1A602C4805F00A
:10500000B1FF0738032843D82948FCF7C9F800281E
:1050100037D00024264D635D0DF804300134284656
:1050200005F0A0FF8442F6D908A8FBF765FF2048E9
:1050300005F098FF024608A86946FBF787FF224B58
:105040001B783BB968462021FFF7D6FA6846FFF780
:1050500013FD03E068462021FFF7F6FC08A8694627
:105060002022FBF773FF08A86946FBF793FF684609
:10507000FFF748FF0122144B1A701448FFF7F0FAAB
:105080000CE01348FFF7ECFA0022084B1A6005E029
:105090000B48FFF7E5FA0022044B1A600448FCF7BE
:1050A0007BF80320FFF7E6F924B070BDF09DFF1FE9
:1050B000B49DFF1F78E900009CE900000099FF1FE4
:1050C000B4E90000E0E900005499FF1F10EA000075
:1050D00028EA0000F0B583B006460D4601A8FCF7AB
:1050E000C7FB9DF804309DF805209C1800F0A381B3
:1050F00042F4003242EA03276C1E172C00F29A8118
:10510000DFE814F018002800380048005800680054
:10511000780088009800A800B800C800D800E8000F
:10512000F8000801180128013801480158016801F8
:10513000780188010DF10300FCF7CAFE9DF80340D9
:10514000402CA8BF4024304607F500614022FFF7FD
:105150003FFC70E10DF10300FCF7CAFE9DF803402F
:10516000402CA8BF4024304607F504614022FFF7D9
:105170002FFC60E10DF10300FCF7CAFE9DF803402F
:10518000402CA8BF4024304607F508614022FFF7B5
:105190001FFC50E10DF10300FCF7CAFE9DF803402F
:1051A000402CA8BF4024304607F50C614022FFF791
:1051B0000FFC40E10DF10300FCF7CAFE9DF803402F
:1051C000402CA8BF4024304607F510614022FFF76D
:1051D000FFFB30E10DF10300FCF7CAFE9DF8034030
:1051E000402CA8BF4024304607F514614022FFF749
:1051F000EFFB20E10DF10300FCF7CAFE9DF8034030
:10520000402CA8BF4024304607F518614022FFF724
:10521000DFFB10E10DF10300FCF7CAFE9DF803402F
:10522000402CA8BF4024304607F51C614022FFF700
:10523000CFFB00E10DF10300FCF7CAFE9DF803402F
:10524000402CA8BF4024304607F520614022FFF7DC
:10525000BFFBF0E00DF10300FCF7CAFE9DF8034030
:10526000402CA8BF4024304607F524614022FFF7B8
:10527000AFFBE0E00DF10300FCF7CAFE9DF8034030
:10528000402CA8BF4024304607F528614022FFF794
:105290009FFBD0E00DF10300FCF7CAFE9DF8034030
:1052A000402CA8BF4024304607F52C614022FFF770
:1052B0008FFBC0E00DF10300FCF7CAFE9DF8034030
:1052C000402CA8BF4024304607F530614022FFF74C
:1052D0007FFBB0E00DF10300FCF7CAFE9DF8034030
:1052E000402CA8BF4024304607F534614022FFF728
:1052F0006FFBA0E00DF10300FCF7CAFE9DF8034030
:10530000402CA8BF4024304607F538614022FFF703
:105310005FFB90E00DF10300FCF7CAFE9DF803402F
:10532000402CA8BF4024304607F53C614022FFF7DF
:105330004FFB80E00DF10300FCF7CAFE9DF803402F
:10534000402CA8BF4024304607F540614022FFF7BB
:105350003FFB70E00DF10300FCF7CAFE9DF803402F
:10536000402CA8BF4024304607F544614022FFF797
:105370002FFB60E00DF10300FCF7CAFE9DF803402F
:10538000402CA8BF4024304607F548614022FFF773
:105390001FFB50E00DF10300FCF7CAFE9DF803402F
:1053A000402CA8BF4024304607F54C614022FFF74F
:1053B0000FFB40E00DF10300FCF7CAFE9DF803402F
:1053C000402CA8BF4024304607F550614022FFF72B
:1053D000FFFA30E00DF10300FCF7CAFE9DF8034030
:1053E000402CA8BF4024304607F554614022FFF707
:1053F000EFFA20E00DF10300FCF7CAFE9DF8034030
:10540000402CA8BF4024304607F558614022FFF7E2
:10541000DFFA10E00DF10300FCF7CAFE9DF803402F
:10542000402CA8BF4024304607F55C614022FFF7BE
:10543000CFFA00E000E0204603B0F0BD2DE9F043D4
:10544000ADF20C6D05468846174601A8FCF710FA28
:105450009DF804309DF805001A18002A00F0E98133
:1054600040F4003040EA032303F5006902A84946EE
:105470004FF4C062FFF7ACFA00230DF5C16202EBF6
:105480008716A6F5C866EC5CF4540133412BFAD1BB
:105490004846012100F03AFF013F172F00F2C98171
:1054A000DFE817F018002A003C004E006000720090
:1054B00084009600A800BA00CC00DE00F0000201D3
:1054C0001401260138014A015C016E01800192013C
:1054D000A401B60102A849464FF4C062FFF790FA52
:1054E000B8F1400FA8BF4FF040088DF803800DF1D0
:1054F0000300FCF7F5FC9CE102A849464FF4C062AA
:10550000FFF77EFAB8F1400FA8BF4FF040088DF8C2
:1055100003800DF10300FCF7F3FC8AE102A8494681
:105520004FF4C062FFF76CFAB8F1400FA8BF4FF01C
:1055300040088DF803800DF10300FCF7F1FC78E1E1
:1055400002A849464FF4C062FFF75AFAB8F1400F7B
:10555000A8BF4FF040088DF803800DF10300FCF761
:10556000EFFC66E102A849464FF4C062FFF748FA33
:10557000B8F1400FA8BF4FF040088DF803800DF13F
:105580000300FCF7EDFC54E102A849464FF4C06269
:10559000FFF736FAB8F1400FA8BF4FF040088DF87A
:1055A00003800DF10300FCF7EBFC42E102A8494641
:1055B0004FF4C062FFF724FAB8F1400FA8BF4FF0D4
:1055C00040088DF803800DF10300FCF7E9FC30E1A1
:1055D00002A849464FF4C062FFF712FAB8F1400F33
:1055E000A8BF4FF040088DF803800DF10300FCF7D1
:1055F000E7FC1EE102A849464FF4C062FFF700FA3B
:10560000B8F1400FA8BF4FF040088DF803800DF1AE
:105610000300FCF7E5FC0CE102A849464FF4C06228
:10562000FFF7EEF9B8F1400FA8BF4FF040088DF832
:1056300003800DF10300FCF7E3FCFAE002A8494601
:105640004FF4C062FFF7DCF9B8F1400FA8BF4FF08C
:1056500040088DF803800DF10300FCF7E1FCE8E061
:1056600002A849464FF4C062FFF7CAF9B8F1400FEB
:10567000A8BF4FF040088DF803800DF10300FCF740
:10568000DFFCD6E002A849464FF4C062FFF7B8F944
:10569000B8F1400FA8BF4FF040088DF803800DF11E
:1056A0000300FCF7DDFCC4E002A849464FF4C062E9
:1056B000FFF7A6F9B8F1400FA8BF4FF040088DF8EA
:1056C00003800DF10300FCF7DBFCB2E002A84946C1
:1056D0004FF4C062FFF794F9B8F1400FA8BF4FF044
:1056E00040088DF803800DF10300FCF7D9FCA0E021
:1056F00002A849464FF4C062FFF782F9B8F1400FA3
:10570000A8BF4FF040088DF803800DF10300FCF7AF
:10571000D7FC8EE002A849464FF4C062FFF770F94B
:10572000B8F1400FA8BF4FF040088DF803800DF18D
:105730000300FCF7D5FC7CE002A849464FF4C062A8
:10574000FFF75EF9B8F1400FA8BF4FF040088DF8A1
:1057500003800DF10300FCF7D3FC6AE002A8494680
:105760004FF4C062FFF74CF9B8F1400FA8BF4FF0FB
:1057700040088DF803800DF10300FCF7D1FC58E0E0
:1057800002A849464FF4C062FFF73AF9B8F1400F5A
:10579000A8BF4FF040088DF803800DF10300FCF71F
:1057A000CFFC46E002A849464FF4C062FFF728F953
:1057B000B8F1400FA8BF4FF040088DF803800DF1FD
:1057C0000300FCF7CDFC34E002A849464FF4C06268
:1057D000FFF716F9B8F1400FA8BF4FF040088DF859
:1057E00003800DF10300FCF7CBFC22E002A8494640
:1057F0004FF4C062FFF704F9B8F1400FA8BF4FF0B3
:1058000040088DF803800DF10300FCF7C9FC10E09F
:1058100002A849464FF4C062FFF7F2F8B8F1400F12
:10582000A8BF4FF040088DF803800DF10300FCF78E
:10583000C7FC0DF20C6DBDE8F08300BF38B504461F
:105840004579827907230020E0540133402BFBD1B6
:105850000A2A10D1E01D0021FCF7BAFC04F1170060
:10586000FCF7D8FC04F11D000021FCF7E3FC2848FC
:10587000FEF7F6FE38BD274B1B7803B10C35073415
:10588000204600212A46FDF7A5F82348FEF7E8FE4A
:10589000204600212A46FEF757F92048FEF7E0FE91
:1058A00020462946FDF7C8F91D48FEF7D9FE2046D7
:1058B0002946FDF755FC1B48FEF7D2FE2046002185
:1058C0002A46FCF785FE1848FEF7CAFE2046294600
:1058D000FDF7FCFA1548FEF7C3FE20462946FDF702
:1058E00089FD1348FEF7BCFE20462946FDF7CCFE95
:1058F0001048FEF7B5FE204600212A46FFF79EFD20
:105900000D48FEF7ADFE0320FEF7B4FD38BD00BF25
:1059100070EA00002C9AFF1FA8EA0000C4EA000009
:10592000E0EA00000CEB000028EB000044EB000074
:1059300070EB00008CEB0000A8EB00002DE9F043B9
:1059400083B08046427990F806C000F10709C1791A
:10595000037A0B44407A034498F80A00C3420CD0FF
:105960004446002501352346267A0134587A0644F8
:105970009F7A3E44DB7ADE42F4D1464B1B7803B17A
:105980000C320CF1FF3CBCF10B0F7FD8DFE80CF0C0
:10599000060E161E293139444C546B75484629466B
:1059A000FDF718F83C48FEF75BFE6FE048462946D5
:1059B000FEF7CAF83948FEF753FE67E0484611463D
:1059C000FDF73AF93648FEF74BFE5FE0303988F8CC
:1059D000071048461146FDF7C3FB3248FEF740FE6C
:1059E00054E048462946FCF7F3FD2F48FEF738FE01
:1059F0004CE048461146FDF769FA2C48FEF730FEA8
:105A000044E0303988F8071048461146FDF7F2FCAB
:105A10002748FEF725FE39E048461146FDF734FEDB
:105A20002448FEF71DFE31E048462946FFF706FDF3
:105A30002148FEF715FE29E043BB02A820F8023DED
:105A4000FCF7D8FB48460621FCF7F4FB08F10D00F3
:105A5000FCF7E0FB08F113001021FCF7B9FB174835
:105A6000FEF7FEFD12E0303988F807104846FBF7D4
:105A7000C7FE1348FEF7F4FD08E0303988F8071038
:105A80004846FBF7CDFE0F48FEF7EAFD03B0BDE840
:105A9000F08300BF2C9AFF1FC4EB0000DCEB00007A
:105AA000F8EB000014EC00002CEC000048EC0000C7
:105AB00064EC00007CEC000098EC0000B4EC00000A
:105AC000E8EC000008ED000010B582B0144B1B7824
:105AD0001BBB6846FBF7CCFE9DF800309DF801200B
