:1000000000800020BD0100003DC0000001C00000D4
:1000100001C0000001C0000001C0000001C00000DC
:1000200001C0000001C0000001C000003DC0000090
:100030003DC0000001C000003DC00000F1BF000055
:100040003DC000003DC000003DC000003DC00000BC
:100050003DC000003DC000003DC000003DC00000AC
:100060003DC000003DC000003DC000003DC000009C
:100070003DC000003DC000003DC000003DC000008C
:100080003DC000003DC000003DC000003DC000007C
:100090003DC000003DC000003DC000003DC000006C
:1000A0003DC000003DC000003DC000003DC000005C
:1000B0003DC000003DC000003DC000003DC000004C
:1000C0003DC000003DC000003DC000003DC000003C
:1000D0003DC000003DC000003DC000003DC000002C
:1000E0003DC000003DC000003DC000003DC000001C
:1000F0003DC000008DED00003DC00000D9DE0000D5
:100100003DC00000B5E700003DC000003DC000005C
:100110003DC000003DC000003DC000003DC00000EB
:100120003DC000003DC000003DC000003DC00000DB
:100130003DC000003DC000003DC000003DC00000CB
:100140003DC000003DC000003DC000003DC00000BB
:100150003DC000003DC000003DC000003DC00000AB
:100160003DC0000009C800003DC000003DC00000C7
:100170003DC000003DC000003DC000003DC000008B
:100180003DC000003DC000003DC000003DC000007B
:100190003DC000003DC000003DC000003DC000006B
:1001A0003DC000003DC000003DC000003DC000005B
:1001B0003DC000003DC000003DC00000574B4CF268
:1001C000205210B51A804DF628121A8000BF00BFC9
:1001D0000BF038FF524B4FF010621A60514A9A6090
:1001E000514ADA60A3F53043203B1A6812F480725A
:1001F00004D14E490A604FF4A8521A604C4B1A7849
:10020000110703D51A7842F008021A70494B4A4C7C
:100210004A482A221A704A4A00239918A14203D256
:10022000195899500433F8E7464B474900228B424E
:1002300002D243F8042BFAE74448454900235A58B0
:100240001A500433B3F5DE7FF9D1424B424A802184
:1002500003F8011B9342FBD1404B3C4A1A60404BD0
:100260000A221A70A3F5805324225A70A0221A7011
:100270009A799207FCD59A79D406FCD4394A9379B5
:1002800003F00C03082B374BF9D103221A714022DB
:100290005A719A799006FCD5324A9179314B4906C8
:1002A000FBD5314A314911600221516020221A7078
:1002B0009A7902F00C020C2AFAD12D4B2D4A1A60C1
:1002C0002D4B2E4A1A6000225A60072243F8042C54
:1002D0002B4AC3F80C2D62B60DF0E2F8134B1B68E5
:1002E000DA0705D527480DF04DF8274B274A1A6045
:1002F000274B1B785B0609D5234C244A236893427D
:1003000004D120480DF03EF8002323600FF04AFC92
:100310000BF09EFE0DF0DEFAFEE700BF0E2005405A
:1003200030800440823F04000100002B14D00340C1
:1003300002D0074000E007409496FF1F9C65010033
:10034000708CFF1F9496FF1FD8AAFF1F0082FF1F0B
:100350000000000000E400E05FE400E008ED00E0E1
:100360000050064000400640448004400000030165
:1003700004800440C010050014E000E0FF76010096
:100380000000202099058C571CE00340A5C3945A17
:1003900000F00740FFFFFFFFFFFFFFFFFFFFFFFF32
:1003A000FFFFFFFFFFFFFFFFFFFFFFFFFFFFFFFF5D
:1003B000FFFFFFFFFFFFFFFFFFFFFFFFFFFFFFFF4D
:1003C000FFFFFFFFFFFFFFFFFFFFFFFFFFFFFFFF3D
:1003D000FFFFFFFFFFFFFFFFFFFFFFFFFFFFFFFF2D
:1003E000FFFFFFFFFFFFFFFFFFFFFFFFFFFFFFFF1D
:1003F000FFFFFFFFFFFFFFFFFFFFFFFFFFFFFFFF0D
:10040000FFFFFFFFFFFFFFFFFFFFFFFFFEFFFFFFFD
:1004100010B5054C237833B9044B13B10448AFF33E
:1004200000800123237010BD9496FF1F0000000080
:100430009465010008B5064B1BB106480649AFF3A9
:1004400000800648036813B1054B03B1984708BD07
:1004500000000000946501009896FF1F9496FF1F0E
:1004600000000000F8B54B4B1C68217880290CD1A6
:1004700044F22B000BF0F0FE44F22B000BF03EFF99
:10048000444B1A6801321A60F8BD81290CD144F23C
:1004900028000BF0E1FE44F228000BF02FFF3D4B4B
:1004A0001A6801321A60F8BD82293FD13A4A12789F
:1004B000002A4BD1394C23685B68204638490F220B
:1004C000984720460DF05AF8364A1468364B1B6898
:1004D0001268E41A04F5FA54D31A9C4214D9334F23
:1004E000334E344D387800210CF05CFF012333602B
:1004F00028460BF0F5FA08F0A9FA2A4B1A682A4B9D
:100500001B68D31AA342EDD3284B187801210CF0B5
:1005100049FF0022264B1A60274C2046274901F04C
:1005200081F92046264901F08FF9F8BD82290CD9BE
:10053000A1F183034FF47A7000FB03F00CF09AFFF3
:10054000144B1A6801321A60F8BD41B11D480268A7
:10055000126890470F4B1A6801321A60F8BD2046A6
:1005600010F06EF902460D4801684D682146A84713
:1005700044F228000BF070FE44F228000BF0BEFE9F
:100580000D4C20460D4901F04DF920460C4901F073
:100590005BF9F8BDD496FF1FBC9AFF1FC4A8FF1FCC
:1005A000783F0100A4A8FF1F7497FF1F449EFF1F00
:1005B0003C99FF1F115000007897FF1FDC96FF1F2A
:1005C000BC96FF1FBCA8FF1F38B505460C46084661
:1005D00010F036F902462B685B682846214698479A
:1005E00038BD00BF38B504460D46084610F028F95E
:1005F000024623685B682046294698470546204600
:100600000CF0BCFF284438BD38B505460DF016F88F
:10061000044628460CF0B2FF204438BD38B500220D
:10062000734B1A700620734B18700121724B1970AE
:100630001622724B1A701722714B1A701122714BCD
:100640001A700F22704B1A701022704B1A700E2203
:100650006F4B1A7015226F4B1A700CF0C7FE6E4864
:10066000202105F0A5F96D4B1B78DE2B30D104F06D
:10067000D3FE442008F0AEFD044669480268556880
:1006800068491422A8472CB1654803685B6866492D
:1006900004229847624C23685B6820466349142211
:1006A000984720460CF06AFF5B48202105F080F94E
:1006B00001225F4B1A7000225E4B1A7023685B6840
:1006C00020465D491822984720460CF057FF37E036
:1006D000442B25D1002823DD5848202105F09EF821
:1006E000574805F025FB574805F0B6FC564C204608
:1006F00001F0FAFD2378012B01D815222270002287
:100700004B4B1A7001224B4B1A70454C23685B68A7
:1007100020464E490B22984720460CF02FFF0FE051
:100720000122434B1A700022424B1A703C4C236842
:100730005B68204646491E22984720460CF01EFF63
:10074000444C2046444940F2FD7208F0DDFE09F0B9
:100750007FFF204641492422002308F07FFE2046E7
:1007600036492022002308F079FE294B18780CF036
:1007700067FD014620460422082308F06FFE254B42
:1007800018780CF05DFD014620460422082308F08D
:1007900065FE234C23685B68204631490C2298474C
:1007A000204640F2DB710CF049FF20460CF0E6FEDB
:1007B00020461A4B1978102200230CF003FF204624
:1007C0000CF0DCFE23685B68204626490922984726
:1007D0002046074B19780CF031FF20460CF0CEFE76
:1007E00004F096FB2048214901F02EF838BD00BFE7
:1007F000BC9AFF1F449EFF1FB0A2FF1FB1A2FF1FA4
:10080000B2A2FF1F6D9EFF1FB4A6FF1FB5A6FF1F5C
:100810003899FF1F6C9EFF1FBC97FF1F020002400C
:10082000C4A8FF1F883F0100A03F0100A83F0100AE
:10083000209AFF1FE499FF1FC03F01007C97FF1F14
:10084000DC97FF1F9C97FF1F888CFF1FDC3F010078
:10085000E83F0100B8A6FF1F084001006CA7FF1F7A
:1008600014400100244001007897FF1FBC96FF1F31
:100870002DE9F04F9DB005460026A04B1E70A04C00
:1008800023685B6820469F490C2298479E4B196855
:10089000204630390CF0D2FE20460CF06FFE0CA83A
:1008A000314640220FF0E6FC9848314684220FF092
:1008B000E1FC0CA8294603F075FDB0F1000A50DDFB
:1008C00023685B68204692491F22984720460CF017
:1008D00055FE23685B6820468E49122298472046C1
:1008E00051460CF0ABFE20460CF048FE8A4B1B78BC
:1008F000002B40F0D78223685B6820468749092295
:10090000984720460CF03AFE0DF12F0404EB0A093B
:10091000DFF8EC811027404614F8011F3A463346B1
:100920000CF050FE4C45F6D175480CF027FE7C4B80
:1009300093F8221075310CA829447A4A534606F0E0
:10094000E5FDAFE2404614F8011F3A4633460CF08D
:1009500039FE4C45F6D16A480CF010FE674B83F81F
:1009600000A00CA8002140220FF084FC0CA829460E
:1009700002F0A6FE9DF83030002B3AD0312B1BD16F
:100980005F4C23685B68204667491F2298472046D2
:100990000CF0F4FD594E337880215C4AD154236821
:1009A0005B68204661490322984720460CF0E6FD2B
:1009B0003378013333701CE0322B1AD1504C23684A
:1009C0005B68204658491F22984720460CF0D6FD08
:1009D0004A4E337881214D4AD15423685B682046C2
:1009E00053490622984720460CF0C8FD337801335E
:1009F00033700CA8002140220FF03CFC0CA82946C3
:100A000003F0F2F89DF83030002B2AD03C4C2368DC
:100A10005B68204647491C22984720460CF0AEFDF3
:100A200023685B68204644490622984720469DF883
:100A300030100A2200230CF0C5FD23685B682046B5
:100A40003E492122984720460CF098FD9DF830A0A1
:100A50002A4B1A78AAF17D002C49885401321A7069
:100A600001E04FF0000A0CA8294602F0DFF9B0F1CE
:100A7000000B7ADD224C23685B68204630491F2238
:100A8000984720460CF07AFD23685B6820462D4984
:100A900012229847204659460CF0D0FD20460CF013
:100AA0006DFD1D4B1B78002B40F0168223685B68A0
:100AB00020461A490922984720460CF05FFD0DF1A7
:100AC0002F0404EB0B09DFF838801027002640467E
:100AD00014F8011F3A4633460CF074FD4C45F6D12C
:100AE00007480CF04BFD0E4B93F8221070310CA808
:100AF00029440C4A5B4606F009FDEDE1D896FF1F3C
:100B0000C4A8FF1F30400100B496FF1FF096FF1FDE
:100B10004040010060400100BC9AFF1F744001008A
:100B20006CA7FF1FBC97FF1F80400100A040010081
:100B3000A4400100AC400100CC400100D4400100C1
:100B4000F840010018410100404614F8011F3A46E0
:100B500033460CF037FD4C45F6D198480CF00EFDAD
:100B6000974B1A78934483F800B00CA800214022D8
:100B70000FF080FB0CA8294602F0ECFE9DF8303007
:100B8000002B38D0312B1AD18C4C23685B6820465F
:100B90008C491F22984720460CF0F0FC23685B68C4
:100BA000204689490322984720460CF0E7FC844BF5
:100BB0001A7880208549885401321A701BE0322B44
:100BC00019D17E4C23685B6820467E491F229847D6
:100BD00020460CF0D3FC23685B6820467C49062243
:100BE000984720460CF0CAFC754B1A78812077494B
:100BF000885401321A700CA8002140220FF03AFBF1
:100C00000CA8294603F03AF99DF83030002B2AD081
:100C10006A4C23685B6820466E491D22984720462F
:100C20000CF0ACFC23685B6820466B4906229847B1
:100C300020469DF830100A2200230CF0C3FC2368E4
:100C40005B68204665491C22984720460CF096FCBC
:100C50009DF830B05A4B1A78ABF17D005B4988544F
:100C600001321A7001E04FF0000B0CA80021402265
:100C70000FF000FB0CA8294603F04AFA9DF830302B
:100C8000002B00F0F780672B40F0CC804B4C2368A2
:100C90005B68204652491F22984720460CF06EFCA4
:100CA0000CA8294605F0B8FB019023685B68204634
:100CB0004C490922984720460CF060FC019B002B10
:100CC00010DD0DF12F049946A144DFF8F0801027C4
:100CD0000026404614F8011F3A4633460CF072FCD9
:100CE0004C45F6D1354C20460CF048FC23685B6837
:100CF00020463D4912229847204601990CF09EFC5F
:100D000020460CF03BFC394B93F8221074310CA8B0
:100D10002944374A019B06F0F9FB0CA82B49019A9C
:100D2000274B1B7804F09CF923685B682046314907
:100D30000B22984720460CF021FC019B002B0FDD75
:100D40000DF12F049846A0441C4F1026002538466C
:100D500014F8011F32462B460CF034FC4445F6D102
:100D6000164C20460CF00AFC02A80CA9019A01F0CE
:100D7000C7F801F015FA50448344204659460CF058
:100D80005DFC20460CF0FAFB02A8594601F0BCF8C5
:100D9000044601F085FA78BB094B1B780B4A4E21BB
:100DA000D15413444F225A7054229A705321D9704F
:100DB000452119715A7100229A712FE0C4A8FF1FB2
:100DC000D896FF1F2C410100A0400100F096FF1FA4
:100DD0004C41010054410100CC400100744101002C
:100DE0009441010074400100B44101006CA7FF1F51
:100DF000BC97FF1FC8410100464B1B782178464A2B
:100E0000D154617813445970A2789A70E278DA70FC
:100E100022791A7162795A7100229A713D4B1A78BF
:100E200006321A709DF83030792B15D13B4B1B7868
:100E300003BB3B4C23685B6820463A49182298471D
:100E400020460CF09BFB334C23783348184406F0C3
:100E5000E5FA23782C3323709DF83030752B09D1B7
:100E60002E4B1B7833B92B4B1A7882202A49885491
:100E700001321A702A4C23685B6820462A491922DD
:100E8000984720460CF07AFB234B197800293DD077
:100E90001D4623681B682046984715F8011F002946
:100EA000F7D133E00CA81C4952461A4B1B7804F0CA
:100EB000D7F81B4C23685B6820461C490B229847D7
:100EC00020460CF05BFB0DF12F040AEB0409DFF860
:100ED00050801027002635E50CA80F495A460D4BC7
:100EE0001B7804F0BDF80E4C23685B6820460F4960
:100EF0000B22984720460CF041FB0DF12F0404EB28
:100F00000B09DFF81C80102700261DE61DB0BDE888
:100F1000F08F00BFD896FF1FF096FF1FBC9AFF1FEF
:100F2000C4A8FF1FD4410100F0410100C8410100E5
:100F300038B5144B1B7873B9134C2368134D5B6899
:100F4000204629462D22984720460CF017FB2846BC
:100F500004F092F838BD0E4B187800210CF022FAFC
:100F60000C4B1A680C4B1A600C4B1B781BB10C4BCA
:100F70001868243802E00A4B18683038FFF778FC0C
:100F800038BD00BFE499FF1FC4A8FF1F0C42010039
:100F9000449EFF1FA4A8FF1FCC96FF1FBC9AFF1FF3
:100FA000B496FF1F38B5144B1B7873B9134C2368E4
:100FB000134D5B68204629462D22984720460CF0A9
:100FC000DDFA284604F058F838BD0E4B1878002199
:100FD0000CF0E8F90C4B1A680C4B1A600C4B1B78A0
:100FE0001BB10C4B1868243802E00A4B18683038E3
:100FF0000630FFF73DFC38BDE499FF1FC4A8FF1F72
:101000000C420100449EFF1FA4A8FF1FCC96FF1FA7
:10101000BC9AFF1FB496FF1F30B583B004468A4BBD
:101020001B782BB9894B187801210CF0BBF904E02F
:10103000864B187800210CF0B5F9854B1B68022B04
:101040000EDD844803685B68834959229847834DC5
:101050000524284604F010F8204603F03BFFF8E78B
:101060007F4B1B783BB301A801F05EF99DF804307B
:101070000133DBB28DF804300A2B16D9754C236886
:101080005B68204677491B22984720460CF076FA89
:1010900020469DF804100A2200230CF093FA204603
:1010A0000CF06CFA04F0A0FACBE001A801F044F9CE
:1010B00000226B4B1A706C486C4B197800F020FCC6
:1010C000614B1B7843B9684800F048FC20B966487A
:1010D00000F026FD002863D05B4B1B78E3B90020AD
:1010E00001F02AF9604800F019FC614C204603F039
:1010F000C3FF58482146FFF775FA5E4B1B781BB9B2
:1011000006F054FA05F012FF5B4B1A685B4B1A604D
:1011100001224D4B1A7094E0594B1B68002B2BD0C9
:10112000032B0BDC4B4C20465649FFF74DFA4F4B37
:10113000196820463039FFF767FA82E0062B0BDC8E
:10114000444C20465049FFF73FFA484B1968204667
:101150003039FFF759FA74E0464B1B78002B70D1F9
:101160003C4C20464949FFF72FFA404B196820466E
:101170003039FFF749FA64E00022454B1A700A2C17
:101180005CDCFFF7D5FE424A424B1A60424C2046D7
:10119000424900F047FB2046414900F055FB50E032
:1011A000314800F079FC30B12A483E49FFF71AFA7D
:1011B00004F01AFA45E03C4B1B68092B17DC254C60
:1011C00020463049FFF700FA284B1968204630398D
:1011D000FFF71AFA20463549FFF7F6F9324D204657
:1011E0002968FFF711FA2B6801332B6029E00125EC
:1011F0001B4B1D70164B1A682A441A60032003F01B
:1012000069FE144C20462A49FFF7DEF901A801F0D7
:101210008BF89DF804102046C1F10A010CF00EFA7B
:1012200020462449FFF7DEF920462349FFF7DAF983
:101230000D4800F073FB1C4B1D6002E0FFF7B2FE8F
:10124000A1E703B030BD00BF209AFF1F449EFF1FDF
:10125000EC96FF1FC4A8FF1F3C420100984201000A
:101260008C8CFF1FF8420100F498FF1FB496FF1FFB
:1012700014430100BC9AFF1FA4A8FF1FCC96FF1FB8
:10128000709EFF1F204301003843010054430100BA
:10129000F096FF1FD496FF1F7897FF1FBC96FF1F85
:1012A000DC96FF1F70430100848CFF1F8C430100FC
:1012B000B8430100D44301000C44010038B5724B1F
:1012C0001B78B3B107F0C2FB704B1B78F3B106F08B
:1012D000B1F86F4B19686F4B1B786F4A02FB03F232
:1012E0006E4B1B68CB1A9A4210D80022664B1A70BC
:1012F0000CE0674B1A686A4B1B68D31AB3F57A7F08
:1013000004D3624B1B78002B40F0A98003F000FE51
:10131000644B1A6840F2DC539A420CD90023624AAB
:101320001360624A1360624B1A6801321A603522F8
:10133000604B1A607FE0604B1A6840F2DC539A42BF
:101340000CD90023584A1360584A1360584B1A6846
:1013500001321A603222574B1A606CE0574B1A6800
:1013600040F2DC539A420CD900234F4A13604F4A93
:1013700013604F4B1A6801321A6031224D4B1A60CC
:1013800059E04F4B1A6840F2DC539A420CD90023C3
:10139000454A1360454A1360454B1A6801321A608A
:1013A0003322444B1A6046E0464B1A6840F2DC5345
:1013B0009A420CD900233C4A13603C4A13603C4BD0
:1013C0001A6801321A6034223A4B1A6033E03E4BFD
:1013D0001A6840F2DC539A420CD90023324A136057
:1013E000324A1360324B1A6801321A603622314B8E
:1013F0001A6020E02E4B1C6820460EF0F9FA4FF0E0
:101400007C510EF0B5FB08B1284B1C600022284B24
:101410001A60254B1A6801321A601B4B1B782BB9D6
:101420002A4B187800210BF0BDFF04E0274B1878F9
:1014300001210BF0B7FF1D4B1C68002C23DD1A4B5C
:1014400018680EF0D5FA4FF07C510EF091FBD0B138
:101450002046FFF7E1FD0022144B1A6038BD1C4DF9
:10146000284603F009FE1B4C23685B68204629468A
:101470000B22984720460CF081F8094B1A6802F5B8
:101480007A721A6042E738BD209AFF1FE499FF1F65
:10149000A4A8FF1F888CFF1FA0BB0D00CC96FF1FC8
:1014A0007497FF1FE099FF1FB096FF1FD096FF1F94
:1014B000B896FF1FB496FF1F1C9AFF1FE899FF1FE5
:1014C000EC99FF1FF099FF1FF499FF1F449EFF1F27
:1014D000DC3F0100C4A8FF1F08B50BF04BF809481A
:1014E0006421094A00F0F6F908483221084A00F060
:1014F000F1F9084B1968084A11601A68074B1A601D
:1015000008BD00BFBC96FF1FBD120000DC96FF1F88
:1015100065040000A4A8FF1F7497FF1FCC96FF1F4F
:101520002DE9F00FCAB001900A460023D078CC5CB8
:1015300040EA0460547840EA0440947840EA042089
:1015400003F128056C46285104330432402BEDD1B9
:101550000AAB0022986B59685D6A02F128076E4653
:10156000BC592C444FEA704585EAF04585EA902045
:1015700020444FEAF11484EAB14484EAD1010144E1
:10158000196404320433C02AE4D10199096D02912F
:10159000019A526D0392019B9B6D0493019CE46D33
:1015A0000594019D2D6E0695019E766E0796019F0E
:1015B000BF6E08970199C96E099189463D46B446A8
:1015C000069BA04604981446029A0021DFF8A8A0C2
:1015D00001F1280B6F465BF8076051F80A70374439
:1015E0004FEAB31686EAF32686EA7366374425EA9D
:1015F00003060CEA030B86EA0B063E444E4480EADF
:101600000407174000EA040987EA09074FEAB2090C
:1016100089EA723989EAB2594F44B0443E440431F0
:10162000B1F5807F08D0A94665469C464346804672
:10163000204614463246CBE702990E44019F3E6590
:1016400003990A447A65049A1444BC65059C2044B5
:10165000F865069A42443A66079E33447B66089BC7
:101660006344BB66099F3D44DDF804B0CBF86C5081
:101670004AB0BDE8F00F70474C44010000230364FA
:1016800000220023C0E912230A4B03650A4B43657D
:101690000A4B83650A4BC3650A4B03660A4B4366D4
:1016A0000A4B836603F17453A3F52303A3F6924315
:1016B000C366704767E6096A85AE67BB72F36E3C26
:1016C0003AF54FA57F520E518C68059BABD9831F0D
:1016D0002DE9F84306469046DAB10F4688444FF0AC
:1016E0000009336C17F8012BF25401333364402B9B
:1016F0000DD130463146FFF713FFD6E9124514F5F8
:10170000007445F10005C6E91245C6F8409047450A
:10171000E7D1BDE8F88300BF2DE9F84F8046894640
:10172000026C372A0CD8531C80218154372B1CD8CB
:1017300002440021013302F8011F382BFAD114E0D2
:10174000531C802181543F2B06D8024400210133D1
:1017500002F8011F402BFAD140464146FFF7E0FE58
:101760004046002138220EF085FDD8F84030D900DF
:10177000D8E91223521843F10003C8E9122388F86C
:101780003F20100A40EA0360190A88F83E00160C50
:1017900046EA03461F0C88F83D60140E44EA032411
:1017A0001D0E88F83C4088F83B3088F83A1088F8DD
:1017B000397088F8385040464146FFF7B1FE0322A1
:1017C000D300D8F85010D94089F80010D8F8541038
:1017D000D94089F80410D8F85810D94089F8081071
:1017E000D8F85C10D94089F80C10D8F86010D940AE
:1017F00089F81010D8F86410D94089F81410D8F876
:101800006810D94089F81810D8F86C1021FA03F341
:1018100089F81C30013A09F10109B2F1FF3FCFD13B
:10182000BDE8F88F026872B18A4209D1D3680360BB
:101830007047994201D01A4602E0CB68D3607047E6
:10184000D368002BF5D1704738B505460C46FFF735
:10185000E9FF2A680AB92C6004E0D3680BB11A4684
:10186000FBE7D4600BF0E4FD2368C01A606000233E
:10187000E36038BD38B50C460BF0DAFD054662680A
:1018800023681344984205D36268934208D2626881
:10189000904205D36268954206D26268934203D3B0
:1018A000A36820469847656038BD00BF38B5054637
:1018B000046834B128462146FFF7DCFFE468002CB9
:1018C000F8D138BD08B50248FFF7F0FF08BD00BFEA
:1018D0007897FF1F10B44FF47A7404FB01F1016094
:1018E000826000224260C2605DF8044B704700BF16
:1018F0000161002202730270704700BF01617047EE
:10190000037B0B2B07D05A1CD2B20273C1540023A5
:101910008354012070470020704700BF00230373E9
:101920000370704710B401690A78047800237AB90B
:10193000D4F1010038BF00200DE011F8012F10F89C
:10194000014F01330B2BF2D1002004E0002002E014
:10195000A242F2D0FAE75DF8044B70472DE9F04758
:101960009CB006460024DFF814810546335D04F878
:101970000830013428460EF063FF8442F6D96846E9
:10198000FFF77CFE28460EF05BFF024668463B49A7
:10199000FFF79EFE3A4803685B683A490B22984776
:1019A000394B5C1E03F11F08354F102600253846C1
:1019B00014F8011F32462B460BF004FE4445F6D1C5
:1019C0002F4C20460BF0DAFD68462F492022FFF706
:1019D0007FFEDFF8A89068464946FFF79DFE236822
:1019E0005B68204629490D22984709F1FF3409F127
:1019F0001F08234F10260025384614F8011F3246D1
:101A00002B460BF0DFFD4445F6D11D4C20460BF074
:101A1000B5FD23685B6820461D4909229847DFF819
:101A200074A00AF1FF340AF11F08154F1026002593
:101A3000384614F8011F32462B460BF0C3FD4445CF
:101A4000F6D10F480BF09AFD124B19780B4B1A7810
:101A50000AF11E00534604E0914214BF0020012009
:101A600009E0914206D113F8011F19F8012F8342B2
:101A7000F7D1F1E700201CB0BDE8F087FC97FF1F0D
:101A8000C4A8FF1F4C4501007C97FF1F584501006B
:101A900068450100BC97FF1F2DE9F8431C4C204608
:101AA0000BF06CFD23685B6820461A490C229847AE
:101AB000DFF8649009F1FF3409F11F08144F102674
:101AC0000025384614F8011F32462B460BF07AFDEC
:101AD0004445F6D10E480BF051FD0F4B1A780F48D4
:101AE000017809F11E044B4605E08A4214BF00202C
:101AF0000120BDE8F8838A4206D113F8012F10F8BF
:101B0000011FA342F7D1F0E70020BDE8F88300BF32
:101B1000C4A8FF1F74450100DC97FF1FFC97FF1F3F
:101B20002DE9F8431E4C20460BF028FD23685B6826
:101B300020461C490C229847DFF86C9009F1FF34CD
:101B400009F11F08164F10260025384614F8011F0A
:101B500032462B460BF036FD4445F6D110480BF0CB
:101B60000DFD114B1A781148017809F11E044B46FE
:101B700006E08A420DD101200D4B1870BDE8F883B4
:101B80008A4209D113F8012F10F8011FA342F7D19F
:101B9000EFE70020BDE8F8830020BDE8F88300BF30
:101BA000C4A8FF1F844501009C97FF1FFC97FF1FDF
:101BB000BC9AFF1F08B50AF0DDFC08BD70B40546ED
:101BC000064C0FCCE86429656A65AB652068E8655A
:101BD00000232B6685F8483070BC7047908CFF1F3F
:101BE0002DE9F00F86B0C36C0193076D0297436D2A
:101BF0000393876D0497C36D05931E463C46039976
:101C0000DDF808C0019D0E220023DFF808A1DFF8EF
:101C100008912CE00F2B24D903F00F0600EB860669
:101C200002F00F0808F1020850F82880B76887EA28
:101C30000808A2F1050B0BF00F0B0BF1020B50F88B
:101C40002BB088EA0B08A2F10B0B0BF00F0B0BF17A
:101C5000020B50F82BB088EA0B084FEAF878C6F868
:101C60000880013226460C466146AC46009D132B87
:101C70000CD884EA010808EA0C0888EA040808F18C
:101C8000B54808F51E3808F299181FE0272B05D82B
:101C900084EA010888EA0C08C84417E03B2B09D8FD
:101CA0004CEA010808EA04080CEA010748EA0708B8
:101CB000D0440BE084EA010888EA0C0808F14A489D
:101CC00008F5C50808F5834808F1560803F00F0722
:101CD000023750F8277007EBF5674744BE190096A6
:101CE0004FEABC0C0133DBB2502B93D1019B334440
:101CF000C364029B1D440565039B63444365049FC5
:101D000039448165059B1C44C46506B0BDE8F00FED
:101D1000704700BFDCBC1B8FA1EBD96E10B5044629
:101D200090F8483083F00302024411720133DBB2B1
:101D300080F84830402B04D1FFF752FF002384F88D
:101D4000483010BD08B5026E01320266FFF7E6FFAB
:101D5000012008BD38B504468021FFF7DFFF94F865
:101D60004830382B08D0002520462946FFF7D6FFFB
:101D700094F84830382BF7D120460021FFF7CEFFEA
:101D800020460021FFF7CAFF20460021FFF7C6FFCB
:101D9000216E2046490FFFF7C1FF216E2046C1F397
:101DA0004751FFF7BBFF216E2046C1F34731FFF7D4
:101DB000B5FF216E2046C1F34711FFF7AFFF236E39
:101DC000D900204601F0F801FFF7A8FF38BD00BF99
:101DD00038B50546FFF7BEFF2A460021D36C1C0E1E
:101DE00044EA0364180200F47F0004431B0A03F46E
:101DF0007F432343D364013104320529EED105F139
:101E00004C0038BDF8B505460C46164600F164078F
:101E10003846002140220EF02DFA402E1ADD2846C9
:101E2000FFF7CCFE46B126442B681B68284614F801
:101E3000011B9847B442F7D12846FFF7C9FF036852
:101E400044688168C2686B667C60B960FA60036947
:101E50003B6104E03846214632460AF02FF8284616
:101E6000FFF7ACFE05F1630405F1A3062B6814F837
:101E7000011F1B68284681F036019847B442F5D10E
:101E8000F8BD00BF70B50546FFF7A2FF02684668BF
:101E90008468C168C5F8A420C5F8A860C5F8AC403E
:101EA000C5F8B0100269C5F8B4202846FFF786FED1
:101EB00005F1630405F1A3062B6814F8011F1B68E4
:101EC000284681F05C019847B442F5D105F114062B
:101ED0002C462B681B68284694F8A41098470134B8
:101EE000B442F6D12846FFF773FF70BD024B0022C3
:101EF0001A71024A1A6070471C98FF1FA045010022
:101F000001604260704700BF70B50446224B83FBFE
:101F100001230B44C917C1EB231181600025057310
:101F200045738573C5730B0E03740B1443740B1246
:101F30008374C174194E304621686268FFF762FFEE
:101F400033685B68304604F10C010822984730463C
:101F5000FFF798FF6061C27C02F00F02A261E561A9
:101F60002B461044E2691202E261C15C0A43E2615D
:101F70000133042BF6D122F00043094A82FB0312FD
:101F80009214084901FB1232E261203420460649CE
:101F90000EF0B6FB204670BD898888881C98FF1F0C
:101FA00083DE1B4340420F00A84501002DE9F00FDE
:101FB0005B4BA3FB00425209C2EB0214A0EB84006E
:101FC0000870A3FB02A35B09C3EB0310A2EB800222
:101FD0004A70544CA4FB03084FEA181808EB480257
:101FE000A3EBC2038B70474608F104004E4AA0FBE6
:101FF0000223C21A03EB52039B08C3EBC303C01AAC
:102000000130C8700020024640F26D1C474C4FF072
:1020100064094FF4B77BC5B205F2B273ABB113F0EC
:10202000030F14D184FB03A6761109FB163686B97B
:1020300084FB03A6F6114FF4C87A06FB1A36002E6D
:102040000CBF4FF4B776664604E0664602E066468B
:1020500000E05E46324401309742DCD28D71CBB154
:1020600013F0030F19D1314880FB03404011642461
:1020700004FB1030A0B92D4880FB03A0C0114FF421
:10208000C87400FB1430002840F26D1408BF4FF4F0
:10209000B77407E040F26D1404E040F26D1401E003
:1020A0004FF4B774121BC2EB0804204F87FB0307E1
:1020B0004FEA671C642202FB1C3CFF114FF4C872FC
:1020C00002FB173700221A4E4FF01C0803F0030AD8
:1020D0004FF01D09D0B201280BD163B1BAF1000F46
:1020E0000BD1BCF1000F0AD1002F0CBF1D251C2500
:1020F00006E0955D04E0454602E0454600E04D46B9
:10210000A54205D8641B0130C0B201320C2AE1D1CE
:102110000130487101340C71BDE8F00F704700BF09
:1021200089888888ABAAAAAA254992241F85EB51E1
:10213000B045010010B50446044B1B68984204D01A
:102140000349FFF733FF014B1C6010BDD498FF1FFC
:10215000D898FF1F08B5FFF7EDFF024B987900F202
:10216000B27008BDD898FF1F074B1860074B1B685B
:102170001844074B18600222064B1A70064B1A6867
:10218000064B1A60704700BFE098FF1FA48CFF1F2A
:10219000F098FF1FE498FF1FA4A8FF1FEC98FF1FF3
:1021A00010B51C4B1A681C4B1B68D21AB2F57A7F0B
:1021B00011D31A4A12680132164C03F57A7321685A
:1021C000501CC91AB1F57A7F01D30246F5E71349CD
:1021D0000A60114A1360124B1A68104B1B689A422E
:1021E00014D8104B1B688BB1984710B1FFF7BCFF98
:1021F0000CE00D4B1A68094B1B681A44084B1A6017
:102200000A4B1A78003218BF01221A70034B186863
:1022100010BD00BFA4A8FF1FEC98FF1FE098FF1F90
:10222000F098FF1FE898FF1FA48CFF1FE498FF1F82
:1022300008B5FFF7B5FFFFF77DFF014B987808BDA4
:10224000D898FF1F08B5FFF7ABFFFFF773FF014BEF
:10225000587808BDD898FF1F08B5FFF7A1FFFFF712
:1022600069FF014B187808BDD898FF1F08B5FFF724
:1022700097FFFFF75FFF014B187908BDD898FF1F44
:1022800008B5FFF78DFFFFF755FF014B587908BDE3
:10229000D898FF1F08B5FFF783FFFFF75BFF08BD66
:1022A00008B5FFF77DFF014B187808BDE498FF1FC4
:1022B00070B516464AB10E440C46451A20460AF03F
:1022C00093F928550134B442F8D170BD70B5154664
:1022D00042B10C46461A2046315D0AF099F90134A4
:1022E000013DF8D170BD00BF08B540F2D97101229F
:1022F000FFF7DEFF012008BD08B540F2D9710122C9
:10230000FFF7E4FF08BD00BF08B540F2DA71012213
:10231000FFF7CEFF012008BD08B540F2DA710122B7
:10232000FFF7D4FF08BD00BF08B540F2DB71012202
:10233000FFF7BEFF012008BD08B540F2DB710122A6
:10234000FFF7C4FF08BD00BF08B540F2D5710222F7
:10235000FFF7AEFF022008BD08B540F2D57102229A
:10236000FFF7B4FF08BD00BF08B540F2D7710222E5
:10237000FFF79EFF022008BD08B540F2D771022288
:10238000FFF7A4FF08BD00BF08B54FF4FA610122B2
:10239000FFF78EFF012008BD08B54FF4FA61012256
:1023A000FFF794FF08BD00BF08B540F2D1710122CC
:1023B000FFF77EFF012008BD08B540F2D171012270
:1023C000FFF784FF08BD00BF08B540F2D2710122BB
:1023D000FFF76EFF012008BD08B540F2D27101225F
:1023E000FFF774FF08BD00BF08B540F2D3710122AA
:1023F000FFF75EFF012008BD08B540F2D37101224E
:10240000FFF764FF08BD00BF08B54FF4EB61012280
:10241000FFF74EFF012008BD08B54FF4EB61012224
:10242000FFF754FF08BD00BF08B540F25971012203
:10243000FFF73EFF012008BD08B540F259710122A7
:10244000FFF744FF08BD00BF08B540F25A710122F2
:10245000FFF72EFF012008BD08B540F25A71012296
:10246000FFF734FF08BD00BF08B540F25B710122E1
:10247000FFF71EFF012008BD08B540F25B71012285
:10248000FFF724FF08BD00BF08B540F25C710122D0
:10249000FFF70EFF012008BD08B540F25C71012274
:1024A000FFF714FF08BD00BF08B540F25D710122BF
:1024B000FFF7FEFE012008BD08B540F25D71012264
:1024C000FFF704FF08BD00BF08B540F25E710122AE
:1024D000FFF7EEFE012008BD08B540F25E71012253
:1024E000FFF7F4FE08BD00BF08B540F25F7101229E
:1024F000FFF7DEFE012008BD08B540F25F71012242
:10250000FFF7E4FE08BD00BF08B54FF4EC610122FF
:10251000FFF7CEFE012008BD08B54FF4EC610122A3
:10252000FFF7D4FE08BD00BF08B540F2617101227B
:10253000FFF7BEFE012008BD08B540F2617101221F
:10254000FFF7C4FE08BD00BF08B540F2627101226A
:10255000FFF7AEFE012008BD08B540F2627101220E
:10256000FFF7B4FE08BD00BF08B540F26371012259
:10257000FFF79EFE012008BD08B540F263710122FD
:10258000FFF7A4FE08BD00BF08B540F26471012248
:10259000FFF78EFE012008BD08B540F264710122EC
:1025A000FFF794FE08BD00BF08B540F26571012237
:1025B000FFF77EFE012008BD08B540F265710122DB
:1025C000FFF784FE08BD00BF08B540F26671012226
:1025D000FFF76EFE012008BD08B540F266710122CA
:1025E000FFF774FE08BD00BF08B540F26771012215
:1025F000FFF75EFE012008BD08B540F267710122B9
:10260000FFF764FE08BD00BF08B54FF4ED6101227D
:10261000FFF74EFE012008BD08B54FF4ED61012221
:10262000FFF754FE08BD00BF08B540F269710122F2
:10263000FFF73EFE012008BD08B540F26971012296
:10264000FFF744FE08BD00BF08B540F26A710122E1
:10265000FFF72EFE012008BD08B540F26A71012285
:10266000FFF734FE08BD00BF08B540F26B710122D0
:10267000FFF71EFE012008BD08B540F26B71012274
:10268000FFF724FE08BD00BF08B540F26C710122BF
:10269000FFF70EFE012008BD08B540F26C71012263
:1026A000FFF714FE08BD00BF08B540F26D710122AE
:1026B000FFF7FEFD012008BD08B540F26D71012253
:1026C000FFF704FE08BD00BF08B540F26E7101229D
:1026D000FFF7EEFD012008BD08B540F26E71012242
:1026E000FFF7F4FD08BD00BF08B540F26F7101228D
:1026F000FFF7DEFD012008BD08B540F26F71012231
:10270000FFF7E4FD08BD00BF08B54FF48261012268
:10271000FFF7CEFD012008BD08B54FF4826101220C
:10272000FFF7D4FD08BD00BF08B540F211410122FA
:10273000FFF7BEFD012008BD08B540F2114101229E
:10274000FFF7C4FD08BD00BF08B540F212410122E9
:10275000FFF7AEFD012008BD08B540F2124101228D
:10276000FFF7B4FD08BD00BF08B540F213410122D8
:10277000FFF79EFD012008BD08B540F2134101227C
:10278000FFF7A4FD08BD00BF08B540F214410122C7
:10279000FFF78EFD012008BD08B540F2144101226B
:1027A000FFF794FD08BD00BF08B540F215410122B6
:1027B000FFF77EFD012008BD08B540F2154101225A
:1027C000FFF784FD08BD00BF08B540F216410122A5
:1027D000FFF76EFD012008BD08B540F21641012249
:1027E000FFF774FD08BD00BF08B540F21741012294
:1027F000FFF75EFD012008BD08B540F21741012238
:10280000FFF764FD08BD00BF08B54FF483610122E6
:10281000FFF74EFD012008BD08B54FF4836101228A
:10282000FFF754FD08BD00BF08B540F21941012271
:10283000FFF73EFD012008BD08B540F21941012215
:10284000FFF744FD08BD00BF08B540F21A41012260
:10285000FFF72EFD012008BD08B540F21A41012204
:10286000FFF734FD08BD00BF08B540F21B4101224F
:10287000FFF71EFD012008BD08B540F21C410122F2
:10288000FFF716FD012008BD08B540F21C410122EA
:10289000FFF71CFD08BD00BF08B540F21D41012235
:1028A000FFF706FD012008BD08B540F21D410122D9
:1028B000FFF70CFD08BD00BF08B540F21E41012224
:1028C000FFF7F6FC012008BD08B540F21E410122C9
:1028D000FFF7FCFC08BD00BF08B540F21F41012214
:1028E000FFF7E6FC012008BD08B540F21F410122B8
:1028F000FFF7ECFC08BD00BF08B54FF4846101226E
:10290000FFF7D6FC012008BD08B54FF48461012211
:10291000FFF7DCFC08BD00BF08B540F221410122F1
:10292000FFF7C6FC012008BD08B540F22141012295
:10293000FFF7CCFC08BD00BF08B540F222410122E0
:10294000FFF7B6FC012008BD08B540F22241012284
:10295000FFF7BCFC08BD00BF08B540F223410122CF
:10296000FFF7A6FC012008BD08B540F22341012273
:10297000FFF7ACFC08BD00BF08B540F224410122BE
:10298000FFF796FC012008BD08B540F22441012262
:10299000FFF79CFC08BD00BF08B540F225410122AD
:1029A000FFF786FC012008BD08B540F22541012251
:1029B000FFF78CFC08BD00BF08B540F2264101229C
:1029C000FFF776FC012008BD08B540F22641012240
:1029D000FFF77CFC08BD00BF08B540F2274101228B
:1029E000FFF766FC012008BD08B540F2274101222F
:1029F000FFF76CFC08BD00BF08B54FF4F76101227A
:102A0000FFF756FC012008BD08B54FF4F76101221D
:102A1000FFF75CFC08BD00BF08B540F2B9710122A8
:102A2000FFF746FC012008BD08B540F2B97101224C
:102A3000FFF74CFC08BD00BF08B540F2BA71012297
:102A4000FFF736FC012008BD08B540F2BA7101223B
:102A5000FFF73CFC08BD00BF08B540F2BB71012286
:102A6000FFF726FC012008BD08B540F2BB7101222A
:102A7000FFF72CFC08BD00BF08B540F2BC71012275
:102A8000FFF716FC012008BD08B540F2BC71012219
:102A9000FFF71CFC08BD00BF08B540F2BD71012264
:102AA000FFF706FC012008BD08B540F2BD71012208
:102AB000FFF70CFC08BD00BF08B540F2BE71012253
:102AC000FFF7F6FB012008BD08B540F2BE710122F8
:102AD000FFF7FCFB08BD00BF08B540F2BF71012243
:102AE000FFF7E6FB012008BD08B540F2BF710122E7
:102AF000FFF7ECFB08BD00BF08B54FF4F8610122F9
:102B0000FFF7D6FB012008BD08B54FF4F86101229C
:102B1000FFF7DCFB08BD00BF08B540F2C171012220
:102B2000FFF7C6FB012008BD08B540F2C1710122C4
:102B3000FFF7CCFB08BD00BF08B540F2C27101220F
:102B4000FFF7B6FB012008BD08B540F2C2710122B3
:102B5000FFF7BCFB08BD00BF08B540F2C3710122FE
:102B6000FFF7A6FB012008BD08B540F2C3710122A2
:102B7000FFF7ACFB08BD00BF08B540F2C4710122ED
:102B8000FFF796FB012008BD08B540F2C471012291
:102B9000FFF79CFB08BD00BF08B540F2C5710122DC
:102BA000FFF786FB012008BD08B540F2C571012280
:102BB000FFF78CFB08BD00BF08B540F2C6710122CB
:102BC000FFF776FB012008BD08B540F2C67101226F
:102BD000FFF77CFB08BD00BF08B540F2C7710122BA
:102BE000FFF766FB012008BD08B540F2C77101225E
:102BF000FFF76CFB08BD00BF08B54FF4F961012277
:102C0000FFF756FB012008BD08B54FF4F96101221A
:102C1000FFF75CFB08BD00BF08B540F2C971012297
:102C2000FFF746FB012008BD08B540F2C97101223B
:102C3000FFF74CFB08BD00BF08B540F2CA71012286
:102C4000FFF736FB012008BD08B540F2CA7101222A
:102C5000FFF73CFB08BD00BF08B540F2CB71012275
:102C6000FFF726FB012008BD08B540F2CB71012219
:102C7000FFF72CFB08BD00BF08B540F2CC71012264
:102C8000FFF716FB012008BD08B540F2CC71012208
:102C9000FFF71CFB08BD00BF08B540F2CD71012253
:102CA000FFF706FB012008BD08B540F2CD710122F7
:102CB000FFF70CFB08BD00BF08B540F2CE71012242
:102CC000FFF7F6FA012008BD08B540F2CE710122E7
:102CD000FFF7FCFA08BD00BF08B540F2CF71012232
:102CE000FFF7E6FA012008BD08B540F2CF710122D6
:102CF000FFF7ECFA08BD00BF10B582B004460DF135
:102D00000700FFF741FB9DF80730102B06D1204646
:102D100002211022FFF7CCFA102000E0002002B0C0
:102D200010BD00BF10B582B00C4602211022FFF783
:102D3000CDFA102CA8BF102402A800F8014DFFF70F
:102D40002BFB02B010BD00BF10B582B004460DF1E0
:102D50000700FFF729FB9DF80730022B06D120461C
:102D60001E210222FFF7A4FA022000E0002002B098
:102D700010BD00BF00B583B01E210222FFF7A6FAE6
:102D800002A8022300F8013DFFF716FB03B05DF82F
:102D900004FB00BF10B582B004460DF10700FFF739
:102DA00013FB9DF80730062B06D12046182106227A
:102DB000FFF77EFA062000E0002002B010BD00BF41
:102DC00000B583B018210622FFF780FA02A8062377
:102DD00000F8013DFFF700FB03B05DF804FB00BF06
:102DE00030B583B005460DF10700FFF7FDFA9DF8F9
:102DF0000740284612210622FFF75AFA062CB4BFD4
:102E00002046062003B030BD10B582B00C4612211A
:102E10000622FFF75BFA062CA8BF062402A800F8DA
:102E2000014DFFF7E9FA02B010BD00BF30B583B025
:102E300004460139172900F2B281DFE811F01800C9
:102E400029003A004B005C006D007E008F00A0005E
:102E5000B100C200D300E400F5000601170128010B
:102E600039014A015B016C017D018E019F010DF169
:102E70000700FFF7C9FA9DF80750202DA8BF2025AD
:102E800020464FF48B612022FFF712FA284686E194
:102E90000DF10700FFF7C8FA9DF80750202DA8BFD5
:102EA000202520464FF48F612022FFF701FA2846A3
:102EB00075E10DF10700FFF7C7FA9DF80750202DC7
:102EC000A8BF202520464FF493612022FFF7F0F998
:102ED000284664E10DF10700FFF7C6FA9DF8075098
:102EE000202DA8BF202520464FF497612022FFF710
:102EF000DFF9284653E10DF10700FFF7C5FA9DF809
:102F00000750202DA8BF202520464FF49B6120228A
:102F1000FFF7CEF9284642E10DF10700FFF7C4FAAA
:102F20009DF80750202DA8BF202520464FF49F6113
:102F30002022FFF7BDF9284631E10DF10700FFF728
:102F4000C3FA9DF80750202DA8BF202520464FF436
:102F5000A3612022FFF7ACF9284620E10DF107001C
:102F6000FFF7C2FA9DF80750202DA8BF2025204664
:102F70004FF4A7612022FFF79BF928460FE10DF1DE
:102F80000700FFF7C1FA9DF80750202DA8BF2025A4
:102F900020464FF4AB612022FFF78AF92846FEE075
:102FA0000DF10700FFF7C0FA9DF80750202DA8BFCC
:102FB000202520464FF4AF612022FFF779F92846FB
:102FC000EDE00DF10700FFF7BFFA9DF80750202D47
:102FD000A8BF202520464FF4B3612022FFF768F9EF
:102FE0002846DCE00DF10700FFF7BEFA9DF8075018
:102FF000202DA8BF202520464FF4B7612022FFF7DF
:1030000057F92846CBE00DF10700FFF7BDFA9DF810
:103010000750202DA8BF202520464FF4BB61202259
:10302000FFF746F92846BAE00DF10700FFF7BCFAB2
:103030009DF80750202DA8BF202520464FF4BF61E2
:103040002022FFF735F92846A9E00DF10700FFF728
:10305000BBFA9DF80750202DA8BF202520464FF42D
:10306000C3612022FFF724F9284698E00DF10700FC
:10307000FFF7BAFA9DF80750202DA8BF202520465B
:103080004FF4C7612022FFF713F9284687E00DF1BE
:103090000700FFF7B9FA9DF80750202DA8BF20259B
:1030A00020464FF4CB612022FFF702F9284676E054
:1030B0000DF10700FFF7B8FA9DF80750202DA8BFC3
:1030C000202520464FF4CF612022FFF7F1F8284653
:1030D00065E00DF10700FFF7B7FA9DF80750202DC6
:1030E000A8BF202520464FF4D3612022FFF7E0F847
:1030F000284654E00DF10700FFF7B6FA9DF8075097
:10310000202DA8BF202520464FF4D7612022FFF7AD
:10311000CFF8284643E00DF10700FFF7B5FA9DF818
:103120000750202DA8BF202520464FF4DB61202228
:10313000FFF7BEF8284632E00DF10700FFF7B4FABA
:103140009DF80750202DA8BF202520464FF4DF61B1
:103150002022FFF7ADF8284621E00DF10700FFF728
:10316000B3FA9DF80750202DA8BF202520464FF424
:10317000E3612022FFF79CF8284610E00DF10700DC
:10318000FFF7B2FA9DF80750202DA8BF2025204652
:103190004FF4E7612022FFF78BF82846FFE703B0E2
:1031A00030BD00BF10B582B00C46013A172A00F2BC
:1031B0006981DFE812F01800260034004200500058
:1031C0005E006C007A0088009600A400B200C00087
:1031D000CE00DC00EA00F8000601140122013001F3
:1031E0003E014C015A014FF48B612022FFF76EF82B
:1031F000202CA8BF202402A800F8014DFFF70CF9ED
:1032000040E14FF48F612022FFF760F8202CA8BF27
:10321000202402A800F8014DFFF70EF932E14FF427
:1032200093612022FFF752F8202CA8BF202402A887
:1032300000F8014DFFF710F924E14FF497612022C7
:10324000FFF744F8202CA8BF202402A800F8014D65
:10325000FFF712F916E14FF49B612022FFF736F8D1
:10326000202CA8BF202402A800F8014DFFF714F974
:1032700008E14FF49F612022FFF728F8202CA8BF17
:10328000202402A800F8014DFFF716F9FAE04FF4E8
:10329000A3612022FFF71AF8202CA8BF202402A83F
:1032A00000F8014DFFF718F9ECE04FF4A761202278
:1032B000FFF70CF8202CA8BF202402A800F8014D2D
:1032C000FFF71AF9DEE04FF4AB612022FEF7FEFFB4
:1032D000202CA8BF202402A800F8014DFFF71CF9FC
:1032E000D0E04FF4AF612022FEF7F0FF202CA8BF02
:1032F000202402A800F8014DFFF71EF9C2E04FF4A8
:10330000B3612022FEF7E2FF202CA8BF202402A8F0
:1033100000F8014DFFF720F9B4E04FF4B761202227
:10332000FEF7D4FF202CA8BF202402A800F8014DEE
:10333000FFF712F9A6E04FF4BB612022FEF7C6FFAB
:10334000202CA8BF202402A800F8014DFFF724F983
:1033500098E04FF4BF612022FEF7B8FF202CA8BFF1
:10336000202402A800F8014DFFF726F98AE04FF467
:10337000C3612022FEF7AAFF202CA8BF202402A8A8
:1033800000F8014DFFF728F97CE04FF4C7612022D7
:10339000FEF79CFF202CA8BF202402A800F8014DB6
:1033A000FFF72AF96EE04FF4CB612022FEF78EFF83
:1033B000202CA8BF202402A800F8014DFFF72CF90B
:1033C00060E04FF4CF612022FEF780FF202CA8BFE1
:1033D000202402A800F8014DFFF72EF952E04FF427
:1033E000D3612022FEF772FF202CA8BF202402A860
:1033F00000F8014DFFF730F944E04FF4D761202287
:10340000FEF764FF202CA8BF202402A800F8014D7D
:10341000FFF732F936E04FF4DB612022FEF756FF6A
:10342000202CA8BF202402A800F8014DFFF734F992
:1034300028E04FF4DF612022FEF748FF202CA8BFD0
:10344000202402A800F8014DFFF736F91AE04FF4E6
:10345000E3612022FEF73AFF202CA8BF202402A817
:1034600000F8014DFFF738F90CE04FF4E761202236
:10347000FEF72CFF202CA8BF202402A800F8014D45
:10348000FFF73AF902B010BD08B50139172900F26B
:103490008780DFE801F00C11161B20252A2F343914
:1034A0003E43484D52575C61666B70757A7F2021B0
:1034B0000A22FEF7FDFE74E02A210A22FEF7F8FE3A
:1034C0006FE034210A22FEF7F3FE6AE03E210A2271
:1034D000FEF7EEFE65E048210A22FEF7E9FE60E015
:1034E00052210A22FEF7E4FE5BE05C210A22FEF78D
:1034F000DFFE56E066210A22FEF7DAFE51E0702177
:103500000A22FEF7D5FE4CE07A210A22FEF7D0FE11
:1035100047E084210A22FEF7CBFE42E08E210A22F8
:10352000FEF7C6FE3DE098210A22FEF7C1FE38E014
:10353000A2210A22FEF7BCFE33E0AC210A22FEF7EC
:10354000B7FE2EE0B6210A22FEF7B2FE29E0C02126
:103550000A22FEF7ADFE24E0CA210A22FEF7A8FEE9
:103560001FE0D4210A22FEF7A3FE1AE0DE210A2280
:10357000FEF79EFE15E0E8210A22FEF799FE10E014
:10358000F2210A22FEF794FE0BE0FC210A22FEF74C
:103590008FFE06E04FF483710A22FEF789FE00E0F9
:1035A00008BD0A2008BD00BF08B5013A172A00F27D
:1035B0008680DFE802F00C11161B20252A2F3439F3
:1035C0003E43484D52575C61666B70757A7F20218F
:1035D0000A22FEF77BFE08BD2A210A22FEF776FEAC
:1035E00008BD34210A22FEF771FE08BD3E210A22E1
:1035F000FEF76CFE08BD48210A22FEF767FE08BDF3
:1036000052210A22FEF762FE08BD5C210A22FEF763
:103610005DFE08BD66210A22FEF758FE08BD702136
:103620000A22FEF753FE08BD7A210A22FEF74EFE5B
:1036300008BD84210A22FEF749FE08BD8E210A2218
:10364000FEF744FE08BD98210A22FEF73FFE08BDA2
:10365000A2210A22FEF73AFE08BDAC210A22FEF79B
:1036600035FE08BDB6210A22FEF730FE08BDC02196
:103670000A22FEF72BFE08BDCA210A22FEF726FE0B
:1036800008BDD4210A22FEF721FE08BDDE210A2250
:10369000FEF71CFE08BDE8210A22FEF717FE08BD52
:1036A000F2210A22FEF712FE08BDFC210A22FEF7D3
:1036B0000DFE08BD4FF483710A22FEF707FE08BD18
:1036C00008B50139172900F29E80DFE801F00C12DD
:1036D000181E242A30363C42484E545A60666C729A
:1036E000787E848A90964FF485610122FEF7E0FD92
:1036F0008AE040F229410122FEF7DAFD84E040F23F
:103700002A410122FEF7D4FD7EE040F22B41012246
:10371000FEF7CEFD78E040F22C410122FEF7C8FD15
:1037200072E040F22D410122FEF7C2FD6CE040F252
:103730002E410122FEF7BCFD66E040F22F4101223E
:10374000FEF7B6FD60E04FF486610122FEF7B0FDA2
:103750005AE040F231410122FEF7AAFD54E040F266
:1037600032410122FEF7A4FD4EE040F23341012236
:10377000FEF79EFD48E040F234410122FEF798FD3D
:1037800042E040F235410122FEF792FD3CE040F27A
:1037900036410122FEF78CFD36E040F2374101222E
:1037A000FEF786FD30E04FF487610122FEF780FDD1
:1037B0002AE040F239410122FEF77AFD24E040F28E
:1037C0003A410122FEF774FD1EE040F23B41012226
:1037D000FEF76EFD18E040F23C410122FEF768FD65
:1037E00012E040F23D410122FEF762FD0CE040F2A2
:1037F0003E410122FEF75CFD06E040F23F4101221E
:10380000FEF756FD00E008BD012008BD08B50139EE
:10381000172900F29D80DFE801F00C12181E242AFF
:1038200030363C42484E545A60666C72787E848AC8
:1038300090964FF485610122FEF748FD08BD40F2E5
:1038400029410122FEF742FD08BD40F22A41012232
:10385000FEF73CFD08BD40F22B410122FEF736FD8C
:1038600008BD40F22C410122FEF730FD08BD40F2B8
:103870002D410122FEF72AFD08BD40F22E41012212
:10388000FEF724FD08BD40F22F410122FEF71EFD88
:1038900008BD4FF486610122FEF718FD08BD40F215
:1038A00031410122FEF712FD08BD40F232410122F2
:1038B000FEF70CFD08BD40F233410122FEF706FD84
:1038C00008BD40F234410122FEF700FD08BD40F280
:1038D00035410122FEF7FAFC08BD40F236410122D3
:1038E000FEF7F4FC08BD40F237410122FEF7EEFC82
:1038F00008BD4FF487610122FEF7E8FC08BD40F2E5
:1039000039410122FEF7E2FC08BD40F23A410122B2
:10391000FEF7DCFC08BD40F23B410122FEF7D6FC7D
:1039200008BD40F23C410122FEF7D0FC08BD40F248
:103930003D410122FEF7CAFC08BD40F23E41012292
:10394000FEF7C4FC08BD40F23F410122FEF7BEFC79
:1039500008BD00BF08B50139172900F29E80DFE8D5
:1039600001F00C12181E242A30363C42484E545A9C
:1039700060666C72787E848A90964FF4EE610122C4
:10398000FEF796FC8AE040F271710122FEF790FC8E
:1039900084E040F272710122FEF78AFC7EE040F280
:1039A00073710122FEF784FC78E040F27471012209
:1039B000FEF77EFC72E040F275710122FEF778FCA2
:1039C0006CE040F276710122FEF772FC66E040F294
:1039D00077710122FEF76CFC60E04FF4EF61012289
:1039E000FEF766FC5AE040F279710122FEF760FCB6
:1039F00054E040F27A710122FEF75AFC4EE040F2A8
:103A00007B710122FEF754FC48E040F27C710122F8
:103A1000FEF74EFC42E040F27D710122FEF748FCC9
:103A20003CE040F27E710122FEF742FC36E040F2BB
:103A30007F710122FEF73CFC30E04FF4F06101227F
:103A4000FEF736FC2AE040F281710122FEF730FCDD
:103A500024E040F282710122FEF72AFC1EE040F2CF
:103A600083710122FEF724FC18E040F284710122E8
:103A7000FEF71EFC12E040F285710122FEF718FCF1
:103A80000CE040F286710122FEF712FC06E040F2E3
:103A900087710122FEF70CFC00E008BD012008BD83
:103AA00008B50139172900F29D80DFE801F00C12FA
:103AB000181E242A30363C42484E545A60666C72B6
:103AC000787E848A90964FF4EE610122FEF7FEFB29
:103AD00008BD40F271710122FEF7F8FB08BD40F20B
:103AE00072710122FEF7F2FB08BD40F273710122F0
:103AF000FEF7ECFB08BD40F274710122FEF7E6FB15
:103B000008BD40F275710122FEF7E0FB08BD40F2EE
:103B100076710122FEF7DAFB08BD40F277710122CF
:103B2000FEF7D4FB08BD4FF4EF610122FEF7CEFB98
:103B300008BD40F279710122FEF7C8FB08BD40F2D2
:103B40007A710122FEF7C2FB08BD40F27B710122AF
:103B5000FEF7BCFB08BD40F27C710122FEF7B6FB0C
:103B600008BD40F27D710122FEF7B0FB08BD40F2B6
:103B70007E710122FEF7AAFB08BD40F27F7101228F
:103B8000FEF7A4FB08BD4FF4F0610122FEF79EFB97
:103B900008BD40F281710122FEF798FB08BD40F29A
:103BA00082710122FEF792FB08BD40F2837101226F
:103BB000FEF78CFB08BD40F284710122FEF786FB04
:103BC00008BD40F285710122FEF780FB08BD40F27E
:103BD00086710122FEF77AFB08BD40F2877101224F
:103BE000FEF774FB08BD00BF08B50139172900F2C4
:103BF0009E80DFE801F00C12181E242A30363C4269
:103C0000484E545A60666C72787E848A90964FF45F
:103C100088610122FEF74CFB8AE040F2414101221B
:103C2000FEF746FB84E040F242410122FEF740FBF2
:103C30007EE040F243410122FEF73AFB78E040F299
:103C400044410122FEF734FB72E040F2454101227B
:103C5000FEF72EFB6CE040F246410122FEF728FB06
:103C600066E040F247410122FEF722FB60E04FF49C
:103C700089610122FEF71CFB5AE040F24941012212
:103C8000FEF716FB54E040F24A410122FEF710FB1A
:103C90004EE040F24B410122FEF70AFB48E040F2C1
:103CA0004C410122FEF704FB42E040F24D4101226B
:103CB000FEF7FEFA3CE040F24E410122FEF7F8FA30
:103CC00036E040F24F410122FEF7F2FA30E04FF4C5
:103CD0008A610122FEF7ECFA2AE040F2514101220A
:103CE000FEF7E6FA24E040F252410122FEF7E0FA44
:103CF0001EE040F253410122FEF7DAFA18E040F2EA
:103D000054410122FEF7D4FA12E040F2554101225B
:103D1000FEF7CEFA0CE040F256410122FEF7C8FA57
:103D200006E040F257410122FEF7C2FA00E008BD6A
:103D3000012008BD08B50139172900F29D80DFE890
:103D400001F00C12181E242A30363C42484E545AB8
:103D500060666C72787E848A90964FF48861012246
:103D6000FEF7B4FA08BD40F241410122FEF7AEFA77
:103D700008BD40F242410122FEF7A8FA08BD40F218
:103D800043410122FEF7A2FA08BD40F2444101225C
:103D9000FEF79CFA08BD40F245410122FEF796FA73
:103DA00008BD40F246410122FEF790FA08BD40F2FC
:103DB00047410122FEF78AFA08BD4FF489610122CA
:103DC000FEF784FA08BD40F249410122FEF77EFA6F
:103DD00008BD40F24A410122FEF778FA08BD40F2E0
:103DE0004B410122FEF772FA08BD40F24C4101221C
:103DF000FEF76CFA08BD40F24D410122FEF766FA6B
:103E000008BD40F24E410122FEF760FA08BD40F2C3
:103E10004F410122FEF75AFA08BD4FF48A61012290
:103E2000FEF754FA08BD40F251410122FEF74EFA66
:103E300008BD40F252410122FEF748FA08BD40F2A7
:103E400053410122FEF742FA08BD40F254410122DB
:103E5000FEF73CFA08BD40F255410122FEF736FA62
:103E600008BD40F256410122FEF730FA08BD40F28B
:103E700057410122FEF72AFA08BD00BF08B50139F3
:103E8000172900F29E80DFE801F00C12181E242A88
:103E900030363C42484E545A60666C72787E848A52
:103EA00090964FF4F1610122FEF702FA8AE040F2A7
:103EB00089710122FEF7FCF984E040F28A71012247
:103EC000FEF7F6F97EE040F28B710122FEF7F0F981
:103ED00078E040F28C710122FEF7EAF972E040F2DC
:103EE0008D710122FEF7E4F96CE040F28E7101223F
:103EF000FEF7DEF966E040F28F710122FEF7D8F995
:103F000060E04FF4F2610122FEF7D2F95AE040F28C
:103F100091710122FEF7CCF954E040F29271012236
:103F2000FEF7C6F94EE040F293710122FEF7C0F9A8
:103F300048E040F294710122FEF7BAF942E040F203
:103F400095710122FEF7B4F93CE040F2967101222E
:103F5000FEF7AEF936E040F297710122FEF7A8F9BC
:103F600030E04FF4F3610122FEF7A2F92AE040F2BB
:103F700099710122FEF79CF924E040F29A71012226
:103F8000FEF796F91EE040F29B710122FEF790F9D0
:103F900018E040F29C710122FEF78AF912E040F22B
:103FA0009D710122FEF784F90CE040F29E7101221E
:103FB000FEF77EF906E040F29F710122FEF778F9E4
:103FC00000E008BD012008BD08B50139172900F23D
:103FD0009D80DFE801F00C12181E242A30363C4286
:103FE000484E545A60666C72787E848A90964FF47C
:103FF000F1610122FEF76AF908BD40F289710122E0
:10400000FEF764F908BD40F28A710122FEF75EF9FD
:1040100008BD40F28B710122FEF758F908BD40F24D
:104020008C710122FEF752F908BD40F28D71012218
:10403000FEF74CF908BD40F28E710122FEF746F9F9
:1040400008BD40F28F710122FEF740F908BD4FF420
:10405000F2610122FEF73AF908BD40F291710122A6
:10406000FEF734F908BD40F292710122FEF72EF9F5
:1040700008BD40F293710122FEF728F908BD40F215
:1040800094710122FEF722F908BD40F295710122D8
:10409000FEF71CF908BD40F296710122FEF716F9F1
:1040A00008BD40F297710122FEF710F908BD4FF4E8
:1040B000F3610122FEF70AF908BD40F2997101226D
:1040C000FEF704F908BD40F29A710122FEF7FEF8EE
:1040D00008BD40F29B710122FEF7F8F808BD40F2DE
:1040E0009C710122FEF7F2F808BD40F29D71012299
:1040F000FEF7ECF808BD40F29E710122FEF7E6F8EB
:1041000008BD40F29F710122FEF7E0F808BD00BF34
:1041100008B50139172900F29E80DFE801F00C1282
:10412000181E242A30363C42484E545A60666C723F
:10413000787E848A90964FF4F4610122FEF7B8F8F5
:104140008AE040F2A1710122FEF7B2F884E040F269
:10415000A2710122FEF7ACF87EE040F2A3710122C9
:10416000FEF7A6F878E040F2A4710122FEF7A0F86D
:1041700072E040F2A5710122FEF79AF86CE040F27D
:10418000A6710122FEF794F866E040F2A7710122C1
:10419000FEF78EF860E04FF4F5610122FEF788F833
:1041A0005AE040F2A9710122FEF782F854E040F291
:1041B000AA710122FEF77CF84EE040F2AB710122B9
:1041C000FEF776F848E040F2AC710122FEF770F895
:1041D00042E040F2AD710122FEF76AF83CE040F2A5
:1041E000AE710122FEF764F836E040F2AF710122B1
:1041F000FEF75EF830E04FF4F6610122FEF758F862
:104200002AE040F2B1710122FEF752F824E040F2B8
:10421000B2710122FEF74CF81EE040F2B3710122A8
:10422000FEF746F818E040F2B4710122FEF740F8BC
:1042300012E040F2B5710122FEF73AF80CE040F2CC
:10424000B6710122FEF734F806E040F2B7710122A0
:10425000FEF72EF800E008BD012008BD08B50139C1
:10426000172900F29D80DFE801F00C12181E242AA5
:1042700030363C42484E545A60666C72787E848A6E
:1042800090964FF4F4610122FEF720F808BD40F249
:10429000A1710122FEF71AF808BD40F2A2710122B5
:1042A000FEF714F808BD40F2A3710122FEF70EF8E4
:1042B00008BD40F2A4710122FEF708F808BD40F2E3
:1042C000A5710122FEF702F808BD40F2A671012295
:1042D000FDF7FCFF08BD40F2A7710122FDF7F6FFD4
:1042E00008BD4FF4F5610122FDF7F0FF08BD40F273
:1042F000A9710122FDF7EAFF08BD40F2AA7101226F
:10430000FDF7E4FF08BD40F2AB710122FDF7DEFFCF
:1043100008BD40F2AC710122FDF7D8FF08BD40F2A4
:10432000AD710122FDF7D2FF08BD40F2AE7101224E
:10433000FDF7CCFF08BD40F2AF710122FDF7C6FFCB
:1043400008BD4FF4F6610122FDF7C0FF08BD40F241
:10435000B1710122FDF7BAFF08BD40F2B27101222E
:10436000FDF7B4FF08BD40F2B3710122FDF7AEFFC7
:1043700008BD40F2B4710122FDF7A8FF08BD40F26C
:10438000B5710122FDF7A2FF08BD40F2B67101220E
:10439000FDF79CFF08BD40F2B7710122FDF796FFC3
:1043A00008BD00BF30B583B004460139172900F2BB
:1043B000B281DFE811F0180029003A004B005C00E0
:1043C0006D007E008F00A000B100C200D300E400A9
:1043D000F50006011701280139014A015B016C0152
:1043E0007D018E019F010DF10700FEF78DF99DF80B
:1043F0000750202DA8BF202520464FF48871202289
:10440000FDF756FF284686E10DF10700FEF78CF90F
:104410009DF80750202DA8BF202520464FF4987105
:104420002022FDF745FF284675E10DF10700FEF754
:104430008BF99DF80750202DA8BF202520464FF46A
:10444000A8712022FDF734FF284664E10DF1070032
:10445000FEF78AF99DF80750202DA8BF2025204699
:104460004FF4B8712022FDF723FF284653E10DF1E8
:104470000700FEF789F99DF80750202DA8BF2025D9
:1044800020464FF4C8712022FDF712FF284642E172
:104490000DF10700FEF788F99DF80750202DA8BF01
:1044A000202520464FF4D8712022FDF701FF284631
:1044B00031E10DF10700FEF787F99DF80750202D37
:1044C000A8BF202520464FF4E8712022FDF7F0FE1A
:1044D000284620E10DF10700FEF786F99DF8075008
:1044E000202DA8BF202520464FF4F8712022FDF78B
:1044F000DFFE28460FE10DF10700FEF785F99DF874
:104500000750202DA8BF202520464FF404712022FB
:10451000FDF7CEFE2846FEE00DF10700FEF784F918
:104520009DF80750202DA8BF202520464FF40C7180
:104530002022FDF7BDFE2846EDE00DF10700FEF755
:1045400083F99DF80750202DA8BF202520464FF461
:1045500014712022FDF7ACFE2846DCE00DF10700C7
:10456000FEF782F99DF80750202DA8BF2025204690
:104570004FF41C712022FDF79BFE2846CBE00DF185
:104580000700FEF779F99DF80750202DA8BF2025D8
:1045900020464FF424712022FDF78AFE2846BAE017
:1045A0000DF10700FEF778F99DF80750202DA8BF00
:1045B000202520464FF42C712022FDF779FE284655
:1045C000A9E00DF10700FEF777F99DF80750202DBF
:1045D000A8BF202520464FF434712022FDF768FE45
:1045E000284698E00DF10700FEF776F99DF8075090
:1045F000202DA8BF202520464FF43C712022FDF736
:1046000057FE284687E00DF10700FEF775F99DF883
:104610000750202DA8BF202520464FF444712022AA
:10462000FDF746FE284676E00DF10700FEF774F927
:104630009DF80750202DA8BF202520464FF44C712F
:104640002022FDF735FE284665E00DF10700FEF754
:1046500073F99DF80750202DA8BF202520464FF460
:1046600054712022FDF724FE284654E00DF1070086
:10467000FEF772F99DF80750202DA8BF202520468F
:104680004FF45C712022FDF713FE284643E00DF144
:104690000700FEF771F99DF80750202DA8BF2025CF
:1046A00020464FF464712022FDF702FE284632E0D6
:1046B0000DF10700FEF770F99DF80750202DA8BFF7
:1046C000202520464FF46C712022FDF7F1FD28468D
:1046D00021E00DF10700FEF76FF99DF80750202D3E
:1046E000A8BF202520464FF474712022FDF7E0FD7D
:1046F000284610E00DF10700FEF76EF99DF807500F
:10470000202DA8BF202520464FF47C712022FDF7E4
:10471000CFFD2846FFE703B030BD00BF10B582B023
:104720000C46013A172A00F26981DFE812F01800FE
:1047300026003400420050005E006C007A008800C1
:104740009600A400B200C000CE00DC00EA00F80031
:1047500006011401220130013E014C015A014FF4BF
:1047600088712022FDF7B2FD202CA8BF202402A8CA
:1047700000F8014DFDF7D0FF40E14FF49871202281
:10478000FDF7A4FD202CA8BF202402A800F8014DAD
:10479000FDF7D2FF32E14FF4A8712022FDF796FD1C
:1047A000202CA8BF202402A800F8014DFDF7D4FF5B
:1047B00024E14FF4B8712022FDF788FD202CA8BF1A
:1047C000202402A800F8014DFDF7D6FF16E14FF4B2
:1047D000C8712022FDF77AFD202CA8BF202402A852
:1047E00000F8014DFDF7D8FF08E14FF4D871202201
:1047F000FDF76CFD202CA8BF202402A800F8014D75
:10480000FDF7DAFFFAE04FF4E8712022FDF75EFDD4
:10481000202CA8BF202402A800F8014DFDF7DCFFE2
:10482000ECE04FF4F8712022FDF750FD202CA8BFDA
:10483000202402A800F8014DFDF7DEFFDEE04FF472
:1048400004712022FDF742FD202CA8BF202402A8DD
:1048500000F8014DFDF7E0FFD0E04FF40C7120228D
:10486000FDF734FD202CA8BF202402A800F8014D3C
:10487000FDF7E2FFC2E04FF414712022FDF726FDA0
:10488000202CA8BF202402A800F8014DFDF7E4FF6A
:10489000B4E04FF41C712022FDF718FD202CA8BFB6
:1048A000202402A800F8014DFDF7D6FFA6E04FF442
:1048B00024712022FDF70AFD202CA8BF202402A885
:1048C00000F8014DFDF7E0FF98E04FF42C71202235
:1048D000FDF7FCFC202CA8BF202402A800F8014D05
:1048E000FDF7E2FF8AE04FF434712022FDF7EEFC81
:1048F000202CA8BF202402A800F8014DFDF7E4FFFA
:104900007CE04FF43C712022FDF7E0FC202CA8BF96
:10491000202402A800F8014DFDF7E6FF6EE04FF4F9
:1049200044712022FDF7D2FC202CA8BF202402A82D
:1049300000F8014DFDF7E8FF60E04FF44C712022D4
:10494000FDF7C4FC202CA8BF202402A800F8014DCC
:10495000FDF7EAFF52E04FF454712022FDF7B6FC58
:10496000202CA8BF202402A800F8014DFDF7ECFF81
:1049700044E04FF45C712022FDF7A8FC202CA8BF76
:10498000202402A800F8014DFDF7EEFF36E04FF4B9
:1049900064712022FDF79AFC202CA8BF202402A8D5
:1049A00000F8014DFDF7F0FF28E04FF46C71202274
:1049B000FDF78CFC202CA8BF202402A800F8014D94
:1049C000FDF7F2FF1AE04FF474712022FDF77EFC30
:1049D000202CA8BF202402A800F8014DFDF7F4FF09
:1049E0000CE04FF47C712022FDF770FC202CA8BF56
:1049F000202402A800F8014DFDF7F6FF02B010BD1B
:104A000070B4094B03F130040848002601681A7994
:104A10002AB19A68891AB1F57A7FC8BF1E710C3322
:104A2000A342F3D170BC70478C9AFF1FA4A8FF1F4C
:104A300010B40120002408492346CA18127922B173
:104A40005A58824201D10130F6E70C33302BF4D1B1
:104A50005DF8044B704700BF8C9AFF1F10B50446E9
:104A600010B9FFF7E5FF0446164B1B795BB1154BF8
:104A70001B7C43B1134B1B7F2BB1124B93F8283097
:104A80000BB1FFF7BDFF0F4B1B797BB10D4B1B7CAF
:104A900043B10C4B1B7F3BB10A4B93F8283073B9E1
:104AA000094B04E0094B02E0094B00E0054B1C6098
:104AB00001221A71074A12689A60204610BD002030
:104AC00010BD00BF8C9AFF1FB09AFF1F989AFF1F5E
:104AD000A49AFF1FA4A8FF1FF0B583B00446304D71
:104AE0002B685B6828462F490D2298472668019657
:104AF000284631461022002308F064FD284608F0BD
:104B00003DFD6579A37943EA0525274B20681860A8
:104B100022791A7100225A7111229A71D81DE11D51
:104B20002A4607F0CBF9EF1DB6F1FF3F04D1002074
:104B3000FFF794FF01900CE0194C23685B68204656
:104B40001A4912229847204608F018FD3046FFF710
:104B500085FF154E0198F05172190223D37201237B
:104B60001373002555739373D5730D4C23685B68DD
:104B700020460F490F229847204608F0FFFC304698
:104B8000642107F0A3FC019E2046314610222B46EB
:104B900008F018FD204608F0F1FC304603B0F0BDE7
:104BA000C4A8FF1FE0470100C09AFF1FF0470100A3
:104BB0000448010070B50E460E4C00682060BF230B
:104BC0002371002363710123A371E1710A4D2B68E6
:104BD0005B6828460949142298472846314608F060
:104BE0002DFD284608F0CAFC2046642107F06EFC23
:104BF00070BD00BFC09AFF1FC4A8FF1F144801006A
:104C0000114B1B68834212D00F4BDB6883420AD0E2
:104C10000D4B9B69834208D00B4B5B6A834208BFF4
:104C2000032005D00DE0012002E0022000E000207A
:104C3000064B1A6800EB4001034B03EB81039A60BB
:104C400070474FF0FF3070478C9AFF1FA4A8FF1FDA
:104C500008B500224271022282710A12C2710172E9
:104C6000642107F033FC08BD2DE9F04782468946F0
:104C7000414C23685B6820464049172298472046EC
:104C8000494608F0DBFC204608F078FCB9F1000F3B
:104C900014DD3B4C04EB0908374D1027394E2846EC
:104CA00014F8011F3A46002308F08CFC2B685B685F
:104CB00028463146012298474445F0D12E4C2368BE
:104CC0005B682046304904229847204608F056FC8D
:104CD0002E4CDAF80000206083232371B9F1390FDC
:104CE000B4BF4D4639254FEA2923637184F80690F5
:104CF000E01D27492A4607F0E1F82046642107F025
:104D0000E5FBC5EB0909B9F1000F33DD214C0025A6
:104D10001E4E771DDFF88080357123463A4604F138
:104D20003001D3F800A0D3F804C0D3F808E0D86865
:104D3000C2F800A0C2F804C0C2F808E0D060103386
:104D400010328B42EDD11868596810605160198992
:104D50009B7A118193723046642107F0B7FBA9F169
:104D60003B094346013B7FF4FDAF01353B34B9F1CC
:104D7000000FD1DCBDE8F087C4A8FF1F2C4801005C
:104D80007F9EFF1F9449010044480100C09AFF1F05
:104D9000809EFF1FB99EFF1F8038010010B582B0B2
:104DA0000024204607F020FC01AB18550134042CE8
:104DB000F7D1019802B010BD70B582B001900DF12D
:104DC0000306002416F8015F204607F00DFC85421B
:104DD00003D02046294607F01BFC0134042CF1D1F6
:104DE00002B070BD2DE9F04100240C4E0C4FDFF8ED
:104DF000348035192B79022B0AD13B685B68384621
:104E0000414611229847384608F0B8FB03232B711E
:104E10000C34302CEDD1BDE8F08100BF8C9AFF1F1F
:104E2000C4A8FF1F4C48010010B504460848036899
:104E30005B68084901229847092C04DC0448036890
:104E40001B68302198470248214608F0F7FB10BD47
:104E5000C4A8FF1F9055010038B5FDF7E9F90146D8
:104E60001A4C204608F0EAFBFDF7ECF9FFF7DCFFEF
:104E7000FDF7F2F9FFF7D8FF2368154D5B68204670
:104E8000294601229847FDF7F1F90146204608F02E
:104E9000D5FB23685B682046294601229847FDF729
:104EA000EFF90146204608F0C9FB23685B682046FD
:104EB000294601229847FDF7EDF90146204608F002
:104EC000BDFB204608F05AFB38BD00BFC4A8FF1F39
:104ED000944901002DE9F041071E15DD00240B4E19
:104EE0004FF0010864253078414608F05BFA284607
:104EF00008F0C0FA3078002108F054FA284608F08B
:104F0000B9FA0134BC42EED1BDE8F081449EFF1FE6
:104F100010B5304B187807F0C7F801462E4B1860D3
:104F20002E4C20460422134604F098FA2C4B187895
:104F300007F0BAF801462B4B1860204604221346AE
:104F400004F08CFA284B187807F0AEF80146274B8E
:104F5000186020460422134604F080FA244B187887
:104F600007F0A2F80146234B18602046042213469E
:104F700004F074FA204B187807F096F801461F4B9E
:104F8000186020460422134604F068FA1C4B187877
:104F900007F08AF801461B4B18602046042213468E
:104FA00004F05CFA184B187808F04AF901462046DC
:104FB0000422102304F052FA144B187808F040F938
:104FC000014620460422102304F048FA204604F04B
:104FD00023FA10BDB0A2FF1FE099FF1FB8A6FF1F64
:104FE000B1A2FF1F1C9AFF1FB2A2FF1FE899FF1F6B
:104FF0006D9EFF1FEC99FF1FB4A6FF1FF099FF1FC6
:10500000B5A6FF1FF499FF1F3899FF1F6C9EFF1F65
:10501000F8B507460E460A4D0A4C01E0FFF778FF47
:105020002846216804F052F90028F7D00448394690
:10503000324604F085F92022024B1A600120F8BDA7
:10504000B8A6FF1FA88CFF1F30B415462AB1002355
:10505000C45CCC540133AB42FAD130BC704700BFC2
:1050600070B4164632B100240B44055D1D55013461
:10507000B442FAD170BC704710B5037833B1094A15
:1050800002F8013F10F8013F002BF9D1064C2046F1
:10509000002107F01BFA2046002140220BF0EAF81D
:1050A00010BD00BFBF9AFF1FC09AFF1FF0B589B0A7
:1050B000BD4C204608F062FA23685B682046BB4975
:1050C0001C229847204608F059FAB94B1B78002B50
:1050D00014BF0C2600260DF10200711CFEF7D4F956
:1050E00001238DF800307C258DF80150684604A915
:1050F0000C22FFF7A9FF04A80BF0A2FB02462368CD
:105100005B68204604A99847204608F037FA04A8AF
:10511000FFF7B2FF142008F0ADF90DF10200B11C49
:10512000FEF7B2F902238DF800308DF80150684681
:1051300004A90C22FFF788FF04A80BF081FB0246AC
:1051400023685B68204604A99847204608F016FAB1
:1051500004A8FFF791FF142008F08CF90DF102006C
:10516000F11CFEF791F903278DF800708DF80150BE
:10517000684604A90C22FFF767FF04A80BF060FB48
:10518000024623685B68204604A99847204608F039
:10519000F5F904A8FFF770FF142008F06BF90DF182
:1051A0000200311DFEF770F904238DF800308DF8F0
:1051B0000150684604A90C22FFF746FF04A80BF033
:1051C0003FFB024623685B68204604A998472046B7
:1051D00008F0D4F904A8FFF74FFF142008F04AF9AB
:1051E0000DF10200711DFEF74FF905238DF8003017
:1051F0008DF80150684604A90C22FFF725FF04A88A
:105200000BF01EFB024623685B68204604A9984702
:10521000204608F0B3F904A8FFF72EFF142008F089
:1052200029F90DF10200B11DFEF72EF906238DF8C4
:1052300000308DF80150684604A90C22FFF704FFE6
:1052400004A80BF0FDFA024623685B68204604A917
:105250009847204608F092F904A8FFF70DFF1420A4
:1052600008F008F90DF10200F11DFEF70DF9072312
:105270008DF800308DF80150684604A90C22FFF724
:10528000E3FE04A80BF0DCFA024623685B682046C4
:1052900004A99847204608F071F904A8FFF7ECFE2E
:1052A000142008F0E7F80DF1020006F10801FEF7FE
:1052B000EBF808238DF800308DF80150684604A9FA
:1052C0000C22FFF7C1FE04A80BF0BAFA02462368CD
:1052D0005B68204604A99847204608F04FF904A8C7
:1052E000FFF7CAFE142008F0C5F80DF1020006F120
:1052F0000901FEF7C9F809238DF800308DF8015037
:10530000684604A90C22FFF79FFE04A80BF098FA48
:10531000024623685B68204604A99847204608F0A7
:105320002DF904A8FFF7A8FE142008F0A3F80DF14A
:10533000020006F10A01FEF7A7F810238DF80030ED
:105340008DF8015068460DEB03010C22FFF77CFE3F
:1053500004A80BF075FA024623685B68204604A98E
:105360009847204608F00AF904A8FFF785FE1420A4
:1053700008F080F80DF1020006F10B01FEF784F849
:1053800011238DF800308DF80150684604A90C22D5
:10539000FFF75AFE04A80BF053FA024623685B6835
:1053A000204604A906E000BFC4A8FF1F6048010012
:1053B000BC9AFF1F9847204608F0E0F804A8FFF7C2
:1053C0005BFE142008F056F80DF1020006F10C0106
:1053D000FEF75AF812238DF800308DF80150684618
:1053E00004A90C22FFF730FE04A80BF029FA0246AC
:1053F00023685B68204604A99847204608F0BEF859
:1054000004A8FFF739FE142008F034F83846FFF7F7
:1054100061FD09B0F0BD00BF2DE9F041334C2368B8
:105420005B682046324915229847204608F0A6F8C6
:105430000025DFF8C8800127284607F0D5F8064682
:105440002046294608F0FAF823685B682046414662
:105450003A469847204631460A22002308F0B2F81F
:10546000204608F08BF80135B5F5006FE4D1002433
:1054700025462046294607F0CBF80134B4F5006FE5
:10548000F7D11A4C23685B6820461A4910229847C6
:10549000204608F073F80025DFF8608001272846D1
:1054A00007F0A2F806462046294608F0C7F8236808
:1054B0005B68204641463A469847204631460A22D4
:1054C000002308F07FF8204608F058F80135B5F5BC
:1054D000006FE4D1054C23685B68204606490D2225
:1054E0009847204608F04AF8BDE8F081C4A8FF1F9D
:1054F000804801009C480100B04801009848010024
:1055000070B582B001A8FCF72FFF9DF8054044F468
:1055100000349DF8043044EA03242E482E492246E4
:1055200008F042F82046012103F02EFE18B1294868
:105530002A4908F039F8274E3046294908F034F84E
:1055400004F50065304624492A4608F02DF828461F
:10555000012103F019FE18B13046204908F024F863
:105560001C4E30461E4908F01FF804F5C055304661
:1055700019492A4608F018F82846012103F004FECC
:1055800018B13046154908F00FF8124D2846144955
:1055900008F00AF804F5405428460F49224608F05E
:1055A00003F82046012103F0EFFD18B128460B490E
:1055B00007F0FAFF074C2046094907F0F5FF23687A
:1055C0005B682046074914229847204607F0D6FF1B
:1055D00002B070BDC4A8FF1FC0480100D44801003C
:1055E000DC480100EC480100F0B583B00DF1070084
:1055F000FCF78AFE9DF8073023B9FFF781FFFFF71C
:105600000BFF17E003F016FE0024134D134F144E4A
:1056100028463946224607F0C7FF2846314654F847
:10562000042B07F0C1FF284607F0A8FF46F6605399
:105630009C42EDD100220B4B1A7001220A4B1A70CA
:10564000054C23685B68204608492022984720467D
:1056500007F094FF03B0F0BDC4A8FF1F0449010088
:105660000C490100E499FF1F209AFF1F1449010013
:105670002DE9F04105463A4C204607F07FFF2368AC
:105680005B68204637491A229847204607F076FF84
:10569000354B1B787BB9354B1B78002B4FD0204600
:1056A0002368334C5B6821460D2298472046FFF75C
:1056B000E3FCBDE8F0812D4B1B78002B3FD0284840
:1056C00003682C4C5B682146082298472046FFF768
:1056D000D3FC08350024284F214E4FF010082978BC
:1056E000A1403B680B433B60304615F80119424628
:1056F000002307F067FF304607F040FF0834202CF6
:10570000EDD11D4D2E68164C23685B6820461B4961
:105710001A229847204629681022002307F052FFDA
:10572000204607F02BFF3046FCF71EFD23685B6820
:105730002046134915229847FFF78EFB07E00848DB
:1057400003685B680F490B229847FFF74DFF0E482F
:10575000002106F0BBFE0320FFF7BCFBBDE8F08193
:10576000C4A8FF1F38490100E499FF1F209AFF1FBA
:1057700054490100144301009C99FF1F6449010032
:105780008049010098490100C09AFF1F30B4043AD3
:1057900012D403460024CD78055551F8045B2D0C36
:1057A0005D7051F8045C2D0A9D7051F8045CDD7049
:1057B000043304349442EEDD30BC70472DE9F047E9
:1057C00082B006468846171F20D405460024DFF81D
:1057D00044A0DFF84490AA786B781B0443EA0223C4
:1057E000EA781343325D43EA0263019308EB040055
:1057F00001A90122134603F089FC18B1504649461D
:1058000007F0D2FE04340435BC42E4DD02B0BDE84A
:10581000F08700BFC4A8FF1FD4480100D0B582B0F4
:1058200007460E4601A8FCF79FFD9DF804309DF841
:105830000540181908D044F40031384641EA0321E4
:105840003246FFF7A3FF012002B0D0BDF0B5C3B0D0
:10585000054601A8FCF788FD9DF804309DF8057009
:10586000DA19002A4BD103F081FC0246464C20464F
:10587000464907F099FE00268DF8046023685B68AE
:10588000204643490922984720469DF804100A22E1
:10589000334607F097FE204607F070FE04238DF88C
:1058A000053023685B6820463A490922984720461C
:1058B0009DF805100A22334607F084FE204607F0C3
:1058C0005DFE01A8FCF758FD334F284639462022DB
:1058D000FFF774FF23685B6820463049142298471D
:1058E000204639461022334607F06CFE204607F06A
:1058F00045FE284639462022FFF748FF41E047F49D
:10590000003747EA032702A83946FE22FFF73EFF89
:10591000002302AEEC5C9C550133202BFAD11A48CF
:105920001F493A4607F040FE3846012103F02CFC9F
:1059300018B115481B4907F037FE134C20461A4989
:1059400007F032FE02A83946FE22FFF737FF236830
:105950005B68204611491422984720463946102298
:10596000002307F02FFE204607F008FE23685B683F
:1059700020460E4912229847284639462022FFF732
:1059800005FF43B0F0BD00BFC4A8FF1FA44901003C
:10599000C4490100D049010004000200DC490100B3
:1059A000C0480100D4480100DC480100F44901006E
:1059B00010B582B0044601A8FCF7D6FC9DF804306F
:1059C0009DF80520981809D042F4003242EA0321DC
:1059D000204620312022FFF7D9FE012002B010BD61
:1059E000F0B5C3B0064601A8FCF7BEFC9DF8043034
:1059F0009DF805209918002944D042F4003242EA6B
:105A0000032702A83946FE22FFF7C0FE002302AC9E
:105A10001C44F55C84F820500133202BF7D11A4840
:105A20001A493A4607F0C0FD3846012103F0ACFBA5
:105A300018B11548164907F0B7FD134C2046154913
:105A400007F0B2FD02A83946FE22FFF7B7FE236831
:105A50005B68204610491222984720372046394675
:105A60001022002307F0AEFD204607F087FD2368D3
:105A70005B68204609491022984730463946202263
:105A8000FFF784FE43B0F0BDC4A8FF1FC04801006B
:105A9000D4480100DC480100084A01001C4A01000A
:105AA00070B5A4B08E4C23685B6820468D491922DE
:105AB0009847204607F062FD8B4B1B68032B00F2D2
:105AC0000C81DFE803F0021655668848FBF726FFD5
:105AD000834C23685B682046854909229847204605
