:1000000000800020BD01000049B700000DB70000CE
:100010000DB700000DB700000DB700000DB70000D0
:100020000DB700000DB700000DB7000049B7000084
:1000300049B700000DB7000049B70000FDB6000049
:1000400049B7000049B7000049B7000049B70000B0
:1000500049B7000049B7000049B7000049B70000A0
:1000600049B7000049B7000049B7000049B7000090
:1000700049B7000049B7000049B7000049B7000080
:1000800049B7000049B7000049B7000049B7000070
:1000900049B7000049B7000049B7000049B7000060
:1000A00049B7000049B7000049B7000049B7000050
:1000B00049B7000049B7000049B7000049B7000040
:1000C00049B7000049B7000049B7000049B7000030
:1000D00049B7000049B7000049B7000049B7000020
:1000E00049B7000049B7000049B7000049B7000010
:1000F00049B7000099E4000049B70000E5D50000C9
:1001000049B70000C1DE000049B7000049B7000050
:1001100049B7000049B7000049B7000049B70000DF
:1001200049B7000049B7000049B7000049B70000CF
:1001300049B7000049B7000049B7000049B70000BF
:1001400049B7000049B7000049B7000049B70000AF
:1001500049B7000049B7000049B7000049B700009F
:1001600049B7000015BF000049B7000049B70000BB
:1001700049B7000049B7000049B7000049B700007F
:1001800049B7000049B7000049B7000049B700006F
:1001900049B7000049B7000049B7000049B700005F
:1001A00049B7000049B7000049B7000049B700004F
:1001B00049B7000049B7000049B70000574B4CF25F
:1001C000205210B51A804DF628121A8000BF00BFC9
:1001D0000BF0BEFA524B4FF010621A60514A9A600F
:1001E000514ADA60A3F53043203B1A6812F480725A
:1001F00004D14E490A604FF4A8521A604C4B1A7849
:10020000110703D51A7842F008021A70494B4A4C7C
:100210004A482A221A704A4A00239918A14203D256
:10022000195899500433F8E7464B474900228B424E
:1002300002D243F8042BFAE74448454900235A58B0
:100240001A500433B3F5DE7FF9D1424B424A802184
:1002500003F8011B9342FBD1404B3C4A1A60404BD0
:100260000A221A70A3F5805324225A70A0221A7011
:100270009A799207FCD59A79D406FCD4394A9379B5
:1002800003F00C03082B374BF9D103221A714022DB
:100290005A719A799006FCD5324A9179314B4906C8
:1002A000FBD5314A314911600221516020221A7078
:1002B0009A7902F00C020C2AFAD12D4B2D4A1A60C1
:1002C0002D4B2E4A1A6000225A60072243F8042C54
:1002D0002B4AC3F80C2D62B60CF068FC134B1B685C
:1002E000DA0705D527480CF0D3FB274B274A1A60BD
:1002F000274B1B785B0609D5234C244A236893427D
:1003000004D120480CF0C4FB002323600EF0D0FF82
:100310000BF024FA0CF064FEFEE700BF0E2005404F
:1003200030800440823F04000100002B14D00340C1
:1003300002D0074000E007409496FF1F5C5C01007C
:10034000708CFF1F9496FF1F74A7FF1F0082FF1F72
:100350000000000000E400E05FE400E008ED00E0E1
:100360000050064000400640448004400000030165
:1003700004800440C010050014E000E0FF76010096
:10038000000020207D2A73571CE00340A5C3945A27
:1003900000F00740FFFFFFFFFFFFFFFFFFFFFFFF32
:1003A000FFFFFFFFFFFFFFFFFFFFFFFFFFFFFFFF5D
:1003B000FFFFFFFFFFFFFFFFFFFFFFFFFFFFFFFF4D
:1003C000FFFFFFFFFFFFFFFFFFFFFFFFFFFFFFFF3D
:1003D000FFFFFFFFFFFFFFFFFFFFFFFFFFFFFFFF2D
:1003E000FFFFFFFFFFFFFFFFFFFFFFFFFFFFFFFF1D
:1003F000FFFFFFFFFFFFFFFFFFFFFFFFFFFFFFFF0D
:10040000FFFFFFFFFFFFFFFFFFFFFFFFFEFFFFFFFD
:1004100010B5054C237833B9044B13B10448AFF33E
:1004200000800123237010BD9496FF1F0000000080
:10043000545C010008B5064B1BB106480649AFF3F2
:1004400000800648036813B1054B03B1984708BD07
:1004500000000000545C01009896FF1F9496FF1F57
:1004600000000000F8B5494B1C68217880290CD1A8
:1004700044F22B000BF076FA44F22B000BF0C4FA96
:10048000424B1A6801321A60F8BD81290CD144F23E
:1004900028000BF067FA44F228000BF0B5FA3B4B4A
:1004A0001A6801321A60F8BD82293BD1384C2368A2
:1004B0005B68204637490F22984720460CF0E4FB42
:1004C000354A1468354B1B681268E41A04F5FA546F
:1004D000D31AA34214D2324F324E334D3878002112
:1004E0000CF0E6FA01233360284602F039FB09F0EC
:1004F00003FA294B1A68294B1B68D31AA342EDD380
:10050000274B187801210CF0D3FA0022254B1A60F2
:10051000264C2046264905F053F92046254905F08A
:1005200061F9F8BD82290CD9A1F183034FF47A70E7
:1005300000FB03F00CF024FB144B1A6801321A6024
:10054000F8BD41B11C480268126890470F4B1A6809
:1005500001321A60F8BD20460FF0F8FC02460C4844
:1005600001684D682146A84744F228000BF0FAF9CB
:1005700044F228000BF048FA0C4C20460C4905F0D8
:100580001FF920460B4905F02DF9F8BD0497FF1F10
:1005900060A5FF1F8036010040A5FF1FA897FF1F21
:1005A000D09EFF1F3499FF1F09740000B097FF1FF2
:1005B0000C97FF1FEC96FF1F58A5FF1F38B5054687
:1005C0000C4608460FF0C2FC02462B685B682846C2
:1005D0002146984738BD00BF38B504460D46084649
:1005E0000FF0B4FC024623685B6820462946984712
:1005F000054620460CF048FB284438BD38B5054672
:100600000CF0A2FB044628460CF03EFB204438BD0B
:1006100010B59EB006A8202106F0F6FE1B4C2368FC
:100620005B6820461A491822984720460CF02CFB9C
:100630000DF1160003F018F90DA803F0EDF807A866
:1006400003F038F909A807A9062204F079FF11A8D8
:1006500003F056F915A811A9062204F071FF0D4CFC
:10066000BDF8163000930C4B0193069B0293204675
:100670000DA915AA09AB04F017FE204604F0D2FE1E
:1006800004F1280003F006F91EB010BD60A5FF1F9D
:1006900090360100B096FF1F030201002DE9F04FD4
:1006A00095B004460025884B1D70884E33685B6802
:1006B000304687490C229847864B196830463039B6
:1006C0000CF042FB30460CF0DFFA029503950495DE
:1006D0000595069507950895099502A8214604F009
:1006E000B5FAB0F1000A66DD33685B6830467A49D6
:1006F0001F22984730460CF0C7FA33685B683046D3
:10070000764912229847304651460CF01DFB304680
:100710000CF0BAFA724B1B782BBB33685B6830461F
:1007200070490922984730460CF0AEFA0DF10705E2
:100730000DF12709B04610270026404615F8011F85
:100740003A4633460CF0C4FA4D45F6D15F480CF0FA
:100750009BFA654B93F82210753102A82144634A35
:10076000534609F0D5FB02A861495246564B1B7807
:1007700006F0A6FE554D2B685B6828465D490B22A6
:10078000984728460CF080FA0DF107050DF127096E
:10079000DFF8388110270026404615F8011F3A4639
:1007A00033460CF095FA4D45F6D148480CF06CFAFA
:1007B000454B83F800A00023029303930493059311
:1007C000069307930893099302A8214603F008FDB6
:1007D0009DF80830002B3AD0312B1BD13B4D2B68B4
:1007E0005B68284644491F22984728460CF04CFA7B
:1007F000354E337880213E4AD1542B685B682846B9
:100800003E490322984728460CF03EFA33780133DC
:1008100033701CE0322B1AD12C4D2B685B682846B4
:1008200035491F22984728460CF02EFA264E337879
:1008300081212F4AD1542B685B6828463049062213
:10084000984728460CF020FA3378013333700023A0
:1008500002930393049305930693079308930993D4
:1008600002A8214603F050FF9DF80830002B4FD01E
:10087000164D2B685B68284622491C22984728465B
:100880000CF002FA2B685B6828461F49062298473D
:1008900028469DF808100A2200230CF019FA2B684C
:1008A0005B68284619492122984728460CF0ECF944
:1008B0009DF808B0044B1A78ABF17D000C498854C0
:1008C00001321A7026E000BF0897FF1F60A5FF1FC6
:1008D000AC360100E496FF1FBC360100DC36010097
:1008E0009099FF1FF03601000CA4FF1FF497FF1F23
:1008F0002097FF1FFC360100083701002837010050
:100900002C37010034370100543701005C370100F7
:100910004FF0000B02A8214603F018F8B0F1000ACE
:100920006ADD794D2B685B68284678491F22984715
:1009300028460CF0A9F92B685B68284674491222F6
:100940009847284651460CF0FFF928460CF09CF9D0
:10095000704B1B7833BB2B685B6828466E490922B5
:10096000984728460CF090F90DF107050DF127097D
:10097000DFF8948110270026404615F8011F3A46FB
:1009800033460CF0A5F94D45F6D15F480CF07CF9E3
:10099000624B93F82210703102A82144604A5346FA
:1009A00009F0B6FA02A85F4952465F4B1B7806F081
:1009B00087FD554D2B685B6828465C490B2298479C
:1009C00028460CF061F90DF107050DF12709DFF854
:1009D000388110270026404615F8011F3A46334655
:1009E0000CF076F94D45F6D147480CF04DF94E4BD9
:1009F0001A78924483F800A000230293039304938F
:100A00000593069307930893099302A8214603F0E0
:100A100031FD9DF80830002B3AD0312B1BD13A4DD7
:100A20002B685B68284642491F22984728460CF0ED
:100A30002BF93D4E337880213A4AD1542B685B68BC
:100A400028463C490322984728460CF01DF9337884
:100A5000013333701CE0322B1AD12B4D2B685B68AD
:100A6000284633491F22984728460CF00DF92E4E90
:100A7000337881212B4AD1542B685B6828462E4954
:100A80000622984728460CF0FFF83378013333707C
:100A9000002302930393049305930693079308930B
:100AA000099302A8214603F079FF9DF80830002B36
:100AB0004AD0154D2B685B68284620491D2298476F
:100AC00028460CF0E1F82B685B6828461C49062292
:100AD000984728469DF808100A2200230CF0F8F8E1
:100AE0002B685B68284617491C22984728460CF05B
:100AF000CBF89DF808A00C4B1A78AAF17D000949A3
:100B0000885401321A7021E060A5FF1F8037010070
:100B1000A03701009099FF1FF03601000CA4FF1FC1
:100B2000F497FF1F2097FF1F0897FF1FFC36010057
:100B3000B437010028370100D4370100DC37010049
:100B400054370100FC3701004FF0000A00230293E4
:100B5000039304930593069307930893099302A8BC
:100B6000214603F0C7FF9DF80830002B00F0C1803C
:100B7000672B40F097806B4D2B685B6828466A496D
:100B80001F22984728460CF07FF802A8214607F05C
:100B90005DFE01902B685B682846644909229847EE
:100BA00028460CF071F80DF127060DF10705DFF866
:100BB00074914FF010080027484615F8011F42466F
:100BC0003B460CF085F8B542F6D1564D28460CF060
:100BD0005BF82B685B6828465549122298472846DF
:100BE00001990CF0B1F828460CF04EF8514B93F8EF
:100BF0002210743102A821444F4A019B09F088F960
:100C000002A84E49019A4E4B1B7806F059FC2B68FE
:100C10005B6828464B490B22984728460CF034F86D
:100C20000DF10704A84610270025404614F8011FBF
:100C30003A462B460CF04CF8B442F6D1394C2046DB
:100C40000CF022F80AA802A9019A05F027F905F08C
:100C500075FA0546204629460CF076F820460CF039
:100C600013F85D44AA44204651460CF06DF8204626
:100C70000CF00AF80AA8514605F014F930490A7830
:100C800004782E4B9C54447813445C7084789C7098
:100C9000C478DC7004791C71407958710020987117
:100CA00006320A709DF80830792B17D11D4C236845
:100CB0005B68204624491822984720460BF0E4FF41
:100CC0001F4C2378214D1D481844294604F01EFB73
:100CD000284604F0B9FB23782C3323709DF80830A4
:100CE000752B06D1164B1A7882201449885401328C
:100CF0001A700C4C23685B682046154919229847E6
:100D000020460BF0C1FF0D4B197841B11D462368F9
:100D10001B682046984715F8011F0029F7D115B028
:100D2000BDE8F08F60A5FF1F1C380100F036010000
:100D30003C3801000CA4FF1FF497FF1F2097FF1FF2
:100D40000897FF1FFC36010050380100B096FF1FC6
:100D50006C38010038B5144B1B7873B9134C2368F9
:100D6000134D5B68204629462D22984720460BF0FC
:100D70008BFF284606F0B0FB38BD0E4B18780021DB
:100D80000BF096FE0C4B1A680C4B1A600C4B1B7840
:100D90001BB10C4B1868243802E00A4B1868303835
:100DA000FFF77CFC38BD00BF9199FF1F60A5FF1FB6
:100DB00088380100D09EFF1F40A5FF1FFC96FF1F33
:100DC0009099FF1FE496FF1F38B5144B1B7873B939
:100DD000134C2368134D5B68204629462D22984703
:100DE00020460BF051FF284606F076FB38BD0E4B2F
:100DF000187800210BF05CFE0C4B1A680C4B1A6043
:100E00000C4B1B781BB10C4B1868243802E00A4BC2
:100E1000186830380630FFF741FC38BD9199FF1F44
:100E200060A5FF1F88380100D09EFF1F40A5FF1F4F
:100E3000FC96FF1F9099FF1FE496FF1F30B583B00B
:100E40000446814B1B782BB9804B187801210BF09D
:100E50002FFE04E07D4B187800210BF029FE7C4B1F
:100E60001B68022B0EDD7B4803685B687A495922B8
:100E700098477A4D0524284606F02EFB204606F0BA
:100E800001FAF8E7764B1B783BB301A802F0A4F80F
:100E90009DF804300133DBB28DF80430092B16D9EC
:100EA0006C4C23685B6820466E491B22984720469D
:100EB0000BF0EAFE20469DF804100A2200230BF0F6
:100EC00007FF20460BF0E0FE06F0BCFDB9E001A8EC
:100ED00002F08AF80022624B1A706348634B19785B
:100EE00004F0DCFC584B1B7843B95F4804F004FD68
:100EF00020B95D4804F0E2FD002851D0524B1B7828
:100F0000D3B9002002F070F8574804F0D5FC584CD3
:100F1000204606F0E1FA4F482146FFF75DFB554BAE
:100F20001B780BB9FFF774FB534B1A68534B1A60CD
:100F30000122454B1A7084E0514B1B68E3B1032B2F
:100F40000BDC444C20464F49FFF738FB474B1968F0
:100F500020463039FFF752FB73E0062B3D4C20460C
:100F6000D4BF49494949FFF729FB404B196820463E
:100F70003039FFF743FB64E00022454B1A700A2C1E
:100F80005CDCFFF7E7FE424A424B1A60424C2046C7
:100F9000424904F015FC2046414904F023FC50E08E
:100FA000314804F047FD30B12A483E49FFF714FBB1
:100FB00006F048FD45E03C4B1B68092B17DC254C2F
:100FC00020463049FFF7FAFA284B19682046303995
:100FD000FFF714FB20463549FFF7F0FA324D204663
:100FE0002968FFF70BFB2B6801332B6029E00125F3
:100FF0001B4B1D70164B1A682A441A60032006F01A
:1010000041F9144C20462A49FFF7D8FA01A801F00B
:10101000E3FF9DF804102046C1F109010BF094FE96
:1010200020462449FFF7D8FA20462349FFF7D4FA8F
:101030000D4804F041FC1C4B1D6002E0FFF7C4FEAC
:10104000A1E703B030BD00BFAC99FF1FD09EFF1FCA
:101050001C97FF1F60A5FF1FB8380100143901005D
:101060008C8CFF1F74390100D49EFF1FE496FF1F74
:10107000903901009099FF1F40A5FF1FFC96FF1FAC
:10108000109FFF1F9C390100B4390100D0390100C5
:101090002097FF1F0497FF1FB097FF1FEC96FF1FBD
:1010A0000C97FF1FEC390100888CFF1F083A0100E4
:1010B000343A0100503A0100883A010038B5734BC8
:1010C0001B78BBB108F018FC714B1B78FBB1714861
:1010D00004F06CF9704B1968704B1B78704A02FB76
:1010E00003F2704B1B68CB1A9A4210D80022674B50
:1010F0001A700CE0684B1A686B4B1B68D31AB3F577
:101100007A7F04D3624B1B78002B40F0A98006F055
:10111000D7F8664B1A6840F2DC539A420CD9002388
:10112000634A1360634A1360634B1A6801321A60A2
:101130003522624B1A607FE0614B1A6840F2DC5343
:101140009A420CD900235A4A13605A4A13605A4BE8
:101150001A6801321A603222584B1A606CE0594BFF
:101160001A6840F2DC539A420CD90023504A1360AB
:10117000504A1360504B1A6801321A6031224F4BAB
:101180001A6059E0504B1A6840F2DC539A420CD96D
:101190000023474A1360474A1360474B1A680132DD
:1011A0001A603322454B1A6046E0484B1A6840F2F9
:1011B000DC539A420CD900233D4A13603D4A136028
:1011C0003D4B1A6801321A6034223C4B1A6033E0FE
:1011D0003F4B1A6840F2DC539A420CD90023344A40
:1011E0001360344A1360344B1A6801321A60362295
:1011F000324B1A6020E0304B1C6820460DF07EFF19
:101200004FF07C510EF03AF808B12A4B1C600022D6
:10121000294B1A60264B1A6801321A601B4B1B7847
:101220002BB92C4B187800210BF042FC04E0294B21
:10123000187801210BF03CFC1E4B1C68002C23DDB0
:101240001B4B18680DF05AFF4FF07C510EF016F84A
:10125000D0B12046FFF7F2FD0022164B1A6038BDD0
:101260001D4D284606F038F91C4C23685B68204663
:1012700029460B22984720460BF006FD0A4B1A68B8
:1012800002F57A721A6042E738BD00BFAC99FF1FC1
:101290009199FF1FB096FF1F40A5FF1F848CFF1F71
:1012A000A0BB0D00FC96FF1FA897FF1FA499FF1F6E
:1012B000E096FF1F0097FF1FE896FF1FE496FF1FB1
:1012C000A899FF1F9499FF1F9899FF1F9C99FF1FD2
:1012D000A099FF1FD09EFF1FC83A010060A5FF1F05
:1012E00010B586B0002406A820F8164D02F0D2FAF8
:1012F0000194029403940494059401A817490622CA
:1013000004F0EAF801A8062102F00EFB0194029411
:1013100003940494059401A81149062204F02EF9BF
:1013200001A802F0DDFA0194029403940494059458
:1013300001A80C49102204F021F901A8102102F0A3
:1013400081FA094C23685B68204608492E22984799
:1013500020460BF099FC06B010BD00BFD43A010046
:10136000E43A0100F43A010060A5FF1F183B0100B8
:1013700038B54FF47A700BF003FC06206B4B1870F5
:1013800001216B4B197016226A4B1A7017226A4B97
:101390001A701122694B1A700F22694B1A701022B1
:1013A000684B1A700E22684B1A701522674B1A7020
:1013B0000BF0A2FB6648202106F036FD654B1B783A
:1013C000DE2B32D106F056FA442008F09FFE044688
:1013D00061480268556861491422A8472CB15E48EB
:1013E00003685B685E49042298475B4C23685B682E
:1013F00020465C491422984720460BF045FC54488F
:10140000202106F011FDFFF76BFF0122564B1A70E9
:101410000022564B1A7023685B68204654491822F4
:10142000984720460BF030FC37E0442B25D10028AC
:1014300023DD5048202106F02DFC4F4806F0B4FE75
:101440004E4807F047F84E4C204601F0B5FD237892
:10145000012B01D8152222700022434B1A70012261
:10146000424B1A703C4C23685B68204645490B226E
:10147000984720460BF008FC0FE001223A4B1A7007
:1014800000223A4B1A70344C23685B6820463E4970
:101490001E22984720460BF0F7FB3C4C20463C4967
:1014A00040F2FD7208F0BEFF0AF060F820463949AC
:1014B0002422002308F060FF20462E49202200232A
:1014C00008F05AFF204B18780BF040FA01462046EE
:1014D0000422134608F050FF1C4B18780BF036FA24
:1014E000014620460422134608F046FF1A4C2368A2
:1014F0005B68204628490C229847204640F2B77185
:101500000BF022FC20460BF0BFFB2046114B197854
:10151000102200230BF0DCFB20460BF0B5FB05F09E
:10152000CFFE1E481E4904F05DF938BDD09EFF1F56
:1015300050A3FF1F51A3FF1F52A3FF1F53A3FF1F61
:1015400054A3FF1F55A3FF1F3099FF1F0C9FFF1FC0
:10155000F497FF1F0200024060A5FF1F483B0100F7
:10156000603B0100683B0100AC99FF1F9199FF1F90
:10157000803B0100B497FF1F1498FF1FD497FF1FF3
:10158000848CFF1FC83A01009C3B010058A3FF1F39
:10159000BC3B01000CA4FF1FCC3B0100B097FF1F18
:1015A000EC96FF1F08B50AF06BFB09486421094A55
:1015B00004F05EF908483221084A04F059F9084B52
:1015C0001968084A11601A68074B1A6008BD00BF05
:1015D000EC96FF1FBD1000000C97FF1F6504000074
:1015E00040A5FF1FA897FF1FFC96FF1F2DE9F00FD6
:1015F000CAB001900A460023D078CC5C40EA04606F
:10160000547840EA0440947840EA042003F1280525
:101610006C46285104330432402BEDD10AAB002232
:10162000986B59685D6A02F128076E46BC592C44D4
:101630004FEA704585EAF04585EA902020444FEA5C
:10164000F11484EAB14484EAD101014419640432FA
:101650000433C02AE4D10199096D0291019A526DB7
:101660000392019B9B6D0493019CE46D0594019D85
:101670002D6E0695019E766E0796019FBF6E0897A8
:101680000199C96E099189463D46B446069BA0461C
:1016900004981446029A0021DFF8A8A001F1280B53
:1016A0006F465BF8076051F80A7037444FEAB3168B
:1016B00086EAF32686EA7366374425EA03060CEACF
:1016C000030B86EA0B063E444E4480EA04071740AB
:1016D00000EA040987EA09074FEAB20989EA723980
:1016E00089EAB2594F44B0443E440431B1F5807F99
:1016F00008D0A94665469C46434680462046144687
:101700003246CBE702990E44019F3E6503990A4495
:101710007A65049A1444BC65059C2044F865069AD1
:1017200042443A66079E33447B66089B6344BB662B
:10173000099F3D44DDF804B0CBF86C504AB0BDE8D9
:10174000F00F7047DC3B01000023036400220023FC
:10175000C0E912230A4B03650A4B43650A4B8365B4
:101760000A4BC3650A4B03660A4B43660A4B836602
:1017700003F17453A3F52303A3F69243C3667047A2
:1017800067E6096A85AE67BB72F36E3C3AF54FA512
:101790007F520E518C68059BABD9831F2DE9F8430E
:1017A00006469046DAB10F4688444FF00009336C84
:1017B00017F8012BF25401333364402B0DD130461E
:1017C0003146FFF713FFD6E9124514F5007445F1D1
:1017D0000005C6E91245C6F840904745E7D1BDE887
:1017E000F88300BF2DE9F84F80468946026C372AFE
:1017F0000CD8531C80218154372B1CD80244002163
:10180000013302F8011F382BFAD114E0531C802158
:1018100081543F2B06D802440021013302F8011FF6
:10182000402BFAD140464146FFF7E0FE40460021FA
:1018300038220EF0A5F8D8F84030D900D8E91223A4
:10184000521843F10003C8E9122388F83F20100A18
:1018500040EA0360190A88F83E00160C46EA03467F
:101860001F0C88F83D60140E44EA03241D0E88F80E
:101870003C4088F83B3088F83A1088F8397088F88E
:10188000385040464146FFF7B1FE0322D300D8F856
:101890005010D94089F80010D8F85410D94089F870
:1018A0000410D8F85810D94089F80810D8F85C10FE
:1018B000D94089F80C10D8F86010D94089F8101078
:1018C000D8F86410D94089F81410D8F86810D940B5
:1018D00089F81810D8F86C1021FA03F389F81C3035
:1018E000013A09F10109B2F1FF3FCFD1BDE8F88F0C
:1018F00070B4C3F10803DC0001340346002003A5E3
:10190000641920C940CAAD1920C3204720C940CA64
:10191000754120C320C940CA754120C320C940CAAF
:10192000754120C320C940CA754120C320C940CA9F
:10193000754120C320C940CA754120C320C940CA8F
:10194000754120C3404170BC704700BFAFF30080B9
:1019500070B4C3F10803DB000133002403A500BF0A
:101960005B1920C940CAAD1B20C0184720C940CA16
:10197000B54120C020C940CAB54120C020C940CAD5
:10198000B54120C020C940CAB54120C020C940CAC5
:10199000B54120C020C940CAB54120C020C940CAB5
:1019A000B54120C06441D4F1010038BF002070BCB3
:1019B000704700BFAFF30080AFF30080AFF300804B
:1019C0002DE9F003013B9B000024274625462646CF
:1019D0005FF0000803E05FEA0608B8EB0308B6EB27
:1019E000080952F809C051F80890A9FB0C9C14EBA7
:1019F000090457EB0C0755F1000518F10408984548
:101A000001DCB045EBDD84513C462F460025043611
:101A10009E42DDDDB6EB430FDDDD8451BDE8F00312
:101A2000704700BF00290ADD034604300139C9B2FE
:101A300000EB8101002243F8042B8B42FBD170475D
:101A400000290CDD034604300139C9B200EB8101E5
:101A5000002053F8042B10438B42FAD100E0002001
:101A6000D0F1010038BF0020704700BF4B1101F0DA
:101A70001F01012202FA01F150F8230008407047CB
:101A80000139CBB213F0800F0DD15AB250F8222099
:101A90004AB9013BDBB213F0800F04D15AB250F8BF
:101AA0002220002AF5D0013313F0FF0312D06FF08B
:101AB000404242FA83F250F8222022B10021013143
:101AC0005208FCD100E000215BB2013B01EB431165
:101AD00088B200E0002000B2704700BF10B4002AB6
:101AE00009DD541EE4B20134A4000023CA58C250D8
:101AF0000433A342FAD15DF8044B704710B4013AA5
:101B0000D3B213F0800F17D15AB250F8224051F8D7
:101B10002220944212D808D212E05AB250F8224041
:101B200051F8222094420DD80ED3013BDBB213F0C2
:101B3000800FF2D0002008E0002006E0012004E041
:101B4000FF2002E0012000E0FF2040B25DF8044BDE
:101B5000704700BF30B589B005460B46144668464D
:101B600029461A462346FFF7F3FE054668462146F6
:101B7000FFF766FF003518BF01256D00002814BF70
:101B80006842C5F1010009B030BD00BF10B400EBE0
:101B900081010B1F884214D2C0F103041C4424F0BD
:101BA00003040C1B083C002051F8042C40EA5200AE
:101BB00041F8040CD0071A1FA24202D0194613465E
:101BC000F2E75DF8044B704770B505461E469DF977
:101BD00010402346FFF78CFE30B930462946224696
:101BE000FFF78CFF012805D02846294632462346B8
:101BF000FFF7AEFE70BD00BF70B505461E469DF9ED
:101C000010402346FFF7A4FE28B128462946324655
:101C10002346FFF76DFE70BD2DE9F04FB7B003907E
:101C200098469DF9007126AC20463B46FFF7C8FE5A
:101C300016AB0493059440463946FFF721FFC0EBED
:101C4000871086B233B2002BB8BF1F33C3F34715DA
:101C500032B24E4B134003D5013B63F01F030133F7
:101C6000DCB206A869B2FFF7DDFE63B2002B18DD17
:101C7000FFB14FEA870C6DB206AA02EB850E002277
:101C800015461946C3F1200058F8023003FA01F452
:101C900025434EF8025023FA00F504326245F3D191
:101CA00007E068B206AB03EB800041463A46FFF717
:101CB00015FF16F4004F5CD1BA467C0006AD05EB6B
:101CC0008705029501254FF0000907F1FF3836AA74
:101CD00002EB88083AE058B25BF8201036AD05EB0D
:101CE000820252F8C02C8A1ACEEB0202914205D031
:101CF00091422CBF4FF0000E4FF0010E4CF8202007
:101D00000133DBB25AB2A242E5DB019D01E04FF0A4
:101D1000000E754514BF0025012506A83946FFF7BA
:101D200035FF36AA02EB8A0353F8C02C58F8C03CA2
:101D300043EAC27348F8C03C02983946FFF726FFD1
:101D4000013EB6B233B2B3F1FF3F13D0002CDEDD5B
:101D500036AA02EB850353F8C8BCC5F1010302EBB8
:101D6000830353F8C8CC4FF0000E4A464B4601950A
:101D7000B1E7012536AB03EB8505039855F8C81C80
:101D80003A46FFF7ABFE37B0BDE8F08F1F0000808A
:101D900030B591B005461C46684693F90030FFF710
:101DA0000FFED4F8B03028466946984711B030BDD0
:101DB00008B513460A46FFF7EBFF08BD70B50446A9
:101DC0000E461546036813F0010F14D02146324623
:101DD0002B46FFF78DFD064620462946FFF7D6FE27
:101DE00066B105F18042013A54F8223043F00043D5
:101DF00044F8223070BD1146FFF7C8FE70BD00BF29
:101E0000F0B5A1B007460D4616461C4608461946D1
:101E1000FFF716FE20B138462146FFF703FE84E0A7
:101E200018A829462246FFF759FE10A83146224637
:101E3000FFF754FE08A82146FFF7F4FD012308939D
:101E400068462146FFF7EEFD62E0189B13F0010F94
:101E500009D118A82146FFF799FE08A83146224665
:101E6000FFF7ACFF54E0109B13F0010F09D110A84D
:101E70002146FFF78BFE684631462246FFF79EFF5C
:101E800046E0002D22DD18A8014610AA2346FFF7E0
:101E90005FFD18A82146FFF779FE08A8694622468B
:101EA000FFF72CFE002805DA08A801463246234633
:101EB000FFF71EFD08A801466A462346FFF748FDC6
:101EC00008A831462246FFF779FF21E010A8014615
:101ED00018AA2346FFF73CFD10A82146FFF756FE3F
:101EE000684608A92246FFF709FE002805DA684679
:101EF000694632462346FFF7FBFC6846694608AA56
:101F00002346FFF725FD684631462246FFF756FF78
:101F100018A810A92246FFF7F1FD0546002894D124
:101F2000384608A92246FFF7D9FD21B0F0BD00BF11
:101F30002DE9F04F93B00546894614461E4693F8A6
:101F4000008010464FFA88F1FFF77AFD002840F034
:101F5000A8800AA849463246FFF72AFF02A8294668
:101F60000AAA3346FFF714FF0AA801463246FFF7D4
:101F70001FFF4846494622463346FFF709FF2046E1
:101F800021463246FFF714FF371D4FFA88FACDF885
:101F900000A02846294622463B46FFF715FECDF80D
:101FA00000A02046214622463B46FFF70DFECDF815
:101FB00000A02046294622463B46FFF71DFE284644
:101FC000294622463346FFF7E3FECDF800A020461F
:101FD00029462A463B46FFF7F7FDCDF800A02846E4
:101FE000294622463B46FFF7EFFD28460021FFF732
:101FF0003DFDA8B1D346284629463A465346FFF749
:1020000077FC824628465946FFF7C0FD0BF1804316
:10201000013B55F8232042EACA7245F8232004E028
:1020200028464FFA88F1FFF7B1FD2046294632468F
:10203000FFF7BEFE4FFA88F8CDF800802046214613
:1020400002AA3B46FFF7D8FDCDF800802046214686
:1020500002AA3B46FFF7D0FDCDF8008002A801465A
:1020600022463B46FFF7C8FD2846294602AA3346CA
:10207000FFF78EFECDF800800AA8294602463B46AF
:10208000FFF7BAFD284621464246FFF727FD2046C6
:1020900049464246FFF722FD48460AA94246FFF755
:1020A0001DFD13B0BDE8F08F2DE9F0438BB0054660
:1020B00089461646002403940494059406940794D4
:1020C000089409940AAF032347F8203D144614F8F6
:1020D000048BFFF76DFE4FFA88F8CDF80080284694
:1020E00029463A462346FFF787FD284629464A46B1
:1020F0003346FFF74DFECDF800802846294606F10D
:1021000084022346FFF760FD0BB0BDE8F08300BFFB
:102110002DE9F04190B007460E46002309930A933B
:102120000B930C930D930E930F930122089201933E
:10213000029303930493059306930793009211F877
:10214000048B4FFA88F408A802462346FFF7D0FB19
:1021500008A82146FFF794FC013884B223B2012B72
:1021600014DD684669463246FFF722FE08A821B210
:10217000FFF77CFC28B1684669463A463346FFF7CC
:1021800007FE013CA4B225B2012DEAD138466946CA
:102190004FFA88F2FFF7A2FC10B0BDE8F08100BF53
:1021A0002DE9F04F8DB004460D460822FFF796FC4E
:1021B0000026069605960496EB6A07932B6B089308
:1021C0006B6B0993AB6B0A93EB6B0B9304A8014603
:1021D00002460823FFF78CFB82462046214604AACC
:1021E0000823FFF785FB83462B6B07936B6B0893E4
:1021F000AB6B0993EB6B0A930B9604A8014602465E
:102200000823FFF775FB81462046214604AA0823D0
:10221000FFF76EFB00902B6A04936B6A0593AB6A21
:102220000693099608960796AB6B0A93EB6B0B9394
:102230002046214604AA0823FFF75AFB01906B6A47
:102240000493AB6A0593EB6A06936B6B0793AA6BD7
:102250000892EA6B09920A932B6A0B932046214657
:1022600004AA0823FFF744FB0290EB6A04932B6B4C
:1022700005936B6B06930996089607962B6A0A934B
:10228000AB6A0B932046214604AA0823FFF760FBA4
:1022900003902B6B04936B6B0593AB6B0693EB6B0B
:1022A0000793099608966B6A0A93EB6A0B9320468C
:1022B000214604AA0823FFF74BFB80466B6B04936F
:1022C000AB6B0593EB6B06932B6A07936B6A0893D2
:1022D000AB6A09930A962B6B0B932046214604AAFE
:1022E0000823FFF735FB0746AB6B0493EB6B0593B5
:1022F00006966B6A0793AB6A0893EB6A09930A9692
:102300006B6B0B932046214604AA0823FFF720FBA2
:102310000BEB0A034B44009A1344019A1344029AAC
:102320001344039A9B1AC8EB0308C7EB08073F1A2C
:1023300002D4104E082511E00E4E082520462146F5
:1023400032462B46FFF7D4FAC719F7D40FE02046E0
:10235000214632462B46FFF7FBFA3F1A002FF6D1F3
:10236000304621462A46FFF7C9FB0128EFD10DB0C0
:10237000BDE8F08FE03C0100F0B589B007460D469E
:1023800016461C46684611461A46FFF711FD3846A8
:1023900039466A462346FFF7FBFC684669463246E3
:1023A0002346FFF7F5FC284629466A462346FFF7F1
:1023B000EFFC09B0F0BD00BF2DE9F0478AB08146BF
:1023C0008A4614461F46DDF84880454615F9046BD9
:1023D000009602A811464A462B46FFF70DFC02A8BC
:1023E00001464246FFF7E4FC4846494602AA4346F6
:1023F000FFF7CEFC2046214602AA4346FFF7C8FC61
:1024000000963846394652462B46FFF7F5FB02A8A0
:1024100039464246FFF7CCFC009602A801464A46E0
:102420002B46FFF7E9FB009602A8014622462B4601
:10243000FFF7E2FB0096204621464A462B46FFF76F
:10244000DBFB5046514622464346FFF7A1FC00966F
:102450002046494602AA2B46FFF7CEFB38463946AE
:1024600022464346FFF794FC0096384639465246CA
:102470002B46FFF7C1FB204602A93246FFF72EFB91
:102480000AB0BDE8F08700BF2DE9F0479AB080465A
:102490008A4617469946229E344614F9045B0095F5
:1024A00012A8114642462346FFF7A6FB12A8014692
:1024B0003246FFF77DFC4046414612AA3346FFF7FD
:1024C00067FC3846394612AA3346FFF761FC00958F
:1024D00012A8494652462346FFF776FB0095484628
:1024E000494652462346FFF787FB00950AA839461E
:1024F00042462346FFF780FB504651460AAA334620
:10250000FFF746FC00950AA841463A462346FFF7E6
:102510005BFB384649463246FFF74AFC0095384691
:1025200039460AAA2346FFF767FB009502A84146F1
:102530003A462346FFF760FB4846494602AA33461F
:10254000FFF726FC00954846494652462346FFF7CA
:1025500053FB02A812A93246FFF72AFC009502A8F5
:1025600001460AAA2346FFF747FB00950AA802A9DD
:1025700042462346FFF740FB0AA8014612AA33460B
:10258000FFF706FC009550460AA952462346FFF77E
:1025900033FB404602A92A46FFF7A0FA1AB0BDE86D
:1025A000F08700BF2DE9F04FB7B004900591924637
:1025B0001E46419D95F800B04FFA8BF42EA8224696
:1025C000FFF78CFAA2000292059B134403931EA806
:1025D00019462246FFF782FA2C782EB106A831461A
:1025E00062B2FFF77BFA05E006A861B2FFF71AFABC
:1025F0000123069364B226A82EA92246FFF76EFA9D
:1026000016A81EA92246FFF769FA2EA81EA906AA37
:102610002B46FFF7B1FED5F8A4402EA81EA906AAA6
:102620002B46A04726A816A906AA2B46FFF7A4FE0C
:10263000BDF90041023CA4B223B2002B26DD504676
:1026400021B2FFF713FAD0F1010038BF0020C0F12A
:102650000106760126AF374416AA16444FEA401801
:102660000DF19809C14490440095384631464A46D8
:102670004346FFF709FF0095484641463A46334630
:10268000FFF79AFE013CA4B2002CD8D1504600219D
:10269000FFF7ECF9D0F1010038BF0020C0F10104D0
:1026A000640126AE264416AB1C4447010DF1980880
:1026B000B8441F4400953046214642463B46FFF74A
:1026C000E3FE05F104094FFA8BFBCDF800B00EA82C
:1026D0002EA926AA4B46FFF78FFA0EA801462246DE
:1026E0002B46FFF755FB0EA80146059A2B46FFF730
:1026F0004FFB0EA801464A465B46FFF781FB0EA83A
:102700000146039A2B46FFF743FB0EA801463246CB
:102710002B46FFF73DFB009540463946324623469F
:10272000FFF74AFE26A816A90EAA2B46FFF724FE9D
:10273000049826A95A46FFF7D1F90498029A104442
:1027400016A95A46FFF7CAF937B0BDE8F08F00BFA7
:102750002DE9F84386460E469146B3F802800FFAFB
:1027600088F515F11F0448BF1F34C4F3471403F163
:102770002407084671463A4663B2FFF7B9F860B9D4
:1027800063B2B5EB431F0ADA30460FFA88F1FFF760
:102790006DF9051C18BF012502E0012500E00025A8
:1027A000484631463A4663B2FFF7A2F82846BDE8EC
:1027B000F88300BF30B595B0054614460CAB0293C4
:1027C00004AA0392084619462346FFF7C1FFD0F139
:1027D000010038BF002014AB03EB800050F8482CF8
:1027E000638801331BB200930194284604F144012D
:1027F0000023FFF7D7FE21784900284649B2FFF7AA
:102800001FF9D0F1010038BF002015B030BD00BF66
:10281000F0B4002912DD002423464F1E3C1B5DB29C
:10282000A60804F00304E40052F8266026FA04F433
:1028300044550133DBB25CB28C42EFDBF0BC704735
:102840002DE9F041064688461746D11C48BF0331A2
:1028500041F38701FFF7E6F8002F16DD0024234639
:102860007A1E141BA50859B218F8010004F00304DD
:10287000E40000FA04F456F82500204346F8250049
:102880000133DBB25CB2A742EBDCBDE8F08100BFF4
:102890002DE9F84F05468B46174608461146FFF7C7
:1028A000EFF81A4B1B6843B34FEA8708A8F10406F8
:1028B0002E44C0EB471000B24FF0FF3A2AFA00FA5C
:1028C0004024DFF8489028464146D9F80030984720
:1028D0000346B8B1336803EA0A0333602846394631
:1028E000FFF7AEF830B9584629463A46FFF732F9B5
:1028F000012804D0013CE6D103E0002302E00123DB
:1029000000E000231846BDE8F88F00BFAC97FF1F1A
:102910002DE9F04780460E469946B3F90240E31D83
:1029200048BF0733DD101F3448BF1F346411AA426B
:1029300038BF15465FFA84FA4FFA8AF1FFF772F84A
:10294000404631462A46FFF77BFFED00B9F90230D9
:102950009D422FD9EA1A08EB8404251FA04518D2FE
:10296000C8F10300284420F00300201A083800278B
:10297000C2F1200154F8046C26FA02F31F4344F814
:10298000047C06FA01F72E1F864202D02C463546FB
:10299000F0E709F12409484641464FFA8AF2FFF769
:1029A000ADF8012806D0404641464A464FFA8AF320
:1029B000FEF7CEFFBDE8F0872DE9F04FA7B08146C6
:1029C000884617461D46319C1EAB149316AB1593D3
:1029D0002678B4F802A0284671B2FFF731F8002833
:1029E00040F0B1800FFA8AF31F3348BF1F33C3F39F
:1029F0004713029304F1240B584629465AB2FFF7B5
:102A0000A9F8012840F0A18028461EA916AA23464D
:102A1000FFF79EFED0F1010038BF002026AA02EB8E
:102A2000800353F8482C0AF1010A0FFA8AF3009345
:102A3000019404A804F144010023FFF7B3FD04A8A6
:102A400071B2FEF7FDFF002840F08180434B1B6808
:102A50003BB91EA8029B59B2FEF7E4FF01231E9367
:102A600008E01EA85946029B5AB2FFF711FF034621
:102A700000286FD00DF1780A029A52B203920092A8
:102A80002846294652465B46FFF7C6F8284629469F
:102A90005A46039BFFF7B4F9039B00932846294647
:102AA00052465B46FFF7B8F8309894F9011004AA33
:102AB000FFF7AEFE5046B4F90230DA1D48BF0732C8
:102AC0004946D210FFF7BCFE029A4FFA82F909F18B
:102AD000FF3326AA02EB8303002243F8402C16A8FA
:102AE00004A972B2FEF7FAFFCDF8009016A81EA94D
:102AF00002465B46FFF790F81EA841463A46234639
:102B0000FFF706FFCDF8009016A81EA902465B4607
:102B1000FFF75AF8CDF8009016A801462A465B4602
:102B2000FFF77AF816A84946FEF7AAFF637859B26C
:102B3000B0EBC10F0DDC309A42FA83F016AAFFF712
:102B400067FE012306E0002304E0002302E00023E7
:102B500000E00023184627B0BDE8F08FAC97FF1FB8
:102B6000014B1860704700BFAC97FF1F00487047CB
:102B7000DC3C01002DE9F04198B007468846154637
:102B8000402402F12406B5F9023013F11F0248BFB8
:102B90001F3210A8314642F34712FFF779FE034671
:102BA00020B3684610A92A46FFF704FED8B1B5F94C
:102BB0000230D91D48BF07314046C91010AAFFF79F
:102BC00027FE384695F901106A46FFF721FE95F970
:102BD000011095F90020781800AB03EB8202FFF793
:102BE00017FE012302E0013CCDD10023184618B0A6
:102BF000BDE8F0812DE9F04F8BB083468A469146BF
:102C00009846149E402506F12407B6F9024014F1B7
:102C10001F0248BF1F3202A8394642F34712FFF78E
:102C200037FE034670B1CDF80080019658465146F4
:102C30004A4602ABFFF7C0FE034610B9013DE4D19E
:102C400000E0012318460BB0BDE8F08F2DE9F04FEE
:102C5000FDB08246069107929846869C94F800B093
:102C6000B4F902301F3348BF1F33C3F34713039334
:102C70005DB2013D7CA901EB8502002342F8C03C16
:102C800010AE46F825300DF1200949F8253018A876
:102C9000514694F90120FFF7D3FD4FFA8BF7BA00A4
:102CA000059218AB1344049394F9012018460AEBDB
:102CB0000201FFF7C5FD3046414694F90120FFF7B8
:102CC000BFFD94F90120484608EB0201FFF7B8FD6B
:102CD00030463946FEF7B4FE002840F0468108A889
:102CE0003946FEF7ADFE002840F0418104F124068C
:102CF000304610A9039B5AB2FEF700FF012840F0AE
:102D00003881304608A9039B5AB2FEF7F7FE012826
:102D100040F0318103994FFA81FA64A808A932463C
:102D20005346FFF76DF87CAA02EB8505002345F8B2
:102D3000203C74A80699079A2346FFF7E9FDCDF8D1
:102D400000A074A8014664AA3346FEF765FFCDF8DB
:102D500000A06CA810A964AA3346FEF75DFF0DF52C
:102D6000A878404618A93A46FEF7B8FE05994144AE
:102D70000691084604993A46FEF7B0FE04F1440372
:102D80003CA8049319463A46FEF7A8FE04EB8701D7
:102D900034A844313A46FEF7A1FE04F10409009735
:102DA00064A841463CAA4B46FEF726FF00943CA887
:102DB00034A94246069BFFF7FFFA64A801464A463B
:102DC0003B46FFF71DF84046069964AA2346FFF7E5
:102DD000D3FA00222892049B299318A92A91CDF8AE
:102DE000AC8074A85146FEF74BFE07466CA85146CE
:102DF000FEF746FEB842B8BF384687B27D1E2DB2F8
:102E000074A82946FEF732FE10F1000818BF4FF0F3
:102E100001086CA82946FEF729FE00280CBF0023F4
:102E2000022343EA080828AB53F828804FFA8BF5B1
:102E30004CA841462A46FEF751FE44A80599414454
:102E40002A46FEF74BFE64A82946FEF7EBFD012358
:102E50006493023FBFB217F4004F4DD1DDF81480E8
:102E6000D4F8A4504CA844A964AA2346A8473DB26C
:102E700074A82946FEF7FAFD10F1000A18BF4FF0BA
:102E8000010A6CA82946FEF7F1FD00280CBF0023BB
:102E9000022343EA0A0A28AB53F82A503DB34FFAFB
:102EA0008BFA3CA829465246FEF718FE34A805EBDB
:102EB00008015246FEF712FE3CA834A964AA234634
:102EC000FFF75AFACDF800A02CA84CA93CAA4B4613
:102ED000FEF792FE00943CA834A94CAA44ABFFF73D
:102EE0006BFA64A801462CAA2346FEF751FF013F66
:102EF000BFB217F4004FB3D064A801464A464FFA58
:102F00008BF3FEF77DFF4CA844A964AA2346FFF784
:102F100033FA30464CA9039C62B2FEF7EFFD01285C
:102F200005D04CA80146324663B2FEF711FD0BF105
:102F3000FF33DBB213F0800F11D1002010AD5AB275
:102F40007CA901EB820455F8221054F8C02C4A40A9
:102F50001043013BDBB213F0800FF0D000E0002003
:102F6000D0F1010038BF002006E0002004E000207E
:102F700002E0002000E000207DB0BDE8F08F00BF3F
:102F800070B516464AB10E440C46451A204608F064
:102F9000B1FE28550134B442F8D170BD70B5154664
:102FA00042B10C46461A2046315D08F0B7FE0134A6
:102FB000013DF8D170BD00BF08B540F2B5710122E6
:102FC000FFF7DEFF012008BD08B540F2B571012210
:102FD000FFF7E4FF08BD00BF08B540F2B77101225A
:102FE000FFF7CEFF012008BD08B540F2B7710122FE
:102FF000FFF7D4FF08BD00BF08B54FF4F66101220A
:10300000FFF7CCFF08BD00BF08B540F2B171022246
:10301000FFF7C4FF08BD00BF08B540F2B37102223C
:10302000FFF7AEFF022008BD08B540F2B3710222DF
:10303000FFF7B4FF08BD00BF08B540F2AC71012234
:10304000FFF79EFF012008BD08B540F2AC710122D8
:10305000FFF7A4FF08BD00BF08B540F2AD71012223
:10306000FFF78EFF012008BD08B540F2AD710122C7
:10307000FFF794FF08BD00BF08B540F2AE71012212
:10308000FFF77EFF012008BD08B540F2AE710122B6
:10309000FFF784FF08BD00BF08B540F2AF71012201
:1030A000FFF76EFF012008BD08B540F2AF710122A5
:1030B000FFF774FF08BD00BF08B54FF4EB610122B4
:1030C000FFF75EFF012008BD08B54FF4EB61012258
:1030D000FFF764FF08BD00BF08B540F25971012237
:1030E000FFF74EFF012008BD08B540F259710122DB
:1030F000FFF754FF08BD00BF08B540F25A71012226
:10310000FFF73EFF012008BD08B540F25A710122C9
:10311000FFF744FF08BD00BF08B540F25B71012214
:10312000FFF72EFF012008BD08B540F25B710122B8
:10313000FFF734FF08BD00BF08B540F25C71012203
:10314000FFF71EFF012008BD08B540F25C710122A7
:10315000FFF724FF08BD00BF08B540F25D710122F2
:10316000FFF70EFF012008BD08B540F25D71012296
:10317000FFF714FF08BD00BF08B540F25E710122E1
:10318000FFF7FEFE012008BD08B540F25E71012286
:10319000FFF704FF08BD00BF08B540F25F710122D0
:1031A000FFF7EEFE012008BD08B540F25F71012275
:1031B000FFF7F4FE08BD00BF08B54FF4EC61012233
:1031C000FFF7DEFE012008BD08B54FF4EC610122D7
:1031D000FFF7E4FE08BD00BF08B540F261710122AF
:1031E000FFF7CEFE012008BD08B540F26171012253
:1031F000FFF7D4FE08BD00BF08B540F2627101229E
:10320000FFF7BEFE012008BD08B540F26271012241
:10321000FFF7C4FE08BD00BF08B540F2637101228C
:10322000FFF7AEFE012008BD08B540F26371012230
:10323000FFF7B4FE08BD00BF08B540F2647101227B
:10324000FFF79EFE012008BD08B540F2647101221F
:10325000FFF7A4FE08BD00BF08B540F2657101226A
:10326000FFF78EFE012008BD08B540F2657101220E
:10327000FFF794FE08BD00BF08B540F26671012259
:10328000FFF77EFE012008BD08B540F266710122FD
:10329000FFF784FE08BD00BF08B540F26771012248
:1032A000FFF76EFE012008BD08B540F267710122EC
:1032B000FFF774FE08BD00BF08B54FF4ED610122B1
:1032C000FFF75EFE012008BD08B54FF4ED61012255
:1032D000FFF764FE08BD00BF08B540F26971012226
:1032E000FFF74EFE012008BD08B540F269710122CA
:1032F000FFF754FE08BD00BF08B540F26A71012215
:10330000FFF73EFE012008BD08B540F26A710122B8
:10331000FFF744FE08BD00BF08B540F26B71012203
:10332000FFF72EFE012008BD08B540F26B710122A7
:10333000FFF734FE08BD00BF08B540F26C710122F2
:10334000FFF71EFE012008BD08B540F26C71012296
:10335000FFF724FE08BD00BF08B540F26D710122E1
:10336000FFF70EFE012008BD08B540F26D71012285
:10337000FFF714FE08BD00BF08B540F26E710122D0
:10338000FFF7FEFD012008BD08B540F26E71012275
:10339000FFF704FE08BD00BF08B540F26F710122BF
:1033A000FFF7EEFD012008BD08B540F26F71012264
:1033B000FFF7F4FD08BD00BF08B54FF4826101229C
:1033C000FFF7DEFD012008BD08B54FF48261012240
:1033D000FFF7E4FD08BD00BF08B540F2114101222E
:1033E000FFF7CEFD012008BD08B540F211410122D2
:1033F000FFF7D4FD08BD00BF08B540F2124101221D
:10340000FFF7BEFD012008BD08B540F212410122C0
:10341000FFF7C4FD08BD00BF08B540F2134101220B
:10342000FFF7AEFD012008BD08B540F213410122AF
:10343000FFF7B4FD08BD00BF08B540F214410122FA
:10344000FFF79EFD012008BD08B540F2144101229E
:10345000FFF7A4FD08BD00BF08B540F215410122E9
:10346000FFF78EFD012008BD08B540F2154101228D
:10347000FFF794FD08BD00BF08B540F216410122D8
:10348000FFF77EFD012008BD08B540F2164101227C
:10349000FFF784FD08BD00BF08B540F217410122C7
:1034A000FFF76EFD012008BD08B540F2174101226B
:1034B000FFF774FD08BD00BF08B54FF4836101221A
:1034C000FFF75EFD012008BD08B54FF483610122BE
:1034D000FFF764FD08BD00BF08B540F219410122A5
:1034E000FFF74EFD012008BD08B540F21941012249
:1034F000FFF754FD08BD00BF08B540F21A41012294
:10350000FFF73EFD012008BD08B540F21A41012237
:10351000FFF744FD08BD00BF08B540F21B41012282
:10352000FFF72EFD012008BD08B540F21C41012225
:10353000FFF726FD012008BD08B540F21C4101221D
:10354000FFF72CFD08BD00BF08B540F21D41012268
:10355000FFF716FD012008BD08B540F21D4101220C
:10356000FFF71CFD08BD00BF08B540F21E41012257
:10357000FFF706FD012008BD08B540F21E410122FB
:10358000FFF70CFD08BD00BF08B540F21F41012246
:10359000FFF7F6FC012008BD08B540F21F410122EB
:1035A000FFF7FCFC08BD00BF08B54FF484610122A1
:1035B000FFF7E6FC012008BD08B54FF48461012245
:1035C000FFF7ECFC08BD00BF08B540F22141012225
:1035D000FFF7D6FC012008BD08B540F221410122C9
:1035E000FFF7DCFC08BD00BF08B540F22241012214
:1035F000FFF7C6FC012008BD08B540F222410122B8
:10360000FFF7CCFC08BD00BF08B540F22341012202
:10361000FFF7B6FC012008BD08B540F223410122A6
:10362000FFF7BCFC08BD00BF08B540F224410122F1
:10363000FFF7A6FC012008BD08B540F22441012295
:10364000FFF7ACFC08BD00BF08B540F225410122E0
:10365000FFF796FC012008BD08B540F22541012284
:10366000FFF79CFC08BD00BF08B540F226410122CF
:10367000FFF786FC012008BD08B540F22641012273
:10368000FFF78CFC08BD00BF08B540F227410122BE
:10369000FFF776FC012008BD08B540F22741012262
:1036A000FFF77CFC08BD00BF08B54FF4F4610122B0
:1036B000FFF766FC012008BD08B54FF4F461012254
:1036C000FFF76CFC08BD00BF08B540F2A1710122F4
:1036D000FFF756FC012008BD08B540F2A171012298
:1036E000FFF75CFC08BD00BF08B540F2A2710122E3
:1036F000FFF746FC012008BD08B540F2A271012287
:10370000FFF74CFC08BD00BF08B540F2A3710122D1
:10371000FFF736FC012008BD08B540F2A371012275
:10372000FFF73CFC08BD00BF08B540F2A4710122C0
:10373000FFF726FC012008BD08B540F2A471012264
:10374000FFF72CFC08BD00BF08B540F2A5710122AF
:10375000FFF716FC012008BD08B540F2A571012253
:10376000FFF71CFC08BD00BF08B540F2A67101229E
:10377000FFF706FC012008BD08B540F2A671012242
:10378000FFF70CFC08BD00BF08B540F2A77101228D
:10379000FFF7F6FB012008BD08B540F2A771012232
:1037A000FFF7FCFB08BD00BF08B54FF4F56101222F
:1037B000FFF7E6FB012008BD08B54FF4F5610122D3
:1037C000FFF7ECFB08BD00BF08B540F2A97101226C
:1037D000FFF7D6FB012008BD08B540F2A971012210
:1037E000FFF7DCFB08BD00BF08B540F2AA7101225B
:1037F000FFF7C6FB012008BD08B540F2AA710122FF
:10380000FFF7CCFB08BD00BF08B540F2AB71012249
:10381000FFF7B6FB012008BD10B582B004460DF1DC
:103820000700FFF709FC9DF80730102B06D1204652
:1038300002211022FFF7A4FB102000E0002002B0BC
:1038400010BD00BF10B582B00C4602211022FFF758
:10385000A5FB102CA8BF102402A800F8014DFFF70B
:10386000F3FB02B010BD00BF10B582B004460DF1ED
:103870000700FFF7F1FB9DF80730022B06D1204629
:103880001E210222FFF77CFB022000E0002002B094
:1038900010BD00BF00B583B01E210222FFF77EFBE2
:1038A00002A8022300F8013DFFF7DEFB03B05DF83C
:1038B00004FB00BF10B582B004460DF10700FFF70E
:1038C000DBFB9DF80730062B06D120461821062287
:1038D000FFF756FB062000E0002002B010BD00BF3D
:1038E00000B583B018210622FFF758FB02A8062373
:1038F00000F8013DFFF7C8FB03B05DF804FB00BF13
:1039000030B583B005460DF10700FFF7C5FB9DF804
:103910000740284612210622FFF732FB062CB4BFCF
:103920002046062003B030BD10B582B00C461221EF
:103930000622FFF733FB062CA8BF062402A800F8D6
:10394000014DFFF7B1FB02B010BD00BF30B583B031
:1039500004460139172900F2B281DFE811F018009E
:1039600029003A004B005C006D007E008F00A00033
:10397000B100C200D300E400F500060117012801E0
:1039800039014A015B016C017D018E019F010DF13E
:103990000700FFF791FB9DF80750202DA8BF2025B9
:1039A00020464FF48B612022FFF7EAFA284686E191
:1039B0000DF10700FFF790FB9DF80750202DA8BFE1
:1039C000202520464FF48F612022FFF7D9FA2846A0
:1039D00075E10DF10700FFF78FFB9DF80750202DD3
:1039E000A8BF202520464FF493612022FFF7C8FA94
:1039F000284664E10DF10700FFF78EFB9DF80750A4
:103A0000202DA8BF202520464FF497612022FFF7E4
:103A1000B7FA284653E10DF10700FFF78DFB9DF83B
:103A20000750202DA8BF202520464FF49B6120225F
:103A3000FFF7A6FA284642E10DF10700FFF78CFBDD
:103A40009DF80750202DA8BF202520464FF49F61E8
:103A50002022FFF795FA284631E10DF10700FFF724
:103A60008BFB9DF80750202DA8BF202520464FF442
:103A7000A3612022FFF784FA284620E10DF1070018
:103A8000FFF78AFB9DF80750202DA8BF2025204670
:103A90004FF4A7612022FFF773FA28460FE10DF1DA
:103AA0000700FFF789FB9DF80750202DA8BF2025B0
:103AB00020464FF4AB612022FFF762FA2846FEE071
:103AC0000DF10700FFF788FB9DF80750202DA8BFD8
:103AD000202520464FF4AF612022FFF751FA2846F7
:103AE000EDE00DF10700FFF787FB9DF80750202D53
:103AF000A8BF202520464FF4B3612022FFF740FAEB
:103B00002846DCE00DF10700FFF786FB9DF8075023
:103B1000202DA8BF202520464FF4B7612022FFF7B3
:103B20002FFA2846CBE00DF10700FFF785FB9DF843
:103B30000750202DA8BF202520464FF4BB6120222E
:103B4000FFF71EFA2846BAE00DF10700FFF784FBE5
:103B50009DF80750202DA8BF202520464FF4BF61B7
:103B60002022FFF70DFA2846A9E00DF10700FFF724
:103B700083FB9DF80750202DA8BF202520464FF439
:103B8000C3612022FFF7FCF9284698E00DF10700F9
:103B9000FFF782FB9DF80750202DA8BF2025204667
:103BA0004FF4C7612022FFF7EBF9284687E00DF1BB
:103BB0000700FFF781FB9DF80750202DA8BF2025A7
:103BC00020464FF4CB612022FFF7DAF9284676E051
:103BD0000DF10700FFF780FB9DF80750202DA8BFCF
:103BE000202520464FF4CF612022FFF7C9F928464F
:103BF00065E00DF10700FFF77FFB9DF80750202DD2
:103C0000A8BF202520464FF4D3612022FFF7B8F942
:103C1000284654E00DF10700FFF77EFB9DF80750A2
:103C2000202DA8BF202520464FF4D7612022FFF782
:103C3000A7F9284643E00DF10700FFF77DFB9DF84B
:103C40000750202DA8BF202520464FF4DB612022FD
:103C5000FFF796F9284632E00DF10700FFF77CFBED
:103C60009DF80750202DA8BF202520464FF4DF6186
:103C70002022FFF785F9284621E00DF10700FFF724
:103C80007BFB9DF80750202DA8BF202520464FF430
:103C9000E3612022FFF774F9284610E00DF10700D8
:103CA000FFF77AFB9DF80750202DA8BF202520465E
:103CB0004FF4E7612022FFF763F92846FFE703B0DE
:103CC00030BD00BF10B582B00C46013A172A00F291
:103CD0006981DFE812F0180026003400420050002D
:103CE0005E006C007A0088009600A400B200C0005C
:103CF000CE00DC00EA00F8000601140122013001C8
:103D00003E014C015A014FF48B612022FFF746F926
:103D1000202CA8BF202402A800F8014DFFF7D4F9F9
:103D200040E14FF48F612022FFF738F9202CA8BF23
:103D3000202402A800F8014DFFF7D6F932E14FF434
:103D400093612022FFF72AF9202CA8BF202402A883
:103D500000F8014DFFF7D8F924E14FF497612022D4
:103D6000FFF71CF9202CA8BF202402A800F8014D61
:103D7000FFF7DAF916E14FF49B612022FFF70EF905
:103D8000202CA8BF202402A800F8014DFFF7DCF981
:103D900008E14FF49F612022FFF700F9202CA8BF13
:103DA000202402A800F8014DFFF7DEF9FAE04FF4F5
:103DB000A3612022FFF7F2F8202CA8BF202402A83C
:103DC00000F8014DFFF7E0F9ECE04FF4A761202285
:103DD000FFF7E4F8202CA8BF202402A800F8014D2A
:103DE000FFF7E2F9DEE04FF4AB612022FFF7D6F8EF
:103DF000202CA8BF202402A800F8014DFFF7E4F909
:103E0000D0E04FF4AF612022FFF7C8F8202CA8BF04
:103E1000202402A800F8014DFFF7E6F9C2E04FF4B4
:103E2000B3612022FFF7BAF8202CA8BF202402A8F3
:103E300000F8014DFFF7E8F9B4E04FF4B761202234
:103E4000FFF7ACF8202CA8BF202402A800F8014DF1
:103E5000FFF7DAF9A6E04FF4BB612022FFF79EF8E6
:103E6000202CA8BF202402A800F8014DFFF7ECF990
:103E700098E04FF4BF612022FFF790F8202CA8BFF4
:103E8000202402A800F8014DFFF7EEF98AE04FF474
:103E9000C3612022FFF782F8202CA8BF202402A8AB
:103EA00000F8014DFFF7F0F97CE04FF4C7612022E4
:103EB000FFF774F8202CA8BF202402A800F8014DB9
:103EC000FFF7F2F96EE04FF4CB612022FFF766F8BE
:103ED000202CA8BF202402A800F8014DFFF7F4F918
:103EE00060E04FF4CF612022FFF758F8202CA8BFE4
:103EF000202402A800F8014DFFF7F6F952E04FF434
:103F0000D3612022FFF74AF8202CA8BF202402A862
:103F100000F8014DFFF7F8F944E04FF4D761202293
:103F2000FFF73CF8202CA8BF202402A800F8014D80
:103F3000FFF7FAF936E04FF4DB612022FFF72EF8A5
:103F4000202CA8BF202402A800F8014DFFF7FCF99F
:103F500028E04FF4DF612022FFF720F8202CA8BFD3
:103F6000202402A800F8014DFFF7FEF91AE04FF4F3
:103F7000E3612022FFF712F8202CA8BF202402A81A
:103F800000F8014DFFF700FA0CE04FF4E761202242
:103F9000FFF704F8202CA8BF202402A800F8014D48
:103FA000FFF702FA02B010BD08B50139172900F277
:103FB0008780DFE801F00C11161B20252A2F3439E9
:103FC0003E43484D52575C61666B70757A7F202185
:103FD0000A22FEF7D5FF74E02A210A22FEF7D0FF5D
:103FE0006FE034210A22FEF7CBFF6AE03E210A226D
:103FF000FEF7C6FF65E048210A22FEF7C1FF60E038
:1040000052210A22FEF7BCFF5BE05C210A22FEF788
:10401000B7FF56E066210A22FEF7B2FF51E0702199
:104020000A22FEF7ADFF4CE07A210A22FEF7A8FF34
:1040300047E084210A22FEF7A3FF42E08E210A22F4
:10404000FEF79EFF3DE098210A22FEF799FF38E037
:10405000A2210A22FEF794FF33E0AC210A22FEF7E8
:104060008FFF2EE0B6210A22FEF78AFF29E0C02149
:104070000A22FEF785FF24E0CA210A22FEF780FF0C
:104080001FE0D4210A22FEF77BFF1AE0DE210A227C
:10409000FEF776FF15E0E8210A22FEF771FF10E037
:1040A000F2210A22FEF76CFF0BE0FC210A22FEF748
:1040B00067FF06E04FF483710A22FEF761FF00E01C
:1040C00008BD0A2008BD00BF08B5013A172A00F252
:1040D0008680DFE802F00C11161B20252A2F3439C8
:1040E0003E43484D52575C61666B70757A7F202164
:1040F0000A22FEF753FF08BD2A210A22FEF74EFFCF
:1041000008BD34210A22FEF749FF08BD3E210A22DC
:10411000FEF744FF08BD48210A22FEF73FFF08BD15
:1041200052210A22FEF73AFF08BD5C210A22FEF75F
:1041300035FF08BD66210A22FEF730FF08BD702159
:104140000A22FEF72BFF08BD7A210A22FEF726FF7E
:1041500008BD84210A22FEF721FF08BD8E210A2214
:10416000FEF71CFF08BD98210A22FEF717FF08BDC5
:10417000A2210A22FEF712FF08BDAC210A22FEF797
:104180000DFF08BDB6210A22FEF708FF08BDC021B9
:104190000A22FEF703FF08BDCA210A22FEF7FEFE2F
:1041A00008BDD4210A22FEF7F9FE08BDDE210A224D
:1041B000FEF7F4FE08BDE8210A22FEF7EFFE08BD77
:1041C000F2210A22FEF7EAFE08BDFC210A22FEF7D0
:1041D000E5FE08BD4FF483710A22FEF7DFFE08BD3D
:1041E00008B50139172900F29E80DFE801F00C12B2
:1041F000181E242A30363C42484E545A60666C726F
:10420000787E848A90964FF485610122FEF7B8FE8D
:104210008AE040F229410122FEF7B2FE84E040F23A
:104220002A410122FEF7ACFE7EE040F22B41012242
:10423000FEF7A6FE78E040F22C410122FEF7A0FE38
:1042400072E040F22D410122FEF79AFE6CE040F24E
:104250002E410122FEF794FE66E040F22F4101223A
:10426000FEF78EFE60E04FF486610122FEF788FEC5
:104270005AE040F231410122FEF782FE54E040F262
:1042800032410122FEF77CFE4EE040F23341012232
:10429000FEF776FE48E040F234410122FEF770FE60
:1042A00042E040F235410122FEF76AFE3CE040F276
:1042B00036410122FEF764FE36E040F2374101222A
:1042C000FEF75EFE30E04FF487610122FEF758FEF4
:1042D0002AE040F239410122FEF752FE24E040F28A
:1042E0003A410122FEF74CFE1EE040F23B41012222
:1042F000FEF746FE18E040F23C410122FEF740FE88
:1043000012E040F23D410122FEF73AFE0CE040F29D
:104310003E410122FEF734FE06E040F23F41012219
:10432000FEF72EFE00E008BD012008BD08B50139EA
:10433000172900F29D80DFE801F00C12181E242AD4
:1043400030363C42484E545A60666C72787E848A9D
:1043500090964FF485610122FEF720FE08BD40F2E1
:1043600029410122FEF71AFE08BD40F22A4101222E
:10437000FEF714FE08BD40F22B410122FEF70EFEAF
:1043800008BD40F22C410122FEF708FE08BD40F2B4
:104390002D410122FEF702FE08BD40F22E4101220E
:1043A000FEF7FCFD08BD40F22F410122FEF7F6FDAD
:1043B00008BD4FF486610122FEF7F0FD08BD40F212
:1043C00031410122FEF7EAFD08BD40F232410122EF
:1043D000FEF7E4FD08BD40F233410122FEF7DEFDA9
:1043E00008BD40F234410122FEF7D8FD08BD40F27D
:1043F00035410122FEF7D2FD08BD40F236410122CF
:10440000FEF7CCFD08BD40F237410122FEF7C6FDA4
:1044100008BD4FF487610122FEF7C0FD08BD40F2E0
:1044200039410122FEF7BAFD08BD40F23A410122AE
:10443000FEF7B4FD08BD40F23B410122FEF7AEFDA0
:1044400008BD40F23C410122FEF7A8FD08BD40F244
:104450003D410122FEF7A2FD08BD40F23E4101228E
:10446000FEF79CFD08BD40F23F410122FEF796FD9C
:1044700008BD00BF08B50139172900F29E80DFE8AA
:1044800001F00C12181E242A30363C42484E545A71
:1044900060666C72787E848A90964FF4EE61012299
:1044A000FEF76EFD8AE040F271710122FEF768FDB1
:1044B00084E040F272710122FEF762FD7EE040F27C
:1044C00073710122FEF75CFD78E040F27471012205
:1044D000FEF756FD72E040F275710122FEF750FDC5
:1044E0006CE040F276710122FEF74AFD66E040F290
:1044F00077710122FEF744FD60E04FF4EF61012285
:10450000FEF73EFD5AE040F279710122FEF738FDD8
:1045100054E040F27A710122FEF732FD4EE040F2A3
:104520007B710122FEF72CFD48E040F27C710122F4
:10453000FEF726FD42E040F27D710122FEF720FDEC
:104540003CE040F27E710122FEF71AFD36E040F2B7
:104550007F710122FEF714FD30E04FF4F06101227B
:10456000FEF70EFD2AE040F281710122FEF708FD00
:1045700024E040F282710122FEF702FD1EE040F2CB
:1045800083710122FEF7FCFC18E040F284710122E5
:10459000FEF7F6FC12E040F285710122FEF7F0FC16
:1045A0000CE040F286710122FEF7EAFC06E040F2E0
:1045B00087710122FEF7E4FC00E008BD012008BD80
:1045C00008B50139172900F29D80DFE801F00C12CF
:1045D000181E242A30363C42484E545A60666C728B
:1045E000787E848A90964FF4EE610122FEF7D6FC25
:1045F00008BD40F271710122FEF7D0FC08BD40F207
:1046000072710122FEF7CAFC08BD40F273710122EB
:10461000FEF7C4FC08BD40F274710122FEF7BEFC37
:1046200008BD40F275710122FEF7B8FC08BD40F2EA
:1046300076710122FEF7B2FC08BD40F277710122CB
:10464000FEF7ACFC08BD4FF4EF610122FEF7A6FCBB
:1046500008BD40F279710122FEF7A0FC08BD40F2CE
:104660007A710122FEF79AFC08BD40F27B710122AB
:10467000FEF794FC08BD40F27C710122FEF78EFC2F
:1046800008BD40F27D710122FEF788FC08BD40F2B2
:104690007E710122FEF782FC08BD40F27F7101228B
:1046A000FEF77CFC08BD4FF4F0610122FEF776FCBA
:1046B00008BD40F281710122FEF770FC08BD40F296
:1046C00082710122FEF76AFC08BD40F2837101226B
:1046D000FEF764FC08BD40F284710122FEF75EFC27
:1046E00008BD40F285710122FEF758FC08BD40F27A
:1046F00086710122FEF752FC08BD40F2877101224B
:10470000FEF74CFC08BD00BF08B50139172900F2BF
:104710009E80DFE801F00C12181E242A30363C423D
:10472000484E545A60666C72787E848A90964FF434
:1047300088610122FEF724FC8AE040F24141012217
:10474000FEF71EFC84E040F242410122FEF718FC15
:104750007EE040F243410122FEF712FC78E040F295
:1047600044410122FEF70CFC72E040F24541012277
:10477000FEF706FC6CE040F246410122FEF700FC29
:1047800066E040F247410122FEF7FAFB60E04FF499
:1047900089610122FEF7F4FB5AE040F2494101220F
:1047A000FEF7EEFB54E040F24A410122FEF7E8FB3F
:1047B0004EE040F24B410122FEF7E2FB48E040F2BE
:1047C0004C410122FEF7DCFB42E040F24D41012268
:1047D000FEF7D6FB3CE040F24E410122FEF7D0FB53
:1047E00036E040F24F410122FEF7CAFB30E04FF4C1
:1047F0008A610122FEF7C4FB2AE040F25141012206
:10480000FEF7BEFB24E040F252410122FEF7B8FB66
:104810001EE040F253410122FEF7B2FB18E040F2E5
:1048200054410122FEF7ACFB12E040F25541012257
:10483000FEF7A6FB0CE040F256410122FEF7A0FB7A
:1048400006E040F257410122FEF79AFB00E008BD66
:10485000012008BD08B50139172900F29D80DFE865
:1048600001F00C12181E242A30363C42484E545A8D
:1048700060666C72787E848A90964FF4886101221B
:10488000FEF78CFB08BD40F241410122FEF786FB9A
:1048900008BD40F242410122FEF780FB08BD40F214
:1048A00043410122FEF77AFB08BD40F24441012258
:1048B000FEF774FB08BD40F245410122FEF76EFB96
:1048C00008BD40F246410122FEF768FB08BD40F2F8
:1048D00047410122FEF762FB08BD4FF489610122C6
:1048E000FEF75CFB08BD40F249410122FEF756FB92
:1048F00008BD40F24A410122FEF750FB08BD40F2DC
:104900004B410122FEF74AFB08BD40F24C41012217
:10491000FEF744FB08BD40F24D410122FEF73EFB8D
:1049200008BD40F24E410122FEF738FB08BD40F2BF
:104930004F410122FEF732FB08BD4FF48A6101228C
:10494000FEF72CFB08BD40F251410122FEF726FB89
:1049500008BD40F252410122FEF720FB08BD40F2A3
:1049600053410122FEF71AFB08BD40F254410122D7
:10497000FEF714FB08BD40F255410122FEF70EFB85
:1049800008BD40F256410122FEF708FB08BD40F287
:1049900057410122FEF702FB08BD00BF08B50139EF
:1049A0000B294FD8DFE801F0060C12181E242A301C
:1049B000363C42484FF4F1610122FEF7E1FA42E051
:1049C00040F289710122FEF7DBFA3CE040F28A7185
:1049D0000122FEF7D5FA36E040F28B710122FEF794
:1049E000CFFA30E040F28C710122FEF7C9FA2AE0DA
:1049F00040F28D710122FEF7C3FA24E040F28E717D
:104A00000122FEF7BDFA1EE040F28F710122FEF78F
:104A1000B7FA18E04FF4F2610122FEF7B1FA12E0A2
:104A200040F291710122FEF7ABFA0CE040F2927174
:104A30000122FEF7A5FA06E040F293710122FEF78B
:104A40009FFA00E008BD012008BD00BF08B501398C
:104A50000B294ED8DFE801F0060C12181E242A306C
:104A6000363C42484FF4F1610122FEF797FA08BD47
:104A700040F289710122FEF791FA08BD40F28A7175
:104A80000122FEF78BFA08BD40F28B710122FEF77E
:104A900085FA08BD40F28C710122FEF77FFA08BD4D
:104AA00040F28D710122FEF779FA08BD40F28E7155
:104AB0000122FEF773FA08BD40F28F710122FEF762
:104AC0006DFA08BD4FF4F2610122FEF767FA08BDE6
:104AD00040F291710122FEF761FA08BD40F2927135
:104AE0000122FEF75BFA08BD40F293710122FEF746
:104AF00055FA08BD08B501390B294FD8DFE801F098
:104B0000060C12181E242A30363C424840F294719A
:104B10000122FEF735FA42E040F295710122FEF7DC
:104B20002FFA3CE040F296710122FEF729FA36E0B6
:104B300040F297710122FEF723FA30E04FF4F3615F
:104B40000122FEF71DFA2AE040F299710122FEF7D8
:104B500017FA24E040F29A710122FEF711FA1EE0E2
:104B600040F29B710122FEF70BFA18E040F29C71B3
:104B70000122FEF705FA12E040F29D710122FEF7D4
:104B8000FFF90CE040F29E710122FEF7F9F906E010
:104B900040F29F710122FEF7F3F900E008BD012009
:104BA00008BD00BF08B501390B294ED8DFE801F078
:104BB000060C12181E242A30363C424840F29471EA
:104BC0000122FEF7EBF908BD40F295710122FEF7D4
:104BD000E5F908BD40F296710122FEF7DFF908BD44
:104BE00040F297710122FEF7D9F908BD4FF4F36145
:104BF0000122FEF7D3F908BD40F299710122FEF7B8
:104C0000CDF908BD40F29A710122FEF7C7F908BD3F
:104C100040F29B710122FEF7C1F908BD40F29C7180
:104C20000122FEF7BBF908BD40F29D710122FEF79B
:104C3000B5F908BD40F29E710122FEF7AFF908BD3B
:104C400040F29F710122FEF7A9F908BD30B583B08B
:104C500004460139172900F2B281DFE811F018008B
:104C600029003A004B005C006D007E008F00A00020
:104C7000B100C200D300E400F500060117012801CD
:104C800039014A015B016C017D018E019F010DF12B
:104C90000700FEF791FB9DF80750202DA8BF2025A7
:104CA00020464FF488712022FEF76AF9284686E1F3
:104CB0000DF10700FEF790FB9DF80750202DA8BFCF
:104CC000202520464FF498712022FEF759F92846F6
:104CD00075E10DF10700FEF78FFB9DF80750202DC1
:104CE000A8BF202520464FF4A8712022FEF748F9DE
:104CF000284664E10DF10700FEF78EFB9DF8075092
:104D0000202DA8BF202520464FF4B8712022FEF7A1
:104D100037F9284653E10DF10700FEF78DFB9DF8AA
:104D20000750202DA8BF202520464FF4C87120220F
:104D3000FEF726F9284642E10DF10700FEF78CFB4D
:104D40009DF80750202DA8BF202520464FF4D8718C
:104D50002022FEF715F9284631E10DF10700FEF794
:104D60008BFB9DF80750202DA8BF202520464FF42F
:104D7000E8712022FEF704F9284620E10DF1070032
:104D8000FEF78AFB9DF80750202DA8BF202520465E
:104D90004FF4F8712022FEF7F3F828460FE10DF1E9
:104DA0000700FEF789FB9DF80750202DA8BF20259E
:104DB00020464FF404712022FEF7E2F82846FEE078
:104DC0000DF10700FEF788FB9DF80750202DA8BFC6
:104DD000202520464FF40C712022FEF7D1F82846FA
:104DE000EDE00DF10700FEF787FB9DF80750202D41
:104DF000A8BF202520464FF414712022FEF7C0F8EA
:104E00002846DCE00DF10700FEF786FB9DF8075011
:104E1000202DA8BF202520464FF41C712022FEF72C
:104E2000AFF82846CBE00DF10700FEF77DFB9DF8BB
:104E30000750202DA8BF202520464FF424712022A2
:104E4000FEF79EF82846BAE00DF10700FEF77CFB5E
:104E50009DF80750202DA8BF202520464FF42C7127
:104E60002022FEF78DF82846A9E00DF10700FEF795
:104E70007BFB9DF80750202DA8BF202520464FF42E
:104E800034712022FEF77CF8284698E00DF10700E7
:104E9000FEF77AFB9DF80750202DA8BF202520465D
:104EA0004FF43C712022FEF76BF8284687E00DF1A5
:104EB0000700FEF779FB9DF80750202DA8BF20259D
:104EC00020464FF444712022FEF75AF8284676E037
:104ED0000DF10700FEF778FB9DF80750202DA8BFC5
:104EE000202520464FF44C712022FEF749F8284631
:104EF00065E00DF10700FEF777FB9DF80750202DC8
:104F0000A8BF202520464FF454712022FEF738F820
:104F1000284654E00DF10700FEF776FB9DF8075098
:104F2000202DA8BF202520464FF45C712022FEF7DB
:104F300027F8284643E00DF10700FEF775FB9DF8C2
:104F40000750202DA8BF202520464FF46471202251
:104F5000FEF716F8284632E00DF10700FEF774FB65
:104F60009DF80750202DA8BF202520464FF46C71D6
:104F70002022FEF705F8284621E00DF10700FEF794
:104F800073FB9DF80750202DA8BF202520464FF425
:104F900074712022FDF7F4FF284610E00DF10700A0
:104FA000FEF772FB9DF80750202DA8BF2025204654
:104FB0004FF47C712022FDF7E3FF2846FFE703B0A2
:104FC00030BD00BF10B582B00C46013A172A00F27E
:104FD0006981DFE812F0180026003400420050001A
:104FE0005E006C007A0088009600A400B200C00049
:104FF000CE00DC00EA00F8000601140122013001B5
:105000003E014C015A014FF488712022FDF7C6FF82
:10501000202CA8BF202402A800F8014DFEF7D4F9E7
:1050200040E14FF498712022FDF7B8FF202CA8BF73
:10503000202402A800F8014DFEF7D6F932E14FF422
:10504000A8712022FDF7AAFF202CA8BF202402A8C7
:1050500000F8014DFEF7D8F924E14FF4B871202291
:10506000FDF79CFF202CA8BF202402A800F8014DCA
:10507000FEF7DAF916E14FF4C8712022FDF78EFF32
:10508000202CA8BF202402A800F8014DFEF7DCF96F
:1050900008E14FF4D8712022FDF780FF202CA8BF33
:1050A000202402A800F8014DFEF7DEF9FAE04FF4E3
:1050B000E8712022FDF772FF202CA8BF202402A84F
:1050C00000F8014DFEF7E0F9ECE04FF4F871202212
:1050D000FDF764FF202CA8BF202402A800F8014D92
:1050E000FEF7E2F9DEE04FF404712022FDF756FFEF
:1050F000202CA8BF202402A800F8014DFEF7E4F9F7
:10510000D0E04FF40C712022FDF748FF202CA8BFFF
:10511000202402A800F8014DFEF7E6F9C2E04FF4A2
:1051200014712022FDF73AFF202CA8BF202402A8EA
:1051300000F8014DFEF7E8F9B4E04FF41C712022AD
:10514000FDF72CFF202CA8BF202402A800F8014D59
:10515000FEF7DAF9A6E04FF424712022FDF71EFFD6
:10516000202CA8BF202402A800F8014DFEF7E4F986
:1051700098E04FF42C712022FDF710FF202CA8BFDF
:10518000202402A800F8014DFEF7E6F98AE04FF46A
:1051900034712022FDF702FF202CA8BF202402A892
:1051A00000F8014DFEF7E8F97CE04FF43C71202255
:1051B000FDF7F4FE202CA8BF202402A800F8014D22
:1051C000FEF7EAF96EE04FF444712022FDF7E6FEA7
:1051D000202CA8BF202402A800F8014DFEF7ECF90E
:1051E00060E04FF44C712022FDF7D8FE202CA8BFC0
:1051F000202402A800F8014DFEF7EEF952E04FF42A
:1052000054712022FDF7CAFE202CA8BF202402A83A
:1052100000F8014DFEF7F0F944E04FF45C712022F4
:10522000FDF7BCFE202CA8BF202402A800F8014DE9
:10523000FEF7F2F936E04FF464712022FDF7AEFE7E
:10524000202CA8BF202402A800F8014DFEF7F4F995
:1052500028E04FF46C712022FDF7A0FE202CA8BF9F
:10526000202402A800F8014DFEF7F6F91AE04FF4E9
:1052700074712022FDF792FE202CA8BF202402A8E2
:1052800000F8014DFEF7F8F90CE04FF47C71202294
:10529000FDF784FE202CA8BF202402A800F8014DB1
:1052A000FEF7FAF902B010BDF8B5044615460F68CE
:1052B0004E688868CA6827606660A060E26004F192
:1052C00010001946062200F059F928460AF03EFE61
:1052D000C0F3470284F82620102A04D9102384F84A
:1052E00026301A4600E022B104F11600294600F0EB
:1052F00045F9002384F82730BDF818302385079B33
:10530000E362089807F0BEFEF8BD00BFF0B597B0A5
:1053100005460C460B4653F8100F00909B88ADF8DD
:10532000043091F827308DF80B300B8DADF8063036
:10533000CB6AADF808301B0C8DF80A304FF4803082
:1053400007F0D6FEADF80C0068460E2100F08CF890
:10535000C043ADF80E0094F8262082B104A804F1F1
:10536000160100F09BF894F826205200284604A964
:10537000013206F029F994F8263005EB430568461A
:1053800021460DAA00F010FA0DAE2C4615AF354699
:105390000FCD20606160A260E3602E461034BD42F4
:1053A000F5D12B78237017B0F0BD00BFC36A01336D
:1053B000C362704710B582B002AC002304F8013D0F
:1053C0002046FDF741FE2046FDF74EFE2046FDF744
:1053D0005BFE2046FDF768FE2046FDF775FE204681
:1053E000FDF782FE2046FDF78FFE2046FDF79CFE6E
:1053F0002046FDF7A9FE2046FDF7B6FE2046FDF744
:10540000C3FE2046FDF7D0FE2046FDF7DDFE204618
:10541000FDF7EAFE2046FDF7F7FE2046FDF704FF04
:1054200002B010BD08B5038D47F6FE72934203D952
:10543000FFF7C0FF012008BD013320F8283FFEF729
:1054400029FA002008BD00BF08B590F82730FF2BCF
:1054500005D1002380F82730FFF7E4FF08BD0133B2
:1054600080F82730002008BD70B401444FF6FF7368
:10547000082648F208450BE010F8012B534032464D
:1054800003F001045B080CB16B409BB2013AF7D109
:105490008842F1D1184670BC704700BFF0B417467F
:1054A000A2B1841C0B4611440A4D1E783609AE5D2C
:1054B00004F8026C13F8016B06F00F06AE5D04F8F9
:1054C000016C02348B42F0D100EB470000230370E3
:1054D000F0BC7047903D01002DE9F84304460F46AB
:1054E00016460978D9B13AB30025DFF85080A946AD
:1054F00040460AF0B1FC18B1C8EB0003DBB200E093
:105500004B4695F0010501D0237005E0227843EA6F
:10551000021304F8013B013E17F8011F11B92EB91F
:10552000BDE8F883002EE3D1BDE8F88326440023CC
:1055300004F8013BB442FBD1BDE8F883903D010083
:10554000F0B41746A2B1841C0B4611440A4D1E78D4
:105550003609AE5D04F8026C13F8016B06F00F0615
:10556000AE5D04F8016C02348B42F0D100EB4700D1
:1055700000230370F0BC7047A43D01002DE9F843FF
:1055800004460F4616460978D9B13AB30025DFF82C
:105590005080A94640460AF05FFC18B1C8EB0003F2
:1055A000DBB200E04B4695F0010501D0237005E029
:1055B000227843EA021304F8013B013E17F8011F69
:1055C00011B92EB9BDE8F883002EE3D1BDE8F88308
:1055D0002644002304F8013BB442FBD1BDE8F88324
:1055E000A43D01002DE9F00F86B004460D4602AE41
:1055F00008684968AA68EB680FC60023E95CE25CAA
:105600004A40E2540133102BF8D14FF0000A6449AC
:10561000019404F1100B06AE2378CB5C2370237940
:10562000CB5C2371237ACB5C2372237BCB5C23730B
:10563000637862798A5C6270627A8A5C6271627B8A
:105640008A5C6272CB5C6373A378A27A8A5CA27074
:10565000CB5CA372A379A27B8A5CA271CB5CA3739F
:10566000E37BE27A8A5CE273E2798A5CE272E27856
:105670008A5CE271CB5CE3705FFA8AF3092B4CD051
:10568000019A601C10F8018C577888EA070792F895
:105690000390957889EA05057D4017F0800F4FEA61
:1056A000470718BF87F01B07FFB285EA080887EA9B
:1056B000080800F8018C577892F8028087EA0808F9
:1056C00018F0800F4FEA480818BF88F01B085FFAEF
:1056D00088F86F4088EA0707577092F80280D778F9
:1056E00088EA070717F0800F4FEA470718BF87F0CF
:1056F0001B07FFB285EA080887EA0807977092F847
:10570000018010F801CC88EA0C0C85EA0C056F408A
:10571000D770043204305A45B4D19DF81530CA5CB4
:105720009DF808305A401F481AF8003053408DF851
:1057300008309DF81630CA5C9DF8093053408DF84A
:1057400009309DF81730CA5C9DF80A3053408DF837
:105750000A309DF81430CA5C9DF80B3053408DF828
:105760000B3003AB13F8010B13F8052C424003F880
:10577000012CB342F6D1002303F108056A46A85C68
:10578000E25C4240E2540133102BF5D10AF1010AE8
:10579000BAF10A0F7FF440AF06B0BDE8F00F7047D2
:1057A000B83D0100B83E010038B504461546FFF784
:1057B00019FF284621461022FFF770FE38BD00BFB2
:1057C000026872B18A4209D1D36803607047994276
:1057D00001D01A4602E0CB68D3607047D368002B33
:1057E000F5D1704738B505460C46FFF7E9FF2A6842
:1057F0000AB92C6004E0D3680BB11A46FBE7D46009
:1058000007F09CF92368C01A60600023E36038BD8C
:1058100038B50C4607F092F90546626823681344D0
:10582000984205D36268934208D26268904205D3D9
:105830006268954206D26268934203D3A368204609
:105840009847656038BD00BF38B50546046834B177
:1058500028462146FFF7DCFFE468002CF8D138BD6C
:1058600008B50248FFF7F0FF08BD00BFB097FF1F63
:1058700010B44FF47A7404FB01F1016082600022DD
:105880004260C2605DF8044B704700BF01610022B6
:1058900002730270704700BF01617047037B0B2BDE
:1058A00007D05A1CD2B20273C15400238354012082
:1058B00070470020704700BF0023037303707047D8
:1058C00010B401690A78047800237AB9D4F1010090
:1058D00038BF00200DE011F8012F10F8014F0133FF
:1058E0000B2BF2D1002004E0002002E0A242F2D013
:1058F000FAE75DF8044B70472DE9F0479CB0064687
:105900000024DFF814810546335D04F808300134C3
:1059100028460AF01BFB8442F6D96846FBF714FFC1
:1059200028460AF013FB024668463B49FBF736FF60
:105930003A4803685B683A490B229847394B5C1E2A
:1059400003F11F08354F10260025384614F8011FB3
:1059500032462B4607F0BCF94445F6D12F4C204681
:1059600007F092F968462F492022FBF717FFDFF86E
:10597000A89068464946FBF735FF23685B682046D8
:1059800029490D22984709F1FF3409F11F08234FD7
:1059900010260025384614F8011F32462B4607F022
:1059A00097F94445F6D11D4C204607F06DF9236860
:1059B0005B6820461D4909229847DFF874A00AF168
:1059C000FF340AF11F08154F10260025384614F839
:1059D000011F32462B4607F07BF94445F6D10F48AC
:1059E00007F052F9124B19780B4B1A780AF11E0086
:1059F000534604E0914214BF0020012009E0914287
:105A000006D113F8011F19F8012F8342F7D1F1E7EE
:105A100000201CB0BDE8F0873498FF1F60A5FF1F71
:105A2000C43E0100B497FF1FD03E0100E03E0100DC
:105A3000F497FF1F2DE9F8431C4C204607F024F98A
:105A400023685B6820461A490C229847DFF8649067
:105A500009F1FF3409F11F08144F102600253846BC
:105A600014F8011F32462B4607F032F94445F6D1AF
:105A70000E4807F009F90F4B1A780F48017809F121
:105A80001E044B4605E08A4214BF00200120BDE8F9
:105A9000F8838A4206D113F8012F10F8011FA342A0
:105AA000F7D1F0E70020BDE8F88300BF60A5FF1F35
:105AB000EC3E01001498FF1F3498FF1F2DE9F843B6
:105AC0001E4C204607F0E0F823685B6820461C491E
:105AD0000C229847DFF86C9009F1FF3409F11F0898
