:1000000000800020BD01000015B20000D9B1000041
:10001000D9B10000D9B10000D9B10000D9B10000B8
:10002000D9B10000D9B10000D9B1000015B200006B
:1000300015B20000D9B1000015B20000C9B100002E
:1000400015B2000015B2000015B2000015B2000094
:1000500015B2000015B2000015B2000015B2000084
:1000600015B2000015B2000015B2000015B2000074
:1000700015B2000015B2000015B2000015B2000064
:1000800015B2000015B2000015B2000015B2000054
:1000900015B2000015B2000015B2000015B2000044
:1000A00015B2000015B2000015B2000015B2000034
:1000B00015B2000015B2000015B2000015B2000024
:1000C00015B2000015B2000015B2000015B2000014
:1000D00015B2000015B2000015B2000015B2000004
:1000E00015B2000015B2000015B2000015B20000F4
:1000F00015B200008DE1000015B20000D9D2000059
:1001000015B20000B5DB000015B2000015B200000A
:1001100015B2000015B2000015B2000015B20000C3
:1001200015B2000015B2000015B2000015B20000B3
:1001300015B2000015B2000015B2000015B20000A3
:1001400015B2000015B2000015B2000015B2000093
:1001500015B2000015B2000015B2000015B2000083
:1001600015B20000E1B9000015B2000015B20000A0
:1001700015B2000015B2000015B2000015B2000063
:1001800015B2000015B2000015B2000015B2000053
:1001900015B2000015B2000015B2000015B2000043
:1001A00015B2000015B2000015B2000015B2000033
:1001B00015B2000015B2000015B20000574B4CF20A
:1001C000205210B51A804DF628121A8000BF00BFC9
:1001D0000BF024F8524B4FF010621A60514A9A60AB
:1001E000514ADA60A3F53043203B1A6812F480725A
:1001F00004D14E490A604FF4A8521A604C4B1A7849
:10020000110703D51A7842F008021A70494B4A4C7C
:100210004A482A221A704A4A00239918A14203D256
:10022000195899500433F8E7464B474900228B424E
:1002300002D243F8042BFAE74448454900235A58B0
:100240001A500433B3F5DE7FF9D1424B424A802184
:1002500003F8011B9342FBD1404B3C4A1A60404BD0
:100260000A221A70A3F5805324225A70A0221A7011
:100270009A799207FCD59A79D406FCD4394A9379B5
:1002800003F00C03082B374BF9D103221A714022DB
:100290005A719A799006FCD5324A9179314B4906C8
:1002A000FBD5314A314911600221516020221A7078
:1002B0009A7902F00C020C2AFAD12D4B2D4A1A60C1
:1002C0002D4B2E4A1A6000225A60072243F8042C54
:1002D0002B4AC3F80C2D62B60CF0E2FA134B1B68E4
:1002E000DA0705D527480CF055F9274B274A1A603D
:1002F000274B1B785B0609D5234C244A236893427D
:1003000004D120480CF046F9002323600EF04AFE89
:100310000AF08AFF0CF0DEFCFEE700BF0E2005406D
:1003200030800440823F04000100002B14D00340C1
:1003300002D0074000E007408C96FF1FAC5401003C
:10034000708CFF1F8C96FF1F90A7FF1F0082FF1F5E
:100350000000000000E400E05FE400E008ED00E0E1
:100360000050064000400640448004400000030165
:1003700004800440C010050014E000E0FF76010096
:100380000000202062EB51571CE00340A5C3945AA3
:1003900000F00740FFFFFFFFFFFFFFFFFFFFFFFF32
:1003A000FFFFFFFFFFFFFFFFFFFFFFFFFFFFFFFF5D
:1003B000FFFFFFFFFFFFFFFFFFFFFFFFFFFFFFFF4D
:1003C000FFFFFFFFFFFFFFFFFFFFFFFFFFFFFFFF3D
:1003D000FFFFFFFFFFFFFFFFFFFFFFFFFFFFFFFF2D
:1003E000FFFFFFFFFFFFFFFFFFFFFFFFFFFFFFFF1D
:1003F000FFFFFFFFFFFFFFFFFFFFFFFFFFFFFFFF0D
:10040000FFFFFFFFFFFFFFFFFFFFFFFFFEFFFFFFFD
:1004100010B5054C237833B9044B13B10448AFF33E
:1004200000800123237010BD8C96FF1F0000000088
:10043000A454010008B5064B1BB106480649AFF3AA
:1004400000800648036813B1054B03B1984708BD07
:1004500000000000A45401009096FF1F8C96FF1F1F
:100460000000000038B52A4B1C68217880290CD187
:1004700044F22B000AF0DCFF44F22B000BF02AF8C8
:10048000234B1A6801321A6038BD81290CD144F21D
:1004900028000AF0CDFF44F228000BF01BF81C4B9B
:1004A0001A6801321A6038BD81290CD9A1F1810383
:1004B0004FF47A7000FB03F00CF0DCF9144B1A686F
:1004C00001321A6038BD41B1124802681268904783
:1004D0000F4B1A6801321A6038BD20460FF0B0FB8E
:1004E00002460D4801684D682146A84744F228009D
:1004F0000AF09EFF44F228000AF0ECFF074C204669
:10050000074904F083FF2046064904F091FF38BDF7
:100510000097FF1F74A5FF1F7CA5FF1FEC97FF1F0F
:100520000897FF1FE496FF1F38B505460C4608469E
:100530000FF086FB02462B685B68284621469847E9
:1005400038BD00BF38B504460D4608460FF078FBAD
:10055000024623685B6820462946984705462046A0
:100560000CF00CFA284438BD38B505460CF066FA94
:10057000044628460CF002FA204438BD10B59EB05F
:1005800006A8202106F0F2FD1B4C23685B6820467C
:100590001A491822984720460CF0F0F90DF1160080
:1005A00002F088FF0DA802F05DFF07A802F0A8FF87
:1005B00009A807A9062204F0E9FD11A802F0C6FF68
:1005C00015A811A9062204F0E1FD0D4CBDF8163066
:1005D00000930C4B0193069B029320460DA915AA8C
:1005E00009AB04F087FC204604F042FD04F128002A
:1005F00002F076FF1EB010BD7CA5FF1F783301000E
:10060000A896FF1F030201002DE9F04792B0814632
:1006100000245B4B1C705B4D2B685B6828465A4975
:100620000C229847594B1968284630390CF006FAC5
:1006300028460CF0A3F900940194029403940494C6
:100640000594069407946846494604F025F9B0F1EC
:10065000000A65DD2B685B6828464D491F229847D4
:1006600028460CF08BF92B685B6828464949122212
:100670009847284651460CF0E1F928460CF07EF9DF
:10068000454B1B782BBB2B685B68284643490922E6
:10069000984728460CF072F90DF1FF340DF11F0850
:1006A0002F4610260025384614F8011F32462B46E7
:1006B0000CF088F94445F6D132480CF05FF9384B1C
:1006C00093F82210753168464944364A534609F07A
:1006D00083F8684634495246294B1B7806F068FD7A
:1006E000284C23685B68204630490B2298472046F7
:1006F0000CF044F90DF1FF340DF11F08214F1026C5
:100700000025384614F8011F32462B460CF05AF9E2
:100710004445F6D11B480CF031F9194B83F800A081
:10072000002300930193029303930493059306938C
:1007300007936846494603F079FB9DF80030002B8B
:1007400057D0312B38D10F4C23685B6820461849AD
:100750001F22984720460CF011F9094D2B78802173
:10076000114AD15423685B682046124903229847F6
:1007700020460CF003F92B7801332B7039E000BFD1
:100780000497FF1F7CA5FF1F94330100DC96FF1F19
:10079000A4330100C4330100B09EFF1FD833010011
:1007A00028A4FF1F3098FF1F5C97FF1FE433010050
:1007B000F033010010340100322B1AD1794C236838
:1007C0005B68204678491F22984720460CF0D6F8EF
:1007D000764D2B788121764AD15423685B68204678
:1007E00074490622984720460CF0C8F82B7801334C
:1007F0002B700023009301930293039304930593BA
:10080000069307936846494603F0A4FD9DF800301F
:1008100043B3644C23685B68204667491C229847B1
:1008200020460CF0ABF823685B682046634906223B
:10083000984720469DF800100A2200230CF0C2F8C9
:1008400023685B6820465E492122984720460CF0C9
:1008500095F8564B1A789DF800007F385449885413
:1008600001321A706846494602F096FEB0F1000A5D
:1008700068DD4C4C23685B68204652491F2298472C
:1008800020460CF07BF823685B6820464E49122214
:100890009847204651460CF0D1F820460CF06EF8EF
:1008A0004A4B1B782BBB23685B68204648490922CA
:1008B000984720460CF062F80DF1FF340DF11F0847
:1008C000384F10260025384614F8011F32462B46B3
:1008D0000CF078F84445F6D132480CF04FF83D4B17
:1008E00093F822107031684649443B4A534608F059
:1008F00073FF68462E4952462C4B1B7806F058FC75
:10090000284C23685B68204634490B2298472046D0
:100910000CF034F80DF1FF340DF11F08214F1026B3
:100920000025384614F8011F32462B460CF04AF8D1
:100930004445F6D11B480CF021F81C4B1A78924420
:1009400083F800A000230093019302930393049380
:100950000593069307936846494603F0B1FB9DF85B
:100960000030002B5DD0312B3ED10E4C23685B68EC
:1009700020461B491F22984720460BF0FFFF0B4DD6
:100980002B7880210A4AD15423685B682046154998
:100990000322984720460BF0F1FF2B7801332B7090
:1009A0003FE000BF7CA5FF1FF03301000497FF1F4D
:1009B0005C97FF1F143401001C3401003C3401001B
:1009C000443401006834010088340100B09EFF1FE8
:1009D000D833010028A4FF1F3098FF1FE433010023
:1009E0009C34010010340100322B1AD1A54C23682D
:1009F0005B682046A4491F22984720460BF0BEFFA3
:100A0000A24D2B788121A24AD15423685B682046ED
:100A1000A0490622984720460BF0B0FF2B780133FF
:100A20002B70002300930193029303930493059387
:100A3000069307936846494603F0D6FD9DF80030BB
:100A400043B3904C23685B68204693491D22984726
:100A500020460BF093FF23685B6820468F490622EF
:100A6000984720469DF800100A2200230BF0AAFFA9
:100A700023685B6820468A491C22984720460BF071
:100A80007DFF824B1A789DF800007F38804988549A
:100A900001321A700023009301930293039304938D
:100AA0000593069307936846494603F049FE9DF86F
:100AB0000030002B00F0D880672B40F08580714C0F
:100AC00023685B68204677491F22984720460BF031
:100AD00055FF6846494607F007FD824623685B6874
:100AE000204671490922984720460BF047FF0DF137
:100AF0001F050DF1FF34DFF88C81102700264046DA
:100B000014F8011F3A4633460BF05CFFAC42F6D1B5
:100B10005C4C20460BF032FF23685B68204663493B
:100B200012229847204651460BF088FF20460BF0D2
:100B300025FF5F4B93F822107431684649445D4AA3
:100B4000534608F049FE6846514952464F4B1B78C0
:100B500006F02EFB23685B68204657490B22984716
:100B600020460BF00BFF0DF1FF34DFF81881102742
:100B70000026404614F8011F3A4633460BF022FF88
:100B8000AC42F6D13F480BF0F9FE08A86946524640
:100B900004F0AAFF05F0F8F8014608A804F0A8FF41
:100BA0003A490A7804783A4B9C54447813445C7070
:100BB00084789C70C478DC7004791C714079587119
:100BC0000020987106320A709DF80030792B17D1F9
:100BD0002C4C23685B6820463849182298472046E9
:100BE0000BF0CCFE294C2378354D29481844294672
:100BF00004F0B2F9284604F04DFA23782C33237020
:100C00009DF80030752B2FD11E4C23685B68204661
:100C10002C490F22984720460BF0B0FE2A4A16684E
:100C20002A4B1B681268F61A06F57A66D31AB34285
:100C300013D2274C01252F46276008F0CDFA06F085
:100C400075FA256008F0C8FA06F080FA1E4B1A689B
:100C50001E4B1B68D31AB342EED3062001210BF0C2
:100C6000A9FC00221A4B1A60064C23685B682046D8
:100C700018491922984720460BF080FE044B19783A
:100C80002AE000BF7CA5FF1F9C3401000497FF1FD2
:100C90005C97FF1FBC340100C43401003C340100E8
:100CA000E434010004350100D8330100243501008B
:100CB00028A4FF1F3098FF1FE433010038350100DE
:100CC000A896FF1F543501005CA5FF1FE497FF1F86
:100CD000249AFF1F6435010041B11D4623681B683B
:100CE0002046984715F8011F0029F7D112B0BDE83A
:100CF000F08700BF38B5134B1B7873B9124C2368CB
:100D0000124D5B68204629462D22984720460BF05D
:100D100035FE284606F058FA38BD062000210BF0B3
:100D200049FC0B4B1A680B4B1A600B4B1B781BB121
:100D30000A4B1868243802E0084B18683038FFF76F
:100D400063FC38BD789EFF1F7CA5FF1F8035010026
:100D50005CA5FF1FF496FF1FB09EFF1FDC96FF1FD0
:100D600038B5144B1B7873B9134C2368134D5B686B
:100D7000204629462D22984720460BF0FFFD2846A5
:100D800006F022FA38BD062000210BF013FC0C4BB4
:100D90001A680C4B1A600C4B1B781BB10B4B186874
:100DA000243802E0094B186830380630FFF72CFC75
:100DB00038BD00BF789EFF1F7CA5FF1F8035010056
:100DC0005CA5FF1FF496FF1FB09EFF1FDC96FF1F60
:100DD00030B583B00446804B1B7823B9062001212F
:100DE0000BF0E8FB03E0062000210BF0E3FB7B4B5C
:100DF0001B68022B0EDD7A4803685B68794959222B
:100E00009847794D0524284606F0DEF9204605F07E
:100E100083FFF8E7754B1B783BB301A801F0D2FEC6
:100E20009DF804300133DBB28DF80430092B16D95C
:100E30006B4C23685B6820466D491B22984720460F
:100E40000BF09CFD20469DF804100A2200230BF0B5
:100E5000B9FD20460BF092FD06F042FCB9E001A876
:100E600001F0B8FE0022614B1A706248624B19789B
:100E700004F03AFB584B1B7843B95E4804F062FB20
:100E800020B95C4804F040FC002851D0524B1B783C
:100E9000D3B9002001F09EFE564804F033FB574CB6
:100EA000204606F091F94E482146FFF74BFB544B84
:100EB0001B780BB9FFF762FB524B1A68524B1A6052
:100EC0000122454B1A7084E0504B1B68E3B1032BA1
:100ED0000BDC434C20464E49FFF726FB464B196876
:100EE00020463039FFF740FB73E0062B3C4C204690
:100EF000D4BF48494849FFF717FB3F4B19682046C4
:100F00003039FFF731FB64E00022444B1A700A2CA1
:100F10005CDCFFF7EFFE414A414B1A60414C204632
:100F2000414904F073FA2046404904F081FA50E048
:100F3000304804F0A5FB30B129483D49FFF702FBDA
:100F400006F0CEFB45E03B4B1B68092B17DC244C1D
:100F500020462F49FFF7E8FA274B19682046303919
:100F6000FFF702FB20463449FFF7DEFA314D2046F9
:100F70002968FFF7F9FA2B6801332B6029E0012576
:100F80001A4B1D70154B1A682A441A60032005F08D
:100F9000C3FE134C20462949FFF7C6FA01A801F009
:100FA00011FE9DF804102046C1F109010BF046FD29
:100FB00020462349FFF7C6FA20462249FFF7C2FA26
:100FC0000C4804F09FFA1B4B1D6002E0FFF7C8FEBF
:100FD000A1E703B030BD00BF9499FF1F5897FF1FD2
:100FE0007CA5FF1FB03501000C3601008C8CFF1F63
:100FF0006C3601009C9EFF1FDC96FF1F88360100A7
:10100000B09EFF1F5CA5FF1FF496FF1F109AFF1FE5
:1010100094360100AC360100C83601005C97FF1F12
:101020000097FF1FEC97FF1FE496FF1F0897FF1F15
:10103000E4360100888CFF1F003701002C370100C7
:10104000483701008037010010B586B0002406A89B
:1010500020F8164D02F044FA01940294039404948B
:10106000059401A81749062204F05CF801A806219E
:1010700002F080FA0194029403940494059401A868
:101080001149062204F0A0F801A802F04FFA0194D9
:10109000029403940494059401A80C49102204F0CE
:1010A00093F801A8102102F0F3F9094C23685B685A
:1010B000204608492E22984720460BF05FFC06B0D8
:1010C00010BD00BFC0370100D0370100E03701007C
:1010D0007CA5FF1F0438010010B50AF037FB0E4C49
:1010E00020460E2109F0B2FE20460C490C4A0DF0B4
:1010F00049FF0C4864210C4A04F0E0F90B48322106
:101100000B4A04F0DBF90B4B19680B4A11601A68A3
:101110000A4B1A6010BD00BF1897FF1F85AE000074
:10112000808CFF1FE496FF1F211300000897FF1F0C
:10113000650400005CA5FF1FE497FF1FF496FF1FE6
:1011400008B5064809F06AFE054B1B7883421CBFB0
:10115000034B1870034808F0C1FC08BD1897FF1F27
:10116000FC96FF1F68A3FF1F38B54FF47A700BF091
:1011700081FB062001210BF041FA5448202106F0A2
:10118000A1FC534B1B78DE2B32D106F0EBF9442047
:1011900008F020FC04464F48026855684E49142266
:1011A000A8472CB14B4803685B684C490422984718
:1011B000484C23685B6820464949142298472046DA
:1011C0000BF0DCFB4148202106F07CFCFFF73CFFE4
:1011D0000122444B1A700022434B1A7023685B684B
:1011E000204642491822984720460BF0C7FB37E0BB
:1011F000442B25D1002823DD3D48202106F098FB13
:101200003C4806F01FFE3C4806F0B2FF3B4C20462F
:1012100001F0C8FC2378012B01D81522227000228E
:10122000304B1A700122304B1A702A4C23685B68CD
:10123000204633490B22984720460BF09FFB0FE0D6
:101240000122284B1A700022274B1A70214C236868
:101250005B6820462B491E22984720460BF08EFBE8
:1012600009F0CCFE284C2046284908F019FD09F069
:10127000E3FE204626492422002308F0BFFC204636
:101280001B492022002308F0B9FC124C23685B683C
:10129000204620490C229847204640F2B9710BF0B5
:1012A000CDFB20460BF06AFB2046094B1978102233
:1012B00000230BF087FB20460BF060FBFFF740FF9D
:1012C0001548164904F0B4F838BD00BF3098FF1F28
:1012D000020002407CA5FF1F343801004C38010099
:1012E000543801009499FF1F789EFF1F6C3801004D
:1012F000F097FF1F5098FF1F1098FF1F848CFF1F4F
:10130000883801009438010068A3FF1F0CA4FF1F58
:1013100028A4FF1FB4380100EC97FF1FE496FF1FBD
:101320002DE9F047FFF70CFF8B4B1B78D3B107F08B
:1013300053FF8A4B1B7813B3894801F0A1FB8948FE
:1013400003F05AFE884B1968884B1B78884A02FBC9
:1013500003F2884B1B68CB1A9A4210D800227E4BAE
:101360001A700CE0804B1A68834B1B68D31AB3F5D4
:101370007A7F04D3794B1B78002B40F0D780012073
:1013800009F07EFF05467D4C2046294604220823AD
:1013900008F034FC162009F073FF0646204631465B
:1013A0000422082308F02AFC172009F069FF0746E9
:1013B000204639460422082308F020FC112009F0B9
:1013C0005FFF8046204641460422082308F016FCB1
:1013D0000F2009F055FF8146204649460422082384
:1013E00008F00CFC102009F04BFF824620465146C5
:1013F0000422082308F002FC40F2DC539D420CD981
:1014000000235F4A13605F4A13605F4B1A68013222
:101410001A6035225D4B1A6073E040F2DC539E4245
:101420000CD90023564A1360564A1360564B1A686B
:1014300001321A603222554B1A6062E040F2DC53EE
:101440009F420CD900234E4A13604E4A13604E4B04
:101450001A6801321A6031224C4B1A6051E040F296
:10146000DC5398450CD90023454A1360454A136064
:10147000454B1A6801321A603322444B1A6040E02F
:1014800040F2DC5399450CD900233D4A13603D4A94
:1014900013603D4B1A6801321A6034223B4B1A60CC
:1014A0002FE040F2DC539A450CD90023344A1360F4
:1014B000344A1360344B1A6801321A603622334BB7
:1014C0001A601EE0304B1C6820460DF091FC4FF076
:1014D0007C510DF04DFD08B12A4B1C6000222A4BB7
:1014E0001A60274B1A6801321A601B4B1B7823B90C
:1014F000062000210BF05EF803E0062001210BF02E
:1015000059F8204B1C68002C24DD1D4B18680DF089
:101510006FFC4FF07C510DF02BFDD8B12046FFF74A
:1015200057FC0022174B1A60BDE8F087184D28467B
:1015300005F04AFE174C23685B68204629460B22BB
:10154000984720460BF01AFA0B4B1A6802F57A728C
:101550001A6014E7BDE8F0879499FF1F789EFF1F7B
:101560008D710000A896FF1F5CA5FF1F848CFF1FD4
:10157000A0BB0D00F496FF1FE497FF1F68A3FF1F99
:10158000D896FF1FF896FF1FE096FF1FDC96FF1FFF
:10159000883801007CA5FF1F2DE9F00FCAB001902B
:1015A0000A460023D078CC5C40EA0460547840EAD4
:1015B0000440947840EA042003F128056C46285141
:1015C00004330432402BEDD10AAB0022986B5968EA
:1015D0005D6A02F128076E46BC592C444FEA7045FB
:1015E00085EAF04585EA902020444FEAF11484EA28
:1015F000B14484EAD1010144196404320433C02A9D
:10160000E4D10199096D0291019A526D0392019BF7
:101610009B6D0493019CE46D0594019D2D6E0695D0
:10162000019E766E0796019FBF6E08970199C96E5D
:10163000099189463D46B446069BA0460498144647
:10164000029A0021DFF8A8A001F1280B6F465BF891
:10165000076051F80A7037444FEAB31686EAF3265A
:1016600086EA7366374425EA03060CEA030B86EA2A
:101670000B063E444E4480EA0407174000EA040982
:1016800087EA09074FEAB20989EA723989EAB25949
:101690004F44B0443E440431B1F5807F08D0A946A0
:1016A00065469C4643468046204614463246CBE774
:1016B00002990E44019F3E6503990A447A65049A93
:1016C0001444BC65059C2044F865069A42443A6679
:1016D000079E33447B66089B6344BB66099F3D4479
:1016E000DDF804B0CBF86C504AB0BDE8F00F70479D
:1016F000C43801000023036400220023C0E9122340
:101700000A4B03650A4B43650A4B83650A4BC36565
:101710000A4B03660A4B43660A4B836603F1745314
:10172000A3F52303A3F69243C366704767E6096AED
:1017300085AE67BB72F36E3C3AF54FA57F520E51F2
:101740008C68059BABD9831F2DE9F843064690466C
:10175000DAB10F4688444FF00009336C17F8012BBB
:10176000F25401333364402B0DD130463146FFF73C
:1017700013FFD6E9124514F5007445F10005C6E9DA
:101780001245C6F840904745E7D1BDE8F88300BF51
:101790002DE9F84F80468946026C372A0CD8531C35
:1017A00080218154372B1CD802440021013302F8D8
:1017B000011F382BFAD114E0531C802181543F2B98
:1017C00006D802440021013302F8011F402BFAD150
:1017D00040464146FFF7E0FE4046002138220DF02A
:1017E00049FFD8F84030D900D8E91223521843F104
:1017F0000003C8E9122388F83F20100A40EA03607A
:10180000190A88F83E00160C46EA03461F0C88F8B1
:101810003D60140E44EA03241D0E88F83C4088F80D
:101820003B3088F83A1088F8397088F838504046CC
:101830004146FFF7B1FE0322D300D8F85010D9403B
:1018400089F80010D8F85410D94089F80410D8F855
:101850005810D94089F80810D8F85C10D94089F898
:101860000C10D8F86010D94089F81010D8F864101E
:10187000D94089F81410D8F86810D94089F81810A0
:10188000D8F86C1021FA03F389F81C30013A09F1F9
:101890000109B2F1FF3FCFD1BDE8F88FFFFFFFFF95
:1018A00070B4C3F10803DC0001340346002003A533
:1018B000641920C940CAAD1920C3204720C940CAB5
:1018C000754120C320C940CA754120C320C940CA00
:1018D000754120C320C940CA754120C320C940CAF0
:1018E000754120C320C940CA754120C320C940CAE0
:1018F000754120C3404170BC704700BFAFF300800A
:1019000070B4C3F10803DB000133002403A500BF5A
:101910005B1920C940CAAD1B20C0184720C940CA66
:10192000B54120C020C940CAB54120C020C940CA25
:10193000B54120C020C940CAB54120C020C940CA15
:10194000B54120C020C940CAB54120C020C940CA05
:10195000B54120C06441D4F1010038BF002070BC03
:10196000704700BFAFF30080AFF30080AFF300809B
:101970002DE9F003013B9B0000242746254626461F
:101980005FF0000803E05FEA0608B8EB0308B6EB77
:10199000080952F809C051F80890A9FB0C9C14EBF7
:1019A000090457EB0C0755F1000518F10408984598
:1019B00001DCB045EBDD84513C462F460025043662
:1019C0009E42DDDDB6EB430FDDDD8451BDE8F00363
:1019D000704700BF00290ADD034604300139C9B24F
:1019E00000EB8101002243F8042B8B42FBD17047AE
:1019F00000290CDD034604300139C9B200EB810136
:101A0000002053F8042B10438B42FAD100E0002051
:101A1000D0F1010038BF0020704700BF4B1101F02A
:101A20001F01012202FA01F150F82300084070471B
:101A30000139CBB213F0800F0DD15AB250F82220E9
:101A40004AB9013BDBB213F0800F04D15AB250F80F
:101A50002220002AF5D0013313F0FF0312D06FF0DB
:101A6000404242FA83F250F8222022B10021013193
:101A70005208FCD100E000215BB2013B01EB4311B5
:101A800088B200E0002000B2704700BF10B4002A06
:101A900009DD541EE4B20134A4000023CA58C25028
:101AA0000433A342FAD15DF8044B704710B4013AF5
:101AB000D3B213F0800F17D15AB250F8224051F828
:101AC0002220944212D808D212E05AB250F8224092
:101AD00051F8222094420DD80ED3013BDBB213F013
:101AE000800FF2D0002008E0002006E0012004E092
:101AF000FF2002E0012000E0FF2040B25DF8044B2F
:101B0000704700BF30B589B005460B46144668469D
:101B100029461A462346FFF7F3FE05466846214646
:101B2000FFF766FF003518BF01256D00002814BFC0
:101B30006842C5F1010009B030BD00BF10B400EB30
:101B400081010B1F884214D2C0F103041C4424F00D
:101B500003040C1B083C002051F8042C40EA5200FE
:101B600041F8040CD0071A1FA24202D019461346AE
:101B7000F2E75DF8044B704770B505461E469DF9C7
:101B800010402346FFF78CFE30B9304629462246E6
:101B9000FFF78CFF012805D0284629463246234608
:101BA000FFF7AEFE70BD00BF70B505461E469DF93D
:101BB00010402346FFF7A4FE28B1284629463246A6
:101BC0002346FFF76DFE70BD2DE9F04FB7B00390CF
:101BD00098469DF9007126AC20463B46FFF7C8FEAB
:101BE00016AB0493059440463946FFF721FFC0EB3E
:101BF000871086B233B2002BB8BF1F33C3F347152B
:101C000032B24E4B134003D5013B63F01F03013347
:101C1000DCB206A869B2FFF7DDFE63B2002B18DD67
:101C2000FFB14FEA870C6DB206AA02EB850E0022C7
:101C300015461946C3F1200058F8023003FA01F4A2
:101C400025434EF8025023FA00F504326245F3D1E1
:101C500007E068B206AB03EB800041463A46FFF767
:101C600015FF16F4004F5CD1BA467C0006AD05EBBB
:101C70008705029501254FF0000907F1FF3836AAC4
:101C800002EB88083AE058B25BF8201036AD05EB5D
:101C9000820252F8C02C8A1ACEEB0202914205D081
:101CA00091422CBF4FF0000E4FF0010E4CF8202057
:101CB0000133DBB25AB2A242E5DB019D01E04FF0F5
:101CC000000E754514BF0025012506A83946FFF70B
:101CD00035FF36AA02EB8A0353F8C02C58F8C03CF3
:101CE00043EAC27348F8C03C02983946FFF726FF22
:101CF000013EB6B233B2B3F1FF3F13D0002CDEDDAC
:101D000036AA02EB850353F8C8BCC5F1010302EB08
:101D1000830353F8C8CC4FF0000E4A464B4601955A
:101D2000B1E7012536AB03EB8505039855F8C81CD0
:101D30003A46FFF7ABFE37B0BDE8F08F1F000080DA
:101D400030B591B005461C46684693F90030FFF760
:101D50000FFED4F8AC3028466946984711B030BD24
:101D600008B513460A46FFF7EBFF08BD70B50446F9
:101D70000E461546036813F0010F14D02146324673
:101D80002B46FFF78DFD064620462946FFF7D6FE77
:101D900066B105F18042013A54F8223043F0004325
:101DA00044F8223070BD1146FFF7C8FE70BD00BF79
:101DB000F0B5A1B007460D4616461C460846194622
:101DC000FFF716FE20B138462146FFF703FE84E0F8
:101DD00018A829462246FFF759FE10A83146224688
:101DE000FFF754FE08A82146FFF7F4FD01230893EE
:101DF00068462146FFF7EEFD62E0189B13F0010FE5
:101E000009D118A82146FFF799FE08A831462246B5
:101E1000FFF7ACFF54E0109B13F0010F09D110A89D
:101E20002146FFF78BFE684631462246FFF79EFFAC
:101E300046E0002D22DD18A8014610AA2346FFF730
:101E40005FFD18A82146FFF779FE08A869462246DB
:101E5000FFF72CFE002805DA08A801463246234683
:101E6000FFF71EFD08A801466A462346FFF748FD16
:101E700008A831462246FFF779FF21E010A8014665
:101E800018AA2346FFF73CFD10A82146FFF756FE8F
:101E9000684608A92246FFF709FE002805DA6846C9
:101EA000694632462346FFF7FBFC6846694608AAA6
:101EB0002346FFF725FD684631462246FFF756FFC9
:101EC00018A810A92246FFF7F1FD0546002894D175
:101ED000384608A92246FFF7D9FD21B0F0BD00BF62
:101EE0002DE9F04F93B00546894614461E4693F8F7
:101EF000008010464FFA88F1FFF77AFD002840F085
:101F0000A8800AA849463246FFF72AFF02A82946B8
:101F10000AAA3346FFF714FF0AA801463246FFF724
:101F20001FFF4846494622463346FFF709FF204631
:101F300021463246FFF714FF371D4FFA88FACDF8D5
:101F400000A02846294622463B46FFF715FECDF85D
:101F500000A02046214622463B46FFF70DFECDF865
:101F600000A02046294622463B46FFF71DFE284694
:101F7000294622463346FFF7E3FECDF800A020466F
:101F800029462A463B46FFF7F7FDCDF800A0284634
:101F9000294622463B46FFF7EFFD28460021FFF782
:101FA0003DFDA8B1D346284629463A465346FFF799
:101FB00077FC824628465946FFF7C0FD0BF1804367
:101FC000013B55F8232042EACA7245F8232004E079
:101FD00028464FFA88F1FFF7B1FD204629463246E0
:101FE000FFF7BEFE4FFA88F8CDF800802046214664
:101FF00002AA3B46FFF7D8FDCDF8008020462146D7
:1020000002AA3B46FFF7D0FDCDF8008002A80146AA
:1020100022463B46FFF7C8FD2846294602AA33461A
:10202000FFF78EFECDF800800AA8294602463B46FF
:10203000FFF7BAFD284621464246FFF727FD204616
:1020400049464246FFF722FD48460AA94246FFF7A5
:102050001DFD13B0BDE8F08F2DE9F0438BB00546B0
:102060008946164600240394049405940694079424
:10207000089409940AAF032347F8203D144614F846
:10208000048BFFF76DFE4FFA88F8CDF800802846E4
:1020900029463A462346FFF787FD284629464A4601
:1020A0003346FFF74DFECDF800802846294606F15D
:1020B00084022346FFF760FD0BB0BDE8F08300BF4C
:1020C0002DE9F04F8DB004460D460822FFF7DEFCE7
:1020D0000026069605960496EB6A07932B6B0893E9
:1020E0006B6B0993AB6B0A93EB6B0B9304A80146E4
:1020F00002460823FFF7D4FB82462046214604AA65
:102100000823FFF7CDFB83462B6B07936B6B08937C
:10211000AB6B0993EB6B0A930B9604A8014602463E
:102120000823FFF7BDFB81462046214604AA082369
:10213000FFF7B6FB00902B6A04936B6A0593AB6ABA
:102140000693099608960796AB6B0A93EB6B0B9375
:102150002046214604AA0823FFF7A2FB01906B6AE0
:102160000493AB6A0593EB6A06936B6B0793AA6BB8
:102170000892EA6B09920A932B6A0B932046214638
:1021800004AA0823FFF78CFB0290EB6A04932B6BE5
:1021900005936B6B06930996089607962B6A0A932C
:1021A000AB6A0B932046214604AA0823FFF7A8FB3D
:1021B00003902B6B04936B6B0593AB6B0693EB6BEC
:1021C0000793099608966B6A0A93EB6A0B9320466D
:1021D000214604AA0823FFF793FB80466B6B049308
:1021E000AB6B0593EB6B06932B6A07936B6A0893B3
:1021F000AB6A09930A962B6B0B932046214604AADF
:102200000823FFF77DFB0746AB6B0493EB6B05934D
:1022100006966B6A0793AB6A0893EB6A09930A9672
:102220006B6B0B932046214604AA0823FFF768FB3B
:102230000BEB0A034B44009A1344019A1344029A8D
:102240001344039A9B1AC8EB0308C7EB08073F1A0D
:1022500002D4104E082511E00E4E082520462146D6
:1022600032462B46FFF71CFBC719F7D40FE0204678
:10227000214632462B46FFF743FB3F1A002FF6D18B
:10228000304621462A46FFF711FC0128EFD10DB058
:10229000BDE8F08FC8390100F0B589B007460D469A
:1022A00016461C46684611461A46FFF759FD384641
:1022B00039466A462346FFF743FD6846694632467B
:1022C0002346FFF73DFD284629466A462346FFF789
:1022D00037FD09B0F0BD00BF2DE9F0478AB0814657
:1022E0008A4614461F46DDF84880454615F9046BBA
:1022F000009602A811464A462B46FFF755FC02A855
:1023000001464246FFF72CFD4846494602AA43468D
:10231000FFF716FD2046214602AA4346FFF710FDAF
:1023200000963846394652462B46FFF73DFC02A838
:1023300039464246FFF714FD009602A801464A4678
:102340002B46FFF731FC009602A8014622462B4699
:10235000FFF72AFC0096204621464A462B46FFF707
:1023600023FC5046514622464346FFF7E9FC0096BF
:102370002046494602AA2B46FFF716FC3846394646
:1023800022464346FFF7DCFC009638463946524663
:102390002B46FFF709FC204602A93246FFF776FBE1
:1023A0000AB0BDE8F08700BF2DE9F0479AB080463B
:1023B0008A4617469946229E344614F9045B0095D6
:1023C00012A8114642462346FFF7EEFB12A801462B
:1023D0003246FFF7C5FC4046414612AA3346FFF796
:1023E000AFFC3846394612AA3346FFF7A9FC0095E0
:1023F00012A8494652462346FFF7BEFB00954846C1
:10240000494652462346FFF7CFFB00950AA83946B6
:1024100042462346FFF7C8FB504651460AAA3346B8
:10242000FFF78EFC00950AA841463A462346FFF77F
:10243000A3FB384649463246FFF792FC00953846E2
:1024400039460AAA2346FFF7AFFB009502A841468A
:102450003A462346FFF7A8FB4846494602AA3346B8
:10246000FFF76EFC00954846494652462346FFF763
:102470009BFB02A812A93246FFF772FC009502A846
:1024800001460AAA2346FFF78FFB00950AA802A976
:1024900042462346FFF788FB0AA8014612AA3346A4
:1024A000FFF74EFC009550460AA952462346FFF717
:1024B0007BFB404602A92A46FFF7E8FA1AB0BDE8BE
:1024C000F08700BF2DE9F04FB7B004900591924618
:1024D0001E46419D95F800B04FFA8BF42EA8224677
:1024E000FFF7D4FAA2000292059B134403931EA89F
:1024F00019462246FFF7CAFA2C782EB106A83146B3
:1025000062B2FFF7C3FA05E006A861B2FFF762FA0C
:102510000123069364B226A82EA92246FFF7B6FA35
:1025200016A81EA92246FFF7B1FA2EA81EA906AAD0
:102530002B46FFF7B1FED5F8A4402EA81EA906AA87
:102540002B46A04726A816A906AA2B46FFF7A4FEED
:10255000BDF90041023CA4B223B2002B26DD504657
:1025600021B2FFF75BFAD0F1010038BF0020C0F1C3
:102570000106760126AF374416AA16444FEA4018E2
:102580000DF19809C14490440095384631464A46B9
:102590004346FFF709FF0095484641463A46334611
:1025A000FFF79AFE013CA4B2002CD8D1504600217E
:1025B000FFF734FAD0F1010038BF0020C0F1010468
:1025C000640126AE264416AB1C4447010DF1980861
:1025D000B8441F4400953046214642463B46FFF72B
:1025E000E3FE05F104094FFA8BFBCDF800B00EA80D
:1025F0002EA926AA4B46FFF7D7FA0EA80146224677
:102600002B46FFF79DFB0EA80146059A2B46FFF7C8
:1026100097FB0EA801464A465B46FFF7C9FB0EA88A
:102620000146039A2B46FFF78BFB0EA80146324664
:102630002B46FFF785FB0095404639463246234638
:10264000FFF74AFE26A816A90EAA2B46FFF724FE7E
:10265000049826A95A46FFF719FA0498029A1044DA
:1026600016A95A46FFF712FA37B0BDE8F08F00BF3F
:102670002DE9F84386460E469146B3F802800FFADC
:1026800088F515F11F0448BF1F34C4F3471403F144
:102690002407084671463A4663B2FFF701F960B96C
:1026A00063B2B5EB431F0ADA30460FFA88F1FFF741
:1026B000B5F9051C18BF012502E0012500E0002541
:1026C000484631463A4663B2FFF7EAF82846BDE885
:1026D000F88300BF30B595B0054614460CAB0293A5
:1026E00004AA0392084619462346FFF7C1FFD0F11A
:1026F000010038BF002014AB03EB800050F8482CD9
:10270000638801331BB200930194284604F144010D
:102710000023FFF7D7FE21784900284649B2FFF78A
:1027200067F9D0F1010038BF002015B030BD00BFFF
:10273000F0B4002912DD002423464F1E3C1B5DB27D
:10274000A60804F00304E40052F8266026FA04F414
:1027500044550133DBB25CB28C42EFDBF0BC704716
:102760002DE9F041064688461746D11C48BF033183
:1027700041F38701FFF72EF9002F16DD00242346D1
:102780007A1E141BA50859B218F8010004F00304BE
:10279000E40000FA04F456F82500204346F825002A
:1027A0000133DBB25CB2A742EBDCBDE8F08100BFD5
:1027B0002DE9F84F05468B46174608461146FFF7A8
:1027C00037F91A4B1B6843B34FEA8708A8F1040690
:1027D0002E44C0EB471000B24FF0FF3A2AFA00FA3D
:1027E0004024DFF8489028464146D9F80030984701
:1027F0000346B8B1336803EA0A0333602846394612
:10280000FFF7F6F830B9584629463A46FFF77AF905
:10281000012804D0013CE6D103E0002302E00123BB
:1028200000E000231846BDE8F88F00BFE897FF1FBF
:102830002DE9F04780460E469946B3F90240E31D64
:1028400048BF0733DD101F3448BF1F346411AA424C
:1028500038BF15465FFA84FA4FFA8AF1FFF7BAF8E3
:10286000404631462A46FFF77BFFED00B9F90230BA
:102870009D422FD9EA1A08EB8404251FA04518D2DF
:10288000C8F10300284420F00300201A083800276C
:10289000C2F1200154F8046C26FA02F31F4344F8F5
:1028A000047C06FA01F72E1F864202D02C463546DC
:1028B000F0E709F12409484641464FFA8AF2FFF74A
:1028C000F5F8012806D0404641464A464FFA8AF3B9
:1028D000FFF716F8BDE8F0872DE9F04FA7B0814665
:1028E000884617461D46319C1EAB149316AB1593B4
:1028F0002678B4F802A0284671B2FFF779F80028CC
:1029000040F0B1800FFA8AF31F3348BF1F33C3F37F
:102910004713029304F1240B584629465AB2FFF795
:10292000F1F8012840F0A18028461EA916AA2346E6
:10293000FFF79EFED0F1010038BF002026AA02EB6F
:10294000800353F8482C0AF1010A0FFA8AF3009326
:10295000019404A804F144010023FFF7B3FD04A887
:1029600071B2FFF745F8002840F08180434B1B68A7
:102970003BB91EA8029B59B2FFF72CF801231E9306
:1029800008E01EA85946029B5AB2FFF711FF034602
:1029900000286FD00DF1780A029A52B20392009289
:1029A0002846294652465B46FFF70EF92846294637
:1029B0005A46039BFFF7FCF9039B009328462946E0
:1029C00052465B46FFF700F9309894F9011004AACB
:1029D000FFF7AEFE5046B4F90230DA1D48BF0732A9
:1029E0004946D210FFF7BCFE029A4FFA82F909F16C
:1029F000FF3326AA02EB8303002243F8402C16A8DB
:102A000004A972B2FFF742F8CDF8009016A81EA9EB
:102A100002465B46FFF7D8F81EA841463A462346D1
:102A2000FFF706FFCDF8009016A81EA902465B46E8
:102A3000FFF7A2F8CDF8009016A801462A465B469B
:102A4000FFF7C2F816A84946FEF7F2FF637859B2BD
:102A5000B0EBC10F0DDC309A42FA83F016AAFFF7F3
:102A600067FE012306E0002304E0002302E00023C8
:102A700000E00023184627B0BDE8F08FE897FF1F5D
:102A8000014B1860704700BFE897FF1F0048704770
:102A9000C43901002DE9F04198B007468846154633
:102AA000402402F12406B5F9023013F11F0248BF99
:102AB0001F3210A8314642F34712FFF779FE034652
:102AC00020B3684610A92A46FFF704FED8B1B5F92D
:102AD0000230D91D48BF07314046C91010AAFFF780
:102AE00027FE384695F901106A46FFF721FE95F951
:102AF000011095F90020781800AB03EB8202FFF774
:102B000017FE012302E0013CCDD10023184618B086
:102B1000BDE8F0812DE9F04F8BB083468A4691469F
:102B20009846149E402506F12407B6F9024014F198
:102B30001F0248BF1F3202A8394642F34712FFF76F
:102B400037FE034670B1CDF80080019658465146D5
:102B50004A4602ABFFF7C0FE034610B9013DE4D17F
:102B600000E0012318460BB0BDE8F08F70B51646A3
:102B70004AB10E440C46451A204608F021FE28555D
:102B80000134B442F8D170BD70B5154642B10C465F
:102B9000461A2046315D08F027FE0134013DF8D188
:102BA00070BD00BF08B540F2B9710122FFF7DEFF2A
:102BB000012008BD08B540F2B9710122FFF7E4FF1A
:102BC00008BD00BF08B540F2B9710122FFF7CEFF82
:102BD000012008BD08B540F2B9710122FFF7D4FF0A
:102BE00008BD00BF08B54FF4F6610122FFF7BEFF34
:102BF000012008BD08B54FF4F6610122FFF7C4FFBC
:102C000008BD00BF08B540F2B1710222FFF7AEFF68
:102C1000022008BD08B540F2B1710222FFF7B4FFEF
:102C200008BD00BF08B540F2B3710222FFF79EFF56
:102C3000022008BD08B540F2B3710222FFF7A4FFDD
:102C400008BD00BF08B540F2B5710222FFF78EFF44
:102C5000022008BD08B540F2B5710222FFF794FFCB
:102C600008BD00BF08B540F2B7710222FFF77EFF32
:102C7000022008BD08B540F2B7710222FFF784FFB9
:102C800008BD00BF08B540F2AC710122FFF76EFF2E
:102C9000012008BD08B540F2AC710122FFF774FFB6
:102CA00008BD00BF08B540F2AD710122FFF75EFF1D
:102CB000012008BD08B540F2AD710122FFF764FFA5
:102CC00008BD00BF08B540F2AE710122FFF74EFF0C
:102CD000012008BD08B540F2AE710122FFF754FF94
:102CE00008BD00BF08B540F2AF710122FFF73EFFFB
:102CF000012008BD08B540F2AF710122FFF744FF83
:102D000008BD00BF08B54FF4EB610122FFF72EFFAD
:102D1000012008BD08B54FF4EB610122FFF734FF35
:102D200008BD00BF08B540F259710122FFF71EFF30
:102D3000012008BD08B540F259710122FFF724FFB8
:102D400008BD00BF08B540F25A710122FFF70EFF1F
:102D5000012008BD08B540F25A710122FFF714FFA7
:102D600008BD00BF08B540F25B710122FFF7FEFE0F
:102D7000012008BD08B540F25B710122FFF704FF96
:102D800008BD00BF08B540F25C710122FFF7EEFEFE
:102D9000012008BD08B540F25C710122FFF7F4FE86
:102DA00008BD00BF08B540F25D710122FFF7DEFEED
:102DB000012008BD08B540F25D710122FFF7E4FE75
:102DC00008BD00BF08B540F25E710122FFF7CEFEDC
:102DD000012008BD08B540F25E710122FFF7D4FE64
:102DE00008BD00BF08B540F25F710122FFF7BEFECB
:102DF000012008BD08B540F25F710122FFF7C4FE53
:102E000008BD00BF08B54FF4EC610122FFF7AEFE2C
:102E1000012008BD08B54FF4EC610122FFF7B4FEB4
:102E200008BD00BF08B540F261710122FFF79EFEA8
:102E3000012008BD08B540F261710122FFF7A4FE30
:102E400008BD00BF08B540F262710122FFF78EFE97
:102E5000012008BD08B540F262710122FFF794FE1F
:102E600008BD00BF08B540F263710122FFF77EFE86
:102E7000012008BD08B540F263710122FFF784FE0E
:102E800008BD00BF08B540F264710122FFF76EFE75
:102E9000012008BD08B540F264710122FFF774FEFD
:102EA00008BD00BF08B540F265710122FFF75EFE64
:102EB000012008BD08B540F265710122FFF764FEEC
:102EC00008BD00BF08B540F266710122FFF74EFE53
:102ED000012008BD08B540F266710122FFF754FEDB
:102EE00008BD00BF08B540F267710122FFF73EFE42
:102EF000012008BD08B540F267710122FFF744FECA
:102F000008BD00BF08B54FF4ED610122FFF72EFEAA
:102F1000012008BD08B54FF4ED610122FFF734FE32
:102F200008BD00BF08B540F269710122FFF71EFE1F
:102F3000012008BD08B540F269710122FFF724FEA7
:102F400008BD00BF08B540F26A710122FFF70EFE0E
:102F5000012008BD08B540F26A710122FFF714FE96
:102F600008BD00BF08B540F26B710122FFF7FEFDFE
:102F7000012008BD08B540F26B710122FFF704FE85
:102F800008BD00BF08B540F26C710122FFF7EEFDED
:102F9000012008BD08B540F26C710122FFF7F4FD75
:102FA00008BD00BF08B540F26D710122FFF7DEFDDC
:102FB000012008BD08B540F26D710122FFF7E4FD64
:102FC00008BD00BF08B540F26E710122FFF7CEFDCB
:102FD000012008BD08B540F26E710122FFF7D4FD53
:102FE00008BD00BF08B540F26F710122FFF7BEFDBA
:102FF000012008BD08B540F26F710122FFF7C4FD42
:1030000008BD00BF08B54FF482610122FFF7AEFD95
:10301000012008BD08B54FF482610122FFF7B4FD1D
:1030200008BD00BF08B540F211410122FFF79EFD27
:10303000012008BD08B540F211410122FFF7A4FDAF
:1030400008BD00BF08B540F212410122FFF78EFD16
:10305000012008BD08B540F212410122FFF794FD9E
:1030600008BD00BF08B540F213410122FFF77EFD05
:10307000012008BD08B540F213410122FFF784FD8D
:1030800008BD00BF08B540F214410122FFF76EFDF4
:10309000012008BD08B540F214410122FFF774FD7C
:1030A00008BD00BF08B540F215410122FFF75EFDE3
:1030B000012008BD08B540F215410122FFF764FD6B
:1030C00008BD00BF08B540F216410122FFF74EFDD2
:1030D000012008BD08B540F216410122FFF754FD5A
:1030E00008BD00BF08B540F217410122FFF73EFDC1
:1030F000012008BD08B540F217410122FFF744FD49
:1031000008BD00BF08B54FF483610122FFF72EFD13
:10311000012008BD08B54FF483610122FFF734FD9B
:1031200008BD00BF08B540F219410122FFF71EFD9E
:10313000012008BD08B540F219410122FFF724FD26
:1031400008BD00BF08B540F21A410122FFF70EFD8D
:10315000012008BD08B540F21A410122FFF714FD15
:1031600008BD00BF08B540F21B410122FFF7FEFC7D
:10317000012008BD08B540F21C410122FFF7F6FC12
:10318000012008BD08B540F21C410122FFF7FCFCFC
:1031900008BD00BF08B540F21D410122FFF7E6FC63
:1031A000012008BD08B540F21D410122FFF7ECFCEB
:1031B00008BD00BF08B540F21E410122FFF7D6FC52
:1031C000012008BD08B540F21E410122FFF7DCFCDA
:1031D00008BD00BF08B540F21F410122FFF7C6FC41
:1031E000012008BD08B540F21F410122FFF7CCFCC9
:1031F00008BD00BF08B54FF484610122FFF7B6FC9B
:10320000012008BD08B54FF484610122FFF7BCFC22
:1032100008BD00BF08B540F221410122FFF7A6FC1E
:10322000012008BD08B540F221410122FFF7ACFCA6
:1032300008BD00BF08B540F222410122FFF796FC0D
:10324000012008BD08B540F222410122FFF79CFC95
:1032500008BD00BF08B540F223410122FFF786FCFC
:10326000012008BD08B540F223410122FFF78CFC84
:1032700008BD00BF08B540F224410122FFF776FCEB
:10328000012008BD08B540F224410122FFF77CFC73
:1032900008BD00BF08B540F225410122FFF766FCDA
:1032A000012008BD08B540F225410122FFF76CFC62
:1032B00008BD00BF08B540F226410122FFF756FCC9
:1032C000012008BD08B540F226410122FFF75CFC51
:1032D00008BD00BF08B540F227410122FFF746FCB8
:1032E000012008BD08B540F227410122FFF74CFC40
:1032F00008BD00BF08B54FF4F4610122FFF736FCAA
:10330000012008BD08B54FF4F4610122FFF73CFC31
:1033100008BD00BF08B540F2A1710122FFF726FCED
:10332000012008BD08B540F2A1710122FFF72CFC75
:1033300008BD00BF08B540F2A2710122FFF716FCDC
:10334000012008BD08B540F2A2710122FFF71CFC64
:1033500008BD00BF08B540F2A3710122FFF706FCCB
:10336000012008BD08B540F2A3710122FFF70CFC53
:1033700008BD00BF08B540F2A4710122FFF7F6FBBB
:10338000012008BD08B540F2A4710122FFF7FCFB43
:1033900008BD00BF08B540F2A5710122FFF7E6FBAA
:1033A000012008BD08B540F2A5710122FFF7ECFB32
:1033B00008BD00BF08B540F2A6710122FFF7D6FB99
:1033C000012008BD08B540F2A6710122FFF7DCFB21
:1033D00008BD00BF08B540F2A7710122FFF7C6FB88
:1033E000012008BD08B540F2A7710122FFF7CCFB10
:1033F00008BD00BF08B54FF4F5610122FFF7B6FB29
:10340000012008BD08B54FF4F5610122FFF7BCFBB0
:1034100008BD00BF08B540F2A9710122FFF7A6FB65
:10342000012008BD08B540F2A9710122FFF7ACFBED
:1034300008BD00BF08B540F2AA710122FFF796FB54
:10344000012008BD08B540F2AA710122FFF79CFBDC
:1034500008BD00BF08B540F2AB710122FFF786FB43
:10346000012008BD10B582B004460DF10700FFF73A
:1034700009FC9DF80730102B06D1204602211022AE
:10348000FFF774FB102000E0002002B010BD00BF69
:1034900010B582B00C4602211022FFF775FB102CEC
:1034A000A8BF102402A800F8014DFFF7F3FB02B0FB
:1034B00010BD00BF10B582B004460DF10700FFF744
:1034C000F1FB9DF80730022B06D120461E21022277
:1034D000FFF74CFB022000E0002002B010BD00BF4F
:1034E00000B583B01E210222FFF74EFB02A8022383
:1034F00000F8013DFFF7DEFB03B05DF804FB00BF01
:1035000010B582B004460DF10700FFF7DBFB9DF814
:103510000730062B06D1204618210622FFF726FB8E
:10352000062000E0002002B010BD00BF00B583B04F
:1035300018210622FFF728FB02A8062300F8013D08
:10354000FFF7C8FB03B05DF804FB00BF30B583B0E4
:1035500005460DF10700FFF7C5FB9DF8074028461B
:1035600012210622FFF702FB062CB4BF20460620DC
:1035700003B030BD10B582B00C4612210622FFF711
:1035800003FB062CA8BF062402A800F8014DFFF794
:10359000B1FB02B010BD00BF30B583B004460139A5
:1035A000172900F2B281DFE811F0180029003A0073
:1035B0004B005C006D007E008F00A000B100C200D7
:1035C000D300E400F50006011701280139014A0182
:1035D0005B016C017D018E019F010DF10700FFF77A
:1035E00091FB9DF80750202DA8BF202520464FF4C1
:1035F0008B612022FFF7BAFA284686E10DF1070019
:10360000FFF790FB9DF80750202DA8BF20252046EE
:103610004FF48F612022FFF7A9FA284675E10DF1DA
:103620000700FFF78FFB9DF80750202DA8BF20252E
:1036300020464FF493612022FFF798FA284664E170
:103640000DF10700FFF78EFB9DF80750202DA8BF56
:10365000202520464FF497612022FFF787FA28465D
:1036600053E10DF10700FFF78DFB9DF80750202D6A
:10367000A8BF202520464FF49B612022FFF776FA51
:10368000284642E10DF10700FFF78CFB9DF807503B
:10369000202DA8BF202520464FF49F612022FFF750
:1036A00065FA284631E10DF10700FFF78BFB9DF825
:1036B0000750202DA8BF202520464FF4A3612022CB
:1036C000FFF754FA284620E10DF10700FFF78AFBC7
:1036D0009DF80750202DA8BF202520464FF4A76154
:1036E0002022FFF743FA28460FE10DF10700FFF70C
:1036F00089FB9DF80750202DA8BF202520464FF4B8
:10370000AB612022FFF732FA2846FEE00DF10700F8
:10371000FFF788FB9DF80750202DA8BF20252046E5
:103720004FF4AF612022FFF721FA2846EDE00DF1BA
:103730000700FFF787FB9DF80750202DA8BF202525
:1037400020464FF4B3612022FFF710FA2846DCE050
:103750000DF10700FFF786FB9DF80750202DA8BF4D
:10376000202520464FF4B7612022FFF7FFF92846B5
:10377000CBE00DF10700FFF785FB9DF80750202DEA
:10378000A8BF202520464FF4BB612022FFF7EEF9A9
:103790002846BAE00DF10700FFF784FB9DF80750BB
:1037A000202DA8BF202520464FF4BF612022FFF71F
:1037B000DDF92846A9E00DF10700FFF783FB9DF82E
:1037C0000750202DA8BF202520464FF4C36120229A
:1037D000FFF7CCF9284698E00DF10700FFF782FBD0
:1037E0009DF80750202DA8BF202520464FF4C76123
:1037F0002022FFF7BBF9284687E00DF10700FFF70D
:1038000081FB9DF80750202DA8BF202520464FF4AE
:10381000CB612022FFF7AAF9284676E00DF10700D8
:10382000FFF780FB9DF80750202DA8BF20252046DC
:103830004FF4CF612022FFF799F9284665E00DF19A
:103840000700FFF77FFB9DF80750202DA8BF20251C
:1038500020464FF4D3612022FFF788F9284654E030
:103860000DF10700FFF77EFB9DF80750202DA8BF44
:10387000202520464FF4D7612022FFF777F928460C
:1038800043E00DF10700FFF77DFB9DF80750202D69
:10389000A8BF202520464FF4DB612022FFF766F900
:1038A000284632E00DF10700FFF77CFB9DF807503A
:1038B000202DA8BF202520464FF4DF612022FFF7EE
:1038C00055F9284621E00DF10700FFF77BFB9DF835
:1038D0000750202DA8BF202520464FF4E361202269
:1038E000FFF744F9284610E00DF10700FFF77AFBD7
:1038F0009DF80750202DA8BF202520464FF4E761F2
:103900002022FFF733F92846FFE703B030BD00BFA0
:1039100010B582B00C46013A172A00F26981DFE83F
:1039200012F0180026003400420050005E006C00C7
:103930007A0088009600A400B200C000CE00DC002F
:10394000EA00F80006011401220130013E014C0199
:103950005A014FF48B612022FFF716F9202CA8BFE3
:10396000202402A800F8014DFFF7D4F940E14FF4FC
:103970008F612022FFF708F9202CA8BF202402A87D
:1039800000F8014DFFF7D6F932E14FF493612022A0
:10399000FFF7FAF8202CA8BF202402A800F8014D58
:1039A000FFF7D8F924E14FF497612022FFF7ECF8F4
:1039B000202CA8BF202402A800F8014DFFF7DAF957
:1039C00016E14FF49B612022FFF7DEF8202CA8BF00
:1039D000202402A800F8014DFFF7DCF908E14FF4BC
:1039E0009F612022FFF7D0F8202CA8BF202402A836
:1039F00000F8014DFFF7DEF9FAE04FF4A361202251
:103A0000FFF7C2F8202CA8BF202402A800F8014D1F
:103A1000FFF7E0F9ECE04FF4A7612022FFF7B4F8DC
:103A2000202CA8BF202402A800F8014DFFF7E2F9DE
:103A3000DEE04FF4AB612022FFF7A6F8202CA8BFF0
:103A4000202402A800F8014DFFF7E4F9D0E04FF47C
:103A5000AF612022FFF798F8202CA8BF202402A8ED
:103A600000F8014DFFF7E6F9C2E04FF4B361202200
:103A7000FFF78AF8202CA8BF202402A800F8014DE7
:103A8000FFF7E8F9B4E04FF4B7612022FFF77CF8C4
:103A9000202CA8BF202402A800F8014DFFF7DAF976
:103AA000A6E04FF4BB612022FFF76EF8202CA8BFE0
:103AB000202402A800F8014DFFF7ECF998E04FF43C
:103AC000BF612022FFF760F8202CA8BF202402A8A5
:103AD00000F8014DFFF7EEF98AE04FF4C3612022B0
:103AE000FFF752F8202CA8BF202402A800F8014DAF
:103AF000FFF7F0F97CE04FF4C7612022FFF744F8AC
:103B0000202CA8BF202402A800F8014DFFF7F2F9ED
:103B10006EE04FF4CB612022FFF736F8202CA8BFCF
:103B2000202402A800F8014DFFF7F4F960E04FF4FB
:103B3000CF612022FFF728F8202CA8BF202402A85C
:103B400000F8014DFFF7F6F952E04FF4D36120225F
:103B5000FFF71AF8202CA8BF202402A800F8014D76
:103B6000FFF7F8F944E04FF4D7612022FFF70CF893
:103B7000202CA8BF202402A800F8014DFFF7FAF975
:103B800036E04FF4DB612022FEF7FEFF202CA8BFB9
:103B9000202402A800F8014DFFF7FCF928E04FF4BB
:103BA000DF612022FEF7F0FF202CA8BF202402A80E
:103BB00000F8014DFFF7FEF91AE04FF4E36120220F
:103BC000FEF7E2FF202CA8BF202402A800F8014D38
:103BD000FFF700FA0CE04FF4E7612022FEF7D4FF74
:103BE000202CA8BF202402A800F8014DFFF702FAFC
:103BF00002B010BD08B50139172900F28780DFE84F
:103C000001F00C11161B20252A2F34393E43484D54
:103C100052575C61666B70757A7F20210A22FEF72D
:103C2000A5FF74E02A210A22FEF7A0FF6FE03421ED
:103C30000A22FEF79BFF6AE03E210A22FEF796FF6A
:103C400065E048210A22FEF791FF60E052210A2236
:103C5000FEF78CFF5BE05C210A22FEF787FF56E04F
:103C600066210A22FEF782FF51E070210A22FEF748
:103C70007DFF4CE07A210A22FEF778FF47E084219D
:103C80000A22FEF773FF42E08E210A22FEF76EFF42
:103C90003DE098210A22FEF769FF38E0A2210A22BE
:103CA000FEF764FF33E0AC210A22FEF75FFF2EE04F
:103CB000B6210A22FEF75AFF29E0C0210A22FEF7A8
:103CC00055FF24E0CA210A22FEF750FF1FE0D4214D
:103CD0000A22FEF74BFF1AE0DE210A22FEF746FF1A
:103CE00015E0E8210A22FEF741FF10E0F2210A2246
:103CF000FEF73CFF0BE0FC210A22FEF737FF06E04F
:103D00004FF483710A22FEF731FF00E008BD0A205C
:103D100008BD00BF08B5013A172A00F28680DFE827
:103D200002F00C11161B20252A2F34393E43484D32
:103D300052575C61666B70757A7F20210A22FEF70C
:103D400023FF08BD2A210A22FEF71EFF08BD3421E9
:103D50000A22FEF719FF08BD3E210A22FEF714FFD2
:103D600008BD48210A22FEF70FFF08BD52210A2292
:103D7000FEF70AFF08BD5C210A22FEF705FF08BD19
:103D800066210A22FEF700FF08BD70210A22FEF715
:103D9000FBFE08BD7A210A22FEF7F6FE08BD84214B
:103DA0000A22FEF7F1FE08BD8E210A22FEF7ECFE84
:103DB00008BD98210A22FEF7E7FE08BDA2210A22CB
:103DC000FEF7E2FE08BDAC210A22FEF7DDFE08BDCB
:103DD000B6210A22FEF7D8FE08BDC0210A22FEF74E
:103DE000D3FE08BDCA210A22FEF7CEFE08BDD421AB
:103DF0000A22FEF7C9FE08BDDE210A22FEF7C4FE34
:103E000008BDE8210A22FEF7BFFE08BDF2210A2202
:103E1000FEF7BAFE08BDFC210A22FEF7B5FE08BD7A
:103E20004FF483710A22FEF7AFFE08BD08B50139D1
:103E3000172900F29E80DFE801F00C12181E242AD8
:103E400030363C42484E545A60666C72787E848AA2
:103E500090964FF485610122FEF788FE8AE040F2D9
:103E600029410122FEF782FE84E040F22A4101222C
:103E7000FEF77CFE7EE040F22B410122FEF776FE4B
:103E800078E040F22C410122FEF770FE72E040F231
:103E90002D410122FEF76AFE6CE040F22E41012224
:103EA000FEF764FE66E040F22F410122FEF75EFE5F
:103EB00060E04FF486610122FEF758FE5AE040F2BE
:103EC00031410122FEF752FE54E040F2324101221C
:103ED000FEF74CFE4EE040F233410122FEF746FE73
:103EE00048E040F234410122FEF740FE42E040F259
:103EF00035410122FEF73AFE3CE040F23641012214
:103F0000FEF734FE36E040F237410122FEF72EFE86
:103F100030E04FF487610122FEF728FE2AE040F2EC
:103F200039410122FEF722FE24E040F23A4101220B
:103F3000FEF71CFE1EE040F23B410122FEF716FE9A
:103F400018E040F23C410122FEF710FE12E040F280
:103F50003D410122FEF70AFE0CE040F23E41012203
:103F6000FEF704FE06E040F23F410122FEF7FEFDAF
:103F700000E008BD012008BD08B50139172900F28D
:103F80009D80DFE801F00C12181E242A30363C42D6
:103F9000484E545A60666C72787E848A90964FF4CC
:103FA00085610122FEF7F0FD08BD40F229410122A2
:103FB000FEF7EAFD08BD40F22A410122FEF7E4FDCA
:103FC00008BD40F22B410122FEF7DEFD08BD40F2A4
:103FD0002C410122FEF7D8FD08BD40F22D410122FF
:103FE000FEF7D2FD08BD40F22E410122FEF7CCFDC6
:103FF00008BD40F22F410122FEF7C6FD08BD4FF477
:1040000086610122FEF7C0FD08BD40F23141012268
:10401000FEF7BAFD08BD40F232410122FEF7B4FDC1
:1040200008BD40F233410122FEF7AEFD08BD40F26B
:1040300034410122FEF7A8FD08BD40F235410122BE
:10404000FEF7A2FD08BD40F236410122FEF79CFDBD
:1040500008BD40F237410122FEF796FD08BD4FF43E
:1040600087610122FEF790FD08BD40F2394101222F
:10407000FEF78AFD08BD40F23A410122FEF784FDB9
:1040800008BD40F23B410122FEF77EFD08BD40F233
:104090003C410122FEF778FD08BD40F23D4101227E
:1040A000FEF772FD08BD40F23E410122FEF76CFDB5
:1040B00008BD40F23F410122FEF766FD08BD00BF8A
:1040C00008B50139172900F29E80DFE801F00C12D3
:1040D000181E242A30363C42484E545A60666C7290
:1040E000787E848A90964FF4EE610122FEF73EFDC1
:1040F0008AE040F271710122FEF738FD84E040F25F
:1041000072710122FEF732FD7EE040F273710122EE
:10411000FEF72CFD78E040F274710122FEF726FDD7
:1041200072E040F275710122FEF720FD6CE040F272
:1041300076710122FEF71AFD66E040F277710122E6
:10414000FEF714FD60E04FF4EF610122FEF70EFD73
:104150005AE040F279710122FEF708FD54E040F286
:104160007A710122FEF702FD4EE040F27B710122DE
:10417000FEF7FCFC48E040F27C710122FEF7F6FC01
:1041800042E040F27D710122FEF7F0FC3CE040F29B
:104190007E710122FEF7EAFC36E040F27F710122D7
:1041A000FEF7E4FC30E04FF4F0610122FEF7DEFCA4
:1041B0002AE040F281710122FEF7D8FC24E040F2AF
:1041C00082710122FEF7D2FC1EE040F283710122CF
:1041D000FEF7CCFC18E040F284710122FEF7C6FC29
:1041E00012E040F285710122FEF7C0FC0CE040F2C3
:1041F00086710122FEF7BAFC06E040F287710122C7
:10420000FEF7B4FC00E008BD012008BD08B5013987
:10421000172900F29D80DFE801F00C12181E242AF5
:1042200030363C42484E545A60666C72787E848ABE
:1042300090964FF4EE610122FEF7A6FC08BD40F215
:1042400071710122FEF7A0FC08BD40F272710122DB
:10425000FEF79AFC08BD40F273710122FEF794FC50
:1042600008BD40F274710122FEF78EFC08BD40F2D9
:1042700075710122FEF788FC08BD40F276710122BB
:10428000FEF782FC08BD40F277710122FEF77CFC4C
:1042900008BD4FF4EF610122FEF776FC08BD40F245
:1042A00079710122FEF770FC08BD40F27A7101229B
:1042B000FEF76AFC08BD40F27B710122FEF764FC48
:1042C00008BD40F27C710122FEF75EFC08BD40F2A1
:1042D0007D710122FEF758FC08BD40F27E7101227B
:1042E000FEF752FC08BD40F27F710122FEF74CFC44
:1042F00008BD4FF4F0610122FEF746FC08BD40F214
:1043000081710122FEF740FC08BD40F2827101225A
:10431000FEF73AFC08BD40F283710122FEF734FC3F
:1043200008BD40F284710122FEF72EFC08BD40F268
:1043300085710122FEF728FC08BD40F2867101223A
:10434000FEF722FC08BD40F287710122FEF71CFC3B
:1043500008BD00BF08B50139172900F29E80DFE8CB
:1043600001F00C12181E242A30363C42484E545A92
:1043700060666C72787E848A90964FF48861012220
:10438000FEF7F4FB8AE040F241410122FEF7EEFB2A
:1043900084E040F242410122FEF7E8FB7EE040F279
:1043A00043410122FEF7E2FB78E040F24441012262
:1043B000FEF7DCFB72E040F245410122FEF7D6FB3E
:1043C0006CE040F246410122FEF7D0FB66E040F28D
:1043D00047410122FEF7CAFB60E04FF489610122E8
:1043E000FEF7C4FB5AE040F249410122FEF7BEFB52
:1043F00054E040F24A410122FEF7B8FB4EE040F2A1
:104400004B410122FEF7B2FB48E040F24C41012251
:10441000FEF7ACFB42E040F24D410122FEF7A6FB65
:104420003CE040F24E410122FEF7A0FB36E040F2B4
:104430004F410122FEF79AFB30E04FF48A610122DE
:10444000FEF794FB2AE040F251410122FEF78EFB79
:1044500024E040F252410122FEF788FB1EE040F2C8
:1044600053410122FEF782FB18E040F25441012241
:10447000FEF77CFB12E040F255410122FEF776FB8D
:104480000CE040F256410122FEF770FB06E040F2DC
:1044900057410122FEF76AFB00E008BD012008BD7C
:1044A00008B50139172900F29D80DFE801F00C12F0
:1044B000181E242A30363C42484E545A60666C72AC
:1044C000787E848A90964FF488610122FEF75CFB27
:1044D00008BD40F241410122FEF756FB08BD40F203
:1044E00042410122FEF750FB08BD40F24341012248
:1044F000FEF74AFB08BD40F244410122FEF744FBAF
:1045000008BD40F245410122FEF73EFB08BD40F2E6
:1045100046410122FEF738FB08BD40F24741012227
:10452000FEF732FB08BD4FF489610122FEF72CFB38
:1045300008BD40F249410122FEF726FB08BD40F2CA
:104540004A410122FEF720FB08BD40F24B41012207
:10455000FEF71AFB08BD40F24C410122FEF714FBA6
:1045600008BD40F24D410122FEF70EFB08BD40F2AE
:104570004E410122FEF708FB08BD40F24F410122E7
:10458000FEF702FB08BD4FF48A610122FEF7FCFA38
:1045900008BD40F251410122FEF7F6FA08BD40F293
:1045A00052410122FEF7F0FA08BD40F253410122C8
:1045B000FEF7EAFA08BD40F254410122FEF7E4FAA0
:1045C00008BD40F255410122FEF7DEFA08BD40F277
:1045D00056410122FEF7D8FA08BD40F257410122A8
:1045E000FEF7D2FA08BD00BF08B501390B294FD834
:1045F000DFE801F0060C12181E242A30363C42482F
:104600004FF4F1610122FEF7B1FA42E040F2897104
:104610000122FEF7ABFA3CE040F28A710122FEF77C
:10462000A5FA36E040F28B710122FEF79FFA30E0E6
:1046300040F28C710122FEF799FA2AE040F28D7166
:104640000122FEF793FA24E040F28E710122FEF778
:104650008DFA1EE040F28F710122FEF787FA18E012
:104660004FF4F2610122FEF781FA12E040F29171FB
:104670000122FEF77BFA0CE040F292710122FEF774
:1046800075FA06E040F293710122FEF76FFA00E03E
:1046900008BD012008BD00BF08B501390B294ED85F
:1046A000DFE801F0060C12181E242A30363C42487E
:1046B0004FF4F1610122FEF767FA08BD40F28971FB
:1046C0000122FEF761FA08BD40F28A710122FEF76D
:1046D0005BFA08BD40F28B710122FEF755FA08BD66
:1046E00040F28C710122FEF74FFA08BD40F28D7145
:1046F0000122FEF749FA08BD40F28E710122FEF751
:1047000043FA08BD40F28F710122FEF73DFA08BD61
:104710004FF4F2610122FEF737FA08BD40F29171C1
:104720000122FEF731FA08BD40F292710122FEF734
:104730002BFA08BD40F293710122FEF725FA08BD5D
:1047400008B501390B294FD8DFE801F0060C121823
:104750001E242A30363C424840F294710122FEF772
:1047600005FA42E040F295710122FEF7FFF93CE0C4
:1047700040F296710122FEF7F9F936E040F29771A6
:104780000122FEF7F3F930E04FF4F3610122FEF766
:10479000EDF92AE040F299710122FEF7E7F924E0F1
:1047A00040F29A710122FEF7E1F91EE040F29B719E
:1047B0000122FEF7DBF918E040F29C710122FEF7BE
:1047C000D5F912E040F29D710122FEF7CFF90CE01D
:1047D00040F29E710122FEF7C9F906E040F29F7196
:1047E0000122FEF7C3F900E008BD012008BD00BFAB
:1047F00008B501390B294ED8DFE801F0060C121874
:104800001E242A30363C424840F294710122FEF7C1
:10481000BBF908BD40F295710122FEF7B5F908BD5C
:1048200040F296710122FEF7AFF908BD40F2977190
:104830000122FEF7A9F908BD4FF4F3610122FEF74A
:10484000A3F908BD40F299710122FEF79DF908BD58
:1048500040F29A710122FEF797F908BD40F29B7170
:104860000122FEF791F908BD40F29C710122FEF78A
:104870008BF908BD40F29D710122FEF785F908BD54
:1048800040F29E710122FEF77FF908BD40F29F7150
:104890000122FEF779F908BD30B583B0044601392D
:1048A000172900F2B281DFE811F0180029003A0060
:1048B0004B005C006D007E008F00A000B100C200C4
:1048C000D300E400F50006011701280139014A016F
:1048D0005B016C017D018E019F010DF10700FEF768
:1048E00091FB9DF80750202DA8BF202520464FF4AE
:1048F00088712022FEF73AF9284686E10DF107007B
:10490000FEF790FB9DF80750202DA8BF20252046DC
:104910004FF498712022FEF729F9284675E10DF130
:104920000700FEF78FFB9DF80750202DA8BF20251C
:1049300020464FF4A8712022FEF718F9284664E1BA
:104940000DF10700FEF78EFB9DF80750202DA8BF44
:10495000202520464FF4B8712022FEF707F928469B
:1049600053E10DF10700FEF78DFB9DF80750202D58
:10497000A8BF202520464FF4C8712022FEF7F6F884
:10498000284642E10DF10700FEF78CFB9DF8075029
:10499000202DA8BF202520464FF4D8712022FEF7F5
:1049A000E5F8284631E10DF10700FEF78BFB9DF895
:1049B0000750202DA8BF202520464FF4E871202263
:1049C000FEF7D4F8284620E10DF10700FEF78AFB38
:1049D0009DF80750202DA8BF202520464FF4F871E0
:1049E0002022FEF7C3F828460FE10DF10700FEF77D
:1049F00089FB9DF80750202DA8BF202520464FF4A5
:104A000004712022FEF7B2F82846FEE00DF10700FF
:104A1000FEF788FB9DF80750202DA8BF20252046D3
:104A20004FF40C712022FEF7A1F82846EDE00DF1BD
:104A30000700FEF787FB9DF80750202DA8BF202513
:104A400020464FF414712022FEF790F82846DCE04F
:104A50000DF10700FEF786FB9DF80750202DA8BF3B
:104A6000202520464FF41C712022FEF77FF82846AF
:104A7000CBE00DF10700FEF77DFB9DF80750202DE0
:104A8000A8BF202520464FF424712022FEF76EF89F
:104A90002846BAE00DF10700FEF77CFB9DF80750B1
:104AA000202DA8BF202520464FF42C712022FEF790
:104AB0005DF82846A9E00DF10700FEF77BFB9DF8A5
:104AC0000750202DA8BF202520464FF43471202206
:104AD000FEF74CF8284698E00DF10700FEF77AFB48
:104AE0009DF80750202DA8BF202520464FF43C718B
:104AF0002022FEF73BF8284687E00DF10700FEF77D
:104B000079FB9DF80750202DA8BF202520464FF4A3
:104B100044712022FEF72AF8284676E00DF10700BE
:104B2000FEF778FB9DF80750202DA8BF20252046D2
:104B30004FF44C712022FEF719F8284665E00DF17C
:104B40000700FEF777FB9DF80750202DA8BF202512
:104B500020464FF454712022FEF708F8284654E00E
:104B60000DF10700FEF776FB9DF80750202DA8BF3A
:104B7000202520464FF45C712022FDF7F7FF2846E0
:104B800043E00DF10700FEF775FB9DF80750202D5F
:104B9000A8BF202520464FF464712022FDF7E6FFD0
:104BA000284632E00DF10700FEF774FB9DF8075030
:104BB000202DA8BF202520464FF46C712022FDF740
:104BC000D5FF284621E00DF10700FEF773FB9DF8A5
:104BD0000750202DA8BF202520464FF474712022B5
:104BE000FDF7C4FF284610E00DF10700FEF772FB49
:104BF0009DF80750202DA8BF202520464FF47C713A
:104C00002022FDF7B3FF2846FFE703B030BD00BF09
:104C100010B582B00C46013A172A00F26981DFE82C
:104C200012F0180026003400420050005E006C00B4
:104C30007A0088009600A400B200C000CE00DC001C
:104C4000EA00F80006011401220130013E014C0186
:104C50005A014FF488712022FDF796FF202CA8BF3F
:104C6000202402A800F8014DFEF7D4F940E14FF4EA
:104C700098712022FDF788FF202CA8BF202402A8CD
:104C800000F8014DFEF7D6F932E14FF4A871202269
:104C9000FDF77AFF202CA8BF202402A800F8014DC0
:104CA000FEF7D8F924E14FF4B8712022FDF76CFF2C
:104CB000202CA8BF202402A800F8014DFEF7DAF945
:104CC00016E14FF4C8712022FDF75EFF202CA8BF2B
:104CD000202402A800F8014DFEF7DCF908E14FF4AA
:104CE000D8712022FDF750FF202CA8BF202402A855
:104CF00000F8014DFEF7DEF9FAE04FF4E8712022EA
:104D0000FDF742FF202CA8BF202402A800F8014D87
:104D1000FEF7E0F9ECE04FF4F8712022FDF734FFE4
:104D2000202CA8BF202402A800F8014DFEF7E2F9CC
:104D3000DEE04FF404712022FDF726FF202CA8BFEF
:104D4000202402A800F8014DFEF7E4F9D0E04FF46A
:104D50000C712022FDF718FF202CA8BF202402A8E8
:104D600000F8014DFEF7E6F9C2E04FF4147120227D
:104D7000FDF70AFF202CA8BF202402A800F8014D4F
:104D8000FEF7E8F9B4E04FF41C712022FDF7FCFEB9
:104D9000202CA8BF202402A800F8014DFEF7DAF964
:104DA000A6E04FF424712022FDF7EEFE202CA8BFD0
:104DB000202402A800F8014DFEF7E4F998E04FF432
:104DC0002C712022FDF7E0FE202CA8BF202402A891
:104DD00000F8014DFEF7E6F98AE04FF43471202225
:104DE000FDF7D2FE202CA8BF202402A800F8014D18
:104DF000FEF7E8F97CE04FF43C712022FDF7C4FE99
:104E0000202CA8BF202402A800F8014DFEF7EAF9E3
:104E10006EE04FF444712022FDF7B6FE202CA8BFAF
:104E2000202402A800F8014DFEF7ECF960E04FF4F1
:104E30004C712022FDF7A8FE202CA8BF202402A838
:104E400000F8014DFEF7EEF952E04FF454712022C4
:104E5000FDF79AFE202CA8BF202402A800F8014DDF
:104E6000FEF7F0F944E04FF45C712022FDF78CFE70
:104E7000202CA8BF202402A800F8014DFEF7F2F96B
:104E800036E04FF464712022FDF77EFE202CA8BF8F
:104E9000202402A800F8014DFEF7F4F928E04FF4B1
:104EA0006C712022FDF770FE202CA8BF202402A8E0
:104EB00000F8014DFEF7F6F91AE04FF47471202264
:104EC000FDF762FE202CA8BF202402A800F8014DA7
:104ED000FEF7F8F90CE04FF47C712022FDF754FE48
:104EE000202CA8BF202402A800F8014DFEF7FAF9F3
:104EF00002B010BDF8B5044615460F684E688868C4
:104F0000CA6827606660A060E26004F1100019467C
:104F1000062200F059F928460AF092FEC0F3470233
:104F200084F82620102A04D9102384F826301A4643
:104F300000E022B104F11600294600F045F90023F3
:104F400084F82730BDF818302385079BE362089862
:104F500007F012FFF8BD00BFF0B597B005460C464C
:104F60000B4653F8100F00909B88ADF8043091F871
:104F700027308DF80B300B8DADF80630CB6AADF8CD
:104F800008301B0C8DF80A304FF4803007F02AFFF0
:104F9000ADF80C0068460E2100F08CF8C043ADF867
:104FA0000E0094F8262082B104A804F1160100F046
:104FB0009BF894F826205200284604A9013206F0F6
:104FC00069F894F8263005EB4305684621460DAA9A
:104FD00000F010FA0DAE2C4615AF35460FCD20600F
:104FE0006160A260E3602E461034BD42F5D12B789B
:104FF000237017B0F0BD00BFC36A0133C3627047AE
:1050000010B582B002AC002304F8013D2046FDF744
:1050100041FE2046FDF74EFE2046FDF75BFE204692
:10502000FDF768FE2046FDF775FE2046FDF782FE7F
:105030002046FDF78FFE2046FDF79CFE2046FDF73B
:10504000A9FE2046FDF7B6FE2046FDF7C3FE20462A
:10505000FDF7D0FE2046FDF7DDFE2046FDF7EAFE17
:105060002046FDF7F7FE2046FDF704FF02B010BD15
:1050700008B5038D47F6FE72934203D9FFF7C0FFD0
:10508000012008BD013320F8283FFEF729FA00204F
:1050900008BD00BF08B590F82730FF2B05D10023CD
:1050A00080F82730FFF7E4FF08BD013380F8273090
:1050B000002008BD70B401444FF6FF73082648F283
:1050C00008450BE010F8012B5340324603F0010471
:1050D0005B080CB16B409BB2013AF7D18842F1D129
:1050E000184670BC704700BFF0B41746A2B1841CCC
:1050F0000B4611440A4D1E783609AE5D04F8026C69
:1051000013F8016B06F00F06AE5D04F8016C023473
:105110008B42F0D100EB470000230370F0BC7047D6
:10512000743A01002DE9F84304460F461646097803
:10513000D9B13AB30025DFF85080A94640460AF0BD
:1051400005FD18B1C8EB0003DBB200E04B4695F05B
:10515000010501D0237005E0227843EA021304F828
:10516000013B013E17F8011F11B92EB9BDE8F883C4
:10517000002EE3D1BDE8F8832644002304F8013B68
:10518000B442FBD1BDE8F883743A0100F0B417468D
:10519000A2B1841C0B4611440A4D1E783609AE5D3F
:1051A00004F8026C13F8016B06F00F06AE5D04F80C
:1051B000016C02348B42F0D100EB470000230370F6
:1051C000F0BC7047883A01002DE9F84304460F46C9
:1051D00016460978D9B13AB30025DFF85080A946C0
:1051E00040460AF0B3FC18B1C8EB0003DBB200E0A4
:1051F0004B4695F0010501D0237005E0227843EA83
:10520000021304F8013B013E17F8011F11B92EB932
:10521000BDE8F883002EE3D1BDE8F88326440023DF
:1052200004F8013BB442FBD1BDE8F883883A0100A1
:105230002DE9F00F86B004460D4602AE08684968B5
:10524000AA68EB680FC60023E95CE25C4A40E254BE
:105250000133102BF8D14FF0000A6449019404F196
:10526000100B06AE2378CB5C23702379CB5C2371C3
:10527000237ACB5C2372237BCB5C237363786279C4
:105280008A5C6270627A8A5C6271627B8A5C62723A
:10529000CB5C6373A378A27A8A5CA270CB5CA372A6
:1052A000A379A27B8A5CA271CB5CA373E37BE27AD5
:1052B0008A5CE273E2798A5CE272E2788A5CE2718B
:1052C000CB5CE3705FFA8AF3092B4CD0019A601C27
:1052D00010F8018C577888EA070792F803909578C0
:1052E00089EA05057D4017F0800F4FEA470718BF90
:1052F00087F01B07FFB285EA080887EA080800F86C
:10530000018C577892F8028087EA080818F0800F1D
:105310004FEA480818BF88F01B085FFA88F86F400A
:1053200088EA0707577092F80280D77888EA07075B
:1053300017F0800F4FEA470718BF87F01B07FFB22F
:1053400085EA080887EA0807977092F8018010F844
:1053500001CC88EA0C0C85EA0C056F40D77004324A
:1053600004305A45B4D19DF81530CA5C9DF8083018
:105370005A401F481AF8003053408DF808309DF805
:105380001630CA5C9DF8093053408DF809309DF8FD
:105390001730CA5C9DF80A3053408DF80A309DF8EA
:1053A0001430CA5C9DF80B3053408DF80B3003ABC2
:1053B00013F8010B13F8052C424003F8012CB342FB
:1053C000F6D1002303F108056A46A85CE25C42407E
:1053D000E2540133102BF5D10AF1010ABAF10A0F98
:1053E0007FF440AF06B0BDE8F00F70479C3A010073
:1053F0009C3B010038B504461546FFF719FF2846C7
:1054000021461022FFF770FE38BD00BF026872B15E
:105410008A4209D1D36803607047994201D01A4685
:1054200002E0CB68D3607047D368002BF5D170479A
:1054300038B505460C46FFF7E9FF2A680AB92C6023
:1054400004E0D3680BB11A46FBE7D46007F0F0F92B
:105450002368C01A60600023E36038BD38B50C468D
:1054600007F0E6F90546626823681344984205D3BD
:105470006268934208D26268904205D3626895429E
:1054800006D26268934203D3A368204698476560BA
:1054900038BD00BF38B50546046834B128462146FA
:1054A000FFF7DCFFE468002CF8D138BD08B50248EE
:1054B000FFF7F0FF08BD00BFEC97FF1F10B44FF4DB
:1054C0007A7404FB01F10160826000224260C260D4
:1054D0005DF8044B704700BF016100220273027047
:1054E000704700BF01617047037B0B2B07D05A1C2C
:1054F000D2B20273C15400238354012070470020AC
:10550000704700BF002303730370704710B4016934
:105510000A78047800237AB9D4F1010038BF00205A
:105520000DE011F8012F10F8014F01330B2BF2D1D0
:10553000002004E0002002E0A242F2D0FAE75DF889
:10554000044B70472DE9F0479CB006460024DFF875
:1055500014810546335D04F80830013428460AF00A
:105560006FFB8442F6D96846FCF7C4F828460AF077
:1055700067FB024668463B49FCF7E6F83A48036891
:105580005B683A490B229847394B5C1E03F11F08B0
:10559000354F10260025384614F8011F32462B4699
:1055A00007F010FA4445F6D12F4C204607F0E6F9F3
:1055B00068462F492022FCF7C7F8DFF8A890684614
:1055C0004946FCF7E5F823685B68204629490D2227
:1055D000984709F1FF3409F11F08234F10260025D1
:1055E000384614F8011F32462B4607F0EBF94445C4
:1055F000F6D11D4C204607F0C1F923685B682046B0
:105600001D4909229847DFF874A00AF1FF340AF116
:105610001F08154F10260025384614F8011F324682
:105620002B4607F0CFF94445F6D10F4807F0A6F90D
:10563000124B19780B4B1A780AF11E00534604E0FE
:10564000914214BF0020012009E0914206D113F8D5
:10565000011F19F8012F8342F7D1F1E700201CB098
:10566000BDE8F0877098FF1F7CA5FF1FA83B0100D5
:10567000F097FF1FB43B0100C43B01003098FF1FAF
:105680002DE9F8431C4C204607F078F923685B6845
:1056900020461A490C229847DFF8649009F1FF343C
:1056A00009F11F08144F10260025384614F8011F71
:1056B00032462B4607F086F94445F6D10E4807F0EE
:1056C0005DF90F4B1A780F48017809F11E044B461B
:1056D00005E08A4214BF00200120BDE8F8838A4219
:1056E00006D113F8012F10F8011FA342F7D1F0E7FC
:1056F0000020BDE8F88300BF7CA5FF1FD03B010060
:105700005098FF1F7098FF1F2DE9F8431E4C20464C
:1057100007F034F923685B6820461C490C2298473F
:10572000DFF86C9009F1FF3409F11F08164F1026BD
:105730000025384614F8011F32462B4607F042F97F
:105740004445F6D1104807F019F9114B1A78114861
:10575000017809F11E044B4606E08A420DD1012072
:105760000D4B1870BDE8F8838A4209D113F8012F58
:1057700010F8011FA342F7D1EFE70020BDE8F8833E
:105780000020BDE8F88300BF7CA5FF1FE03B0100BF
:105790001098FF1F7098FF1FB09EFF1F08B505F0FF
:1057A000D5FF08BD70B40546064C0FCCE8642965EA
:1057B0006A65AB652068E86500232B6685F848308C
:1057C00070BC7047908CFF1F2DE9F00F86B0C36C42
:1057D0000193076D0297436D0393876D0497C36D23
:1057E00005931E463C460399DDF808C0019D0E2234
:1057F0000023DFF808A1DFF808912CE00F2B24D953
:1058000003F00F0600EB860602F00F0808F102080D
:1058100050F82880B76887EA0808A2F1050B0BF05A
:105820000F0B0BF1020B50F82BB088EA0B08A2F11A
:105830000B0B0BF00F0B0BF1020B50F82BB088EA9F
:105840000B084FEAF878C6F80880013226460C4665
:105850006146AC46009D132B0CD884EA010808EA87
:105860000C0888EA040808F1B54808F51E3808F263
:1058700099181FE0272B05D884EA010888EA0C084C
:10588000C84417E03B2B09D84CEA010808EA040891
:105890000CEA010748EA0708D0440BE084EA010853
:1058A00088EA0C0808F14A4808F5C50808F5834855
:1058B00008F1560803F00F07023750F8277007EB7E
:1058C000F5674744BE1900964FEABC0C0133DBB2C2
:1058D000502B93D1019B3344C364029B1D44056547
:1058E000039B63444365049F39448165059B1C44C5
:1058F000C46506B0BDE8F00F704700BFDCBC1B8F6D
:10590000A1EBD96E10B5044690F8483083F003023D
:10591000024411720133DBB280F84830402B04D1CD
:10592000FFF752FF002384F8483010BD08B5026E1F
:1059300001320266FFF7E6FF012008BD38B50446D4
:105940008021FFF7DFFF94F84830382B08D000257E
:1059500020462946FFF7D6FF94F84830382BF7D178
:1059600020460021FFF7CEFF20460021FFF7CAFFA7
:1059700020460021FFF7C6FF216E2046490FFFF7A2
:10598000C1FF216E2046C1F34751FFF7BBFF216ED7
:105990002046C1F34731FFF7B5FF216E2046C1F322
:1059A0004711FFF7AFFF236ED900204601F0F80141
:1059B000FFF7A8FF38BD00BF38B50546FFF7BEFFAB
:1059C0002A460021D36C1C0E44EA0364180200F43A
:1059D0007F0004431B0A03F47F432343D364013154
:1059E00004320529EED105F14C0038BDF8B5054665
:1059F0000C46164600F1640738460021402209F0A3
:105A000039FE402E1ADD2846FFF7CCFE46B126446B
:105A10002B681B68284614F8011B9847B442F7D13D
:105A20002846FFF7C9FF036844688168C2686B664F
:105A30007C60B960FA6003693B6104E03846214646
:105A4000324605F027FB2846FFF7ACFE05F163045C
:105A500005F1A3062B6814F8011F1B68284681F086
:105A600036019847B442F5D1F8BD00BF70B5054680
:105A7000FFF7A2FF026846688468C168C5F8A420E1
:105A8000C5F8A860C5F8AC40C5F8B0100269C5F803
:105A9000B4202846FFF786FE05F1630405F1A3064E
:105AA0002B6814F8011F1B68284681F05C01984799
:105AB000B442F5D105F114062C462B681B68284624
:105AC00094F8A41098470134B442F6D12846FFF761
:105AD00073FF70BD024B00221A71024A1A607047B0
