:1000000000800020BD010000D58E0000998E000008
:10001000998E0000998E0000998E0000998E000044
:10002000998E0000998E0000998E0000D58E0000F8
:10003000D58E0000998E0000D58E0000898E0000BC
:10004000D58E0000D58E0000D58E0000D58E000024
:10005000D58E0000D58E0000D58E0000D58E000014
:10006000D58E0000D58E0000D58E0000D58E000004
:10007000D58E0000D58E0000D58E0000D58E0000F4
:10008000D58E0000D58E0000D58E0000D58E0000E4
:10009000D58E0000D58E0000D58E0000D58E0000D4
:1000A000D58E0000D58E0000D58E0000D58E0000C4
:1000B000D58E0000D58E0000D58E0000D58E0000B4
:1000C000D58E0000D58E0000D58E0000D58E0000A4
:1000D000D58E0000D58E0000D58E0000D58E000094
:1000E000D58E0000D58E0000D58E0000D58E000084
:1000F000D58E000095BB0000D58E0000E1AC00005D
:10010000D58E0000BDB50000D58E0000D58E000054
:10011000D58E0000D58E0000D58E0000D58E000053
:10012000D58E0000D58E0000D58E0000D58E000043
:10013000D58E0000D58E0000D58E0000D58E000033
:10014000D58E0000D58E0000D58E0000D58E000023
:10015000D58E0000D58E0000D58E0000D58E000013
:10016000D58E00009D960000D58E0000D58E000033
:10017000D58E0000D58E0000D58E0000D58E0000F3
:10018000D58E0000D58E0000D58E0000D58E0000E3
:10019000D58E0000D58E0000D58E0000D58E0000D3
:1001A000D58E0000D58E0000D58E0000D58E0000C3
:1001B000D58E0000D58E0000D58E0000574B4CF236
:1001C000205210B51A804DF628121A8000BF00BFC9
:1001D00008F084FE524B4FF010621A60514A9A6048
:1001E000514ADA60A3F53043203B1A6812F480725A
:1001F00004D14E490A604FF4A8521A604C4B1A7849
:10020000110703D51A7842F008021A70494B4A4C7C
:100210004A482A221A704A4A00239918A14203D256
:10022000195899500433F8E7464B474900228B424E
:1002300002D243F8042BFAE74448454900235A58B0
:100240001A500433B3F5DE7FF9D1424B424A802184
:1002500003F8011B9342FBD1404B3C4A1A60404BD0
:100260000A221A70A3F5805324225A70A0221A7011
:100270009A799207FCD59A79D406FCD4394A9379B5
:1002800003F00C03082B374BF9D103221A714022DB
:100290005A719A799006FCD5324A9179314B4906C8
:1002A000FBD5314A314911600221516020221A7078
:1002B0009A7902F00C020C2AFAD12D4B2D4A1A60C1
:1002C0002D4B2E4A1A6000225A60072243F8042C54
:1002D0002B4AC3F80C2D62B60AF02CF8134B1B689E
:1002E000DA0705D5274809F097FF274B274A1A60F8
:1002F000274B1B785B0609D5234C244A236893427D
:1003000004D1204809F088FF002323600CF04EFB45
:1003100008F0EAFD0AF024FAFEE700BF0E200540CF
:1003200030800440823F04000100002B14D00340C1
:1003300002D0074000E007409496FF1F342C0100D4
:10034000708CFF1F9496FF1F9CAAFF1F0082FF1F47
:100350000000000000E400E05FE400E008ED00E0E1
:100360000050064000400640448004400000030165
:1003700004800440C010050014E000E0FF76010096
:1003800000002020F1598F571CE00340A5C3945A68
:1003900000F00740FFFFFFFFFFFFFFFFFFFFFFFF32
:1003A000FFFFFFFFFFFFFFFFFFFFFFFFFFFFFFFF5D
:1003B000FFFFFFFFFFFFFFFFFFFFFFFFFFFFFFFF4D
:1003C000FFFFFFFFFFFFFFFFFFFFFFFFFFFFFFFF3D
:1003D000FFFFFFFFFFFFFFFFFFFFFFFFFFFFFFFF2D
:1003E000FFFFFFFFFFFFFFFFFFFFFFFFFFFFFFFF1D
:1003F000FFFFFFFFFFFFFFFFFFFFFFFFFFFFFFFF0D
:10040000FFFFFFFFFFFFFFFFFFFFFFFFFEFFFFFFFD
:1004100010B5054C237833B9044B13B10448AFF33E
:1004200000800123237010BD9496FF1F0000000080
:100430002C2C010008B5064B1BB106480649AFF34A
:1004400000800648036813B1054B03B1984708BD07
:10045000000000002C2C01009896FF1F9496FF1FAF
:1004600000000000F8B5494B1C68217880290CD1A8
:1004700044F22B0008F03AFE44F22B0008F088FE0C
:10048000424B1A6801321A60F8BD81290CD144F23E
:10049000280008F02BFE44F2280008F079FE3B4BC0
:1004A0001A6801321A60F8BD82293BD1384A1278A5
:1004B000002A47D1374C23685B68204636490F2213
:1004C0009847204609F0A4FF344A1468344B1B684F
:1004D0001268E41A04F5FA54D31A9C4210D9314F29
:1004E000314E2E4D3878002109F0A6FE01233360ED
:1004F00007F03AFD2A682A4B1B68D31AA342F1D3AE
:10050000284B1878012109F097FE0022264B1A602B
:10051000264C2046264901F069F92046254901F07C
:1005200077F9F8BD82290CD9A1F183034FF47A70D1
:1005300000FB03F009F0E8FE144B1A6801321A6060
:10054000F8BD41B11C480268126890470F4B1A6809
:1005500001321A60F8BD20460CF0F4FF02460D4847
:1005600001684D682146A84744F2280008F0BEFD06
:1005700044F2280008F00CFE0C4C20460C4901F017
:1005800035F920460B4901F043F9F8BDD496FF1F19
:10059000789AFF1F8CA8FF1F780C01006CA8FF1F22
:1005A0007497FF1FFC9DFF1FFC98FF1F7897FF1F8C
:1005B000DC96FF1FBC96FF1F84A8FF1F38B50546B9
:1005C0000C4608460CF0BEFF02462B685B682846C6
:1005D0002146984738BD00BF38B504460D46084649
:1005E0000CF0B0FF024623685B6820462946984716
:1005F0000546204609F00CFF284438BD38B50546AD
:1006000009F066FF0446284609F002FF204438BD81
:1006100038B50121724B19700620724B1870724B5D
:1006200019701622714B1A701722714B1A70112211
:10063000704B1A700F22704B1A7010226F4B1A7089
:100640000E226F4B1A7015226E4B1A7009F018FEAD
:100650006D48202105F056FC6C4B1B78DE2B30D109
:1006600005F084F9442008F03FF804466848026821
:10067000556868491422A8472CB1654803685B682F
:10068000654904229847624C23685B6820466349A9
:1006900014229847204609F0BBFE5B48202105F054
:1006A00031FC01225E4B1A7000225E4B1A702368E7
:1006B0005B6820465C4918229847204609F0A8FE4E
:1006C00037E0442B25D1002823DD5848202105F0B0
:1006D0004FFB574805F0D6FD564805F067FF564CCE
:1006E000204601F0E5FD2378012B01D81522227068
:1006F00000224B4B1A7001224A4B1A70444C23685B
:100700005B6820464D490B229847204609F080FE41
:100710000FE00122424B1A700022424B1A703C4CEF
:1007200023685B68204646491E229847204609F008
:100730006FFE444C2046444940F2FD7208F058F9DF
:1007400008F0DAFA204641492422002308F0FAF89A
:10075000204636492022002308F0F4F8284B187868
:1007600009F0B8FC014620460422082308F0EAF804
:10077000244B187809F0AEFC0146204604220823D9
:1007800008F0E0F8224C23685B68204630490C22D0
:100790009847204640F2DB7109F09AFE204609F0A6
:1007A00037FE2046194B19781022002309F054FE19
:1007B000204609F02DFE23685B6820462549092262
:1007C00098472046064B197809F082FE204609F02A
:1007D0001FFE04F047FE2048204901F019F838BDFB
:1007E000789AFF1FFC9DFF1F7CA2FF1F7DA2FF1FA9
:1007F0007EA2FF1F399EFF1F80A6FF1F81A6FF1F3D
:10080000F898FF1F389EFF1FBC97FF1F0200024091
:100810008CA8FF1F880C0100A00C0100A80C01008F
:10082000DC99FF1FA099FF1FC00C01007C97FF1FE0
:10083000DC97FF1F9C97FF1F888CFF1FDC0C0100BB
:10084000E80C010084A6FF1F080D010038A7FF1F58
:10085000140D0100240D01007897FF1FBC96FF1FA7
:100860002DE9F04F9BB081460025954B1D70954CAE
:1008700023685B68204694490C229847934B19687B
:100880002046303909F024FE204609F0C1FD0AA8AF
:10089000294640220CF0EAFB8D48294684220CF0C0
:1008A000E5FB0AA8494603F0F3FCB0F1000A45DD78
:1008B00023685B68204687491F229847204609F035
:1008C000A7FD23685B68204683491222984720468B
:1008D000514609F0FDFD204609F09AFD7F4B1B783B
:1008E000002B40F0818223685B6820467C49092206
:1008F0009847204609F08CFD0DF1270404EB0A0807
:10090000704F1026384614F8011F32462B4609F066
:10091000A3FD4445F6D16B4809F07AFD64E2384600
:1009200014F8011F32462B4609F096FD4445F6D1D6
:10093000644809F06DFD624B83F800A00AA800210D
:1009400040220CF093FB0AA8494602F02FFE9DF8C6
:100950002830002B3AD0312B1BD15A4C23685B68CE
:10096000204660491F229847204609F051FD544D0A
:100970002B788021564AD15423685B6820465A4917
:1009800003229847204609F043FD2B7801332B7052
:100990001CE0322B1AD14B4C23685B68204651492E
:1009A0001F229847204609F033FD454D2B788121C1
:1009B000474AD15423685B6820464C490622984731
:1009C000204609F025FD2B7801332B700AA8002161
:1009D00040220CF04BFB0AA8494603F07BF89DF837
:1009E0002830002B2AD0374C23685B6820464049CA
:1009F0001C229847204609F00BFD23685B682046BF
:100A00003C490622984720469DF828100A220023D8
:100A100009F022FD23685B68204637492122984768
:100A2000204609F0F5FC9DF828B0254B1A78ABF16B
:100A30007D002749885401321A7001E04FF0000B05
:100A40000AA8494602F068F9B0F1000A6BDD1D4CB6
:100A500023685B68204629491F229847204609F0F1
:100A6000D7FC23685B682046254912229847204618
:100A7000514609F02DFD204609F0CAFC174B1B78A2
:100A8000002B40F0CA8123685B6820461449092284
:100A90009847204609F0BCFC0DF1270404EB0A0836
:100AA000084F10260025384614F8011F32462B4601
:100AB00009F0D2FC4445F6D1024809F0A9FCACE1AA
:100AC000D896FF1F8CA8FF1F300D0100B496FF1FA2
:100AD000F096FF1F400D0100600D0100789AFF1F86
:100AE000740D0100800D0100A00D0100A40D010096
:100AF000AC0D0100CC0D0100D40D0100F80D01007A
:100B0000180E0100384614F8011F32462B4609F032
:100B1000A3FC4445F6D1A64809F07AFCA54B1A7807
:100B2000924483F800A00AA8002140220CF09EFA0B
:100B30000AA8494602F084FE9DF82830002B38D0E0
:100B4000312B1AD19A4C23685B6820469A491F22A0
:100B50009847204609F05CFC23685B68204697496B
:100B600003229847204609F053FC924B1A788020C4
:100B70009349885401321A701BE0322B19D18C4CE6
:100B800023685B6820468C491F229847204609F05D
:100B90003FFC23685B6820468A4906229847204626
:100BA00009F036FC834B1A7881208549885401323C
:100BB0001A700AA8002140220CF058FA0AA84946E7
:100BC00003F0D2F89DF82830002B2AD0784C236807
:100BD0005B6820467C491D229847204609F018FC96
:100BE00023685B68204679490622984720469DF88D
:100BF00028100A22002309F02FFC23685B68204696
:100C000073491C229847204609F002FC9DF8288071
:100C1000684B1A78A8F17D006949885401321A702E
:100C200001E04FF000080AA8002140220CF01EFA53
:100C30000AA8494603F0E2F99DF82830002B00F09D
:100C40009D80672B7BD15A4C23685B6820466149A5
:100C50001F229847204609F0DBFB0AA8494605F009
:100C600085FE814623685B6820465B4909229847D8
:100C7000204609F0CDFBB9F1000F40F30F810DF1D3
:100C800027054D440DF12704DFF824A11027002685
:100C9000504614F8011F3A46334609F0DDFBAC42DA
:100CA000F6D1D3E0504614F8011F3A46334609F016
:100CB000D3FBAC42F6D13E4C204609F0A9FB684676
:100CC0000AA94A4601F000F901F04EFA584480445E
:100CD0002046414609F0FCFB204609F099FB684696
:100CE000414601F0F5F8044601F0BEFA88B9314BEF
:100CF0001B78334A4E21D15413444F225A70542248
:100D00009A705321D970452119715A7100229A7134
:100D100011E0284B1B782178294AD154617813447B
:100D20005970A2789A70E278DA7022791A71627931
:100D30005A7100229A711F4B1A7806321A709DF868
:100D40002830792B0CD1254B1B78BBB9184C236864
:100D50005B682046224918229847204609F058FB34
:100D60009DF82830752B09D11C4B1B7833B9114BDA
:100D70001A7882201249885401321A700C4C236868
:100D80005B682046174919229847204609F040FB26
:100D90000B4B1978002900F0A3801D4623681B68BF
:100DA0002046984715F8011F0029F7D198E000BFA9
:100DB0008CA8FF1FD896FF1F2C0E0100A00D01006C
:100DC000F096FF1F4C0E0100540E0100CC0D0100E7
:100DD000740E0100940E0100740D0100789AFF1F3B
:100DE000B40E0100D00E01000AA83F4952463F4B05
:100DF0001B7804F0DFFB3E4C23685B6820463D49CE
:100E00000B229847204609F003FB0DF127040AEB5B
:100E10000408374F1026002581E50AA832495246BA
:100E2000324B1B7804F0C6FB314C23685B682046CC
:100E300030490B229847204609F0EAFA0DF12704C1
:100E40000AEB04082A4F102600255BE6284C2046B2
:100E500009F0DEFA23685B6820462749122298478A
:100E60002046494609F034FB204609F0D1FA0AA889
:100E70001D494A461D4B1B7804F09CFB23685B68A8
:100E800020461C490B229847204609F0C1FA0DF173
:100E90002704DFF85CA01027002603E7144C204647
:100EA00009F0B6FA23685B68204613491222984776
:100EB0002046494609F00CFB204609F0A9FA0AA889
:100EC00009494A46094B1B7804F074FB23685B68A8
:100ED000204608490B229847204609F099FAEAE68D
:100EE0001BB0BDE8F08F00BFF096FF1FD896FF1F24
:100EF0008CA8FF1FEC0E0100F80E010038B5144B52
:100F00001B7873B9134C2368134D5B682046294640
:100F10002D229847204609F07BFA284604F056FB1C
:100F200038BD0E4B1878002109F086F90C4B1A6871
:100F30000C4B1A600C4B1B781BB10C4B18682438F7
:100F400002E00A4B18683038FFF78AFC38BD00BF52
:100F5000A099FF1F8CA8FF1F0C0F0100FC9DFF1F15
:100F60006CA8FF1FCC96FF1F789AFF1FB496FF1F37
:100F700038B5144B1B7873B9134C2368134D5B6859
:100F8000204629462D229847204609F041FA284656
:100F900004F01CFB38BD0E4B1878002109F04CF909
:100FA0000C4B1A680C4B1A600C4B1B781BB10C4B8A
:100FB0001868243802E00A4B186830380630FFF70A
:100FC0004FFC38BDA099FF1F8CA8FF1F0C0F01001C
:100FD000FC9DFF1F6CA8FF1FCC96FF1F789AFF1F78
:100FE000B496FF1F30B583B004468A4B1B782BB9EB
:100FF000894B1878012109F01FF904E0864B187815
:10100000002109F019F9854B1B68022B0EDD84487D
:1010100003685B68834959229847834D0524284615
:1010200004F0D4FA204604F0FFF9F8E77F4B1B7870
:101030003BB301A801F05CF99DF804300133DBB249
:101040008DF804300A2B16D9754C23685B6820464E
:1010500077491B229847204609F0DAF920469DF887
:1010600004100A22002309F0F7F9204609F0D0F90C
:1010700004F064FDCBE001A801F042F900226B4BC3
:101080001A706C486C4B197800F01EFC614B1B7891
:1010900043B9684800F046FC20B9664800F024FDDA
:1010A000002863D05B4B1B78E3B9002001F028F9DE
:1010B000604800F017FC614C204604F087FA58485D
:1010C0002146FFF789FA5E4B1B781BB907F062FADD
:1010D00006F0D2FC5B4B1A685B4B1A6001224D4B49
:1010E0001A7094E0594B1B68002B2BD0032B0BDCA0
:1010F0004B4C20465649FFF761FA4F4B1968204682
:101100003039FFF77BFA82E0062B0BDC444C20469B
:101110005049FFF753FA484B196820463039FFF71A
:101120006DFA74E0464B1B78002B70D13C4C204686
:101130004949FFF743FA404B196820463039FFF719
:101140005DFA64E00022454B1A700A2C5CDCFFF764
:10115000D5FE424A424B1A60424C2046424900F0BA
:1011600045FB2046414900F053FB50E0314800F078
:1011700077FC30B12A483E49FFF72EFA04F0DEFC36
:1011800045E03C4B1B68092B17DC254C20463049B9
:10119000FFF714FA284B196820463039FFF72EFA6A
:1011A00020463549FFF70AFA324D20462968FFF7F5
:1011B00025FA2B6801332B6029E001251B4B1D709C
:1011C000164B1A682A441A60032004F02DF9144CB7
:1011D00020462A49FFF7F2F901A801F089F89DF8A5
:1011E00004102046C1F10A0109F072F92046244991
:1011F000FFF7F2F920462349FFF7EEF90D4800F01A
:1012000071FB1C4B1D6002E0FFF7B2FEA1E703B0CB
:1012100030BD00BFDC99FF1FFC9DFF1FEC96FF1F38
:101220008CA8FF1F3C0F0100980F01008C8CFF1F42
:10123000F80F0100009EFF1FB496FF1F141001005D
:10124000789AFF1F6CA8FF1FCC96FF1F3C9EFF1FC4
:10125000201001003810010054100100F096FF1F0B
:10126000D496FF1F7897FF1FBC96FF1FDC96FF1FC9
:1012700070100100848CFF1F8C100100B810010059
:10128000D41001000C11010038B5714B1B78A3B1CB
:1012900006F06AFE6F4B1B78E3B16F4B19686F4B1A
:1012A0001B786F4A02FB03F26E4B1B68CB1A9A4203
:1012B00010D80022664B1A700CE0674B1A686A4B14
:1012C0001B68D31AB3F57A7F04D3624B1B78002BCB
:1012D00040F0A98004F0C6F8644B1A6840F2DC5371
:1012E0009A420CD90023624A1360624A1360624B2F
:1012F0001A6801321A603522604B1A607FE0604B39
:101300001A6840F2DC539A420CD90023584A136001
:10131000584A1360584B1A6801321A603222574BF0
:101320001A606CE0574B1A6840F2DC539A420CD9B1
:1013300000234F4A13604F4A13604F4B1A68013223
:101340001A6031224D4B1A6059E04F4B1A6840F237
:10135000DC539A420CD90023454A1360454A136076
:10136000454B1A6801321A603322444B1A6046E03A
:10137000464B1A6840F2DC539A420CD900233C4A8F
:1013800013603C4A13603C4B1A6801321A603422E5
:101390003A4B1A6033E03E4B1A6840F2DC539A42F3
:1013A0000CD90023324A1360324A1360324B1A6858
:1013B00001321A603622314B1A6020E02E4B1C6835
:1013C00020460BF019FA4FF07C510BF0D5FA08B11A
:1013D000284B1C600022284B1A60254B1A680132EA
:1013E0001A601B4B1B782BB92A4B1878002108F088
:1013F00023FF04E0274B1878012108F01DFF1D4B47
:101400001C68002C23DD1A4B18680BF0F5F94FF01F
:101410007C510BF0B1FAD0B12046FFF7E3FD00227A
:10142000144B1A6038BD1C4D284604F0CFF81B4CF5
:1014300023685B68204629460B229847204608F01F
:10144000E7FF094B1A6802F57A721A6042E738BD65
:10145000DC99FF1FA099FF1F6CA8FF1F888CFF1F3E
:10146000A0BB0D00CC96FF1F7497FF1F9C99FF1F18
:10147000B096FF1FD096FF1FB896FF1FB496FF1FB0
:10148000D899FF1FA499FF1FA899FF1FAC99FF1FB0
:10149000B099FF1FFC9DFF1FDC0C01008CA8FF1FF3
:1014A00008B507F0B1FF09486421094A00F0F6F9D0
:1014B00008483221084A00F0F1F9084B1968084A37
:1014C00011601A68074B1A6008BD00BFBC96FF1F69
:1014D00089120000DC96FF1F650400006CA8FF1F46
:1014E0007497FF1FCC96FF1F2DE9F00FCAB0019033
:1014F0000A460023D078CC5C40EA0460547840EA85
:101500000440947840EA042003F128056C462851F1
:1015100004330432402BEDD10AAB0022986B59689A
:101520005D6A02F128076E46BC592C444FEA7045AB
:1015300085EAF04585EA902020444FEAF11484EAD8
:10154000B14484EAD1010144196404320433C02A4D
:10155000E4D10199096D0291019A526D0392019BA8
:101560009B6D0493019CE46D0594019D2D6E069581
:10157000019E766E0796019FBF6E08970199C96E0E
:10158000099189463D46B446069BA04604981446F8
:10159000029A0021DFF8A8A001F1280B6F465BF842
:1015A000076051F80A7037444FEAB31686EAF3260B
:1015B00086EA7366374425EA03060CEA030B86EADB
:1015C0000B063E444E4480EA0407174000EA040933
:1015D00087EA09074FEAB20989EA723989EAB259FA
:1015E0004F44B0443E440431B1F5807F08D0A94651
:1015F00065469C4643468046204614463246CBE725
:1016000002990E44019F3E6503990A447A65049A43
:101610001444BC65059C2044F865069A42443A6629
:10162000079E33447B66089B6344BB66099F3D4429
:10163000DDF804B0CBF86C504AB0BDE8F00F70474D
:101640004C1101000023036400220023C0E912238F
:101650000A4B03650A4B43650A4B83650A4BC36516
:101660000A4B03660A4B43660A4B836603F17453C5
:10167000A3F52303A3F69243C366704767E6096A9E
:1016800085AE67BB72F36E3C3AF54FA57F520E51A3
:101690008C68059BABD9831F2DE9F843064690461D
:1016A000DAB10F4688444FF00009336C17F8012B6C
:1016B000F25401333364402B0DD130463146FFF7ED
:1016C00013FFD6E9124514F5007445F10005C6E98B
:1016D0001245C6F840904745E7D1BDE8F88300BF02
:1016E0002DE9F84F80468946026C372A0CD8531CE6
:1016F00080218154372B1CD802440021013302F889
:10170000011F382BFAD114E0531C802181543F2B48
:1017100006D802440021013302F8011F402BFAD100
:1017200040464146FFF7E0FE4046002138220BF0DC
:101730009DFCD8F84030D900D8E91223521843F163
:101740000003C8E9122388F83F20100A40EA03602A
:10175000190A88F83E00160C46EA03461F0C88F862
:101760003D60140E44EA03241D0E88F83C4088F8BE
:101770003B3088F83A1088F8397088F8385040467D
:101780004146FFF7B1FE0322D300D8F85010D940EC
:1017900089F80010D8F85410D94089F80410D8F806
:1017A0005810D94089F80810D8F85C10D94089F849
:1017B0000C10D8F86010D94089F81010D8F86410CF
:1017C000D94089F81410D8F86810D94089F8181051
:1017D000D8F86C1021FA03F389F81C30013A09F1AA
:1017E0000109B2F1FF3FCFD1BDE8F88F026872B1B5
:1017F0008A4209D1D36803607047994201D01A46E2
:1018000002E0CB68D3607047D368002BF5D17047F6
:1018100038B505460C46FFF7E9FF2A680AB92C607F
:1018200004E0D3680BB11A46FBE7D46008F04AFD28
:101830002368C01A60600023E36038BD38B50C46E9
:1018400008F040FD0546626823681344984205D3BA
:101850006268934208D26268904205D362689542FA
:1018600006D26268934203D3A36820469847656016
:1018700038BD00BF38B50546046834B12846214656
:10188000FFF7DCFFE468002CF8D138BD08B502484A
:10189000FFF7F0FF08BD00BF7897FF1F10B44FF4AB
:1018A0007A7404FB01F10160826000224260C26030
:1018B0005DF8044B704700BF0161002202730270A3
:1018C000704700BF01617047037B0B2B07D05A1C88
:1018D000D2B20273C1540023835401207047002008
:1018E000704700BF002303730370704710B4016991
:1018F0000A78047800237AB9D4F1010038BF0020B7
:101900000DE011F8012F10F8014F01330B2BF2D12C
:10191000002004E0002002E0A242F2D0FAE75DF8E5
:10192000044B70472DE9F0479CB006460024DFF8D1
:1019300014810546335D04F80830013428460BF065
:1019400001FE8442F6D96846FFF77CFE28460BF07C
:10195000F9FD024668463B49FFF79EFE3A48036898
:101960005B683A490B229847394B5C1E03F11F080C
:10197000354F10260025384614F8011F32462B46F5
:1019800008F06AFD4445F6D12F4C204608F040FD92
:1019900068462F492022FFF77FFEDFF8A8906846AF
:1019A0004946FFF79DFE23685B68204629490D22C2
:1019B000984709F1FF3409F11F08234F102600252D
:1019C000384614F8011F32462B4608F045FD4445C1
:1019D000F6D11D4C204608F01BFD23685B682046AD
:1019E0001D4909229847DFF874A00AF1FF340AF173
:1019F0001F08154F10260025384614F8011F3246DF
:101A00002B4608F029FD4445F6D10F4808F000FDAB
:101A1000124B19780B4B1A780AF11E00534604E05A
:101A2000914214BF0020012009E0914206D113F831
:101A3000011F19F8012F8342F7D1F1E700201CB0F4
:101A4000BDE8F087FC97FF1F8CA8FF1F4C12010018
:101A50007C97FF1F5812010068120100BC97FF1FFE
:101A60002DE9F8431C4C204608F0D2FC23685B6843
:101A700020461A490C229847DFF8649009F1FF3498
:101A800009F11F08144F10260025384614F8011FCD
:101A900032462B4608F0E0FC4445F6D10E4808F0EB
:101AA000B7FC0F4B1A780F48017809F11E044B461A
:101AB00005E08A4214BF00200120BDE8F8838A4275
:101AC00006D113F8012F10F8011FA342F7D1F0E758
:101AD0000020BDE8F88300BF8CA8FF1F741201002E
:101AE000DC97FF1FFC97FF1F2DE9F8431E4C204693
:101AF00008F08EFC23685B6820461C490C2298473E
:101B0000DFF86C9009F1FF3409F11F08164F102619
:101B10000025384614F8011F32462B4608F09CFC7D
:101B20004445F6D1104808F073FC114B1A7811485F
:101B3000017809F11E044B4606E08A420DD10120CE
:101B40000D4B1870BDE8F8838A4209D113F8012FB4
:101B500010F8011FA342F7D1EFE70020BDE8F8839A
:101B60000020BDE8F88300BF8CA8FF1F841201008D
:101B70009C97FF1FFC97FF1F789AFF1F08B507F07F
:101B800043FC08BD70B40546064C0FCCE8642965DB
:101B90006A65AB652068E86500232B6685F84830E8
:101BA00070BC7047908CFF1F2DE9F00F86B0C36C9E
:101BB0000193076D0297436D0393876D0497C36D7F
:101BC00005931E463C460399DDF808C0019D0E2290
:101BD0000023DFF808A1DFF808912CE00F2B24D9AF
:101BE00003F00F0600EB860602F00F0808F102086A
:101BF00050F82880B76887EA0808A2F1050B0BF0B7
:101C00000F0B0BF1020B50F82BB088EA0B08A2F176
:101C10000B0B0BF00F0B0BF1020B50F82BB088EAFB
:101C20000B084FEAF878C6F80880013226460C46C1
:101C30006146AC46009D132B0CD884EA010808EAE3
:101C40000C0888EA040808F1B54808F51E3808F2BF
:101C500099181FE0272B05D884EA010888EA0C08A8
:101C6000C84417E03B2B09D84CEA010808EA0408ED
:101C70000CEA010748EA0708D0440BE084EA0108AF
:101C800088EA0C0808F14A4808F5C50808F58348B1
:101C900008F1560803F00F07023750F8277007EBDA
:101CA000F5674744BE1900964FEABC0C0133DBB21E
:101CB000502B93D1019B3344C364029B1D440565A3
:101CC000039B63444365049F39448165059B1C4421
:101CD000C46506B0BDE8F00F704700BFDCBC1B8FC9
:101CE000A1EBD96E10B5044690F8483083F003029A
:101CF000024411720133DBB280F84830402B04D12A
:101D0000FFF752FF002384F8483010BD08B5026E7B
:101D100001320266FFF7E6FF012008BD38B5044630
:101D20008021FFF7DFFF94F84830382B08D00025DA
:101D300020462946FFF7D6FF94F84830382BF7D1D4
:101D400020460021FFF7CEFF20460021FFF7CAFF03
:101D500020460021FFF7C6FF216E2046490FFFF7FE
:101D6000C1FF216E2046C1F34751FFF7BBFF216E33
:101D70002046C1F34731FFF7B5FF216E2046C1F37E
:101D80004711FFF7AFFF236ED900204601F0F8019D
:101D9000FFF7A8FF38BD00BF38B50546FFF7BEFF07
:101DA0002A460021D36C1C0E44EA0364180200F496
:101DB0007F0004431B0A03F47F432343D3640131B0
:101DC00004320529EED105F14C0038BDF8B50546C1
:101DD0000C46164600F164073846002140220BF0FD
:101DE00045F9402E1ADD2846FFF7CCFE46B12644C1
:101DF0002B681B68284614F8011B9847B442F7D19A
:101E00002846FFF7C9FF036844688168C2686B66AB
:101E10007C60B960FA6003693B6104E038462146A2
:101E2000324606F097FF2846FFF7ACFE05F1630443
:101E300005F1A3062B6814F8011F1B68284681F0E2
:101E400036019847B442F5D1F8BD00BF70B50546DC
:101E5000FFF7A2FF026846688468C168C5F8A4203D
:101E6000C5F8A860C5F8AC40C5F8B0100269C5F85F
:101E7000B4202846FFF786FE05F1630405F1A306AA
:101E80002B6814F8011F1B68284681F05C019847F5
:101E9000B442F5D105F114062C462B681B68284680
:101EA00094F8A41098470134B442F6D12846FFF7BD
:101EB00073FF70BD024B00221A71024A1A6070470C
:101EC0001C98FF1FA012010001604260704700BF14
:101ED00070B50446224B83FB01230B44C917C1EBA9
:101EE000231181600025057345738573C5730B0E3F
:101EF00003740B1443740B128374C174194E30466F
:101F000021686268FFF762FF33685B68304604F15E
:101F10000C01082298473046FFF798FF6061C27CA9
:101F200002F00F02A261E5612B461044E269120241
:101F3000E261C15C0A43E2610133042BF6D122F075
:101F40000043094A82FB03129214084901FB123232
:101F5000E2612034204606490BF0CEFA204670BDDF
:101F6000898888881C98FF1F83DE1B4340420F002E
:101F7000A81201002DE9F00F5B4BA3FB00425209B0
:101F8000C2EB0214A0EB84000870A3FB02A35B0960
:101F9000C3EB0310A2EB80024A70544CA4FB03086D
:101FA0004FEA181808EB4802A3EBC2038B704746B0
:101FB00008F104004E4AA0FB0223C21A03EB5203AD
:101FC0009B08C3EBC303C01A0130C870002002464F
:101FD00040F26D1C474C4FF064094FF4B77BC5B21B
:101FE00005F2B273ABB113F0030F14D184FB03A657
:101FF000761109FB163686B984FB03A6F6114FF459
:10200000C87A06FB1A36002E0CBF4FF4B776664628
:1020100004E0664602E0664600E05E463244013077
:102020009742DCD28D71CBB113F0030F19D1314837
:1020300080FB03404011642404FB1030A0B92D48FC
:1020400080FB03A0C0114FF4C87400FB14300028BB
:1020500040F26D1408BF4FF4B77407E040F26D14FE
:1020600004E040F26D1401E04FF4B774121BC2EBB0
:102070000804204F87FB03074FEA671C642202FB1A
:102080001C3CFF114FF4C87202FB173700221A4E96
:102090004FF01C0803F0030A4FF01D09D0B20128CD
:1020A0000BD163B1BAF1000F0BD1BCF1000F0AD113
:1020B000002F0CBF1D251C2506E0955D04E045465C
:1020C00002E0454600E04D46A54205D8641B0130BC
:1020D000C0B201320C2AE1D10130487101340C71D7
:1020E000BDE8F00F704700BF89888888ABAAAAAA0C
:1020F000254992241F85EB51B012010010B504460A
:10210000044B1B68984204D00349FFF733FF014B8F
:102110001C6010BDD498FF1FD898FF1F08B5FFF7AB
:10212000EDFF024B987900F2B27008BDD898FF1FFE
:10213000074B1860074B1B681844074B18600222B6
:10214000064B1A70064B1A68064B1A60704700BFA0
:10215000E098FF1FA48CFF1FF098FF1FE498FF1F5B
:102160006CA8FF1FEC98FF1F10B51C4B1A681C4B86
:102170001B68D21AB2F57A7F11D31A4A126801325B
:10218000164C03F57A732168501CC91AB1F57A7F91
:1021900001D30246F5E713490A60114A1360124B56
:1021A0001A68104B1B689A4214D8104B1B688BB1ED
:1021B000984710B1FFF7BCFF0CE00D4B1A68094BB4
:1021C0001B681A44084B1A600A4B1A78003218BF71
:1021D00001221A70034B186810BD00BF6CA8FF1FC6
:1021E000EC98FF1FE098FF1FF098FF1FE898FF1F73
:1021F000A48CFF1FE498FF1F08B5FFF7B5FFFFF79A
:102200007DFF014B987808BDD898FF1F08B5FFF7F0
:10221000ABFFFFF773FF014B587808BDD898FF1F3D
:1022200008B5FFF7A1FFFFF769FF014B187808BD5C
:10223000D898FF1F08B5FFF797FFFFF75FFF014B27
:10224000187908BDD898FF1F08B5FFF78DFFFFF775
:1022500055FF014B587908BDD898FF1F08B5FFF707
:1022600083FFFFF75BFF08BD08B5FFF77DFF014B5C
:10227000187808BDE498FF1F70B516464AB10E44A1
:102280000C46451A204607F0F9F828550134B442A7
:10229000F8D170BD70B5154642B10C46461A2046BD
:1022A000315D07F0FFF80134013DF8D170BD00BF8A
:1022B00008B540F2D9710122FFF7DEFF012008BD09
:1022C00008B540F2D9710122FFF7E4FF08BD00BF55
:1022D00008B540F2DA710122FFF7CEFF012008BDF8
:1022E00008B540F2DA710122FFF7D4FF08BD00BF44
:1022F00008B540F2DB710122FFF7BEFF012008BDE7
:1023000008B540F2DB710122FFF7C4FF08BD00BF32
:1023100008B540F2D5710222FFF7AEFF022008BDDA
:1023200008B540F2D5710222FFF7B4FF08BD00BF27
:1023300008B540F2D7710222FFF79EFF022008BDC8
:1023400008B540F2D7710222FFF7A4FF08BD00BF15
:1023500008B54FF4FA610122FFF79CFF08BD00BFEA
:1023600008B540F2D1710122FFF794FF08BD00BF0C
:1023700008B540F2D2710122FFF78CFF08BD00BF03
:1023800008B540F2D3710122FFF784FF08BD00BFFA
:1023900008B54FF4EB610122FFF76EFF012008BD85
:1023A00008B54FF4EB610122FFF774FF08BD00BFD1
:1023B00008B540F259710122FFF75EFF012008BD08
:1023C00008B540F259710122FFF764FF08BD00BF54
:1023D00008B540F25A710122FFF74EFF012008BDF7
:1023E00008B540F25A710122FFF754FF08BD00BF43
:1023F00008B540F25B710122FFF73EFF012008BDE6
:1024000008B540F25B710122FFF744FF08BD00BF31
:1024100008B540F25C710122FFF72EFF012008BDD4
:1024200008B540F25C710122FFF734FF08BD00BF20
:1024300008B540F25D710122FFF71EFF012008BDC3
:1024400008B540F25D710122FFF724FF08BD00BF0F
:1024500008B540F25E710122FFF70EFF012008BDB2
:1024600008B540F25E710122FFF714FF08BD00BFFE
:1024700008B540F25F710122FFF7FEFE012008BDA2
:1024800008B540F25F710122FFF704FF08BD00BFED
:1024900008B54FF4EC610122FFF7EEFE012008BD04
:1024A00008B54FF4EC610122FFF7F4FE08BD00BF50
:1024B00008B540F261710122FFF7DEFE012008BD80
:1024C00008B540F261710122FFF7E4FE08BD00BFCC
:1024D00008B540F262710122FFF7CEFE012008BD6F
:1024E00008B540F262710122FFF7D4FE08BD00BFBB
:1024F00008B540F263710122FFF7BEFE012008BD5E
:1025000008B540F263710122FFF7C4FE08BD00BFA9
:1025100008B540F264710122FFF7AEFE012008BD4C
:1025200008B540F264710122FFF7B4FE08BD00BF98
:1025300008B540F265710122FFF79EFE012008BD3B
:1025400008B540F265710122FFF7A4FE08BD00BF87
:1025500008B540F266710122FFF78EFE012008BD2A
:1025600008B540F266710122FFF794FE08BD00BF76
:1025700008B540F267710122FFF77EFE012008BD19
:1025800008B540F267710122FFF784FE08BD00BF65
:1025900008B54FF4ED610122FFF76EFE012008BD82
:1025A00008B54FF4ED610122FFF774FE08BD00BFCE
:1025B00008B540F269710122FFF75EFE012008BDF7
:1025C00008B540F269710122FFF764FE08BD00BF43
:1025D00008B540F26A710122FFF74EFE012008BDE6
:1025E00008B540F26A710122FFF754FE08BD00BF32
:1025F00008B540F26B710122FFF73EFE012008BDD5
:1026000008B540F26B710122FFF744FE08BD00BF20
:1026100008B540F26C710122FFF72EFE012008BDC3
:1026200008B540F26C710122FFF734FE08BD00BF0F
:1026300008B540F26D710122FFF71EFE012008BDB2
:1026400008B540F26D710122FFF724FE08BD00BFFE
:1026500008B540F26E710122FFF70EFE012008BDA1
:1026600008B540F26E710122FFF714FE08BD00BFED
:1026700008B540F26F710122FFF7FEFD012008BD91
:1026800008B540F26F710122FFF704FE08BD00BFDC
:1026900008B54FF482610122FFF7EEFD012008BD6D
:1026A00008B54FF482610122FFF7F4FD08BD00BFB9
:1026B00008B540F211410122FFF7DEFD012008BDFF
:1026C00008B540F211410122FFF7E4FD08BD00BF4B
:1026D00008B540F212410122FFF7CEFD012008BDEE
:1026E00008B540F212410122FFF7D4FD08BD00BF3A
:1026F00008B540F213410122FFF7BEFD012008BDDD
:1027000008B540F213410122FFF7C4FD08BD00BF28
:1027100008B540F214410122FFF7AEFD012008BDCB
:1027200008B540F214410122FFF7B4FD08BD00BF17
:1027300008B540F215410122FFF79EFD012008BDBA
:1027400008B540F215410122FFF7A4FD08BD00BF06
:1027500008B540F216410122FFF78EFD012008BDA9
:1027600008B540F216410122FFF794FD08BD00BFF5
:1027700008B540F217410122FFF77EFD012008BD98
:1027800008B540F217410122FFF784FD08BD00BFE4
:1027900008B54FF483610122FFF76EFD012008BDEB
:1027A00008B54FF483610122FFF774FD08BD00BF37
:1027B00008B540F219410122FFF75EFD012008BD76
:1027C00008B540F219410122FFF764FD08BD00BFC2
:1027D00008B540F21A410122FFF74EFD012008BD65
:1027E00008B540F21A410122FFF754FD08BD00BFB1
:1027F00008B540F21B410122FFF73EFD012008BD54
:1028000008B540F21B410122FFF744FD08BD00BF9F
:1028100008B540F21C410122FFF72EFD012008BD42
:1028200008B540F21C410122FFF734FD08BD00BF8E
:1028300008B540F21D410122FFF71EFD012008BD31
:1028400008B540F21D410122FFF724FD08BD00BF7D
:1028500008B540F21E410122FFF70EFD012008BD20
:1028600008B540F21E410122FFF714FD08BD00BF6C
:1028700008B540F21F410122FFF7FEFC012008BD10
:1028800008B540F21F410122FFF704FD08BD00BF5B
:1028900008B54FF484610122FFF7EEFC012008BD6A
:1028A00008B54FF484610122FFF7F4FC08BD00BFB6
:1028B00008B540F221410122FFF7DEFC012008BDEE
:1028C00008B540F221410122FFF7E4FC08BD00BF3A
:1028D00008B540F222410122FFF7CEFC012008BDDD
:1028E00008B540F222410122FFF7D4FC08BD00BF29
:1028F00008B540F223410122FFF7BEFC012008BDCC
:1029000008B540F223410122FFF7C4FC08BD00BF17
:1029100008B540F224410122FFF7AEFC012008BDBA
:1029200008B540F224410122FFF7B4FC08BD00BF06
:1029300008B540F225410122FFF79EFC012008BDA9
:1029400008B540F225410122FFF7A4FC08BD00BFF5
:1029500008B540F226410122FFF78EFC012008BD98
:1029600008B540F226410122FFF794FC08BD00BFE4
:1029700008B540F227410122FFF77EFC012008BD87
:1029800008B540F227410122FFF784FC08BD00BFD3
:1029900008B54FF4F7610122FFF76EFC012008BD76
:1029A00008B54FF4F7610122FFF774FC08BD00BFC2
:1029B00008B540F2B9710122FFF75EFC012008BDA5
:1029C00008B540F2B9710122FFF764FC08BD00BFF1
:1029D00008B540F2BA710122FFF74EFC012008BD94
:1029E00008B540F2BA710122FFF754FC08BD00BFE0
:1029F00008B540F2BB710122FFF73EFC012008BD83
:102A000008B540F2BB710122FFF744FC08BD00BFCE
:102A100008B540F2BC710122FFF72EFC012008BD71
:102A200008B540F2BC710122FFF734FC08BD00BFBD
:102A300008B540F2BD710122FFF71EFC012008BD60
:102A400008B540F2BD710122FFF724FC08BD00BFAC
:102A500008B540F2BE710122FFF70EFC012008BD4F
:102A600008B540F2BE710122FFF714FC08BD00BF9B
:102A700008B540F2BF710122FFF7FEFB012008BD3F
:102A800008B540F2BF710122FFF704FC08BD00BF8A
:102A900008B54FF4F8610122FFF7EEFB012008BDF5
:102AA00008B54FF4F8610122FFF7F4FB08BD00BF41
:102AB00008B540F2C1710122FFF7DEFB012008BD1D
:102AC00008B540F2C1710122FFF7E4FB08BD00BF69
:102AD00008B540F2C2710122FFF7CEFB012008BD0C
:102AE00008B540F2C2710122FFF7D4FB08BD00BF58
:102AF00008B540F2C3710122FFF7BEFB012008BDFB
:102B000008B540F2C3710122FFF7C4FB08BD00BF46
:102B100008B540F2C4710122FFF7AEFB012008BDE9
:102B200008B540F2C4710122FFF7B4FB08BD00BF35
:102B300008B540F2C5710122FFF79EFB012008BDD8
:102B400008B540F2C5710122FFF7A4FB08BD00BF24
:102B500008B540F2C6710122FFF78EFB012008BDC7
:102B600008B540F2C6710122FFF794FB08BD00BF13
:102B700008B540F2C7710122FFF77EFB012008BDB6
:102B800008B540F2C7710122FFF784FB08BD00BF02
:102B900008B54FF4F9610122FFF76EFB012008BD73
:102BA00008B54FF4F9610122FFF774FB08BD00BFBF
:102BB00008B540F2C9710122FFF75EFB012008BD94
:102BC00008B540F2C9710122FFF764FB08BD00BFE0
:102BD00008B540F2CA710122FFF74EFB012008BD83
:102BE00008B540F2CA710122FFF754FB08BD00BFCF
:102BF00008B540F2CB710122FFF73EFB012008BD72
:102C000008B540F2CB710122FFF744FB08BD00BFBD
:102C100008B540F2CC710122FFF72EFB012008BD60
:102C200008B540F2CC710122FFF734FB08BD00BFAC
:102C300008B540F2CD710122FFF71EFB012008BD4F
:102C400008B540F2CD710122FFF724FB08BD00BF9B
:102C500008B540F2CE710122FFF70EFB012008BD3E
:102C600008B540F2CE710122FFF714FB08BD00BF8A
:102C700008B540F2CF710122FFF7FEFA012008BD2E
:102C800008B540F2CF710122FFF704FB08BD00BF79
:102C900010B582B00C4602211022FFF7FBFA102C6F
:102CA000A8BF102402A800F8014DFFF751FB02B0A5
:102CB00010BD00BF00B583B01E210222FFF7EAFA63
:102CC00002A8022300F8013DFFF74AFB03B05DF8BC
:102CD00004FB00BF00B583B018210622FFF7DAFA23
:102CE00002A8062300F8013DFFF742FB03B05DF8A0
:102CF00004FB00BF10B582B00C4612210622FFF77C
:102D0000C9FA062CA8BF062402A800F8014DFFF757
:102D100037FB02B010BD00BF30B583B004460139A7
:102D2000172900F2B281DFE811F0180029003A00FB
:102D30004B005C006D007E008F00A000B100C2005F
:102D4000D300E400F50006011701280139014A010A
:102D50005B016C017D018E019F010DF10700FFF702
:102D600017FB9DF80750202DA8BF202520464FF4C3
:102D70008B612022FFF780FA284686E10DF10700DB
:102D8000FFF716FB9DF80750202DA8BF20252046F1
:102D90004FF48F612022FFF76FFA284675E10DF19D
:102DA0000700FFF715FB9DF80750202DA8BF202531
:102DB00020464FF493612022FFF75EFA284664E133
:102DC0000DF10700FFF714FB9DF80750202DA8BF59
:102DD000202520464FF497612022FFF74DFA284620
:102DE00053E10DF10700FFF713FB9DF80750202D6D
:102DF000A8BF202520464FF49B612022FFF73CFA14
:102E0000284642E10DF10700FFF712FB9DF807503D
:102E1000202DA8BF202520464FF49F612022FFF7D8
:102E20002BFA284631E10DF10700FFF711FB9DF861
:102E30000750202DA8BF202520464FF4A361202253
:102E4000FFF71AFA284620E10DF10700FFF710FB03
:102E50009DF80750202DA8BF202520464FF4A761DC
:102E60002022FFF709FA28460FE10DF10700FFF7CE
:102E70000FFB9DF80750202DA8BF202520464FF4BA
:102E8000AB612022FFF7F8F92846FEE00DF10700BC
:102E9000FFF70EFB9DF80750202DA8BF20252046E8
:102EA0004FF4AF612022FFF7E7F92846EDE00DF17E
:102EB0000700FFF70DFB9DF80750202DA8BF202528
:102EC00020464FF4B3612022FFF7D6F92846DCE014
:102ED0000DF10700FFF70CFB9DF80750202DA8BF50
:102EE000202520464FF4B7612022FFF7C5F9284678
:102EF000CBE00DF10700FFF70BFB9DF80750202DED
:102F0000A8BF202520464FF4BB612022FFF7B4F96B
:102F10002846BAE00DF10700FFF70AFB9DF80750BD
:102F2000202DA8BF202520464FF4BF612022FFF7A7
:102F3000A3F92846A9E00DF10700FFF709FB9DF86A
:102F40000750202DA8BF202520464FF4C361202222
:102F5000FFF792F9284698E00DF10700FFF708FB0C
:102F60009DF80750202DA8BF202520464FF4C761AB
:102F70002022FFF781F9284687E00DF10700FFF7CF
:102F800007FB9DF80750202DA8BF202520464FF4B1
:102F9000CB612022FFF770F9284676E00DF107009B
:102FA000FFF706FB9DF80750202DA8BF20252046DF
:102FB0004FF4CF612022FFF75FF9284665E00DF15D
:102FC0000700FFF705FB9DF80750202DA8BF20251F
:102FD00020464FF4D3612022FFF74EF9284654E0F3
:102FE0000DF10700FFF704FB9DF80750202DA8BF47
:102FF000202520464FF4D7612022FFF73DF92846CF
:1030000043E00DF10700FFF703FB9DF80750202D6B
:10301000A8BF202520464FF4DB612022FFF72CF9C2
:10302000284632E00DF10700FFF702FB9DF807503C
:10303000202DA8BF202520464FF4DF612022FFF776
:103040001BF9284621E00DF10700FFF701FB9DF871
:103050000750202DA8BF202520464FF4E3612022F1
:10306000FFF70AF9284610E00DF10700FFF700FB13
:103070009DF80750202DA8BF202520464FF4E7617A
:103080002022FFF7F9F82846FFE703B030BD00BF64
:1030900010B582B00C46013A172A00F26981DFE8C8
:1030A00012F0180026003400420050005E006C0050
:1030B0007A0088009600A400B200C000CE00DC00B8
:1030C000EA00F80006011401220130013E014C0122
:1030D0005A014FF48B612022FFF7DCF8202CA8BFA7
:1030E000202402A800F8014DFFF75AF940E14FF4FF
:1030F0008F612022FFF7CEF8202CA8BF202402A841
:1031000000F8014DFFF75CF932E14FF493612022A2
:10311000FFF7C0F8202CA8BF202402A800F8014D1A
:10312000FFF75EF924E14FF497612022FFF7B2F830
:10313000202CA8BF202402A800F8014DFFF760F959
:1031400016E14FF49B612022FFF7A4F8202CA8BFC2
:10315000202402A800F8014DFFF762F908E14FF4BE
:103160009F612022FFF796F8202CA8BF202402A8F8
:1031700000F8014DFFF764F9FAE04FF4A361202253
:10318000FFF788F8202CA8BF202402A800F8014DE2
:10319000FFF766F9ECE04FF4A7612022FFF77AF819
:1031A000202CA8BF202402A800F8014DFFF768F9E1
:1031B000DEE04FF4AB612022FFF76CF8202CA8BFB3
:1031C000202402A800F8014DFFF76AF9D0E04FF47F
:1031D000AF612022FFF75EF8202CA8BF202402A8B0
:1031E00000F8014DFFF76CF9C2E04FF4B361202203
:1031F000FFF750F8202CA8BF202402A800F8014DAA
:10320000FFF76EF9B4E04FF4B7612022FFF742F800
:10321000202CA8BF202402A800F8014DFFF770F968
:10322000A6E04FF4BB612022FFF734F8202CA8BFA2
:10323000202402A800F8014DFFF772F998E04FF43E
:10324000BF612022FFF726F8202CA8BF202402A867
:1032500000F8014DFFF774F98AE04FF4C3612022B2
:10326000FFF718F8202CA8BF202402A800F8014D71
:10327000FFF776F97CE04FF4C7612022FFF70AF8E8
:10328000202CA8BF202402A800F8014DFFF778F9F0
:103290006EE04FF4CB612022FEF7FCFF202CA8BF8C
:1032A000202402A800F8014DFFF77AF960E04FF4FE
:1032B000CF612022FEF7EEFF202CA8BF202402A819
:1032C00000F8014DFFF77CF952E04FF4D361202262
:1032D000FEF7E0FF202CA8BF202402A800F8014D33
:1032E000FFF77EF944E04FF4D7612022FEF7D2FFCA
:1032F000202CA8BF202402A800F8014DFFF780F978
:1033000036E04FF4DB612022FEF7C4FF202CA8BF7B
:10331000202402A800F8014DFFF782F928E04FF4BD
:10332000DF612022FEF7B6FF202CA8BF202402A8D0
:1033300000F8014DFFF784F91AE04FF4E361202211
:10334000FEF7A8FF202CA8BF202402A800F8014DFA
:10335000FFF786F90CE04FF4E7612022FEF79AFFB1
:10336000202CA8BF202402A800F8014DFFF788F9FF
:1033700002B010BD08B50139172900F28780DFE8D7
:1033800001F00C11161B20252A2F34393E43484DDD
:1033900052575C61666B70757A7F20210A22FEF7B6
:1033A0006BFF74E02A210A22FEF766FF6FE03421EA
:1033B0000A22FEF761FF6AE03E210A22FEF75CFF67
:1033C00065E048210A22FEF757FF60E052210A22F9
:1033D000FEF752FF5BE05C210A22FEF74DFF56E04C
:1033E00066210A22FEF748FF51E070210A22FEF70B
:1033F00043FF4CE07A210A22FEF73EFF47E084219A
:103400000A22FEF739FF42E08E210A22FEF734FF3E
:103410003DE098210A22FEF72FFF38E0A2210A2280
:10342000FEF72AFF33E0AC210A22FEF725FF2EE04B
:10343000B6210A22FEF720FF29E0C0210A22FEF76A
:103440001BFF24E0CA210A22FEF716FF1FE0D42149
:103450000A22FEF711FF1AE0DE210A22FEF70CFF16
:1034600015E0E8210A22FEF707FF10E0F2210A2208
:10347000FEF702FF0BE0FC210A22FEF7FDFE06E04C
:103480004FF483710A22FEF7F7FE00E008BD0A2020
:1034900008BD00BF08B5013A172A00F28680DFE8B0
:1034A00002F00C11161B20252A2F34393E43484DBB
:1034B00052575C61666B70757A7F20210A22FEF795
:1034C000E9FE08BD2A210A22FEF7E4FE08BD3421E8
:1034D0000A22FEF7DFFE08BD3E210A22FEF7DAFED1
:1034E00008BD48210A22FEF7D5FE08BD52210A2256
:1034F000FEF7D0FE08BD5C210A22FEF7CBFE08BD18
:1035000066210A22FEF7C6FE08BD70210A22FEF7D8
:10351000C1FE08BD7A210A22FEF7BCFE08BD842147
:103520000A22FEF7B7FE08BD8E210A22FEF7B2FE80
:1035300008BD98210A22FEF7ADFE08BDA2210A228D
:10354000FEF7A8FE08BDAC210A22FEF7A3FE08BDC7
:10355000B6210A22FEF79EFE08BDC0210A22FEF710
:1035600099FE08BDCA210A22FEF794FE08BDD421A7
:103570000A22FEF78FFE08BDDE210A22FEF78AFE30
:1035800008BDE8210A22FEF785FE08BDF2210A22C5
:10359000FEF780FE08BDFC210A22FEF77BFE08BD77
:1035A0004FF483710A22FEF775FE08BD08B5013994
:1035B000172900F29E80DFE801F00C12181E242A61
:1035C00030363C42484E545A60666C72787E848A2B
:1035D00090964FF485610122FEF74EFE8AE040F29C
:1035E00029410122FEF748FE84E040F22A410122EF
:1035F000FEF742FE7EE040F22B410122FEF73CFE48
:1036000078E040F22C410122FEF736FE72E040F2F3
:103610002D410122FEF730FE6CE040F22E410122E6
:10362000FEF72AFE66E040F22F410122FEF724FE5B
:1036300060E04FF486610122FEF71EFE5AE040F280
:1036400031410122FEF718FE54E040F232410122DE
:10365000FEF712FE4EE040F233410122FEF70CFE6F
:1036600048E040F234410122FEF706FE42E040F21B
:1036700035410122FEF700FE3CE040F236410122D6
:10368000FEF7FAFD36E040F237410122FEF7F4FD85
:1036900030E04FF487610122FEF7EEFD2AE040F2B0
:1036A00039410122FEF7E8FD24E040F23A410122CF
:1036B000FEF7E2FD1EE040F23B410122FEF7DCFD99
:1036C00018E040F23C410122FEF7D6FD12E040F244
:1036D0003D410122FEF7D0FD0CE040F23E410122C7
:1036E000FEF7CAFD06E040F23F410122FEF7C4FDAD
:1036F00000E008BD012008BD08B50139172900F216
:103700009D80DFE801F00C12181E242A30363C425E
:10371000484E545A60666C72787E848A90964FF454
:1037200085610122FEF7B6FD08BD40F22941012264
:10373000FEF7B0FD08BD40F22A410122FEF7AAFDC6
:1037400008BD40F22B410122FEF7A4FD08BD40F266
:103750002C410122FEF79EFD08BD40F22D410122C1
:10376000FEF798FD08BD40F22E410122FEF792FDC2
:1037700008BD40F22F410122FEF78CFD08BD4FF439
:1037800086610122FEF786FD08BD40F2314101222B
:10379000FEF780FD08BD40F232410122FEF77AFDBE
:1037A00008BD40F233410122FEF774FD08BD40F22E
:1037B00034410122FEF76EFD08BD40F23541012281
:1037C000FEF768FD08BD40F236410122FEF762FDBA
:1037D00008BD40F237410122FEF75CFD08BD4FF401
:1037E00087610122FEF756FD08BD40F239410122F2
:1037F000FEF750FD08BD40F23A410122FEF74AFDB6
:1038000008BD40F23B410122FEF744FD08BD40F2F5
:103810003C410122FEF73EFD08BD40F23D41012240
:10382000FEF738FD08BD40F23E410122FEF732FDB1
:1038300008BD40F23F410122FEF72CFD08BD00BF4C
:1038400008B50139172900F29E80DFE801F00C125B
:10385000181E242A30363C42484E545A60666C7218
:10386000787E848A90964FF4EE610122FEF704FD83
:103870008AE040F271710122FEF7FEFC84E040F222
:1038800072710122FEF7F8FC7EE040F273710122B2
:10389000FEF7F2FC78E040F274710122FEF7ECFCD6
:1038A00072E040F275710122FEF7E6FC6CE040F236
:1038B00076710122FEF7E0FC66E040F277710122AA
:1038C000FEF7DAFC60E04FF4EF610122FEF7D4FC72
:1038D0005AE040F279710122FEF7CEFC54E040F24A
:1038E0007A710122FEF7C8FC4EE040F27B710122A2
:1038F000FEF7C2FC48E040F27C710122FEF7BCFCFE
:1039000042E040F27D710122FEF7B6FC3CE040F25D
:103910007E710122FEF7B0FC36E040F27F71012299
:10392000FEF7AAFC30E04FF4F0610122FEF7A4FCA0
:103930002AE040F281710122FEF79EFC24E040F271
:1039400082710122FEF798FC1EE040F28371012291
:10395000FEF792FC18E040F284710122FEF78CFC25
:1039600012E040F285710122FEF786FC0CE040F285
:1039700086710122FEF780FC06E040F28771012289
:10398000FEF77AFC00E008BD012008BD08B501394A
:10399000172900F29D80DFE801F00C12181E242A7E
:1039A00030363C42484E545A60666C72787E848A47
:1039B00090964FF4EE610122FEF76CFC08BD40F2D8
:1039C00071710122FEF766FC08BD40F2727101229E
:1039D000FEF760FC08BD40F273710122FEF75AFC4D
:1039E00008BD40F274710122FEF754FC08BD40F29C
:1039F00075710122FEF74EFC08BD40F2767101227E
:103A0000FEF748FC08BD40F277710122FEF742FC48
:103A100008BD4FF4EF610122FEF73CFC08BD40F207
:103A200079710122FEF736FC08BD40F27A7101225D
:103A3000FEF730FC08BD40F27B710122FEF72AFC44
:103A400008BD40F27C710122FEF724FC08BD40F263
:103A50007D710122FEF71EFC08BD40F27E7101223D
:103A6000FEF718FC08BD40F27F710122FEF712FC40
:103A700008BD4FF4F0610122FEF70CFC08BD40F2D6
:103A800081710122FEF706FC08BD40F2827101221D
:103A9000FEF700FC08BD40F283710122FEF7FAFB3D
:103AA00008BD40F284710122FEF7F4FB08BD40F22C
:103AB00085710122FEF7EEFB08BD40F286710122FE
:103AC000FEF7E8FB08BD40F287710122FEF7E2FB3A
:103AD00008BD00BF08B50139172900F29E80DFE854
:103AE00001F00C12181E242A30363C42484E545A1B
:103AF00060666C72787E848A90964FF488610122A9
:103B0000FEF7BAFB8AE040F241410122FEF7B4FB26
:103B100084E040F242410122FEF7AEFB7EE040F23B
:103B200043410122FEF7A8FB78E040F24441012224
:103B3000FEF7A2FB72E040F245410122FEF79CFB3A
:103B40006CE040F246410122FEF796FB66E040F24F
:103B500047410122FEF790FB60E04FF489610122AA
:103B6000FEF78AFB5AE040F249410122FEF784FB4E
:103B700054E040F24A410122FEF77EFB4EE040F263
:103B80004B410122FEF778FB48E040F24C41012214
:103B9000FEF772FB42E040F24D410122FEF76CFB62
:103BA0003CE040F24E410122FEF766FB36E040F277
:103BB0004F410122FEF760FB30E04FF48A610122A1
:103BC000FEF75AFB2AE040F251410122FEF754FB76
:103BD00024E040F252410122FEF74EFB1EE040F28B
:103BE00053410122FEF748FB18E040F25441012204
:103BF000FEF742FB12E040F255410122FEF73CFB8A
:103C00000CE040F256410122FEF736FB06E040F29E
:103C100057410122FEF730FB00E008BD012008BD3E
:103C200008B50139172900F29D80DFE801F00C1278
:103C3000181E242A30363C42484E545A60666C7234
:103C4000787E848A90964FF488610122FEF722FBE9
:103C500008BD40F241410122FEF71CFB08BD40F2C5
:103C600042410122FEF716FB08BD40F2434101220A
:103C7000FEF710FB08BD40F244410122FEF70AFBAB
:103C800008BD40F245410122FEF704FB08BD40F2A9
:103C900046410122FEF7FEFA08BD40F247410122EB
:103CA000FEF7F8FA08BD4FF489610122FEF7F2FA37
:103CB00008BD40F249410122FEF7ECFA08BD40F28E
:103CC0004A410122FEF7E6FA08BD40F24B410122CB
:103CD000FEF7E0FA08BD40F24C410122FEF7DAFAA5
:103CE00008BD40F24D410122FEF7D4FA08BD40F272
:103CF0004E410122FEF7CEFA08BD40F24F410122AB
:103D0000FEF7C8FA08BD4FF48A610122FEF7C2FA35
:103D100008BD40F251410122FEF7BCFA08BD40F255
:103D200052410122FEF7B6FA08BD40F2534101228A
:103D3000FEF7B0FA08BD40F254410122FEF7AAFA9C
:103D400008BD40F255410122FEF7A4FA08BD40F239
:103D500056410122FEF79EFA08BD40F2574101226A
:103D6000FEF798FA08BD00BF08B50139172900F21F
:103D70009E80DFE801F00C12181E242A30363C42E7
:103D8000484E545A60666C72787E848A90964FF4DE
:103D9000F1610122FEF770FA8AE040F28971012296
:103DA000FEF76AFA84E040F28A710122FEF764FAB3
:103DB0007EE040F28B710122FEF75EFA78E040F27D
:103DC0008C710122FEF758FA72E040F28D710122E7
:103DD000FEF752FA6CE040F28E710122FEF74CFAC7
:103DE00066E040F28F710122FEF746FA60E04FF480
:103DF000F2610122FEF740FA5AE040F2917101228D
:103E0000FEF73AFA54E040F292710122FEF734FADA
:103E10004EE040F293710122FEF72EFA48E040F2A4
:103E200094710122FEF728FA42E040F295710122D6
:103E3000FEF722FA3CE040F296710122FEF71CFAEE
:103E400036E040F297710122FEF716FA30E04FF4A7
:103E5000F3610122FEF710FA2AE040F29971012283
:103E6000FEF70AFA24E040F29A710122FEF704FA02
:103E70001EE040F29B710122FEF7FEF918E040F2CD
:103E80009C710122FEF7F8F912E040F29D710122C7
:103E9000FEF7F2F90CE040F29E710122FEF7ECF918
:103EA00006E040F29F710122FEF7E6F900E008BD4E
:103EB000012008BD08B50139172900F29D80DFE80F
:103EC00001F00C12181E242A30363C42484E545A37
:103ED00060666C72787E848A90964FF4F16101225C
:103EE000FEF7D8F908BD40F289710122FEF7D2F938
:103EF00008BD40F28A710122FEF7CCF908BD40F2FC
:103F00008B710122FEF7C6F908BD40F28C710122C7
:103F1000FEF7C0F908BD40F28D710122FEF7BAF933
:103F200008BD40F28E710122FEF7B4F908BD40F2DF
:103F30008F710122FEF7AEF908BD4FF4F261012244
:103F4000FEF7A8F908BD40F291710122FEF7A2F92F
:103F500008BD40F292710122FEF79CF908BD40F2C3
:103F600093710122FEF796F908BD40F29471012287
:103F7000FEF790F908BD40F295710122FEF78AF92B
:103F800008BD40F296710122FEF784F908BD40F2A7
:103F900097710122FEF77EF908BD4FF4F36101220B
:103FA000FEF778F908BD40F299710122FEF772F927
:103FB00008BD40F29A710122FEF76CF908BD40F28B
:103FC0009B710122FEF766F908BD40F29C71012247
:103FD000FEF760F908BD40F29D710122FEF75AF923
:103FE00008BD40F29E710122FEF754F908BD40F26F
:103FF0009F710122FEF74EF908BD00BF08B50139D7
:10400000172900F29E80DFE801F00C12181E242A06
:1040100030363C42484E545A60666C72787E848AD0
:1040200090964FF4F4610122FEF726F98AE040F2FF
:10403000A1710122FEF720F984E040F2A271012271
:10404000FEF71AF97EE040F2A3710122FEF714F99F
:1040500078E040F2A4710122FEF70EF972E040F21E
:10406000A5710122FEF708F96CE040F2A671012269
:10407000FEF702F966E040F2A7710122FEF7FCF8B4
:1040800060E04FF4F5610122FEF7F6F85AE040F2E5
:10409000A9710122FEF7F0F854E040F2AA71012262
:1040A000FEF7EAF84EE040F2AB710122FEF7E4F8C9
:1040B00048E040F2AC710122FEF7DEF842E040F247
:1040C000AD710122FEF7D8F83CE040F2AE7101225A
:1040D000FEF7D2F836E040F2AF710122FEF7CCF8DD
:1040E00030E04FF4F6610122FEF7C6F82AE040F214
:1040F000B1710122FEF7C0F824E040F2B271012252
:10410000FEF7BAF81EE040F2B3710122FEF7B4F8F0
:1041100018E040F2B4710122FEF7AEF812E040F26E
:10412000B5710122FEF7A8F80CE040F2B671012249
:10413000FEF7A2F806E040F2B7710122FEF79CF804
:1041400000E008BD012008BD08B50139172900F2BB
:104150009D80DFE801F00C12181E242A30363C4204
:10416000484E545A60666C72787E848A90964FF4FA
:10417000F4610122FEF78EF808BD40F2A171012220
:10418000FEF788F808BD40F2A2710122FEF782F81E
:1041900008BD40F2A3710122FEF77CF808BD40F291
:1041A000A4710122FEF776F808BD40F2A571012244
:1041B000FEF770F808BD40F2A6710122FEF76AF81A
:1041C00008BD40F2A7710122FEF764F808BD4FF464
:1041D000F5610122FEF75EF808BD40F2A9710122E7
:1041E000FEF758F808BD40F2AA710122FEF752F816
:1041F00008BD40F2AB710122FEF74CF808BD40F259
:10420000AC710122FEF746F808BD40F2AD71012203
:10421000FEF740F808BD40F2AE710122FEF73AF811
:1042200008BD40F2AF710122FEF734F808BD4FF42B
:10423000F6610122FEF72EF808BD40F2B1710122AD
:10424000FEF728F808BD40F2B2710122FEF722F80D
:1042500008BD40F2B3710122FEF71CF808BD40F220
:10426000B4710122FEF716F808BD40F2B5710122C3
:10427000FEF710F808BD40F2B6710122FEF70AF809
:1042800008BD40F2B7710122FEF704F808BD00BF77
:1042900030B583B004460139172900F2B281DFE856
:1042A00011F0180029003A004B005C006D007E0000
:1042B0008F00A000B100C200D300E400F5000601A9
:1042C0001701280139014A015B016C017D018E0152
:1042D0009F010DF10700FEF7DBF99DF80750202D37
:1042E000A8BF202520464FF488712022FDF7C4FF87
:1042F000284686E10DF10700FEF7DAF99DF8075030
:10430000202DA8BF202520464FF498712022FDF7CC
:10431000B3FF284675E10DF10700FEF7D9F99DF8C6
:104320000750202DA8BF202520464FF4A871202239
:10433000FDF7A2FF284664E10DF10700FEF7D8F96A
:104340009DF80750202DA8BF202520464FF4B871B6
:104350002022FDF791FF284653E10DF10700FEF7FB
:10436000D7F99DF80750202DA8BF202520464FF4EF
:10437000C8712022FDF780FF284642E10DF10700B9
:10438000FEF7D6F99DF80750202DA8BF202520461E
:104390004FF4D8712022FDF76FFF284631E10DF16F
:1043A0000700FEF7D5F99DF80750202DA8BF20255E
:1043B00020464FF4E8712022FDF75EFF284620E1F9
:1043C0000DF10700FEF7D4F99DF80750202DA8BF86
:1043D000202520464FF4F8712022FDF74DFF284696
:1043E0000FE10DF10700FEF7D3F99DF80750202DDE
:1043F000A8BF202520464FF404712022FDF73CFF82
:104400002846FEE00DF10700FEF7D2F99DF80750AF
:10441000202DA8BF202520464FF40C712022FDF747
:104420002BFF2846EDE00DF10700FEF7D1F99DF8CE
:104430000750202DA8BF202520464FF414712022BC
:10444000FDF71AFF2846DCE00DF10700FEF7D0F972
:104450009DF80750202DA8BF202520464FF41C7141
:104460002022FDF709FF2846CBE00DF10700FEF7FB
:10447000CFF99DF80750202DA8BF202520464FF4E6
:1044800024712022FDF7F8FE2846BAE00DF107005E
:10449000FEF7CEF99DF80750202DA8BF2025204615
:1044A0004FF42C712022FDF7E7FE2846A9E00DF11C
:1044B0000700FEF7CDF99DF80750202DA8BF202555
:1044C00020464FF434712022FDF7D6FE284698E0AE
:1044D0000DF10700FEF7CCF99DF80750202DA8BF7D
:1044E000202520464FF43C712022FDF7C5FE2846CA
:1044F00087E00DF10700FEF7CBF99DF80750202D5E
:10450000A8BF202520464FF444712022FDF7B4FEB9
:10451000284676E00DF10700FEF7CAF99DF807502E
:10452000202DA8BF202520464FF44C712022FDF7F6
:10453000A3FE284665E00DF10700FEF7C9F99DF8D6
:104540000750202DA8BF202520464FF4547120226B
:10455000FDF792FE284654E00DF10700FEF7C8F97A
:104560009DF80750202DA8BF202520464FF45C71F0
:104570002022FDF781FE284643E00DF10700FEF7FB
:10458000C7F99DF80750202DA8BF202520464FF4DD
:1045900064712022FDF770FE284632E00DF107001D
:1045A000FEF7C6F99DF80750202DA8BF202520460C
:1045B0004FF46C712022FDF75FFE284621E00DF1DB
:1045C0000700FEF7C5F99DF80750202DA8BF20254C
:1045D00020464FF474712022FDF74EFE284610E06D
:1045E0000DF10700FEF7C4F99DF80750202DA8BF74
:1045F000202520464FF47C712022FDF73DFE284601
:10460000FFE703B030BD00BF10B582B00C46013AE1
:10461000172A00F26981DFE812F018002600340042
:10462000420050005E006C007A0088009600A400F2
:10463000B200C000CE00DC00EA00F8000601140160
:10464000220130013E014C015A014FF488712022B1
:10465000FDF720FE202CA8BF202402A800F8014D61
:10466000FEF71EF840E14FF498712022FDF712FE8C
:10467000202CA8BF202402A800F8014DFEF720F846
:1046800032E14FF4A8712022FDF704FE202CA8BFD0
:10469000202402A800F8014DFEF722F824E14FF48F
:1046A000B8712022FDF7F6FD202CA8BF202402A817
:1046B00000F8014DFEF724F816E14FF4C8712022EE
:1046C000FDF7E8FD202CA8BF202402A800F8014D2A
:1046D000FEF726F808E14FF4D8712022FDF7DAFD45
:1046E000202CA8BF202402A800F8014DFEF728F8CE
:1046F000FAE04FF4E8712022FDF7CCFD202CA8BF92
:10470000202402A800F8014DFEF72AF8ECE04FF44F
:10471000F8712022FDF7BEFD202CA8BF202402A89E
:1047200000F8014DFEF72CF8DEE04FF40471202272
:10473000FDF7B0FD202CA8BF202402A800F8014DF1
:10474000FEF72EF8D0E04FF40C712022FDF7A2FD09
:10475000202CA8BF202402A800F8014DFEF730F855
:10476000C2E04FF414712022FDF794FD202CA8BF65
:10477000202402A800F8014DFEF732F8B4E04FF40F
:104780001C712022FDF786FD202CA8BF202402A842
:1047900000F8014DFEF734F8A6E04FF42471202212
:1047A000FDF778FD202CA8BF202402A800F8014DB9
:1047B000FEF736F898E04FF42C712022FDF76AFDE1
:1047C000202CA8BF202402A800F8014DFEF738F8DD
:1047D0008AE04FF434712022FDF75CFD202CA8BF45
:1047E000202402A800F8014DFEF73AF87CE04FF4CF
:1047F0003C712022FDF74EFD202CA8BF202402A8EA
:1048000000F8014DFEF73CF86EE04FF444712022B1
:10481000FDF740FD202CA8BF202402A800F8014D80
:10482000FEF73EF860E04FF44C712022FDF732FDB8
:10483000202CA8BF202402A800F8014DFEF740F864
:1048400052E04FF454712022FDF724FD202CA8BF24
:10485000202402A800F8014DFEF742F844E04FF48E
:104860005C712022FDF716FD202CA8BF202402A891
:1048700000F8014DFEF744F836E04FF46471202251
:10488000FDF708FD202CA8BF202402A800F8014D48
:10489000FEF746F828E04FF46C712022FDF7FAFC91
:1048A000202CA8BF202402A800F8014DFEF748F8EC
:1048B0001AE04FF474712022FDF7ECFC202CA8BF05
:1048C000202402A800F8014DFEF74AF80CE04FF44E
:1048D0007C712022FDF7DEFC202CA8BF202402A83A
:1048E00000F8014DFEF74CF802B010BD70B4094B52
:1048F00003F130040848002601681A792AB19A6841
:10490000891AB1F57A7FC8BF1E710C33A342F3D167
:1049100070BC7047489AFF1F6CA8FF1F10B401209D
:10492000002408492346CA18127922B15A588242F3
:1049300001D10130F6E70C33302BF4D15DF8044B94
:10494000704700BF489AFF1F10B5044610B9FFF723
:10495000E5FF0446164B1B795BB1154B1B7C43B13D
:10496000134B1B7F2BB1124B93F828300BB1FFF781
:10497000BDFF0F4B1B797BB10D4B1B7C43B10C4B27
:104980001B7F3BB10A4B93F8283073B9094B04E005
:10499000094B02E0094B00E0054B1C6001221A7133
:1049A000074A12689A60204610BD002010BD00BF63
:1049B000489AFF1F6C9AFF1F549AFF1F609AFF1FAF
:1049C0006CA8FF1FF0B583B00446304D2B685B68C0
:1049D00028462F490D2298472668019628463146D9
:1049E0001022002305F038FD284605F011FD6579F9
:1049F000A37943EA0525274B2068186022791A71AC
:104A000000225A7111229A71D81DE11D2A4604F024
:104A1000A1F9EF1DB6F1FF3F04D10020FFF794FF8D
:104A200001900CE0194C23685B6820461A49122259
:104A30009847204605F0ECFC3046FFF785FF154E01
:104A40000198F05172190223D372012313730025C8
:104A500055739373D5730D4C23685B6820460F49DB
:104A60000F229847204605F0D3FC3046642104F01D
:104A700077FC019E2046314610222B4605F0ECFCC7
:104A8000204605F0C5FC304603B0F0BD8CA8FF1FE2
:104A90009C1401007C9AFF1FAC140100C01401009B
:104AA00070B50E460E4C00682060BF2323710023B2
:104AB00063710123A371E1710A4D2B685B6828467D
:104AC0000949142298472846314605F001FD284639
:104AD00005F09EFC2046642104F042FC70BD00BF3E
:104AE0007C9AFF1F8CA8FF1FD0140100114B1B687C
:104AF000834212D00F4BDB6883420AD00D4B9B6977
:104B0000834208D00B4B5B6A834208BF032005D069
:104B10000DE0012002E0022000E00020064B1A68B0
:104B200000EB4001034B03EB81039A6070474FF0A9
:104B3000FF307047489AFF1F6CA8FF1F08B500227E
:104B40004271022282710A12C2710172642104F060
:104B500007FC08BD2DE9F04782468946414C236891
:104B60005B6820464049172298472046494605F091
:104B7000AFFC204605F04CFCB9F1000F14DD3B4CB6
:104B800004EB0908374D1027394E284614F8011F49
:104B90003A46002305F060FC2B685B6828463146E6
:104BA000012298474445F0D12E4C23685B6820468B
:104BB000304904229847204605F02AFC2E4CDAF8AA
:104BC0000000206083232371B9F1390FB4BF4D4633
:104BD00039254FEA2923637184F80690E01D27499F
:104BE0002A4604F0B7F82046642104F0B9FBC5EB6F
:104BF0000909B9F1000F33DD214C00251E4E771D48
:104C0000DFF88080357123463A4604F13001D3F84D
:104C100000A0D3F804C0D3F808E0D868C2F800A018
:104C2000C2F804C0C2F808E0D060103310328B42E2
:104C3000EDD1186859681060516019899B7A11810B
:104C400093723046642104F08BFBA9F13B09434683
:104C5000013B7FF4FDAF01353B34B9F1000FD1DCEE
:104C6000BDE8F0878CA8FF1FE81401004B9EFF1FD2
:104C7000CC180100001501007C9AFF1F4C9EFF1FFD
:104C8000859EFF1F8038010010B582B000242046A9
:104C900004F0F4FB01AB18550134042CF7D1019852
:104CA00002B010BD70B582B001900DF10306002472
:104CB00016F8015F204604F0E1FB854203D0204650
:104CC000294604F0EFFB0134042CF1D102B070BD91
:104CD0002DE9F04FBBB0044690F80590837943EA84
:104CE0000929A24D2B685B682846A1490B229847E9
:104CF000284605F08DFB2846494605F0E9FB284685
:104D000005F086FB2B685B6828469A490522984780
:104D1000284605F07DFB09F10703072B0EDD9946B8
:104D20000725DFF84882102700264046615D3A4695
:104D3000334605F091FB01354D45F6D18B4D2B687F
:104D40005B6828468C4900229847284605F060FB9E
:104D5000E37973B12B685B6828468849222298471B
:104D6000284605F055FB20464FF4DC41FFF7E6FEF0
:104D700012E294F809A0E37A227B120242EA03428B
:104D8000637B1A43237A022B5FD0032B00F0BC8194
:104D9000012B40F0DD81402A0FD0744D2B685B68F9
:104DA000284677491D229847284605F031FB2046C2
:104DB0004FF4CE41FFF7C2FEEEE1724B1B687BB9A8
:104DC0006A4D2B685B6828466F4929229847284618
:104DD00005F01EFB204646F68511FFF7AFFEDBE12E
:104DE000624D2B685B68284668491F229847284611
:104DF00005F00EFB664E30460021442208F036F9DD
:104E0000644900220B4643F8042B4A60043343F8FC
:104E1000042B43F8042B43F8042B43F8042B43F8EA
:104E2000042B43F8042B1A60042333702B685B684F
:104E30002846594917229847284605F0E9FA20469E
:104E400046F68511FFF77AFEA6E1812A0BD0474886
:104E500003685B6851491522984720464FF4CE41BC
:104E6000FFF76CFE98E194F84E30402B0BD03F4892
:104E700003685B684A491A22984720464FF4D54197
:104E8000FFF75CFE88E13F4B1B685BB9374803685E
:104E90005B6844491C229847204646F68511FFF777
:104EA0004DFE79E104F12E0B304D2B685B682846EE
:104EB0003D4923229847284605F0AAFA04F14F05F8
:104EC0003A4F04F18F0E3E4628686968AA68EB687D
:104ED0000FC6103537467545F5D102A8FCF7B2FB71
:104EE00002A859462022FCF7D7FB02A83049FCF75C
:104EF000F7FB1E4D2B685B6828462E491022984709
:104F0000284605F085FA294E3F36A6F14005DFF820
:104F10005C904FF00A080027484615F8011F4246EA
:104F20003B4605F099FAB542F6D121E1484615F81D
:104F3000011F42463B4605F08FFAAE42F6D11B48B0
:104F40005946202207F0FEFF002837D0074D2B6876
:104F50005B682846184917229847284605F058FAF2
:104F600020464FF4D541FFF7E9FD15E18CA8FF1F5E
:104F70000815010014150100F81801001C150100A6
:104F800040150100FC98FF1F601501008C15010001
:104F9000049AFF1F149EFF1FAC150100C4150100E9
:104FA000DC150100F815010018160100BC9DFF1F5B
:104FB0004CA2FF1F3C16010050160100BAF1070F6A
:104FC0000FD1774D2B685B68284676492522984794
:104FD000284605F01DFA204646F68511FFF7AEFD7E
:104FE000DAE0BAF1030F40F08480FFF74DFE80460F
:104FF0001EA8FCF727FB1EA859462022FCF74CFBF5
:10500000694D01232B704FEA282202F47F424FEAB8
:10501000082303F47F031A4342EA186242EA086253
:105020003AAB43F8E42D1868C5F801001EA82946DC
:105030000522FCF731FB1EA804F10E012022FCF72B
:105040002BFB1EA85949FCF74BFB30236B71442303
:10505000AB714FF0020C85F807C04FF0200E85F8B9
:1050600008E0534E0FCEC5F80900C5F80D10C5F87D
:105070001120C5F815300FCEC5F81900C5F81D1060
:10508000C5F82120C5F8253085F829C085F82AE023
:105090000FCEC5F82B00C5F82F10C5F83320C5F882
:1050A00037300FCEC5F83B00C5F83F10C5F8432098
:1050B000C5F84730902385F84B30002685F84C60C2
:1050C000374D2B685B6828463A490C22984728469A
:1050D0004D2105F0FDF9284605F09AF9364B1E6082
:1050E00020464D21FFF736FD08F10100FFF7DAFDFC
:1050F00052E02B4C23685B68204630490C229847CD
:10510000204605F085F947E07AB1254D2B685B68AC
:1051100028462B491D229847284605F079F9204654
:105120004FF4CE41FFF70AFD36E0002363710822F9
:10513000A271244A1068C4F807009288A4F80B20D2
:1051400090226273A3732046642104F009F923E0DE
:10515000134D2B685B6828461B4922229847284636
:1051600005F056F920464FF4DA41FFF7E7FC13E06B
:105170000B4D284605F04CF92B685B68284613490F
:1051800012229847284605F043F9114DDFF8109098
:105190004FF00A080027C9E63BB0BDE8F08F00BF1A
:1051A0008CA8FF1F681601004C9EFF1F4CA2FF1F1A
:1051B0007C9AFF1F90160100FC98FF1FA0160100AB
:1051C000B0160100D0160100D8160100FC1601002F
:1051D000BB9DFF1F2DE9F84F04464E4D2B685B68C1
:1051E00028464D490C2298472679284631461022F8
:1051F000002305F031F9284605F00AF994F80590E6
:10520000A379862E01D8842E0FD1424C23685B6887
:10521000204642491D229847204605F0F9F84048AB
:105220000121FFF73DFCBDE8F88F812E6BD143EAE9
:105230000929B9F1390F0FDC364D2B685B68284618
:10524000384915229847284605F0E2F8204664219F
:1052500004F086F8BDE8F88F2E4D2B685B68284671
:1052600031490F229847284605F0D2F8204664219C
:1052700004F076F8A9F13909B9F1000F37DD04F12E
:1052800040050027294E06F10508DFF8A8A0206890
:10529000306037712B46424605F13001D3F800B03B
:1052A000D3F804C0D3F808E0D868C2F800B0C2F858
:1052B00004C0C2F808E0D060103310328B42EDD148
:1052C000186859681060516019899B7A118193722E
:1052D0003046642104F044F8A9F13B095346013BF0
:1052E0007FF4FDAF01373B35B9F1000FCFDC094C3E
:1052F00023685B6820460E491B229847204605F02C
:1053000087F8BDE8F88F832E02D12046FFF7E0FC36
:10531000BDE8F88F8CA8FF1F1017010020170100AF
:105320005C99FF1F40170100581701007C9AFF1F6E
:1053300068170100803801002DE9F04100240C4E6F
:105340000C4FDFF8348035192B79022B0AD13B68DA
:105350005B683846414611229847384605F058F8B0
:1053600003232B710C34302CEDD1BDE8F08100BF4C
:10537000489AFF1F8CA8FF1F8417010010B5044630
:10538000084803685B68084901229847092C04DC37
:10539000044803681B68302198470248214605F0FD
:1053A00097F810BD8CA8FF1F1815010038B5FCF741
:1053B00023FF01461A4C204605F08AF8FCF726FF29
:1053C000FFF7DCFFFCF72CFFFFF7D8FF2368154D34
:1053D0005B682046294601229847FCF72BFF0146CF
:1053E000204605F075F823685B68204629460122AF
:1053F0009847FCF729FF0146204605F069F8236825
:105400005B682046294601229847FCF727FF0146A2
:10541000204605F05DF8204604F0FAFF38BD00BFD5
:105420008CA8FF1FCC1801002DE9F041071E15DDE7
:1054300000240B4E4FF0010864253078414604F0FB
:10544000FBFE284604F060FF3078002104F0F4FEF3
:10545000284604F059FF0134BC42EED1BDE8F0818A
:10546000FC9DFF1F10B5304B187803F067FD014617
:105470002E4B18602E4C20460422134603F062FA8D
:105480002C4B187803F05AFD01462B4B1860204630
:105490000422134603F056FA284B187803F04EFD09
:1054A0000146274B186020460422134603F04AFAAF
:1054B000244B187803F042FD0146234B1860204628
:1054C0000422134603F03EFA204B187803F036FD11
:1054D00001461F4B186020460422134603F032FA9F
:1054E0001C4B187803F02AFD01461B4B1860204620
:1054F0000422134603F026FA184B187804F0EAFD4C
:10550000014620460422102303F01CFA144B18789D
:1055100004F0E0FD014620460422102303F012FAB5
:10552000204603F0EDF910BD7CA2FF1F9C99FF1FE0
:1055300084A6FF1F7DA2FF1FD899FF1F7EA2FF1F19
:10554000A499FF1F399EFF1FA899FF1F80A6FF1F68
:10555000AC99FF1F81A6FF1FB099FF1FF898FF1F8E
:10556000389EFF1FF8B507460E460A4D0A4C01E06B
:10557000FFF778FF2846216803F01CF90028F7D0D0
:1055800004483946324603F04FF92022024B1A6094
:105590000120F8BD84A6FF1FA88CFF1F30B415465C
:1055A0002AB10023C45CCC540133AB42FAD130BCE5
:1055B000704700BF70B4164632B100240B44055D3D
:1055C0001D550134B442FAD170BC704710B5037850
:1055D00033B1094A02F8013F10F8013F002BF9D11D
:1055E000064C2046002103F0BBFE2046002140224D
:1055F00007F03CFD10BD00BF7B9AFF1F7C9AFF1F88
:10560000F0B589B0BD4C204604F002FF23685B680A
:105610002046BB491C229847204604F0F9FEB94BAE
:105620001B78002B14BF0C2600260DF10200711C04
:10563000FDF7A0FE01238DF800307C258DF8015088
:10564000684604A90C22FFF7A9FF04A807F07AFF17
:10565000024623685B68204604A99847204604F068
:10566000D7FE04A8FFF7B2FF142004F04DFE0DF1A1
:105670000200B11CFDF77EFE02238DF800308DF88C
:105680000150684604A90C22FFF788FF04A807F020
:1056900059FF024623685B68204604A998472046C4
:1056A00004F0B6FE04A8FFF791FF142004F02CFECE
:1056B0000DF10200F11CFDF75DFE03278DF800706F
:1056C0008DF80150684604A90C22FFF767FF04A873
:1056D00007F038FF024623685B68204604A9984714
:1056E000204604F095FE04A8FFF770FF142004F094
:1056F0000BFE0DF10200311DFDF73CFE04238DF879
:1057000000308DF80150684604A90C22FFF746FFCF
:1057100004A807F017FF024623685B68204604A927
:105720009847204604F074FE04A8FFF74FFF1420AA
:1057300004F0EAFD0DF10200711DFDF71BFE0523CB
:105740008DF800308DF80150684604A90C22FFF74F
:1057500025FF04A807F0F6FE024623685B68204692
:1057600004A99847204604F053FE04A8FFF72EFF33
:10577000142004F0C9FD0DF10200B11DFDF7FAFD82
:1057800006238DF800308DF80150684604A90C22DC
:10579000FFF704FF04A807F0D5FE024623685B6804
:1057A000204604A99847204604F032FE04A8FFF7DB
:1057B0000DFF142004F0A8FD0DF10200F11DFDF70E
:1057C000D9FD07238DF800308DF80150684604A9F3
:1057D0000C22FFF7E3FE04A807F0B4FE024623689C
:1057E0005B68204604A99847204604F011FE04A8EF
:1057F000FFF7ECFE142004F087FD0DF1020006F126
:105800000801FDF7B7FD08238DF800308DF8015031
:10581000684604A90C22FFF7C1FE04A807F092FE17
:10582000024623685B68204604A99847204604F096
:10583000EFFD04A8FFF7CAFE142004F065FD0DF18A
:10584000020006F10901FDF795FD09238DF80030EE
:105850008DF80150684604A90C22FFF79FFE04A8AA
:1058600007F070FE024623685B68204604A998474B
:10587000204604F0CDFD04A8FFF7A8FE142004F094
:1058800043FD0DF1020006F10A01FDF773FD10233F
:105890008DF800308DF8015068460DEB03010C22A5
:1058A000FFF77CFE04A807F04DFE024623685B6804
:1058B000204604A99847204604F0AAFD04A8FFF753
:1058C00085FE142004F020FD0DF1020006F10B010D
:1058D000FDF750FD11238DF800308DF8015068461A
:1058E00004A90C22FFF75AFE04A807F02BFE02467B
:1058F00023685B68204604A906E000BF8CA8FF1F50
:1059000098170100789AFF1F9847204604F080FD01
:1059100004A8FFF75BFE142004F0F6FC0DF1020072
:1059200006F10C01FDF726FD12238DF800308DF8ED
:105930000150684604A90C22FFF730FE04A807F0C6
:1059400001FE024623685B68204604A9984720466A
:1059500004F05EFD04A8FFF739FE142004F0D4FC27
:105960003846FFF761FD09B0F0BD00BF2DE9F041F9
:10597000334C23685B6820463249152298472046FD
:1059800004F046FD0025DFF8C8800127284603F013
:1059900075FD06462046294604F09AFD23685B689B
:1059A000204641463A469847204631460A2200237F
:1059B00004F052FD204604F02BFD0135B5F5006FD3
:1059C000E4D1002425462046294603F06BFD01342E
:1059D000B4F5006FF7D11A4C23685B6820461A496A
:1059E00010229847204604F013FD0025DFF8608060
:1059F0000127284603F042FD06462046294604F0CA
:105A000067FD23685B68204641463A469847204632
:105A100031460A22002304F01FFD204604F0F8FC62
:105A20000135B5F5006FE4D1054C23685B6820466D
:105A300006490D229847204604F0EAFCBDE8F081B3
:105A40008CA8FF1FB8170100D4170100E817010048
:105A5000D017010070B582B001A8FCF769FC9DF871
:105A6000054044F400349DF8043044EA03242E48F1
:105A70002E49224604F0E2FC2046012102F00EFEEF
:105A800018B129482A4904F0D9FC274E3046294943
:105A900004F0D4FC04F50065304624492A4604F09D
:105AA000CDFC2846012102F0F9FD18B1304620490D
:105AB00004F0C4FC1C4E30461E4904F0BFFC04F543
:105AC000C055304619492A4604F0B8FC2846012141
:105AD00002F0E4FD18B13046154904F0AFFC124D58
