:1000000000800020BD010000ED210100B1210100B0
:10001000B1210100B1210100B1210100B121010094
:10002000B1210100B1210100B1210100ED21010048
:10003000ED210100B1210100ED210100A12101000C
:10004000ED210100ED210100ED210100ED21010074
:10005000ED210100ED210100ED210100ED21010064
:10006000ED210100ED210100ED210100ED21010054
:10007000ED210100ED210100ED210100ED21010044
:10008000ED210100ED210100ED210100ED21010034
:10009000ED210100ED210100ED210100ED21010024
:1000A000ED210100ED210100ED210100ED21010014
:1000B000ED210100ED210100ED210100ED21010004
:1000C000ED210100ED210100ED210100ED210100F4
:1000D000ED210100ED210100ED210100ED210100E4
:1000E000ED210100ED210100ED210100ED210100D4
:1000F000ED210100ED210100ED210100ED210100C4
:10010000ED210100ED210100ED210100ED210100B3
:10011000ED210100ED210100ED210100ED210100A3
:10012000ED210100ED210100ED210100ED21010093
:10013000ED210100ED210100ED210100ED21010083
:10014000ED210100ED210100ED210100ED21010073
:10015000ED210100ED210100ED210100ED21010063
:10016000ED210100ED2C0100ED210100ED21010048
:10017000ED210100ED210100ED210100ED21010043
:10018000ED210100ED210100ED210100ED21010033
:10019000ED210100ED210100ED210100ED21010023
:1001A000ED210100ED210100ED210100ED21010013
:1001B000ED210100ED210100ED210100574B4CF232
:1001C000205210B51A804DF628121A8000BF00BFC9
:1001D00012F010F8524B4FF010621A60514A9A60B8
:1001E000514ADA60A3F53043203B1A6812F480725A
:1001F00004D14E490A604FF4A8521A604C4B1A7849
:10020000110703D51A7842F008021A70494B4A4C7C
:100210004A482A221A704A4A00239918A14203D256
:10022000195899500433F8E7464B474900228B424E
:1002300002D243F8042BFAE74448454900235A58B0
:100240001A500433B3F5DE7FF9D1424B424A802184
:1002500003F8011B9342FBD1404B3C4A1A60404BD0
:100260000A221A70A3F5805324225A70A0221A7011
:100270009A799207FCD59A79D406FCD4394A9379B5
:1002800003F00C03082B374BF9D105221A714322D6
:100290005A719A799006FCD5324A9179314B4906C8
:1002A000FBD5314A4FF08171116005215160202248
:1002B0001A709A7902F00C020C2AFAD12B4B2C4AB4
:1002C0001A602C4B2C4A1A6000225A60072243F80D
:1002D000042C2A4AC3F80C2D62B61BF045FA134BC6
:1002E0001B68DA0705D526481BF0B6F8254B264AC9
:1002F0001A60264B1B785B0609D5224C224A2368DC
:10030000934204D11E481BF0A7F8002323601CF081
:1003100071FC11F075FF1BF0B3FAFEE70E200540EB
:1003200030800440823F04000100002B14D00340C1
:1003300002D0074000E007405496FF1F142B020034
:10034000708CFF1F5496FF1F78B5FF1F0082FF1FA0
:100350000000000000E400E05FE400E008ED00E0E1
:1003600000500640004006404480044004800440A1
:10037000C010050014E000E03F190100000020203B
:10038000B1A9CA581CE00340A5C3945A00F0074025
:10039000FFFFFFFFFFFFFFFFFFFFFFFFFFFFFFFF6D
:1003A000FFFFFFFFFFFFFFFFFFFFFFFFFFFFFFFF5D
:1003B000FFFFFFFFFFFFFFFFFFFFFFFFFFFFFFFF4D
:1003C000FFFFFFFFFFFFFFFFFFFFFFFFFFFFFFFF3D
:1003D000FFFFFFFFFFFFFFFFFFFFFFFFFFFFFFFF2D
:1003E000FFFFFFFFFFFFFFFFFFFFFFFFFFFFFFFF1D
:1003F000FFFFFFFFFFFFFFFFFFFFFFFFFFFFFFFF0D
:10040000FFFFFFFFFFFFFFFFFFFFFFFFFEFFFFFFFD
:1004100010B5054C237833B9044B13B10448AFF33E
:1004200000800123237010BD5496FF1F00000000C0
:100430000C2B020008B5064B1BB106480649AFF36A
:1004400000800648036813B1054B03B1984708BD07
:10045000000000000C2B02005896FF1F5496FF1F4F
:100460000000000070B5394B1B68197849B9384C49
:100470002046384901F01EF82046374901F04AF875
:1004800070BD01290FD144F22B0012F071F90A203E
:100490001BF054F944F22B0012F00AF92B4B1A68A6
:1004A00001321A6070BD02290FD144F2280012F007
:1004B0005FF90A201BF042F944F2280012F0F8F824
:1004C000224B1A6801321A6070BD092924D1234BCE
:1004D0001B78002B39D10122214B1A6021480EF0E4
:1004E00047FD214B1E6806F57A661D4C1D4601E04E
:1004F00009F03AFF236813B12B689E42F8D8002216
:10050000174B1A60124C2046124900F0D3FF2046C8
:10051000114900F0FFFF70BDA1F10A03DBB2152BFA
:100520000BD80A394FF47A7000FB01F01BF006F982
:10053000064B1A6801321A6070BD0C4803681B68CC
:100540009847024B1A6801321A6070BD9896FF1FD7
:10055000EC97FF1FB096FF1F8096FF1FC8A1FF1FDB
:100560002CA0FF1FD961000020B5FF1F28B5FF1F79
:1005700008B5024805F064FE08BD00BF0C09020082
:1005800010B500224C4B1A7006204C4B18700121FC
:100590004B4B197016224B4B1A7017224A4B1A708C
:1005A00011224A4B1A700F22494B1A701022494BE4
:1005B0001A700E22484B1A701522484B1A701AF006
:1005C0007FFF4748202105F05DFF464B1B78DE2B5F
:1005D0000BD105F053FE44200AF05EF90122424B94
:1005E0001A700022414B1A702EE0442B26D10028AD
:1005F00024DD3F48202105F08FFF3E4806F088F8B3
:100600003D4806F06BF93D4C204601F049FB23784C
:100610000BB9042222703A4801F022FB394801F05C
:100620004FFB12F043FF00222F4B1A7001222F4B79
:100630001A703548354900F06DFF05E001222A4B5C
:100640001A700022294B1A70314C2046314940F271
:10065000FD720AF0BBFA00F0FFFE20462E4924226C
:1006600000230AF05DFA20461D49202200230AF0EB
:1006700057FA194B18781AF031FE01462046042229
:1006800008230AF04DFA154B18781AF027FE014698
:100690002046042208230AF043FA05F01DFD05F068
:1006A000F7FC05F007FD05F0F3FC05F003FD164827
:1006B0001A4900F02FFF10BDC8A1FF1F4DA5FF1F55
:1006C00094A9FF1F95A9FF1F96A9FF1F50A5FF1F03
:1006D00098B1FF1F99B1FF1F4EA5FF1F4FA5FF1F28
:1006E000F097FF1F0200024008A2FF1FC9A1FF1FD1
:1006F0003098FF1F5098FF1F1098FF1FA88CFF1FF6
:10070000A48CFF1F70B5FF1FEC97FF1F9C96FF1F67
:100710009CB1FF1F940E0200C897FF1F8096FF1F19
:100720002DE9F0419AB0044600259D4B1D700AA8A2
:10073000294640221CF0C6FD9A482946EE221CF0AC
:10074000C1FD0AA8214606F0C7F9051E19DD964B22
:100750001B784BB9954B93F8221072310AA82144AB
:10076000934A2B4608F016FC8E4F8D4E0AA8394648
:100770002A46337805F058FDEBB20222FA540135CF
:1007800035700AA8002140221CF09CFD0AA82146D1
:1007900002F0AEFF9DF828305A1ED2B21D2A08D8AA
:1007A0001F467F4A11780A337E4843540131117045
:1007B00000E000270AA8214606F04CFD061E16DDC3
:1007C000794B1B784BB9794B93F8221075310AA8F5
:1007D0002144774A334608F0DDFB714D0AA8714980
:1007E00032462B7805F020FD2B781E442E700AA887
:1007F000002140221CF066FD0AA8214602F0B2FB4F
:100800009DF8283093B1312B07D1654B1A78012020
:100810006449885402441A7008E0322B06D1604BB8
:100820001A7802205F49885401321A700AA8002100
:1008300040221CF047FD0AA8214603F08BF89DF8E2
:1008400028305A1ED2B21D2A08D89846544A117828
:100850000A33544843540131117001E04FF000084D
:100860000AA8214602F054F8061E16DD4E4B1B78EE
:100870004BB94E4B93F8221070310AA821444C4AD0
:10088000334608F087FB464D0AA8464932462B7886
:1008900005F0CAFC2B781E442E700AA800214022C5
:1008A0001CF010FD0AA8214602F08EFC9DF82830AD
:1008B00093B1312B07D13A4B1A780120394988542A
:1008C00002441A7008E0322B06D1354B1A78022008
:1008D0003449885401321A700AA8002140221CF0C1
:1008E000F1FC0AA8214603F067F99DF828305A1E4A
:1008F000D2B21D2A08D81D46294A11780A33294840
:1009000043540131117000E000250AA80021402263
:100910001CF0D8FC0AA8214603F0B0FA9DF8283054
:10092000002B00F0B180672B77D10AA8214607F091
:100930000FF906461C4B1B784BB91C4B93F8221041
:1009400074310AA821441A4A334608F023FB0AA846
:1009500014493246124B1B7805F066FC68460AA91A
:10096000324601F08FF801F0FFF8384400EB08013F
:100970006846294401F08AF8054601F03DF9C8B9F6
:10098000074B1B78074A4E21D15413444F225A700B
:1009900054229A705321D970452119715A7119E066
:1009A0007C96FF1FC896FF1FC8A1FF1FC897FF1F97
:1009B0003098FF1F384B1B782978384AD154697812
:1009C00013445970AA789A70EA78DA702A791A7101
:1009D0006A795A71304B1A7806321A700AA80021C7
:1009E00040221CF06FFC0AA8214602F01FFD9DF872
:1009F000283093B1312B07D1274B1A780120274992
:100A0000885402441A7008E0322B06D1224B1A781F
:100A100002202249885401321A709DF82830792B1F
:100A200024D11F4B1B787BBB1B4D2B781B481844D4
:100A300008F04AF92B782C332B700AA8214602F0D3
:100A4000F5FC9DF82830FBB1312B06D12A78012026
:100A50001249885402442A7008E0322B06D10E4B0A
:100A60001A7802200D49885401321A709DF82830F6
:100A7000752B09D10A4B1B7833B9074B1A7809201B
:100A80000649885401321A70034B1B780021034A2F
:100A9000D1541AB0BDE8F0817C96FF1FC896FF1FA5
:100AA000C8A1FF1F10B5104B1B781BB90F4805F0EC
:100AB000C7FB10BD0E4B187800211AF023FD0D4B1B
:100AC0001A680D4B1A600D4B1B781BB10C4B1C6840
:100AD000243C04E00A4B1C68303C08F011F9204625
:100AE000FFF71EFE10BD00BFC9A1FF1F18090200BD
:100AF0004DA5FF1F20B5FF1F7CA9FF1FC8A1FF1F29
:100B00007496FF1F10B5104B1B781BB90F4805F0EA
:100B100097FB10BD0E4B187800211AF0F3FC0D4B1B
:100B20001A680D4B1A600D4B1B781BB10C4B1C68DF
:100B3000243C04E00A4B1C68303C08F0E1F8A01D9E
:100B4000FFF7EEFD10BD00BFC9A1FF1F180902008D
:100B50004DA5FF1F20B5FF1F7CA9FF1FC8A1FF1FC8
:100B60007496FF1F30B583B004469F4B1B782BB99A
:100B70009E4B1878FF211AF0C5FC04E09B4B1878B7
:100B800000211AF0BFFC9A4B1B68022B08DD994D1F
:100B90000524284605F054FB204605F05BFAF8E7EB
:100BA000954B1B78A3B3684601F0AAF89DF8003076
:100BB000002B00F0848101A801F092F89DF8043028
:100BC000132B0ED98D4B03F12101FF2203F8012FC6
:100BD0008B42FBD18A4805F0BDFC002001F088F86B
:100BE00005E05A1C02A800F8042D01F081F89DF8D8
:100BF00000300133DBB28DF800300A2B02D905F04A
:100C000083FB65E1684601F083F800227A4B1A7095
:100C10007C487D4B197800F0D9FC734B1B784BB99D
:100C2000784800F001FD28B9764800F061FD002801
:100C300000F023816C4B1B7843BB002001F068F867
:100C4000704800F0D1FC0022694B1A606F4805F033
:100C5000F7FA6F486F4900F02DFC6F4B1B7833B9E2
:100C600008F0ECF904F05CFB002001F041F86B4B5C
:100C70001A686B4B1A6001225B4B1A70694B1B7828
:100C8000002B00F0258108F051F821E1664B1B682C
:100C9000002B40F01D81654B1B78002B00F0188164
:100CA0000022634B1A70634B1B78012B0ED1624AF2
:100CB0001178554A126891423FD1574B1B78002B4F
:100CC00040F0068102225B4B1A7001E1022B09D130
:100CD0005A4B1A784C4B1B689A422FD10322554B22
:100CE0001A70F5E0032B28D1554B1A78464B1B6838
:100CF0009A4223D1484B1B78002B40F0E980042214
:100D00004C4B1A7044F2280011F032FD0A201AF000
:100D100015FD44F2280011F0CBFC4A4B1B79ED2B5A
:100D200002D1484804F0BAF8464B1B79F02B40F04A
:100D3000CF80444804F0C8F9CAE0FBB1364B1B78B9
:100D4000002B40F0C58000243A4B1C7007F0D8FF00
:100D500044F2280011F00CFD0A201AF0EFFC44F2D6
:100D6000280011F0A5FC384805F06AFA374B1C60E2
:100D70001E4B1878FF211AF0C5FBA9E0312C2ADDA3
:100D8000214B1B68312B11D1234B1B78002B40F0DA
:100D90009F801F4D2E4C2846214600F08BFB08F00B
:100DA00067FB2846214600F0B5FB91E0362B12D1B7
:100DB000194B1B78002B40F08B800124194B1C70C1
:100DC0000022094B1A700C4B1C700E4800F00CFCF2
:100DD000204B1C607CE00A2C75DC124B1B78002B2E
:100DE0003CD1FFF75FFE39E008A2FF1F4DA5FF1FB2
:100DF000C496FF1F48090200888CFF1F2F98FF1F11
:100E00003098FF1FCCA0FF1F7496FF1FA809020097
:100E1000EC97FF1F9C96FF1FC8A1FF1F20B5FF1F67
:100E20007CA9FF1F7AA9FF1F54A5FF1FC9A1FF1F9F
:100E3000C896FF1F78A1FF1F78A9FF1F79A9FF1F80
:100E400009A2FF1F84A1FF1FB409020068A1FF1FB0
:100E50008096FF1F848CFF1FFFF754FE1D4A1E4B18
:100E60001A601E4C20461E4900F024FB20461D49F6
:100E70001D4B1A7800F030FB2AE01C4800F01AFCE9
:100E800010B105F041FA23E0194B1B68092B03DC74
:100E90000133174A13601BE00124164B1C70164BDC
:100EA0001A6822441A60032005F0D4F8684600F05E
:100EB00027FF0E4800F098FB0D4B1C6008E0012353
:100EC0008DF800309EE60D4B1B78002BC6D1C3E792
:100ED00003B030BDC896FF1F9896FF1FEC97FF1F09
:100EE0008096FF1FB096FF1FA88CFF1FCCA0FF1F8E
:100EF000848CFF1F888CFF1FC496FF1F7AA9FF1FD9
:100F000010B56E4B1B7813B36D4B1B78FBB909F012
:100F10002BFA6C4B1B78D3B107F0E6FE6A4B1B78BB
:100F2000ABB16A4A11684EF6602202FB03F3684ACD
:100F300012688A1A93420AD80022604B1A70012460
:100F4000644B1C70644800F04FFB644B1C60644BA6
:100F50001B783BB1594B1B7823B1624B1B780BB903
:100F600007F0E4FE05F0B8F85F4B1A6840F2DC5376
:100F70009A420CD900235D4A13605D4A13605D4BB1
:100F80001A6801321A6035225B4B1A6082E05B4BB3
:100F90001A6840F2DC539A420CD90023534A13607A
:100FA000534A1360534B1A6801321A603222524B73
:100FB0001A606FE0524B1A6840F2DC539A420CD927
:100FC00000234A4A13604A4A13604A4B1A680132A6
:100FD0001A603122484B1A605CE04A4B1A6840F2B2
:100FE000DC539A420CD90023404A1360404A1360F4
:100FF000404B1A6801321A6033223F4B1A6049E0B5
:10100000414B1A6840F2DC539A420CD90023374A0C
:101010001360374A1360374B1A6801321A60342262
:10102000354B1A6036E0394B1A6840F2DC539A426D
:101030000CD900232D4A13602D4A13602D4B1A68DA
:1010400001321A6036222C4B1A6023E0294B1C68AF
:1010500020461BF0E7F94FF07C511BF0A3FA08B1D2
:10106000234B1C600022234B1A60204B1A6801326C
:101070001A60124B1B782BB9254B187800211AF0F7
:1010800041FA07E0174B1B7823B9214B1878FF2151
:101090001AF038FA164B1C68002C0EDD134B18683A
:1010A0001BF0C0F94FF07C511BF07CFA28B12046B0
:1010B000FFF758FD00220E4B1A6010BD08A2FF1F5B
:1010C00078A1FF1FC9A1FF1FA48CFF1F20B5FF1F20
:1010D0007CA9FF1F888CFF1FCCA0FF1F848CFF1FE3
:1010E0007AA9FF1F4CA5FF1F00A2FF1F7096FF1FCC
:1010F0009496FF1F7896FF1F7496FF1F04A2FF1F90
:10110000CCA1FF1FD0A1FF1FD4A1FF1FD8A1FF1F9B
:101110004DA5FF1F08B511F09FFC08486421084A3F
:1011200000F03EFA07486421074A00F039FA074800
:101130004FF47A71064A00F033FA08BD8096FF1F1B
:10114000010F0000B096FF1F650400009C96FF1F72
:10115000710500002DE9F00FCAB001900A46002386
:10116000D078CC5C40EA0460547840EA044094783B
:1011700040EA042003F128056C4628510433043268
:10118000402BEDD10AAB0022986B59685D6A02F1E1
:1011900028076E46BC592C444FEA704585EAF04555
:1011A00085EA902020444FEAF11484EAB14484EAAD
:1011B000D1010144196404320433C02AE4D10199F5
:1011C000096D0291019A526D0392019B9B6D0493EC
:1011D000019CE46D0594019D2D6E0695019E766E31
:1011E0000796019FBF6E08970199C96E09918946BC
:1011F0003D46B446069BA04604981446029A002138
:10120000DFF8A8A001F1280B6F465BF8076051F8E2
:101210000A7037444FEAB31686EAF32686EA736605
:10122000374425EA03060CEA030B86EA0B063E4424
:101230004E4480EA0407174000EA040987EA0907D8
:101240004FEAB20989EA723989EAB2594F44B04487
:101250003E440431B1F5807F08D0A94665469C46DE
:1012600043468046204614463246CBE702990E4458
:10127000019F3E6503990A447A65049A1444BC654B
:10128000059C2044F865069A42443A66079E33441A
:101290007B66089B6344BB66099F3D44DDF804B050
:1012A000CBF86C504AB0BDE8F00F7047DC09020083
:1012B0000023036400220023C0E912230A4B0365C4
:1012C0000A4B43650A4B83650A4BC3650A4B0366A9
:1012D0000A4B43660A4B836603F17453A3F5230359
:1012E000A3F69243C366704767E6096A85AE67BB9B
:1012F00072F36E3C3AF54FA57F520E518C68059BF8
:10130000ABD9831F2DE9F84306469046DAB10F4664
:1013100088444FF00009336C17F8012BF254013365
:101320003364402B0DD130463146FFF713FFD6E929
:10133000124514F5007445F10005C6E91245C6F8DA
:1013400040904745E7D1BDE8F88300BF2DE9F84F4D
:1013500080468946026C372A0CD8531C8021815460
:10136000372B1CD802440021013302F8011F382B0F
:10137000FAD114E0531C802181543F2B06D802443B
:101380000021013302F8011F402BFAD140464146AB
:10139000FFF7E0FE4046002138221BF093FFD8F80B
:1013A0004030D900D8E91223521843F10003C8E9AC
:1013B000122388F83F20100A40EA0360190A88F8CF
:1013C0003E00160C46EA03461F0C88F83D60140EDA
:1013D00044EA03241D0E88F83C4088F83B3088F826
:1013E0003A1088F8397088F8385040464146FFF77F
:1013F000B1FE0322D300D8F85010D94089F800106C
:10140000D8F85410D94089F80410D8F85810D940A9
:1014100089F80810D8F85C10D94089F80C10D8F871
:101420006010D94089F81010D8F86410D94089F8B4
:101430001410D8F86810D94089F81810D8F86C1032
:1014400021FA03F389F81C30013A09F10109B2F1DC
:10145000FF3FCFD1BDE8F88F00B583B006490A68D9
:101460004B6888680090C9680191044804491CF0E1
:101470008FF903B05DF804FBB897FF1FC897FF1FF3
:10148000DC0A0200064B1A68064B1A60064A12680C
:101490005A60064A12689A60054A1268DA60704714
:1014A00054800440B897FF1F588004405C8004407B
:1014B00060800440026872B18A4209D113690360F6
:1014C0007047994201D01A4602E00B6913617047D8
:1014D0001369002BF5D17047F8B507460D4616463F
:1014E000FFF7E8FF3C680CB93D6004E023690BB1ED
:1014F0001C46FBE725611AF0FDF82B68C01A6860EE
:1015000006FB06F642F2107303FB06F62E6000237C
:101510002B61F8BD38B505460C46FFF7CBFF2A68AE
:101520000AB92C6004E013690BB11A46FBE7146199
:101530001AF0E0F82368C01A60600023236138BD08
:1015400038B50C461AF0D6F805466268236813448D
:10155000984205D36268934208D26268904205D3EC
:101560006268954207D26268934204D3A560E3683B
:1015700020469847656038BD38B505462C68002C74
:10158000FCD028462146FFF7DBFF2469002CF8D168
:10159000F4E700BF08B50148FFF7EEFFEC97FF1F27
:1015A00010B44FF47A7404FB01F10160C2600022B0
:1015B000426002615DF8044B704700BF0161002288
:1015C00002730270704700BF01617047037B0B2BF1
:1015D00007D05A1CD2B20273C15400238354012095
:1015E00070470020704700BF0023037303707047EB
:1015F00010B401690A78047800237AB9D4F10100A3
:1016000038BF00200DE011F8012F10F8014F013311
:101610000B2BF2D1002004E0002002E0A242F2D025
:10162000FAE75DF8044B70472DE9F0419CB006469F
:101630000024DFF874800546335D04F80830013477
:1016400028461CF045F9A042F6D26846FFF730FE66
:1016500028461CF03DF90246134D68462946FFF71F
:1016600051FE684611492022FFF74CFE6846294684
:10167000FFF76CFE0E4C22782878234629461E344C
:1016800004E0824214BF0020012009E0824206D11A
:1016900013F8012F11F8010FA342F7D1F1E7002051
:1016A0001CB0BDE8F08100BF7098FF1FF097FF1FCE
:1016B0003098FF1F10B40C4C22780C480178234658
:1016C0001E3404E08A4214BF0020012009E08A424F
:1016D00006D113F8012F10F8011FA342F7D1F1E74B
:1016E00000205DF8044B70475098FF1F7098FF1F53
:1016F00010B40E4C22780E48017823461E3407E0C1
:101700008A4218BF00200DD101200A4B187009E051
:101710008A4206D113F8012F10F8011FA342F7D116
:10172000EEE700205DF8044B704700BF1098FF1FE4
:101730007098FF1FC8A1FF1F08B511F08DF908BDF3
:1017400070B40546064C0FCCE86429656A65AB6544
:101750002068E86500232B6685F8483070BC704728
:101760008C8CFF1F2DE9F00F86B0C36C0193076DC1
:101770000297436D0393876D0497C36D05931E46CF
:101780003C460399DDF808C0019D0E220023DFF8D6
:1017900008A1DFF808912CE00F2B24D903F00F06E5
:1017A00000EB860602F00F0808F1020850F82880C6
:1017B000B76887EA0808A2F1050B0BF00F0B0BF1D5
:1017C000020B50F82BB088EA0B08A2F10B0B0BF0C0
:1017D0000F0B0BF1020B50F82BB088EA0B084FEA05
:1017E000F878C6F80880013226460C466146AC46B9
:1017F000009D132B0CD884EA010808EA0C0888EA3B
:10180000040808F1B54808F51E3808F299181FE0D9
:10181000272B05D884EA010888EA0C08C84417E099
:101820003B2B09D84CEA010808EA04080CEA010736
:1018300048EA0708D0440BE084EA010888EA0C086B
:1018400008F14A4808F5C50808F5834808F1560824
:1018500003F00F07023750F8277007EBF56747448E
:10186000BE1900964FEABC0C0133DBB2502B93D16A
:10187000019B3344C364029B1D440565039B634481
:101880004365049F39448165059B1C44C46506B0CB
:10189000BDE8F00F704700BFDCBC1B8FA1EBD96E19
:1018A00010B5044690F8483083F0030202441172E8
:1018B0000133DBB280F84830402B04D1FFF752FFF0
:1018C000002384F8483010BD08B5026E013202666C
:1018D000FFF7E6FF012008BD38B504468021FFF779
:1018E000DFFF94F84830382B08D0002520462946E1
:1018F000FFF7D6FF94F84830382BF7D12046002167
:10190000FFF7CEFF20460021FFF7CAFF2046002147
:10191000FFF7C6FF216E2046490FFFF7C1FF216E7A
:101920002046C1F34751FFF7BBFF216E2046C1F3AC
:101930004731FFF7B5FF216E2046C1F34711FFF78E
:10194000AFFF236ED900204601F0F801FFF7A8FF92
:1019500038BD00BF38B50546FFF7BEFF2A46002157
:10196000D36C1C0E44EA0364180200F47F000443A5
:101970001B0A03F47F432343D36401310432052956
:10198000EED105F14C0038BDF8B505460C461646BB
:1019900000F164073846002140221BF093FC402EE2
:1019A0001ADD2846FFF7CCFE46B126442B681B689B
:1019B000284614F8011B9847B442F7D12846FFF790
:1019C000C9FF036844688168C2686B667C60B9605F
:1019D000FA6003693B6104E038462146324610F064
:1019E00045FB2846FFF7ACFE05F1630405F1A306AD
:1019F0002B6814F8011F1B68284681F036019847B0
:101A0000B442F5D1F8BD00BF70B50546FFF7A2FF9F
:101A1000026846688468C168C5F8A420C5F8A86053
:101A2000C5F8AC40C5F8B0100269C5F8B420284626
:101A3000FFF786FE05F1630405F1A3062B6814F891
:101A4000011F1B68284681F05C019847B442F5D11C
:101A500005F114062C462B681B68284694F8A41040
:101A600098470134B442F6D12846FFF773FF70BDA2
:101A7000024B00221A71024A1A6070479098FF1FA9
:101A8000000B020001604260704700BF70B5044661
:101A9000224B83FB01230B44C917C1EB2311816047
:101AA0000025057345738573C5730B0E03740B1402
:101AB00043740B128374C174194E304621686268F6
:101AC000FFF762FF33685B68304604F10C010822BF
:101AD00098473046FFF798FF6061C27C02F00F0222
:101AE000A261E5612B461044E2691202E261C15C29
:101AF0000A43E2610133042BF6D122F00043094A84
:101B000082FB03129214084901FB1232E261203475
:101B1000204606491BF03CFE204670BD8988888817
:101B20009098FF1F83DE1B4340420F00080B02000A
:101B3000074B1860074B1B681844074B18600222BC
:101B4000064B1A70064B1A68064B1A60704700BFA6
:101B50004899FF1FA08CFF1F5899FF1F4C99FF1F2A
:101B600020B5FF1F5499FF1F10B51C4B1A681C4B62
:101B70001B68D21AB2F57A7F11D31A4A1268013261
:101B8000164C03F57A732168501CC91AB1F57A7F97
:101B900001D30246F5E713490A60114A1360124B5C
:101BA0001A68104B1B689A4214D8104B1B688BB1F3
:101BB000984710B1FFF7BCFF0CE00D4B1A68094BBA
:101BC0001B681A44084B1A600A4B1A78003218BF77
:101BD00001221A70034B186810BD00BF20B5FF1F0B
:101BE0005499FF1F4899FF1F5899FF1F5099FF1FD5
:101BF000A08CFF1F4C99FF1F08B5FFF7B5FF014BE5
:101C0000187808BD4C99FF1F70B516464AB10E44AE
:101C10000C46451A204610F059FF28550134B442AD
:101C2000F8D170BD70B5154642B10C46461A204633
:101C3000315D10F05FFF0134013DF8D170BD00BF90
:101C400008B540F294610122FFF7DEFF012008BDD4
:101C500008B540F294610122FFF7E4FF08BD00BF20
:101C600008B540F295610122FFF7CEFF012008BDC3
:101C700008B540F295610122FFF7D4FF08BD00BF0F
:101C800008B540F296610122FFF7BEFF012008BDB2
:101C900008B540F296610122FFF7C4FF08BD00BFFE
:101CA00008B540F297610122FFF7AEFF012008BDA1
:101CB00008B540F297610122FFF7B4FF08BD00BFED
:101CC00008B54FF4D3610122FFF79EFF012008BD44
:101CD00008B54FF4D3610122FFF7A4FF08BD00BF90
:101CE00008B540F299610122FFF78EFF012008BD7F
:101CF00008B540F299610122FFF794FF08BD00BFCB
:101D000008B540F29A610122FFF77EFF012008BD6D
:101D100008B540F29A610122FFF784FF08BD00BFB9
:101D200008B540F291610222FFF76EFF022008BD64
:101D300008B540F291610222FFF774FF08BD00BFB1
:101D400008B540F293610122FFF75EFF012008BD54
:101D500008B540F293610122FFF764FF08BD00BFA0
:101D600008B54FF4BE610122FFF74EFF012008BD08
:101D700008B54FF4BE610122FFF754FF08BD00BF54
:101D800008B540F2F1510122FFF73EFF012008BDE6
:101D900008B540F2F1510122FFF744FF08BD00BF32
:101DA00008B540F2F2510122FFF72EFF012008BDD5
:101DB00008B540F2F2510122FFF734FF08BD00BF21
:101DC00008B540F2F3510122FFF71EFF012008BDC4
:101DD00008B540F2F3510122FFF724FF08BD00BF10
:101DE00008B540F2F4510122FFF70EFF012008BDB3
:101DF00008B540F2F4510122FFF714FF08BD00BFFF
:101E000008B540F2F5510122FFF7FEFE012008BDA2
:101E100008B540F2F5510122FFF704FF08BD00BFED
:101E200008B540F2F6510122FFF7EEFE012008BD91
:101E300008B540F2F6510122FFF7F4FE08BD00BFDD
:101E400008B540F2F7510122FFF7DEFE012008BD80
:101E500008B540F2F7510122FFF7E4FE08BD00BFCC
:101E600008B54FF4BF610122FFF7CEFE012008BD87
:101E700008B54FF4BF610122FFF7D4FE08BD00BFD3
:101E800008B540F2F9510122FFF7BEFE012008BD5E
:101E900008B540F2F9510122FFF7C4FE08BD00BFAA
:101EA00008B540F2FA510122FFF7AEFE012008BD4D
:101EB00008B540F2FA510122FFF7B4FE08BD00BF99
:101EC00008B540F2FB510122FFF79EFE012008BD3C
:101ED00008B540F2FB510122FFF7A4FE08BD00BF88
:101EE00008B540F2FC510122FFF78EFE012008BD2B
:101EF00008B540F2FC510122FFF794FE08BD00BF77
:101F000008B540F2FD510122FFF77EFE012008BD19
:101F100008B540F2FD510122FFF784FE08BD00BF65
:101F200008B540F2FE510122FFF76EFE012008BD08
:101F300008B540F2FE510122FFF774FE08BD00BF54
:101F400008B540F2FF510122FFF75EFE012008BDF7
:101F500008B540F2FF510122FFF764FE08BD00BF43
:101F600008B54FF4C0610122FFF74EFE012008BD05
:101F700008B54FF4C0610122FFF754FE08BD00BF51
:101F800008B540F201610122FFF73EFE012008BDC5
:101F900008B540F201610122FFF744FE08BD00BF11
:101FA00008B540F202610122FFF72EFE012008BDB4
:101FB00008B540F202610122FFF734FE08BD00BF00
:101FC00008B540F203610122FFF71EFE012008BDA3
:101FD00008B540F203610122FFF724FE08BD00BFEF
:101FE00008B540F204610122FFF70EFE012008BD92
:101FF00008B540F204610122FFF714FE08BD00BFDE
:1020000008B540F205610122FFF7FEFD012008BD81
:1020100008B540F205610122FFF704FE08BD00BFCC
:1020200008B540F206610122FFF7EEFD012008BD70
:1020300008B540F206610122FFF7F4FD08BD00BFBC
:1020400008B540F207610122FFF7DEFD012008BD5F
:1020500008B540F207610122FFF7E4FD08BD00BFAB
:1020600008B568210122FFF7CFFD012008BD00BFA0
:1020700008B568210122FFF7D5FD08BD08B5692123
:102080000122FFF7C1FD012008BD00BF08B569218D
:102090000122FFF7C7FD08BD08B56A210122FFF73D
:1020A000B3FD012008BD00BF08B56A210122FFF77A
:1020B000B9FD08BD08B56B210122FFF7A5FD012080
:1020C00008BD00BF08B56B210122FFF7ABFD08BDBD
:1020D00008B56C210122FFF797FD012008BD00BF64
:1020E00008B56C210122FFF79DFD08BD08B56D21E3
:1020F0000122FFF789FD012008BD00BF08B56D2151
:102100000122FFF78FFD08BD08B56E210122FFF700
:102110007BFD012008BD00BF08B56E210122FFF73D
:1021200081FD08BD08B56F210122FFF76DFD01207B
:1021300008BD00BF08B56F210122FFF773FD08BD80
:1021400008B570210122FFF75FFD012008BD00BF27
:1021500008B570210122FFF765FD08BD08B57121A2
:102160000122FFF751FD012008BD00BF08B5712114
:102170000122FFF757FD08BD08B572210122FFF7C4
:1021800043FD012008BD00BF08B572210122FFF701
:1021900049FD08BD08B573210122FFF735FD012077
:1021A00008BD00BF08B573210122FFF73BFD08BD44
:1021B00008B574210122FFF727FD012008BD00BFEB
:1021C00008B574210122FFF72DFD08BD08B5752162
:1021D0000122FFF719FD012008BD00BF08B57521D8
:1021E0000122FFF71FFD08BD08B576210122FFF788
:1021F0000BFD012008BD00BF08B576210122FFF7C5
:1022000011FD08BD08B577210122FFF7FDFC012073
:1022100008BD00BF08B577210122FFF703FD08BD07
:1022200008B578210122FFF7EFFC012008BD00BFAF
:1022300008B578210122FFF7F5FC08BD08B5792122
:102240000122FFF7E1FC012008BD00BF08B579219C
:102250000122FFF7E7FC08BD08B57A210122FFF74C
:10226000D3FC012008BD00BF08B57A210122FFF789
:10227000D9FC08BD08B57B210122FFF7C5FC012070
:1022800008BD00BF08B57B210122FFF7CBFC08BDCC
:1022900008B57C210122FFF7B7FC012008BD00BF73
:1022A00008B57C210122FFF7BDFC08BD08B57D21E2
:1022B0000122FFF7A9FC012008BD00BF08B57D2160
:1022C0000122FFF7AFFC08BD08B57E210122FFF710
:1022D0009BFC012008BD00BF08B57E210122FFF74D
:1022E000A1FC08BD08B57F210122FFF78DFC01206C
:1022F00008BD00BF08B57F210122FFF793FC08BD90
:1023000008B520210122FFF77FFC012008BD00BF96
:1023100008B520210122FFF785FC08BD08B5212161
:102320000122FFF771FC012008BD00BF08B5212183
:102330000122FFF777FC08BD08B522210122FFF733
:1023400063FC012008BD00BF08B522210122FFF770
:1023500069FC08BD08B523210122FFF755FC0120C7
:1023600008BD00BF08B523210122FFF75BFC08BDB3
:1023700008B524210122FFF747FC012008BD00BF5A
:1023800008B524210122FFF74DFC08BD08B5252121
:102390000122FFF739FC012008BD00BF08B5252147
:1023A0000122FFF73FFC08BD08B526210122FFF7F7
:1023B0002BFC012008BD00BF08B526210122FFF734
:1023C00031FC08BD08B527210122FFF71DFC0120C3
:1023D00008BD00BF08B527210122FFF723FC08BD77
:1023E00008B528210122FFF70FFC012008BD00BF1E
:1023F00008B528210122FFF715FC08BD08B52921E1
:102400000122FFF701FC012008BD00BF08B529210A
:102410000122FFF707FC08BD08B52A210122FFF7BA
:10242000F3FB012008BD00BF08B52A210122FFF7F8
:10243000F9FB08BD08B52B210122FFF7E5FB0120C0
:1024400008BD00BF08B52B210122FFF7EBFB08BD3B
:1024500008B52C210122FFF7D7FB012008BD00BFE2
:1024600008B52C210122FFF7DDFB08BD08B52D21A1
:102470000122FFF7C9FB012008BD00BF08B52D21CF
:102480000122FFF7CFFB08BD08B52E210122FFF77F
:10249000BBFB012008BD00BF08B52E210122FFF7BC
:1024A000C1FB08BD08B52F210122FFF7ADFB0120BC
:1024B00008BD00BF08B52F210122FFF7B3FB08BDFF
:1024C00008B530210122FFF79FFB012008BD00BFA6
:1024D00008B530210122FFF7A5FB08BD08B5312161
:1024E0000122FFF791FB012008BD00BF08B5312193
:1024F0000122FFF797FB08BD08B532210122FFF743
:1025000083FB012008BD00BF08B532210122FFF77F
:1025100089FB08BD08B533210122FFF775FB0120B7
:1025200008BD00BF08B533210122FFF77BFB08BDC2
:1025300008B534210122FFF767FB012008BD00BF69
:1025400008B534210122FFF76DFB08BD08B5352120
:102550000122FFF759FB012008BD00BF08B5352156
:102560000122FFF75FFB08BD08B536210122FFF706
:102570004BFB012008BD00BF08B536210122FFF743
:1025800051FB08BD08B537210122FFF73DFB0120B3
:1025900008BD00BF08B537210122FFF743FB08BD86
:1025A00008B54FF4CA610122FFF72EFB012008BDD8
:1025B00008B54FF4CA610122FFF734FB08BD00BF24
:1025C00008B540F251610122FFF71EFB012008BD52
:1025D00008B540F251610122FFF724FB08BD00BF9E
:1025E00008B540F252610122FFF70EFB012008BD41
:1025F00008B540F252610122FFF714FB08BD00BF8D
:1026000008B540F253610122FFF7FEFA012008BD30
:1026100008B540F253610122FFF704FB08BD00BF7B
:1026200008B540F254610122FFF7EEFA012008BD1F
:1026300008B540F254610122FFF7F4FA08BD00BF6B
:1026400008B540F255610122FFF7DEFA012008BD0E
:1026500008B540F255610122FFF7E4FA08BD00BF5A
:1026600008B540F256610122FFF7CEFA012008BDFD
:1026700008B540F256610122FFF7D4FA08BD00BF49
:1026800008B540F257610122FFF7BEFA012008BDEC
:1026900008B540F257610122FFF7C4FA08BD00BF38
:1026A00008B54FF4CB610122FFF7AEFA012008BD57
:1026B00008B54FF4CB610122FFF7B4FA08BD00BFA3
:1026C00008B540F259610122FFF79EFA012008BDCA
:1026D00008B540F259610122FFF7A4FA08BD00BF16
:1026E00008B540F25A610122FFF78EFA012008BDB9
:1026F00008B540F25A610122FFF794FA08BD00BF05
:1027000008B540F25B610122FFF77EFA012008BDA7
:1027100008B540F25B610122FFF784FA08BD00BFF3
:1027200008B540F25C610122FFF76EFA012008BD96
:1027300008B540F25C610122FFF774FA08BD00BFE2
:1027400008B540F25D610122FFF75EFA012008BD85
:1027500008B540F25D610122FFF764FA08BD00BFD1
:1027600008B540F25E610122FFF74EFA012008BD74
:1027700008B540F25E610122FFF754FA08BD00BFC0
:1027800008B540F25F610122FFF73EFA012008BD63
:1027900008B540F25F610122FFF744FA08BD00BFAF
:1027A00008B54FF4CC610122FFF72EFA012008BDD5
:1027B00008B54FF4CC610122FFF734FA08BD00BF21
:1027C00008B540F261610122FFF71EFA012008BD41
:1027D00008B540F261610122FFF724FA08BD00BF8D
:1027E00008B540F262610122FFF70EFA012008BD30
:1027F00008B540F262610122FFF714FA08BD00BF7C
:1028000008B540F263610122FFF7FEF9012008BD1F
:1028100008B540F263610122FFF704FA08BD00BF6A
:1028200008B540F264610122FFF7EEF9012008BD0E
:1028300008B540F264610122FFF7F4F908BD00BF5A
:1028400008B540F265610122FFF7DEF9012008BDFD
:1028500008B540F265610122FFF7E4F908BD00BF49
:1028600008B540F266610122FFF7CEF9012008BDEC
:1028700008B540F266610122FFF7D4F908BD00BF38
:1028800008B540F267610122FFF7BEF9012008BDDB
:1028900008B540F267610122FFF7C4F908BD00BF27
:1028A00008B502211022FFF7AFF9102008BD00BFC4
:1028B00008B502211022FFF7B5F908BD08B51E21A1
:1028C0000222FFF7A1F9022008BD00BF08B51E21B2
:1028D0000222FFF7A7F908BD08B518210622FFF765
:1028E00093F9062008BD00BF08B518210622FFF79E
:1028F00099F908BD08B512210622FFF785F90620CF
:1029000008BD00BF08B512210622FFF78BF908BDEC
:1029100030B583B004460139172900F2B081DFE8F1
:1029200011F018002800380049005A006B007C00A4
:102930008D009E00AF00C000D100E200F300040152
:10294000150126013701480159016A017B018C01FB
:102950009D010DF10700FFF703FA9DF80750382D90
:10296000A8BF38252046B0213822FFF74DF9284668
:1029700086E10DF10700FFF703FA9DF80750382DA7
:10298000A8BF38252046E8213822FFF73DF9284620
:1029900076E10DF10700FFF703FA9DF80750382D97
:1029A000A8BF382520464FF490713822FFF72CF944
:1029B000284665E10DF10700FFF702FA9DF8075080
:1029C000382DA8BF382520464FF4AC713822FFF7C8
:1029D0001BF9284654E10DF10700FFF701FA9DF8B5
:1029E0000750382DA8BF382520464FF4C87138222B
:1029F000FFF70AF9284643E10DF10700FFF700FA57
:102A00009DF80750382DA8BF382520464FF4E471B3
:102A10003822FFF7F9F8284632E10DF10700FFF7F9
:102A2000FFF99DF80750382DA8BF382520464FF4F0
:102A300000713822FFF7E8F8284621E10DF1070080
:102A4000FFF7FEF99DF80750382DA8BF382520461E
:102A50004FF40E713822FFF7D7F8284610E10DF138
:102A60000700FFF7FDF99DF80750382DA8BF38255E
:102A700020464FF41C713822FFF7C6F82846FFE0C5
:102A80000DF10700FFF7FCF99DF80750382DA8BF9E
:102A9000382520464FF42A713822FFF7B5F828462A
:102AA000EEE00DF10700FFF7FBF99DF80750382D18
:102AB000A8BF382520464FF438713822FFF7A4F814
:102AC0002846DDE00DF10700FFF7FAF99DF8075001
:102AD000382DA8BF382520464FF446713822FFF71D
:102AE00093F82846CCE00DF10700FFF7F9F99DF8BF
:102AF0000750382DA8BF382520464FF4547138228E
:102B0000FFF782F82846BBE00DF10700FFF7F8F960
:102B10009DF80750382DA8BF382520464FF4627124
:102B20003822FFF771F82846AAE00DF10700FFF7F9
:102B3000F7F99DF80750382DA8BF382520464FF4E7
:102B400070713822FFF760F8284699E00DF1070010
:102B5000FFF7F6F99DF80750382DA8BF3825204615
:102B60004FF47E713822FFF74FF8284688E00DF1C8
:102B70000700FFF7F5F99DF80750382DA8BF382555
:102B800020464FF486613822FFF73EF8284677E06A
:102B90000DF10700FFF7F4F99DF80750382DA8BF95
:102BA000382520464FF48D613822FFF72DF828464E
:102BB00066E00DF10700FFF7F3F99DF80750382D97
:102BC000A8BF382520464FF494613822FFF71CF83F
:102BD000284655E00DF10700FFF7F2F99DF8075080
:102BE000382DA8BF382520464FF49B613822FFF7C7
:102BF0000BF8284644E00DF10700FFF7F1F99DF8C6
:102C00000750382DA8BF382520464FF4A26138223E
:102C1000FEF7FAFF284633E00DF10700FFF7F0F961
:102C20009DF80750382DA8BF382520464FF4A961DC
:102C30003822FEF7E9FF284622E00DF10700FFF7F2
:102C4000EFF99DF80750382DA8BF382520464FF4DE
:102C5000B0613822FEF7D8FF284611E00DF10700D9
:102C6000FFF7EEF99DF80750382DA8BF382520460C
:102C70004FF4B7613822FEF7C7FF284600E0002076
:102C800003B030BD10B582B00C46013A172A00F2ED
:102C90006781DFE812F018002500320040004E0086
:102CA0005C006A00780086009400A200B000BE00BC
:102CB000CC00DA00E800F6000401120120012E0128
:102CC0003C014A015801B0213822FEF7ABFF382CF5
:102CD000A8BF382402A800F8014DFFF749F83FE1EA
:102CE000E8213822FEF79EFF382CA8BF382402A81E
:102CF00000F8014DFFF74CF832E14FF490713822A3
:102D0000FEF790FF382CA8BF382402A800F8014D28
:102D1000FFF74EF824E14FF4AC713822FEF782FF42
:102D2000382CA8BF382402A800F8014DFFF750F84E
:102D300016E14FF4C8713822FEF774FF382CA8BF93
:102D4000382402A800F8014DFFF752F808E14FF4CB
:102D5000E4713822FEF766FF382CA8BF382402A899
:102D600000F8014DFFF754F8FAE04FF400713822F3
:102D7000FEF758FF382CA8BF382402A800F8014DF0
:102D8000FFF756F8ECE04FF40E713822FEF74AFFD9
:102D9000382CA8BF382402A800F8014DFFF758F8D6
:102DA000DEE04FF41C713822FEF73CFF382CA8BF40
:102DB000382402A800F8014DFFF75AF8D0E04FF48C
:102DC0002A713822FEF72EFF382CA8BF382402A81B
:102DD00000F8014DFFF75CF8C2E04FF4387138227B
:102DE000FEF720FF382CA8BF382402A800F8014DB8
:102DF000FFF75EF8B4E04FF446713822FEF712FF99
:102E0000382CA8BF382402A800F8014DFFF760F85D
:102E1000A6E04FF454713822FEF704FF382CA8BF07
:102E2000382402A800F8014DFFF762F898E04FF44B
:102E300062713822FEF7F6FE382CA8BF382402A8AB
:102E400000F8014DFFF764F88AE04FF47071382202
:102E5000FEF7E8FE382CA8BF382402A800F8014D80
:102E6000FFF766F87CE04FF47E713822FEF7DAFE59
:102E7000382CA8BF382402A800F8014DFFF768F8E5
:102E80006EE04FF486613822FEF7CCFE382CA8BFE6
:102E9000382402A800F8014DFFF76AF860E04FF40B
:102EA0008D613822FEF7BEFE382CA8BF382402A858
:102EB00000F8014DFFF76CF852E04FF494613822AE
:102EC000FEF7B0FE382CA8BF382402A800F8014D48
:102ED000FFF76EF844E04FF49B613822FEF7A2FE44
:102EE000382CA8BF382402A800F8014DFFF770F86D
:102EF00036E04FF4A2613822FEF794FE382CA8BFCA
:102F0000382402A800F8014DFFF772F828E04FF4CA
:102F1000A9613822FEF786FE382CA8BF382402A803
:102F200000F8014DFFF774F81AE04FF4B061382251
:102F3000FEF778FE382CA8BF382402A800F8014D0F
:102F4000FFF776F80CE04FF4B7613822FEF76AFE1F
:102F5000382CA8BF382402A800F8014DFFF778F8F4
:102F600002B010BD08B50139172900F29E80DFE8D4
:102F700001F00C12181E242A30363C42484E545A96
:102F800060666C72787E848A909638210122FEF702
:102F90003BFE012008BD39210122FEF735FE01204C
:102FA00008BD3A210122FEF72FFE012008BD3B217A
:102FB0000122FEF729FE012008BD3C210122FEF777
:102FC00023FE012008BD3D210122FEF71DFE012048
:102FD00008BD3E210122FEF717FE012008BD3F215A
:102FE0000122FEF711FE012008BD40210122FEF75B
:102FF0000BFE012008BD41210122FEF705FE012044
:1030000008BD42210122FEF7FFFD012008BD43213A
:103010000122FEF7F9FD012008BD44210122FEF73F
:10302000F3FD012008BD45210122FEF7EDFD012041
:1030300008BD46210122FEF7E7FD012008BD47211A
:103040000122FEF7E1FD012008BD48210122FEF723
:10305000DBFD012008BD49210122FEF7D5FD01203D
:1030600008BD4A210122FEF7CFFD012008BD4B21FA
:103070000122FEF7C9FD012008BD4C210122FEF707
:10308000C3FD012008BD4D210122FEF7BDFD012039
:1030900008BD4E210122FEF7B7FD012008BD4F21DA
:1030A0000122FEF7B1FD012008BD002008BD00BFD0
:1030B00008B50139172900F28580DFE801F00C110D
:1030C000161B20252A2F34393E43484D52575C6148
:1030D000666B70757A7F38210122FEF7A3FD08BD6B
:1030E00039210122FEF79EFD08BD3A210122FEF79B
:1030F00099FD08BD3B210122FEF794FD08BD3C214E
:103100000122FEF78FFD08BD3D210122FEF78AFD59
:1031100008BD3E210122FEF785FD08BD3F210122A9
:10312000FEF780FD08BD40210122FEF77BFD08BDB2
:1031300041210122FEF776FD08BD42210122FEF762
:1031400071FD08BD43210122FEF76CFD08BD44213D
:103150000122FEF767FD08BD45210122FEF762FD51
:1031600008BD46210122FEF75DFD08BD4721012271
:10317000FEF758FD08BD48210122FEF753FD08BDAA
:1031800049210122FEF74EFD08BD4A210122FEF72A
:1031900049FD08BD4B210122FEF744FD08BD4C212D
:1031A0000122FEF73FFD08BD4D210122FEF73AFD49
:1031B00008BD4E210122FEF735FD08BD4F21012239
:1031C000FEF730FD08BD00BF08B50139172900F230
:1031D0009E80DFE801F00C12181E242A30363C4293
:1031E000484E545A60666C72787E848A909680212C
:1031F0000122FEF709FD012008BD81210122FEF711
:1032000003FD012008BD82210122FEF7FDFC012003
:1032100008BD83210122FEF7F7FC012008BD8421AF
:103220000122FEF7F1FC012008BD85210122FEF7F5
:10323000EBFC012008BD86210122FEF7E5FC012000
:1032400008BD87210122FEF7DFFC012008BD88218F
:103250000122FEF7D9FC012008BD89210122FEF7D9
:10326000D3FC012008BD8A210122FEF7CDFC0120FC
:1032700008BD8B210122FEF7C7FC012008BD8C216F
:103280000122FEF7C1FC012008BD8D210122FEF7BD
:10329000BBFC012008BD8E210122FEF7B5FC0120F8
:1032A00008BD8F210122FEF7AFFC012008BD90214F
:1032B0000122FEF7A9FC012008BD91210122FEF7A1
:1032C000A3FC012008BD92210122FEF79DFC0120F4
:1032D00008BD93210122FEF797FC012008BD94212F
:1032E0000122FEF791FC012008BD95210122FEF785
:1032F0008BFC012008BD96210122FEF785FC0120F0
:1033000008BD97210122FEF77FFC012008BD0020A7
:1033100008BD00BF08B50139172900F28580DFE834
:1033200001F00C11161B20252A2F34393E43484D3D
:1033300052575C61666B70757A7F80210122FEF7BF
:1033400071FC08BD81210122FEF76CFC08BD8221C1
:103350000122FEF767FC08BD83210122FEF762FC13
:1033600008BD84210122FEF75DFC08BD85210122F4
:10337000FEF758FC08BD86210122FEF753FC08BD6C
:1033800087210122FEF74EFC08BD88210122FEF7AD
:1033900049FC08BD89210122FEF744FC08BD8A21B1
:1033A0000122FEF73FFC08BD8B210122FEF73AFC0B
:1033B00008BD8C210122FEF735FC08BD8D210122BC
:1033C000FEF730FC08BD8E210122FEF72BFC08BD64
:1033D0008F210122FEF726FC08BD90210122FEF775
:1033E00021FC08BD91210122FEF71CFC08BD9221A1
:1033F0000122FEF717FC08BD93210122FEF712FC03
:1034000008BD94210122FEF70DFC08BD9521012283
:10341000FEF708FC08BD96210122FEF703FC08BD5B
:1034200097210122FEF7FEFB08BD00BF08B5013958
:10343000172900F2B680DFE801F00C131A21282FBB
:10344000363D444B525960676E757C838A91989FD4
:10345000A6AD4FF4C1610122FEF7D6FB012008BDE5
:1034600040F209610122FEF7CFFB012008BD40F2C6
:103470000A610122FEF7C8FB012008BD40F20B6182
:103480000122FEF7C1FB012008BD40F20C610122C0
:10349000FEF7BAFB012008BD40F20D610122FEF7E4
:1034A000B3FB012008BD40F20E610122FEF7ACFB28
:1034B000012008BD40F20F610122FEF7A5FB0120AB
:1034C00008BD4FF4C2610122FEF79EFB012008BD3A
:1034D00040F211610122FEF797FB012008BD40F286
:1034E00012610122FEF790FB012008BD40F213613A
:1034F0000122FEF789FB012008BD40F21461012280
:10350000FEF782FB012008BD40F215610122FEF7A3
:103510007BFB012008BD40F216610122FEF774FB1F
:10352000012008BD40F217610122FEF76DFB01206A
:1035300008BD4FF4C3610122FEF766FB012008BD00
:1035400040F219610122FEF75FFB012008BD40F245
:103550001A610122FEF758FB012008BD40F21B61F1
:103560000122FEF751FB012008BD40F21C6101223F
:10357000FEF74AFB012008BD40F21D610122FEF763
:1035800043FB012008BD40F21E610122FEF73CFB17
:10359000012008BD40F21F610122FEF735FB01202A
:1035A00008BD002008BD00BF08B50139172900F289
:1035B0009D80DFE801F00C12181E242A30363C42B0
:1035C000484E545A60666C72787E848A90964FF4A6
:1035D000C1610122FEF726FB08BD40F2096101220C
:1035E000FEF720FB08BD40F20A610122FEF71AFB3C
:1035F00008BD40F20B610122FEF714FB08BD40F24A
:103600000C610122FEF70EFB08BD40F20D610122A4
:10361000FEF708FB08BD40F20E610122FEF702FB37
:1036200008BD40F20F610122FEF7FCFA08BD4FF41D
:10363000C2610122FEF7F6FA08BD40F211610122D3
:10364000FEF7F0FA08BD40F212610122FEF7EAFA35
:1036500008BD40F213610122FEF7E4FA08BD40F212
:1036600014610122FEF7DEFA08BD40F21561012265
:10367000FEF7D8FA08BD40F216610122FEF7D2FA31
:1036800008BD40F217610122FEF7CCFA08BD4FF4E5
:10369000C3610122FEF7C6FA08BD40F2196101229A
:1036A000FEF7C0FA08BD40F21A610122FEF7BAFA2D
:1036B00008BD40F21B610122FEF7B4FA08BD40F2DA
:1036C0001C610122FEF7AEFA08BD40F21D61012225
:1036D000FEF7A8FA08BD40F21E610122FEF7A2FA29
:1036E00008BD40F21F610122FEF79CFA08BD00BF31
:1036F00008B50139172900F29E80DFE801F00C12AD
:10370000181E242A30363C42484E545A60666C7269
:10371000787E848A909650210122FEF775FA012066
:1037200008BD51210122FEF76FFA012008BD522188
:103730000122FEF769FA012008BD53210122FEF79C
:1037400063FA012008BD54210122FEF75DFA012031
:1037500008BD55210122FEF757FA012008BD562168
:103760000122FEF751FA012008BD57210122FEF780
:103770004BFA012008BD58210122FEF745FA01202D
:1037800008BD59210122FEF73FFA012008BD5A2148
:103790000122FEF739FA012008BD5B210122FEF764
:1037A00033FA012008BD5C210122FEF72DFA012029
:1037B00008BD5D210122FEF727FA012008BD5E2128
:1037C0000122FEF721FA012008BD5F210122FEF748
:1037D0001BFA012008BD60210122FEF715FA012025
:1037E00008BD61210122FEF70FFA012008BD622108
:1037F0000122FEF709FA012008BD63210122FEF72C
:1038000003FA012008BD64210122FEF7FDF9012021
:1038100008BD65210122FEF7F7F9012008BD6621E8
:103820000122FEF7F1F9012008BD67210122FEF710
:10383000EBF9012008BD002008BD00BF08B5013923
:10384000172900F28580DFE801F00C11161B2025F6
:103850002A2F34393E43484D52575C61666B707570
:103860007A7F50210122FEF7DDF908BD51210122A6
:10387000FEF7D8F908BD52210122FEF7D3F908BDA1
:1038800053210122FEF7CEF908BD54210122FEF793
:10389000C9F908BD55210122FEF7C4F908BD56211A
:1038A0000122FEF7BFF908BD57210122FEF7BAF940
:1038B00008BD58210122FEF7B5F908BD59210122A2
:1038C000FEF7B0F908BD5A210122FEF7ABF908BD99
:1038D0005B210122FEF7A6F908BD5C210122FEF75B
:1038E000A1F908BD5D210122FEF79CF908BD5E210A
:1038F0000122FEF797F908BD5F210122FEF792F938
:1039000008BD60210122FEF78DF908BD6121012269
:10391000FEF788F908BD62210122FEF783F908BD90
:1039200063210122FEF77EF908BD64210122FEF722
:1039300079F908BD65210122FEF774F908BD6621F9
:103940000122FEF76FF908BD67210122FEF76AF92F
:1039500008BD00BF08B50139172900F29E80DFE8D5
:1039600001F00C12181E242A30363C42484E545A9C
:1039700060666C72787E848A909698210122FEF7A8
:1039800043F9012008BD99210122FEF73DF90120EC
:1039900008BD9A210122FEF737F9012008BD9B21BD
:1039A0000122FEF731F9012008BD9C210122FEF71A
:1039B0002BF9012008BD9D210122FEF725F90120E8
:1039C00008BD9E210122FEF71FF9012008BD9F219D
:1039D0000122FEF719F9012008BDA0210122FEF7FE
:1039E00013F9012008BDA1210122FEF70DF90120E4
:1039F00008BDA2210122FEF707F9012008BDA3217D
:103A00000122FEF701F9012008BDA4210122FEF7E1
:103A1000FBF8012008BDA5210122FEF7F5F80120E1
:103A200008BDA6210122FEF7EFF8012008BDA7215D
:103A30000122FEF7E9F8012008BDA8210122FEF7C6
:103A4000E3F8012008BDA9210122FEF7DDF80120DD
:103A500008BDAA210122FEF7D7F8012008BDAB213D
:103A60000122FEF7D1F8012008BDAC210122FEF7AA
:103A7000CBF8012008BDAD210122FEF7C5F80120D9
:103A800008BDAE210122FEF7BFF8012008BDAF211D
:103A90000122FEF7B9F8012008BD002008BD00BFD3
:103AA00008B50139172900F28580DFE801F00C1113
:103AB000161B20252A2F34393E43484D52575C614E
:103AC000666B70757A7F98210122FEF7ABF808BD0E
:103AD00099210122FEF7A6F808BD9A210122FEF7DE
:103AE000A1F808BD9B210122FEF79CF808BD9C218E
:103AF0000122FEF797F808BD9D210122FEF792F8FA
:103B000008BD9E210122FEF78DF808BD9F210122EC
:103B1000FEF788F808BDA0210122FEF783F808BD52
:103B2000A1210122FEF77EF808BDA2210122FEF7A5
:103B300079F808BDA3210122FEF774F808BDA4217D
:103B40000122FEF76FF808BDA5210122FEF76AF8F1
:103B500008BDA6210122FEF765F808BDA7210122B4
:103B6000FEF760F808BDA8210122FEF75BF808BD4A
:103B7000A9210122FEF756F808BDAA210122FEF76D
:103B800051F808BDAB210122FEF74CF808BDAC216D
:103B90000122FEF747F808BDAD210122FEF742F8E9
:103BA00008BDAE210122FEF73DF808BDAF2101227C
:103BB000FEF738F808BD00BF08B50139172900F233
:103BC000B680DFE801F00C131A21282F363D444B54
:103BD000525960676E757C838A91989FA6AD4FF4A9
:103BE000C4610122FEF710F8012008BD40F22161F6
:103BF0000122FEF709F8012008BD40F222610122EE
:103C0000FEF702F8012008BD40F223610122FDF712
:103C1000FBFF012008BD40F224610122FDF7F4FF03
:103C2000012008BD40F225610122FDF7EDFF0120D2
:103C300008BD40F226610122FDF7E6FF012008BD24
:103C400040F227610122FDF7DFFF012008BD4FF49C
:103C5000C5610122FDF7D8FF012008BD40F22961AE
:103C60000122FDF7D1FF012008BD40F22A610122A7
:103C7000FDF7CAFF012008BD40F22B610122FDF7CC
:103C8000C3FF012008BD40F22C610122FDF7BCFFFB
:103C9000012008BD40F22D610122FDF7B5FF012092
:103CA00008BD40F22E610122FDF7AEFF012008BDE4
:103CB00040F22F610122FDF7A7FF012008BD4FF45C
:103CC000C6610122FDF7A0FF012008BD40F231616D
:103CD0000122FDF799FF012008BD40F23261012267
:103CE000FDF792FF012008BD40F233610122FDF78C
:103CF0008BFF012008BD40F234610122FDF784FFF3
:103D0000012008BD40F235610122FDF77DFF012051
:103D100008BD40F236610122FDF776FF012008BDA3
:103D200040F237610122FDF76FFF012008BD00203E
:103D300008BD00BF08B50139172900F29D80DFE8F2
:103D400001F00C12181E242A30363C42484E545AB8
:103D500060666C72787E848A90964FF4C46101220A
:103D6000FDF760FF08BD40F221610122FDF75AFF17
:103D700008BD40F222610122FDF754FF08BD40F268
:103D800023610122FDF74EFF08BD40F224610122AC
:103D9000FDF748FF08BD40F225610122FDF742FF13
:103DA00008BD40F226610122FDF73CFF08BD40F24C
:103DB00027610122FDF736FF08BD4FF4C5610122DE
:103DC000FDF730FF08BD40F229610122FDF72AFF0F
:103DD00008BD40F22A610122FDF724FF08BD40F230
:103DE0002B610122FDF71EFF08BD40F22C6101226C
:103DF000FDF718FF08BD40F22D610122FDF712FF0B
:103E000008BD40F22E610122FDF70CFF08BD40F213
:103E10002F610122FDF706FF08BD4FF4C6610122A4
:103E2000FDF700FF08BD40F231610122FDF7FAFE07
:103E300008BD40F232610122FDF7F4FE08BD40F2F8
:103E400033610122FDF7EEFE08BD40F2346101222C
:103E5000FDF7E8FE08BD40F235610122FDF7E2FE04
:103E600008BD40F236610122FDF7DCFE08BD40F2DC
:103E700037610122FDF7D6FE08BD00BF08B5013944
:103E8000172900F2B680DFE801F00C131A21282F61
:103E9000363D444B525960676E757C838A91989F7A
:103EA000A6AD4FF4C7610122FDF7AEFE012008BDAB
:103EB00040F239610122FDF7A7FE012008BD40F262
:103EC0003A610122FDF7A0FE012008BD40F23B61EE
:103ED0000122FDF799FE012008BD40F23C6101225C
:103EE000FDF792FE012008BD40F23D610122FDF781
:103EF0008BFE012008BD40F23E610122FDF784FEE9
:103F0000012008BD40F23F610122FDF77DFE012046
:103F100008BD4FF4C8610122FDF776FE012008BDFF
:103F200040F241610122FDF76FFE012008BD40F221
:103F300042610122FDF768FE012008BD40F24361A5
:103F40000122FDF761FE012008BD40F2446101221B
:103F5000FDF75AFE012008BD40F245610122FDF740
:103F600053FE012008BD40F246610122FDF74CFEE0
:103F7000012008BD40F247610122FDF745FE012006
:103F800008BD4FF4C9610122FDF73EFE012008BDC6
:103F900040F249610122FDF737FE012008BD40F2E1
:103FA0004A610122FDF730FE012008BD40F24B615D
:103FB0000122FDF729FE012008BD40F24C610122DB
:103FC000FDF722FE012008BD40F24D610122FDF700
:103FD0001BFE012008BD40F24E610122FDF714FED8
:103FE000012008BD40F24F610122FDF70DFE0120C6
:103FF00008BD002008BD00BF08B50139172900F22F
:104000009D80DFE801F00C12181E242A30363C4255
:10401000484E545A60666C72787E848A90964FF44B
:10402000C7610122FDF7FEFD08BD40F239610122A2
:10403000FDF7F8FD08BD40F23A610122FDF7F2FDFF
:1040400008BD40F23B610122FDF7ECFD08BD40F2E6
:104050003C610122FDF7E6FD08BD40F23D61012211
:10406000FDF7E0FD08BD40F23E610122FDF7DAFDFB
:1040700008BD40F23F610122FDF7D4FD08BD4FF4B9
:10408000C8610122FDF7CEFD08BD40F24161012269
:10409000FDF7C8FD08BD40F242610122FDF7C2FDF7
:1040A00008BD40F243610122FDF7BCFD08BD40F2AE
:1040B00044610122FDF7B6FD08BD40F245610122D1
:1040C000FDF7B0FD08BD40F246610122FDF7AAFDF3
:1040D00008BD40F247610122FDF7A4FD08BD4FF481
:1040E000C9610122FDF79EFD08BD40F24961012230
:1040F000FDF798FD08BD40F24A610122FDF792FDEF
:1041000008BD40F24B610122FDF78CFD08BD40F275
:104110004C610122FDF786FD08BD40F24D61012290
:10412000FDF780FD08BD40F24E610122FDF77AFDEA
:1041300008BD40F24F610122FDF774FD08BD00BFCC
:1041400008B565391F2900F20281DFE811F020006F
:1041500027002E0035003C0043004A005100580063
:104160005F0066006D0074007B0082008900900093
:1041700097009E00A500AC00B300BA00C100C800C3
:10418000CF00D600DD00E400EB00F200F9004FF4B0
:10419000CD610122FDF738FD012008BD40F26961C3
:1041A0000122FDF731FD012008BD40F26A610122C4
:1041B000FDF72AFD012008BD40F26B610122FDF7E9
:1041C00023FD012008BD40F26C610122FDF71CFDBA
:1041D000012008BD40F26D610122FDF715FD0120AF
:1041E00008BD40F26E610122FDF70EFD012008BD01
:1041F00040F26F610122FDF707FD012008BD4FF479
:10420000CE610122FDF700FD012008BD40F2716181
:104210000122FDF7F9FC012008BD40F27261012284
:10422000FDF7F2FC012008BD40F273610122FDF7A9
:10423000EBFC012008BD40F274610122FDF7E4FCB3
:10424000012008BD40F275610122FDF7DDFC01206F
:1042500008BD40F276610122FDF7D6FC012008BDC1
:1042600040F277610122FDF7CFFC012008BD4FF439
:10427000CF610122FDF7C8FC012008BD40F2796141
:104280000122FDF7C1FC012008BD40F27A61012244
:10429000FDF7BAFC012008BD40F27B610122FDF769
:1042A000B3FC012008BD40F27C610122FDF7ACFCAB
:1042B000012008BD40F27D610122FDF7A5FC01202F
:1042C00008BD40F27E610122FDF79EFC012008BD81
:1042D00040F27F610122FDF797FC012008BD4FF4F9
:1042E000D0610122FDF790FC012008BD40F2816100
:1042F0000122FDF789FC012008BD40F28261012204
:10430000FDF782FC012008BD40F283610122FDF728
:104310007BFC012008BD40F284610122FDF774FCA2
:10432000012008BD40F285610122FDF76DFC0120EE
:1043300008BD40F286610122FDF766FC012008BD40
:1043400040F287610122FDF75FFC012008BD0020DB
:1043500008BD00BF08B565391F2900F2D180DFE82C
:1043600001F010161C22282E343A40464C52585E5A
:10437000646A70767C82888E949AA0A6ACB2B8BE2D
:10438000C4CA4FF4CD610122FDF74CFC08BD40F2D8
:1043900069610122FDF746FC08BD40F26A61012215
:1043A000FDF740FC08BD40F26B610122FDF73AFCCD
:1043B00008BD40F26C610122FDF734FC08BD40F2FB
:1043C0006D610122FDF72EFC08BD40F26E610122F5
:1043D000FDF728FC08BD40F26F610122FDF722FCC9
:1043E00008BD4FF4CE610122FDF71CFC08BD40F270
:1043F00071610122FDF716FC08BD40F272610122D5
:10440000FDF710FC08BD40F273610122FDF70AFCC4
:1044100008BD40F274610122FDF704FC08BD40F2C2
:1044200075610122FDF7FEFB08BD40F276610122B5
:10443000FDF7F8FB08BD40F277610122FDF7F2FBC2
:1044400008BD4FF4CF610122FDF7ECFB08BD40F23F
:1044500079610122FDF7E6FB08BD40F27A61012295
:10446000FDF7E0FB08BD40F27B610122FDF7DAFBBE
:1044700008BD40F27C610122FDF7D4FB08BD40F28B
:104480007D610122FDF7CEFB08BD40F27E61012275
:10449000FDF7C8FB08BD40F27F610122FDF7C2FBBA
:1044A00008BD4FF4D0610122FDF7BCFB08BD40F20E
:1044B00081610122FDF7B6FB08BD40F28261012255
:1044C000FDF7B0FB08BD40F283610122FDF7AAFBB6
:1044D00008BD40F284610122FDF7A4FB08BD40F253
:1044E00085610122FDF79EFB08BD40F28661012235
:1044F000FDF798FB08BD40F287610122FDF792FBB2
:1045000008BD00BF08B5013903291FD8DFE801F055
:10451000020910174FF4D1610122FDF775FB01204C
:1045200008BD40F289610122FDF76EFB012008BD44
:1045300040F28A610122FDF767FB012008BD40F2CD
:104540008B610122FDF760FB012008BD002008BD42
:1045500008B5013903291AD8DFE801F002080E1462
:104560004FF4D1610122FDF75DFB08BD40F2896186
:104570000122FDF757FB08BD40F28A610122FDF7D9
:1045800051FB08BD40F28B610122FDF74BFB08BDDA
:1045900008B50846114601F01FFE002008BD00BF07
:1045A000F8B5624E624C06F1400735460FCD2060EB
:1045B0006160A260E3602E461034BD42F5D15C4CD0
:1045C000204600210EF0F4F9642017F0B7F8594E98
:1045D00006F1400735460FCD20606160A260E360C0
:1045E0002E461034BD42F5D1514800210EF0E0F9BD
:1045F000642017F0A3F8504B1B78012B2DD94B4B9F
:1046000003F180064A4C03F1C00735460FCD206008
:104610006160A260E3602E461034BD42F5D1444C87
:10462000204600210EF0C4F9642017F087F83F4BB4
:1046300003F1C00603F5807735460FCD2060616039
:10464000A260E3602E461034BD42F5D13848002107
:104650000EF0AEF9642017F071F8374B1B78022B7F
:104660002DD9324B03F58076314C03F5A0773546D2
:104670000FCD20606160A260E3602E461034BD4221
:10468000F5D12B4C204600210EF092F9642017F052
:1046900055F8264B03F5A07603F5C07735460FCDC8
:1046A00020606160A260E3602E461034BD42F5D107
:1046B0001F4800210EF07CF9642017F03FF81E4BD4
:1046C0001B78042B2DD1194B03F5C076184C03F53C
:1046D000E07735460FCD20606160A260E3602E4632
:1046E0001034BD42F5D1124C204600210EF060F985
:1046F000642017F023F80D4B03F5E07603F50077FF
:1047000035460FCD20606160A260E3602E46103414
:10471000BD42F5D1064800210EF04AF9642017F099
:104720000DF8032001F096FCF8BD00BFC49DFF1FEB
:104730000CA2FF1F049EFF1F5C99FF1F10B540795C
:1047400003F080FF0F4C204600210EF031F9204687
:104750000021402218F0B6FD0B4900220B4643F819
:10476000042B4A60043343F8042B43F8042B43F82A
:10477000042B43F8042B43F8042B1A60032001F0A8
:1047800069FC10BDD89CFF1F0C9AFF1F10B5044692
:104790004079642805D804F035F82046FFF700FF7B
:1047A00010BD03F04FFF2046FFF7C8FF10BD00BF4C
:1047B00010B5D4B03A4B1B7813B904F0C7FA6DE0CA
:1047C000042B6BD132A80021882218F07BFD354BD9
:1047D0003293354B3393354B349340233593202319
:1047E000369312AB3793324B1B78012B09D1314BE7
:1047F0001B68009302A83049304A314B07F0DAFEBB
:104800001CE0022B0CD10AF0B9FB2A4B1A6802AB50
:104810000093019028482A4932AB0AF09DFC0DE034
:10482000032B0BD10AF0AEFB224B1A6802AB0093AC
:1048300001902148224932AB0AF08EFC02A80021E7
:104840000EF0B6F800241B4B1C601D4821464FF4A7
:10485000006218F037FD04F053FA114B1C70194B2D
:104860001C70194B1C70194B1C70032001F0F2FBDB
:1048700012482146402218F025FD0F4A134643F8FE
:10488000044B5460043343F8044B43F8044B43F89F
:10489000044B43F8044B43F8044B1C6054B010BD68
:1048A00078A1FF1FFD5200000953000015530000BE
:1048B0005C99FF1F68A1FF1F0C9AFF1FD89CFF1F68
:1048C00098A9FF1F78A9FF1F79A9FF1F09A2FF1F41
:1048D00038B504460D461F4B1B78022B19D0032B0D
:1048E00024D0012B2FD11C4908F03CFD80B3206857
:1048F0006168A268E36828606960AA60EB6020696B
:104900006169A269E36928616961AA61EB610020BC
:1049100038BD0AF033FB034620460F492A460AF009
:1049200075FBD0F1010038BF002038BD0AF02AFB2A
:104930000346204608492A460AF068FBD0F10100E8
:1049400038BF002038BD054801F07AFC012038BD91
:10495000012038BD5C99FF1F0C9AFF1F100B02004D
:10496000F0B599B0284B1B7813B904F0EFF948E083
:10497000042B46D1254C08AE04F14007354620688B
:104980006168A268E3680FC510342E46BC42F5D1B9
:1049900008A86946FFF79CFF18B11D4801F050FCBC
:1049A0002FE0684600210EF003F80024164B1C701F
:1049B000184B1C70184B1C70184B1C70032001F016
:1049C00049FB174B1C6004F09BF9104821464FF43B
:1049D000006218F077FC13482146402218F072FC60
:1049E000114A134643F8044B5460043343F8044B14
:1049F00043F8044B43F8044B43F8044B43F8044B8F
:104A00001C6019B0F0BD00BF78A1FF1F98A9FF1F5F
:104A10002C0B020078A9FF1F79A9FF1F09A2FF1F15
:104A200068A1FF1FD89CFF1F0C9AFF1F2DE9F04FB4
:104A300091B004AF81460E467A6001200DF038FA3D
:104A4000DFF8E08198F800306A46A2EBC312954681
:104A500004AD724C204600210A460CF029FC07F1F7
:104A60000C000AF0A9FF07F118000AF0A5FF07F1F2
:104A700024000AF0A1FF98F80030DB01636004F124
:104A800014004FF001110BF01DF8002840F0B48025
:104A900098F8002004F12C00614992010BF084F891
:104AA000002840F0A98098F80020920104F1380015
:104AB0005B4911440BF078F8002840F09D8004F128
:104AC000080004F12C0104F138020BF019FC002855
:104AD00040F0928007F10C0004F12C0101220BF050
:104AE000F7FB002840F0888007F1180004F1380136
:104AF00001220BF0EDFB00287ED107F1240007F125
:104B00000C0107F118020BF0FBFB002874D104F133
:104B1000200004F1140107F124020CF04FFA0028E0
:104B20006AD104F1440004F1200107F10C020BF0FA
:104B30001BFF002860D104F1500004F1200107F1AF
:104B400018020BF011FF002856D104F15C0004F1AB
:104B5000380104F12C020CF031FA00284CD1204627
:104B60000CF0EEFB044607F10C000AF02DFF07F1F4
:104B700018000AF029FF07F124000AF025FF002C95
:104B800034D1C24698F80030DB010B3B9945B4BFE5
:104B9000CB469B46DFF88490DFF88C800094CDF8FC
:104BA00004B00296039548464146224601230CF084
:104BB000EDFF38609AF8002078682946D2010DF0A0
:104BC00055FA0094CDF804B0029603954846414644
:104BD000224623460DF0A2F858B948460DF032F9A6
:104BE0003B68181B18BF0120404213E04FF0FF3014
:104BF00010E04FF0FF300DE007F10C000AF0E4FE8A
:104C000007F118000AF0E0FE07F124000AF0DCFECC
:104C10004FF0FF303437BD46BDE8F08F2C9CFF1FAE
:104C20002C9AFF1F5C99FF1F91450000F8B500AF5B
:104C30006C46914B1B78A4EBC31295466D468F4B87
:104C40001B7813B904F082F813E1042B40F01181B2
:104C50008B4B18688B496A46FFF7E8FE002840F046
:104C6000ED806B46884A10A9D3F800C0D3F804E061
:104C70009E68D868C2F800C0C2F804E09660D060B0
:104C8000103310328B42EFD17F4E304600210DF0B1
:104C90008FFE0A2016F052FD05F14003304605F163
:104CA0008002D3F800C0D3F804E09E68D968C0F849
:104CB00000C0C0F804E08660C16010331030934239
:104CC000EFD1714800210DF073FE0A2016F036FD79
:104CD000694B1B78012B38D905F180036A4A05F12D
:104CE000C001D3F800C0D3F804E09E68D868C2F8C9
:104CF00000C0C2F804E09660D060103310328B42DE
:104D0000EFD1614E304600210DF052FE0A2016F020
:104D100015FD05F1C003304605F58072D3F800C0DB
:104D2000D3F804E09E68D968C0F800C0C0F804E079
:104D30008660C160103310309342EFD15248002199
:104D40000DF036FE0A2016F0F9FC4B4B1B78022BB7
:104D500038D905F580734C4A05F5A071D3F800C029
:104D6000D3F804E09E68D868C2F800C0C2F804E036
:104D70009660D060103310328B42EFD1424E3046F5
:104D800000210DF015FE0A2016F0D8FC05F5A073E1
:104D9000324605F5C071D3F800C0D3F804E09E6830
:104DA000D868C2F800C0C2F804E09660D060103342
:104DB00010328B42EFD1344800210DF0F9FD0A206A
:104DC00016F0BCFC2C4B1B78042B3AD105F5C073B4
:104DD0002D4A05F5E071D3F800C0D3F804E09E68D1
:104DE000D868C2F800C0C2F804E09660D060103302
:104DF00010328B42EFD1244E304600210DF0D8FD09
:104E00000A2016F09BFC05F5E073324605F50075A7
:104E1000D3F800E05E689868D968C2F800E0566090
:104E20009060D16010331032AB42F1D116480021AE
:104E30000DF0BEFD0A2016F081FC02E0134801F0DF
:104E4000FFF903F05DFF00250C4B1D70104B1D702A
:104E5000104B1D70104B1D70032001F0FBF8084B28
:104E60001D60084829464FF4006218F02BFAA54649
:104E700000E0A546BD46F8BD5C99FF1F78A1FF1F65
:104E800068A1FF1F98A9FF1F0CA2FF1F4C0B020077
:104E900078A9FF1F79A9FF1F09A2FF1F10B50446BB
:104EA0000F480AF065F8607964280CD803F0AAFC72
:104EB00010F0400F03D10B4801F0C2F910BD20469D
:104EC000FFF7B4FE10BD03F0BDFB10F0400F03D19F
:104ED000044801F0B5F910BD2046FFF769FC10BD8C
:104EE000D9610000640B020070B590B005900E46C9
:104EF0001546494C204600210A460CF0D9F907A86E
:104F00000AF05AFD0AA80AF057FD0DA80AF054FD50
:104F1000424B1B78DB01636004F114004FF0011178
:104F20000AF0D0FD002851D13C4B1A7804F12C0036
:104F30003B4992010AF038FE002847D1374B1A78D6
:104F4000920104F13800364911440AF02DFE002880
:104F50003CD104F1080004F12C0104F138020BF0FB
:104F6000CFF998BB07A804F12C0101220BF0B0F98E
:104F700060BB0AA804F1380101220BF0A9F928BB93
:104F80000DA807A90AAA0BF0BBF9F8B904F1200093
:104F900004F114010DAA0CF011F8B8B904F14400A1
:104FA00004F1200107AA0BF0DFFC78B904F15000EE
:104FB00004F120010AAA0BF0D7FC38B904F15C0017
:104FC00004F1380104F12C020BF0F8FF07A80AF0F5
:104FD000FBFC0AA80AF0F8FC0DA80AF0F5FC0E4844
:104FE0000CF0AEF9044668B905AB00930196029542
:104FF0004FF400630393084800210A4601230CF094
:105000000BFD044604480CF01DFF201C18BF0120B6
:10501000404210B070BD00BF6099FF1F5C99FF1F38
:105020002C9AFF1F70B5204B1B7813B903F08EFE2E
:1050300070BD042B36D11D4A00201146FFF754FFE6
:10504000B8B91A4B1A4A03F140011E685D689C68A2
:10505000D868166055609460D060103310328B426F
:10506000F3D1134800210DF0A3FC0A2016F066FBD3
:1050700002E0104801F0E4F803F042FE00240A4B7D
:105080001C700D4B1C700D4B1C700D4B1C700320C5
:1050900000F0E0FF0B4B1C60044821464FF4006217
:1050A00018F010F970BD00BF78A1FF1F98A9FF1F6D
:1050B0000CA2FF1F880B020078A9FF1F79A9FF1F10
:1050C00009A2FF1F68A1FF1F10B504460F4809F091
:1050D0004FFF607964280CD803F094FB10F0200F88
:1050E00003D10B4801F0ACF810BD2046FFF79AFF42
:1050F00010BD03F0A7FA10F0200F03D1044801F00F
:105100009FF810BD2046FFF72BFC10BDD9610000B1
:10511000A40B020030B58BB0054601A80AF04CFC88
:1051200004A80AF049FC07A80AF046FCED016C0847
:1051300001A8194922460AF037FD00BB04A8164908
:10514000214422460AF030FDC8B907A801A904AAE3
:105150000BF0D6F898B907A810492A460AF066FD60
:10516000044601A80AF030FC04A80AF02DFC07A8A8
:105170000AF02AFC6CB10A4801F062F809E001A8C3
:105180000AF022FC04A80AF01FFC07A80AF01CFC85
:10519000F1E70BB030BD00BF2C9AFF1FC49DFF1F6D
:1051A000C80B02002DE9F0418EB005460E461746A9
:1051B0004E4C204600210A460CF07AF805A80AF069
:1051C000FBFB08A80AF0F8FB0BA80AF0F5FB484B1C
:1051D0001B78DB01636004F114004FF001110AF049
:1051E00071FC00286FD1424B1A7804F12C00414920
:1051F00092010AF0D9FC002847D13D4B1A78920160
:1052000004F138003B4911440AF0CEFC00283CD19F
:1052100004F1080004F12C0104F138020BF070F8DD
:1052200098BB05A804F12C0101220BF051F860BBDA
:1052300008A804F1380101220BF04AF828BB0BA89A
:1052400005A908AA0BF05CF8F8B904F1200004F1F4
:1052500014010BAA0BF0B2FEB8B904F1440004F13A
:10526000200105AA0BF080FB78B904F1500004F18D
:10527000200108AA0BF078FB38B904F15C0004F1B6
:10528000380104F12C020BF099FE05A80AF09CFBF2
:1052900008A80AF099FB0BA80AF096FB13480CF03B
:1052A00015F80446F0B9DFF844800095019602979E
:1052B00040461149002213460CF014FB04464046B8
:1052C0000CF0C0FD0EE005A80AF07EFB08A80AF06D
:1052D0007BFB0BA80AF078FB04480BF0F7FF0446B1
:1052E0000028E0D020460EB0BDE8F081189DFF1FD9
:1052F0005C99FF1F2C9AFF1F9145000008B51830DC
:10530000FBF7D6FF08BD00BF08B51830FBF7FAFF62
:1053100008BD00BF08B51830FCF718F808BD00BF7D
:10532000F0B59FB002A8FBF7C3FF02A820492022D6
:10533000FBF7E8FF02A81F492422FBF7E3FF02A8BE
:105340001D49FCF703F801A8FCF7EAFC9DF80420CE
:105350009DF8053053EA022302D003F055F824E00B
:105360001648174942220CF081FE164E164C06F1E3
:10537000200735460FCD20606160A260E3602E46B5
:105380001034BD42F5D12B7823700F48212100F055
:1053900073FF0E4D40F2B91428460D4922460CF019
:1053A00065FE2846214600F067FF1FB0F0BD00BF34
:1053B000F097FF1FC897FF1FC49FFF1F14A1FF1F77
:1053C000C80D0200E80B0200DCA1FF1F4CA2FF1F6A
:1053D0000C0C020070B4094B03F13004084800269D
:1053E00001681A792AB19A68891AB1F57A7FC8BF1B
:1053F0001E710C33A342F3D170BC704798A0FF1FFD
:1054000020B5FF1F10B40120002408492346CA1804
:10541000127922B15A58824201D10130F6E70C3399
:10542000302BF4D15DF8044B704700BF98A0FF1FEC
:1054300010B5044610B9FFF7E5FF0446164B1B797B
:105440005BB1154B1B7C43B1134B1B7F2BB1124B34
:1054500093F828300BB1FFF7BDFF0F4B1B797BB1E1
:105460000D4B1B7C43B10C4B1B7F3BB10A4B93F89C
:10547000283073B9094B04E0094B02E0094B00E006
:10548000054B1C6001221A71074A12689A60204677
:1054900010BD002010BD00BF98A0FF1FBCA0FF1FC3
:1054A000A4A0FF1FB0A0FF1F20B5FF1F70B582B0E2
:1054B0000146056801954479837943EA0424164836
:1054C0000A6802600A790271002242711122827117
:1054D0000730073122460CF0C9FDE61DB5F1FF3F4C
:1054E00004D10020FFF7A4FF019002E02846FFF757
:1054F0009FFF094B0198F0501A190221D172012027
:105500001073002151739073D173184664210DF00C
:105510004FFA019802B070BD0CA2FF1F08B5074BEF
:1055200002681A60BF221A7100225A7101229A7110
:10553000D971184664210DF03BFA08BD0CA2FF1F7B
:10554000114B1B68834212D00F4BDB6883420AD099
:105550000D4B9B69834208D00B4B5B6A834208BFAB
:10556000032005D00DE0012002E0022000E0002031
:10557000064B1A6800EB4001034B03EB81039A6072
:1055800070474FF0FF30704798A0FF1F20B5FF1FF6
:1055900008B500224271022282710A12C2710172A0
:1055A00064210DF005FA08BD2DE9F0470D46284CA1
:1055B00003682360832323713929B4BF89464FF0E0
:1055C00039090B126371A171E01D22494A460CF0A2
:1055D0004DFD204664210DF0EBF9C9EB0509B9F149
:1055E000000F33DD1C4D0026274604F105084FF05F
:1055F000640A3E712B46444605F13002D3F800C0E0
:10560000D3F804E09868D968C4F800C0C4F804E08E
:10561000A060E160103310349342EFD119685A68EA
:10562000216062601A899B7A2281A37238465146B2
:105630000DF0BEF9A9F13B094EF66023013B7FF462
:10564000FDAF01363B35B9F1000FD2DCBDE8F08784
:105650000CA2FF1F64A5FF1F9DA5FF1F2DE9F04FA2
:10566000ADF5077D0446C37923B14FF4DC41FFF764
:105670008FFFB0E2457AC37A027B120242EA03420C
:10568000437B1A43037A022B00F05281032B00F074
:105690008582012B40F09B82402A04D04FF4CE41FA
:1056A000FFF776FF97E2AE4B1B6823B946F68511EC
:1056B000FFF76EFF8FE20746DFF8D89248460021D9
:1056C000442217F0FFFDDFF8D0A20026534643F82E
:1056D000046BCAF80460043343F8046B43F8046BAA
:1056E00043F8046B43F8046B43F8046B43F8046B12
:1056F0001E60DFF8A8B209F101005146DBF8002076
:1057000009F044FC042389F80030DFF88482454620
:1057100057F82E0F7968BA68FB680FC53869796940
:10572000BA69FB690FC5BAE80F000FC59AE80F0008
:1057300085E80F000CA8FBF7BBFD0CA8394620221A
:10574000FBF7E0FD0CA804A9FBF700FE404604A906
:10575000844A402303F05CFE28A8FBF7A9FD824D94
:105760002E7028A829460122FBF7CCFD28A839462F
:105770002022FBF7C7FD28A804F10E012022FBF729
:10578000C1FD28A841464022FBF7BCFD28A8494698
:105790004122FBF7B7FD28A804A9FBF7D7FD64A8B1
:1057A0003146882217F08EFD704B6493704B6593E1
:1057B000704B6693402667962022689244AB6993AB
:1057C0006D4B0093DBF8003001936C4804A964AB87
:1057D00009F0C2FC2846052300F8013B4946412256
:1057E0000CF044FC85F8426047464335B0443E46E1
:1057F0000FCE28606960AA60EB60374610354645D9
:10580000F5D103A8FCF78CFA9DF80D309DF80C50EB
:1058100043EA0525002D08BF4FF4DC75584E30468D
:1058200058492A460CF022FC05F1840C833E73197A
:10583000302283F88320442206F80C2005F18601EB
:10584000022283F885204C4B93F90030002B0DDAAF
:105850002122725405F188003544002285F8872002
:1058600016F80C20013206F80C2004E005F1870040
:1058700020223D4B5A54DFF8F0E000EB0E023E4B85
:105880001F685E689D68D96840F80E705660956024
:10589000D1601F695E699D69D9691761566195611B
:1058A000D16100F12106022182F8201093F9203005
:1058B000002B0EDA21220EF8062000F12305704499
:1058C000002280F822201EF80C2001320EF80C2055
:1058D00004E000F122052022234B9A5522482A1881
:1058E000294BD3F800E05F689E68D96845F800E06E
:1058F00057609660D160D3F810E05F699E69D969FE
:10590000C2F810E057619661D16105F120031A18C1
:105910009021195400265670114B1E6003F0F0F9C7
:10592000204605F12201FFF73FFE184B1E6052E1B1
:10593000812A04D04FF4CE41FFF72AFE4BE190F8C4
:105940004E30402B04D04FF4D541FFF721FE42E109
:10595000034B1B6823BB46F68511FFF719FE3AE19E
:105960002CA0FF1FC49FFF1F64A5FF1FFD52000056
:1059700009530000155300000CA2FF1FDCA1FF1FFC
:10598000E7A5FF1F4CA2FF1F2CA2FF1F68A1FF1F4E
:10599000E89FFF1F54A0FF1F30A0FF1FC8A0FF1FDC
:1059A00000F12E0800F14F06DFF834E200F18F0C11
:1059B000774630687168B268F3680FC71036BE4624
:1059C0006645F5D10CA8FBF773FC0CA841462022D4
:1059D000FBF798FC0CA804A9FBF7B8FC804E3046F6
:1059E00004A9804A402304F093F93046414620221E
:1059F00017F0D4FB28B120464FF4D541FFF7C8FD7E
:105A0000E9E0072D05D1204646F68511FFF7C0FDD8
:105A1000E1E0032D40F0DF8000F0F8FA064628A808
:105A2000FBF746FC28A841462022FBF76BFC6E4D95
:105A300001232B70321202F47F42330203F47F03FE
:105A4000134343EA166343EA066303930398C5F8D6
:105A5000010028A829460522FBF754FC28A804F1D8
:105A60000E012022FBF74EFC28A804A9FBF76EFCD0
:105A700064A80021882217F025FC5C4B64935C4BE2
:105A800065935C4B6693402367932022689244ABF6
:105A90006993594F0097594B1B680193584804A9C3
:105AA00064AB09F059FB30236B714423AB710223C3
:105AB000EB7197F90030002B07DA21222A720022BD
:105AC0006A724522AA710A2503E02022464B1A7207
:105AD0000925DFF814C105EB0C02474BD3F800E0B1
