:1000000000800020BD01000001B80000C5B700005D
:10001000C5B70000C5B70000C5B70000C5B70000F0
:10002000C5B70000C5B70000C5B7000001B80000A3
:1000300001B80000C5B7000001B80000B5B7000066
:1000400001B8000001B8000001B8000001B80000CC
:1000500001B8000001B8000001B8000001B80000BC
:1000600001B8000001B8000001B8000001B80000AC
:1000700001B8000001B8000001B8000001B800009C
:1000800001B8000001B8000001B8000001B800008C
:1000900001B8000001B8000001B8000001B800007C
:1000A00001B8000001B8000001B8000001B800006C
:1000B00001B8000001B8000001B8000001B800005C
:1000C00001B8000001B8000001B8000001B800004C
:1000D00001B8000001B8000001B8000001B800003C
:1000E00001B8000001B8000001B8000001B800002C
:1000F00001B8000001B8000001B8000001B800001C
:1001000001B8000001B8000001B8000001B800000B
:1001100001B8000001B8000001B8000001B80000FB
:1001200001B8000001B8000001B8000001B80000EB
:1001300001B8000001B8000001B8000001B80000DB
:1001400001B8000001B8000001B8000001B80000CB
:1001500001B8000001B8000001B8000001B80000BB
:1001600001B8000001C3000001B8000001B80000A0
:1001700001B8000001B8000001B8000001B800009B
:1001800001B8000001B8000001B8000001B800008B
:1001900001B8000001B8000001B8000001B800007B
:1001A00001B8000001B8000001B8000001B800006B
:1001B00001B8000001B8000001B80000574B4CF234
:1001C000205210B51A804DF628121A8000BF00BFC9
:1001D0000BF01AFB524B4FF010621A60514A9A60B2
:1001E000514ADA60A3F53043203B1A6812F480725A
:1001F00004D14E490A604FF4A8521A604C4B1A7849
:10020000110703D51A7842F008021A70494B4A4C7C
:100210004A482A221A704A4A00239918A14203D256
:10022000195899500433F8E7464B474900228B424E
:1002300002D243F8042BFAE74448454900235A58B0
:100240001A500433B3F5DE7FF9D1424B424A802184
:1002500003F8011B9342FBD1404B3C4A1A60404BD0
:100260000A221A70A3F5805324225A70A0221A7011
:100270009A799207FCD59A79D406FCD4394A9379B5
:1002800003F00C03082B374BF9D103221A714022DB
:100290005A719A799006FCD5324A9179314B4906C8
:1002A000FBD5314A314911600221516020221A7078
:1002B0009A7902F00C020C2AFAD12D4B2D4A1A60C1
:1002C0002D4B45F6BF521A6000225A60072243F8B0
:1002D000042C2A4AC3F80C2D62B614F041FC134BCF
:1002E0001B68DA0705D5264814F0B4FA254B264AD0
:1002F0001A60264B1B785B0609D5224C224A2368DC
:10030000934204D11E4814F0A5FA0023236015F08F
:100310004FFB0BF07FFA14F09FFCFEE70E20054028
:1003200030800440823F04000100002B14D00340C1
:1003300002D0074000E007405496FF1FFCB30100C5
:10034000708CFF1F5496FF1F38ABFF1F0082FF1FEA
:100350000000000000E400E05FE400E008ED00E0E1
:100360000050064000400640448004400000033333
:1003700004800440C010050014E000E000002020CC
:1003800037EEDB571CE00340A5C3945A00F007404A
:10039000FFFFFFFFFFFFFFFFFFFFFFFFFFFFFFFF6D
:1003A000FFFFFFFFFFFFFFFFFFFFFFFFFFFFFFFF5D
:1003B000FFFFFFFFFFFFFFFFFFFFFFFFFFFFFFFF4D
:1003C000FFFFFFFFFFFFFFFFFFFFFFFFFFFFFFFF3D
:1003D000FFFFFFFFFFFFFFFFFFFFFFFFFFFFFFFF2D
:1003E000FFFFFFFFFFFFFFFFFFFFFFFFFFFFFFFF1D
:1003F000FFFFFFFFFFFFFFFFFFFFFFFFFFFFFFFF0D
:10040000FFFFFFFFFFFFFFFFFFFFFFFFFEFFFFFFFD
:1004100010B5054C237833B9044B13B10448AFF33E
:1004200000800123237010BD5496FF1F00000000C0
:10043000F4B3010008B5064B1BB106480649AFF3FB
:1004400000800648036813B1054B03B1984708BD07
:1004500000000000F4B301005896FF1F5496FF1FE0
:100460000000000070B5394B1B68197880290CD149
:1004700044F22B000BF086FC44F22B000BF022FC24
:10048000324B1A6801321A6070BD81290CD144F2D6
:1004900028000BF077FC44F228000BF013FC2B4BE8
:1004A0001A6801321A6070BD822924D1284B1B784A
:1004B000002B2FD10122274B1A6027480AF034FE67
:1004C000264B1E6806F57A66224C1D4601E006F0B2
:1004D00053FB236813B12B689E42F8D800221D4BB2
:1004E0001A601F4C20461F4900F084FE20461E491A
:1004F00000F0B0FE70BD82290BD983394FF47A70B9
:1005000000FB01F014F016FB104B1A6801321A6060
:1005100070BD41B1154803681B6898470B4B1A68BA
:1005200001321A6070BD44F228000BF02BFC44F23B
:1005300028000BF0C7FB0A4C20460A4900F05AFE7F
:100540002046094900F086FE70BD00BF9896FF1F47
:1005500020A2FF1F5899FF1FE14F0000E0AAFF1FD4
:100560008097FF1FB096FF1F8096FF1FE8AAFF1F0E
:1005700008B5024804F068FD08BD00BF989C010062
:1005800010B500224C4B1A7006204C4B18700121FC
:100590004B4B197016224B4B1A7017224A4B1A708C
:1005A00011224A4B1A700F22494B1A701022494BE4
:1005B0001A700E22484B1A701522484B1A7014F00C
:1005C0007DF94748202104F04DFF464B1B78DE2B78
:1005D0000BD104F065FE442006F0E8FD0122424BF9
:1005E0001A700022414B1A702EE0442B26D10028AD
:1005F00024DD3F48202104F07DFF3E4805F076F8D9
:100600003D4805F059F93D4C204601F0D9F92378D1
:100610000BB9042222703A4801F0B2F9394801F0CE
:10062000DFF90CF04DFA00222F4B1A7001222F4BEC
:100630001A703548354900F00DFE05E001222A4BBD
:100640001A700022294B1A70314C2046314940F271
:10065000FD7206F045FF00F09FFD20462E49242242
:10066000002306F0E7FE20461D492022002306F065
:10067000E1FE194B187814F02FF8014620460422A9
:10068000082306F0D7FE154B187814F025F801461C
:1006900020460422082306F0CDFE04F021FC04F0DD
:1006A000FBFB04F00BFC04F0F7FB04F007FC16481E
:1006B0001A4900F0CFFD10BD20A2FF1FE3A1FF1FCC
:1006C000DCA1FF1FDDA1FF1FDEA1FF1FDFA1FF1FB8
:1006D000E0A1FF1FE1A1FF1F0CA1FF1F0DA1FF1F44
:1006E0008497FF1F02000240E2A1FF1FE8A1FF1F45
:1006F000C497FF1FE497FF1FA497FF1FAC8CFF1F39
:10070000A88CFF1F30ABFF1F8097FF1F9C96FF1F19
:100710005CA7FF1FA49C01005C97FF1F8096FF1F32
:10072000F0B59BB004469D4B1B781BB101229C4B3E
:100730001A7031E100259B4B1D700AA82946402202
:1007400015F09EFC98482946842215F099FC0AA8C9
:10075000214603F0ABF9051E14DD944B1B784BB911
:10076000934B93F8221075310AA82144914A2B46E5
:1007700006F016F88B4E0AA88B492A46337804F007
:1007800057FC35700AA80021402215F079FC0AA810
:10079000214602F019FB9DF8283093B1312B07D187
:1007A000804B1A7880208049885401321A7008E002
:1007B000322B06D17B4B1A7881207B498854013239
:1007C0001A700AA80021402215F05AFC0AA82146F6
:1007D00002F08EFD9DF8283043B11F46714A117812
:1007E0007D3B714843540131117000E000270AA895
:1007F000214601F09FFE061E16DD6C4B1B784BB99F
:100800006B4B93F8221070310AA82144694A334691
:1008100005F0C6FF634D0AA8634932462B7804F001
:1008200007FC2B781E442E700AA80021402215F0E8
:1008300027FC0AA8214602F011FC9DF8283093B14C
:10084000312B07D1574B1A788020574988540132F1
:100850001A7008E0322B06D1524B1A788120524987
:10086000885401321A700AA80021402215F008FCB1
:100870000AA8214602F086FE9DF8283043B11D46A5
:10088000484A10787D3B48490B540130107000E015
:1008900000250AA80021402215F0F2FB0AA82146F3
:1008A00002F0BAFF9DF82830002B75D0672B55D188
:1008B0000AA8214605F0FEF806463C4B1B784BB9CA
:1008C0003B4B93F8221074310AA82144394A33462D
:1008D00005F066FF0AA834493246324B1B7804F013
:1008E000A7FB68460AA9324600F06CFF00F0DCFF67
:1008F000C1196846294400F069FF044601F01CF85C
:1009000088B9284B1B78284A4E21D15413444F22D2
:100910005A7054229A705321D970452119715A7115
:1009200000229A7111E01F4B1B7821781E4AD15486
:10093000617813445970A2789A70E278DA7022795B
:100940001A7162795A7100229A71164B1A7806321E
:100950001A700AA80021402215F092FB9DF8283059
:10096000792B0BD1114B1B78B3B90E4C23780E4861
:10097000184405F073FE23782C3323709DF828303B
:10098000752B09D1094B1B7833B9064B1A78822095
:100990000549885401321A701BB0F0BD38A7FF1FFB
:1009A00039A7FF1F7C96FF1FC896FF1F20A2FF1FBD
:1009B0005C97FF1FC497FF1F10B5104B1B781BB926
:1009C0000F4804F041FB10BD0E4B1878002113F0C6
:1009D00097FF0D4B1A680D4B1A600D4B1B781BB11E
:1009E0000C4B1C68243C04E00A4B1C68303C05F0AE
:1009F00049FE2046FFF794FE10BD00BFE8A1FF1F8F
:100A0000B09C0100E3A1FF1FE0AAFF1F48A2FF1F47
:100A100020A2FF1F7496FF1F10B5104B1B781BB947
:100A20000F4804F011FB10BD0E4B1878002113F095
:100A300067FF0D4B1A680D4B1A600D4B1B781BB1ED
:100A40000C4B1C68243C04E00A4B1C68303C05F04D
:100A500019FEA01DFFF764FE10BD00BFE8A1FF1F37
:100A6000B09C0100E3A1FF1FE0AAFF1F48A2FF1FE7
:100A700020A2FF1F7496FF1F30B583B00446684B59
:100A80001B782BB9674B1878FF2113F039FF04E06E
:100A9000644B1878002113F033FF634B1B68022B63
:100AA00008DD624D0524284604F0CEFA204604F005
:100AB000D5F9F8E75E4B1B78A3B3684600F0B0FFAA
:100AC0009DF80030002B00F0A18001A800F098FFF5
:100AD0009DF80430132B0ED9564B03F12101FF2250
:100AE00003F8012F8B42FBD1534804F021FD002075
:100AF00000F08EFF05E05A1C02A800F8042D00F05B
:100B000087FF9DF800300133DBB28DF800300A2BEF
:100B100002D904F0F7FB80E0684600F089FF00226C
:100B2000434B1A704548464B197800F0EFFB3C4B9D
:100B30001B7843B9414800F017FC20B93F4800F04A
:100B400077FC002840D0364B1B781BBB002000F000
:100B50006FFF3A4800F0E8FB0022334B1A60394837
:100B600004F072FA3848394900F044FB384B1B78DE
:100B700043B905F065FE03F0D9FA06F0E5F9002067
:100B800000F046FF334B1A68334B1A600122244BA6
:100B90001A7042E0314B1B68002B3ED10022304BD3
:100BA0001A700A2C36DCFFF707FF2D4A2D4B1A600E
:100BB000254C20462C4900F01DFB20462B492C4B90
:100BC0001A7800F029FB28E01C4800F013FC10B153
:100BD00004F098FB21E0274B1B68092B03DC013351
:100BE000244A136019E00124114B1C700E4B1A6843
:100BF00022441A60032004F031F9684600F010FF27
:100C00000E4800F091FB1B4B1C6006E001238DF8A1
:100C1000003081E7FFF700FFC7E703B030BD00BF3A
:100C2000E2A1FF1FE3A1FF1FC496FF1FE09C01008C
:100C3000888CFF1FC397FF1FC497FF1F5CA1FF1F76
:100C40007496FF1F409D01008097FF1F9C96FF1F19
:100C500020A2FF1FE0AAFF1F48A2FF1F84A1FF1FC1
:100C6000C896FF1F9896FF1F8096FF1FB096FF1F24
:100C7000AC8CFF1F848CFF1F10B5644B1B78CBB16D
:100C800005F07AFF624B1B78A3B105F0F3FC614BD2
:100C90001B787BB1604A11684EF6602202FB03F3B9
:100CA0005E4A12688A1A934204D80023574A137086
:100CB0005B4A136004F014F95A4B1A6840F2DC5393
:100CC0009A420CD90023584A1360584A1360584B73
:100CD0001A6801321A603522564B1A6082E0564B70
:100CE0001A6840F2DC539A420CD900234E4A136032
:100CF0004E4A13604E4B1A6801321A6032224D4B35
:100D00001A606FE04D4B1A6840F2DC539A420CD9DE
:100D10000023454A1360454A1360454B1A68013267
:100D20001A603122434B1A605CE0454B1A6840F26E
:100D3000DC539A420CD900233B4A13603B4A1360B0
:100D40003B4B1A6801321A6033223A4B1A6049E071
:100D50003C4B1A6840F2DC539A420CD90023324AC9
:100D60001360324A1360324B1A6801321A6034221F
:100D7000304B1A6036E0344B1A6840F2DC539A422A
:100D80000CD90023284A1360284A1360284B1A689C
:100D900001321A603622274B1A6023E0244B1C686C
:100DA000204614F02BFD4FF07C5114F0E7FD08B104
:100DB0001E4B1C6000221E4B1A601B4B1A6801322E
:100DC0001A60124B1B782BB9204B1878002113F0B6
:100DD00097FD07E01E4B1B7823B91C4B1878FF21A9
:100DE00013F08EFD114B1C68002C0EDD0E4B1868A5
:100DF00014F004FD4FF07C5114F0C0FD28B12046E2
:100E0000FFF73AFE0022094B1A6010BDE2A1FF1F56
:100E1000E8A1FF1FA88CFF1FE0AAFF1F48A2FF1F29
:100E2000848CFF1F0CA2FF1F7096FF1F9496FF1F5C
:100E30007896FF1F7496FF1F10A2FF1F14A2FF1FBA
:100E400018A2FF1F1CA2FF1FD8A1FF1FE3A1FF1FB5
:100E500040A1FF1F08B50BF009F908486421084AB2
:100E600000F03EFA07486421074A00F039FA0748C3
:100E70004FF47A71064A00F033FA08BD8096FF1FDE
:100E8000790C0000B096FF1F650400009C96FF1FC0
:100E9000710500002DE9F00FCAB001900A46002349
:100EA000D078CC5C40EA0460547840EA04409478FE
:100EB00040EA042003F128056C462851043304322B
:100EC000402BEDD10AAB0022986B59685D6A02F1A4
:100ED00028076E46BC592C444FEA704585EAF04518
:100EE00085EA902020444FEAF11484EAB14484EA70
:100EF000D1010144196404320433C02AE4D10199B8
:100F0000096D0291019A526D0392019B9B6D0493AE
:100F1000019CE46D0594019D2D6E0695019E766EF3
:100F20000796019FBF6E08970199C96E099189467E
:100F30003D46B446069BA04604981446029A0021FA
:100F4000DFF8A8A001F1280B6F465BF8076051F8A5
:100F50000A7037444FEAB31686EAF32686EA7366C8
:100F6000374425EA03060CEA030B86EA0B063E44E7
:100F70004E4480EA0407174000EA040987EA09079B
:100F80004FEAB20989EA723989EAB2594F44B0444A
:100F90003E440431B1F5807F08D0A94665469C46A1
:100FA00043468046204614463246CBE702990E441B
:100FB000019F3E6503990A447A65049A1444BC650E
:100FC000059C2044F865069A42443A66079E3344DD
:100FD0007B66089B6344BB66099F3D44DDF804B013
:100FE000CBF86C504AB0BDE8F00F70474C9D010043
:100FF0000023036400220023C0E912230A4B036587
:101000000A4B43650A4B83650A4BC3650A4B03666B
:101010000A4B43660A4B836603F17453A3F523031B
:10102000A3F69243C366704767E6096A85AE67BB5D
:1010300072F36E3C3AF54FA57F520E518C68059BBA
:10104000ABD9831F2DE9F84306469046DAB10F4627
:1010500088444FF00009336C17F8012BF254013328
:101060003364402B0DD130463146FFF713FFD6E9EC
:10107000124514F5007445F10005C6E91245C6F89D
:1010800040904745E7D1BDE8F88300BF2DE9F84F10
:1010900080468946026C372A0CD8531C8021815423
:1010A000372B1CD802440021013302F8011F382BD2
:1010B000FAD114E0531C802181543F2B06D80244FE
:1010C0000021013302F8011F402BFAD1404641466E
:1010D000FFF7E0FE40460021382214F0D1FFD8F897
:1010E0004030D900D8E91223521843F10003C8E96F
:1010F000122388F83F20100A40EA0360190A88F892
:101100003E00160C46EA03461F0C88F83D60140E9C
:1011100044EA03241D0E88F83C4088F83B3088F8E8
:101120003A1088F8397088F8385040464146FFF741
:10113000B1FE0322D300D8F85010D94089F800102E
:10114000D8F85410D94089F80410D8F85810D9406C
:1011500089F80810D8F85C10D94089F80C10D8F834
:101160006010D94089F81010D8F86410D94089F877
:101170001410D8F86810D94089F81810D8F86C10F5
:1011800021FA03F389F81C30013A09F10109B2F19F
:10119000FF3FCFD1BDE8F88F00B583B006490A689C
:1011A0004B6888680090C96801910448044915F0AB
:1011B000ADF903B05DF804FB4C97FF1F5C97FF1F70
:1011C0004C9E0100064B1A68064B1A60064A1268CC
:1011D0005A60064A12689A60054A1268DA607047D7
:1011E000548004404C97FF1F588004405C800440AA
:1011F00060800440026872B18A4209D113690360B9
:101200007047994201D01A4602E00B69136170479A
:101210001369002BF5D17047F8B507460D46164601
:10122000FFF7E8FF3C680CB93D6004E023690BB1AF
:101230001C46FBE7256113F05BFC2B68C01A686055
:1012400006FB06F642F2107303FB06F62E6000233F
:101250002B61F8BD38B505460C46FFF7CBFF2A6871
:101260000AB92C6004E013690BB11A46FBE714615C
:1012700013F03EFC2368C01A60600023236138BD70
:1012800038B50C4613F034FC0546626823681344F5
:10129000984205D36268934208D26268904205D3AF
:1012A0006268954207D26268934204D3A560E368FE
:1012B00020469847656038BD38B505462C68002C37
:1012C000FCD028462146FFF7DBFF2469002CF8D12B
:1012D000F4E700BF08B50148FFF7EEFF8097FF1F56
:1012E00010B44FF47A7404FB01F10160C260002273
:1012F000426002615DF8044B704700BF016100224B
:1013000002730270704700BF01617047037B0B2BB3
:1013100007D05A1CD2B20273C15400238354012057
:1013200070470020704700BF0023037303707047AD
:1013300010B401690A78047800237AB9D4F1010065
:1013400038BF00200DE011F8012F10F8014F0133D4
:101350000B2BF2D1002004E0002002E0A242F2D0E8
:10136000FAE75DF8044B70472DE9F0419CB0064662
:101370000024DFF874800546335D04F8083001343A
:10138000284615F063F98442F6D96846FFF730FE27
:10139000284615F05BF90246134D68462946FFF7CB
:1013A00051FE684611492022FFF74CFE6846294647
:1013B000FFF76CFE0E4C22782878234629461E340F
:1013C00004E0824214BF0020012009E0824206D1DD
:1013D00013F8012F11F8010FA342F7D1F1E7002014
:1013E0001CB0BDE8F08100BF0498FF1F8497FF1F69
:1013F000C497FF1F10B40C4C22780C480178234688
:101400001E3404E08A4214BF0020012009E08A4211
:1014100006D113F8012F10F8011FA342F7D1F1E70D
:1014200000205DF8044B7047E497FF1F0498FF1FEE
:1014300010B40E4C22780E48017823461E3407E083
:101440008A4218BF00200DD101200A4B187009E014
:101450008A4206D113F8012F10F8011FA342F7D1D9
:10146000EEE700205DF8044B704700BFA497FF1F14
:101470000498FF1F20A2FF1F08B50AF0F7FD08BD62
:1014800070B40546064C0FCCE86429656A65AB6507
:101490002068E86500232B6685F8483070BC7047EB
:1014A0008C8CFF1F2DE9F00F86B0C36C0193076D84
:1014B0000297436D0393876D0497C36D05931E4692
:1014C0003C460399DDF808C0019D0E220023DFF899
:1014D00008A1DFF808912CE00F2B24D903F00F06A8
:1014E00000EB860602F00F0808F1020850F8288089
:1014F000B76887EA0808A2F1050B0BF00F0B0BF198
:10150000020B50F82BB088EA0B08A2F10B0B0BF082
:101510000F0B0BF1020B50F82BB088EA0B084FEAC7
:10152000F878C6F80880013226460C466146AC467B
:10153000009D132B0CD884EA010808EA0C0888EAFD
:10154000040808F1B54808F51E3808F299181FE09C
:10155000272B05D884EA010888EA0C08C84417E05C
:101560003B2B09D84CEA010808EA04080CEA0107F9
:1015700048EA0708D0440BE084EA010888EA0C082E
:1015800008F14A4808F5C50808F5834808F15608E7
:1015900003F00F07023750F8277007EBF567474451
:1015A000BE1900964FEABC0C0133DBB2502B93D12D
:1015B000019B3344C364029B1D440565039B634444
:1015C0004365049F39448165059B1C44C46506B08E
:1015D000BDE8F00F704700BFDCBC1B8FA1EBD96EDC
:1015E00010B5044690F8483083F0030202441172AB
:1015F0000133DBB280F84830402B04D1FFF752FFB3
:10160000002384F8483010BD08B5026E013202662E
:10161000FFF7E6FF012008BD38B504468021FFF73B
:10162000DFFF94F84830382B08D0002520462946A3
:10163000FFF7D6FF94F84830382BF7D12046002129
:10164000FFF7CEFF20460021FFF7CAFF204600210A
:10165000FFF7C6FF216E2046490FFFF7C1FF216E3D
:101660002046C1F34751FFF7BBFF216E2046C1F36F
:101670004731FFF7B5FF216E2046C1F34711FFF751
:10168000AFFF236ED900204601F0F801FFF7A8FF55
:1016900038BD00BF38B50546FFF7BEFF2A4600211A
:1016A000D36C1C0E44EA0364180200F47F00044368
:1016B0001B0A03F47F432343D36401310432052919
:1016C000EED105F14C0038BDF8B505460C4616467E
:1016D00000F1640738460021402214F0D1FC402E6E
:1016E0001ADD2846FFF7CCFE46B126442B681B685E
:1016F000284614F8011B9847B442F7D12846FFF753
:10170000C9FF036844688168C2686B667C60B96021
:10171000FA6003693B6104E038462146324609F02D
:10172000AFFF2846FFF7ACFE05F1630405F1A30601
:101730002B6814F8011F1B68284681F03601984772
:10174000B442F5D1F8BD00BF70B50546FFF7A2FF62
:10175000026846688468C168C5F8A420C5F8A86016
:10176000C5F8AC40C5F8B0100269C5F8B4202846E9
:10177000FFF786FE05F1630405F1A3062B6814F854
:10178000011F1B68284681F05C019847B442F5D1DF
:1017900005F114062C462B681B68284694F8A41003
:1017A00098470134B442F6D12846FFF773FF70BD65
:1017B000024B00221A71024A1A6070472498FF1FD8
:1017C000709E010001604260704700BF70B5044622
:1017D000224B83FB01230B44C917C1EB231181600A
:1017E0000025057345738573C5730B0E03740B14C5
:1017F00043740B128374C174194E304621686268B9
:10180000FFF762FF33685B68304604F10C01082281
:1018100098473046FFF798FF6061C27C02F00F02E4
:10182000A261E5612B461044E2691202E261C15CEB
:101830000A43E2610133042BF6D122F00043094A46
:1018400082FB03129214084901FB1232E261203438
:101850002046064914F05AFE204670BD89888888C3
:101860002498FF1F83DE1B4340420F00789E010037
:10187000074B1860074B1B681844074B186002227F
:10188000064B1A70064B1A68064B1A60704700BF69
:10189000DC98FF1FA08CFF1FEC98FF1FE098FF1F34
:1018A000E0AAFF1FE898FF1F10B51C4B1A681C4BDD
:1018B0001B68D21AB2F57A7F11D31A4A1268013224
:1018C000164C03F57A732168501CC91AB1F57A7F5A
:1018D00001D30246F5E713490A60114A1360124B1F
:1018E0001A68104B1B689A4214D8104B1B688BB1B6
:1018F000984710B1FFF7BCFF0CE00D4B1A68094B7D
:101900001B681A44084B1A600A4B1A78003218BF39
:1019100001221A70034B186810BD00BFE0AAFF1F18
:10192000E898FF1FDC98FF1FEC98FF1FE498FF1F4B
:10193000A08CFF1FE098FF1F08B5FFF7B5FF014B14
:10194000187808BDE098FF1F70B516464AB10E44DE
:101950000C46451A20460AF0C3FB28550134B44210
:10196000F8D170BD70B5154642B10C46461A2046F6
:10197000315D0AF0C9FB0134013DF8D170BD00BFF3
:1019800008B54FF4FB610122FFF7DEFF012008BD1F
:1019900008B54FF4FB610122FFF7E4FF08BD00BF6B
:1019A00008B540F2D9710122FFF7CEFF012008BD32
:1019B00008B540F2D9710122FFF7D4FF08BD00BF7E
:1019C00008B540F2DA710122FFF7BEFF012008BD21
:1019D00008B540F2DA710122FFF7C4FF08BD00BF6D
:1019E00008B540F2DB710122FFF7AEFF012008BD10
:1019F00008B540F2DB710122FFF7B4FF08BD00BF5C
:101A000008B540F2DC710122FFF79EFF012008BDFE
:101A100008B540F2DC710122FFF7A4FF08BD00BF4A
:101A200008B540F2DD710122FFF78EFF012008BDED
:101A300008B540F2DD710122FFF794FF08BD00BF39
:101A400008B540F2D5710222FFF77EFF022008BDE3
:101A500008B540F2D5710222FFF784FF08BD00BF30
:101A600008B540F2D7710122FFF76EFF012008BDD3
:101A700008B540F2D7710122FFF774FF08BD00BF1F
:101A800008B54FF4FA610122FFF75EFF012008BD9F
:101A900008B54FF4FA610122FFF764FF08BD00BFEB
:101AA00008B540F2D1710122FFF74EFF012008BDB9
:101AB00008B540F2D1710122FFF754FF08BD00BF05
:101AC00008B540F2D2710122FFF73EFF012008BDA8
:101AD00008B540F2D2710122FFF744FF08BD00BFF4
:101AE00008B540F2D3710122FFF72EFF012008BD97
:101AF00008B540F2D3710122FFF734FF08BD00BFE3
:101B000008B54FF4EB610122FFF71EFF012008BD6D
:101B100008B54FF4EB610122FFF724FF08BD00BFB9
:101B200008B540F259710122FFF70EFF012008BDF0
:101B300008B540F259710122FFF714FF08BD00BF3C
:101B400008B540F25A710122FFF7FEFE012008BDE0
:101B500008B540F25A710122FFF704FF08BD00BF2B
:101B600008B540F25B710122FFF7EEFE012008BDCF
:101B700008B540F25B710122FFF7F4FE08BD00BF1B
:101B800008B540F25C710122FFF7DEFE012008BDBE
:101B900008B540F25C710122FFF7E4FE08BD00BF0A
:101BA00008B540F25D710122FFF7CEFE012008BDAD
:101BB00008B540F25D710122FFF7D4FE08BD00BFF9
:101BC00008B540F25E710122FFF7BEFE012008BD9C
:101BD00008B540F25E710122FFF7C4FE08BD00BFE8
:101BE00008B540F25F710122FFF7AEFE012008BD8B
:101BF00008B540F25F710122FFF7B4FE08BD00BFD7
:101C000008B54FF4EC610122FFF79EFE012008BDEC
:101C100008B54FF4EC610122FFF7A4FE08BD00BF38
:101C200008B540F261710122FFF78EFE012008BD68
:101C300008B540F261710122FFF794FE08BD00BFB4
:101C400008B540F262710122FFF77EFE012008BD57
:101C500008B540F262710122FFF784FE08BD00BFA3
:101C600008B540F263710122FFF76EFE012008BD46
:101C700008B540F263710122FFF774FE08BD00BF92
:101C800008B540F264710122FFF75EFE012008BD35
:101C900008B540F264710122FFF764FE08BD00BF81
:101CA00008B540F265710122FFF74EFE012008BD24
:101CB00008B540F265710122FFF754FE08BD00BF70
:101CC00008B540F266710122FFF73EFE012008BD13
:101CD00008B540F266710122FFF744FE08BD00BF5F
:101CE00008B540F267710122FFF72EFE012008BD02
:101CF00008B540F267710122FFF734FE08BD00BF4E
:101D000008B54FF4ED610122FFF71EFE012008BD6A
:101D100008B54FF4ED610122FFF724FE08BD00BFB6
:101D200008B540F269710122FFF70EFE012008BDDF
:101D300008B540F269710122FFF714FE08BD00BF2B
:101D400008B540F26A710122FFF7FEFD012008BDCF
:101D500008B540F26A710122FFF704FE08BD00BF1A
:101D600008B540F26B710122FFF7EEFD012008BDBE
:101D700008B540F26B710122FFF7F4FD08BD00BF0A
:101D800008B540F26C710122FFF7DEFD012008BDAD
:101D900008B540F26C710122FFF7E4FD08BD00BFF9
:101DA00008B540F26D710122FFF7CEFD012008BD9C
:101DB00008B540F26D710122FFF7D4FD08BD00BFE8
:101DC00008B540F26E710122FFF7BEFD012008BD8B
:101DD00008B540F26E710122FFF7C4FD08BD00BFD7
:101DE00008B540F26F710122FFF7AEFD012008BD7A
:101DF00008B540F26F710122FFF7B4FD08BD00BFC6
:101E000008B54FF482610122FFF79EFD012008BD55
:101E100008B54FF482610122FFF7A4FD08BD00BFA1
:101E200008B540F211410122FFF78EFD012008BDE7
:101E300008B540F211410122FFF794FD08BD00BF33
:101E400008B540F212410122FFF77EFD012008BDD6
:101E500008B540F212410122FFF784FD08BD00BF22
:101E600008B540F213410122FFF76EFD012008BDC5
:101E700008B540F213410122FFF774FD08BD00BF11
:101E800008B540F214410122FFF75EFD012008BDB4
:101E900008B540F214410122FFF764FD08BD00BF00
:101EA00008B540F215410122FFF74EFD012008BDA3
:101EB00008B540F215410122FFF754FD08BD00BFEF
:101EC00008B540F216410122FFF73EFD012008BD92
:101ED00008B540F216410122FFF744FD08BD00BFDE
:101EE00008B540F217410122FFF72EFD012008BD81
:101EF00008B540F217410122FFF734FD08BD00BFCD
:101F000008B54FF483610122FFF71EFD012008BDD3
:101F100008B54FF483610122FFF724FD08BD00BF1F
:101F200008B540F219410122FFF70EFD012008BD5E
:101F300008B540F219410122FFF714FD08BD00BFAA
:101F400008B540F21A410122FFF7FEFC012008BD4E
:101F500008B540F21A410122FFF704FD08BD00BF99
:101F600008B540F21B410122FFF7EEFC012008BD3D
:101F700008B540F21B410122FFF7F4FC08BD00BF89
:101F800008B540F21C410122FFF7DEFC012008BD2C
:101F900008B540F21C410122FFF7E4FC08BD00BF78
:101FA00008B540F21D410122FFF7CEFC012008BD1B
:101FB00008B540F21D410122FFF7D4FC08BD00BF67
:101FC00008B540F21E410122FFF7BEFC012008BD0A
:101FD00008B540F21E410122FFF7C4FC08BD00BF56
:101FE00008B540F21F410122FFF7AEFC012008BDF9
:101FF00008B540F21F410122FFF7B4FC08BD00BF45
:1020000008B54FF484610122FFF79EFC012008BD52
:1020100008B54FF484610122FFF7A4FC08BD00BF9E
:1020200008B540F221410122FFF78EFC012008BDD6
:1020300008B540F221410122FFF794FC08BD00BF22
:1020400008B540F222410122FFF77EFC012008BDC5
:1020500008B540F222410122FFF784FC08BD00BF11
:1020600008B540F223410122FFF76EFC012008BDB4
:1020700008B540F223410122FFF774FC08BD00BF00
:1020800008B540F224410122FFF75EFC012008BDA3
:1020900008B540F224410122FFF764FC08BD00BFEF
:1020A00008B540F225410122FFF74EFC012008BD92
:1020B00008B540F225410122FFF754FC08BD00BFDE
:1020C00008B540F226410122FFF73EFC012008BD81
:1020D00008B540F226410122FFF744FC08BD00BFCD
:1020E00008B540F227410122FFF72EFC012008BD70
:1020F00008B540F227410122FFF734FC08BD00BFBC
:1021000008B54FF4F7610122FFF71EFC012008BD5E
:1021100008B54FF4F7610122FFF724FC08BD00BFAA
:1021200008B540F2B9710122FFF70EFC012008BD8D
:1021300008B540F2B9710122FFF714FC08BD00BFD9
:1021400008B540F2BA710122FFF7FEFB012008BD7D
:1021500008B540F2BA710122FFF704FC08BD00BFC8
:1021600008B540F2BB710122FFF7EEFB012008BD6C
:1021700008B540F2BB710122FFF7F4FB08BD00BFB8
:1021800008B540F2BC710122FFF7DEFB012008BD5B
:1021900008B540F2BC710122FFF7E4FB08BD00BFA7
:1021A00008B540F2BD710122FFF7CEFB012008BD4A
:1021B00008B540F2BD710122FFF7D4FB08BD00BF96
:1021C00008B540F2BE710122FFF7BEFB012008BD39
:1021D00008B540F2BE710122FFF7C4FB08BD00BF85
:1021E00008B540F2BF710122FFF7AEFB012008BD28
:1021F00008B540F2BF710122FFF7B4FB08BD00BF74
:1022000008B54FF4F8610122FFF79EFB012008BDDD
:1022100008B54FF4F8610122FFF7A4FB08BD00BF29
:1022200008B540F2C1710122FFF78EFB012008BD05
:1022300008B540F2C1710122FFF794FB08BD00BF51
:1022400008B540F2C2710122FFF77EFB012008BDF4
:1022500008B540F2C2710122FFF784FB08BD00BF40
:1022600008B540F2C3710122FFF76EFB012008BDE3
:1022700008B540F2C3710122FFF774FB08BD00BF2F
:1022800008B540F2C4710122FFF75EFB012008BDD2
:1022900008B540F2C4710122FFF764FB08BD00BF1E
:1022A00008B540F2C5710122FFF74EFB012008BDC1
:1022B00008B540F2C5710122FFF754FB08BD00BF0D
:1022C00008B540F2C6710122FFF73EFB012008BDB0
:1022D00008B540F2C6710122FFF744FB08BD00BFFC
:1022E00008B540F2C7710122FFF72EFB012008BD9F
:1022F00008B540F2C7710122FFF734FB08BD00BFEB
:1023000008B54FF4F9610122FFF71EFB012008BD5B
:1023100008B54FF4F9610122FFF724FB08BD00BFA7
:1023200008B540F2C9710122FFF70EFB012008BD7C
:1023300008B540F2C9710122FFF714FB08BD00BFC8
:1023400008B540F2CA710122FFF7FEFA012008BD6C
:1023500008B540F2CA710122FFF704FB08BD00BFB7
:1023600008B540F2CB710122FFF7EEFA012008BD5B
:1023700008B540F2CB710122FFF7F4FA08BD00BFA7
:1023800008B540F2CC710122FFF7DEFA012008BD4A
:1023900008B540F2CC710122FFF7E4FA08BD00BF96
:1023A00008B540F2CD710122FFF7CEFA012008BD39
:1023B00008B540F2CD710122FFF7D4FA08BD00BF85
:1023C00008B540F2CE710122FFF7BEFA012008BD28
:1023D00008B540F2CE710122FFF7C4FA08BD00BF74
:1023E00008B540F2CF710122FFF7AEFA012008BD17
:1023F00008B540F2CF710122FFF7B4FA08BD00BF63
:1024000010B582B004460DF10700FFF739FB9DF8C7
:102410000730102B06D1204602211022FFF794FA34
:10242000102000E0002002B010BD00BF10B582B047
:102430000C4602211022FFF795FA102CA8BF102499
:1024400002A800F8014DFFF723FB02B010BD00BF4A
:1024500010B582B004460DF10700FFF721FB9DF88F
:102460000730022B06D120461E210222FFF76CFA0C
:10247000022000E0002002B010BD00BF00B583B014
:102480001E210222FFF76EFA02A8022300F8013D86
:10249000FFF70EFB03B05DF804FB00BF10B582B080
:1024A00004460DF10700FFF70BFB9DF80730062BE4
:1024B00006D1204618210622FFF746FA062000E042
:1024C000002002B010BD00BF00B583B01821062265
:1024D000FFF748FA02A8062300F8013DFFF7F8FAD3
:1024E00003B05DF804FB00BF30B583B005460DF1C5
:1024F0000700FFF7F5FA9DF807402846122106224B
:10250000FFF722FA062CB4BF2046062003B030BDE8
:1025100010B582B00C4612210622FFF723FA062CD2
:10252000A8BF062402A800F8014DFFF7E1FA02B0A7
:1025300010BD00BF30B583B004460139172900F241
:10254000B281DFE811F0180029003A004B005C006E
:102550006D007E008F00A000B100C200D300E40037
:10256000F50006011701280139014A015B016C01E0
:102570007D018E019F010DF10700FFF7C1FA9DF863
:102580000750202DA8BF202520464FF48B61202224
:10259000FFF7DAF9284686E10DF10700FFF7C0FAE8
:1025A0009DF80750202DA8BF202520464FF48F61AD
:1025B0002022FFF7C9F9284675E10DF10700FFF762
:1025C000BFFA9DF80750202DA8BF202520464FF4C4
:1025D00093612022FFF7B8F9284664E10DF1070066
:1025E000FFF7BEFA9DF80750202DA8BF20252046F2
:1025F0004FF497612022FFF7A7F9284653E10DF128
:102600000700FFF7BDFA9DF80750202DA8BF202531
:1026100020464FF49B612022FFF796F9284642E1BD
:102620000DF10700FFF7BCFA9DF80750202DA8BF59
:10263000202520464FF49F612022FFF785F9284688
:1026400031E10DF10700FFF7BBFA9DF80750202D8F
:10265000A8BF202520464FF4A3612022FFF774F97C
:10266000284620E10DF10700FFF7BAFA9DF8075060
:10267000202DA8BF202520464FF4A7612022FFF778
:1026800063F928460FE10DF10700FFF7B9FA9DF84D
:102690000750202DA8BF202520464FF4AB612022F3
:1026A000FFF752F92846FEE00DF10700FFF7B8FAF0
:1026B0009DF80750202DA8BF202520464FF4AF617C
:1026C0002022FFF741F92846EDE00DF10700FFF762
:1026D000B7FA9DF80750202DA8BF202520464FF4BB
:1026E000B3612022FFF730F92846DCE00DF1070046
:1026F000FFF7B6FA9DF80750202DA8BF20252046E9
:102700004FF4B7612022FFF71FF92846CBE00DF107
:102710000700FFF7B5FA9DF80750202DA8BF202528
:1027200020464FF4BB612022FFF70EF92846BAE09D
:102730000DF10700FFF7B4FA9DF80750202DA8BF50
:10274000202520464FF4BF612022FFF7FDF82846E0
:10275000A9E00DF10700FFF7B3FA9DF80750202D0F
:10276000A8BF202520464FF4C3612022FFF7ECF8D4
:10277000284698E00DF10700FFF7B2FA9DF80750E0
:10278000202DA8BF202520464FF4C7612022FFF747
:10279000DBF8284687E00DF10700FFF7B1FA9DF856
:1027A0000750202DA8BF202520464FF4CB612022C2
:1027B000FFF7CAF8284676E00DF10700FFF7B0FAF8
:1027C0009DF80750202DA8BF202520464FF4CF614B
:1027D0002022FFF7B9F8284665E00DF10700FFF762
:1027E000AFFA9DF80750202DA8BF202520464FF4B2
:1027F000D3612022FFF7A8F8284654E00DF1070026
:10280000FFF7AEFA9DF80750202DA8BF20252046DF
:102810004FF4D7612022FFF797F8284643E00DF1E7
:102820000700FFF7ADFA9DF80750202DA8BF20251F
:1028300020464FF4DB612022FFF786F8284632E07D
:102840000DF10700FFF7ACFA9DF80750202DA8BF47
:10285000202520464FF4DF612022FFF775F8284637
:1028600021E00DF10700FFF7ABFA9DF80750202D8E
:10287000A8BF202520464FF4E3612022FFF764F82B
:10288000284610E00DF10700FFF7AAFA9DF807505F
:10289000202DA8BF202520464FF4E7612022FFF716
:1028A00053F82846FFE703B030BD00BF10B582B033
:1028B0000C46013A172A00F26981DFE812F018008D
:1028C00026003400420050005E006C007A00880050
:1028D0009600A400B200C000CE00DC00EA00F800C0
:1028E00006011401220130013E014C015A014FF44E
:1028F0008B612022FFF736F8202CA8BF202402A8E5
:1029000000F8014DFFF704F940E14FF48F612022F8
:10291000FFF728F8202CA8BF202402A800F8014DBA
:10292000FFF706F932E14FF493612022FFF71AF81E
:10293000202CA8BF202402A800F8014DFFF708F9B9
:1029400024E14FF497612022FFF70CF8202CA8BF58
:10295000202402A800F8014DFFF70AF916E14FF410
:102960009B612022FEF7FEFF202CA8BF202402A896
:1029700000F8014DFFF70CF908E14FF49F612022A8
:10298000FEF7F0FF202CA8BF202402A800F8014D7C
:10299000FFF70EF9FAE04FF4A3612022FEF7E2FF01
:1029A000202CA8BF202402A800F8014DFFF710F941
:1029B000ECE04FF4A7612022FEF7D4FF202CA8BF43
:1029C000202402A800F8014DFFF712F9DEE04FF4D1
:1029D000AB612022FEF7C6FF202CA8BF202402A84E
:1029E00000F8014DFFF714F9D0E04FF4AF61202259
:1029F000FEF7B8FF202CA8BF202402A800F8014D44
:102A0000FFF716F9C2E04FF4B3612022FEF7AAFFE8
:102A1000202CA8BF202402A800F8014DFFF718F9C8
:102A2000B4E04FF4B7612022FEF79CFF202CA8BF32
:102A3000202402A800F8014DFFF71AF9A6E04FF490
:102A4000BB612022FEF78EFF202CA8BF202402A805
:102A500000F8014DFFF71CF998E04FF4BF61202208
:102A6000FEF780FF202CA8BF202402A800F8014D0B
:102A7000FFF71EF98AE04FF4C3612022FEF772FFD0
:102A8000202CA8BF202402A800F8014DFFF720F950
:102A90007CE04FF4C7612022FEF764FF202CA8BF22
:102AA000202402A800F8014DFFF722F96EE04FF450
:102AB000CB612022FEF756FF202CA8BF202402A8BD
:102AC00000F8014DFFF724F960E04FF4CF612022B8
:102AD000FEF748FF202CA8BF202402A800F8014DD3
:102AE000FFF726F952E04FF4D3612022FEF73AFFB8
:102AF000202CA8BF202402A800F8014DFFF728F9D8
:102B000044E04FF4D7612022FEF72CFF202CA8BF11
:102B1000202402A800F8014DFFF72AF936E04FF40F
:102B2000DB612022FEF71EFF202CA8BF202402A874
:102B300000F8014DFFF72CF928E04FF4DF61202267
:102B4000FEF710FF202CA8BF202402A800F8014D9A
:102B5000FFF72EF91AE04FF4E3612022FEF702FF9F
:102B6000202CA8BF202402A800F8014DFFF730F95F
:102B70000CE04FF4E7612022FEF7F4FE202CA8BF02
:102B8000202402A800F8014DFFF732F902B010BD71
:102B900008B50139172900F28780DFE801F00C1130
:102BA000161B20252A2F34393E43484D52575C616D
:102BB000666B70757A7F20210A22FEF7C5FE74E0ED
:102BC0002A210A22FEF7C0FE6FE034210A22FEF716
:102BD000BBFE6AE03E210A22FEF7B6FE65E0482110
:102BE0000A22FEF7B1FE60E052210A22FEF7ACFE97
:102BF0005BE05C210A22FEF7A7FE56E066210A226E
:102C0000FEF7A2FE51E070210A22FEF79DFE4CE085
:102C10007A210A22FEF798FE47E084210A22FEF775
:102C200093FE42E08E210A22FEF78EFE3DE09821BF
:102C30000A22FEF789FE38E0A2210A22FEF784FE6E
:102C400033E0AC210A22FEF77FFE2EE0B6210A22F5
:102C5000FEF77AFE29E0C0210A22FEF775FE24E085
:102C6000CA210A22FEF770FE1FE0D4210A22FEF7D5
:102C70006BFE1AE0DE210A22FEF766FE15E0E8216F
:102C80000A22FEF761FE10E0F2210A22FEF75CFE46
:102C90000BE0FC210A22FEF757FE06E04FF4837199
:102CA0000A22FEF751FE00E008BD0A2008BD00BF61
:102CB00008B5013A172A00F28680DFE802F00C110D
:102CC000161B20252A2F34393E43484D52575C614C
:102CD000666B70757A7F20210A22FEF743FE08BDDD
:102CE0002A210A22FEF73EFE08BD34210A22FEF701
:102CF00039FE08BD3E210A22FEF734FE08BD4821F8
:102D00000A22FEF72FFE08BD52210A22FEF72AFEF4
:102D100008BD5C210A22FEF725FE08BD66210A22B5
:102D2000FEF720FE08BD70210A22FEF71BFE08BD3B
:102D30007A210A22FEF716FE08BD84210A22FEF738
:102D400011FE08BD8E210A22FEF70CFE08BD982157
:102D50000A22FEF707FE08BDA2210A22FEF702FEA4
:102D600008BDAC210A22FEF7FDFD08BDB6210A22EE
:102D7000FEF7F8FD08BDC0210A22FEF7F3FD08BDED
:102D8000CA210A22FEF7EEFD08BDD4210A22FEF771
:102D9000E9FD08BDDE210A22FEF7E4FD08BDE821B9
:102DA0000A22FEF7DFFD08BDF2210A22FEF7DAFD56
:102DB00008BDFC210A22FEF7D5FD08BD4FF4837142
:102DC0000A22FEF7CFFD08BD08B50139172900F228
:102DD0009E80DFE801F00C12181E242A30363C4297
:102DE000484E545A60666C72787E848A90964FF48E
:102DF00085610122FEF7A8FD8AE040F22941012207
:102E0000FEF7A2FD84E040F22A410122FEF79CFD7C
:102E10007EE040F22B410122FEF796FD78E040F281
:102E20002C410122FEF790FD72E040F22D4101227B
:102E3000FEF78AFD6CE040F22E410122FEF784FD90
:102E400066E040F22F410122FEF77EFD60E04FF484
:102E500086610122FEF778FD5AE040F231410122FD
:102E6000FEF772FD54E040F232410122FEF76CFDA4
:102E70004EE040F233410122FEF766FD48E040F2A9
:102E800034410122FEF760FD42E040F2354101226B
:102E9000FEF75AFD3CE040F236410122FEF754FDB8
:102EA00036E040F237410122FEF74EFD30E04FF4AC
:102EB00087610122FEF748FD2AE040F239410122F4
:102EC000FEF742FD24E040F23A410122FEF73CFDCC
:102ED0001EE040F23B410122FEF736FD18E040F2D1
:102EE0003C410122FEF730FD12E040F23D4101225B
:102EF000FEF72AFD0CE040F23E410122FEF724FDE0
:102F000006E040F23F410122FEF71EFD00E008BD51
:102F1000012008BD08B50139172900F29D80DFE8BE
:102F200001F00C12181E242A30363C42484E545AE6
:102F300060666C72787E848A90964FF48561012277
:102F4000FEF710FD08BD40F229410122FEF70AFDFF
:102F500008BD40F22A410122FEF704FD08BD40F2FF
:102F60002B410122FEF7FEFC08BD40F22C4101225C
:102F7000FEF7F8FC08BD40F22D410122FEF7F2FCFD
:102F800008BD40F22E410122FEF7ECFC08BD40F2E4
:102F90002F410122FEF7E6FC08BD4FF486610122B5
:102FA000FEF7E0FC08BD40F231410122FEF7DAFCF9
:102FB00008BD40F232410122FEF7D4FC08BD40F2C8
:102FC00033410122FEF7CEFC08BD40F2344101221C
:102FD000FEF7C8FC08BD40F235410122FEF7C2FCF5
:102FE00008BD40F236410122FEF7BCFC08BD40F2AC
:102FF00037410122FEF7B6FC08BD4FF4876101227C
:10300000FEF7B0FC08BD40F239410122FEF7AAFCF0
:1030100008BD40F23A410122FEF7A4FC08BD40F28F
:103020003B410122FEF79EFC08BD40F23C410122DB
:10303000FEF798FC08BD40F23D410122FEF792FCEC
:1030400008BD40F23E410122FEF78CFC08BD40F273
:103050003F410122FEF786FC08BD00BF08B50139DB
:10306000172900F29E80DFE801F00C12181E242AB6
:1030700030363C42484E545A60666C72787E848A80
:1030800090964FF4EE610122FEF75EFC8AE040F27A
:1030900071710122FEF758FC84E040F27271012246
:1030A000FEF752FC7EE040F273710122FEF74CFC09
:1030B00078E040F274710122FEF746FC72E040F2C3
:1030C00075710122FEF740FC6CE040F2767101223E
:1030D000FEF73AFC66E040F277710122FEF734FC1D
:1030E00060E04FF4EF610122FEF72EFC5AE040F25F
:1030F00079710122FEF728FC54E040F27A71012236
:10310000FEF722FC4EE040F27B710122FEF71CFC30
:1031100048E040F27C710122FEF716FC42E040F2EA
:103120007D710122FEF710FC3CE040F27E7101222D
:10313000FEF70AFC36E040F27F710122FEF704FC44
:1031400030E04FF4F0610122FEF7FEFB2AE040F28E
:1031500081710122FEF7F8FB24E040F28271012226
:10316000FEF7F2FB1EE040F283710122FEF7ECFB5A
:1031700018E040F284710122FEF7E6FB12E040F213
:1031800085710122FEF7E0FB0CE040F2867101221E
:10319000FEF7DAFB06E040F287710122FEF7D4FB6E
:1031A00000E008BD012008BD08B50139172900F26B
:1031B0009D80DFE801F00C12181E242A30363C42B4
:1031C000484E545A60666C72787E848A90964FF4AA
:1031D000EE610122FEF7C6FB08BD40F271710122CB
:1031E000FEF7C0FB08BD40F272710122FEF7BAFB88
:1031F00008BD40F273710122FEF7B4FB08BD40F236
:1032000074710122FEF7AEFB08BD40F27571012218
:10321000FEF7A8FB08BD40F276710122FEF7A2FB83
:1032200008BD40F277710122FEF79CFB08BD4FF408
:10323000EF610122FEF796FB08BD40F27971012291
:10324000FEF790FB08BD40F27A710122FEF78AFB7F
:1032500008BD40F27B710122FEF784FB08BD40F2FD
:103260007C710122FEF77EFB08BD40F27D710122D8
:10327000FEF778FB08BD40F27E710122FEF772FB7B
:1032800008BD40F27F710122FEF76CFB08BD4FF4D0
:10329000F0610122FEF766FB08BD40F28171012258
:1032A000FEF760FB08BD40F282710122FEF75AFB77
:1032B00008BD40F283710122FEF754FB08BD40F2C5
:1032C00084710122FEF74EFB08BD40F28571012298
:1032D000FEF748FB08BD40F286710122FEF742FB73
:1032E00008BD40F287710122FEF73CFB08BD00BF1C
:1032F00008B50139172900F29E80DFE801F00C12B1
:10330000181E242A30363C42484E545A60666C726D
:10331000787E848A90964FF488610122FEF714FB30
:103320008AE040F241410122FEF70EFB84E040F2C8
:1033300042410122FEF708FB7EE040F243410122B8
:10334000FEF702FB78E040F244410122FEF7FCFA6E
:1033500072E040F245410122FEF7F6FA6CE040F2DD
:1033600046410122FEF7F0FA66E040F247410122B1
:10337000FEF7EAFA60E04FF489610122FEF7E4FA11
:103380005AE040F249410122FEF7DEFA54E040F2F1
:103390004A410122FEF7D8FA4EE040F24B410122A9
:1033A000FEF7D2FA48E040F24C410122FEF7CCFA97
:1033B00042E040F24D410122FEF7C6FA3CE040F205
:1033C0004E410122FEF7C0FA36E040F24F410122A1
:1033D000FEF7BAFA30E04FF48A610122FEF7B4FA40
:1033E0002AE040F251410122FEF7AEFA24E040F219
:1033F00052410122FEF7A8FA1EE040F25341012299
:10340000FEF7A2FA18E040F254410122FEF79CFABE
:1034100012E040F255410122FEF796FA0CE040F22C
:1034200056410122FEF790FA06E040F25741012290
:10343000FEF78AFA00E008BD012008BD08B5013991
:10344000172900F29D80DFE801F00C12181E242AD3
:1034500030363C42484E545A60666C72787E848A9C
:1034600090964FF488610122FEF77CFA08BD40F285
:1034700041410122FEF776FA08BD40F242410122A5
:10348000FEF770FA08BD40F243410122FEF76AFAE6
:1034900008BD40F244410122FEF764FA08BD40F243
:1034A00045410122FEF75EFA08BD40F24641012285
:1034B000FEF758FA08BD40F247410122FEF752FAE2
:1034C00008BD4FF489610122FEF74CFA08BD40F2B5
:1034D00049410122FEF746FA08BD40F24A41012265
:1034E000FEF740FA08BD40F24B410122FEF73AFADE
:1034F00008BD40F24C410122FEF734FA08BD40F20B
:103500004D410122FEF72EFA08BD40F24E41012244
:10351000FEF728FA08BD40F24F410122FEF722FAD9
:1035200008BD4FF48A610122FEF71CFA08BD40F283
:1035300051410122FEF716FA08BD40F25241012224
:10354000FEF710FA08BD40F253410122FEF70AFAD5
:1035500008BD40F254410122FEF704FA08BD40F2D2
:1035600055410122FEF7FEF908BD40F25641012205
:10357000FEF7F8F908BD40F257410122FEF7F2F9D3
:1035800008BD00BF08B50139172900F29E80DFE8A9
:1035900001F00C12181E242A30363C42484E545A70
:1035A00060666C72787E848A90964FF4F161012295
:1035B000FEF7CAF98AE040F289710122FEF7C4F9E8
:1035C00084E040F28A710122FEF7BEF97EE040F20B
:1035D0008B710122FEF7B8F978E040F28C7101227C
:1035E000FEF7B2F972E040F28D710122FEF7ACF9FC
:1035F0006CE040F28E710122FEF7A6F966E040F21F
:103600008F710122FEF7A0F960E04FF4F261012210
:10361000FEF79AF95AE040F291710122FEF794F90F
:1036200054E040F292710122FEF78EF94EE040F232
:1036300093710122FEF788F948E040F2947101226B
:10364000FEF782F942E040F295710122FEF77CF923
:103650003CE040F296710122FEF776F936E040F246
:1036600097710122FEF770F930E04FF4F361012207
:10367000FEF76AF92AE040F299710122FEF764F937
:1036800024E040F29A710122FEF75EF91EE040F25A
:103690009B710122FEF758F918E040F29C7101225B
:1036A000FEF752F912E040F29D710122FEF74CF94B
:1036B0000CE040F29E710122FEF746F906E040F26E
:1036C0009F710122FEF740F900E008BD012008BD0E
:1036D00008B50139172900F29D80DFE801F00C12CE
:1036E000181E242A30363C42484E545A60666C728A
:1036F000787E848A90964FF4F1610122FEF732F9C8
:1037000008BD40F289710122FEF72CF908BD40F294
:103710008A710122FEF726F908BD40F28B71012261
:10372000FEF720F908BD40F28C710122FEF71AF96C
:1037300008BD40F28D710122FEF714F908BD40F278
:103740008E710122FEF70EF908BD40F28F71012241
:10375000FEF708F908BD4FF4F2610122FEF702F905
:1037600008BD40F291710122FEF7FCF808BD40F25D
:1037700092710122FEF7F6F808BD40F29371012222
:10378000FEF7F0F808BD40F294710122FEF7EAF866
:1037900008BD40F295710122FEF7E4F808BD40F241
:1037A00096710122FEF7DEF808BD40F29771012202
:1037B000FEF7D8F808BD4FF4F3610122FEF7D2F806
:1037C00008BD40F299710122FEF7CCF808BD40F225
:1037D0009A710122FEF7C6F808BD40F29B710122E2
:1037E000FEF7C0F808BD40F29C710122FEF7BAF85E
:1037F00008BD40F29D710122FEF7B4F808BD40F209
:103800009E710122FEF7AEF808BD40F29F710122C1
:10381000FEF7A8F808BD00BF08B50139172900F266
:103820009E80DFE801F00C12181E242A30363C423C
:10383000484E545A60666C72787E848A90964FF433
:10384000F4610122FEF780F88AE040F2A1710122C2
:10385000FEF77AF884E040F2A2710122FEF774F8D4
:103860007EE040F2A3710122FEF76EF878E040F2AC
:10387000A4710122FEF768F872E040F2A5710122FE
:10388000FEF762F86CE040F2A6710122FEF75CF8E8
:1038900066E040F2A7710122FEF756F860E04FF4AF
:1038A000F5610122FEF750F85AE040F2A9710122B9
:1038B000FEF74AF854E040F2AA710122FEF744F8FC
:1038C0004EE040F2AB710122FEF73EF848E040F2D4
:1038D000AC710122FEF738F842E040F2AD710122EE
:1038E000FEF732F83CE040F2AE710122FEF72CF810
:1038F00036E040F2AF710122FEF726F830E04FF4D7
:10390000F6610122FEF720F82AE040F2B1710122AF
:10391000FEF71AF824E040F2B2710122FEF714F823
:103920001EE040F2B3710122FEF70EF818E040F2FB
:10393000B4710122FEF708F812E040F2B5710122DD
:10394000FEF702F80CE040F2B6710122FDF7FCFF31
:1039500006E040F2B7710122FDF7F6FF00E008BD76
:10396000012008BD08B50139172900F29D80DFE864
:1039700001F00C12181E242A30363C42484E545A8C
:1039800060666C72787E848A90964FF4F4610122AE
:10399000FDF7E8FF08BD40F2A1710122FDF7E2FF4B
:1039A00008BD40F2A2710122FDF7DCFF08BD40F224
:1039B000A3710122FDF7D6FF08BD40F2A4710122D8
:1039C000FDF7D0FF08BD40F2A5710122FDF7CAFF47
:1039D00008BD40F2A6710122FDF7C4FF08BD40F208
:1039E000A7710122FDF7BEFF08BD4FF4F56101226A
:1039F000FDF7B8FF08BD40F2A9710122FDF7B2FF43
:103A000008BD40F2AA710122FDF7ACFF08BD40F2EB
:103A1000AB710122FDF7A6FF08BD40F2AC71012297
:103A2000FDF7A0FF08BD40F2AD710122FDF79AFF3E
:103A300008BD40F2AE710122FDF794FF08BD40F2CF
:103A4000AF710122FDF78EFF08BD4FF4F661012230
:103A5000FDF788FF08BD40F2B1710122FDF782FF3A
:103A600008BD40F2B2710122FDF77CFF08BD40F2B3
:103A7000B3710122FDF776FF08BD40F2B471012257
:103A8000FDF770FF08BD40F2B5710122FDF76AFF36
:103A900008BD40F2B6710122FDF764FF08BD40F297
:103AA000B7710122FDF75EFF08BD00BF30B583B0DE
:103AB00004460139172900F2B281DFE811F018003D
:103AC00029003A004B005C006D007E008F00A000D2
:103AD000B100C200D300E400F5000601170128017F
:103AE00039014A015B016C017D018E019F010DF1DD
:103AF0000700FEF785F99DF80750202DA8BF202567
:103B000020464FF488712022FDF71EFF284686E1EB
:103B10000DF10700FEF784F99DF80750202DA8BF8E
:103B2000202520464FF498712022FDF70DFF2846EE
:103B300075E10DF10700FEF783F99DF80750202D80
:103B4000A8BF202520464FF4A8712022FDF7FCFED7
:103B5000284664E10DF10700FEF782F99DF8075051
:103B6000202DA8BF202520464FF4B8712022FDF754
:103B7000EBFE284653E10DF10700FEF781F99DF8B1
:103B80000750202DA8BF202520464FF4C8712022C1
:103B9000FDF7DAFE284642E10DF10700FEF780F955
:103BA0009DF80750202DA8BF202520464FF4D8713E
:103BB0002022FDF7C9FE284631E10DF10700FEF78E
:103BC0007FF99DF80750202DA8BF202520464FF4EF
:103BD000E8712022FDF7B8FE284620E10DF107002C
:103BE000FEF77EF99DF80750202DA8BF202520461E
:103BF0004FF4F8712022FDF7A7FE28460FE10DF1E2
:103C00000700FEF77DF99DF80750202DA8BF20255D
:103C100020464FF404712022FDF796FE2846FEE070
:103C20000DF10700FEF77CF99DF80750202DA8BF85
:103C3000202520464FF40C712022FDF785FE2846F2
:103C4000EDE00DF10700FEF77BF99DF80750202D00
:103C5000A8BF202520464FF414712022FDF774FEE2
:103C60002846DCE00DF10700FEF77AF99DF80750D1
:103C7000202DA8BF202520464FF41C712022FDF7DF
:103C800063FE2846CBE00DF10700FEF779F99DF8B9
:103C90000750202DA8BF202520464FF42471202254
:103CA000FDF752FE2846BAE00DF10700FEF778F95D
:103CB0009DF80750202DA8BF202520464FF42C71D9
:103CC0002022FDF741FE2846A9E00DF10700FEF78E
:103CD00077F99DF80750202DA8BF202520464FF4E6
:103CE00034712022FDF730FE284698E00DF10700E0
:103CF000FEF776F99DF80750202DA8BF2025204615
:103D00004FF43C712022FDF71FFE284687E00DF19D
:103D10000700FEF775F99DF80750202DA8BF202554
:103D200020464FF444712022FDF70EFE284676E02F
:103D30000DF10700FEF774F99DF80750202DA8BF7C
:103D4000202520464FF44C712022FDF7FDFD28462A
:103D500065E00DF10700FEF773F99DF80750202D7F
:103D6000A8BF202520464FF454712022FDF7ECFD1A
:103D7000284654E00DF10700FEF772F99DF8075050
:103D8000202DA8BF202520464FF45C712022FDF78E
:103D9000DBFD284643E00DF10700FEF771F99DF8C1
:103DA0000750202DA8BF202520464FF46471202203
:103DB000FDF7CAFD284632E00DF10700FEF770F965
:103DC0009DF80750202DA8BF202520464FF46C7188
:103DD0002022FDF7B9FD284621E00DF10700FEF78E
:103DE0006FF99DF80750202DA8BF202520464FF4DD
:103DF00074712022FDF7A8FD284610E00DF10700A0
:103E0000FEF76EF99DF80750202DA8BF202520460B
:103E10004FF47C712022FDF797FD2846FFE703B0A1
:103E200030BD00BF10B582B00C46013A172A00F22F
:103E30006981DFE812F018002600340042005000CB
:103E40005E006C007A0088009600A400B200C000FA
:103E5000CE00DC00EA00F800060114012201300166
:103E60003E014C015A014FF488712022FDF77AFD82
:103E7000202CA8BF202402A800F8014DFDF7C8FFA0
:103E800040E14FF498712022FDF76CFD202CA8BF73
:103E9000202402A800F8014DFDF7CAFF32E14FF4DB
:103EA000A8712022FDF75EFD202CA8BF202402A8C7
:103EB00000F8014DFDF7CCFF24E14FF4B87120224A
:103EC000FDF750FD202CA8BF202402A800F8014DCA
:103ED000FDF7CEFF16E14FF4C8712022FDF742FD39
:103EE000202CA8BF202402A800F8014DFDF7D0FF28
:103EF00008E14FF4D8712022FDF734FD202CA8BF33
:103F0000202402A800F8014DFDF7D2FFFAE04FF49B
:103F1000E8712022FDF726FD202CA8BF202402A84E
:103F200000F8014DFDF7D4FFECE04FF4F8712022CA
:103F3000FDF718FD202CA8BF202402A800F8014D91
:103F4000FDF7D6FFDEE04FF404712022FDF70AFDF5
:103F5000202CA8BF202402A800F8014DFDF7D8FFAF
:103F6000D0E04FF40C712022FDF7FCFC202CA8BF00
:103F7000202402A800F8014DFDF7DAFFC2E04FF45B
:103F800014712022FDF7EEFC202CA8BF202402A8EB
:103F900000F8014DFDF7DCFFB4E04FF41C71202266
:103FA000FDF7E0FC202CA8BF202402A800F8014D5A
:103FB000FDF7DEFFA6E04FF424712022FDF7D2FCCE
:103FC000202CA8BF202402A800F8014DFDF7E0FF37
:103FD00098E04FF42C712022FDF7C4FC202CA8BFE0
:103FE000202402A800F8014DFDF7E2FF8AE04FF41B
:103FF00034712022FDF7B6FC202CA8BF202402A893
:1040000000F8014DFDF7E4FF7CE04FF43C71202205
:10401000FDF7A8FC202CA8BF202402A800F8014D21
:10402000FDF7E6FF6EE04FF444712022FDF79AFCA5
:10403000202CA8BF202402A800F8014DFDF7E8FFBE
:1040400060E04FF44C712022FDF78CFC202CA8BFBF
:10405000202402A800F8014DFDF7EAFF52E04FF4DA
:1040600054712022FDF77EFC202CA8BF202402A83A
:1040700000F8014DFDF7ECFF44E04FF45C712022A5
:10408000FDF770FC202CA8BF202402A800F8014DE9
:10409000FDF7EEFF36E04FF464712022FDF762FC7D
:1040A000202CA8BF202402A800F8014DFDF7F0FF46
:1040B00028E04FF46C712022FDF754FC202CA8BF9F
:1040C000202402A800F8014DFDF7F2FF1AE04FF49A
:1040D00074712022FDF746FC202CA8BF202402A8E2
:1040E00000F8014DFDF7F4FF0CE04FF47C71202245
:1040F000FDF738FC202CA8BF202402A800F8014DB1
:10410000FDF7F6FF02B010BD08B51830FCF770FFE0
:1041100008BD00BF08B51830FCF794FF08BD00BF0C
:1041200008B51830FCF7B2FF08BD00BFF0B59FB06E
:1041300002A8FCF75DFF02A81B492022FCF782FFC2
:1041400002A81A492422FCF77DFF02A81849FCF7AF
:104150009DFF01A8FDF774FC9DF804209DF8053033
:1041600053EA022302D002F0E1F81AE011481249A2
:10417000422207F085FA114E114C06F12007354610
:104180000FCD20606160A260E3602E461034BD4216
:10419000F5D12B7823700B480B4940F2B91207F088
:1041A0006FFA1FB0F0BD00BF8497FF1F5C97FF1F21
:1041B000F098FF1F88A1FF1F60A00100809E0100F2
:1041C00024A2FF1F0C9EFF1FA49E010070B4094B88
:1041D00003F130040848002601681A792AB19A6868
:1041E000891AB1F57A7FC8BF1E710C33A342F3D18F
:1041F00070BC7047C499FF1FE0AAFF1F10B40120D4
:10420000002408492346CA18127922B15A5882421A
:1042100001D10130F6E70C33302BF4D15DF8044BBB
:10422000704700BFC499FF1F10B5044610B9FFF7CF
:10423000E5FF0446164B1B795BB1154B1B7C43B164
:10424000134B1B7F2BB1124B93F828300BB1FFF7A8
:10425000BDFF0F4B1B797BB10D4B1B7C43B10C4B4E
:104260001B7F3BB10A4B93F8283073B9094B04E02C
:10427000094B02E0094B00E0054B1C6001221A715A
:10428000074A12689A60204610BD002010BD00BF8A
:10429000C499FF1FE899FF1FD099FF1FDC99FF1FEA
:1042A000E0AAFF1F70B582B0014605680195447908
:1042B000837943EA042416480A6802600A79027185
:1042C000002242711122827107300731224607F025
:1042D000D7F9E61DB5F1FF3F04D10020FFF7A4FF99
:1042E000019002E02846FFF79FFF094B0198F0502C
:1042F0001A190221D1720120107300215173907399
:10430000D1731846642107F05DFE019802B070BDBC
:1043100098A6FF1F08B5074B02681A60BF221A71E2
:1043200000225A7101229A71D9711846642107F04E
:1043300049FE08BD98A6FF1F114B1B68834212D08F
:104340000F4BDB6883420AD00D4B9B69834208D038
:104350000B4B5B6A834208BF032005D00DE00120B0
:1043600002E0022000E00020064B1A6800EB40014A
:10437000034B03EB81039A6070474FF0FF307047A7
:10438000C499FF1FE0AAFF1F08B500224271022254
:1043900082710A12C2710172642107F013FE08BD16
:1043A0002DE9F0470D46284C0368236083232371D1
:1043B0003929B4BF89464FF039090B126371A171D5
:1043C000E01D22494A4607F05BF92046642107F0C8
:1043D000F9FDC9EB0509B9F1000F33DD1C4D0026CD
:1043E000274604F105084FF0640A3E712B46444607
:1043F00005F13002D3F800C0D3F804E09868D9681A
:10440000C4F800C0C4F804E0A060E16010331034C8
:104410009342EFD119685A68216062601A899B7AC9
:104420002281A3723846514607F0CCFDA9F13B0921
:1044300044F62063013B7FF4FDAF01363B35B9F113
:10444000000FD2DCBDE8F08798A6FF1F4CA2FF1F2B
:1044500085A2FF1F2DE9F04FFFB00446C37923B1B9
:104460004FF4DC41FFF790FFB8E2457AC37A027B54
:10447000120242EA0342437B1A43037A022B00F002
:104480005481032B00F08D82012B40F0A382402A3F
:1044900004D04FF4CE41FFF777FF9FE2AF4B1B688C
:1044A00023B946F68511FFF76FFF97E20746DFF85D
:1044B000E49248460021442211F0E2FDDFF8D8A240
:1044C0000026534643F8046BCAF80460043343F8EB
:1044D000046B43F8046B43F8046B43F8046B43F834
:1044E000046B43F8046B1E60DFF8B0B209F1010001
:1044F0005146DBF8002006F021FE042389F8003045
:10450000DFF88C82454657F82E0F7968BA68FB6849
:104510000FC538697969BA69FB690FC5BAE80F0038
:104520000FC59AE80F0085E80F0004A8FCF760FDAE
:1045300004A839462022FCF785FDDFF850A204A824
:104540005146FCF7A3FD40465146854A402302F000
:1045500071FC20A8FCF74CFD824D2E7020A8294646
:104560000122FCF76FFD20A839462022FCF76AFDE6
:1045700020A804F10E012022FCF764FD20A841468A
:104580004022FCF75FFD20A849464122FCF75AFD76
:1045900020A85146FCF77AFD5CA83146882211F02C
:1045A0006FFD714B5C93714B5D93714B5E93402635
:1045B0005F96202260923CAB61936E4B0093DBF8D8
:1045C000003001936C4851465CAB06F0F7FD28467D
:1045D000052300F8013B4946412207F051F885F8D0
:1045E000426047464335B0443E460FCE286069607E
:1045F000AA60EB60374610354645F5D103A8FDF7B4
:104600001FFA9DF80D309DF80C5043EA0525002D4A
:1046100008BF4FF4DC75594E304659492A4607F019
:104620002FF805F1840C833E7319302283F8832020
:10463000442206F80C2005F18601022283F8852029
:104640004C4B93F90030002B0DDA2122725405F106
:1046500088003544002285F8872016F80C200132A6
:1046600006F80C2004E005F1870020223D4B5A5447
:10467000DFF8F0E000EB0E023E4B1F685E689D68BD
:10468000D96840F80E7056609560D1601F695E6908
:104690009D69D969176156619561D16100F1210168
:1046A000022582F8205093F92030002B0EDA2122C7
:1046B0000EF8012000F123057044002280F822202A
:1046C0001EF80C2001320EF80C2004E000F1220547
:1046D0002022244B5A5423496A182A4BD3F800E06D
:1046E0005F689E68D86845F801E057609660D060C2
:1046F000D3F810E05F699E69D869C2F810E057618D
:104700009661D06105F120035A1890205854002674
:104710005670124B1E6001F0B5FF204605F12201D4
:10472000FFF73EFE184B1E6058E1812A04D04FF47B
:10473000CE41FFF729FE51E190F84E30402B04D0D6
:104740004FF4D541FFF720FE48E1044B1B683BBB0B
:1047500046F68511FFF718FE40E100BF5899FF1F8C
:10476000F098FF1F4CA2FF1F0941000015410000F7
:104770002141000098A6FF1F24A2FF1FCFA2FF1F08
:104780000C9EFF1FB8A6FF1F50A1FF1FECA1FF1F2B
:104790001499FF1F8099FF1F5C99FF1FF499FF1F59
:1047A00000F12E0800F14F06DFF83CE200F18F0C1B
:1047B000774630687168B268F3680FC71036BE4636
:1047C0006645F5D104A8FCF713FC04A84146202255
:1047D000FCF738FC834F04A83946FCF757FC824E9F
:1047E00030463946814A402302F05AFB3046414662
:1047F000202211F0B1FB28B120464FF4D541FFF73C
:10480000C3FDEBE0072D05D1204646F68511FFF7E5
:10481000BBFDE3E0032D40F0E18000F0FBFA06462B
:1048200020A8FCF7E5FB20A841462022FCF70AFC63
:104830006F4D01232B70321202F47F42330203F4D6
:104840007F03134343EA166343EA06630393039823
:10485000C5F8010020A829460522FCF7F3FB20A893
:1048600004F10E012022FCF7EDFBDFF8788120A88F
:104870004146FCF70BFC5CA80021882211F000FCEB
:104880005C4B5C935C4B5D935C4B5E9340235F930E
:10489000202260923CAB6193594F0097594B1B68A3
:1048A0000193594841465CAB06F088FC30236B719C
:1048B0004423AB710223EB7197F90030002B07DA28
:1048C00021222A7200226A724522AA710A2003E07C
:1048D0002022474B1A720920DFF814C100EB0C02AA
:1048E000474BD3F800E05F689D68D96840F80CE05A
:1048F00057609560D160D3F810E05F699D69D96910
:10490000C2F810E057619561D16100F121010225E3
:1049100082F8205093F92030002B0EDA21220CF877
:10492000012000F123056044002280F822209CF839
:10493000062001328CF8062004E000F12205202236
:104940002B4B5A542A496A18304BD3F800C0D3F87D
:1049500004E09F68D86845F801C0C2F804E0976099
:10496000D060D3F810C0D3F814E09F69D869C2F8BA
:1049700010C0C2F814E09761D06105F120035A1805
:104980009020585400235370214A136001F07AFE9E
:10499000204605F12201FFF703FD701C00F048FAE4
:1049A0001CE022B14FF4CE41FFF7EEFC16E00023ED
:1049B000437108228271174A1068C4F80700928870
:1049C000A4F80B2090226273A3732046642107F0A1
:1049D000F9FA03E04FF4DA41FFF7D6FC7FB0BDE807
:1049E000F08F00BFECA1FF1F1499FF1FF098FF1F6D
:1049F0004CA2FF1F094100001541000021410000A9
:104A000098A6FF1FF499FF1F3499FF1FB8A6FF1F38
:104A10005899FF1FA4A001002DE9F84F044603791F
:104A200090F805908279862B01D8842B05D12D48EA
:104A30000121FFF76FFCBDE8F88F812B4CD142EAD2
:104A40000929B9F1390F04DC642107F0BBFABDE88C
:104A5000F88F642107F0B6FAA9F13909B9F1000F0E
:104A60003EDD04F1400500271F4E06F105084FF01A
:104A7000640A2368336037712B46424605F13001E2
:104A8000D3F800B0D3F804C0D3F808E0D868C2F86F
:104A900000B0C2F804C0C2F808E0D0601033103291
:104AA0008B42EDD1186859681060516019899B7A62
:104AB000118193723046514607F084FAA9F13B09FF
:104AC00044F62063013B7FF4FDAF01373B35B9F17C
:104AD000000FCEDCBDE8F88F832B01D1FFF7BAFCC5
:104AE000BDE8F88F4CA6FF1F98A6FF1F10B4002347
:104AF00006480324C2181179022908BF14710C3327
:104B0000302BF7D15DF8044B704700BFC499FF1FED
:104B10002DE9F04383B0044600680190019D25B95A
:104B200020460B21FFF7F6FBEAE0267994F8059082
:104B300094F80680862E0ED1FFF7D8FF2046FFF7A7
:104B4000B1FBFFF7F9FB00EB40006F4B03EB800379
:104B500001221A71D4E0B5F1FF3F04D120460B21A8
:104B6000FFF7D8FBCCE02846FFF7E6FB0746B0F19D
:104B7000FF3F0ED12846FFF757FB2846FFF7DCFB27
:104B80000746B0F1FF3F04D120460B21FFF7C2FBDF
:104B9000B6E016F0800F68D048EA092141F6B95313
:104BA000994204DD20460321FFF7B4FBA8E0392930
:104BB0004EDD554B1B79022B13D0534B1B7C022B24
:104BC0000BD0514B1B7F022B09D04F4B93F8283051
:104BD000022B08BF032505D017E0012502E00225BE
:104BE00000E00025BD420BD120460421FFF792FBD7
:104BF00005EB4505444B03EB850301221A717FE069
:104C000020460621FFF786FB7AE007EB47073E4B7D
:104C100003EB870702233B713C4B1A683C4B1A603D
:104C200023463C4A40341F685E689D68D868176018
:104C300056609560D06010331032A342F3D1364BEA
:104C400019603922354B1A600022354B1A7057E033
:104C5000FFF74CFF2046FFF7DFFE07EB47072A4B25
:104C600003EB870701233B714AE007EB4703264A22
:104C700002EB83031B79022B42D1294B1B78B342F1
:104C80000BD020460421FFF745FB07EB47071E4BDF
:104C900003EB870701233B7132E0204B1968631D4A
:104CA000204A0A443534D3F80080D3F804C09D6804
:104CB000D868C2F80080C2F804C09560D060103394
:104CC0001032A342EFD11C685868146050601889F4
:104CD0009B7A108193723B31104B19600E4B1B680D
:104CE000994203DA01360E4B1E7009E007EB4707C5
:104CF000054B03EB870301221A710648FFF78CFE70
:104D000003B0BDE8F08300BFC499FF1FE0AAFF1FF6
:104D10005499FF1F0C9AFF1F54A1FF1F50A1FF1FA2
:104D200058A1FF1F139AFF1F2DE9F8430746134DA3
:104D300005F108043835124E4FF003084FF005090D
:104D400014F8043C032B0AD154F8083C3B60384665
:104D50004946FFF7DFFA012304F8043C09E0022B7F
:104D600007D131682368CB1AB3F5FA7FC8BF04F8BE
:104D7000048C0C34AC42E3D1BDE8F883C499FF1F26
:104D8000E0AAFF1F08B506F0D5F9014B186008BD71
:104D9000F499FF1F10B50A4C0A4B187821780FF0D0
:104DA000AFFD23780833DBB2237043B9064C2046AD
:104DB0000649FCF71FFA20460549FCF74BFA10BDDF
:104DC00040A1FF1FE3A1FF1F8097FF1FF899FF1F5E
:104DD00070A1FF1F10B50A4C21780839C9B22170A3
:104DE000084B18780FF08CFD237843B9064C204609
:104DF0000649FCF7FFF920460549FCF72BFA10BDE0
:104E000040A1FF1FE3A1FF1F8097FF1F70A1FF1F9D
:104E1000F899FF1F10B582B00024204607F060F912
:104E200001AB18550134042CF7D1019802B010BD24
:104E300070B582B001900DF10306002416F8015FF1
:104E4000204607F04DF9854203D02046294607F059
:104E50005BF90134042CF1D102B070BD2DE9F041B1
:104E6000071E15DD00240B4E4FF0FF086425307837
:104E700041460FF045FD28460FF05CFE30780021DA
:104E80000FF03EFD28460FF055FE0134BC42EED136
:104E9000BDE8F081E3A1FF1F70B50024064E09258F
:104EA000307821460FF02CFD28460FF043FE0534E4
:104EB000B4F5827FF4D170BDE3A1FF1F70B5FF246C
:104EC000064E0925307821460FF01AFD28460FF0CE
:104ED00031FE053C14F1050FF4D170BDE3A1FF1FB5
:104EE00010B5304B187806F0A1FC01462E4B186027
:104EF0002E4C20460422134602F09CFA2C4B1878C4
:104F000006F094FC01462B4B186020460422134601
:104F100002F090FA284B187806F088FC0146274BDF
:104F2000186020460422134602F084FA244B1878B5
:104F300006F07CFC0146234B1860204604221346F1
:104F400002F078FA204B187806F070FC01461F4BEF
:104F5000186020460422134602F06CFA1C4B1878A5
:104F600006F064FC01461B4B1860204604221346E1
:104F700002F060FA184B18780FF0AEFB014620469D
:104F80000422102302F056FA144B18780FF0A4FBF9
:104F9000014620460422102302F04CFA204602F07B
:104FA00027FA10BDDCA1FF1F0CA2FF1F5CA7FF1F8B
:104FB000DDA1FF1F10A2FF1FDEA1FF1F14A2FF1F14
:104FC000DFA1FF1F18A2FF1FE0A1FF1F1CA2FF1FF0
:104FD000E1A1FF1FD8A1FF1F0CA1FF1F0DA1FF1F03
:104FE000F8B507460E460A4D0A4C01E0FFF778FF78
:104FF0002846216802F056F90028F7D004483946BF
:10500000324602F089F92022024B1A600120F8BDD5
:105010005CA7FF1FA48CFF1F30B415462AB10023E4
:10502000C45CCC540133AB42FAD130BC704700BFF2
:1050300070B4164632B100240B44055D1D55013491
:10504000B442FAD170BC704710B5037833B1094A45
:1050500002F8013F10F8013F002BF9D1064C204621
:10506000002106F0AFFF20460021402211F008F891
:1050700010BD00BF97A6FF1F98A6FF1F70B588B090
:10508000864B1B78002B14BF0C2500250DF1020068
:10509000691CFDF77DFD01238DF800307C248DF81F
:1050A0000140684604A90D22FFF7B6FF04A8FFF7E8
:1050B000CBFF14200FF03EFD0DF10200A91CFDF7FF
:1050C00067FD02238DF800308DF80140684604A981
:1050D0000D22FFF7A1FF04A8FFF7B6FF14200FF081
:1050E00029FD0DF10200E91CFDF752FD03268DF8A4
:1050F00000608DF80140684604A90D22FFF78CFF7F
:1051000004A8FFF7A1FF14200FF014FD0DF1020019
:10511000291DFDF73DFD04238DF800308DF8014079
:10512000684604A90D22FFF777FF04A8FFF78CFF5C
:1051300014200FF0FFFC0DF10200691DFDF728FDA2
:1051400005238DF800308DF80140684604A90D2232
:10515000FFF762FF04A8FFF777FF14200FF0EAFCC7
:105160000DF10200A91DFDF713FD06238DF8003097
:105170008DF80140684604A90D22FFF74DFF04A8F1
:10518000FFF762FF14200FF0D5FC0DF10200E91DBE
:10519000FDF7FEFC07238DF800308DF801406846CE
:1051A00004A90D22FFF738FF04A8FFF74DFF1420D4
:1051B0000FF0C0FC0DF1020005F10801FDF7E8FC5D
:1051C00008238DF800308DF80140684604A90D22AF
:1051D000FFF722FF04A8FFF737FF14200FF0AAFC07
:1051E0000DF1020005F10901FDF7D2FC09238DF84C
:1051F00000308DF80140684604A90D22FFF70CFF2E
:1052000004A8FFF721FF14200FF094FC0DF1020019
:1052100005F10A01FDF7BCFC10238DF800308DF874
:10522000014068460DEB03010D22FFF7F5FE04A8CF
:10523000FFF70AFF14200FF07DFC0DF1020005F1CD
:105240000B01FDF7A5FC11238DF800308DF801400E
:10525000684604A90D22FFF7DFFE04A8FFF7F4FE5D
:1052600014200FF067FC0DF1020005F10C01FDF7B1
:105270008FFC12238DF800308DF80140684604A998
:105280000D22FFF7C9FE04A8FFF7DEFE14200FF081
:1052900051FC3046FFF7E2FD08B070BD20A2FF1FB1
:1052A00038B54FF40063013BFDD10024254620466C
:1052B000294606F029FF0134B4F5006FF7D14FF409
:1052C0000063013BFDD138BD10B582B001A8FCF7E9
:1052D000C7FB9DF80440E4022046002101F040FF96
:1052E00004F50060002101F03BFF04F5C0500021EF
:1052F00001F036FF04F54050002101F031FF02B00B
:1053000010BD00BF00B583B00DF10700FCF748FBEE
:105310009DF80730012B04D8FFF7D6FFFFF7C0FF39
:1053200001E001F073FF0022034B1A700122034BCE
:105330001A7003B05DF804FBE8A1FF1FE2A1FF1F94
:1053400010B50446204B1B783BB9204B1B78002B33
:105350002FD01F48FFF778FE10BD1C4B1B7843B3BE
:105360001C48FFF771FEFCF7E7FA20BB0934002365
:10537000194A14F8011D994010680143116008335F
:10538000202BF6D1154B1A68154B1B68D21A40F624
:10539000B7339A4208D8114B1A68124BA3FB020389
:1053A00001EB93110C4B19600B4B1868FCF760FA7A
:1053B00001E0FFF7A7FF0C48002106F003FE0320E1
:1053C000FFF74CFD10BD00BFE8A1FF1FE2A1FF1FCA
:1053D000F0A00100409D0100E4A1FF1FE0AAFF1F13
:1053E00048A2FF1FD34D621098A6FF1F30B4043AA5
:1053F00012D403460024CD78055551F8045B2D0CDA
:105400005D7051F8045C2D0A9D7051F8045CDD70EC
:10541000043304349442EEDD30BC70472DE9F04390
:1054200083B006468846171F18D405460024A146B7
:10543000AA786B781B0443EA0223EA781343325DAF
:1054400043EA0263019308EB040001A94A464B4674
:1054500001F048FE04340435BC42E9DD03B0BDE888
:10546000F08300BF70B582B006460D4601A8FCF778
:10547000F7FA9DF804104C1EE4B2FD2C01D900206F
:1054800004E03046C9022A46FFF7B0FF02B070BD03
:1054900070B5C2B0044601A8FCF7E2FA9DF80450CA
:1054A0004DB901F04FFE0546C30A8DF8043001A83E
:1054B000FCF7DEFA00E0ED022E4602A82946FE22A5
:1054C000FFF794FF002302ADE25C5A550133202B15
:1054D000FAD13046002101F043FE02A83146FE22F7
:1054E000FFF79CFF204631462022FFF77FFF42B0A6
:1054F00070BD00BF10B582B0044601A8FCF7B0FA39
:105500009DF80410C902204620312022FFF76EFFCB
:105510002378FF2B07D16378FF2B06D1A078FF38C3
:1055200018BF012002E0012000E0012002B010BD00
:1055300070B5C2B0054601A8FCF792FA9DF8046068
:10554000F60202A83146FE22FFF750FF002302AA0E
:105550001A44EC5C82F820400133202BF7D130460E
:10556000002101F0FDFD02A83146FE22FFF756FFA3
:10557000284631462022FFF739FF42B070BD00BFF8
:1055800070B5A4B04F4B1B68032B00F29880DFE886
:1055900003F0020C363D4C48FBF7C6FE4B48FFF7C4
:1055A00053FD0122474B1A6089E00222454B1A60E5
:1055B000454811F04BF80738032816D84448FFF740
:1055C00043FD0024434E404D635DA35501342846FE
:1055D00011F03CF88442F7D93B4C20463D49FBF79B
:1055E00093FE2046FBF7A0FE69E03B48FFF72CFD49
:1055F0003548FBF799FE0022324B1A605FE03748CE
:10560000FFF722FD03222F4B1A6058E000222D4B9A
:105610001A602D4811F01AF80738032843D82A4891
:10562000FBF786FE002837D00024274D635D0DF878
:1056300004300134284611F009F88442F6D908A84C
:10564000FBF7D6FC204811F001F8024608A869468D
:10565000FBF7F8FC224B1B783BB968462021FFF78B
:10566000BFFC6846FFF714FF03E068462021FFF700
:10567000F9FE08A869462022FBF7E4FC08A8694661
:10568000FBF704FD6846FFF753FF0122144B1A7025
:105690001448FFF7D9FC0CE01348FFF7D5FC0022B3
:1056A000084B1A6005E00C48FFF7CEFC0022054BC2
:1056B0001A600548FBF738FE0320FFF7CFFB24B044
:1056C00070BD00BF84A1FF1F5CA1FF1F00A10100EE
:1056D00024A1010044A1FF1F3CA1010068A1010019
:1056E000E8A1FF1F98A10100B0A1010010B582B090
:1056F000044601A8FCF7B4F99DF80410C90220463D
:1057000040312022FFF772FE2378FF2B07D1637808
:10571000FF2B06D1A078FF3818BF012002E001203E
:1057200000E0012002B010BD70B5C2B0054601A86E
:10573000FCF796F99DF80460F60202A83146FE22B5
:10574000FFF754FE002302AA1A44EC5C82F84040A2
:105750000133202BF7D13046002101F001FD02A8D2
:105760003146FE22FFF75AFE284631462022FFF737
:105770003DFE42B070BD00BF70B5A4B0454B1B6884
:10578000062B00F28580DFE803F0048383830E3864
:105790003F004148FBF7C8FD4048FFF755FC042295
:1057A0003C4B1A6074E005223A4B1A603A4810F0FC
:1057B0004DFF0738032816D83948FFF745FC002469
:1057C000384E354D635DA3550134284610F03EFF39
:1057D0008442F7D9304C20463249FBF795FD2046EC
:1057E000FBF7A2FD54E03048FFF72EFC2A48FBF7F8
:1057F0009BFD0022274B1A604AE02C48FFF724FC4F
:105800000622244B1A6043E00022224B1A602248F1
:1058100010F01CFF0738032831D81F48FBF788FD1C
:1058200048B300241C4D635D0DF804300134284654
:1058300010F00CFF8442F6D908A8FBF7D9FB1648F4
:1058400010F004FF024608A86946FBF7FBFB684618
:105850002021FFF707FE08A869462022FBF7F2FB8C
:1058600008A86946FBF712FC6846FFF75DFF104881
:10587000FFF7EAFB06E00F48FFF7E6FB02E00A4805
:10588000FFF7E2FB0448FBF74FFD0320FFF7E6FAC2
:1058900024B070BD84A1FF1F5CA1FF1FC8A101003F
:1058A00024A101008CA6FF1F3CA1010068A10100FA
:1058B00098A10100B0A1010010B582B0044601A872
:1058C000FCF7CEF89DF80410C90220466031202272
:1058D000FFF78CFD2378FF2B07D16378FF2B06D1D0
:1058E000A078FF3818BF012002E0012000E001206D
:1058F00002B010BD70B5C2B0054601A8FCF7B0F803
:105900009DF80460F60202A83146FE22FFF76EFD04
:10591000002302AA1A44EC5C82F860400133202B79
:10592000F7D13046002101F01BFC02A83146FE22CF
:10593000FFF774FD284631462022FFF757FD42B09D
:1059400070BD00BF70B5A4B0504B1B68092B00F2AE
:105950009B80DFE803F0059999999999990F39404F
:105960004B48FBF7E1FC4B48FFF76EFB0722474B28
:105970001A6089E00822454B1A60454810F066FE1F
:105980000738032816D84448FFF75EFB0024434E2F
:105990003F4D635DA3550134284610F057FE844205
:1059A000F7D93B4C20463D49FBF7AEFC2046FBF7C0
:1059B000BBFC69E03A48FFF747FB3548FBF7B4FC0E
:1059C0000022324B1A605FE03648FFF73DFB0922A8
:1059D0002E4B1A6058E000222C4B1A602C4810F015
:1059E00035FE0738032843D82948FBF7A1FC0028D7
:1059F00037D00024264D635D0DF80430013428466D
:105A000010F024FE8442F6D908A8FBF7F1FA2048EA
:105A100010F01CFE024608A86946FBF713FB224B58
:105A20001B783BB968462021FFF7DAFA6846FFF792
:105A30002FFD03E068462021FFF714FD08A8694602
:105A40002022FBF7FFFA08A86946FBF71FFB684610
:105A5000FFF750FF0122144B1A701448FFF7F4FAB5
:105A60000CE01348FFF7F0FA0022084B1A6005E03B
:105A70000B48FFF7E9FA0022044B1A600448FBF7D1
:105A800053FC0320FFF7EAF924B070BD84A1FF1F87
:105A90005CA1FF1F00A1010024A10100CCA1FF1FF8
:105AA0003CA1010068A10100E8A1FF1F98A101002D
:105AB000B0A1010070B582B006460C4601A8FBF704
:105AC000CFFF9DF80410CD02631E172B00F2B281A8
:105AD000DFE813F0180029003A004B005C006D006D
